:100000000C949F0E0C94A7170C94D8170C940918F5
:100010000C943A180C946B180C949C180C94CD18F2
:100020000C94FE180C94CC0E0C94CC0E0C94CC0EAC
:100030000C94CC0E0C94B4970C94CC0E0C94CC0E67
:100040000C94CC0E0C94A66B0C94CC0E0C94CC0E91
:100050000C94CC0E0C94CC0E0C944D750C94961400
:100060000C94CC0E0C949D410C94CC0E0C94CC0EA4
:100070000C94CC0E0C94CC0E0C94CC0E0C94CC0E98
:100080000C94CC0E0C94CC0E0C94CC0E0C94CC0E88
:100090000C94CC0E0C94CC0E0C94CC0E0C94CC0E78
:1000A0000C94CC0E0C94CC0E0C94CC0E0C94CC0E68
:1000B0000C94CC0E0C94CC0E0C94CC0E0C94CC0E58
:1000C0000C94CC0E0C94CC0E0C94CC0E0C94CC0E48
:1000D0000C94CC0E0C94CC0E0C94CC0E0C94CC0E38
:1000E0000C94CC0E084AD73B3BCE016E84BCBFFDBE
:1000F000C12F3D6C74319ABD56833DDA3D00C77FF8
:1001000011BED9E4BB4C3E916BAAAABE0000008090
:100110003F05A84CCDB2D44EB93836A9020C50B91F
:10012000918688083CA6AAAA2ABE000000803F004B
:10013000002100240027002A002D00300033000198
:10014000010000040107010A010000220025002827
:10015000002B002E003100340002010000050108D0
:10016000010B01000020002300260029002C002F95
:100170000032000001000003010601090105050528
:1001800005070508080808020202020A0A0808040E
:10019000040404010101010101010103030303033C
:1001A000030303040707070C0C0C0C0C0C0C0C02CB
:1001B00002020206060606060606060B0B0B0B0BD2
:1001C0000B0B0B01021020200808102040102040CB
:1001D000800201020108040201010204081020400B
:1001E0008080402010080402018004020180402029
:1001F0001008040201080402010102040810204052
:100200008001020408102040800000090A02080B47
:100210000C0D0706030401000000000000000000B0
:1002200000000000000000000000000000000000CE
:10023000000000000011100F00000000000000008E
:100240000000000000000000000000000000006549
:1002500063686F3A004572726F723A0053544F50A0
:100260005045442E20005072696E7465722073747C
:100270006F707065642064756520746F206572729C
:100280006F72732E204669782074686520657272DB
:100290006F7220616E6420757365204D3939392085
:1002A000746F20726573746172742E202854656DAA
:1002B000706572617475726520697320726573650B
:1002C000742E2053657420697420616674657220F1
:1002D00072657374617274696E6729004B494C4C86
:1002E00045442E20005072696E7465722068616CFE
:1002F0007465642E206B696C6C28292063616C6CBA
:10030000656421006F6B00526573656E643A20006E
:100310002200556E6B6E6F776E20636F6D6D616E30
:10032000643A2022004368616E67652066696C61EB
:100330006D656E74005A204F6666736574203A20AE
:10034000007A5F6D61783A20007A5F6D696E3A20BD
:10035000005A204F6666736574005A204F666673B4
:100360006574206F6B00486F74656E64206F6666FD
:10037000736574733A007A5F6D61783A20007A5F32
:100380006D696E3A2000795F6D61783A2000795F7F
:100390006D696E3A2000785F6D61783A2000785F71
:1003A0006D696E3A2000205A3A0020593A002043E5
:1003B0006F756E7420583A200020453A00205A3A52
:1003C0000020593A00583A004649524D574152458B
:1003D0005F4E414D453A4D61726C696E2056313B1E
:1003E00020537072696E7465722F6772626C206D33
:1003F000617368757020666F722067656E3620467F
:1004000049524D574152455F55524C3A6874747089
:100410003A2F2F6669726D776172652E756C7469FB
:100420006D616B65722E636F6D2050524F544F4358
:100430004F4C5F56455253494F4E3A312E30204D66
:10044000414348494E455F545950453A556C74698B
:100450006D616B65722045585452554445525F4357
:100460004F554E543A3220555549443A3030303089
:10047000303030302D303030302D303030302D3085
:100480003030302D3030303030303030303030306F
:100490000A00556C74696D616B6572204F66662E3B
:1004A0000042656420646F6E652E0020423A002091
:1004B000453A00543A004265642048656174696EAB
:1004C000672E0048656174696E6720646F6E652EE3
:1004D0000020573A0020453A00543A0048656174BC
:1004E000696E672E2E2E002042403A0020403A00CE
:1004F000202F003A00205400202F0020423A0020F4
:100500002F006F6B20543A002569206D696E2C20F6
:1005100025692073656300456E642066696C6520FB
:100520006C69737400426567696E2066696C65204A
:100530006C697374004E6F206D6F76652E00526586
:1005400073756D696E67207072696E7400576169AA
:100550007420666F7220757365722E2E2E00536C98
:100560006565702E2E2E00FFFFFF00005243000035
:100570005243000052430000000000000000000051
:10058000000000000000000000000000000000006B
:10059000524300005243000052430000A0400000BC
:1005A000A04000000040256920686F757273202507
:1005B00069206D696E7574657300446F6E65207097
:1005C00072696E74696E672066696C650053544F7A
:1005D000505045442E20005072696E74657220732D
:1005E000746F707065642064756520746F20657227
:1005F000726F72732E204669782074686520657268
:10060000726F7220616E6420757365204D393939BF
:1006100020746F20726573746172742E2028546583
:100620006D7065726174757265206973207265738F
:1006300065742E2053657420697420616674657238
:100640002072657374617274696E6729006F6B0044
:100650004E6F204C696E65204E756D626572207715
:1006600069746820636865636B73756D2C204C61D9
:100670007374204C696E653A20004E6F20436865A4
:10068000636B73756D2077697468206C696E652083
:100690006E756D6265722C204C617374204C696EAE
:1006A000653A2000636865636B73756D206D6973CF
:1006B0006D617463682C204C617374204C696E65A5
:1006C0003A20004C696E65204E756D626572206936
:1006D00073206E6F74204C617374204C696E6520BA
:1006E0004E756D6265722B312C204C617374204CF9
:1006F000696E653A20004D31313000446F6E6520DF
:10070000736176696E672066696C652E006F6B0099
:100710004D3239002020506C616E6E6572427566F4
:1007200066657242797465733A2000204672656589
:10073000204D656D6F72793A20004D61792032331A
:10074000203230313400436F6D70696C65643A203B
:100750000028446176696420427261616D2900203D
:100760007C20417574686F723A20004D61792032A7
:100770003320323031342031313A33353A303100A0
:10078000204C61737420557064617465643A200074
:10079000312E302E30004D61726C696E0020536F27
:1007A00066747761726520526573657400205761C5
:1007B000746368646F6720526573657400204272C9
:1007C0006F776E206F7574205265736574002045D5
:1007D000787465726E616C20526573657400506F39
:1007E0007765725570007374617274002200656ED3
:1007F000717565696E672022002200656E717565EE
:10080000696E672022007C3C3E5E2B3D3F2F5B5D86
:100810003B2C2A225C006563686F3A0020746F6F7E
:10082000206C6F6E6720657874727573696F6E20C7
:1008300070726576656E7465640020636F6C642009
:10084000657874727573696F6E2070726576656E07
:100850007465640045303A20005A3A2000593A2025
:1008600000583A20004D53312C4D53322050696EC0
:10087000730A0024F404D9201BC40C5C0E9804C431
:10088000095F0265077101F405F900FB04B3004834
:10089000048700C10369005803550003034500BEE7
:1008A000023A008402310053022A00290225000482
:1008B000022000E4011C00C8011900AF01170098D4
:1008C0000114008401130071011000610110005136
:1008D000010E0043010D0036010B002B010B00201F
:1008E000010B00150109000C01090003010800FBC0
:1008F000000800F3000800EB000700E4000600DE3B
:10090000000600D8000600D2000600CC000500C793
:10091000000500C2000500BD000400B9000400B5D8
:10092000000400B1000400AD000400A9000400A50B
:10093000000300A20003009F0004009B0003009836
:100940000003009500020093000300900003008D57
:100950000002008B00030088000200860002008471
:10096000000300810002007F0002007D0002007B86
:100970000002007900020077000100760002007496
:1009800000020072000100710002006F0002006DA1
:100990000001006C0002006A0001006900020067AB
:1009A00000010066000100650001006400020062B1
:1009B00000010061000100600001005F0002005DB5
:1009C0000001005C0001005B0001005A00010059B9
:1009D00000010058000100570001005600010055B9
:1009E00000010054000100530000005300010052B8
:1009F00000010051000100500001004F0001004EB5
:100A00000000004E0001004D0001004C0001004BB1
:100A10000000004B0001004A0001004900010048AD
:100A200000000048000100470001004600000046A9
:100A300000010045000000450001004400010043A2
:100A4000000000430001004200000042000100419C
:100A500000000041000100400001003F0000003F95
:100A60000001003E0000003E0001003D0000003D8E
:100A70000001003C0000003C0000003C0001003B85
:100A80000000003B0001003A0000003A000100397C
:100A90000000003900010038000000380000003874
:100AA000000100370000003700010036000000366A
:100AB0000000003600010035000000350000003560
:100AC0000001003400000034000000340001003355
:100AD000000000330000003300010032000000324B
:100AE0000000003200010031000000310000003140
:100AF0000001003000000030000000300001002F35
:100B00000000002F0000002F0000002F0001002E29
:100B10000000002E0000002E0001002D0000002D1E
:100B20000000002D0000002D0001002C0000002C12
:100B30000000002C0000002C0001002B0000002B06
:100B40000000002B0000002B0001002A0000002AFA
:100B50000000002A0000002A0001002900000029EE
:100B600000000029000000290000002900010028E1
:100B700000000028000000280000002800000028D5
:100B800000010027000000270000002700000027C8
:100B900000000027000100260000002600000026BB
:100BA00000000026000000260001002500000025AE
:100BB00000000025000000250000002500000025A1
:100BC0000001002400000024000000240000002494
:100BD0000000002400010023000000230000002387
:100BE0000000002300000023000000230000002379
:100BF000000100220000002200000022000000226C
:100C0000000000220000002200010021000000215D
:100C10000000002100000021000000210000002150
:100C20000000002100010020000000200000002042
:100C30000000002000000020000000200000002034
:100C4000000000200001001F0000001F0000001F26
:100C50000000001F0000001F0000001F0000001F18
:100C60000001001E0000001E0000001E0000001E0B
:100C700000000024F4D43050C38E20C2A24017825A
:100C80008B7011127A910D816CD90AA861E108C7A5
:100C9000586607615143061E4B5D05C145A7041AFE
:100CA000411104093D9803713931034036DB026577
:100CB000339102D4305402802E1D02632CEE017554
:100CC0002AC501B028A001102781018F2564012BBE
:100CD000244B01E0223401AC211F018D200D018045
:100CE0001FFC00841EED00971DDF00B81CD200E63B
:100CF0001BC600201BBC00641AB200B219A8000A6F
:100D000019A0006A189900D117910040178B00B5FF
:100D100016840031167E00B31579003A157300C7AA
:100D2000146F0058146A00EE1366008813630025E0
:100D3000135E00C7125B006C12570015125400C1FD
:100D400011510070114F0021114B00D61049008D38
:100D50001047004610440002104200C00F400080BF
:100D60000F3E00420F3C00060F3B00CB0E380093B5
:100D70000E37005C0E3500270E3400F30D3200C133
:100D80000D3100900D3000600D2E00320D2D00054C
:100D90000D2C00D90C2B00AE0C2900850C29005C11
:100DA0000C2700350C27000E0C2600E80B2400C48D
:100DB0000B2400A00B23007D0B23005A0B210039CC
:100DC0000B2100180B2000F80A1F00D90A1E00BBD7
:100DD0000A1E009D0A1D00800A1D00630A1C0047B0
:100DE0000A1B002C0A1B00110A1A00F7091A00DD61
:100DF000091900C4091900AB091900920917007BF1
:100E0000091800630917004C09160036091600205E
:100E10000916000A091500F5081500E0081400CCB1
:100E2000081400B8081400A4081400900813007DEA
:100E30000812006B0813005808120046081200340C
:100E4000081100230811001208110001081100F018
:100E5000071000E0071000D0071000C0071000B016
:100E6000070F00A107100091070E0083070F007401
:100E7000070F0065070E0057070E0049070E003BDD
:100E8000070D002E070E0020070D0013070D0006AA
:100E9000070D00F9060C00ED060D00E0060C00D46D
:100EA000060C00C8060C00BC060C00B0060C00A422
:100EB000060B0099060C008D060B0082060B0077CE
:100EC000060B006C060B0061060A0057060B004C6F
:100ED000060A0042060A0038060A002E060A002406
:100EE000060A001A060A001006090007060A00FD95
:100EF000050900F4050900EB050900E2050900D920
:100F0000050900D0050900C7050900BE050900B59F
:100F1000050800AD050800A50509009C050800941A
:100F20000508008C050800840508007C050800748D
:100F30000508006C050700650508005D05070056FB
:100F40000508004E05070047050700400508003862
:100F5000050700310507002A050700230507001CC7
:100F6000050600160507000F050700080506000224
:100F7000050700FB040600F5040700EE040600E880
:100F8000040600E2040700DB040600D5040600CFD7
:100F9000040600C9040600C3040600BD040600B729
:100FA000040600B1040500AC040600A6040600A077
:100FB0000405009B04060095040500900406008AC1
:100FC00004050085040500800406007A0405007508
:100FD000040500700405006B04050066040500614B
:100FE0000405005C04050057040500520405004D8B
:100FF00004050048040500430405003E0404003ACB
:1010000004050035040500300404002C0405002705
:10101000040400230405001E0404001A040400163E
:10102000040500110404000D040400090405000473
:1010300004040000040400FC030400F8030400F4AA
:10104000030400F0030400EC030400E8030400E4DC
:10105000030400E0030400DC030400D8030400D40C
:10106000030400D0030400CC030400C8030300C53C
:101070000303006563686F3A00656E6473746F7094
:1010800073206869743A205A00205A3A00656E64E9
:1010900073746F7073206869743A20590020593A4C
:1010A00000656E6473746F7073206869743A2058B9
:1010B0000020583A00656E6473746F70732068691D
:1010C000743A20004572726F723A004572723A208B
:1010D0004D415854454D50204245440054656D7073
:1010E00065726174757265206865617465642062FB
:1010F0006564207377697463686564206F66662E23
:10110000204D415854454D5020747269676765728F
:101110006564202121004572723A204D494E5445A4
:101120004D50003A2045787472756465722073776B
:10113000697463686564206F66662E204D494E545D
:10114000454D50207472696767657265642021009F
:101150004572723A204D415854454D50003A204551
:1011600078747275646572207377697463686564F6
:10117000206F66662E204D415854454D50207472A4
:1011800069676765726564202100202D20496E76AD
:10119000616C6964206578747275646572206E751F
:1011A0006D62657220210000000000300E0100C059
:1011B0000E0A00500F1400D00F1E0060102800E02F
:1011C00010320070113C00F0114600701250000007
:1011D000135A008013640000146E009014780010FD
:1011E00015820090158C00101696009016A0001025
:1011F00017AA009017B4001018BE009018C800106D
:1012000019D2009019DC00101AE600801AF00000D4
:101210001BFA00801B0401F01B0E01701C1801F06A
:101220001C2201601D2C01E01D3601501E4001D022
:101230001E4A01401F5401B01F5E0130206801A00A
:1012400020720110217C0190218601002290016012
:1012500026F401902A5802802EBC0250322003E06E
:101260003584035039E803803C4C046563686F3A69
:101270000048656174696E67206661696C65640029
:10128000504944204175746F74756E652066696EAF
:101290006973686564212050757420746865206CDA
:1012A000617374204B702C204B6920616E64204B5D
:1012B0006420636F6E7374616E74732066726F6DF9
:1012C0002061626F766520696E746F20436F6E6671
:1012D000696775726174696F6E2E680050494420A9
:1012E0004175746F74756E65206661696C65642103
:1012F0002074696D656F75740020403A006F6B2033
:10130000543A006F6B20423A0050494420417574B2
:101310006F74756E65206661696C65642120546523
:101320006D706572617475726520746F6F20686985
:10133000676800204B643A2000204B693A20002067
:101340004B703A200020436C6173736963205049ED
:101350004420002054753A2000204B753A2000208C
:101360006D61783A2000206D696E3A200020643A61
:10137000200020626961733A20004D3834205820E3
:1013800059205A2045006563686F3A0043616E6ECC
:101390006F7420656E746572207375626469723A49
:1013A00020004D3234004D323320257300617574B6
:1013B0006F25692E67004572726F723A006572720E
:1013C0006F722077726974696E6720746F20666926
:1013D0006C65004E6F74205344207072696E74699E
:1013E0006E67002F005344207072696E74696E67D7
:1013F000206279746520002E0044656C6574696F05
:101400006E206661696C65642C2046696C653A20C3
:101410000046696C652064656C657465643A002EED
:10142000006F70656E206661696C65642C2046698A
:101430006C653A200057726974696E6720746F207A
:1014400066696C653A20002E006F70656E206661DB
:10145000696C65642C2046696C653A20002E006F2B
:1014600070656E206661696C65642C2046696C65E8
:101470003A200046696C652073656C656374656429
:10148000002053697A653A200046696C65206F70C8
:10149000656E65643A20002E006F70656E2066618F
:1014A000696C65642C2046696C653A20004E6F7744
:1014B0002066726573682066696C653A20004E6F1D
:1014C0007720646F696E672066696C653A20002238
:1014D00020706F73002220706172656E743A220072
:1014E000535542524F5554494E452043414C4C2090
:1014F0007461726765743A2200747279696E67204C
:10150000746F2063616C6C207375622D67636F6408
:10151000652066696C6573207769746820746F6FE5
:10152000206D616E79206C6576656C732E204D415F
:1015300058206C6576656C2069733A0053442063CB
:10154000617264206F6B006F70656E526F6F7420F4
:101550006661696C656400766F6C756D652E696E89
:101560006974206661696C656400534420696E6922
:1015700074206661696C006563686F3A0048617247
:1015800064636F6465642044656661756C742053A0
:10159000657474696E6773204C6F61646564005391
:1015A000746F7265642073657474696E67732072FA
:1015B00065747269657665640020440020490020E6
:1015C00020204D3330312050005049442073657441
:1015D00074696E67733A00205A0020590020204D2C
:1015E000323036205800486F6D65206F666673652F
:1015F0007420286D6D293A00204500205A0020589B
:101600000020420020540020204D3230352053006D
:10161000416476616E636564207661726961626CB3
:1016200065733A20533D4D696E206665656472614D
:10163000746520286D6D2F73292C20543D4D696EE3
:101640002074726176656C2066656564726174658C
:1016500020286D6D2F73292C20423D6D696E696DB8
:10166000756D207365676D656E742074696D652096
:10167000286D73292C20583D6D6178696D756D203A
:101680005859206A65726B20286D6D2F73292C20A4
:10169000205A3D6D6178696D756D205A206A6572BA
:1016A0006B20286D6D2F73292C2020453D6D6178AE
:1016B000696D756D2045206A65726B20286D6D2FF0
:1016C00073290020540020204D3230342053004133
:1016D0006363656C65726174696F6E3A20533D6136
:1016E0006363656C65726174696F6E2C20543D7222
:1016F00065747261637420616363656C65726174A3
:10170000696F6E00204500205A0020590020204DAE
:101710003230312058004D6178696D756D2041631C
:1017200063656C65726174696F6E20286D6D2F73CF
:1017300032293A00204500205A0020590020204D2F
:101740003230332058004D6178696D756D206665C3
:101750006564726174657320286D6D2F73293A007A
:10176000204500205A0020590020204D39322058B1
:101770000053746570732070657220756E69743AD9
:101780000053657474696E67732053746F72656477
:1017900000022D2D3A2D2D002D2D2D00534400013A
:1017A00020000120000120004E6F2053442063617F
:1017B0007264005072696E742066726F6D205344BB
:1017C0000053746F70207072696E74005265737587
:1017D0006D65207072696E7400506175736520705C
:1017E00072696E7400436F6E74726F6C0050726534
:1017F000706172650054756E6500496E666F207386
:10180000637265656E00052E2E004D61696E004D98
:101810003234004D3233202573004D3834205820A7
:1018200059205A2045004669726D776172652076AD
:10183000657273696F6E00526573746F72652066AE
:1018400061696C73616665004C6F6164206D656DE4
:101850006F72790053746F7265206D656D6F727968
:10186000004D6F74696F6E0054656D7065726174C0
:10187000757265004D61696E004D617920323620C8
:10188000323031342030393A35343A313800313160
:10189000353230305F6475616C00556C74696D6110
:1018A0006B65723A2031332E3132004669726D77A2
:1018B0006172652076657273696F6E004573746539
:1018C00070732F6D6D004573746570732F6D6D00AF
:1018D0005A73746570732F6D6D005A7374657073ED
:1018E0002F6D6D005973746570732F6D6D00597392
:1018F000746570732F6D6D005873746570732F6D00
:101900006D005873746570732F6D6D00412D726595
:10191000747261637400412D726574726163740046
:10192000416D6178206500416D6178206500416DF1
:101930006178207A00416D6178207A00416D61788C
:10194000207900416D6178207900416D61782078BF
:1019500000416D61782078005654726176206D697F
:101960006E005654726176206D696E00566D696E18
:1019700000566D696E00566D6178206500566D6188
:1019800078206500566D6178207A00566D61782068
:101990007A00566D6178207900566D617820790063
:1019A000566D6178207800566D6178207800566514
:1019B0002D6A65726B0056652D6A65726B00567AEA
:1019C0002D6A65726B00567A2D6A65726B005678C7
:1019D000792D6A65726B005678792D6A65726B0095
:1019E000416363656C00416363656C00436F6E74B3
:1019F000726F6C00507265686561742041425320BB
:101A0000636F6E66005072656865617420504C416A
:101A100020636F6E66005049442D43005049442DA9
:101A200043005049442D44005049442D440050493E
:101A3000442D49005049442D49005049442D50003F
:101A40005049442D500046616E20737065656400F6
:101A500046616E207370656564004265640042658E
:101A600064004E6F7A7A6C6532004E6F7A7A6C65DC
:101A700032004E6F7A7A6C65004E6F7A7A6C650030
:101A8000436F6E74726F6C0053746F7265206D6576
:101A90006D6F72790042656400426564004E6F7A32
:101AA0007A6C65004E6F7A7A6C650046616E2073C1
:101AB000706565640046616E2073706565640054EE
:101AC000656D70657261747572650053746F7265CF
:101AD000206D656D6F727900426564004265640037
:101AE0004E6F7A7A6C65004E6F7A7A6C650046614B
:101AF0006E2073706565640046616E207370656565
:101B0000640054656D7065726174757265004D6F27
:101B10007665206178697300436F6F6C646F776ED0
:101B200000507265686561742041425300507265CF
:101B30006865617420504C41004D6F7665205A00F5
:101B40004175746F20686F6D65004D3834004469CD
:101B50007361626C65207374657070657273004D9B
:101B600061696E004D6F766520302E316D6D004DD0
:101B70006F766520316D6D004D6F76652031306D6B
:101B80006D0050726570617265004578747275649D
:101B90006572004D6F7665205A004D6F766520594D
:101BA000004D6F76652058004D6F7665206178692D
:101BB00073004578747275646572005A0059005854
:101BC000005072656865617420414253204265642B
:101BD00000507265686561742041425320416C6C0D
:101BE0000050726568656174204142532032005094
:101BF00072656865617420414253203100507265FE
:101C000070617265005072656865617420504C4166
:101C100020426564005072656865617420504C41D3
:101C200020416C6C005072656865617420504C41B5
:101C30002032005072656865617420504C4120313B
:101C40000050726570617265005A004D383420583A
:101C50003020593000473238004D3630300043686C
:101C6000616E67652066696C616D656E7400466CB7
:101C70006F77203100466C6F77203100466C6F77AC
:101C8000203000466C6F77203000466C6F7700463E
:101C90006C6F770046616E20737065656400466105
:101CA0006E2073706565640042656400426564007F
:101CB0004E6F7A7A6C6532004E6F7A7A6C653200BC
:101CC0004E6F7A7A6C65004E6F7A7A6C650053704D
:101CD000656564005370656564004D61696E00431D
:101CE0006172642072656D6F766564004361726431
:101CF00020696E73657274656400494E46494E49A9
:101D000054594E414ECDCCCC3D0AD7233C17B7D1C8
:101D10003877CC2B329595E6241FB14F0A0000206E
:101D2000410000C84200401C4620BCBE4CCA1B0EED
:101D30005AAEC59D7400B21A3142A5D3AB1A112414
:101D40001FBECFEFD1E2DEBFCDBF00E00CBF14E07D
:101D5000A0E0B2E0E6E6F9EC01E00BBF02C00790BC
:101D60000D92AA3BB107D9F71BBE12E1AAEBB4E072
:101D700001C01D92A83CB107E1F71DE1CCE3DDE114
:101D800004C02297FE010E9458E4C633D107C9F768
:101D90000E9438DF0C94A6E40C940000A0E0B0E0B0
:101DA000E4EDFEE00C9475E4EC015B016115710556
:101DB00019F0FB0191838083F9908F2D90E00E94B0
:101DC0005CE4892BC9F7FDE2FF1621F4F990EE24BB
:101DD000E39405C02BE2F21609F4F990EE248E018B
:101DE00001501040C8016AEF7CE143E050E00E94DE
:101DF0006411892B01F58E010E5F1F4FC8016DEF35
:101E00007CE145E050E00E946411892B19F48E01B9
:101E1000095F1F4FA114B10419F0F501118300836C
:101E2000E0FC04C070E090E080E814C070E090E056
:101E300080E86FEF08C1C80162E07DE143E050E057
:101E40000E946411892B69F4A114B10429F470E093
:101E500090E080EC6FE7F7C02296F501D183C08354
:101E6000F6CF8824992440E050E060E070E0EF2D48
:101E7000E053EA30A0F5F2E0EF2A8E2D90E09C01CD
:101E800028703070E2FE06C0232B79F50894811C7F
:101E9000911C2BC0232B19F0089481089108DB01B9
:101EA000CA0112E0880F991FAA1FBB1F1A95D1F70C
:101EB000480F591F6A1F7B1F440F551F661F771F4E
:101EC0004E0F511D611D711D483929E9520729E93D
:101ED000620729E1720748F084E0E82A06C0EE3F75
:101EE00031F4E3FC39C098E0E92AF990C0CFE5333A
:101EF00011F0E53189F529912D3219F4E0E1EE2A4E
:101F000005C02B3219F081E090E003C0299182E0F6
:101F100090E0E22FE053EA3018F0C81BD90B1CC048
:101F200020E030E0FCE020383F075CF4C901880F76
:101F3000991F880F991F280F391F220F331F2E0F4B
:101F4000311DE991E053EA3068F3E4FE03C03095B7
:101F500021953F4F820E931ECE2CDD24E1FE07C05B
:101F6000A114B10421F02197F501D183C083CB01E5
:101F7000BA010E94C1E07B018C01F3E0CF22DD2495
:101F800023E0C216D10421F417FB109517F9109520
:101F900057016801C801B70120E030E040E050E09F
:101FA0000E9421E0882309F44AC097FE0DC029E170
:101FB000E22E2DE1F22E9094819491089394C0E248
:101FC000D0E000E010E012C091E3E92E9DE1F92E8F
:101FD000F6CFF7012591359145915491C601B50190
:101FE0000E9401E35B016C018C1A9D0A8C169D0610
:101FF00084F7D595C7950F5F1F4F0630110529F05F
:102000008CEF9FEFE80EF91EF1CFC501D6017C01E0
:102010008D018C2D880F8D2D881F8F3F51F0C601AB
:10202000B50120E030E040E050E00E9421E088234C
:1020300031F482E290E09093C7128093C6127E2D15
:102040009F2D802F612F272F392F482F562FB90111
:10205000CA01CDB7DEB7ECE00C9491E42F923F9229
:102060005F926F927F928F929F92AF92BF92CF9228
:10207000DF92EF92FF920F931F93CF93DF938C0128
:102080001B01EA016115710519F0FB019183808341
:10209000209749F0CE010297839728F020E030E0A6
:1020A00040E050E0F6C0F801A1908F018A2D90E049
:1020B0000E945CE4892BB9F7FDE2AF1631F4F80118
:1020C000A1908F015524539407C0FBE2AF1619F479
:1020D000F801A1908F015524209719F0C031D10546
:1020E000C1F4F0E3AF1679F4F8018081883711F07C
:1020F000883549F4F801A1800E5F1F4FF2E05F2A96
:10210000C0E1D0E006C0209721F480E3A816E9F4EE
:1021100027C0C830D10531F1C930D10524F4C2300F
:10212000D10531F50CC0CA30D10589F0C031D105D7
:10213000F9F4C12CD12CE12CB8E0FB2E28C0C12C25
:10214000D12CE12CA0E4FA2E22C0CAE0D0E0FCECB5
:10215000CF2EFCECDF2EFCECEF2EFCE0FF2E17C0A8
:10216000C8E0D0E0C12CD12CE12CE0E1FE2E0FC064
:102170009E01442737FD4095542F60E070E080E0D9
:1021800090E80E9419E4C901DA016C017D0120E0A8
:1021900030E040E050E060E03E01882477FC80942D
:1021A000982C70EDB72EBA0CE9E0EB1570F48A2D7F
:1021B00081548A3118F499ECB92E06C08A2D8156C3
:1021C0008A3150F589EAB82EBA0C8B2D90E08C1725
:1021D0009D0714F56F3FE1F0C216D306E406F5063D
:1021E000B0F0CA01B901A40193010E94D3E39B019D
:1021F000AC012B0D311D411D511D2130F0E03F0779
:10220000F0E04F07F0E85F0710F461E001C06FEF06
:10221000F801A1908F01C5CF2114310481F066230C
:1022200031F001501040F1011183008308C051FECC
:102230001AC002501040F1011183008314C067FFDF
:1022400012C050FC05C02FEF3FEF4FEF5FE704C017
:1022500020E030E040E050E882E290E09093C71246
:102260008093C61216C050FE08C050954095309518
:1022700021953F4F4F4F5F4F0CC057FF0AC082E27E
:1022800090E09093C7128093C6122FEF3FEF4FEF6D
:102290005FE7B901CA01DF91CF911F910F91FF90C4
:1022A000EF90DF90CF90BF90AF909F908F907F90F6
:1022B0006F905F903F902F900895FB01DC01059097
:1022C0000D920020E1F70895FB01DC0141505040E0
:1022D00088F08D9181341CF08B350CF4805E659113
:1022E00061341CF06B350CF4605E861B611171F378
:1022F000990B0895881BFCCFFB01DC014150504035
:1023000048F005900D920020C9F701C01D92415080
:102310005040E0F70895FB0155915523A9F0BF0106
:10232000DC014D9145174111E1F759F4CD010590BC
:10233000002049F04D9140154111C9F3FB014111B5
:10234000EFCF81E090E001970895FB01DC0104C02C
:102350008D910190801921F441505040C8F7881B9D
:10236000990B0895FB01DC0102C001900D924150D0
:102370005040D8F70895FB01DC010D900020E9F7EB
:10238000119701900D920020E1F70895FC018191D1
:10239000861721F08823D9F7992708953197CF011F
:1023A0000895FB01DC0101900D920020E1F70895F2
:1023B000FB01DC014150504030F08D9101908019BB
:1023C00019F40020B9F7881B990B0895FB01DC0173
:1023D0004150504048F001900D920020C9F701C0D3
:1023E0001D9241505040E0F70895AEE0B0E0EBEFB1
:1023F000F1E10C947DE40E891F898EE08C831A83B1
:1024000009838FEF9FE79E838D839E01265E3F4F5A
:10241000CE010196688D798DA9010E9419122F8134
:102420003885020F131FF80110822E96E4E00C94F9
:1024300099E4ABE0B0E0EFE1F2E10C946FE43C0131
:102440002B015A01FC0117821682838181FD03C092
:102450006FEF7FEFC6C19AE0892E1E010894211C00
:10246000311CF3012381F20123FD859123FF81912A
:102470002F01882309F4B2C1853239F423FD8591F7
:1024800023FF81912F01853229F490E0B3010E944E
:102490000C14E7CF982FFF24EE249924FFE1FF15B9
:1024A000D0F09B3269F09C3228F4903259F093328C
:1024B00091F40EC09D3249F0903369F441E024C09C
:1024C00052E0F52A84E0F82A28C098E0F92A25C0CD
:1024D000E0E1FE2A22C0F7FC29C0892F80538A3010
:1024E00070F4F6FE05C0989C902C1124980E15C02F
:1024F000E89CE02C1124E80EF0E2FF2A0EC09E3288
:1025000029F4F6FC6BC140E4F42A07C09C3619F4A8
:1025100050E8F52A02C0983649F4F20123FD95915E
:1025200023FF91912F01992309F0B8CF892F85546A
:10253000833018F08052833038F444E050E0A40E29
:10254000B51E5FE359830FC0933631F0933779F0AE
:10255000933509F056C020C0F5018081898342E09F
:1025600050E0A40EB51E610101E010E012C0F501BB
:10257000C080D180F6FC03C06FEF7FEF02C0692DF1
:1025800070E042E050E0A40EB51EC6010E940114A6
:102590008C015FE7F52214C0F501C080D180F6FC04
:1025A00003C06FEF7FEF02C0692D70E042E050E0A2
:1025B000A40EB51EC6010E94F6138C0150E8F52A40
:1025C000F3FE07C01AC080E290E0B3010E940C1431
:1025D000EA948E2D90E008171907A8F30EC0F601B3
:1025E000F7FC8591F7FE81916F0190E0B3010E94A5
:1025F0000C14E110EA94015010400115110579F70F
:10260000EAC0943611F0993669F5F7FE08C0F50175
:10261000208131814281538184E090E00AC0F5013C
:10262000808191819C01442737FD4095542F82E0A1
:1026300090E0A80EB91E9FE6F92257FF09C05095F9
:102640004095309521953F4F4F4F5F4FE0E8FE2A70
:10265000CA01B901A1012AE030E00E943814D82E45
:10266000D21840C0953729F41F2D1F7E2AE030E094
:102670001DC01F2D197F9F3661F0903720F49835CB
:1026800009F0ACC00FC0903739F0983709F0A6C0F8
:1026900004C028E030E00AC0106114FD146020E19D
:1026A00030E004C014FD166020E132E017FF08C0DE
:1026B000F501608171818281938144E050E008C01E
:1026C000F50180819181BC0180E090E042E050E022
:1026D000A40EB51EA1010E943814D82ED2188FE77F
:1026E000F82EF122F6FE0BC05EEFF522D91438F475
:1026F000F4FE07C0F2FC05C08FEEF82202C01D2DCB
:1027000001C0192DF4FE0DC0FE01ED0DF11D8081FB
:10271000803319F499EEF92208C01F5FF2FE05C05C
:1027200003C08F2D867809F01F5F0F2DF3FC14C0B6
:10273000F0FE0FC01E1510F09D2C0BC09D2C9E0CA2
:10274000911A1E2D06C080E290E0B3010E940C1485
:102750001F5F1E15C0F304C01E1510F4E11A01C05E
:10276000EE2404FF0FC080E390E0B3010E940C143C
:1027700002FF1DC001FD03C088E790E00EC088E5A0
:1027800090E00BC0802F867891F001FF02C08BE2B1
:1027900001C080E2F7FC8DE290E0B3010E940C14CE
:1027A00006C080E390E0B3010E940C149A94D914FF
:1027B000C0F3DA94F101ED0DF11D808190E0B301D9
:1027C0000E940C14DD20A9F706C080E290E0B3015E
:1027D0000E940C14EA94EE20C1F743CEF301668107
:1027E0007781CB012B96E2E10C948BE4FC01059000
:1027F000615070400110D8F7809590958E0F9F1F03
:102800000895FC016150704001900110D8F7809547
:1028100090958E0F9F1F08950F931F93CF93DF9373
:102820008C01EB018B8181FF1BC082FF0DC02E81CB
:102830003F818C819D812817390764F4E881F981F3
:102840000193F983E88306C0E885F985802F1995FF
:10285000892B31F48E819F8101969F838E8302C0E4
:102860000FEF1FEFC801DF91CF911F910F910895D6
:10287000FA01AA27283051F1203181F1E8946F93B1
:102880006E7F6E5F7F4F8F4F9F4FAF4FB1E03ED057
:10289000B4E03CD0670F781F891F9A1FA11D680FF5
:1028A000791F8A1F911DA11D6A0F711D811D911D28
:1028B000A11D20D009F468943F912AE0269F11249D
:1028C0003019305D3193DEF6CF010895462F477001
:1028D000405D4193B3E00FD0C9F7F6CF462F4F705C
:1028E000405D4A3318F0495D31FD4052419302D0BA
:1028F000A9F7EACFB4E0A695979587957795679560
:10290000BA95C9F700976105710508959B01AC015F
:102910000A2E06945795479537952795BA95C9F786
:10292000620F731F841F951FA01D08951F920F92A1
:102930000FB60F9211242F933F938F939F93AF93D2
:10294000BF938091BE049091BF04A091C004B09148
:10295000C1043091C2040196A11DB11D232F2D5F2A
:102960002D3720F02D570196A11DB11D2093C204D3
:102970008093BE049093BF04A093C004B093C1049D
:102980008091BA049091BB04A091BC04B091BD04A5
:102990000196A11DB11D8093BA049093BB04A0932E
:1029A000BC04B093BD04BF91AF919F918F913F91B3
:1029B0002F910F900FBE0F901F9018958FB7F8941E
:1029C0002091BE043091BF044091C0045091C104D5
:1029D0008FBFB901CA0108959B01AC017FB7F8947C
:1029E0008091BA049091BB04A091BC04B091BD0445
:1029F00066B5A89B05C06F3F19F00196A11DB11DDA
:102A00007FBFBA2FA92F982F8827860F911DA11D50
:102A1000B11D62E0880F991FAA1FBB1F6A95D1F7ED
:102A2000BC012DC0FFB7F8948091BA049091BB040B
:102A3000A091BC04B091BD04E6B5A89B05C0EF3FD2
:102A400019F00196A11DB11DFFBFBA2FA92F982F14
:102A500088278E0F911DA11DB11DE2E0880F991FDF
:102A6000AA1FBB1FEA95D1F7861B970B885E934080
:102A7000C8F2215030404040504068517C4F2115F1
:102A800031054105510571F60895019739F0880F18
:102A9000991F880F991F02970197F1F7089578946D
:102AA00084B5826084BD84B5816084BD85B5826053
:102AB00085BD85B5816085BDEEE6F0E080818160F1
:102AC0008083E1E8F0E010828081826080838081F1
:102AD00081608083E0E8F0E0808181608083E1EBC9
:102AE000F0E0808184608083E0EBF0E080818160B1
:102AF0008083E1E9F0E08081826080838081816071
:102B00008083E0E9F0E0808181608083E1EAF0E0A9
:102B1000808182608083808181608083E0EAF0E050
:102B2000808181608083E1E2F1E080818260808346
:102B3000808181608083E0E2F1E080818160808338
:102B4000EAE7F0E080818460808380818260808316
:102B50008081816080838081806880831092C10041
:102B600008951F93CF93DF93182FEB0161E00E942C
:102B70009116209709F4CAC0CF3FD10509F4C9C006
:102B8000E12FF0E0E75FFD4F8491893009F466C0E2
:102B90008A30B0F48430F1F1853040F4823059F15C
:102BA000833070F5813009F0AEC020C0873009F461
:102BB00043C0883008F048C0863009F0A4C034C053
:102BC0008D3009F478C08E3038F48B3009F45AC057
:102BD0008C3008F066C04CC0803109F480C081316F
:102BE00009F487C08F3009F08EC06FC084B580684B
:102BF00084BDC7BD92C084B5806284BDC8BD8DC090
:102C000080918000806880938000D0938900C09379
:102C1000880083C080918000806280938000D09380
:102C20008B00C0938A0079C08091B0008068809347
:102C3000B000C093B30071C08091B00080628093F7
:102C4000B000C093B40069C0809190008068809308
:102C50009000D0939900C09398005FC0809190003D
:102C6000806280939000D0939B00C0939A0055C0DF
:102C700080919000886080939000D0939D00C093D5
:102C80009C004BC08091A00080688093A000809140
:102C9000A0008F7B8093A000D093A900C093A800D0
:102CA0003CC08091A00080628093A000D093AB00D4
:102CB000C093AA0032C08091A00088608093A000D9
:102CC000D093AD00C093AC0028C0809120018068F3
:102CD00080932001D0932901C09328011EC08091C8
:102CE0002001806280932001D0932B01C0932A01A0
:102CF00014C080912001886080932001D0932D0121
:102D0000C0932C010AC0C038D1051CF4812F60E0AB
:102D100002C0812F61E00E944417DF91CF911F9183
:102D20000895CF93DF93482F50E0CA018D539E4FF3
:102D3000FC01349143585E4FFA018491882369F174
:102D400090E0880F991FFC01E15DFE4FA591B491C1
:102D5000FC01E75BFE4FC591D491662351F42FB778
:102D6000F8948C91932F909589238C938881892353
:102D70000BC0623061F42FB7F8948C91932F90952B
:102D800089238C938881832B88832FBF06C09FB7AC
:102D9000F8948C91832B8C939FBFDF91CF910895F2
:102DA000893009F449C08A30A0F4843051F185306B
:102DB00040F4823079F1833000F5813009F063C04E
:102DC00026C0873079F1883098F5863009F05BC0ED
:102DD00025C08D3009F442C08E3028F48B30B1F11B
:102DE0008C30C0F52DC0803109F442C0813109F426
:102DF00045C08F3009F047C037C0809180008F7781
:102E000003C0809180008F7D80938000089584B5F9
:102E10008F7702C084B58F7D84BD08958091B00006
:102E20008F7703C08091B0008F7D8093B0000895AC
:102E3000809190008F7707C0809190008F7D03C0B4
:102E400080919000877F8093900008958091A000EA
:102E50008F7707C08091A0008F7D03C08091A00074
:102E6000877F8093A0000895809120018F7703C011
:102E7000809120018F7D8093200108958091200111
:102E8000877F809320010895FF920F931F93F62E62
:102E9000482F50E0CA01875F9D4FFC012491CA0171
:102EA0008D539E4FFC01149143585E4FFA010491DB
:102EB0000023C9F0222319F0822F0E94D016E02FA0
:102EC000F0E0EE0FFF1FE75BFE4FA591B4919FB7B7
:102ED000F894FF2021F48C911095812302C08C91ED
:102EE000812B8C939FBF1F910F91FF9008950F939B
:102EF0001F93482F50E0CA01875F9D4FFC0124912A
:102F0000CA018D539E4FFC01049143585E4FFA0154
:102F10001491112319F420E030E015C0222319F098
:102F2000822F0E94D016812F90E0880F991F8D5913
:102F30009E4FFC01A591B4918C9120E030E080235C
:102F400011F021E030E0C9011F910F9108951F9207
:102F50000F920FB60F920BB60F9211242F933F933F
:102F60004F935F936F937F938F939F93AF93BF9391
:102F7000EF93FF938091C7049091C804892B29F0A7
:102F8000E091C704F091C8041995FF91EF91BF91AA
:102F9000AF919F918F917F916F915F914F913F91F1
:102FA0002F910F900BBE0F900FBE0F901F90189592
:102FB0001F920F920FB60F920BB60F9211242F9300
:102FC0003F934F935F936F937F938F939F93AF93B1
:102FD000BF93EF93FF938091C9049091CA04892B0A
:102FE00029F0E091C904F091CA041995FF91EF917D
:102FF000BF91AF919F918F917F916F915F914F9111
:103000003F912F910F900BBE0F900FBE0F901F900E
:1030100018951F920F920FB60F920BB60F921124B4
:103020002F933F934F935F936F937F938F939F93D0
:10303000AF93BF93EF93FF938091CB049091CC0417
:10304000892B29F0E091CB04F091CC041995FF91E4
:10305000EF91BF91AF919F918F917F916F915F9110
:103060004F913F912F910F900BBE0F900FBE0F907D
:103070001F9018951F920F920FB60F920BB60F92DA
:1030800011242F933F934F935F936F937F938F936D
:103090009F93AF93BF93EF93FF938091CD04909153
:1030A000CE04892B29F0E091CD04F091CE0419953E
:1030B000FF91EF91BF91AF919F918F917F916F9110
:1030C0005F914F913F912F910F900BBE0F900FBECC
:1030D0000F901F9018951F920F920FB60F920BB67C
:1030E0000F9211242F933F934F935F936F937F938E
:1030F0008F939F93AF93BF93EF93FF938091C304FC
:103100009091C404892B29F0E091C304F091C40488
:103110001995FF91EF91BF91AF919F918F917F9101
:103120006F915F914F913F912F910F900BBE0F9038
:103130000FBE0F901F9018951F920F920FB60F920F
:103140000BB60F9211242F933F934F935F936F937E
:103150007F938F939F93AF93BF93EF93FF93809150
:10316000C5049091C604892B29F0E091C504F09123
:10317000C6041995FF91EF91BF91AF919F918F91E7
:103180007F916F915F914F913F912F910F900BBE67
:103190000F900FBE0F901F9018951F920F920FB6B1
:1031A0000F920BB60F9211242F933F934F935F937F
:1031B0006F937F938F939F93AF93BF93EF93FF93FF
:1031C0008091CF049091D004892B29F0E091CF0415
:1031D000F091D0041995FF91EF91BF91AF919F911C
:1031E0008F917F916F915F914F913F912F910F90B0
:1031F0000BBE0F900FBE0F901F9018951F920F924D
:103200000FB60F920BB60F9211242F933F934F934B
:103210005F936F937F938F939F93AF93BF93EF933E
:10322000FF938091D1049091D204892B29F0E091F1
:10323000D104F091D2041995FF91EF91BF91AF9114
:103240009F918F917F916F915F914F913F912F91BE
:103250000F900BBE0F900FBE0F901F901895CF923E
:10326000DF92EF92FF920F931F93CF93DF937C0136
:103270006B018A01C0E0D0E00FC0D6016D916D01F5
:10328000D701ED91FC910190F081E02DC7011995D6
:10329000C80FD91F015010400115110571F7CE015B
:1032A000DF91CF911F910F91FF90EF90DF90CF9022
:1032B0000895DC01ED91FC910190F081E02D1995CC
:1032C0000895CF93DF93EC016115710519F420E0A7
:1032D00030E00FC0DB010D900020E9F71197A61B2D
:1032E000B70BE881F9810280F381E02DAD011995DA
:1032F0009C01C901DF91CF9108950E946119089541
:10330000EF92FF920F931F93CF93DF93EC01E09026
:103310008207F090830700918407109185076881E8
:1033200079818A819B81A80197010E9421E08823ED
:1033300024F4E882F9820A831B83E0908607F090E8
:10334000870700918807109189076C817D818E81A4
:103350009F81A80197010E9421E0882324F4EC8238
:10336000FD820E831F83E0908A07F0908B07009107
:103370008C0710918D07688579858A859B85A801C2
:1033800097010E9421E0882324F4E886F9860A87C1
:103390001B87E0909303F0909403009195031091A4
:1033A0009603688179818A819B81A80197010E9497
:1033B0002FE2181624F4E882F9820A831B83E09036
:1033C0009703F09098030091990310919A036C81F0
:1033D0007D818E819F81A80197010E942FE218169E
:1033E00024F4EC82FD820E831F83E0909B03F09017
:1033F0009C0300919D0310919E03688579858A85C1
:103400009B85A80197010E942FE2181624F4E886F4
:10341000F9860A871B87DF91CF911F910F91FF904B
:10342000EF9008958091B007089567707070E82F4D
:10343000F0E0E75FFD4F84918B3028F48830A0F4F2
:10344000863090F106C08E30D0F08F50833060F51A
:1034500021C08091B100887F8093B1008091B1003C
:10346000862B8093B100089580919100887F80938E
:10347000910080919100862B809391000895809116
:10348000A100887F8093A1008091A100862B80936A
:10349000A100089580912101887F8093210180916E
:1034A0002101862B8093210108950F931F93CF93C1
:1034B000DF938130910549F46F5F7F4F09F046C07B
:1034C00083ED94E00E949E8D41C0892B09F03EC09F
:1034D0006F5F7F4FD9F580E394E090939E068093D1
:1034E0009D068091A406882321F081EA96E00E943F
:1034F0001648C9E5D6E000E314E005C06F9785E003
:10350000C332D80751F0198308838F818823B1F320
:10351000CE0104960E941648F1CF80E394E099838F
:1035200088838F81882321F0CE0104960E9416485B
:1035300080E394E090930305809302058091090550
:10354000882321F086E095E00E941648DF91CF9114
:103550001F910F91089580E090E06FEF7FEF0E9440
:10356000551A089581E090E06FEF7FEF0E94551AA1
:1035700008950E9466748091B007882309F03AC0CC
:1035800081E08093B0078091B3079091B407A09138
:10359000B507B091B6078093B7079093B807A0938B
:1035A000B907B093BA07E5E5F2E0949108C08091BD
:1035B000C00085FFFCCF9093C6003196949199236B
:1035C000B1F7E6E6F2E0949108C08091C00085FF73
:1035D000FCCF9093C600319694919923B1F78091D6
:1035E000C00085FFFCCF8AE08093C6008CE592E0A6
:1035F0000E94E2D30895F8940E946674159A10927E
:103600008E07179A10928F07429A10929007A09AED
:103610008FB7F89490910B01926090930B018FBF3C
:10362000E5E5F2E0949108C08091C00085FFFCCFF1
:103630009093C600319694919923B1F7E5EEF2E0AC
:10364000949108C08091C00085FFFCCF9093C60084
:10365000319694919923B1F78091C00085FFFCCFFA
:103660008AE08093C6008CED92E00E94F1D3809AAC
:103670008898FFCF0E94DE146093BB077093BC074D
:103680008093BD079093BE07E091E407F091E507B2
:10369000EA51F84F80818823A9F4E4E0F3E09491A3
:1036A00008C08091C00085FFFCCF9093C600319682
:1036B00094919923B1F78091C00085FFFCCF8AE0F7
:1036C0008093C60008950E94DE146093BB07709338
:1036D000BC078093BD079093BE070895EF92FF92B9
:1036E0000F931F930E94DE14E090BF07F090C00775
:1036F0000091C1071091C2072091BB073091BC0710
:103700004091BD075091BE07621B730B840B950B54
:10371000E616F7060807190738F4E114F104010565
:10372000110511F00E94FB1A8091A1039091A20350
:10373000A091A303B091A4030097A105B10599F14D
:103740000E94DE142091BB073091BC074091BD0759
:103750005091BE07621B730B840B950B2091A10344
:103760003091A2034091A3035091A4032617370779
:1037700048075907C0F490914F1180915011981744
:1037800091F4159A10928E07179A10928F07429A09
:1037900010929007A09A9FB7F89480910B018260D5
:1037A00080930B019FBF0E94F75A1F910F91FF90CA
:1037B000EF9008956F927F928F929F92AF92BF92F7
:1037C000CF92DF92EF92FF920F931F93F82E6091AA
:1037D000C3077091C4078091C5079091C6072091D7
:1037E000C7073091C8074091C9075091CA070E9486
:1037F0003CE23B014C0100D000D00DB71EB70F5F7B
:103800001F4F6091830370918403882777FD809513
:10381000982F0E94C3E02091A5033091A603409108
:10382000A7035091A8030E9401E320E030E040E7A5
:1038300052E40E9428E020E030E048EC52E40E948C
:1038400028E05B016C01F8016082718282829382C0
:10385000F4828091A507858386E697E06FEC77E098
:1038600043EC57E020E001E032E0E32E0E94F75401
:103870008091CF079091D007A091D107B091D20746
:103880008093660790936707A0936807B0936907D2
:103890008091D3079091D407A091D507B091D60716
:1038A00080936A0790936B07A0936C07B0936D07A2
:1038B0008091D7079091D807A091D907B091DA07E6
:1038C00080936E0790936F07A0937007B093710772
:1038D0008091DB079091DC07A091DD07B091DE07B6
:1038E0008093720790937307A0937407B093750742
:1038F0008DB79EB706960FB6F8949EBF0FBE8DBFCC
:103900000E94DE146093BB077093BC078093BD07D1
:103910009093BE071F910F91FF90EF90DF90CF9093
:10392000BF90AF909F908F907F906F900895CF92AF
:10393000DF92EF92FF920F931F938FEC97E00E941C
:1039400080190E94DE146093BB077093BC078093BC
:10395000BD079093BE0760916607709167078091DD
:103960006807909169072091CF073091D007409167
:10397000D1075091D2070E9421E0882309F07AC034
:1039800060916A0770916B0780916C0790916D0749
:103990002091D3073091D4074091D5075091D60795
:1039A0000E9421E0882309F065C06091A503709111
:1039B000A6038091A7039091A80320E030E040E7A0
:1039C00052E40E9428E07B018C018FEC97E063EDCC
:1039D00077E047ED57E02BED37E0E5EACE2EE7E064
:1039E000DE2E0E94DE5D8091CF079091D007A091DE
:1039F000D107B091D2078093660790936707A09391
:103A00006807B09369078091D3079091D407A0917C
:103A1000D507B091D60780936A0790936B07A09360
:103A20006C07B0936D078091D7079091D807A0914C
:103A3000D907B091DA0780936E0790936F07A09330
:103A40007007B09371078091DB079091DC07A0911C
:103A5000DD07B091DE078093720790937307A09300
:103A60007407B09375071F910F91FF90EF90DF904F
:103A7000CF9008956091830370918403882777FD28
:103A80008095982F0E94C3E02091A5033091A60352
:103A90004091A7035091A8030E9401E320E030E089
:103AA00040E752E40E9428E020E030E048EC52E495
:103AB00088CF81E09AE00E942842E7E0F3E0949109
:103AC00008C08091C00085FFFCCF9093C60031965E
:103AD00094919923B1F74091B3075091B407609145
:103AE000B5077091B6074F5F5F4F6F4F7F4F81E013
:103AF0009AE02AE030E00E94E9428091C00085FF10
:103B0000FCCF8AE08093C6000E943A1B08952F9252
:103B10003F924F925F926F927F928F929F92AF925D
:103B2000BF92CF92DF92EF92FF920F931F93DF939A
:103B3000CF93CDB7DEB728970FB6F894DEBF0FBE90
:103B4000CDBF98878F838330910508F056C1FC0163
:103B5000E959FA4FD4903C01660C771C660C771C2F
:103B600093012A59384F3A83298380E090E0A0E0FE
:103B7000B0E0F90180839183A283B38386E697E066
:103B80006AE677E04EE657E022E737E00E94CF583A
:103B9000F301E659FA4FE590F590059114916D2DDA
:103BA000772767FD7095882777FD8095982F0E946D
:103BB000C3E01B012C0193012153384F3C832B831D
:103BC000C801B70120E030E040EC5FE30E9401E370
:103BD000A20191010E9401E3AB81BC816D937D93B1
:103BE0008D939C931397F301ED58FC4FFE83ED8367
:103BF00060817181828193816093A5037093A60394
:103C00008093A7039093A80320E030E040E752E4BC
:103C10000E9428E07B018C018FEC97E063ED77E058
:103C200047ED57E02BED37E0A5EACA2EA7E0DA2EE4
:103C30000E94DE5D0E94836B80E090E0A0E0B0E037
:103C4000E981FA8180839183A283B38386E697E03A
:103C50006AE677E04EE657E022E737E00E94CF5869
:103C6000F301E656FA4F85909590A590B490C50162
:103C7000B4019058A20191010E9401E3AB81BC8183
:103C80006D937D938D939C9313976091A503709191
:103C9000A6038091A7039091A80320E030E040E7BD
:103CA00052E40E9428E07B018C018FEC97E063EDE9
:103CB00077E047ED57E02BED37E00E94DE5D0E9494
:103CC000836BC501B401A50194010E9448DFA201E4
:103CD00091010E9401E3EB81FC8160837183828307
:103CE0009383AD81BE816D917D918D919C9120E0FA
:103CF00030E040E05FE30E9401E36093A50370932E
:103D0000A6038093A7039093A80320E030E040E748
:103D100052E40E9428E07B018C018FEC97E063ED78
:103D200077E047ED57E02BED37E00E94DE5D0E9423
:103D3000836BF301EA58FA4F6591759185919491DF
:103D4000F301EA58F84FA080B180C280D380A60169
:103D500095010E9448DF7B018C01CB01D801E981EC
:103D6000FA8180839183A283B383F301EE57FA4FE4
:103D70006591759185919491F2E88F2EF7E09F2ED1
:103D8000860C971CA60195010E9448DFD4016D9313
:103D90007D938D939C931397F301E257FA4F6591AE
:103DA000759185919491E3E9F3E06E0E7F1EA60173
:103DB00095010E9448DFD3016D937D938D939C9371
:103DC0001397C701D801EB81FC8180839183A28383
:103DD000B38380E090E0A0E0B0E08093A5039093EF
:103DE000A603A093A703B093A8030E94696AAF81BA
:103DF000B885A257B84F81E08C9328960FB6F894F7
:103E0000DEBF0FBECDBFCF91DF911F910F91FF900D
:103E1000EF90DF90CF90BF90AF909F908F907F906A
:103E20006F905F904F903F902F900895682F209152
:103E3000E4073091E50780E690E0AC01249FC001E3
:103E4000259F900D349F900D11248051984F70E064
:103E50000E94C6119C019093EF078093EE0780E0CB
:103E6000232B09F081E00895FC01949108C0809112
:103E7000C00085FFFCCF9093C600319694919923A2
:103E8000B1F781E09AE022E030E00E94F943089522
:103E9000FC01949108C08091C00085FFFCCF9093F5
:103EA000C600319694919923B1F781E09AE02AE017
:103EB00030E00E94CA4208958091EE079091EF078A
:103EC000019660E070E04AE050E00E942E100895F4
:103ED0008091EE079091EF07019660E070E00E94FC
:103EE000CE0E0895CF93DF93EC018091A5078093C8
:103EF000B20784E50E94161F882309F482C00E943D
:103F0000681F0E9495E0262F6093B207623008F484
:103F100078C0EFE4F2E0949108C08091C00085FF82
:103F2000FCCF9093C600319694919923B1F7CD368A
:103F3000D105C1F0CE36D10544F4C836D105C1F063
:103F4000C936D10509F04DC010C0CA3DD10539F0C0
:103F5000CD3DD10509F045C0E0E0F2E03FC0E7E12A
:103F6000F2E031C0EEE2F2E023C0E5E4F2E015C099
:103F7000ECE5F2E007C08091C00085FFFCCF3196F0
:103F80009093C60090819923B1F72BC08091C00017
:103F900085FFFCCF31969093C60090819923B1F7AD
:103FA00020C08091C00085FFFCCF31969093C60061
:103FB00090819923B1F715C08091C00085FFFCCF97
:103FC00031969093C60090819923B1F70AC08091F1
:103FD000C00085FFFCCF31969093C6009081992355
:103FE000B1F781E09AE0622F40E050E00E94D742B2
:103FF0008091C00085FFFCCF8AE08093C60081E0FD
:1040000001C080E0DF91CF910895AF92BF92CF922F
:10401000DF92EF92FF920F931F93CF93DF9316E6F9
:10402000E12E17E0F12ECFECD7E000E010E0F80130
:10403000E851FC4F80810E94161F882339F10E94AD
:10404000681F5B016C01F801E05AF84F80818823FA
:1040500011F061E002C06091DF0770E0882777FD12
:104060008095982F0E94C3E0F70120813181428121
:1040700053810E9401E39B01AC01C601B5010E947E
:1040800048DF688379838A839B8309C0F701808135
:104090009181A281B38188839983AA83BB830F5FB7
:1040A0001F4F84E090E0E80EF91E249604301105BD
:1040B00009F0BDCF86E40E94161F8823E1F00E941C
:1040C000681F7B018C016093E0077093E107809388
:1040D000E2079093E30720E030E040E050E00E94E8
:1040E0002FE2181644F4E092A503F092A603009381
:1040F000A7031093A803DF91CF911F910F91FF9019
:10410000EF90DF90CF90BF90AF9008950E94052070
:1041100089E40E94161F882359F00E94681F60934B
:10412000C3077093C4078093C5079093C6070CC05C
:1041300080E090E0A0E0B0E08093C3079093C407D4
:10414000A093C507B093C6078AE40E94161F882370
:1041500059F00E94681F6093C7077093C807809347
:10416000C9079093CA07089580E090E0A0E0B0E00E
:104170008093C7079093C807A093C907B093CA0755
:1041800008952F923F924F925F926F927F928F92FB
:104190009F92AF92BF92CF92DF92EF92FF920F93D6
:1041A0001F93DF93CF93CDB7DEB7EE970FB6F8949A
:1041B000DEBF0FBECDBF87E40E94161F882309F41F
:1041C0004EC40E94681F0E9490E06430710509F49B
:1041D00041C06530710554F46230710541F16330BE
:1041E00071056CF57723CCF40C940B3A6A357105A4
:1041F00009F4E0C36B35710534F46C31710511F0CD
:104200000C940B3A6FC06B35710509F4D7C36C354C
:10421000710511F00C940B3AD6C38091B007882336
:1042200031F40E9405200E94971C0C94323A809130
:10423000B007882321F40E94862081E007C0809186
:10424000B007882339F40E94862080E00E94DA1BA0
:104250000C94323A8EE595E00E94E2D380E50E940C
:10426000161F882321F4EE24FF24870106C00E9434
:10427000681F0E9495E07B018C0183E50E94161F58
:10428000882361F00E94681F20E030E04AE754E490
:104290000E9401E30E9495E07B018C010E94836BE8
:1042A0000E94DE145B016C01AE0CBF1CC01ED11E4F
:1042B0000E94DE146093BB077093BC078093BD0718
:1042C0009093BE0706C00E94C9790E946E1B0E948F
:1042D00014D40E94DE146A157B058C059D0598F3A5
:1042E0000C940B3A8091A5039091A603A091A7038B
:1042F000B091A8038093EA079093EB07A093EC0793
:10430000B093ED07809183039091840390936507A8
:104310008093640784E690E0909384038093830302
:104320000E94DE146093BB077093BC078093BD07A7
:104330009093BE0781E00E94706A80916607909119
:104340006707A0916807B09169078093CF079093A2
:10435000D007A093D107B093D20780916A079091BC
:104360006B07A0916C07B0916D078093D307909372
:10437000D407A093D507B093D60780916E0790918C
:104380006F07A0917007B09171078093D707909342
:10439000D807A093D907B093DA078091720790915C
:1043A0007307A0917407B09175078093DB07909312
:1043B000DC07A093DD07B093DE0780E090E0A0E08B
:1043C000B0E08093A5039093A603A093A703B093B6
:1043D000A80388E50E94161F882361F489E50E94DE
:1043E000161F882339F48AE50E94161F882311F4CA
:1043F00081E001C080E08093A903882361F488E50F
:104400000E94161F882309F41BC289E50E94161F0B
:10441000882309F415C280E090E0A0E0B0E080932A
:10442000660790936707A0936807B0936907809326
:104430006A0790936B07A0936C07B0936D07B7E67C
:104440008B2EB5E09B2EF401E49086E697E06AE6B9
:1044500077E04EE657E022E737E00E94CF58AAE621
:104460006A2EA5E07A2EF30165917591859194915C
:1044700020E030E040EC5FE30E9401E35B016C016F
:10448000FF24E7FCF0940027F7FC0095102FC801EB
:10449000B7010E94C3E09B01AC01C601B5010E94B7
:1044A00001E36093CF077093D0078093D107909377
:1044B000D207F4E04F2E512C460C571CF2016591A7
:1044C0007591859194910894811C911CF401D4906C
:1044D00020E030E040EC5FE30E9401E37B018C01CF
:1044E0006D2D772767FD7095872F972F0E94C3E06A
:1044F0009B01AC01C801B7010E9401E36093D3079F
:104500007093D4078093D5079093D60720917303B7
:104510003091740340917503509176032093A50365
:104520003093A6034093A7035093A803E09077032A
:10453000F09078030091790310917A03C801B701D4
:104540000E9421E0882344F4E092A503F092A603A0
:104550000093A7031093A803F301A590B590C5900D
:10456000D490F201E590F59005911491C601B50142
:10457000A80197010E942FE218162CF4C801B70178
:10458000A601950104C0C601B501A80197010E94CA
:1045900028E09B01AC010E9401E39B01AC01CA0130
:1045A00020E030E040E85FE30E9448DF0E946EE3D5
:1045B0009B01AC016091A5037091A6038091A703B4
:1045C0009091A8030E9401E36093A5037093A60352
:1045D0008093A7039093A8036091A5037091A6030D
:1045E0008091A7039091A80320E030E040E752E4D7
:1045F0000E9428E07B018C018FEC97E063ED77E06F
:1046000047ED57E02BED37E0E5EACE2EE7E0DE2E72
:104610000E94DE5D0E94836BE6E7F5E0659175918F
:104620008591949120917607309177074091780792
:10463000509179070E9448DF60936607709367077F
:104640008093680790936907E2E8F5E065917591BA
:104650008591949120917607309177074091780762
:10466000509179070E9448DF609382077093830717
:104670008093840790938507EEE8F5E06591759146
:104680008591949120917607309177074091780732
:10469000509179070E9448DF6093930370939403CD
:1046A0008093950390939603EAE7F5E06591759101
:1046B0008591949120917A0730917B0740917C07F6
:1046C00050917D070E9448DF60936A0770936B07E3
:1046D00080936C0790936D07E6E8F5E0659175911E
:1046E0008591949120917A0730917B0740917C07C6
:1046F00050917D070E9448DF60938607709387077B
:104700008093880790938907E2E9F5E065917591B8
:104710008591949120917A0730917B0740917C0795
:1047200050917D070E9448DF609397037093980330
:104730008093990390939A0386E697E06AE677E080
:104740004EE657E022E737E00E94CF588091660797
:1047500090916707A0916807B09169078093CF0790
:104760009093D007A093D107B093D20780916A07A6
:1047700090916B07A0916C07B0916D078093D30760
:104780009093D407A093D507B093D6076091A50363
:104790007091A6038091A7039091A80320E030E0D8
:1047A00040E752E40E9428E07B018C018FEC97E007
:1047B00063ED77E047ED57E02BED37E00E94DE5DDB
:1047C00080E090E0A0E0B0E08093A5039093A60382
:1047D000A093A703B093A8030E94836B0E94696A09
:1047E0008091CF079091D007A091D107B091D207C7
:1047F0008093660790936707A0936807B093690753
:104800008091D3079091D407A091D507B091D60796
:1048100080936A0790936B07A0936C07B0936D0722
:104820008091D7079091D807A091D907B091DA0766
:1048300080936E0790936F07A0937007B0937107F2
:104840008091A903882329F488E50E94161F8823F4
:1048500021F080E090E00E94871D8091A9038823C9
:1048600029F489E50E94161F882321F081E090E059
:104870000E94871D88E50E94161F8823D9F00E9498
:104880005C1F6115710581059105A1F00E94681FEB
:1048900020917607309177074091780750917907FA
:1048A0000E9448DF609366077093670780936807EC
:1048B0009093690789E50E94161F8823D9F00E940A
:1048C0005C1F6115710581059105A1F00E94681FAB
:1048D00020917A0730917B0740917C0750917D07AA
:1048E0000E9448DF60936A0770936B0780936C07A0
:1048F00090936D078091A903882329F48AE50E948B
:10490000161F882321F082E090E00E94871D8AE52F
:104910000E94161F8823D9F00E945C1F6115710543
:1049200081059105A1F00E94681F20917E073091BA
:104930007F0740918007509181070E9448DF609374
:104940006E0770936F07809370079093710786E6E8
:1049500097E06AE677E04EE657E022E737E00E940C
:10496000CF5880E00E94706A8091EA079091EB072F
:10497000A091EC07B091ED078093A5039093A60357
:10498000A093A703B093A803809164079091650753
:1049900090938403809383030E94DE146093BB078B
:1049A0007093BC078093BD079093BE070E94696A0D
:1049B0000C940B3A1092DF070C940B3A81E0809331
:1049C000DF070C940B3A85E40E94161F882311F42C
:1049D0000E94836B46E6E42E47E0F42E36E7C32EB2
:1049E00037E0D32E00E010E0F801E851FC4F808161
:1049F0000E94161F882331F1033061F40E94681F62
:104A0000F701608371838283938382E797E00E943A
:104A1000B15818C00E94681FF6012081318142817F
:104A200053810E9448DFF7016083718382839383FF
:104A300086E697E06AE677E04EE657E022E737E061
:104A40000E94CF580F5F1F4F24E030E0E20EF31EAC
:104A5000C20ED31E0430110539F60C940B3A8DE4C6
:104A60000E94161F882311F40C94AF380E94681F0F
:104A70000E9490E06337710511F40C943B2F64376A
:104A800071050CF096C06F31710509F487C360326F
:104A900071050CF041C06631710509F4F4C167314C
:104AA0007105E4F46131710509F4A5C16231710544
:104AB00034F46230710510F00C940B3A3DC164314E
:104AC000710509F4AAC1653171050CF0D6C16231D6
:104AD000710511F00C940B3A0C94352E6A31710566
:104AE00009F409C26B3171054CF46831710509F4A0
:104AF000ECC1693171050CF0F8C1CBC16C317105A5
:104B000009F41EC26C3171050CF414C26E317105CA
:104B100011F00C940B3A51C26535710511F40C94E7
:104B20009E2E66357105F4F46135710511F40C940F
:104B3000052E6235710554F46032710509F483C2A3
:104B40006A32710511F00C940B3AADC363357105EF
:104B500011F40C94302E6435710514F00C94352E3C
:104B60000C942C2E6A36710511F40C94CE2D6B36F4
:104B700071057CF46836710509F4DFC36936710587
:104B80000CF00CC46C35710511F00C940B3A0C94BC
:104B9000B52E6D36710509F43EC56237710511F405
:104BA0000C94622F6B36710511F00C940B3A0C9437
:104BB000FF2D6D3D710511F40C9475336E3D71053B
:104BC0000CF054C0683C710511F40C945E31693CE2
:104BD000710514F56837710511F40C945730693775
:104BE00071055CF46537710511F40C944B2F673730
:104BF000710511F00C940B3A9BC06C38710509F4E7
:104C0000BCC36E3B710509F4B6C66937710511F076
:104C10000C940B3A0C945C306D3C710511F40C94BF
:104C20003C326E3C71058CF46B3C710511F40C94B4
:104C3000FB316C3C710514F00C941A32693C71051F
:104C400011F00C940B3A0C94D8316A3D710511F4B3
:104C50000C94B8326C3D710511F40C9466336E3CC3
:104C6000710511F00C940B3A0C949A3231E0643FC8
:104C7000730711F40C94553541E0653F74074CF50A
:104C800051E06D32750711F40C942B3481E06E32D3
:104C9000780764F4623E710511F40C949C336C52F5
:104CA000714011F00C940B3A0C94F433E1E06F3244
:104CB0007E0711F40C941235F1E06F327F0714F483
:104CC0000C9403356059714011F00C940B3A0C941C
:104CD000523532E06835730711F40C94663642E0C1
:104CE000693574079CF451E0663F750711F40C9424
:104CF0005B3581E0663F780714F40C945835675FA4
:104D0000714011F00C940B3A0C945E35E3E0603A7C
:104D10007E0709F408C2F3E0673E7F0711F40C94A4
:104D200098386355734011F00C940B3A0C9461352C
:104D3000E3E7F2E00C9468308DE495E00E94E2D362
:104D400080E50E94161F882321F4EE24FF248701AA
:104D500006C00E94681F0E9495E07B018C0183E5DC
:104D60000E94161F882361F00E94681F20E030E037
:104D70004AE754E40E9401E30E9495E07B018C0124
:104D80000E94836B0E94DE146093BB077093BC0784
:104D90008093BD079093BE07E114F104010511054E
:104DA00001F10E94DE145B016C01AE0CBF1CC01E41
:104DB000D11E0E94DE146A157B058C059D05A8F4A2
:104DC0000E94119B882389F40E94C9790E946E1B5E
:104DD0000E9414D4EECF0E94C9790E946E1B0E94DB
:104DE00014D40E94119B8823B1F38EE395E00E94B6
:104DF000E2D30C940B3A85E395E00E94E2D3159838
:104E000017984298A0989FB7F89480910B018D7FD6
:104E100080930B019FBF0C940B3AE5E2F5E094916F
:104E200008C08091C00085FFFCCF9093C6003196EA
:104E300094919923B1F78091C00085FFFCCF8AE05F
:104E40008093C60083ED94E00E94518DE7E1F5E088
:104E5000949108C08091C00085FFFCCF9093C6005C
:104E6000319694919923B1F78091C00085FFFCCFD2
:104E70008AE08093C6000C940B3A83ED94E00E9484
:104E8000B0880C940B3A83ED94E00E94E8800C9477
:104E90000B3A8091EE079091EF0704966AE270E07A
:104EA0000E94C611FC01009711F0319710826091A9
:104EB000EE077091EF076C5F7F4F83ED94E041E068
:104EC00021E00E94C6840C940B3A83ED94E00E948A
:104ED000EC800E94DE146093A8077093A90780936A
:104EE000AA079093AB070C940B3A83ED94E00E94D1
:104EF000F3800C940B3A8091D604882311F40C941F
:104F00000B3A83E50E94161F882311F40C940B3A88
:104F10000E945C1FAB01BC0140935607509357079A
:104F2000809358077093590781EA96E00E94FC46E7
:104F30000C940B3A83ED94E00E94B1820C940B3AEE
:104F40008091EE079091EF0704966AE270E00E946C
:104F5000C6118C01009719F12091E4073091E50703
:104F600080E690E0AC01249FC001259F900D349F06
:104F7000900D11248051984F6EE470E00E94C6118C
:104F800060E270E00E94C6119C012F5F3F4F30939A
:104F9000EF072093EE0701501040F8011082609156
:104FA000EE077091EF076C5F7F4F83ED94E040E078
:104FB00021E00E94C6840C940B3A8091D604882389
:104FC00011F40C940B3A83ED94E060E00E9420828F
:104FD0008091EE079091EF0704966AE270E00E94DC
:104FE000C6118C01009719F12091E4073091E50773
:104FF00080E690E0AC01249FC001259F900D349F76
:10500000900D11248051984F6EE470E00E94C611FB
:1050100060E270E00E94C6119C012F5F3F4F309309
:10502000EF072093EE0701501040F80110826091C5
:10503000EE077091EF076C5F7F4F83ED94E00E9465
:105040000B830C940B3A8091D504882311F00E94B5
:10505000836BE090EE07F090EF0724E030E0E20E83
:10506000F31EC7016AE270E00E94C6118C01C701FD
:1050700061E270E00E94C611009721F07C01089463
:10508000E11CF11C0115110521F001501040F8013F
:10509000108280E50E94161F182F8091EE079091D4
:1050A000EF07E816F90608F410E08091D60488238B
:1050B00011F40C940B3A21E0212783ED94E0B70121
:1050C00041E00E94C68483E50E94161F8823B9F040
:1050D0008091EE079091EF078E159F0580F40E9456
:1050E0005C1FAB01BC014093560750935707809358
:1050F00058077093590781EA96E00E94FC4683EDB9
:1051000094E00E94EC80112311F00C940B3A0E9461
:10511000DE146093A8077093A9078093AA07909361
:10512000AB070C940B3A8091EE079091EF07059630
:105130006AE270E00E94C6118C01009719F120917B
:10514000E4073091E50780E690E0AC01249FC001C0
:10515000259F900D349F900D11248051984F6EE43F
:1051600070E00E94C61160E270E00E94C6119C01CE
:105170002F5F3F4F3093EF072093EE070150104011
:10518000F80110826091EE077091EF076B5F7F4F1F
:1051900083ED94E00E94A7880C940B3A0E94DE14E1
:1051A0006093AC077093AD078093AE079093AF0701
:1051B0002091A8073091A9074091AA075091AB0709
:1051C000621B730B840B950B28EE33E040E050E03C
:1051D0000E9419E4F22EE32ED42EC52E2DB73EB731
:1051E000285030400FB6F8943EBF0FBE2DBF0DB70C
:1051F0001EB70F5F1F4FCE018196EDB7FEB79283AA
:10520000818388E095E0F801938382836F2D7E2D62
:10521000842F952F2CE330E040E050E00E9419E409
:10522000F801358324836F2D7E2D8D2D9C2D2CE34D
:1052300030E040E050E00E9419E4F8017783668393
:105240000E94F511EFE4F2E094912DB73EB7285F8C
:105250003F4F0FB6F8943EBF0FBE2DBF08C08091E0
:10526000C00085FFFCCF9093C6003196949199239E
:10527000B1F7FE01B19607C08091C00085FFFCCF59
:1052800031969093C60090819923B1F78091C00028
:1052900085FFFCCF8AE08093C600CE0181960E94F4
:1052A00005D40C940B3A83E50E94161F882311F451
:1052B0000C940B3A0E94681F0E9490E07B018C01C5
:1052C0006B0180E50E94161F882369F0F7FC0BC074
:1052D0003FEFE316F10409F034F40E94681F0E94C6
:1052E00090E08B0102C00DE010E0ECEEF3E0808175
:1052F00091818017910711F40C940B3A329644E097
:10530000EC36F407A1F70730110529F4D092A7076E
:10531000C092A60704C017FF02C00C940B3A802F5E
:1053200061E00E949116802F6C2D0E944417802FFF
:10533000B6010E94B1150C940B3A88E690E00E94E9
:10534000721F882311F00C940B3A83E50E94161FFC
:10535000882379F00E94681F2091B207022F10E085
:10536000000F111F00551E4E0E9490E0F80171833E
:1053700060830E94E3760C940B3A83E50E94161F2B
:10538000882311F40C940B3A0E94681F0E9490E04D
:105390007093B5116093B4110C940B3A89E690E0C8
:1053A0000E94721F882311F00C940B3AE2E0F5E0A2
:1053B000949108C08091C00085FFFCCF9093C600F7
:1053C000319694919923B1F7E091B207F0E0EE0F96
:1053D000FF1FEE0FFF1FE654FE4E40815181628198
:1053E000738181E09AE021E030E00E94F943EFEF21
:1053F000F4E0949108C08091C00085FFFCCF9093A9
:10540000C600319694919923B1F7E091B207F0E08C
:10541000EE0FFF1FE055FE4E60817181882777FDFA
:105420008095982F0E94C3E0AB01BC0181E09AE017
:1054300021E030E00E94F943EBEFF4E0949108C0E2
:105440008091C00085FFFCCF9093C6003196949167
:105450009923B1F74091C4115091C5116091C611C3
:105460007091C71181E09AE021E030E00E94F94399
:10547000E8EFF4E0949108C08091C00085FFFCCF74
:105480009093C600319694919923B1F76091B4112D
:105490007091B511882777FD8095982F0E94C3E001
:1054A000AB01BC0181E09AE021E030E00E94F943C9
:1054B00000EBC02E01E1D02E1AEBE12E11E1F12E0E
:1054C00000E010E0E5EFF4E09490E3EFF4E0A49066
:1054D000E0EFF4E0B490992DE5EFF4E008C080919E
:1054E000C00085FFFCCF9093C6003196949199231C
:1054F000B1F781E09AE0B8014AE050E00E941E4313
:105500009A2DE3EFF4E008C08091C00085FFFCCF46
:105510009093C600319694919923B1F7F701408199
:1055200051816281738181E09AE021E030E00E9444
:10553000F9439B2DE0EFF4E008C08091C00085FFA7
:10554000FCCF9093C600319694919923B1F7F60160
:10555000619171916F01882777FD8095982F0E9446
:10556000C3E0AB01BC0181E09AE021E030E00E94A1
:10557000F9430F5F1F4F24E030E0E20EF31E0230CC
:10558000110509F0A8CFECEEF4E0949108C08091E9
:10559000C00085FFFCCF9093C6003196949199236B
:1055A000B1F78091B2070E94AB73BC0181E09AE031
:1055B0004AE050E00E941E43E7EEF4E0949108C0F8
:1055C0008091C00085FFFCCF9093C60031969491E6
:1055D0009923B1F78FEF9FEF0E94AB73BC0181E07D
:1055E0009AE04AE050E00E941E43ECE8F2E007C077
:1055F0008091C00085FFFCCF31969093C6009081CA
:105600009923B1F78091C00085FFFCCF8AE0809399
:10561000C6000C94323A8DE690E00E94721F8823F7
:1056200011F00C940B3A8CED94E00E94E2D383E5E8
:105630000E94161F882399F00E94681F2091B207CC
:10564000022F10E0000F111F00551E4E0E9490E027
:10565000F8017183608381E08093A00316C082E526
:105660000E94161F882389F00E94681F2091B207AC
:10567000022F10E0000F111F00551E4E0E9490E0F7
:10568000F801718360831092A0030E94E3760E9468
:10569000DE144B015C012091B207022F10E0109242
:1056A000B107000F111FF801E055FE4E60817181B6
:1056B000882777FD8095982F0E94C3E0000F111F67
:1056C00006541E4EF80120813181428153810E948F
:1056D0002FE218161CF481E08093B107CC24CA9401
:1056E000DC2C7601E9EDF4E05490E5EDF4E0649013
:1056F000E1EDF4E074907AE0472E30C1952DE9EDAC
:10570000F4E008C08091C00085FFFCCF9093C600F4
:10571000319694919923B1F7E091B207F0E0EE0F42
:10572000FF1FEE0FFF1FE654FE4E40815181628144
:10573000738181E09AE021E030E00E94F943962DE8
:10574000E5EDF4E008C08091C00085FFFCCF9093A8
:10575000C600319694919923B1F76091B20781E028
:105760009AE070E04AE050E00E941E43972DE1ED80
:10577000F4E008C08091C00085FFFCCF9093C60084
:10578000319694919923B1F7F7FE03C0EDE8F2E06A
:1057900028C00E94DE14A70196012854344F4F4FB1
:1057A0005F4F261B370B480B590BCA01B90128EE76
:1057B00033E040E050E00E9419E481E09AE0BA0151
:1057C000A9012AE030E00E94CA428091C00085FF12
:1057D000FCCF0EC08091C00085FFFCCF3196909326
:1057E000C60090819923B1F78091C00085FFFCCF5E
:1057F0004092C6000E94DE144B015C010E94C979F0
:105800000E946E1B0E9414D4FFEFCF16FFEFDF063D
:10581000FFEFEF06FFEFFF0609F052C08091B107DE
:10582000E091B207882331F1F0E08F01000F111FE2
:10583000000F111F06541E4EEE0FFF1FE055FE4EC7
:1058400060817181882777FD8095982F0E94C3E041
:1058500020E030E040E85FE30E9447DF9B01AC01BD
:10586000F80160817181828193810E942FE287FF1C
:1058700058C05EC0F0E08F01000F111F000F111F14
:1058800006541E4EEE0FFF1FE055FE4E60817181E3
:10589000882777FD8095982F0E94C3E020E030E0B4
:1058A00040E85FE30E9448DF9B01AC01F8016081A2
:1058B0007181828193810E9421E0181694F538C08D
:1058C000F7FC36C0E091B207F0E08F01000F111F26
:1058D000000F111F06541E4EEE0FFF1FE055FE4E27
:1058E00060817181882777FD8095982F0E94C3E0A1
:1058F0009B01AC01F80160817181828193810E94DA
:1059000047DF0E9490E097FF07C0909580957095C3
:1059100061957F4F8F4F9F4F6430710581059105D1
:105920003CF00E94DE14AC01CB01DA016C017D0178
:10593000FFEFCF16FFEFDF06FFEFEF06FFEFFF06EB
:1059400069F0F7FE02C00C940E3A0E94DE146C1946
:105950007D09685B7B4010F00C940E3A0E94DE14C7
:10596000681979098A099B09695E734080409040F3
:1059700008F0C4CE43CF86EB94E00E94E2D383E5E7
:105980000E94161F882361F00E94681F0E9490E009
:105990007093B5116093B41181E08093A0030FC0A0
:1059A00082E50E94161F882351F00E94681F0E9402
:1059B00090E07093B5116093B4111092A0030E940F
:1059C000DE147B018C011092B1076091B4117091CB
:1059D000B511882777FD8095982F0E94C3E020910C
:1059E000C4113091C5114091C6115091C7110E9448
:1059F0002FE218160CF082C081E08093B1077EC0C0
:105A00000E94DE146E197F09800B910B695E734052
:105A10008040904008F46BC0E091A507F0E0EE0FE5
:105A2000FF1FEE0FFF1FE654FE4E40815181628141
:105A300073819B2DE3EBF4E008C08091C00085FFEB
:105A4000FCCF9093C600319694919923B1F781E0F1
:105A50009AE022E030E00E94F9439C2DEFEAF4E066
:105A600008C08091C00085FFFCCF9093C60031969E
:105A700094919923B1F76091A50781E09AE070E0D5
:105A80004AE050E00E941E439D2DEBEAF4E008C07E
:105A90008091C00085FFFCCF9093C6003196949111
:105AA0009923B1F74091C4115091C5116091C6116D
:105AB0007091C71181E09AE021E030E00E94F94343
:105AC000ECE8F2E007C08091C00085FFFCCF319682
:105AD0009093C60090819923B1F78091C00085FF13
:105AE000FCCFA092C6000E94DE147B018C010E94B4
:105AF000C9790E946E1B0E9414D40BC0E3EBF4E042
:105B0000B490EFEAF4E0C490EBEAF4E0D490BAE0A9
:105B1000AB2E8091B1072091B4113091B51188233B
:105B2000A9F0B901882777FD8095982F0E94C3E0DE
:105B30002091C4113091C5114091C6115091C711E7
:105B40000E942FE218160CF45BCF18C0B901882709
:105B500077FD8095982F0E94C3E02091C411309169
:105B6000C5114091C6115091C7110E9421E08823B0
:105B70002CF48091A003882309F442CF81EA94E0B9
:105B80000E94E2D30E94DE146093BB077093BC07AF
:105B90008093BD079093BE070C940B3A83E50E9457
:105BA000161F882321F10E94681F20E030E040E0AA
:105BB00050E00E9421E088231CF460E070E011C0F6
:105BC0000E94681F20E030E04FE753E40E942FE27C
:105BD00018161CF46FEF70E004C00E94681F0E944A
:105BE00090E07093A7076093A6070C940B3A8FEF91
:105BF00090E09093A7078093A6070C940B3A10921D
:105C0000A7071092A6070C940B3A0E9466740E9494
:105C1000836BA09A9FB7F89480910B018260809368
:105C20000B019FBF0E94916B1092A7071092A607CD
:105C300068EE73E080E090E00E94EC140E94836BB9
:105C4000809A889810929F0382E994E00E94E2D3A0
:105C50000E9414D40C940B3A109263070C940B3AE4
:105C600081E0809363070C940B3A83E50E94161F32
:105C70008823A1F00E94681F20E030E04AE754E446
:105C80000E9401E30E9495E06093A1037093A20338
:105C90008093A3039093A4030C940B3A88E50E948D
:105CA000161F882311F00C94273A89E50E94161FCD
:105CB000882311F00C94273A8AE50E94161F882346
:105CC00011F00C94273A85E40E94161F882311F0E6
:105CD0000C94273A0E94836BA09A9FB7F894809106
:105CE0000B01826080930B019FBF0E94916B0C940B
:105CF0000B3A159A10928E0789E50E94161F882389
:105D000019F0179A10928F078AE50E94161F8823B0
:105D100019F0429A1092900785E40E94161F88237A
:105D200011F40C940B3AA09A9FB7F89480910B0150
:105D3000826080930B019FBF0C940B3A83E50E9415
:105D4000161F0E94681F20E030E04AE754E40E94DA
:105D500001E30E9495E06093BF077093C0078093B2
:105D6000C1079093C2070C940B3AA3E26A2EACE0F1
:105D70007A2EF3E12F2EFCE03F2EEFE54E2EECE0E5
:105D80005E2E88249924F401E851FC4F80810E9402
:105D9000161F882309F45DC053E0851609F052C030
:105DA0000E94681F5B016C0120E030E040EA51E492
:105DB0000E9421E088230CF03FC0F30160817181D3
:105DC00082819381A60195010E9428E07B018C01CC
:105DD0006091570C7091580C8091590C90915A0C0D
:105DE000A80197010E9401E36093570C7093580C2F
:105DF0008093590C90935A0CF101608171818281DA
:105E00009381A80197010E9401E3F10160837183EE
:105E100082839383F20160817181828193810E94E8
:105E2000C1E0A80197010E9401E30E9495E0F20100
:105E30006083718382839383F301A082B182C282E3
:105E4000D38207C00E94681FF3016083718382833D
:105E500093830894811C911C24E030E0620E731E31
:105E6000220E331E420E531E34E08316910409F0B5
:105E70008ACF0C940B3AE8ECF3E0949108C080913F
:105E8000C00085FFFCCF9093C60031969491992372
:105E9000B1F70C940B3A8091EE079091EF070596BD
:105EA0006AE270E00E94C611FC01009711F0319780
:105EB00010828091EE079091EF0705960E9405D41D
:105EC0000C940B3AE5ECF3E0949108C08091C0008B
:105ED00085FFFCCF9093C600319694919923B1F73A
:105EE0004091660750916707609168077091690754
:105EF00081E09AE022E030E00E94F943E1ECF3E037
:105F0000949108C08091C00085FFFCCF9093C6009B
:105F1000319694919923B1F740916A0750916B079C
:105F200060916C0770916D0781E09AE022E030E0AB
:105F30000E94F943EDEBF3E0949108C08091C0001A
:105F400085FFFCCF9093C600319694919923B1F7C9
:105F500040916E0750916F076091700770917107C3
:105F600081E09AE022E030E00E94F943E9EBF3E0BF
:105F7000949108C08091C00085FFFCCF9093C6002B
:105F8000319694919923B1F740917207509173071C
:105F9000609174077091750781E09AE022E030E02B
:105FA0000E94F943EEEAF3E0949108C08091C000AA
:105FB00085FFFCCF9093C600319694919923B1F759
:105FC00080E00E944E6B0E94C3E02091230C309130
:105FD000240C4091250C5091260C0E9428E0AB0126
:105FE000BC0181E09AE022E030E00E94F943EAEA55
:105FF000F3E0949108C08091C00085FFFCCF90939E
:10600000C600319694919923B1F781E00E944E6BBE
:106010000E94C3E02091270C3091280C4091290C5C
:1060200050912A0C0E9428E0AB01BC0181E09AE06B
:1060300022E030E00E94F943E6EAF3E0949108C0E0
:106040008091C00085FFFCCF9093C600319694915B
:106050009923B1F782E00E944E6B0E94C3E0209129
:106060002B0C30912C0C40912D0C50912E0C0E9439
:1060700028E0AB01BC0181E09AE022E030E00E9420
:10608000F943ECE8F2E007C08091C00085FFFCCF47
:1060900031969093C60090819923B1F78091C0000A
:1060A00085FFFCCF8AE08093C6000C940B3A80E019
:1060B0000E94706A0C940B3A81E00E94706A0C9402
:1060C0000B3A8091C00085FFFCCF31969093C600BB
:1060D00090819923B1F78091C00085FFFCCF8AE0C1
:1060E0008093C600EEE9F3E0949108C08091C0006F
:1060F00085FFFCCF9093C600319694919923B1F718
:10610000009B03C0EFE8F2E00AC0E4E9F2E007C058
:106110008091C00085FFFCCF31969093C60090819E
:106120009923B1F78091C00085FFFCCF8AE080936E
:10613000C600E6E9F3E0949108C08091C00085FFB5
:10614000FCCF9093C600319694919923B1F7029BAE
:1061500003C0EFE8F2E00AC0E4E9F2E007C0809192
:10616000C00085FFFCCF31969093C60090819923A3
:10617000B1F78091C00085FFFCCF8AE08093C60014
:10618000EEE8F3E0949108C08091C00085FFFCCF59
:106190009093C600319694919923B1F7049B03C064
:1061A000EFE8F2E00AC0E4E9F2E007C08091C00045
:1061B00085FFFCCF31969093C60090819923B1F76B
:1061C0008091C00085FFFCCF8AE08093C600E6E89E
:1061D000F3E0949108C08091C00085FFFCCF9093BC
:1061E000C600319694919923B1F7069B03C0EFE85E
:1061F000F2E00AC0E4E9F2E007C08091C00085FF48
:10620000FCCF31969093C60090819923B1F780918D
:10621000C00085FFFCCF8AE08093C600EEE7F3E084
:10622000949108C08091C00085FFFCCF9093C60078
:10623000319694919923B1F7379B03C0EFE8F2E0D0
:106240000AC0E4E9F2E007C08091C00085FFFCCFFE
:1062500031969093C60090819923B1F78091C00048
:1062600085FFFCCF8AE08093C600E6E7F3E09491D7
:1062700008C08091C00085FFFCCF9093C600319686
:1062800094919923B1F7359B03C0EFE8F2E00AC07F
:10629000E4E9F2E007C08091C00085FFFCCF3196B1
:1062A0009093C60090819923B1F78091C00085FF3B
:1062B000FCCF8AE08093C6000C940B3A84E40E94E1
:1062C000161F882311F40C940B3A0E94681F20E0DB
:1062D00030E040E05FE30E9401E37B018C0120E0BD
:1062E00030E040E050E00E9421E0882359F40F2E76
:1062F000F0E0CF2EF0E0DF2EF0E8EF2EFFE3FF2EF0
:10630000F02D11C0C801B701A80197010E9401E357
:106310009B01AC01CA012BED3FE049E450E40E942F
:1063200001E36B017C018091A5078093B20784E5AE
:106330000E94161F882319F10E94681F0E9495E091
:106340006093B2076230D8F0EFE4F2E0949108C0B5
:106350008091C00085FFFCCF9093C6003196949148
:106360009923B1F7EEE9F2E007C08091C00085FF04
:10637000FCCF31969093C60090819923B1F780911C
:10638000B207082F10E0000F111F000F111F055753
:106390001C4F60E070E080E89FE3A70196010E9437
:1063A00028E0F80160837183828393830C940B3A15
:1063B00008EE13E063E3E62E6CE0F62EF801808130
:1063C0000E94161F882349F00E94681F0E9495E0D2
:1063D000F70160837183828393830F5F1F4F24E0F3
:1063E00030E0E20EF31E33E00C3E130739F70E9453
:1063F00086580C940B3A08EE13E053E1E52E5CE06E
:10640000F52EF80180810E94161F882339F00E9422
:10641000681FF70160837183828393830F5F1F4F2F
:1064200024E030E0E20EF31E33E00C3E130749F7A0
:106430000C940B3A83E50E94161F882351F00E94AA
:10644000681F6093470C7093480C8093490C90939D
:106450004A0C84E50E94161F882311F40C940B3A11
:106460000E94681F60934B0C70934C0C80934D0CF2
:1064700090934E0C0C940B3A83E50E94161F8823D0
:1064800051F00E94681F6093430C7093440C8093FA
:10649000450C9093460C84E50E94161F882351F00A
:1064A0000E94681F60935B0C70935C0C80935D0C82
:1064B00090935E0C82E40E94161F882361F00E9474
:1064C000681F0E9495E060930F0C7093100C8093EE
:1064D000110C9093120C88E50E94161F882351F02E
:1064E0000E94681F60934F0C7093500C8093510C66
:1064F0009093520C8AE50E94161F882351F00E9447
:10650000681F6093530C7093540C8093550C9093B8
:10651000560C85E40E94161F882309F47CC70E944C
:10652000681F6093570C7093580C8093590C90938C
:106530005A0C71C708EE13E046E7E42E47E0F42E4C
:10654000F80180810E94161F882339F00E94681F7D
:10655000F70160837183828393830F5F1F4F24E071
:1065600030E0E20EF31E33E00B3E130749F753C74A
:106570008AED90E00E94721F882309F04CC788E5DD
:106580000E94161F882389F08091B207082F10E01F
:106590000E94681F000F111F000F111F0B56184F8C
:1065A000F801608371838283938389E50E94161FBB
:1065B000882389F08091B207082F10E00E94681F9D
:1065C000000F111F000F111F0356184FF8016083B1
:1065D000718382839383EFE4F2E0949108C0809109
:1065E000C00085FFFCCF9093C6003196949199230B
:1065F000B1F7E6E6F3E0949108C08091C00085FF12
:10660000FCCF9093C600319694919923B1F71092E4
:10661000B20740C08091C00085FFFCCF11969093D7
:10662000C6009C919923B1F7F0E0EE0FFF1FEE0F2B
:10663000FF1FEB56F84F408151816281738181E0E9
:106640009AE022E030E00E94F943E5EBF2E007C077
:106650008091C00085FFFCCF31969093C600908159
:106660009923B1F7E091B207F0E0EE0FFF1FEE0FB4
:10667000FF1FE356F84F408151816281738181E0B1
:106680009AE022E030E00E94F9438091B2078F5FE8
:106690008093B207E091B207E23018F0ECE8F2E044
:1066A0000AC0A7EBB2E0BDCF8091C00085FFFCCF50
:1066B00031969093C60090819923B1F78091C000E4
:1066C00085FFFCCF8AE08093C600A5C683E50E94C3
:1066D000161F882309F49FC60E94681F0E9490E03D
:1066E000709384036093830396C683E50E94161F0C
:1066F000882309F490C60E94681F0E9490E07B01E5
:106700008C0184E50E94161F882389F08DED90E0AE
:106710000E94721F882309F07EC6E091B207F0E064
:10672000EE0FFF1FE957FC4FF182E08274C6F09232
:106730008603E09285036FC680E50E94161F8823BA
:1067400009F469C60E94681F0E9490E07B0183E5FE
:106750000E94161F882319F40FEF1FEF05C00E9437
:10676000681F0E9490E08B01C8010196039708F012
:1067700052C6ECEEF3E0808191818E159F0509F4FD
:106780004AC6329624E0EC36F207A9F7F7FC43C676
:106790000E94836BDE2C8E2D60E00E949116011505
:1067A000110541F00130110579F03FEF0F3F13075C
:1067B000A1F403C000E010E010C08E2D0E947717F6
:1067C00000E010E0892B49F401E010E006C00E94CF
:1067D000C9790E946E1B0E9414D48D2D0E947717D8
:1067E00080179107A1F717C683E50E94161F88231B
:1067F00021F41EE6C12ED12C05C00E94681F0E9404
:1068000090E06B0180E50E94161F882319F468EE62
:1068100073E004C00E94681F0E9490E07B01002783
:10682000F7FC0095102F1C141D0484F482E1B601BE
:1068300020E030E040E050E00E941498C801B70129
:106840000E94EC1482E10E949D97E5C5C801B70142
:106850000E94EC14E0C580E50E94161F882351F0C9
:106860000E94681F6093B3037093B4038093B503D1
:106870009093B60389E40E94161F882361F00E945A
:10688000681F0E947C746093B7037093B803809371
:10689000B9039093BA0384E40E94161F882361F021
:1068A0000E94681F0E948A746093BB037093BC03AC
:1068B0008093BD039093BE0383E40E94161F882338
:1068C00051F00E94681F6093BF037093C0038093D0
:1068D000C1039093C2030E948873E9EBF2E007C002
:1068E0008091C00085FFFCCF31969093C6009081C7
:1068F0009923B1F7ECEBF2E007C08091C00085FF6F
:10690000FCCF31969093C60090819923B1F74091C6
:10691000B3035091B4036091B5037091B60381E065
:106920009AE022E030E00E94F943E0ECF2E007C098
:106930008091C00085FFFCCF31969093C600908176
:106940009923B1F76091B7037091B8038091B903AF
:106950009091BA030E948374AB01BC0181E09AE07C
:1069600022E030E00E94F943E4ECF2E007C08091BD
:10697000C00085FFFCCF31969093C600908199238B
:10698000B1F76091BB037091BC038091BD039091FE
:10699000BE030E949174AB01BC0181E09AE022E049
:1069A00030E00E94F943E8ECF2E007C08091C000BB
:1069B00085FFFCCF31969093C60090819923B1F763
:1069C0004091BF035091C0036091C1037091C20315
:1069D00081E09AE022E030E00E94F943ECE8F2E046
:1069E00007C08091C00085FFFCCF31969093C60010
:1069F00090819923B1F78091C00085FFFCCF8AE098
:106A00008093C60008C583E50E94161F882329F4D9
:106A100060E070E080E090E002C00E94681F0E9489
:106A20007D58F9C485E40E94161F882319F4CC24EC
:106A3000DD2412C00E94681F0E9490E06B0177FF66
:106A40000BC00F2EF0E0EF2EF0E0FF2EFCE80F2F32
:106A5000F2E41F2FF02D0AC00F2EF0E0EF2EF0E031
:106A6000FF2EF6E10F2FF3E41F2FF02D83E50E9498
:106A7000161F882321F00E94681F7B018C0183E48C
:106A80000E94161F882319F425E030E005C00E94FB
:106A9000681F0E9490E09B01C801B701A6010E94F7
:106AA000737CB9C40E94836BB6C40E943A8EB3C48F
:106AB0000E947F95B0C40E949C90ADC40E944992F0
:106AC000AAC48AE50E94161F882309F4B8C00E9450
:106AD000681F7B018C0120E030E040E751EC0E9410
:106AE0002FE288230CF44EC0C801B70120E030E04B
:106AF00040EA50EC0E9421E018160CF443C0D80183
:106B0000C701B0588093910790939207A093930781
:106B1000B0939407EFE4F2E0949108C08091C00034
:106B200085FFFCCF9093C600319694919923B1F7DD
:106B3000EAE5F3E0949108C08091C00085FFFCCFA6
:106B40009093C600319694919923B1F78091C0003B
:106B500085FFFCCF8AE08093C600ECE8F2E007C036
:106B60008091C00085FFFCCF31969093C600908144
:106B70009923B1F78091C00085FFFCCF8AE0809314
:106B8000C60049C4EFE4F2E0949108C08091C000CF
:106B900085FFFCCF9093C600319694919923B1F76D
:106BA000E1E5F3E0949108C08091C00085FFFCCF3F
:106BB0009093C600319694919923B1F7E9E4F3E0FC
:106BC000949108C08091C00085FFFCCF9093C600CF
:106BD000319694919923B1F781E09AE061EF7FEFCC
:106BE0004AE050E00E941E43E1E4F3E0949108C0C3
:106BF0008091C00085FFFCCF9093C60031969491A0
:106C00009923B1F781E09AE06BEF7FEF4AE050E023
:106C10000E941E43ECE8F2E007C08091C00085FFAF
:106C2000FCCF31969093C60090819923B1F7809163
:106C3000C00085FFFCCF8AE08093C600ECC3EFE480
:106C4000F2E0949108C08091C00085FFFCCF909342
:106C5000C600319694919923B1F7E5E3F3E094915E
:106C600008C08091C00085FFFCCF9093C60031968C
:106C700094919923B1F78091C00085FFFCCF8AE001
:106C80008093C600409191075091920760919307BD
:106C900070919407705881E09AE022E030E00E9401
:106CA000F943ECE8F2E007C08091C00085FFFCCF1B
:106CB00031969093C60090819923B1F78091C000DE
:106CC00085FFFCCF8AE08093C600A5C3A09066072D
:106CD000B0906707C0906807D0906907A982BA8210
:106CE000CB82DC82E0906A07F0906B0700916C0722
:106CF00010916D07ED82FE820F83188720916E0739
:106D000030916F07409170075091710729873A873A
:106D10004B875C878091720790917307A0917407ED
:106D2000B09175078D879E87AF87B88BA98ABA8A7D
:106D3000CB8ADC8AED8AFE8A0F8B188F298F3A8FD7
:106D40004B8F5C8F8D8F9E8FAF8FB8A385E40E9491
:106D5000161F882369F0ED84FE840F8518890E9430
:106D6000681F9B01AC01C801B7010E9448DF0AC03F
:106D70006D857E858F85988920E030E040E050E485
:106D80000E9447DF6D877E878F87988B6091A50370
:106D90007091A6038091A7039091A80320E030E0B2
:106DA00040E752E40E9428E07B018C01CE0101966D
:106DB000BE016B5F7F4FAE01475F5F4F9E01235F58
:106DC0003F4FB5EACB2EB7E0DB2E0E94DE5D8AE5B1
:106DD0000E94161F882359F0E984FA840B851C85CC
:106DE0000E94681F9B01AC01C801B70108C06985FA
:106DF0007A858B859C8520E030E040E251E40E945A
:106E000048DF69877A878B879C876091A50370919B
:106E1000A6038091A7039091A80320E030E040E70B
:106E200052E40E9428E07B018C01CE010196BE0154
:106E30006B5F7F4FAE01475F5F4F9E01235F3F4F08
:106E4000A5EACA2EA7E0DA2E0E94DE5D88E50E9440
:106E5000161F882389F0E980FA800B811C810E942B
:106E6000681F9B01AC01C801B7010E9448DF69831C
:106E70007A838B839C8308C080E090E0A0E4B0E438
:106E800089839A83AB83BC8389E50E94161F88237C
:106E900039F00E94681F6D837E838F83988708C0B6
:106EA00080E090E0A0E4B0E48D839E83AF83B88758
:106EB0006091A5037091A6038091A7039091A80308
:106EC00020E030E040E752E40E9428E07B018C01A2
:106ED000CE010196BE016B5F7F4FAE01475F5F4FF2
:106EE0009E01235F3F4FF5EACF2EF7E0DF2E0E9491
:106EF000DE5D8CE40E94161F882369F0ED84FE8419
:106F00000F8518890E94681F9B01AC01C801B70159
:106F10000E9448DF0AC06D857E858F85988920E0B4
:106F200030E048EC52E40E9447DF6D877E878F8710
:106F3000988B6091A5037091A6038091A70390910F
:106F4000A80320E030E040E752E40E9428E07B0103
:106F50008C01CE010196BE016B5F7F4FAE01475F92
:106F60005F4F9E01235F3F4FE5EACE2EE7E0DE2E26
:106F70000E94DE5D0E94836BA09A9FB7F894809177
:106F80000B01826080930B019FBF64E670E080E09C
:106F900090E00E94EC1485E293E00E94F1D310E0AF
:106FA00018C01F5F0E94C9790E946E1B0E9414D4F2
:106FB000112379F4539A5B9A63E070E080E090E0EB
:106FC0000E94EC145B9863E070E080E090E00E9427
:106FD000EC140E94119B882321F38CE40E94161F5D
:106FE000882369F0ED84FE840F8518890E94681F4C
:106FF0009B01AC01C801B7010E9447DF0AC06D8543
:107000007E858F85988920E030E048EC52E40E942C
:1070100048DF6D877E878F87988B8D859E85AF85AE
:10702000B8898093720790937307A0937407B09305
:10703000750782E797E00E94B158B9E04B2E512CBA
:107040004C0E5D1EADE06A2E712C6C0E7D1E6091A3
:10705000A5037091A6038091A7039091A80320E057
:1070600030E040E752E40E9428E07B018C01CE0131
:107070000196BE016B5F7F4FA2019301F5EACF2E0F
:10708000F7E0DF2E0E94DE5DE1E1AE2EB12CAC0E0A
:10709000BD1E75E1872E912C8C0E9D1E6091A5035F
:1070A0007091A6038091A7039091A80320E030E09F
:1070B00040E752E40E9428E07B018C01C501B40145
:1070C000A20193010E94DE5D69E1462E512C4C0E17
:1070D0005D1E6091A5037091A6038091A703909116
:1070E000A80320E030E040E752E40E9428E07B0162
:1070F0008C01C501B401A20193010E94DE5D609183
:10710000A5037091A6038091A7039091A80320E0A6
:1071100030E040E752E40E9428E07B018C01C50189
:10712000B401A2019E01235E3F4F0E94DE5D73C148
:107130001092B0070E940E9B8091B7079091B807FC
:10714000A091B907B091BA078093B3079093B407A1
:10715000A093B507B093B6070E94591D5CC184E5A2
:107160000E94161F882309F40BC10E94681F0E9409
:1071700095E0262F6093B2076230B8F1EFE4F2E0B9
:10718000949108C08091C00085FFFCCF9093C60009
:10719000319694919923B1F7ECECF2E007C080911D
:1071A000C00085FFFCCF31969093C6009081992353
:1071B000B1F781E09AE0622F40E050E00E94D742B0
:1071C000EEECF2E007C08091C00085FFFCCF319665
:1071D0009093C60090819923B1F78091C00085FFFC
:1071E000FCCF8AE08093C60016C186E40E94161F79
:1071F000882311F4EE241EC00E94681F7B018C01BD
:107200006093E0077093E1078093E2079093E307B0
:1072100020E030E040E050E00E942FE2181644F4F5
:10722000E092A503F092A6030093A7031093A8038E
:10723000EE24E3949091B2078091A507981709F482
:1072400073C0AFECB7E0E6E6F7E080E101900D92A5
:107250008150E1F72091A507C22EDD24CC0CDD1C66
:10726000CC0CDD1CF601EB56F84F6091660770916F
:107270006707809168079091690720813181428179
:1072800053810E9447DFF090B2070F2D10E0000FEE
:10729000111F000F111FF801EB56F84F20813181AB
:1072A000428153810E9448DF6093660770936707AD
:1072B00080936807909369074DE957E0C40ED51E87
:1072C00060916A0770916B0780916C0790916D07D0
:1072D000F60120813181428153810E9447DF0356AC
:1072E000184FF80120813181428153810E9448DF8B
:1072F00060936A0770936B0780936C0790936D0798
:10730000F092A50786E697E06AE677E04EE657E05A
:1073100022E737E00E94CF58EE2031F08091B0078D
:10732000882311F40E94971CEFE4F2E0949108C0C6
:107330008091C00085FFFCCF9093C6003196949158
:107340009923B1F7EFEDF2E007C08091C00085FF0F
:10735000FCCF31969093C60090819923B1F760914C
:10736000A50781E09AE070E04AE050E00E941E43E9
:107370008091C00085FFFCCF8AE08093C6004BC09F
:10738000EFE4F2E0949108C08091C00085FFFCCF4B
:107390009093C600319694919923B1F7E2E1F3E01E
:1073A000949108C08091C00085FFFCCF9093C600E7
:1073B000319694919923B1F72091E4073091E50734
:1073C00080E690E0289FF001299FF00D389FF00D96
:1073D0001124E051F84F07C08091C00085FFFCCF19
:1073E00031969093C60090819923B1F7E0E1F3E0E4
:1073F000949108C08091C00085FFFCCF9093C60097
:10740000319694919923B1F78091C00085FFFCCF0C
:107410008AE08093C6000E943A1B24C083EC94E06B
:107420000E94E2D30E94DE146093A8077093A9071C
:107430008093AA079093AB070E94DE146093BB076A
:107440007093BC078093BD079093BE07E4CF0E9462
:10745000836B88E50E94161F882311F00C94792E07
:107460000C947C2EEE960FB6F894DEBF0FBECDBF07
:10747000CF91DF911F910F91FF90EF90DF90CF9010
:10748000BF90AF909F908F907F906F905F904F9044
:107490003F902F9008952F923F924F925F926F925C
:1074A0007F928F929F92AF92BF92CF92DF92EF9294
:1074B000FF920F931F93DF93CF93CDB7DEB76E97F5
:1074C0000FB6F894DEBF0FBECDBF20E6A22EB12CC2
:1074D000E7EDF5E084909AE0792EEDE4F6E0949003
:1074E0006624639413C22D3071F02A3321F4809105
:1074F0007109882341F080917209909173098F3549
:1075000091050CF4DFC1E0917209F0917309309795
:1075100009F404C3A0917409B0917509AA9D700182
:10752000AB9DF00CBA9DF00C1124EE0DFF1DE05147
:10753000F84F108280917109882309F0BEC1109222
:107540007109AA51B84F1C9287010051184FC80108
:107550006EE470E00E94C6119C01009709F4F7C028
:107560009093EF078093EE072F5F3F4F201B310B67
:107570002E0D3F1DC9018051984F60E070E04AE038
:1075800050E00E942E1060937609709377098093E3
:10759000780990937909C090B307D090B407E09030
:1075A000B507F090B607A70196012F5F3F4F4F4FE9
:1075B0005F4F621773078407950709F457C38091DB
:1075C0007409909175099C012A9DC0012B9D900D15
:1075D0003A9D900D11248051984F66EF76E00E94FD
:1075E0008B11892B09F042C3E5E5F2E0949108C0C4
:1075F0008091C00085FFFCCF9093C6003196949196
:107600009923B1F7E3ECF6E0949108C08091C000B3
:1076100085FFFCCF9093C600319694919923B1F7E2
:1076200081E09AE0B701A6012AE030E00E94E94239
:107630008091C00085FFFCCF73C0FE264F5FFC0128
:10764000E40FF11DE051F84FE081EA32B1F73093D9
:10765000EF072093EE07C901019660E070E00E94F9
:10766000CE0E0E9490E02F2D30E02617370709F448
:107670005DC0E5E5F2E0949108C08091C00085FF0F
:10768000FCCF9093C600319694919923B1F7E4EA28
:10769000F6E0949108C08091C00085FFFCCF9093E4
:1076A000C600319694919923B1F74091B307509158
:1076B000B4076091B5077091B60781E09AE02AE0BF
:1076C00030E00E94E9428091C00085FFFCCF28C0D5
:1076D000E5E5F2E0949108C08091C00085FFFCCF01
:1076E0009093C600319694919923B1F7EAE7F6E0BA
:1076F000949108C08091C00085FFFCCF9093C60094
:10770000319694919923B1F781E09AE0B701A601EF
:107710002AE030E00E94E9428091C00085FFFCCF62
:107720008AE08093C6000E94591D4AC08091760964
:1077300090917709A0917809B09179098093B30766
:107740009093B407A093B507B093B6073EC0C801A5
:107750006AE270E00E94C611009709F436C0E5E5C0
:10776000F2E0949108C08091C00085FFFCCF909317
:10777000C600319694919923B1F7E0E5F6E0949133
:1077800008C08091C00085FFFCCF9093C600319661
:1077900094919923B1F74091B3075091B407609148
:1077A000B5077091B60781E09AE02AE030E00E94C8
:1077B000E9428091C00085FFFCCF8AE08093C6003B
:1077C000109273091092720970C28091740990919D
:1077D00075098A9D70018B9DF00C9A9DF00C112407
:1077E00087010051184FC80167E470E00E94C6117C
:1077F0009C01009709F44BC09093EF078093EE072C
:107800002F5F3F4F201B310B2E0D3F1DC9018051B3
:10781000984F60E070E00E94CE0E0E9490E06430CD
:107820007105A8F58091B0078823C9F48091D3042D
:10783000882369F5992DEDE4F6E008C08091C00039
:1078400085FFFCCF9093C600319694919923B1F7B0
:107850008091C00085FFFCCF7092C60018C0982DA3
:10786000E7EDF5E008C08091C00085FFFCCF909364
:10787000C600319694919923B1F78091C00085FF9D
:10788000FCCF7092C6008DEC95E00E94E2D380910F
:10789000740990917509019664E070E00E9406E415
:1078A000909375098093740980917A0990917B096E
:1078B000019690937B0980937A0910927309109234
:1078C000720924C02B3311F46092710980917109FF
:1078D0008823E1F420917209309173098091740931
:1078E000909175098A9DF0018B9DF00D9A9DF00D88
:1078F0001124E20FF31FE051F84F8091700980834B
:107900002F5F3F4F30937309209372098091FD09D7
:107910009091FE092091FF093091000A821B930B80
:107920008F779070892B09F4BBC180917A0990916F
:107930007B0904970CF0B4C181E09AE00E940A42EE
:10794000282F809370098A3009F0CDCDDCCD80914D
:10795000720990917309892B09F0A7C180917A0966
:1079600090917B09892B09F02FC110927C092CC1C1
:107970004D3099F0433211F04A3321F4809171096E
:10798000882359F080917209909173098F35910580
:1079900024F42F5F3F4F09F0F2C020915607309139
:1079A0005707409158075091590780914E07909181
:1079B0004F07A0915007B0915107281739074A0780
:1079C0005B0708F49EC0932DEAEBF5E008C08091B8
:1079D000C00085FFFCCF9093C60031969491992307
:1079E000B1F78091C00085FFFCCF2092C6000E94B5
:1079F000DE146093AC077093AD078093AE0790934D
:107A0000AF072091A8073091A9074091AA0750918C
:107A1000AB07621B730B840B950B28EE33E040E041
:107A200050E00E9419E4F22EE32ED42EC52EEDB7BD
:107A3000FEB738970FB6F894FEBF0FBEEDBF0DB777
:107A40001EB70F5F1F4FB282A182F801538242829C
:107A5000622F732F842F952F20E13EE040E050E00D
:107A60000E9419E4F801358324836F2D7E2D8D2D1E
:107A70009C2D2CE330E040E050E00E9419E4CA0164
:107A8000B9012CE330E040E050E00E9419E4F80135
:107A9000778366830E94F511982DEFE4F2E02DB70D
:107AA0003EB7285F3F4F0FB6F8943EBF0FBE2DBFC5
:107AB00008C08091C00085FFFCCF9093C60031962E
:107AC00094919923B1F7F50107C08091C00085FF1B
:107AD000FCCF31969093C60090819923B1F78091A5
:107AE000C00085FFFCCF2092C600C5010E9405D4CE
:107AF00083ED94E00E944C8883ED94E061E00E9465
:107B0000908980917009833211F490927C092091C0
:107B10007209309173092115310519F41092710918
:107B2000C4C08091740990917509869DF001879D6C
:107B3000F00D969DF00D1124E20FF31FE051F84F68
:107B40001082FC01EA51F84F908220917A0930911D
:107B50007B092F5F3F4F30937B0920937A09019671
:107B600064E070E00E9406E49093750980937409C4
:107B70001092710910927309109272093AC04B3336
:107B800011F49092710980917109882391F52091E7
:107B90007209309173098091740990917509869DDD
:107BA000F001879DF00D969DF00D1124E20FF31F5B
:107BB000E051F84F8091700980832F5F3F4F3093E1
:107BC00073092093720915C080E6682E712C9924E0
:107BD0009394EAEBF5E034900AE0202E5E010894DD
:107BE000A11CB11C16EA412E15E0512EEFE4F2E083
:107BF0008490209156073091570740915807509133
:107C0000590780914E0790914F07A0915007B0916E
:107C10005107281739074A075B0708F046C08091CB
:107C20007A0990917B0904970CF03FC080917C0900
:107C30008823D9F58091A9069091AA06A091AB0658
:107C4000B091AC068093560790935707A0935807BE
:107C5000B093590781EA96E00E94C34A9C01482FDD
:107C6000809370098A3009F083CE97CE8091740991
:107C7000909175098A9D80018B9D100D9A9D100D24
:107C80001124C8018051984F6AE270E00E94C61129
:107C90009C01009709F41CCDFF2440E0C801CFCC23
:107CA0008091D504882309F052CE6E960FB6F894D1
:107CB000DEBF0FBECDBFCF91DF911F910F91FF901F
:107CC000EF90DF90CF90BF90AF909F908F907F907C
:107CD0006F905F904F903F902F900895CF93DF93D8
:107CE00080917A0990917B09039714F40E944B3A92
:107CF00083ED94E060E00E94908980917A099091F0
:107D00007B09892B09F46AC08091D304882309F484
:107D10004DC02091E4073091E50780E690E0289F70
:107D2000E001299FD00D389FD00D1124C051D84FAC
:107D3000CE0160E177E00E948B11892BE1F483EDA5
:107D400094E0BE010E9439828091D404882371F5A9
:107D5000EDE0F7E0949108C08091C00085FFFCCF72
:107D60009093C600319694919923B1F78091C00009
:107D700085FFFCCF17C083ED94E060E00E94208275
:107D8000EBEFF6E0949108C08091C00085FFFCCF36
:107D90009093C600319694919923B1F78091C000D9
:107DA00085FFFCCF8AE08093C60002C00E94C120FC
:107DB00080917A0990917B09019790937B09809338
:107DC0007A098091E4079091E507019664E070E0FC
:107DD0000E9406E49093E5078093E4070E94C97926
:107DE0000E946E1B0E94DE720E9414D4DF91CF911C
:107DF0000895DF93CF930F920F92CDB7DEB7809A9D
:107E0000889A81E09AE040E052EC61E070E00E94E4
:107E1000D241E6EEF7E0949108C08091C00085FF62
:107E2000FCCF9093C600319694919923B1F780913D
:107E3000C00085FFFCCF8AE08093C6004FE452E08B
:107E4000FA01949108C08091C00085FFFCCF909307
:107E5000C600319694919923B1F784B7282F80FFFB
:107E600015C0EEEDF7E0949108C08091C00085FF49
:107E7000FCCF9093C600319694919923B1F78091ED
:107E8000C00085FFFCCF8AE08093C60021FF15C0AB
:107E9000EEECF7E0949108C08091C00085FFFCCF24
:107EA0009093C600319694919923B1F78091C000C8
:107EB00085FFFCCF8AE08093C60022FF15C0EDEB62
:107EC000F7E0949108C08091C00085FFFCCF9093AB
:107ED000C600319694919923B1F78091C00085FF37
:107EE000FCCF8AE08093C60023FF15C0EDEAF7E0DF
:107EF000949108C08091C00085FFFCCF9093C6008C
:107F0000319694919923B1F78091C00085FFFCCF01
:107F10008AE08093C60025FF15C0EDE9F7E0949153
:107F200008C08091C00085FFFCCF9093C6003196B9
:107F300094919923B1F78091C00085FFFCCF8AE02E
:107F40008093C60014BEE6E9F7E0949108C08091E2
:107F5000C00085FFFCCF9093C60031969491992381
:107F6000B1F7E0E9F7E0949108C08091C00085FF87
:107F7000FCCF9093C600319694919923B1F78091EC
:107F8000C00085FFFCCF8AE08093C600FA0194917F
:107F9000EFE4F2E008C08091C00085FFFCCF909331
:107FA000C600319694919923B1F7E0E8F7E09491F7
:107FB00008C08091C00085FFFCCF9093C600319629
:107FC00094919923B1F7EBE6F7E0949108C0809182
:107FD000C00085FFFCCF9093C60031969491992301
:107FE000B1F7EFE5F7E0949108C08091C00085FFFC
:107FF000FCCF9093C600319694919923B1F7E1E5B7
:10800000F7E0949108C08091C00085FFFCCF909369
:10801000C600319694919923B1F78091C00085FFF5
:10802000FCCF8AE08093C600E6E4F7E0949108C0B4
:108030008091C00085FFFCCF9093C600319694914B
:108040009923B1F7EAE3F7E0949108C08091C0006A
:1080500085FFFCCF9093C600319694919923B1F798
:108060008091C00085FFFCCF8AE08093C600FA01B2
:108070009491EFE4F2E008C08091C00085FFFCCF4E
:108080009093C600319694919923B1F7EBE2F7E013
:10809000949108C08091C00085FFFCCF9093C600EA
:1080A000319694919923B1F72091C2123091C31265
:1080B000CE0101962115310519F4885C924102C068
:1080C000821B930B9A83898369817A8181E09AE08C
:1080D0004AE050E00E941E43E4E1F7E0949108C0BA
:1080E0008091C00085FFFCCF9093C600319694919B
:1080F0009923B1F781E09AE060ED74E04AE050E046
:108100000E941E438091C00085FFFCCF8AE08093CF
:10811000C6001092E6071092E7071092E807109247
:10812000E9070E947F950E947D780E941B5B0E9458
:108130005C970E94796A0E94EAD480E197E220E984
:1081400031E0F9013197F1F70197D9F70F900F90CE
:10815000CF91DF910895BC0180917A0990917B09BC
:1081600004970CF070C0209174093091750980E675
:1081700090E0AC01249FC001259F900D349F900D8D
:1081800011248051984F0E945D11EFE4F2E0949128
:1081900008C08091C00085FFFCCF9093C600319647
:1081A00094919923B1F7EEEEF7E0949108C0809195
:1081B000C00085FFFCCF9093C6003196949199231F
:1081C000B1F7209174093091750980E690E0289FFD
:1081D000F001299FF00D389FF00D1124E051F84F68
:1081E00007C08091C00085FFFCCF31969093C600F8
:1081F00090819923B1F7ECEEF7E0949108C080915B
:10820000C00085FFFCCF9093C600319694919923CE
:10821000B1F78091C00085FFFCCF8AE08093C60053
:10822000C901019664E070E00E9406E4909375092C
:108230008093740980917A0990917B0901969093BB
:108240007B0980937A090895BC0180917A09909105
:108250007B0904970CF070C0209174093091750966
:1082600080E690E0AC01249FC001259F900D349FD3
:10827000900D11248051984F0E94D111EFE4F2E04B
:10828000949108C08091C00085FFFCCF9093C600F8
:10829000319694919923B1F7EBEFF7E0949108C0F0
:1082A0008091C00085FFFCCF9093C60031969491D9
:1082B0009923B1F7209174093091750980E690E017
:1082C000289FF001299FF00D389FF00D1124E051F7
:1082D000F84F07C08091C00085FFFCCF3196909386
:1082E000C60090819923B1F7E9EFF7E0949108C0B7
:1082F0008091C00085FFFCCF9093C6003196949189
:108300009923B1F78091C00085FFFCCF8AE080936C
:10831000C600C901019664E070E00E9406E49093F3
:1083200075098093740980917A0990917B0901966F
:1083300090937B0980937A0908951F920F920FB64C
:108340000F920BB60F9211242F933F934F938F935D
:108350009F93EF93FF934091C600E091FD09F09148
:10836000FE0931969F012F77307031978091FF0978
:108370009091000A2817390739F0E358F64F4083E7
:108380003093FE092093FD09FF91EF919F918F910A
:108390004F913F912F910F900BBE0F900FBE0F90FA
:1083A0001F9018959A01AB01203081EE380780E0CC
:1083B000480780E0580749F182E08093C00060E000
:1083C00079E08DE390E00E943BE421503040404052
:1083D0005040CA01B90122E030E040E050E00E9484
:1083E0003BE43093C5002093C4008091C1008061BC
:1083F0008093C1008091C10088608093C10080910A
:10840000C10080688093C10008951092C00020E1EF
:1084100030E0E7CF2091FF093091000A8091FD09FB
:108420009091FE098217930719F42FEF3FEF0EC0CA
:10843000F901E358F64F80812F5F3F4F2F7730705F
:108440003093000A2093FF09282F30E0C9010895D6
:108450008091FF099091000A9093FE098093FD0995
:10846000089508952F923F924F925F926F927F925C
:108470008F929F92AF92BF92CF92DF92EF92FF9234
:108480000F931F93DF93CF93CDB7DEB7A0970FB6AF
:10849000F894DEBF0FBECDBF1C016A017B01411500
:1084A00051056105710549F440E350E060E070E07A
:1084B00020E030E00E94E94254C08824992454010D
:1084C000422E55246624772401E010E00C0F1D1F76
:1084D000080D191DC701B601A30192010E9419E4FC
:1084E000F80160830894811C911CA11CB11CC70178
:1084F000B601A30192010E9419E4C901DA016C01DD
:108500007D01C114D104E104F104F1F681E0E82E0B
:10851000F12CEC0EFD1EE80CF91C3E010894611CC8
:10852000711CD501C4010197A109B1096C01C818DA
:10853000D90814C0F601EE0DFF1D40814A3010F439
:10854000405D01C0495C50E060E070E0C10120E0A6
:1085500030E00E94E9420894E108F1086E147F04BB
:1085600049F7A0960FB6F894DEBF0FBECDBFCF91EE
:10857000DF911F910F91FF90EF90DF90CF90BF9010
:10858000AF909F908F907F906F905F904F903F90B3
:108590002F9008952115310539F48091C00085FF91
:1085A000FCCF4093C60008950E9432420895EF9296
:1085B000FF920F931F939A01E62EFF2400E010E034
:1085C000B801A7010E94CA421F910F91FF90EF903E
:1085D0000895EF92FF920F931F93CF93DF93EC01D7
:1085E0007A018B012115310539F48091C00085FF96
:1085F000FCCFE092C6001BC02A303105B1F477FFF2
:1086000010C04DE250E060E070E020E030E00E94F9
:10861000E94210950095F094E094E11CF11C011DD5
:10862000111DCE01B801A7012AE00E943242DF915C
:10863000CF911F910F91FF90EF900895EF92FF92CD
:108640000F931F937B019A010027F7FC0095102FD1
:10865000B801A7010E94E9421F910F91FF90EF908E
:1086600008950F931F938C014DE050E060E070E09F
:1086700020E030E00E94E942C8014AE050E060E0BA
:1086800070E020E030E00E94E9421F910F910895D0
:10869000CF92DF92EF92FF920F931F938C019A017A
:1086A0006B01EE24FF24B701A6010E94CA42C80153
:1086B0000E9431431F910F91FF90EF90DF90CF9078
:1086C00008959F92AF92BF92CF92DF92EF92FF9266
:1086D0000F931F93CF93DF93EC017A018B01922EBE
:1086E000CB01BA0120E030E040E050E00E9421E000
:1086F00088236CF4CE014DE250E060E070E020E0B1
:1087000030E00E94E94217FB109517F9109520E020
:1087100030E040E05FE3AA240BC0CA01B90120E0C9
:1087200030E040E251E40E9428E09B01AC01A394B8
:10873000A91498F3C801B7010E9448DF7B018C019E
:108740000E9495E05B016C010E94C1E09B01AC01BD
:10875000C801B7010E9447DF7B018C01CE01B60141
:10876000A5012AE030E00E94CA429920A1F1E1EF80
:10877000F2E007C08091C00085FFFCCF3196909356
:10878000C60090819923B1F726C0C801B70120E047
:1087900030E040E251E40E9401E37B018C010E9441
:1087A00090E05B016C01CC24B7FCC094DC2CCE01C2
:1087B000B601A5012AE030E00E94E942C601B501F8
:1087C0000E94C3E09B01AC01C801B7010E9447DFD2
:1087D0007B018C019A949920C1F6DF91CF911F9172
:1087E0000F91FF90EF90DF90CF90BF90AF909F9050
:1087F00008950E9461430895FF920F931F93CF93B2
:10880000DF938B010E94DE14EB01FF24FA9409C070
:108810000E94DE146C1B7D0B6017710710F080E066
:1088200008C0FEBC0DB407FEFDCF8EB58F3F81F7AB
:1088300081E0DF91CF911F910F91FF900895FC018E
:108840004281242F30E0C9019595879580658CBDC4
:1088500040FF02C080E004C080E0463009F081E0C3
:108860008DBD808160E00E9444170895DF92EF92F1
:10887000FF920F931F93CF93DF93EC01D62E7901D4
:108880008A010E941F44CE016CE271E00E94FC4309
:108890008D2D80648EBD0DB407FEFDCF28E130E044
:1088A000D801C701022E04C0B695A7959795879564
:1088B0000A94D2F78EBD0DB407FEFDCF285030408C
:1088C0008FEF283F380761F7DD2011F485E906C0F6
:1088D00088E0D81611F487E801C08FEF8EBD0DB483
:1088E00007FEFDCF8CE0D81631F48FEF8EBD0DB4AE
:1088F00007FEFDCF8EB59FEF2FEF2EBD0DB407FE07
:10890000FDCF8EB587FF04C0992311F09150F5CFAC
:108910008B83DF91CF911F910F91FF90EF90DF90AC
:108920000895FC01808161E00E9444170895DC01F4
:108930006EBDFA0120E030E00DB407FEFDCF80816E
:108940008EBD0DB407FEFDCF81818EBD2E5F3F4FE2
:10895000329682E02030380779F70DB407FEFDCF5C
:108960008FEF8EBD0DB407FEFDCF8FEF8EBD0DB422
:1089700007FEFDCF8FEF8EBD0DB407FEFDCF8EB588
:1089800013968C9313978F71853011F481E00895BD
:1089900083E111968C931197CD010E94914480E060
:1089A0000895CF92DF92EF92FF920F931F93CF9390
:1089B000DF93EC017A018B0169018C81833039F0FE
:1089C00059E0EE0CFF1C001F111F5A95D1F7CE0184
:1089D00068E1A80197010E943644882311F086E0DF
:1089E00023C0CE016EEFA6010E9497448823E9F0D0
:1089F000CE0168E572E00E94FC43882311F487E110
:108A000013C0CE016DE020E030E040E050E00E9475
:108A10003644882341F48FEF8EBD0DB407FEFDCFA1
:108A20008EB5882379F086E18983CE010E94914436
:108A300080E0DF91CF911F910F91FF90EF90DF9039
:108A4000CF900895CE010E94914481E0F2CFBF9271
:108A5000CF92DF92EF92FF920F931F93CF93DF930A
:108A6000EC016B017A010E94DE148B01BB24BA94E5
:108A700009C00E94DE14601B710B6D52714010F032
:108A800081E10BC0BEBC0DB407FEFDCF8EB58B835C
:108A90008F3F79F38E3F39F08FE08983CE010E94BA
:108AA000914480E02FC0D7011197EF28D9F08FEFC4
:108AB0008EBD20E030E09FEF0BC00DB407FEFDCF70
:108AC0008EB5F601E20FF31F80839EBD2F5F3F4FEF
:108AD0002A173B0790F30DB407FEFDCF8EB5AC0D02
:108AE000BD1D8C938FEF8EBD0DB407FEFDCF8EB5EF
:108AF0008FEF8EBD0DB407FEFDCF8EB5CE010E9467
:108B0000914481E0DF91CF911F910F91FF90EF9001
:108B1000DF90CF90BF900895CF92DF92EF92FF92B7
:108B20000F931F93CF93DF93EC017A018B016901BF
:108B30008C81833039F0A9E0EE0CFF1C001F111F5F
:108B4000AA95D1F7CE0161E1A80197010E943644B0
:108B5000882339F084E08983CE010E94914480E02B
:108B600006C0CE01B60140E052E00E942745DF91E9
:108B7000CF911F910F91FF90EF90DF90CF900895CC
:108B8000BF92CF92DF92EF92FF920F931F93CF93FA
:108B9000DF93EC01B62E1C82198248830E94DE14FA
:108BA0006B01888161E00E949116CE010E94914480
:108BB00082E360E00E94911683E361E00E949116D7
:108BC00084E361E00E94911685E361E00E949116C2
:108BD00085E361E00E94441785E08A8382E58CBDCD
:108BE0001DBC80E09FEF9EBD0DB407FEFDCF8F5FE3
:108BF0008A30C9F709C00E94DE146C197D09615DD5
:108C0000774010F081E05EC0CE0160E020E030E00F
:108C100040E050E00E943644182F8B83813059F792
:108C2000CE0168E02AEA31E040E050E00E9436449C
:108C300082FF02C01C8311C080E02FEF2EBD0DB457
:108C400007FEFDCF9EB58F5F8430C1F79B839A3AB4
:108C500011F082E037C082E08C838C81823021F079
:108C6000EE24FF2487010FC0E12CF12C012D00E43C
:108C7000102F09C00E94DE146C197D09615D7740D8
:108C800010F08AE01FC0CE0167E320E030E040E052
:108C900050E00E943644CE0169E2A80197010E948B
:108CA00036448B83882331F78C81823029F5CE01BD
:108CB0006AE320E030E040E050E00E943644882340
:108CC00031F088E08983CE010E94914421C08FEF6A
:108CD0008EBD0DB407FEFDCF8EB5807C803C11F4B7
:108CE00083E08C8380E09FEF9EBD0DB407FEFDCF37
:108CF0002EB58F5F8330C1F7CE010E94914486E08C
:108D00008B1518F488E1898303C0BA8281E001C021
:108D100080E0DF91CF911F910F91FF90EF90DF9056
:108D2000CF90BF900895CF93DF93EB01DC0190E0EB
:108D300020E03EE28C91803269F0283029F4FE0177
:108D4000E90FF11D30839F5FFE01E90FF11D8C914A
:108D500080839F5F2F5F11962B3061F7C90FD11D64
:108D60001882DF91CF910895CF93DF93DC01EB015F
:108D7000BA0180E090E020E2FE01E80FF91F2083B5
:108D800001968B309105C1F757E040E022C02E32AA
:108D900019F086E098E007C05A3049F15AE048E0FF
:108DA00017C0321721F1FC01019634913323C9F722
:108DB0005417E8F02132D8F02F37C8F4822F8156AB
:108DC0008A3108F42052FE01E40FF11D20834F5F29
:108DD00011962C91222311F02F32C9F6FB01B18399
:108DE000A08390E08881803219F091E001C090E08A
:108DF000892FDF91CF9108956F927F928F929F92EA
:108E0000AF92BF92CF92DF92EF92FF920F931F9398
:108E1000CF93DF93EC017A018B012B81222309F49C
:108E200080C089899A89AB89BC8984179507A60770
:108E3000B70708F476C085C0E114F10401051105F7
:108E400051F41C821D821E821F82188619861A8682
:108E50001B8681E067C0288539854A855B85E98D59
:108E6000FA8D858590E00996215030404040504071
:108E700039014A01082E04C0969487947794679428
:108E80000A94D2F72F5F3F4F4F4F5F4F0894E1088E
:108E9000F108010911095701680104C0D694C7946B
:108EA000B794A7948A95D2F70894E11CF11C011D90
:108EB000111DA614B704C804D90428F021153105E2
:108EC0004105510549F48D899E89AF89B88D8C8300
:108ED0009D83AE83BF8316C0A618B708C808D908FB
:108EE00011C04C815D816E817F81898D9A8D940145
:108EF0000E94A8520894A108B108C108D10888238B
:108F000031F40FC084E0882E912C8C0E9D1EA1148C
:108F1000B104C104D10429F7E886F9860A871B87C2
:108F200098CF80E0DF91CF911F910F91FF90EF904C
:108F3000DF90CF90BF90AF909F908F907F906F9079
:108F40000895223009F078CFE7CFCF93DF93EC017B
:108F50008C859D85AE85BF8540E0611141E0BC01F7
:108F6000CD010E947E50882319F420E030E00AC031
:108F70008889282F30E095E0220F331F9A95E1F77A
:108F8000285F354FC901DF91CF9108950F931F934B
:108F9000CF93DF938C01FC0183818823F1F18181E0
:108FA00087FF38C0C80161E00E94A547EC01009727
:108FB000A1F18881853E89F1F8018381823040F4F6
:108FC00081899289A389B4898C8F9D8FAE8FBF8F41
:108FD000F801858996899B8F8A8F85899689A789CB
:108FE000B08DCD01AA27BB279D8B8C8BE091020A07
:108FF000F091030A309751F0BE016A5E7F4FCE01B7
:1090000048961995888D998D9B8B8A8BF801818163
:109010008F7781830E94435004C081E0F8018083F0
:1090200080E0DF91CF911F910F9108950F931F93CF
:109030008C010E94C647F80113821F910F91089579
:10904000FC018381882319F0CF010E9416480895FE
:10905000CF93DF93FC01EB018381882391F0825051
:10906000823020F48FE28883198209C0CF0160E04A
:109070000E94A547009729F0BE010E94934681E017
:1090800001C080E0DF91CF9108956F927F928F921F
:109090009F92AF92BF92CF92DF92EF92FF920F9387
:1090A0001F93DF93CF9300D00F92CDB7DEB77C0133
:1090B0005A016B01DC0113968C911397813009F0F2
:1090C00091C011968C9181FF8DC0A0C00097A10521
:1090D000B10511F481E087C0F70160847184828456
:1090E0009384C701B601A5010E94FC46882309F4B8
:1090F00079C0D70159968D919C915A97A114B104CA
:10910000C104D10489F455964D915D916D917C9186
:1091100058970E941E53882309F464C0F701158AEA
:10912000168A178A108E44C0D70114964D915D910E
:109130006D917C9117979E012F5F3F4F0E94A8521F
:10914000882309F44FC0D7015996ED91FC915A97A5
:1091500049815A816B817C818789803149F4483FFC
:10916000BFEF5B07B0E06B07B0E07B0748F020C0C3
:10917000483F8FEF58078FEF68078FE07807C0F4FC
:10918000CF010E941E53882369F1D70114964D9197
:109190005D916D917C91179759968D919C915A97FD
:1091A0000FEF1FEF2FEF3FE00E9421528823D1F0F5
:1091B000F701A18AB28AC38AD48A818180688183B7
:1091C000C7010E94C647882369F0B601A5016A1449
:1091D0007B048C049D0410F4B401A301C7010E9418
:1091E000FC4601C080E00F900F900F900F90CF9140
:1091F000DF911F910F91FF90EF90DF90CF90BF9084
:10920000AF909F908F907F906F900895F701818924
:109210009289A389B48984179507A607B70708F030
:1092200055CFE0CFCF93DF93EC0140E050E060E01A
:1092300070E00E944548882369F0CE0161E00E94F9
:10924000A547FC01009731F085EE80831B820E94C8
:10925000435001C080E0DF91CF9108952F923F925B
:109260004F925F926F927F928F929F92AF92BF9236
:10927000CF92DF92EF92FF920F931F93CF93DF93E2
:10928000EC012A018B81882309F4B6C0898180FF13
:10929000B3C0C8C025014E185F083B0174E0272EFB
:1092A000312C2C0E3D1E4201A1C0288539854A85EE
:1092B0005B856FEFA62E61E0B62EA222B3228B81D2
:1092C00079018A0199E016950795F794E7949A95A4
:1092D000D1F7E98DFA8D823049F4428D538D648D3A
:1092E000758D4E0D5F1D601F711F3FC0D480DA94D5
:1092F000DE20A114B104D9F4DD20C9F42115310513
:109300004105510549F48D899E89AF89B88D8C83BB
:109310009D83AE83BF830BC04C815D816E817F8155
:10932000CF0191010E94A852882309F465C0E98DFC
:10933000FA8D4C815D816E817F814250504060404A
:109340007040058404C0440F551F661F771F0A94A0
:10935000D2F786859785A089B189480F591F6A1F62
:109360007B1F4D0D511D611D711D80E092E08A191A
:109370009B0984018815990508F48C0182E000306E
:10938000180709F067C08091040A9091050AA0911E
:10939000060AB091070A481759076A077B0709F4BC
:1093A00059C08091080C9091090C93010E948C4542
:1093B000882349F421C09501285F354FC301B901C5
:1093C000A8010E94B211600E711E980140E050E0A9
:1093D00088859985AA85BB85820F931FA41FB51F19
:1093E00088879987AA87BB87801A910A811491047C
:1093F00009F05BCFA20102C04FEF5FEFCA01DF911E
:10940000CF911F910F91FF90EF90DF90CF90BF9081
:10941000AF909F908F907F906F905F904F903F9014
:109420002F900895A988BA88CB88DC88E884F984CD
:109430000A851B859A0140E050E0D601C5018E19CE
:109440009F09A00BB10B281739074A075B0708F0E3
:1094500021CF23CFCB01BA0140E00E947E50882368
:1094600009F0A9CFC9CFCF92DF92EF92FF920F936D
:109470001F93CF93DF937C01EB018A01FC01838171
:10948000823008F46FC080859185A285B3858F7185
:109490009070A070B0700097A105B10509F062C08E
:1094A0006DC0F8011082EDE0CE2ED12CC701BE01B7
:1094B00040E250E00E942E499C018032910521F04B
:1094C000009709F04FC050C04881442309F44CC0B4
:1094D000453E61F34E3251F38B858F738F30E9F542
:1094E00001151105D1F18A8D9B8D892BB1F5842F42
:1094F00090E08F719070009781F1833091056CF549
:109500008C9D90018D9D300D9C9D300D11242D5012
:109510003040F801E20FF31F898180838B818183C2
:109520008D8182838F818383898584838E858583E2
:10953000888986838A8987838C8980878E898187B9
:10954000888D82878C8D83878E8D8487888186FF26
:1095500004C0F801E20FF31F15868B8583FDA6CFAB
:10956000822F03C08FEF01C080E0DF91CF911F9168
:109570000F91FF90EF90DF90CF9008954115510526
:1095800009F08FCF90CFDF93CF930F92CDB7DEB797
:10959000BE016F5F7F4F41E050E00E942E4901976E
:1095A00019F02FEF3FEF03C08981282F30E0C90168
:1095B0000F90CF91DF910895EF92FF920F931F9339
:1095C000CF93DF93EC018B81823038F1E884F9840A
:1095D0000A851B85CE010E94C34A97FD1EC088855F
:1095E0009985AA85BB854F96A11DB11D888799874E
:1095F000AA87BB87A5E016950795F794E794AA95E7
:10960000D1F72E2D30E02F703070F5E0220F331F90
:10961000FA95E1F7285F354F02C020E030E0C9013C
:10962000DF91CF911F910F91FF90EF9008950F93CD
:109630001F93CF93DF93EC018B018B81882309F07B
:1096400040C0FB018789803109F041C082E08B83F3
:109650001D8A1E8A1F8A188E808D918DA0E0B0E031
:1096600045E0880F991FAA1FBB1F4A95D1F7898B28
:109670009A8BAB8BBC8B13C083E08B83F801428D3C
:10968000538D648D758D4D8B5E8B6F8B788F9E01A6
:109690002F5E3F4FC8010E947C53882391F01A8FA0
:1096A000098F81E089831C821D821E821F82188699
:1096B00019861A861B861C861D861E861F86188A9A
:1096C00001C080E0DF91CF911F910F91089580320A
:1096D000C1F7D2CF1F93CF93DF93EC01142F262F26
:1096E00030E0F90175E0EE0FFF1F7A95E1F7E85FD2
:1096F000F54F8385817121F0842F827109F069C053
:109700008091040A9091050AA091060AB091070A77
:109710008C879D87AE87BF87688BF90165E0EE0F68
:10972000FF1F6A95E1F7E85FF54F84899589A0E00E
:10973000B0E0DC01992788278D8B9E8BAF8BB88F8B
:10974000228D338DA90160E070E0482B592B6A2BE4
:109750007B2B4D8B5E8B6F8B788F838590E0887130
:109760009070009751F4848D958DA68DB78D898B5F
:109770009A8BAB8BBC8B81E00CC0409751F59E015E
:109780002F5E3F4F898D9A8D0E947C53882309F16B
:1097900084E08B83812F8F7089831C821D821E82BF
:1097A0001F82188619861A861B8614FF18C0CE01E0
:1097B00040E050E060E070E00E944548882379F482
:1097C0000AC049895A896B897C89CE010E94FC466E
:1097D00002C01B8280E0DF91CF911F91089515FD9B
:1097E000F0CF81E0F8CFCF93DF93EC019C012C5FA9
:1097F0003F4F898D9A8D41E050E060E070E00E941B
:10980000E8538823A1F08D899E89AF89B88D009790
:10981000A105B10559F48C819D81AE81BF818D8BED
:109820009E8BAF8BB88F89818068898381E0DF91BF
:10983000CF9108952F923F924F925F927F928F9295
:109840009F92AF92BF92CF92DF92EF92FF920F93CF
:109850001F93DF93CF9300D000D0CDB7DEB76C015C
:10986000162F072F5E834D83DC0113968C9113977F
:10987000813009F06FC111968C9181FF6BC188C155
:10988000F601418952896389748980859185A28511
:10989000B38584179507A607B70731F0C6010E9464
:1098A000FC46882309F456C1812F902F9C01190191
:1098B0004D805E8013C1D6015996ED91FC915A9767
:1098C000DA01C90149E0B695A795979587954A951C
:1098D000D1F774807A9478228FEF882E81E0982EC9
:1098E00082229322772009F053C08114910409F059
:1098F0004FC0D60114964D915D916D917C91179753
:10990000411551056105710581F455968D919D9123
:109910000D90BC91A02D0097A105B10561F1F60154
:1099200084839583A683B78333C0CF019E012F5FC5
:109930003F4F0E94A852882309F40CC129813A8123
:109940004B815C81D6015996ED91FC915A9787899C
:10995000803149F4283FBFEF3B07B0E04B07B0E050
:109960005B0778F008C0283FEFEF3E07EFEF4E07A8
:10997000EFE05E0730F0C6010E94F34B882341F40C
:10998000E9C0D60114962D933D934D935C931797A0
:1099900080E092E08819990952018415950508F430
:1099A0005C01D6015996ED91FC915A971496ED9071
:1099B000FD900D911C9117978EEF9FEFAFEFBFEFCA
:1099C000E80EF91E0A1F1B1F058404C0EE0CFF1CC5
:1099D000001F111F0A94D2F786859785A089B18947
:1099E000E80EF91E0A1F1B1FE70CF11C011D111DBB
:1099F00090E0A91692E0B90639F58091040A909199
:109A0000050AA091060AB091070A8E159F05A007C6
:109A1000B10771F410920A0C8FEF9FEFAFEFBFEF19
:109A20008093040A9093050AA093060AB093070A4C
:109A30008091080C9091090CB801A70191010E9436
:109A4000D1448823B9F586C08114910419F5D60153
:109A500018962D913D914D915C911B9751968D914A
:109A60009D910D90BC91A02D281739074A075B07DF
:109A700088F00E944350882309F46CC081E08093F1
:109A80000A0CE092040AF092050A0093060A109369
:109A9000070A08C0C801B70141E00E947E50882330
:109AA00009F458C09401285F354FC901B101A501DF
:109AB0000E94B211950140E050E0F6018085918549
:109AC000A285B385820F931FA41FB51F808791873E
:109AD000A287B3872A0C3B1C4A185B08D60118964C
:109AE0002D913D914D915C911B974114510409F0CA
:109AF000E2CE51968D919D910D90BC91A02D821733
:109B00009307A407B50748F4F601218B328B438BEA
:109B1000548B81818068818311C08091020A909169
:109B2000030A892B59F08D819E81892B39F0D6014A
:109B300011968C911197806811968C93F601818112
:109B400083FF05C0C6010E94C647882319F04D81D6
:109B50005E8105C081E0D6018C934FEF5FEFCA01B3
:109B600026960FB6F894DEBF0FBECDBFCF91DF9122
:109B70001F910F91FF90EF90DF90CF90BF90AF902B
:109B80009F908F907F905F904F903F902F9008957F
:109B900082FD76CE89CEDF92EF92FF920F931F93D4
:109BA000CF93DF93EC0189899A89AB89BC89805E68
:109BB0009F4FAF41B04008F071C0CE010E94F34BFF
:109BC000882309F46BC00E944350882309F466C0BF
:109BD000E98DFA8DEC80FD800E811F818EEF9FEF65
:109BE000AFEFBFEFE80EF91E0A1F1B1F058404C06C
:109BF000EE0CFF1C001F111F0A94D2F78685978573
:109C0000A089B189E80EF91E0A1F1B1F81E080930D
:109C10000A0CE092040AF092050A0093060A1093D7
:109C2000070A80E092E0E8E0FAE0DF019C011D9283
:109C300021503040E1F7DD24D39411C0B801A701D1
:109C40004D0D511D611D711D8091080C9091090CE5
:109C500028E03AE00E94D144882301F1D394E98DB1
:109C6000FA8D8481D81650F320E032E040E050E0D5
:109C7000058404C0220F331F441F551F0A94D2F7D6
:109C800089899A89AB89BC89820F931FA41FB51F4C
:109C9000898B9A8BAB8BBC8B81E001C080E0DF911C
:109CA000CF911F910F91FF90EF90DF9008958F92C9
:109CB0009F92AF92BF92CF92DF92EF92FF920F935B
:109CC0001F93CF93DF936C01EB01942E852EA22E70
:109CD000898D9A8DD6015A969C938E935997CB0174
:109CE00040E050E060E070E00E94FC46BB2438C0D9
:109CF000CE010E94DC4AFC01009709F493C055E0B4
:109D000016950795F794E7945A95D1F71E2D1F7075
:109D10008081882311F0853EC9F4BB2099F42091FD
:109D2000040A3091050A4091060A5091070AD601AB
:109D30001C962D933D934D935C931F9750961C93C7
:109D4000BB24B3948081882359F418C0892D982DA1
:109D5000BF014BE050E00E94A511009709F470C0CC
:109D6000E884F9840A851B8589899A89AB89BC892D
:109D7000E816F9060A071B0708F4BACFA6FE52C078
:109D8000A1FE50C0BB2051F0F6011089C60161E070
:109D90000E94A547EC01009769F444C08B81823092
:109DA00009F440C0CE010E94CB4D8823D9F110E0C8
:109DB000C8E0DAE080E2DE011D928A95E9F7DE0173
:109DC000292D382DC901FC018BE001900D928150A5
:109DD000E1F7E091020AF091030A309739F0BE01F1
:109DE000625F7F4FCE014096199508C081E298E2EC
:109DF000998B888B80E098E09F878E8788899989E6
:109E00009B8B8A8B998F888F8E859F859F8B8E8B5E
:109E10000E944350882331F0C601612F4A2D0E94D1
:109E20006A4B01C080E0DF91CF911F910F91FF90AD
:109E3000EF90DF90CF90BF90AF909F908F9008955C
:109E4000A7FEEACFEFCF2F923F924F925F926F9291
:109E50007F928F929F92AF92BF92CF92DF92EF92BA
:109E6000FF920F931F93DF93CF93CDB7DEB7C65406
:109E7000D0400FB6F894DEBF0FBECDBF3C016B01E2
:109E8000DE01AE5BBF4F11965C934E9325962FAFCC
:109E900025971C861F861FA21AA66115710509F455
:109EA00080C0FC018381882309F07BC0FA01808196
:109EB0008F32F1F08601ECE0EE2EF12CEC0EFD1E5F
:109EC00072E4A72EB12CAC0EBD1E4E010894811C6D
:109ED000911C2796FFAEEEAE279767E2262E312C17
:109EE0002C0E3D1E270124C01196B183A08301C012
:109EF000FD01A081B1818C918F32B1F3D60113960F
:109F00008C91139782508230A8F28E01095D1F4F09
:109F100059966D917C915A97C8010E94174B8823DE
:109F200051F63FC0342D252D8701832F922F7C01C0
:109F3000F50180819181B401A5010E94B446882376
:109F400029F42FC03196D501ED93FC93D501ED9105
:109F5000FC9180818F32B1F38823C9F0C701B80129
:109F6000A40121E00E94574E8823D9F00C151D054D
:109F700019F0C8010E9416482796EEADFFAD27974D
:109F8000EE16FF0679F6C101322D292FCDCFC30180
:109F9000B801A40125962FAD25970E94574E182F82
:109FA00001C010E0CE0187960E942048CE010C9699
:109FB0000E942048812FCA5BDF4F0FB6F894DEBFA6
:109FC0000FBECDBFCF91DF911F910F91FF90EF900A
:109FD000DF90CF90BF90AF909F908F907F906F90C9
:109FE0005F904F903F902F9008950F931F93DF93B2
:109FF000CF93CDB7DEB76B970FB6F894DEBF0FBE29
:10A00000CDBF9C01AB0119821C828E010F5F1F4FD7
:10A01000C801B90122E00E94234F882311F410E007
:10A0200004C0C8010E941249182FCE0101960E9457
:10A030002048812F6B960FB6F894DEBF0FBECDBFC0
:10A04000CF91DF911F910F910895DB010D900020BA
:10A05000E9F71197A61BB70B0496AD010E941A4CA5
:10A060000895DF93CF930F92CDB7DEB7698304963F
:10A07000BE016F5F7F4F41E050E00E941A4C0F908D
:10A08000CF91DF91089580910A0C882399F1409136
:10A09000040A5091050A6091060A7091070A80919E
:10A0A000080C9091090C28E03AE00E94D1448823E2
:10A0B00019F140910B0C50910C0C60910D0C7091AA
:10A0C0000E0C411551056105710591F08091080C48
:10A0D0009091090C28E03AE00E94D144882361F075
:10A0E00010920B0C10920C0C10920D0C10920E0C86
:10A0F00010920A0C81E0089580E00895DF92EF92BB
:10A10000FF920F931F937B018C01D42E8091040A40
:10A110009091050AA091060AB091070A8E159F0535
:10A12000A007B107C1F00E9443508823E1F080915D
:10A13000080C9091090CB801A70128E03AE00E94B0
:10A140008C45882381F0E092040AF092050A00937E
:10A15000060A1093070ADD2011F481E005C081E0B2
:10A1600080930A0C01C080E01F910F91FF90EF9047
:10A17000DF9008958F929F92AF92BF92CF92DF921D
:10A18000EF92FF920F931F93CF93DF936C01142FE5
:10A190007093090C6093080CFC01178A82E090E030
:10A1A000A0E0B0E080839183A283B38310920A0C75
:10A1B00010920B0C10920C0C10920D0C10920E0CB5
:10A1C0008FEF9FEFAFEFBFEF8093040A9093050AE4
:10A1D000A093060AB093070A442321F48824992403
:10A1E000540140C0453008F01EC160E070E080E0DE
:10A1F00090E040E00E947E50882309F414C1C12FF2
:10A20000D0E02197FE0174E0EE0FFF1F7A95E1F791
:10A21000E85FF54FE254FE4F8081EE5BF14090E045
:10A220008F779070892B09F0FEC0E653FE4F808136
:10A230009181A281B38184369105A105B10508F40D
:10A24000F2C064E0CC0FDD1F6A95E1F7C253D44F32
:10A2500088809980AA80BB8081149104A104B104F4
:10A2600009F4E1C0C501B40140E00E947E5088239A
:10A2700009F4D9C08091130A9091140A8050924039
:10A2800009F0D1C02091180A222309F4CCC0809192
:10A29000160A9091170A892B09F4C5C08091150AF6
:10A2A000882309F4C0C0F601228B8091150A8483AB
:10A2B000158661E070E007C04F5FF60145874150A9
:10A2C000483008F0B0C0F6014585848190E09B01DC
:10A2D000042E02C0220F331F0A94E2F7821793075D
:10A2E00059F720911E0A30911F0A2115310519F0E6
:10A2F00040E050E008C020912C0A30912D0A409196
:10A300002E0A50912F0AF601258336834783508702
:10A31000E090160AF090170A00E010E0E80CF91C33
:10A320000A1D1B1DE38AF48A058B168B8091190A7E
:10A3300090911A0A918F808F6091180A70E080E0E6
:10A3400090E00E94D3E36E0D7F1D801F911FF601E8
:10A35000628F738F848F958F2091190A30911A0A1A
:10A3600055E0220F331F5A95E1F721503E4F232F1E
:10A370003327269540E050E0260F371F481F591F0E
:10A3800026873787408B518B80911B0A90911C0A3E
:10A39000009719F0A0E0B0E008C08091280A9091E1
:10A3A000290AA0912A0AB0912B0A85017401E21AA8
:10A3B000F30A040B150BA8019701280F391F4A1F38
:10A3C0005B1FF601058404C0569547953795279580
:10A3D0000A94D2F72187328743875487253FFFE0CD
:10A3E0003F07F0E04F07F0E05F0720F48CE0F60154
:10A3F000878B19C0255F3F4F4040504018F480E1E3
:10A40000F6010EC08091340A9091350AA091360A67
:10A41000B091370AF601828F938FA48FB58F80E2B7
:10A42000878B81E001C080E0DF91CF911F910F9178
:10A43000FF90EF90DF90CF90BF90AF909F908F9064
:10A4400008956F927F928F929F92AF92BF92CF9218
:10A45000DF92EF92FF920F931F93CF93DF93EC0164
:10A460005A016B01380149014230510561057105FE
:10A4700008F45EC089859A85AB85BC850196A11DCF
:10A48000B11D84179507A607B70708F451C08F8937
:10A49000803129F4E52EF62E072F11270CC08032CB
:10A4A00009F046C07A018B0187E016950795F7946D
:10A4B000E7948A95D1F78B899C89AD89BE89E80E8E
:10A4C000F91E0A1F1B1FC801B70141E00E947E5000
:10A4D000882371F18F89803149F4F501F070EE0F16
:10A4E000FF1FE85FF54F718260820DC0F501EF77C5
:10A4F000F070EE0FFF1FEE0FFF1FE85FF54F608259
:10A500007182828293828A89823080F08D819E81DD
:10A51000AF81B885E80EF91E0A1F1B1FE0920B0CD5
:10A52000F0920C0C00930D0C10930E0C81E001C006
:10A5300080E0DF91CF911F910F91FF90EF90DF901E
:10A54000CF90BF90AF909F908F907F906F90089525
:10A55000CF92DF92EF92FF920F931F93CF93DF93EF
:10A56000EC017A018B01690189859A85AB85BC85EF
:10A570000196A11DB11D84179507A607B70708F41A
:10A5800053C08F89803129F45527412F302F2F2D2B
:10A590000CC0803209F048C09A01AB0167E05695C3
:10A5A0004795379527956A95D1F78B899C89AD8911
:10A5B000BE89280F391F4A1F5B1F8091040A9091A2
:10A5C000050AA091060AB091070A281739074A0719
:10A5D0005B0739F0CA01B90140E00E947E50882330
:10A5E00019F18F89803159F4F701F070EE0FFF1FD8
:10A5F000E85FF54F80819181A0E0B0E00EC0F701E7
:10A60000EF77F070EE0FFF1FEE0FFF1FE85FF54FC3
:10A6100080819181A281B381BF70F6018083918393
:10A62000A283B38381E001C080E0DF91CF911F91CD
:10A630000F91FF90EF90DF90CF900895AF92BF926F
:10A64000CF92DF92EF92FF920F931F93DF93CF93FE
:10A6500000D00F92CDB7DEB76C017A018B0182E09A
:10A6600090E0A0E0B0E0F60180839183A283B38301
:10A670005E010894A11CB11CC601B801A701950197
:10A680000E94A852882341F1C601B801A70100E049
:10A6900010E020E030E00E9421528823E9F0E980B8
:10A6A000FA800B811C81F6018789803151F4F8EF23
:10A6B000EF16FFEFFF06F0E00F07F0E01F07E0F2F4
:10A6C00009C088EFE8168FEFF8068FEF08078FE0D4
:10A6D000180790F281E001C080E00F900F900F907A
:10A6E0000F90CF91DF911F910F91FF90EF90DF902E
:10A6F000CF90BF90AF9008954F925F926F927F92EC
:10A700008F929F92AF92BF92CF92DF92EF92FF9281
:10A710000F931F93DF93CF9300D00F92CDB7DEB787
:10A720006C0149835A836B837C833901EE24FF24B7
:10A7300087012E010894411C511C812CE2E09E2EC1
:10A74000A12CB12C49815A816B817C81C601920177
:10A750000E94A852882339F1D501C401F60105846D
:10A7600004C0880F991FAA1FBB1F0A94D2F7E80ED6
:10A77000F91E0A1F1B1F29813A814B815C81878941
:10A78000803131F4285F3F4F40405040D8F205C03F
:10A79000285F3F4F4F4F5F40A8F2F301E082F18204
:10A7A0000283138381E00F900F900F900F90CF9151
:10A7B000DF911F910F91FF90EF90DF90CF90BF90AE
:10A7C000AF909F908F907F906F905F904F90089583
:10A7D0002F923F924F925F926F927F928F929F92B1
:10A7E000AF92BF92CF92DF92EF92FF920F931F939F
:10A7F000DF93CF93CDB7DEB72F970FB6F894DEBFB8
:10A800000FBECDBF1C014A875B876C877D873F8762
:10A810002E87DC0119968D919D910D90BC91A02DF4
:10A820000196A11DB11D8E839F83A887B987F90169
:10A830000081118122813381011511052105310526
:10A8400049F0480159010894811C911CA11CB11CBC
:10A850001D8210C0D1018D909D90AD90BC901D8245
:10A860008A859B85AC85BD850197A105B10511F44D
:10A8700091E09D83750164014424552432018E01C9
:10A880000F5F1F4FF10181859285A385B48548161E
:10A8900059066A067B0608F090C08E819F81A885C4
:10A8A000B9858C159D05AE05BF0550F4A2E08A2E32
:10A8B000912CA12CB12CF2E0CF2ED12CE12CF12C3B
:10A8C000C101B701A60198010E94A852882309F48A
:10A8D00074C089819A81AB81BC81A70196012F5FE9
:10A8E0003F4F4F4F5F4F0097A105B10519F0490148
:10A8F0005A010DC0281939094A095B098A859B85C7
:10A90000AC85BD85281739074A075B0759F00894BD
:10A91000411C511C611C711C0894C11CD11CE11C00
:10A92000F11CB0CFC101A601B7010FEF1FEF2FEF50
:10A930003FE00E942152882399F43FC0260137014D
:10A9400008944108510861087108C101B301A201CE
:10A95000970186010E942152882379F173016201D7
:10A960008C149D04AE04BF0448F3AE85BF854D91A1
:10A970005D916D917C91411551056105710539F02D
:10A98000C101950184010E9421528823B1F0EE8516
:10A99000FF8580829182A282B382FD81FF2359F0DC
:10A9A0000894811C911CA11CB11CD1018D929D9217
:10A9B000AD92BC92139781E001C080E02F960FB654
:10A9C000F894DEBF0FBECDBFCF91DF911F910F91E5
:10A9D000FF90EF90DF90CF90BF90AF909F908F90BF
:10A9E0007F906F905F904F903F902F9008952F929F
:10A9F0003F924F925F926F927F928F929F92AF920F
:10AA0000BF92CF92DF92EF92FF920F931F93DF934B
:10AA1000CF93CDB7DEB7CD55D0400FB6F894DEBF9B
:10AA20000FBECDBF2F969FAF8EAF2F9761967FAF92
:10AA30006EAF61972A0162962FAF629763960FAF50
:10AA400063976496EFAE64976896ACAEBDAECEAE3B
:10AA5000DFAE6897E22EFF24EE0CFF1CEE0CFF1C0D
:10AA60009A012E0D3F1D2D963FAF2EAF2D97D90188
:10AA70006D907D908D909C90FC01EE0DFF1DC401AA
:10AA8000B30120813181428153810E9448DF69AF47
:10AA90007AAF8BAF9CAF10E0000F111F000F111F9A
:10AAA000F201E00FF11F2B96FFAFEEAF2B97A080C6
:10AAB000B180C280D3802F96EEADFFAD2F97E00F0F
:10AAC000F11FC601B50120813181428153810E946D
:10AAD00048DF6DAB7EAB8FAB98AF64962FAD6497BC
:10AAE000E22FF0E0EE0FFF1FEE0FFF1F2F96AEAD2F
:10AAF000BFAD2F97AE0FBF1F4D915D916D917C91B2
:10AB000029964CAF5DAF6EAF7FAF299761966EAD62
:10AB10007FAD6197E60FF71F60817181828193811C
:10AB200029962CAD3DAD4EAD5FAD29970E9447DF14
:10AB300069AB7AAB8BAB9CAB6196AEADBFAD6197A9
:10AB40001C968D919D910D90BC91A02D25968CAF5A
:10AB50009DAFAEAFBFAF25972F96AEADBFAD2F97D0
:10AB60001C962D913D914D915C911F9721962CAF94
:10AB70003DAF4EAF5FAF2197A401930150582DA771
:10AB80003EA74FA758ABB601A501705849A75AA7D1
:10AB90006BA77CA761966EAD7FAD6197E60EF71E41
:10ABA000D7016D917D918D919C9129AD3AAD4BADC1
:10ABB0005CAD0E9447DF3B014C016196EEADFFADFD
:10ABC00061970E0F1F1FD8016D917D918D919C9102
:10ABD0002DA93EA94FA958AD0E9447DF5B016C012A
:10ABE0006DA57EA58FA598A9A60195010E9401E3F8
:10ABF0007B018C0169A57AA58BA59CA5A401930175
:10AC00000E9401E39B01AC01C801B7010E9447DF2C
:10AC10001B012C016DA57EA58FA598A9A401930108
:10AC20000E9401E37B018C0169A57AA58BA59CA5F7
:10AC3000A60195010E9401E39B01AC01C801B70187
:10AC40000E9448DF9B01AC01C201B1010E94BBDF41
:10AC50005B016C0120E030E040E050E00E9421E028
:10AC6000882354F4C601B5012BED3FE049EC50E4D4
:10AC70000E9448DF5B016C01E8968FADE89788235E
:10AC800051F0C601B5012BED3FE049EC50E40E94C4
:10AC900047DF5B016C01C601B501E7962CAD3DAD08
:10ACA0004EAD5FADE7970E9401E329A93AA94BA9F0
:10ACB0005CA95F770E943CE27B018C012FE632E1C8
:10ACC00043E85AE30E9421E087FDF6C1C801B701BD
:10ACD0000E94FEE00E9495E078A76FA3672B21F405
:10ACE000E1E0F0E0F8A7EFA32FA138A5B90180E0DB
:10ACF00090E00E94C1E07B018C01C601B501A80172
:10AD000097010E9428E06BA37CA38DA39EA369A951
:10AD10007AA98BA99CA9A80197010E9428E06F8FAE
:10AD200078A389A39AA325966CAD7DAD8EAD9FAD1A
:10AD3000259721962CAD3DAD4EAD5FAD21970E947C
:10AD400047DFA80197010E9428E06B8F7C8F8D8FD1
:10AD50009E8F6BA17CA18DA19EA120E030E040E000
:10AD60005FEB0E9401E32BA13CA14DA15EA10E94DB
:10AD700001E320E030E040E85FE30E9448DF6F8BB2
:10AD8000788F898F9A8F64963FAD6497E32FF0E0B8
:10AD9000EE0FFF1FEE0FFF1F9E012F5F3F4FE20FD1
:10ADA000F31F29964CAD5DAD6EAD7FAD2997408305
:10ADB0005183628373832F96AEADBFAD2F971C96E0
:10ADC0004D915D916D917C911F974D875E876F8747
:10ADD000788B41E050E05A8B498B662462967FADB8
:10ADE0006297672F70E0660F771F660F771FC901A4
:10ADF000860F971F6A969FAF8EAF6A976396BFAD17
:10AE00006397AB2FB0E0AA0FBB1FAA0FBB1F21E0B7
:10AE100030E02C0F3D1F2A0F3B1F6C963FAF2EAF2B
:10AE20006C976E96FFAFEEAF6E971AC138E136158C
:10AE30000CF446C06DA57EA58FA598A92BA13CA1B9
:10AE40004DA15EA10E9401E37B018C0169A57AA559
:10AE50008BA59CA52F89388D498D5A8D0E9401E3C1
:10AE60009B01AC01C801B7010E9448DF7B018C0146
:10AE70006DA57EA58FA598A92F89388D498D5A8DEE
:10AE80000E9401E35B016C0169A57AA58BA59CA5D5
:10AE90002BA13CA14DA15EA10E9401E39B01AC014D
:10AEA000C601B5010E9447DF6DA77EA78FA798ABAB
:10AEB0006394C701D80189A79AA7ABA7BCA765C0AF
:10AEC00049895A89BA0180E090E00E94C1E02BA133
:10AED0003CA14DA15EA10E9401E37B018C01C80150
:10AEE0000E9425E06B8B7C8B8D8B9E8BB701C801FC
:10AEF0000E9464E33B014C012D96AEADBFAD2D9792
:10AF0000ED90FD900D911C9117FB109517F9109580
:10AF10002B96EEADFFAD2B97208031804280538081
:10AF2000C801B7012B893C894D895E890E9401E3E4
:10AF30005B016C01C201B101A40193010E9401E314
:10AF40009B01AC01C601B5010E9448DF6DA77EA739
:10AF50008FA798ABC801B701A40193010E9401E338
:10AF60007B018C01C201B1012B893C894D895E892D
:10AF70000E9401E39B01AC01C801B7010E9447DFB9
:10AF800069A77AA78BA79CA7662469AD7AAD8BAD1C
:10AF90009CAD2DA53EA54FA558A90E9448DF6A96F5
:10AFA000AEADBFAD6A976D937D938D939C931397D0
:10AFB0006DA97EA98FA998AD29A53AA54BA55CA539
:10AFC0000E9448DF6C96EEADFFAD6C976083718395
:10AFD000828393836E96AEADBFAD6E976D917D917A
:10AFE0008D919C912F8D38A149A15AA10E9448DFD3
:10AFF0006E96EEADFFAD6E9760837183828393830F
:10B000006D857E858F8598892B8D3C8D4D8D5E8DD0
:10B010000E9448DF6D877E878F87988BCE010196CF
:10B020000E948019CE010196BE016B5F7F4FAE0179
:10B03000475F5F4F9E01235F3F4F6896ECACFDACCE
:10B040000EAD1FAD6897F8E7CF2ED12CCC0EDD1ECC
:10B050000E94DE5D29893A892F5F3F4F3A8B298B09
:10B0600049895A896FA178A54617570708F4DECE9B
:10B0700061964EAD5FAD6197485F5F4F61962EADB3
:10B080003FAD6197245F3F4F61968EAD9FAD619755
:10B09000DC0114966196BFAFAEAF6197BD016896B3
:10B0A000ECACFDAC0EAD1FAD6897E8E7CE2ED12C11
:10B0B000CC0EDD1E0E94DE5DC35ADF4F0FB6F89442
:10B0C000DEBF0FBECDBFCF91DF911F910F91FF90DB
:10B0D000EF90DF90CF90BF90AF909F908F907F9038
:10B0E0006F905F904F903F902F90089580914F11F7
:10B0F00090915011891B8F7008956093AA037093EB
:10B10000AB038093AC039093AD0308950F931F930B
:10B11000CF93DF93C0E0D0E08E01015A134FFE01C0
:10B12000ED5CF34F60817181828193810E94C1E067
:10B13000FE01ED5DF34F20813181428153810E94F8
:10B1400001E30E9495E0F801608371838283938319
:10B150002496C031D10501F7DF91CF911F910F9156
:10B160000895FC01608171818281938120912F0C6F
:10B170003091300C4091310C5091320C0E9401E31F
:10B180000E94D1E260937B0C70937C0C80937D0CC9
:10B1900090937E0C8BE79CE00E943D6B08958F920C
:10B1A0009F92AF92BF92CF92DF92EF92FF920F9356
:10B1B0001F93FC018B015A014901608171818281D9
:10B1C00093812091230C3091240C4091250C5091B7
:10B1D000260C0E9401E30E94D1E23FE6C32E3CE030
:10B1E000D32E60936F0C7093700C8093710C9093BE
:10B1F000720CF80160817181828193812091270C0A
:10B200003091280C4091290C50912A0C0E9401E3A6
:10B210000E94D1E224E0E22EF12CEC0CFD1C6093A4
:10B22000730CF701718382839383F50160817181CF
:10B230008281938120912B0C30912C0C40912D0C0C
:10B2400050912E0C0E9401E30E94D1E28601085F1A
:10B250001F4F6093770CF801718382839383F4010D
:10B26000608171818281938120912F0C3091300C0B
:10B270004091310C5091320C0E9401E30E94D1E2C6
:10B28000F6013C9660937B0C718382839383C601A5
:10B29000B701A8019F010E94036B80E090E0A0E04D
:10B2A000B0E08093511190935211A0935311B09339
:10B2B00054118093551190935611A0935711B09348
:10B2C00058118093591190935A11A0935B11B09328
:10B2D0005C1180935D1190935E11A0935F11B09308
:10B2E00060118093611190936211A0936311B093E8
:10B2F00064111F910F91FF90EF90DF90CF90BF905E
:10B30000AF909F908F9008958F929F92AF92BF922F
:10B31000CF92DF92EF92FF920F931F93CF93DF9321
:10B32000EC016B01009709F45CC08FA9882309F038
:10B3300058C0EEA0FFA008A519A5FB01B6A0A7A0C4
:10B3400090A481A4C801B7012B2D3A2D492D582D69
:10B350000E9421E088230CF044C0C801B701A80175
:10B3600097010E9401E37B018C016AA97BA98CA94A
:10B370009DA9905820E030E040E050EC0E9401E3AD
:10B380002EA53FA548A959A90E9401E39B01AC0144
:10B39000C801B7010E9448DF0E946EE37B018C0167
:10B3A0006B2D7A2D892D982D9701A8010E9421E0FF
:10B3B000882324F4EB2CFA2C092D182D6B2D7A2DD3
:10B3C000892D982D9701A8010E9421E0882349F03A
:10B3D000C701D801F60186A397A3A0A7B1A781E072
:10B3E00086ABDF91CF911F910F91FF90EF90DF908F
:10B3F000CF90BF90AF909F908F900895EF92FF9263
:10B400000F931F93CF93DF93F090501100E010E063
:10B4100020E030E04DE4E42E12C0FE9CE001112457
:10B42000C158D34FC901B801AE010E9484598F2D74
:10B430008F5F803109F480E0F82E98018E018091B1
:10B440004F11F81651F7C901B80140E050E00E94D1
:10B450008459DF91CF911F910F91FF90EF90089544
:10B46000AF92BF92CF92DF92EF92FF920F931F9312
:10B47000CF93DF93EB018A016115710509F466C072
:10B480004115510509F462C0DAA4CBA4BCA4ADA453
:10B490006EA17FA188A599A52D2D3C2D4B2D5A2D50
:10B4A0000E9421E0882309F451C08FA9882309F064
:10B4B00043C0F801E6A0F7A000A511A56D2D7C2DD5
:10B4C0008B2D9A2DA80197010E942FE21816A4F542
:10B4D000C801B701A80197010E9401E37B018C011B
:10B4E0006AA97BA98CA99DA9905820E030E040E092
:10B4F00050EC0E9401E32EA53FA548A959A90E943E
:10B5000001E39B01AC01C801B7010E9448DF0E9422
:10B510006EE37B018C016D2D7C2D8B2D9A2D970177
:10B52000A8010E9421E0882324F4ED2CFC2C0B2D93
:10B530001A2DC701D80104C08D2D9C2DAB2DBA2D1D
:10B540008EA39FA3A8A7B9A781E08EABDF91CF916F
:10B550001F910F91FF90EF90DF90CF90BF90AF9031
:10B560000895CF92DF92EF92FF920F93DF93CF93E4
:10B570000F920F92CDB7DEB780914F118FB7F8942D
:10B58000F09050118FBF80914F1190E040968F192D
:10B5900091098F709070049704F100914F1103503E
:10B5A0000F70CC24DD2440E050E06DE4E62E13C0A3
:10B5B000802F002309F480E1082F01500E9DC00167
:10B5C00011248158934F9A838983B6010E94305A7F
:10B5D000A601C980DA800F1559F70F900F90CF910F
:10B5E000DF910F91FF90EF90DF90CF9008956091E1
:10B5F000A6079091501180914F119817B9F0409182
:10B600005011242F30E08DE490E0289FF001299F15
:10B61000F00D389FF00D1124E953F34F608102C003
:10B620004F5F4F7080914F114817D1F787E070E05E
:10B630000E94B115089510924F111092501180E19F
:10B64000EFE6FCE0DF011D928A95E9F780E090E0EB
:10B65000A0E0B0E08093551190935611A09357113C
:10B66000B09358118093591190935A11A0935B1184
:10B67000B0935C1180935D1190935E11A0935F1164
:10B68000B09360118093611190936211A093631144
:10B69000B09364118093511190935211A093531160
:10B6A000B093541108952F923F924F925F926F92F0
:10B6B0007F928F929F92AF92BF92CF92DF92EF9242
:10B6C000FF920F931F93DF93CF93CDB7DEB76697AB
:10B6D0000FB6F894DEBF0FBECDBF9E8B8D8B6A0177
:10B6E0007B0148015901DC01D8966D917D918D91C6
:10B6F0009C91DB970E94C1E0698B7A8B8B8B9C8B32
:10B70000A70196010E9401E30E940EE00E9495E0CD
:10B710006D837E838F83988769897A898B899C89D9
:10B72000A50194010E9401E30E940EE00E9495E0B1
:10B7300069837A838B839C832D813E814F815885D9
:10B74000283731054105510540F448E750E060E0F5
:10B7500070E04D835E836F83788769817A818B8106
:10B760009C81683771058105910540F488E790E078
:10B77000A0E0B0E089839A83AB83BC83AD89BE89A6
:10B78000AC5BBF4FAD90BD90CD90DC901397A454AF
:10B79000B040BE8BAD8B6D817E818F8198850E947C
:10B7A000C1E06D877E878F87988BC601B5010E94A7
:10B7B000C3E01B012C0120E030E040E050E00E949B
:10B7C00021E0882321F4E0E070E060E028C069898E
:10B7D0007A898B899C899B01AC010E9401E37B01E2
:10B7E0008C016D857E858F8598899B01AC010E94B7
:10B7F00001E39B01AC01C801B7010E9447DF7B0157
:10B800008C01C201B101A20191010E9448DF9B019C
:10B81000AC01C801B7010E9428E0E62F692F2E2F46
:10B82000372F482F562FB901CA010E940EE00E94FF
:10B8300090E03B014C0169817A818B819C810E945F
:10B84000C1E069877A878B879C8766277727CB013A
:10B850006A197B098C099D090E94C3E05B016C0198
:10B8600020E030E040E050E00E9421E0882321F415
:10B87000E0E070E060E028C069857A858B859C8572
:10B880009B01AC010E9401E37B018C0169897A89EB
:10B890008B899C899B01AC010E9401E39B01AC0157
:10B8A000C801B7010E9447DF7B018C01C601B501C9
:10B8B000A60195010E9448DF9B01AC01C801B701B8
:10B8C0000E9428E0E62F692F2E2F372F482F562F62
:10B8D000B901CA010E94FEE0ED89FE89A088B18805
:10B8E000C288D38886017501E618F7080809190986
:10B8F0000E9490E0A8019701261B370B480B590BBB
:10B9000057FF71C0C201B10120E030E040E050E0DB
:10B910000E9421E0882321F4E0E070E060E044C070
:10B92000C201B101A20191010E9448DF7B018C019B
:10B93000C601B5010E94C1E09B01AC01C801B7017D
:10B940000E9401E37B018C016D857E858F8598893E
:10B950009B01AC010E9401E39B01AC01C801B7014E
:10B960000E9447DF7B018C0169857A858B859C85E8
:10B970009B01AC010E9401E39B01AC01C801B7012E
:10B980000E9448DF7B018C01C201B10120E030E060
:10B9900040E850E40E9401E39B01AC01C801B701FB
:10B9A0000E9428E0E62F692F2E2F372F482F562F81
:10B9B000B901CA010E940EE00E9490E0AC01CB01E7
:10B9C000DA013C014D0197FE03C066247724430150
:10B9D0006A147B048C049D0410F03501460120E0BC
:10B9E00030E040E050E09FB7F8946D897E89645B59
:10B9F0007F4FDB018C91AC54B040BE8BAD8B882364
:10BA000021F5FD01648A758A868A978A260D371D7D
:10BA1000481D591D58962D933D934D935C935B970C
:10BA20002D813E814F815885DC962D933D934D931A
:10BA30005C93DF97A05CBF4F29813A814B815C8189
:10BA40002D933D934D935C9313979FBF66960FB6CE
:10BA5000F894DEBF0FBECDBFCF91DF911F910F9144
:10BA6000FF90EF90DF90CF90BF90AF909F908F901E
:10BA70007F906F905F904F903F902F9008954F92DE
:10BA80005F927F928F929F92AF92BF92CF92DF92FE
:10BA9000EF92FF920F931F93CF93DF93709050110B
:10BAA000C0E0D0E07DE4472E512C46C02097B1F194
:10BAB0008EA9882361F4849CF001859CF00D949CF0
:10BAC000F00D1124E158F34F86A9882339F1EAA03B
:10BAD000FBA00CA11DA16EA17FA188A599A5A8011D
:10BAE00097010E9428E05B016C01849CF001859C19
:10BAF000F00D949CF00D1124E158F34F66A177A14D
:10BB000080A591A5A80197010E9428E08B019C01C6
:10BB1000CE01B601A5010E94535B1EAA739480E179
:10BB2000781609F47724849CE001859CD00D949CC0
:10BB3000D00D1124C158D34F872C992487FC9094A1
:10BB400080914F1190E08816990609F0AFCF2097A9
:10BB5000F1F0EAA0FBA00CA11DA16EA17FA188A518
:10BB600099A5A80197010E9428E05B016C016DEC8A
:10BB70007CEC8CE49DE3A80197010E9428E08B01F6
:10BB80009C01CE01B601A5010E94535B1EAADF9164
:10BB9000CF911F910F91FF90EF90DF90CF90BF90CA
:10BBA000AF909F908F907F905F904F9008950E94EC
:10BBB000B15A0E94FE590E943F5D08952F923F9214
:10BBC0004F925F926F927F928F929F92AF92BF92AD
:10BBD000CF92DF92EF92FF920F931F93DF93CF9359
:10BBE000CDB7DEB7CC59D0400FB6F894DEBF0FBE4C
:10BBF000CDBF5C014B013A012901C756DF4FE882F6
:10BC0000C959D040C656DF4FF882CA59D040C556F0
:10BC1000DF4F0883CB59D040C456DF4F1883CC592F
:10BC2000D040E796DFAECEAEE79780914F118F5FA1
:10BC3000803109F480E0282F332727FD30953CA779
:10BC40002BA706C00E94C9790E946E1B0E9414D4C3
:10BC50008091501190E04BA55CA58417950791F356
:10BC60006091230C7091240C8091250C9091260CEE
:10BC7000E5966CAF7DAF8EAF9FAFE597D5012D9167
:10BC80003D914D915C910E9401E30E94D1E2CD571C
:10BC9000DF4F6883C358D040CC57DF4F7883C458F8
:10BCA000D040CB57DF4F8883C558D040CA57DF4FAD
:10BCB0009883C658D0402091270C3091280C409191
:10BCC000290C50912A0CE1962CAF3DAF4EAF5FAFDF
:10BCD000E197CA01B901D4012D913D914D915C913B
:10BCE0000E9401E30E94D1E2C957DF4F6883C75821
:10BCF000D040C857DF4F7883C858D040C757DF4F70
:10BD00008883C958D040C657DF4F9883CA58D0405F
:10BD100020912B0C30912C0C40912D0C50912E0C1D
:10BD2000AD962CAF3DAF4EAF5FAFAD97CA01B90135
:10BD3000D3012D913D914D915C910E9401E30E94B0
:10BD4000D1E2C557DF4F6883CB58D040C457DF4F8F
:10BD50007883CC58D040C357DF4F8883CD58D0402C
:10BD6000C257DF4F9883CE58D04020912F0C30918E
:10BD7000300C4091310C5091320CA9962CAF3DAF54
:10BD80004EAF5FAFA997CA01B901D2012D913D9184
:10BD90004D915C910E9401E30E94D1E2C157DF4FB7
:10BDA0006883CF58D040C057DF4F7883C059D04008
:10BDB000CF56DF4F8883C159D040CE56DF4F98838E
:10BDC000C259D04080917B0C90917C0CA0917D0C4D
:10BDD000B0917E0CC157DF4F288139814A815B8148
:10BDE000CF58D040281739074A075B0709F4B8C075
:10BDF000E091A507F0E0EE0FFF1FEE0FFF1FE654E6
:10BE0000FE4E60817181828193812091AA033091DD
:10BE1000AB034091AC035091AD030E9421E0882315
:10BE20000CF033C0C157DF4F488159816A817B8153
:10BE3000CF58D04040937B0C50937C0C60937D0C8A
:10BE400070937E0CE6E1F8E0949108C08091C00008
:10BE500085FFFCCF9093C600319694919923B1F75A
:10BE6000EAE3F8E0949108C08091C00085FFFCCF20
:10BE70009093C600319694919923B1F78091C000B8
:10BE800085FFFCCF8AE08093C60080917B0C909167
:10BE90007C0CA0917D0CB0917E0CC157DF4F2881A6
:10BEA00039814A815B81CF58D040281B390B4A0B1E
:10BEB0005B0BCA01B90157FF07C09095809570953B
:10BEC00061957F4F8F4F9F4F0E94C3E07B018C0194
:10BED000A9966CAD7DAD8EAD9FADA99720E030E009
:10BEE00042ED53E40E9401E39B01AC01C801B7019C
:10BEF0000E942FE218160CF033C0C157DF4F488163
:10BF000059816A817B81CF58D04040937B0C5093FC
:10BF10007C0C60937D0C70937E0CE6E1F8E09491CC
:10BF200008C08091C00085FFFCCF9093C600319679
:10BF300094919923B1F7ECE1F8E0949108C08091D5
:10BF4000C00085FFFCCF9093C60031969491992351
:10BF5000B1F78091C00085FFFCCF8AE08093C600D6
:10BF600080914F11682F70E0A5967FAF6EAFA597B7
:10BF70008DE490E0689FF001699FF00D789FF00DCF
:10BF80001124E158F34FE45BFF4F1082EC54F04072
:10BF900080916F0C9091700CA091710CB091720C0B
:10BFA000A3968CAF9DAFAEAFBFAFA397CD57DF4F7A
:10BFB000288139814A815B81C358D040281B390BC5
:10BFC0004A0B5B0B6F962CAF3DAF4EAF5FAF6F97D9
:10BFD000208331834283538357FF0DC0DA01C901A7
:10BFE000B095A095909581959F4FAF4FBF4F80839F
:10BFF0009183A283B3834091730C5091740C609130
:10C00000750C7091760C6B964CAF5DAF6EAF7FAFD9
:10C010006B97C957DF4F88819981AA81BB81C75827
:10C02000D040841B950BA60BB70B67968CAF9DAFCA
:10C03000AEAFBFAF67978DE490E0A596AEADBFAD54
:10C04000A597A89FF001A99FF00DB89FF00D1124AE
:10C05000E158F34F67962CAD3DAD4EAD5FAD6797A0
:10C06000248335834683578357FF0DC0DA01C90106
:10C07000B095A095909581959F4FAF4FBF4F84830A
:10C080009583A683B7834091770C5091780C60918B
:10C09000790C70917A0C63964CAF5DAF6EAF7FAF49
:10C0A0006397C557DF4F88819981AA81BB81CB589F
:10C0B000D040841B950BA60BB70B2F968CAF9DAF72
:10C0C000AEAFBFAF2F978DE490E0A596AEADBFADFC
:10C0D000A597A89FF001A99FF00DB89FF00D11241E
:10C0E000E158F34F2F962CAD3DAD4EAD5FAD2F9780
:10C0F000208731874287538757FF0DC0DA01C90176
:10C10000B095A095909581959F4FAF4FBF4F808779
:10C110009187A287B38720907B0C30907C0C409055
:10C120007D0C50907E0CC157DF4F488159816A8148
:10C130007B81CF58D04042195309640975094DA33A
:10C140005EA36FA378A7E091A507F0E0EE0FFF1FB5
:10C15000EE0FFF1FE557FC4F608171818281938153
:10C160002B966CAF7DAF8EAF9FAF2B9780918503E1
:10C170009091860327969FAF8EAF27976DA17EA1E2
:10C180008FA198A597FF07C09095809570956195B0
:10C190007F4F8F4F9F4F0E94C3E02B962CAD3DAD3C
:10C1A0004EAD5FAD2B970E9401E30E9490E0279671
:10C1B000AEADBFAD27979D01442737FD4095542F65
:10C1C0000E94D3E324E630E040E050E00E943BE4EC
:10C1D0008DE490E0A5966EAD7FADA597689FF001C8
:10C1E000699FF00D789FF00D1124E158F34FDF01A6
:10C1F0001C96248711963C93119712964C93129794
:10C2000013965C936080718082809380A480B58057
:10C21000C680D780E084F18402851385C901DA01E4
:10C220008E159F05A007B10714F4D801C7018A1520
:10C230009B05AC05BD0514F4D601C5019C01AD01FB
:10C2400086159705A805B90514F4A40193018DE49A
:10C2500090E0A596AEADBFADA597A89FB001A99FF0
:10C26000700DB89F700D11246158734FFB01208B26
:10C27000318B428B538B263031054105510510F42B
:10C280000C944F6AE85BFF4F8091A6079091A70737
:10C29000AA2797FDA095BA2F80839183A283B383A9
:10C2A000DB0190961C92CD57DF4F288139814A815E
:10C2B0005B81C358D040A3968CAD9DADAEADBFADF4
:10C2C000A397281739074A075B0724F481E0DB01AD
:10C2D00090968C93C957DF4F288139814A815B81C1
:10C2E000C758D0406B966CAD7DAD8EAD9FAD6B9752
:10C2F000261737074807590794F48DE490E0A59670
:10C30000AEADBFADA597A89FF001A99FF00DB89F56
:10C31000F00D1124E158F34F80A1826080A3C5572E
:10C32000DF4F288139814A815B81CB58D0406396A9
:10C330006CAD7DAD8EAD9FAD63972617370748076F
:10C34000590794F48DE490E0A596AEADBFADA597E6
:10C35000A89FF001A99FF00DB89FF00D1124E1589E
:10C36000F34F80A1846080A3C157DF4F28813981BA
:10C370004A815B81CF58D0402215330544055505CD
:10C3800094F48DE490E0A5964EAD5FADA597489FDF
:10C39000F001499FF00D589FF00D1124E158F34F23
:10C3A00080A1886080A38DE490E0A5966EAD7FADFE
:10C3B000A597689FF001699FF00D789FF00D1124FB
:10C3C000E158F34FE796AEADBFADE7978C9181A3EF
:10C3D000208131814281538125962CAF3DAF4EAFF4
:10C3E0005FAF2597211531054105510509F01598D5
:10C3F0008DE490E0A5964EAD5FADA597489FF00106
:10C40000499FF00D589FF00D1124E158F34F6480BF
:10C41000758086809780611471048104910409F00D
:10C4200017988DE490E0A5966EAD7FADA597689FB7
:10C43000F001699FF00D789FF00D1124E158F34F42
:10C44000A084B184C284D384A114B104C104D104F2
:10C4500009F042988DE490E0A596AEADBFADA597EA
:10C46000A89FF001A99FF00DB89FF00D1124E1588D
:10C47000F34F84859585A685B7850097A105B105FD
:10C4800091F0A0989FB7F89480910B018D7F8093D5
:10C490000B019FBF2090430C3090440C4090450C02
:10C4A0005090460C08C020905B0C30905C0C409083
:10C4B0005D0C50905E0CC756DF4F6881C959D04063
:10C4C000C656DF4F7881CA59D040C556DF4F8881A4
:10C4D000CB59D040C456DF4F9881CC59D040A201EF
:10C4E00091010E9421E087FD16C0C756DF4F888169
:10C4F000C959D040C656DF4F9881CA59D040C55659
:10C50000DF4FA881CB59D040C456DF4FB881CC59FA
:10C51000D0401C012D016F966CAD7DAD8EAD9FADF1
:10C520006F970E94C3E0E5962CAD3DAD4EAD5FAD7B
:10C53000E5970E9428E0C158DF4F6883CF57D0406D
:10C54000C058DF4F7883C058D040CF57DF4F888323
:10C55000C158D040CE57DF4F9883C258D040AC016D
:10C56000CB01DA0189839A83AB83BC8367966CAD78
:10C570007DAD8EAD9FAD67970E94C3E0E1962CAD77
:10C580003DAD4EAD5FADE1970E9428E0EC966FAFF8
:10C59000EC97ED967FAFED97EE968FAFEE97EF9617
:10C5A0009FAFEF97AC01CB01DA018D839E83AF8300
:10C5B000B8872F966CAD7DAD8EAD9FAD2F970E9445
:10C5C000C3E0AD962CAD3DAD4EAD5FADAD970E94D5
:10C5D00028E0E8966FAFE897E9967FAFE997EA968B
:10C5E0008FAFEA97EB969FAFEB97AC01CB01DA01E7
:10C5F00089879A87AB87BC876DA17EA18FA198A5FB
:10C600000E94C3E0A9962CAD3DAD4EAD5FADA9979C
:10C610000E9428E02B962CAD3DAD4EAD5FAD2B9723
:10C620000E9401E37B018C012796EEADFFAD2797B9
:10C63000BF01882777FD8095982F0E94C3E09B015A
:10C64000AC01C801B7010E9401E320E030E048ECF2
:10C6500052E40E9428E09B01AC016D877E878F87A2
:10C66000988B25966CAD7DAD8EAD9FAD25976630D0
:10C670007105810591051CF576E06716710481044A
:10C680009104ECF486E0A816B104C104D104BCF412
:10C690008DE490E0A596AEADBFADA597A89FF00143
:10C6A000A99FF00DB89FF00D1124E158F34FDA0166
:10C6B000C901BF7786A797A7A0ABB1AB5DC0C15832
:10C6C000DF4F2881CF57D040C058DF4F3881C05846
:10C6D000D040CF57DF4F4881C158D040CE57DF4FB1
:10C6E0005881C258D040B901CA010E94B8E33B0149
:10C6F0004C01EC962FADEC97ED963FADED97EE9695
:10C700004FADEE97EF965FADEF97B901CA010E946A
:10C71000B8E35B016C01E8962FADE897E9963FAD71
:10C72000E997EA964FADEA97EB965FADEB97B901C3
:10C73000CA010E94B8E37B018C01C401B301A601C8
:10C7400095010E9448DFA80197010E9448DF0E94DE
:10C750006EE32DE430E0A5964EAD5FADA597429F08
:10C76000F001439FF00D529FF00D1124E158F34F5B
:10C7700066A777A780AB91AB8DE490E0A5966EADF0
:10C780007FADA597689FF001699FF00D789FF00D30
:10C790001124E158F34F86A597A5A0A9B1A9219628
:10C7A0008CAF9DAFAEAFBFAF219760E070E080E887
:10C7B0009FE321962CAD3DAD4EAD5FAD21970E941C
:10C7C00028E09B01AC01C201B1010E9401E32B01F1
:10C7D0003C0180914F1190915011A82FB0E05096DC
:10C7E000A91BB109AF70B070BAA7A9A7A230B10553
:10C7F0000CF451C05D01CC24B7FCC094DC2CC60104
:10C80000B5010E94C3E020E030E040E051E40E9426
:10C8100021E088230CF03FC060E074E284E799E4F3
:10C82000A30192010E9428E00E94D1E27B018C01C9
:10C8300060910F0C7091100C8091110C9091120C62
:10C84000E616F7060807190730F56E197F09800B01
:10C85000910B660F771F881F991FA60195010E94F3
:10C8600019E4CA01B9010E94C1E00E94D1E29B0112
:10C87000AC012E0D3F1D401F511FCA01B9010E947E
:10C88000C1E09B01AC0160E074E284E799E40E949E
:10C8900028E02B013C018DE490E0A596EEADFFADC4
:10C8A000A597E89F8001E99F100DF89F100D1124B6
:10C8B0000158134F21966CAD7DAD8EAD9FAD219784
:10C8C000A30192010E9401E3D80192966D937D939A
:10C8D0008D939C93959750966D917D918D919C91A0
:10C8E00053970E94C1E0A30192010E9401E30E94BC
:10C8F0000EE00E9495E0F80160AF71AF82AF93AF98
:10C90000CD56DF4F1882C359D040CC56DF4F188226
:10C91000C459D04020E8222E9FE3392E8824992440
:10C92000E1E0F0E0EC0FFD1FE80DF91DC301B201DD
:10C9300020813181428153810E9401E3E1E1F0E0F5
:10C94000EC0FFD1FE80DF91D6083718382839383D3
:10C950005B016C01E894D7F8F401ED5EF34FE080E1
:10C96000F18002811381C601B501A80197010E94DF
:10C970002FE21816CCF4C801B701A60195010E9458
:10C9800028E06B017C01CD56DF4F6881C359D04050
:10C99000CC56DF4F7881C459D040C101A701960120
:10C9A0000E9421E088236CF4CD56DF4F8881C35963
:10C9B000D040CC56DF4F9881C459D040D1016C0192
:10C9C0007D0124E030E0820E931E30E18316910455
:10C9D00071F0D701C601CD56DF4FC882C359D04090
:10C9E000CC56DF4F9883C459D0401D0199CFC70161
:10C9F000B60120E030E040E85FE30E9421E08823B8
:10CA00000CF04CC08E010F5E1F4F81E2A82EB12C9E
:10CA1000AC0EBD1ED8016D917D918D919C91A701A9
:10CA200096010E9401E3F8016193719381939193C0
:10CA30008F01EA15FB0571F78DE490E0A5962EAD08
:10CA40003FADA597289F8001299F100D389F100D9D
:10CA500011240158134FD80192966D917D918D91BB
:10CA60009C919597A70196010E9401E3F80162A3AA
:10CA700073A384A395A360AD71AD82AD93AD0E9405
:10CA8000C1E0A70196010E9401E30E9495E0D80150
:10CA9000D8966D937D938D939C93DB978DE490E076
:10CAA000A596EEADFFADA597E89F8001E99F100D1B
:10CAB000F89F100D11240158134FD80150966D9115
:10CAC0007D918D919C9153970E94C1E0F80126A51C
:10CAD00037A540A951A90E9428E01B012C01F801AB
:10CAE00080819181A281B3810097A105B10549F5AB
:10CAF00084819581A681B7810097A105B10509F5CB
:10CB000080859185A285B3850097A105B105C9F4FB
:10CB1000C201B10120914B0C30914C0C40914D0C55
:10CB200050914E0C0E9401E30E940EE00C5B1F4FDF
:10CB30000E9495E0D8016D937D938D939C931397FC
:10CB400071C1C201B1012091470C3091480C409154
:10CB5000490C50914A0C0E9401E30E940EE00E9491
:10CB600095E02DE430E0A596EEADFFADA597E29FF0
:10CB70006001E39FD00CF29FD00C11242FE73CE022
:10CB8000C20ED31EB4E46B2E712C6C0C7D1CD30131
:10CB90006D937D938D939C93139780905F0C9090F1
:10CBA000600CA090610CB090620C0E94C1E07B010F
:10CBB0008C01F60160817181828193810E94C3E0C2
:10CBC0009B01AC01C801B7010E9401E37B018C010C
:10CBD000D60150966D917D918D919C9153970E94B5
:10CBE000C1E09B01AC01C801B7010E9428E07B01B4
:10CBF0008C01C501B4010E94C1E09B01AC01C801D8
:10CC0000B7010E942FE218162CF4F3018082918262
:10CC1000A282B3828090630C9090640CA090650C0B
:10CC2000B090660C8DE490E0A5962EAD3FADA59733
:10CC3000289F6001299FD00C389FD00C11244FE70A
:10CC40005CE0C40ED51EA4E46A2E712C6C0C7D1C15
:10CC5000D3016D917D918D919C910E94C1E07B01EA
:10CC60008C01F60164817581868197810E94C3E001
:10CC70009B01AC01C801B7010E9401E37B018C015B
:10CC8000D60150966D917D918D919C9153970E9404
:10CC9000C1E09B01AC01C801B7010E9428E07B0103
:10CCA0008C01C501B4010E94C1E09B01AC01C80127
:10CCB000B7010E942FE218162CF4F30180829182B2
:10CCC000A282B38280906B0C90906C0CA0906D0C43
:10CCD000B0906E0C8DE490E0A5962EAD3FADA5977B
:10CCE000289F6001299FD00C389FD00C11244FE75A
:10CCF0005CE0C40ED51EF4E46F2E712C6C0C7D1C10
:10CD0000D3016D917D918D919C910E94C1E07B0139
:10CD10008C01F60164857585868597850E94C3E040
:10CD20009B01AC01C801B7010E9401E37B018C01AA
:10CD3000D60150966D917D918D919C9153970E9453
:10CD4000C1E09B01AC01C801B7010E9428E07B0152
:10CD50008C01C501B4010E94C1E09B01AC01C80176
:10CD6000B7010E942FE218162CF4F3018082918201
:10CD7000A282B3828090670C9090680CA090690C9E
:10CD8000B0906A0C8DE490E0A5962EAD3FADA597CE
:10CD9000289F6001299FD00C389FD00C11244FE7A9
:10CDA0005CE0C40ED51EE4E46E2E712C6C0C7D1C70
:10CDB000D3016D917D918D919C910E94C1E07B0189
:10CDC0008C01F60160857185828593850E94C3E0A0
:10CDD0009B01AC01C801B7010E9401E37B018C01FA
:10CDE000D60150966D917D918D919C9153970E94A3
:10CDF000C1E09B01AC01C801B7010E9428E07B01A2
:10CE00008C01C501B4010E94C1E09B01AC01C801C5
:10CE1000B7010E942FE218162CF4F3018082918250
:10CE2000A282B3828DE490E0A5962EAD3FADA5978A
:10CE3000289F6001299FD00C389FD00C11244FE708
:10CE40005CE0C40ED51EF601EC5BFF4F6081718182
:10CE5000828193810E94C1E07B018C01A20191013A
:10CE60000E9428E0D601D2966D937D938D939C937A
:10CE7000D597C801B7012DEB37E346E051E40E9496
:10CE800001E30E9490E0F601648F758F868F978F83
:10CE900060904F0C7090500C8090510C9090520C00
:10CEA000C401B30120E030E040E05FE30E9401E311
:10CEB0005B016C01298D3A8D4B8D5C8D29AF3AAFAA
:10CEC0004BAF5CAF4091530C5091540C6091550C9A
:10CED0007091560C4DAB5EAB6FAB78AFCB01BA0126
:10CEE00020E030E040E05FE30E9401E37B018C0141
:10CEF00069AD7AAD8BAD9CAD9F77A80197010E947B
:10CF00002FE2181644F4C601B501A80197010E944A
:10CF100021E0882314F4860175016D8D7E8D8F8D3F
:10CF200098A169AB7AAB8BAB9CAB8091570C90917D
:10CF3000580CA091590CB0915A0C8DA79EA7AFA781
:10CF4000B8ABBC01CD0120E030E040E05FE30E94DF
:10CF500001E31B012C0169A97AA98BA99CA99F77E0
:10CF6000A20191010E942FE2181644F4C801B701F2
:10CF7000A20191010E9421E0882314F417012801E5
:10CF80008DE490E0A596AEADBFADA597A89FF0014A
:10CF9000A99FF00DB89FF00D1124E158F34F22A185
:10CFA00033A144A155A129A33AA34BA35CA3C20179
:10CFB000B1010E9421E087FD04C029A03AA04BA046
:10CFC0005CA049A55AA5423051050CF405C1509109
:10CFD0005111CB56DF4F5883C559D0406091521143
:10CFE000CA56DF4F6883C659D04070915311C95655
:10CFF000DF4F7883C759D04080915411C856DF4F16
:10D000008883C859D040652FCA56DF4F7881C659EA
:10D01000D040C956DF4F8881C759D040C856DF4F2E
:10D020009881C859D04027E137EB41ED58E30E9481
:10D030002FE218160CF0D0C069897A898B899C89F7
:10D04000209155113091561140915711509158111E
:10D050000E9447DF9B01AC010E9401E37B018C0130
:10D060006D897E898F89988D2091591130915A113F
:10D0700040915B1150915C110E9447DF9B01AC0114
:10D080000E9401E39B01AC01C801B7010E9448DF87
:10D090000E946EE37B018C01A40193010E942FE2A8
:10D0A00018165CF00F2EF0E06F2EF0E07F2EF0E807
:10D0B0008F2EFFE39F2EF02D08C0C401B301A801FD
:10D0C00097010E9428E03B014C0169AD7AAD8BAD20
:10D0D0009CAD20915D1130915E1140915F11509196
:10D0E00060110E9447DF7B018C01E89417F9C801A9
:10D0F000B7012DA93EA94FA958AD0E942FE21816DD
:10D1000094F46DA97EA98FA998ADA80197010E94FA
:10D1100028E05B016C01C401B301A60195010E94E6
:10D1200021E0882314F46401530169A97AA98BA929
:10D130009CA920916111309162114091631150912D
:10D1400064110E9447DF7B018C01E89417F9C80144
:10D15000B7012DA53EA54FA558A90E942FE218168C
:10D1600094F46DA57EA58FA598A9A80197010E94AA
:10D1700028E07B018C01C601B501A80197010E943E
:10D1800021E0882314F48601750169A17AA18BA19D
:10D190009CA1A80197010E9401E37B018C01CB5661
:10D1A000DF4F6881C559D040CA56DF4F7881C659D4
:10D1B000D040C956DF4F8881C759D040C856DF4F8D
:10D1C0009881C859D040A80197010E9421E087FDAD
:10D1D00019C0D801C70102C0D201C101CB56DF4F2F
:10D1E0008883C559D040CA56DF4F9883C659D0406E
:10D1F000C956DF4FA883C759D040C856DF4FB88300
:10D20000C859D0408DE490E0A596AEADBFADA597CE
:10D21000A89F8001A99F100DB89F100D11240158DF
:10D22000134FCB56DF4F8881C559D040CA56DF4FC8
:10D230009881C659D040C956DF4FA881C759D04000
:10D24000C856DF4FB881C859D040F80182A793A7CC
:10D25000A4A7B5A762A973A984A995A9905820E0AD
:10D2600030E040E050EC0E9401E3D8019E962D9101
:10D270003D914D915C91D1970E9401E32BE037EDF8
:10D2800043E25BE30E9448DF0E946EE3F62EE72E46
:10D29000D82EC92ECB56DF4F6881C559D040CA560B
:10D2A000DF4F7881C659D040C956DF4F8881C759B2
:10D2B000D040C856DF4F9881C859D0402F2D3E2D01
:10D2C0004D2D5C2D0E9421E087FD14C0CB56DF4F11
:10D2D000F882C559D040CA56DF4FE882C659D040BF
:10D2E000C956DF4FD882C759D040C856DF4FC882D1
:10D2F000C859D0408DE490E0A596EEADFFADA5975E
:10D30000E89F8001E99F100DF89F100D112401582E
:10D31000134FCB56DF4F8881C559D040CA56DF4FD7
:10D320009881C659D040C956DF4FA881C759D0400F
:10D33000C856DF4FB881C859D040F80186A397A3DB
:10D34000A0A7B1A762A173A184A195A12F2D3E2D05
:10D350004D2D5C2D0E9421E018162CF081E0D801A3
:10D36000D7968C9302C0F80117AA8DE490E0A59699
:10D370002EAD3FADA597289FF001299FF00D389F56
:10D38000F00D1124E158F34F81E086ABA5E5B1E142
:10D39000FE01719680E101900D928150E1F78DE4DC
:10D3A00090E0A5964EAD5FADA597489F6001499F5F
:10D3B000D00C589FD00C11246FE77CE0C60ED71E0E
:10D3C000D6019296ED90FD900D911C919597E0926B
:10D3D0005111F092521100935311109354119696DB
:10D3E0006D917D918D919C919997A80197010E94D3
:10D3F00028E04B015C01C201B101A80197010E9424
:10D4000028E08B019C01C601B501A4010E94535B79
:10D41000BBA5B0934F11C157DF4F288139814A8195
:10D420005B81CF58D04020937B0C30937C0C409391
:10D430007D0C50937E0CC557DF4F488159816A811E
:10D440007B81CB58D0404093770C5093780C6093FD
:10D45000790C70937A0CC957DF4F688179818A8182
:10D460009B81C758D0406093730C7093740C809369
:10D47000750C9093760CCD57DF4F88819981AA81E6
:10D48000BB81C358D04080936F0C9093700CA093D5
:10D49000710CB093720C0E94D75D0E94736AC456DF
:10D4A000DF4F0FB6F894DEBF0FBECDBFCF91DF9137
:10D4B0001F910F91FF90EF90DF90CF90BF90AF90B2
:10D4C0009F908F907F906F905F904F903F902F90A4
:10D4D00008951092991110929C1110929F11089525
:10D4E0008093B2030895EFE6F0E08081826080834C
:10D4F0000895099A3C9A9A9AEAE0F1E08081806165
:10D5000080838081846080830D9A159A0F9A179A80
:10D510003A9A429A989AA09A8081826080839FB7B3
:10D52000F894EBE0F1E08081826080839FBF0898EF
:10D53000109A0C98149A3F98479A0A98129A0E9843
:10D54000169A3D98459A0B9A1398159A10928E0741
:10D550003E9A4698179A10928F07389A4098429AA6
:10D5600010929007EAE0F1E08081806480839FB7A9
:10D57000F894EBE0F1E080818F7B80839FBFA09ADD
:10D58000EAE0F1E08081816080839FB7F894EBE06E
:10D59000F1E080818E7F80839FBF9FB7F894EBE09E
:10D5A000F1E08081826080839FBFA1E8B0E08C9130
:10D5B0008F7E8C938C9188608C93E0E8F0E0808182
:10D5C0008D7F808380818E7F808380818F73808335
:10D5D00080818F7C80838C91887F82608C9380E0B7
:10D5E00090E49093890080938800109285001092B7
:10D5F0008400EFE6F0E080818260808381E08093A8
:10D60000B203789408951F93FC011FB7F8948081AA
:10D610009181A281B3818093731190937411A0932F
:10D620007511B0937611FB0180819181A281B38144
:10D630008093771190937811A0937911B0937A1118
:10D64000FA0180819181A281B38180937B119093B3
:10D650007C11A0937D11B0937E11F901808191819D
:10D66000A281B38180937F1190938011A093811147
:10D67000B09382111FBF1F910895FC012FB7F8943A
:10D6800080819181A281B38180937F1190938011D9
:10D69000A0938111B09382112FBF0895E82F8FB707
:10D6A000F894F0E0EE0FFF1FEE0FFF1FED58FE4E57
:10D6B00020813181428153818FBFB901CA01089510
:10D6C00080916F008D7F80936F0006C08091501114
:10D6D0008F5F8F708093501190914F1180915011F6
:10D6E000981751F4109266111092651180916F0095
:10D6F000826080936F00089590914F118091501136
:10D70000981751F3E3CF90914F11809150119817D2
:10D7100039F00E94C9790E946E1B0E9414D4F3CF85
:10D7200008950E94836B159A10928E07179A109293
:10D730008F07429A10929007A09A9FB7F894EBE057
:10D74000F1E08081826080839FBF08951F920F92D5
:10D750000FB60F920BB60F921124AF92BF92CF92D9
:10D76000DF92EF92FF920F931F932F933F934F936C
:10D770005F936F937F938F939F93AF93BF93CF9359
:10D78000DF93EF93FF938091651190916611892B40
:10D7900009F094C190914F1180915011981719F48C
:10D7A000E0E0F0E014C08091501190E02DE430E012
:10D7B000829FF001839FF00D929FF00D1124E1589C
:10D7C000F34FE45BFF4F81E08083EC54F040F09333
:10D7D0006611E0936511309709F46AC1E45BFF4F6D
:10D7E00081E08083EC54F0401092A8111092A911AE
:10D7F0001092AA111092AB1160AD71AD2CE9613499
:10D80000720718F060E47CE904C03EE461327307FB
:10D8100030F0769567957695679584E007C047E286
:10D820006131740730F07695679582E08093A1119D
:10D8300007C08093A1116032710510F460E270E0BE
:10D840006052704058E060307507E8F0472F50E0B4
:10D85000440F551F440F551F4D58574F9A012E5FC7
:10D860003F4FF901859194919C01AA27639FC001C4
:10D87000629F810D9A1F06948A1F9A1F1124FA0134
:10D88000459154911EC0CB01969587958C7F8D58FC
:10D89000934FFC0145915491FC01329625913491AE
:10D8A000862F90E087709070FC012E9FC0012F9F03
:10D8B000900D3E9F900D1124B3E096958795BA95F3
:10D8C000E1F7481B590B44365105A8F4E3EFF2E0A9
:10D8D00007C08091C00085FFFCCF31969093C600B1
:10D8E00090819923B1F781E09AE04AE050E00E94EC
:10D8F000484344E650E05093AD114093AC11809101
:10D90000A1118093AE111092AF11E0916511F091C9
:10D91000661164AD75AD7093A7116093A611FCE913
:10D9200061347F0718F060E47CE904C02EE46132C2
:10D93000720730F0769567957695679584E007C015
:10D9400037E26131730730F07695679582E0809316
:10D95000A11108C081E08093A1116032710510F41B
:10D9600060E270E06052704048E060307407E8F0B8
:10D97000472F50E0440F551F440F551F4D58574F28
:10D980009A012E5F3F4FF901859194919C01AA273E
:10D99000639FC001629F810D9A1F06948A1F9A1F80
:10D9A0001124FA01459154911EC0CB01969587959B
:10D9B0008C7F8D58934FFC0145915491FC01329618
:10D9C00025913491862F90E087709070FC012E9FF6
:10D9D000C0012F9F900D3E9F900D112433E096952E
:10D9E00087953A95E1F7481B590B44365105A8F441
:10D9F000E3EFF2E007C08091C00085FFFCCF3196D5
:10DA00009093C60090819923B1F781E09AE04AE0B3
:10DA100050E00E94484344E650E0CA01A0E0B0E074
:10DA20008093A2119093A311A093A411B093A51178
:10DA30005093890040938800E0916511F091661140
:10DA400080899189A289B389B695A795979587957D
:10DA5000B095A095909581959F4FAF4FBF4F809304
:10DA6000831190938411A0938511B09386118093B4
:10DA7000871190938811A0938911B0938A11809394
:10DA80008B1190938C11A0938D11B0938E11809374
:10DA90008F1190939011A0939111B09392111092C5
:10DAA000931110929411109295111092961106C034
:10DAB00080ED97E09093890080938800C091651174
:10DAC000D0916611209709F45CC588A180939711C5
:10DAD00080FF03C0119A8FEF02C0119881E08093FC
:10DAE000AE038091971181FF03C044988FEF02C06D
:10DAF000449A81E08093AF03809197119091B20393
:10DB000080FF36C0992309F46BC020B1217031E049
:10DB1000232759F180919811882339F188819981BF
:10DB2000AA81BB81181619061A061B06F4F4809107
:10DB3000731190917411A0917511B0917611809329
:10DB4000671190936811A0936911B0936A11309393
:10DB5000991188899989AA89BB8980939311909397
:10DB60009411A0939511B09396112093981138C0F9
:10DB70009923B1F180B1869586958095282F2170E3
:10DB800080FF2CC080919A11882341F1888199816E
:10DB9000AA81BB81181619061A061B06FCF480918F
:10DBA000731190917411A0917511B09176118093B9
:10DBB000671190936811A0936911B0936A1181E085
:10DBC0008093991188899989AA89BB898093931137
:10DBD00090939411A0939511B093961120939A115C
:10DBE000809197119091B20381FF3AC0992309F473
:10DBF00071C080B182958F708095282F217080FF31
:10DC00002CC080919B11882341F18C819D81AE8134
:10DC1000BF81181619061A061B06FCF480917711AD
:10DC200090917811A0917911B0917A1180936B1134
:10DC300090936C11A0936D11B0936E1181E080935D
:10DC40009C1188899989AA89BB89809393119093A3
:10DC50009411A0939511B093961120939B113AC003
:10DC60009923C1F180B182958695869583708095C0
:10DC7000282F217080FF2CC080919D11882341F1B5
:10DC80008C819D81AE81BF81181619061A061B066C
:10DC9000FCF48091771190917811A0917911B09155
:10DCA0007A1180936B1190936C11A0936D11B093C6
:10DCB0006E1181E080939C1188899989AA89BB891A
:10DCC0008093931190939411A0939511B093961112
:10DCD00020939D11809197119091B20382FF39C0DA
:10DCE000A29A8FEF8093B003992309F46EC020E0CD
:10DCF00037992CC021E080919E11882339F18885C5
:10DD00009985AA85BB85181619061A061B06F4F410
:10DD100080917B1190917C11A0917D11B0917E1129
:10DD200080936F1190937011A0937111B093721141
:10DD300020939F1188899989AA89BB89809393111F
:10DD400090939411A0939511B093961120939E11E6
:10DD50003CC0A29831E03093B0039923B1F186B171
:10DD60008295869587708095282F217080FF2BC023
:10DD70008091A011882339F188859985AA85BB8572
:10DD8000181619061A061B06F4F480917B1190915F
:10DD90007C11A0917D11B0917E1180936F119093B1
:10DDA0007011A0937111B093721130939F118889F3
:10DDB0009989AA89BB898093931190939411A09318
:10DDC0009511B09396112093A0118091971199A16C
:10DDD00083FF12C0913031F49FB7F89480910B010A
:10DDE0008B7F05C09FB7F89480910B018F7E809345
:10DDF0000B019FBF8FEF11C0913031F49FB7F894A2
:10DE000080910B01846005C09FB7F89480910B014D
:10DE1000806180930B019FBF81E08093B10360E03C
:10DE200070E08CC18091C00087FF19C04091C6008E
:10DE3000E091FD09F091FE0931969F012F77307036
:10DE400031978091FF099091000A2817390739F01E
:10DE5000E358F64F40833093FE092093FD09288153
:10DE600039814A815B818091831190918411A091C5
:10DE70008511B0918611280F391F4A1F5B1F20930F
:10DE8000831130938411409385115093861112169B
:10DE90001306140615066CF5139A88899989AA89C0
:10DEA000BB89281B390B4A0B5B0B209383113093E2
:10DEB00084114093851150938611209173113091F4
:10DEC000741140917511509176118091AE0399278C
:10DED00087FD9095A92FB92F820F931FA41FB51FFF
:10DEE0008093731190937411A0937511B093761170
:10DEF00013982C813D814E815F8180918711909193
:10DF00008811A0918911B0918A11280F391F4A1FD9
:10DF10005B1F209387113093881140938911509390
:10DF20008A1112161306140615066CF5469A88898E
:10DF30009989AA89BB89281B390B4A0B5B0B209353
:10DF40008711309388114093891150938A11209141
:10DF50007711309178114091791150917A11809117
:10DF6000AF03992787FD9095A92FB92F820F931F93
:10DF7000A41FB51F8093771190937811A093791106
:10DF8000B0937A114698288539854A855B858091BA
:10DF90008B1190918C11A0918D11B0918E11280F41
:10DFA000391F4A1F5B1F20938B1130938C114093B4
:10DFB0008D1150938E1112161306140615066CF56A
:10DFC000409A88899989AA89BB89281B390B4A0BF1
:10DFD0005B0B20938B1130938C1140938D115093D8
:10DFE0008E1120917B1130917C1140917D115091C7
:10DFF0007E118091B003992787FD9095A92FB92FA5
:10E00000820F931FA41FB51F80937B1190937C11E7
:10E01000A0937D11B0937E1140982C853D854E854F
:10E020005F8580918F1190919011A0919111B09185
:10E030009211280F391F4A1F5B1F20938F113093B5
:10E0400090114093911150939211121613061406D9
:10E0500015060CF04DC089A1813031F49FB7F894BA
:10E0600080910B01816005C09FB7F89480910B01EE
:10E07000806480930B019FBF88899989AA89BB8995
:10E08000281B390B4A0B5B0B20938F113093901197
:10E09000409391115093921120917F1130918011F2
:10E0A00040918111509182118091B103992787FD90
:10E0B0009095A92FB92F820F931FA41FB51F80938E
:10E0C0007F1190938011A0938111B093821189A147
:10E0D000813031F49FB7F89480910B018E7F05C099
:10E0E0009FB7F89480910B018F7B80930B019FBFAA
:10E0F0008091931190919411A0919511B0919611E6
:10E100000196A11DB11D8093931190939411A0933A
:10E110009511B093961120919311309194114091E3
:10E120009511509196116F5F7F4F88899989AA89BF
:10E13000BB89281739074A075B0738F48091A1117A
:10E1400090E0681779070CF46DCE2091931130910F
:10E15000941140919511509196118C899D89AE89A9
:10E16000BF8982179307A407B50708F4E3C0E090BE
:10E17000A211F090A3110091A4111091A511AC8CE3
:10E18000BD8CCE8CDF8CA8019701C601B501AA27F2
:10E19000279FB12D389FF001489FF00D479FE00D5C
:10E1A000F11D289FB00DE11DFA1F379FB00DE11D35
:10E1B000FA1F469FB00DE11DFA1F369FB10DEA1FF1
:10E1C000FA1FB695EA1FFA1F11248CAD9DAD8E0F74
:10E1D0009F1F9093A7118093A61128AD39AD4AAD2A
:10E1E0005BADA0E0B0E0281739074A075B0720F4D1
:10E1F0003093A7112093A6116091A6117091A711D9
:10E200008CE96134780718F060E47CE904C09EE48E
:10E210006132790730F0769567957695679584E059
:10E2200007C0E7E261317E0730F07695679582E0BE
:10E230008093A11108C081E08093A1116032710523
:10E2400010F460E270E060527040F8E060307F07E8
:10E25000E8F0472F50E0440F551F440F551F4D580D
:10E26000574F9A012E5F3F4FF901859194919C0180
:10E27000AA27639FC001629F810D9A1F06948A1F7F
:10E280009A1F1124FA01459154911EC0CB01969515
:10E2900087958C7F8D58934FFC0145915491FC01DB
:10E2A000329625913491862F90E087709070FC0112
:10E2B0002E9FC0012F9F900D3E9F900D1124B3E023
:10E2C00096958795BA95E1F7481B590B4436510549
:10E2D000A8F4E3EFF2E007C08091C00085FFFCCF17
:10E2E00031969093C60090819923B1F781E09AE02E
:10E2F0004AE050E00E94484344E650E050938900D1
:10E30000409388009A0140E050E08091A2119091E2
:10E31000A311A091A411B091A511820F931FA41F66
:10E32000B51F8093A2119093A311A093A411B09351
:10E33000A51102C120919311309194114091951132
:10E3400050919611888D998DAA8DBB8D8217930758
:10E35000A407B50708F0E4C06091A8117091A91155
:10E360008091AA119091AB112C8D3D8D4E8D5F8DBA
:10E37000AA27639FB12D749FF001849FF00D839FA6
:10E38000E00DF11D649FB00DE11DFA1F739FB00DEC
:10E39000E11DFA1F829FB00DE11DFA1F729FB10DA2
:10E3A000EA1FFA1FB695EA1FFA1F11248091A611E1
:10E3B0009091A7118E179F0738F4C05CDF4F6881DA
:10E3C0007981C054D04003C0BC016E1B7F0BC05C80
:10E3D000DF4F288139814A815B81CB01A0E0B0E029
:10E3E00082179307A407B50708F4B901FCE9613463
:10E3F0007F0718F060E47CE904C02EE46132720704
:10E4000030F0769567957695679584E007C037E29A
:10E410006131730730F07695679582E08093A111A2
:10E4200008C081E08093A1116032710510F460E2B0
:10E4300070E06052704048E060307407E8F0472FA9
:10E4400050E0440F551F440F551F4D58574F9A0128
:10E450002E5F3F4FF901859194919C01AA27639FFC
:10E46000C001629F810D9A1F06948A1F9A1F112472
:10E47000FA01459154911EC0CB01969587958C7FEA
:10E480008D58934FFC0145915491FC013296259192
:10E490003491862F90E087709070FC012E9FC00110
:10E4A0002F9F900D3E9F900D112423E09695879508
:10E4B0002A95E1F7481B590B44365105A8F4E3EFC0
:10E4C000F2E007C08091C00085FFFCCF31969093A9
:10E4D000C60090819923B1F781E09AE04AE050E0CC
:10E4E0000E94484344E650E05093890040938800DE
:10E4F0009A0140E050E08091A8119091A911A0915B
:10E50000AA11B091AB11820F931FA41FB51F809366
:10E51000A8119093A911A093AA11B093AB110CC0AC
:10E520008091AC119091AD119093890080938800F7
:10E530008091AE118093A11120919311309194118B
:10E540004091951150919611E0916511F0916611ED
:10E5500080899189A289B389281739074A075B07FF
:10E5600080F0109266111092651190914F11809178
:10E570005011981731F0809150118F5F8F708093F8
:10E580005011FF91EF91DF91CF91BF91AF919F918A
:10E590008F917F916F915F914F913F912F911F913B
:10E5A0000F91FF90EF90DF90CF90BF90AF900F90C2
:10E5B0000BBE0F900FBE0F901F9018958091991170
:10E5C000882349F480919C11882329F480919F111C
:10E5D000882309F49CC0E3E7F0E1949108C080919E
:10E5E000C00085FFFCCF9093C6003196949199238B
:10E5F000B1F7E5EBF0E1949108C08091C00085FF90
:10E60000FCCF9093C600319694919923B1F78091F5
:10E6100099118823F1F060916711709168118091D0
:10E62000691190916A110E94C3E02091230C3091EE
:10E63000240C4091250C5091260C0E9428E0AB013F
:10E64000BC0181EB90E10E94341F81EA90E10E94BD
:10E65000E2D380919C118823F1F060916B1170914D
:10E660006C1180916D1190916E110E94C3E0209108
:10E67000270C3091280C4091290C50912A0C0E94B3
:10E6800028E0AB01BC018DE990E10E94341F8DE8C8
:10E6900090E10E94E2D380919F118823F1F0609174
:10E6A0006F117091701180917111909172110E948F
:10E6B000C3E020912B0C30912C0C40912D0C5091EB
:10E6C0002E0C0E9428E0AB01BC0189E890E10E9479
:10E6D000341F89E790E10E94E2D3E7E0F3E007C04E
:10E6E0008091C00085FFFCCF31969093C600908149
:10E6F0009923B1F78091C00085FFFCCF8AE0809319
:10E70000C6001092991110929C1110929F110895B9
:10E7100060E070E08FE793E42091B7033091B80395
:10E720004091B9035091BA030E9428E0DC019B019B
:10E73000AC012093F8113093F9114093FA115093E2
:10E74000FB11CB018093FC119093FD11A093FE115E
:10E75000B093FF110895FC0197FF03C08091C81189
:10E7600003C0EB52FE4E808190E008952F923F92BD
:10E770004F925F926F927F928F929F92AF92BF92D1
:10E78000CF92DF92EF92FF920F931F93CF93DF937D
:10E79000EC0121E030E0A901440F551F440F551F43
:10E7A000FA01E955FE4E85919491C817D9070CF0EE
:10E7B00059C0B90161507040660F771F660F771F0F
:10E7C000CB0187559E4EFC010591149169557E4EF3
:10E7D000FB01C590D490FA01E755FE4EE590F49008
:10E7E000FA01E955FE4EA590B490B801882777FD4F
:10E7F0008095982F0E94C3E01B012C01CC19DD09E4
:10E80000BE01882777FD8095982F0E94C3E03B01C9
:10E810004C01E01AF10A0027F7FC0095102FC801FF
:10E82000B7010E94C3E09B01AC01C401B3010E9487
:10E8300001E37B018C01AC18BD08CC24B7FCC0946B
:10E84000DC2CC601B5010E94C3E09B01AC01C801EC
:10E85000B7010E9428E09B01AC01C201B1010E94F6
:10E8600048DF19C0822F8F5F2F5F3F4F2133310563
:10E8700009F091CF813329F0E0E070E080E060E0C2
:10E880000CC0E9E6F2E165917491882777FD8095E7
:10E89000982F0E94C3E0E62F692F2E2F372F482F85
:10E8A000562FB901CA01DF91CF911F910F91FF90AF
:10E8B000EF90DF90CF90BF90AF909F908F907F9020
:10E8C0006F905F904F903F902F9008951092B111EC
:10E8D0001092B0111092D51174981092B311109239
:10E8E000B2111092D61175981092B5111092B41100
:10E8F0001092C811A59808952DEB37E346E05EE32A
:10E900000E9401E308952DEB37E346E05EE30E94A9
:10E9100028E008952DEB37E346E05EE30E9428E00F
:10E9200008952DEB37E346E05EE30E9401E308958E
:10E93000A5980E94121A882339F5E4ECF0E194912D
:10E9400008C08091C00085FFFCCF9093C60031962F
:10E9500094919923B1F7ECEDF0E1949108C0809186
:10E96000C00085FFFCCF9093C60031969491992307
:10E97000B1F78091C00085FFFCCF8AE08093C6008C
:10E980008BEC90E10E94F1D30E94B91A08951F9375
:10E99000182F0E9466740E94121A882309F036C04C
:10E9A000E4ECF0E1949108C08091C00085FFFCCFB9
:10E9B0009093C600319694919923B1F781E09AE043
:10E9C000612F70E04AE050E00E941E438091C00039
:10E9D00085FFFCCF8AE08093C600E3E2F1E19491E9
:10E9E00008C08091C00085FFFCCF9093C60031968F
:10E9F00094919923B1F78091C00085FFFCCF8AE004
:10EA00008093C60086E191E10E94F1D30E94B91A79
:10EA10001F9108951F93182F0E9466740E94121A66
:10EA2000882309F036C0E4ECF0E1949108C08091AD
:10EA3000C00085FFFCCF9093C60031969491992336
:10EA4000B1F781E09AE0612F70E04AE050E00E9467
:10EA50001E438091C00085FFFCCF8AE08093C600F2
:10EA6000EDE5F1E1949108C08091C00085FFFCCFF5
:10EA70009093C600319694919923B1F78091C0008C
:10EA800085FFFCCF8AE08093C60080E591E10E947B
:10EA9000F1D30E94B91A1F9108951F920F920FB6D9
:10EAA0000F920BB60F9211242F933F934F935F93C6
:10EAB0006F937F938F939F93AF93BF93EF93FF9346
:10EAC0009091C9039923D9F48091D5118093DE11D7
:10EAD000882311F0749A01C074988091D6118093A4
:10EAE000DD11882311F0759A01C075988091C811C5
:10EAF0008093DC11882311F0A59A01C0A59880911C
:10EB0000DE11891708F474988091DD11891708F4D3
:10EB100075988091DC11891708F4A5989F5F9F77FD
:10EB20009093C9038091CA03843009F471C0853081
:10EB300050F4813021F1813098F08230F1F183304E
:10EB400009F09FC049C0863009F48DC0863008F4B2
:10EB50006EC0873009F48BC0883009F092C08FC036
:10EB600088E080937B0080E480937C0080917A0031
:10EB7000806480937A000E949B9E81E01BC08091FC
:10EB8000780090917900A0E0B0E02091EB113091F5
:10EB9000EC114091ED115091EE11280F391F4A1FD1
:10EBA0005B1F2093EB113093EC114093ED115093C8
:10EBB000EE1182E08093CA0364C088E080937B00FA
:10EBC00082E480937C0080917A00806480937A0054
:10EBD0000E949B9E83E0EECF809178009091790017
:10EBE000A0E0B0E02091DF113091E0114091E111FF
:10EBF0005091E211280F391F4A1F5B1F2093DF112C
:10EC00003093E0114093E1115093E21184E0D2CFB0
:10EC100088E080937B0081E480937C0080917A007F
:10EC2000806480937A000E949B9E85E0C3CF809190
:10EC3000780090917900A0E0B0E02091E711309148
:10EC4000E8114091E9115091EA11280F391F4A1F2C
:10EC50005B1F2093E7113093E8114093E911509323
:10EC6000EA1186E0A7CF0E949B9E87E0A3CF109277
:10EC7000CA038091EF118F5F8093EF1102C0109251
:10EC8000CA038091EF11803108F48AC08091D711B6
:10EC90008823C1F48091EB119091EC119093B711FE
:10ECA0008093B6118091E7119091E8119093B9117A
:10ECB0008093B8118091DF119091E0119093C3116E
:10ECC0008093C21181E08093D7111092EF111092BE
:10ECD000EB111092EC111092ED111092EE111092B6
:10ECE000E7111092E8111092E9111092EA111092B6
:10ECF000E3111092E4111092E5111092E6111092B6
:10ED0000DF111092E0111092E1111092E2112091A6
:10ED1000B6113091B7118091C3039091C4032817A5
:10ED200039071CF080E00E940A752091B6113091DD
:10ED3000B7118091D8119091D911821793071CF0C7
:10ED400080E00E94C7742091B8113091B911809170
:10ED5000C5039091C603281739071CF081E00E9473
:10ED60000A752091B8113091B9118091DA11909102
:10ED7000DB11821793071CF081E00E94C774209179
:10ED8000C2113091C3118091C7039091C803281715
:10ED9000390734F01092B5111092B4110E94987492
:10EDA000FF91EF91BF91AF919F918F917F916F9163
:10EDB0005F914F913F912F910F900BBE0F900FBE1F
:10EDC0000F901F901895EF92FF920F931F93E09072
:10EDD000BA11F090BB110091BC111091BD1160915E
:10EDE000B0117091B111882777FD8095982F0E94FE
:10EDF000C3E020E030E040EA51E40E9447DF9B019D
:10EE0000AC01C801B7010E9421E0882394F4C80135
:10EE1000B7010E9490E07093CA116093C9110E94DB
:10EE2000DE146093CD117093CE118093CF11909327
:10EE3000D011E090BE11F090BF110091C01110915F
:10EE4000C1116091B2117091B311882777FD80953F
:10EE5000982F0E94C3E020E030E040EA51E40E9495
:10EE600047DF9B01AC01C801B7010E9421E0882364
:10EE700094F4C801B7010E9490E07093CC116093A4
:10EE8000CB110E94DE146093D1117093D211809344
:10EE9000D3119093D4111F910F91FF90EF9008958B
:10EEA0002F926F927F928F929F92AF92BF92CF924A
:10EEB000DF92EF92FF920F931F93DF93CF93CDB723
:10EEC000DEB729970FB6F894DEBF0FBECDBF8C0119
:10EED000E62E61E06E1568F5E4ECF0E1949108C06F
:10EEE0008091C00085FFFCCF9093C600319694912D
:10EEF0009923B1F781E09AE06E2D70E04AE050E08E
:10EF00000E941E43EAE8F1E1949108C08091C0009C
:10EF100085FFFCCF9093C600319694919923B1F769
:10EF20008091C00085FFFCCF8AE08093C6000E94DC
:10EF3000FB1AAE2DB0E0FD01EE0FFF1FEC5CFB4FA6
:10EF40008081918199878887892B09F49FC0A85C6B
:10EF5000BB4F9C919B832224239479C0222D30E0C7
:10EF6000A901440F551F440F551FE885F985E40F8B
:10EF7000F51F85919491081719070CF067C0C90116
:10EF80000197880F991F880F991FFC013296A88559
:10EF9000B985EA0FFB1FC590D4908A0F9B1FFC0117
:10EFA000659174917A836983FA013296EA0FFB1FA7
:10EFB000E590F490FD01E40FF51FA590B490B60123
:10EFC000882777FD8095982F0E94C3E06C837D830E
:10EFD0008E839F8389819A81081B190BB80188272A
:10EFE00077FD8095982F0E94C3E03B014C01EC18FF
:10EFF000FD080027F7FC0095102FC801B7010E94FB
:10F00000C3E09B01AC01C401B3010E9401E37B0199
:10F010008C01A981BA81AA1ABB0ACC24B7FCC0947E
:10F02000DC2CC601B5010E94C3E09B01AC01C80104
:10F03000B7010E9428E09B01AC016C817D818E812B
:10F040009F810E9448DFE62F692F09C02394BB816E
:10F050002B1608F483CFE0E070E080E060E0FB81F5
:10F060002F1679F5E22DF0E0EE0FFF1FEE0FFF1FD8
:10F07000329768857985E60FF71F65917491882727
:10F0800077FD8095982F0E94C3E019C0B8018827AA
:10F0900077FD8095982F0E94C3E020E030E04AEF92
:10F0A0005EE30E9401E320E030E040E85DE30E947F
:10F0B00001E320E030E040E050E00E9448DFE62F2E
:10F0C000692F2E2F372F482F562FB901CA012996A5
:10F0D0000FB6F894DEBF0FBECDBFCF91DF911F9169
:10F0E0000F91FF90EF90DF90CF90BF90AF909F90E7
:10F0F0008F907F906F902F900895CF92DF92EF9234
:10F10000FF920F931F93CF93DF9360E070E08FE740
:10F1100093E42091B7033091B8034091B903509123
:10F12000BA030E9428E0E091CB03F091CC030F2EAC
:10F13000F0E0EF2EF0E0FF2EF0E00F2FF0E01F2FB9
:10F14000F02DE092F011F092F1110093F211109372
:10F15000F3119B01482F592F2093F8113093F91187
:10F160004093FA115093FB11F093CE03E093CD033B
:10F17000E092F411F092F5110093F6111093F7114B
:10F18000CB01DA018093FC119093FD11A093FE1145
:10F19000B093FF116C9A6D9A9D9A809101018061E4
:10F1A0008093010187E061E070E00E94151A87ED0D
:10F1B00080937A0010927E0010927D0080917D00F5
:10F1C000816080937D0080917D00826080937D00CE
:10F1D00080917D00846080937D0080E888BD80916F
:10F1E0006E00846080936E006AEF70E080E090E0D3
:10F1F0000E94EC1485E090E090930112809300123D
:10F2000009C08091D8119091D91140969093D9114D
:10F210008093D8118091D8119091D91160E00E940B
:10F22000507720E030E040EA50E40E9421E087FD82
:10F23000E8CF83E191E09093CC038093CB0309C0A6
:10F240008091C3039091C40340979093C40380932B
:10F25000C3038091C3039091C40360E00E94507780
:10F2600020E030E849E853E40E942FE2181644F306
:10F2700085E090E0909303128093021209C0809180
:10F28000DA119091DB1140969093DB118093DA11A3
:10F290008091DA119091DB1161E00E94507720E0BB
:10F2A00030E040EA50E40E9421E087FDE8CF83E1AE
:10F2B00091E09093CE038093CD0309C08091C50364
:10F2C0009091C60340979093C6038093C5038091A5
:10F2D000C5039091C60361E00E94507720E030E8BA
:10F2E00049E853E40E942FE2181644F3C091C70383
:10F2F000D091C803EC2EDD2ECE010E94B67360972C
:10F3000020E030E046E153E40E942FE2181694F327
:10F31000E092C703D092C803DF91CF911F910F9164
:10F32000FF90EF90DF90CF9008958091B61190916B
:10F33000B71160E00E9450776093BA117093BB11CF
:10F340008093BC119093BD118091B8119091B91127
:10F3500061E00E9450776093BE117093BF1180935B
:10F36000C0119093C1118091C2119091C3110E945C
:10F37000B6736093C4117093C5118093C6119093B6
:10F38000C7110E9468978FB7F8941092D7118FBF5A
:10F3900008952F923F924F925F926F927F928F9239
:10F3A0009F92AF92BF92CF92DF92EF92FF920F9314
:10F3B0001F93DF93CF93CDB7DEB765970FB6F89461
:10F3C000DEBF0FBECDBF8091D711882309F472C272
:10F3D0000E9495798AEB91E19A8B898BA0EBB1E140
:10F3E000B88BAF87EDECF1E1FC87EB8785ED91E120
:10F3F0009A878987A6E2B2E1B887AF83ECE0F2E1B1
:10F40000FE83ED838EE092E19C838B83AEE2B2E1DA
:10F41000BA83A9831D8A1C8A1E861D86EBE6F2E14B
:10F42000B491BB8BE989FA89608071808280938076
:10F43000AF85B889CD90DC90B601882777FD80959F
:10F44000982F0E94C3E0A40193010E9447DF7B0133
:10F450008C01EC89FD89EC5FFD4E608371838283B2
:10F46000938320E030E040E251E40E942FE218163E
:10F470002CF421E0ED81FE812083E1C0C801B701B9
:10F4800020E030E040E251EC0E9421E087FD02C024
:10F49000CD2829F4E1E0AD81BE81EC93BBC0AD8104
:10F4A000BE818C91882369F080E090E0A0E0B0E01C
:10F4B000EB81FC8180839183A283B383AD81BE8184
:10F4C0001C92C801B7012091B3033091B40340915D
:10F4D000B5035091B6030E9401E31B012C01EC8996
:10F4E000FD89EA5EFD4E6083718382839383C80148
:10F4F000B701EB81FC8120813181428153810E94DF
:10F5000048DF5B016C01EC89FD89E051FE4EE08033
:10F51000F18002811381A80197010E9421E087FDFB
:10F5200012C0EC89FD89E850FE4EE080F180028136
:10F530001381C601B501A80197010E942FE2181698
:10F5400014F086017501AB81BC81ED92FD920D93A3
:10F550001C931397C801B7012091B7033091B803EA
:10F560004091B9035091BA030E9401E35B016C0121
:10F57000EC89FD89E25EFD4E608371838283938313
:10F58000C401B301EF81F88520813181428153812B
:10F590000E9447DF2091BB033091BC034091BD0323
:10F5A0005091BE030E9401E320ED3CEC4CE45DE38E
:10F5B0000E9401E37B018C01A981BA816D917D914B
:10F5C0008D919C9123E333E343E75FE30E9401E3E2
:10F5D0009B01AC01C801B7010E9448DF7B018C018F
:10F5E000E981FA816083718382839383C201B101CF
:10F5F000A60195010E9448DFA80197010E9447DFFC
:10F600007B018C0120E030E040E050E00E9421E0EE
:10F6100088235CF40F2EF0E0EF2EF0E0FF2EF0E0F8
:10F620000F2FF0E01F2FF02D14C0C801B70120E00C
:10F6300030E04FE753E40E942FE2181654F40F2EE7
:10F64000F0E0EF2EF0E0FF2EFFE70F2FF3E41F2F87
:10F65000F02DAF81B8856D927D928D929C9213971B
:10F66000ED85FE85E050FE4E60817181882777FD33
:10F670008095982F0E94C3E09B01AC01C401B301A7
:10F680000E942FE21816F4F4ED85FE85E553FC4F39
:10F6900060817181882777FD8095982F0E94C3E053
:10F6A0009B01AC01C401B3010E9421E0882354F402
:10F6B000C801B7010E9490E075956795E985FA85C4
:10F6C000608303C0A985BA851C92EB85FC85808187
:10F6D0009181A281B3810097A105B10509F45DC0B4
:10F6E0000E94DE14AB85BC852D913D914D915C91BE
:10F6F000621B730B840B950B61547C4980409040D6
:10F7000008F44BC0ED85FE85E753FE4E60817181A4
:10F71000665F7F4F882777FD8095982F0E94C3E012
:10F720009B01AC01E989FA896081718182819381B1
:10F730000E9421E088235CF5AF85B8891D921C9258
:10F7400081E792E10E94E2D39B89EBE6F2E108C0F7
:10F750008091C00085FFFCCF9093C60031969491B4
:10F760009923B1F7E8E0F3E007C08091C00085FF7E
:10F77000FCCF31969093C60090819923B1F7809188
:10F78000C00085FFFCCFBAE0B093C60006C0EB8591
:10F79000FC85108211821282138289899A890496CB
:10F7A0009A8B898BAC89BD891496BD8BAC8BEF8508
:10F7B000F8893296F88BEF878D859E8502969E8715
:10F7C0008D87AB85BC851496BC87AB87E985FA85A8
:10F7D0003196FA87E9878F819885049698878F8379
:10F7E000AD81BE811196BE83AD83EB81FC813496E1
:10F7F000FC83EB8389819A8104969A838983AC89FF
:10F80000BD89189709F00ECE0E94DE1420913612A1
:10F81000309137124091381250913912621B730B9C
:10F82000840B950B685873418040904008F442C0A7
:10F830000E94DE1460933612709337128093381250
:10F8400090933912E090C411F090C5110091C61147
:10F850001091C711C801B70120E030E040EA50E440
:10F860000E942FE218161CF5C801B70120E030E015
:10F8700046E153E40E9421E08823CCF46091B41166
:10F880007091B511882777FD8095982F0E94C3E06D
:10F890009B01AC01C801B7010E942FE288231CF034
:10F8A0001092C81107C08FE78093C81103C010924F
:10F8B000C811A59865960FB6F894DEBF0FBECDBFF0
:10F8C000CF91DF911F910F91FF90EF90DF90CF903C
:10F8D000BF90AF909F908F907F906F905F904F9070
:10F8E0003F902F9008952F923F924F925F926F9288
:10F8F0007F928F929F92AF92BF92CF92DF92EF92C0
:10F90000FF920F931F93DF93CF93CDB7DEB7E697A8
:10F910000FB6F894DEBF0FBECDBF6C8F7D8F8E8F7C
:10F920009F8F5EAB4DAB39A328A30E94DE14698B79
:10F930007A8B8B8B9C8B2DA93EA9233031051CF42F
:10F94000E7E1F3E019C0EAE2F3E007C08091C0000C
:10F9500085FFFCCF31969093C60090819923B1F733
:10F960008091C00085FFFCCF14C48091C00085FF4A
:10F97000FCCF31969093C60090819923B1F7809186
:10F98000C00085FFFCCF8AE08093C6000E946674A9
:10F990004DA95EA957FF74C08FE78093C81189896C
:10F9A0009A89AB89BC898D879E87AF87B88B8987F9
:10F9B0009A87AB87BC8719AA1AAA1BAA1CAA1F8AF6
:10F9C0001E8A91E09D8B1D821E821F8218868FE702
:10F9D000A82EB12CC12CD12C0FE7202E312C412C7C
:10F9E000512C20E030E040E050E029833A834B8303
:10F9F0005C830F2EF0E06F2EF0E47F2EFCE18F2E63
:10FA0000F6E49F2EF02D4DA95EA94B525E4E5BA3EE
:10FA10004AA3E2E7F3E154915CA3EDE6F3E18491BC
:10FA20008DA3E6E6F3E194919EA3EFE5F3E1A491C3
:10FA3000AFA3E9E5F3E1B491B8A7E3E5F3E12491DD
:10FA400029A7E5E4F3E134913AA7EFE3F3E1449128
:10FA50004BA7E9E3F3E154915CA7E3E3F3E184917D
:10FA60008DA7ADA9BEA9AA0FBB1FAA0FBB1FA65485
:10FA7000BE4EBFA7AEA7E9EFF2E1B491B8AB07C0A5
:10FA8000EDA9FEA9EB52FE4E8FE7808388CF8091CF
:10FA9000D711882309F4A3C20E949579EDA9FEA984
:10FAA000F7FF0DC0F091C411F9AB2091C5112AAB3D
:10FAB0003091C6113BAB4091C7114CAB11C0AEA504
:10FAC000BFA5BC91B9ABEEA5FFA5F181FAABAEA580
:10FAD000BFA51296BC91BBABEEA5FFA5F381FCAB15
:10FAE00069817A818B819C8129A93AA94BA95CA95A
:10FAF0000E942FE2181644F089A99AA9ABA9BCA9C3
:10FB000089839A83AB83BC83C401B30129A93AA931
:10FB10004BA95CA90E9421E087FD06C089A99AA98A
:10FB2000ABA9BCA93C014D012D89222309F451C088
:10FB300069A97AA98BA99CA92C8D3D8D4E8D5F8DCD
:10FB40000E942FE218160CF04AC20E94DE1429858A
:10FB50003A854B855C85621B730B840B950B69584A
:10FB600073418040904008F43AC2D601C501821921
:10FB70009309A409B5094DA95EA957FF07C0B5951A
:10FB8000A795979587958093C81107C0B595A795B8
:10FB900097958795EAA1FBA180830E94DE146D876B
:10FBA0007E878F87988B9B01AC0189859A85AB8571
:10FBB000BC85281B390B4A0B5B0B2D833E834F837F
:10FBC00058872C8D3D8D4E8D5F8D29833A834B83D5
:10FBD0005C8369A97AA98BA99CA92C8D3D8D4E8D3A
:10FBE0005F8D0E9421E088230CF0F8C10E94DE1492
:10FBF0002D853E854F855889621B730B840B950BB1
:10FC0000695873418040904008F4E8C10E94DE14B6
:10FC100069877A878B879C874E895F89452B09F492
:10FC2000B8C1DC01CB012D853E854F855889821BEB
:10FC3000930BA40BB50B2D813E814F815885280F66
:10FC4000391F4A1F5B1F288F398F4A8F5B8F2D8189
:10FC50003E814F815885281B390B4A0B5B0BCA012B
:10FC6000B901A20191010E94D3E3288D398D4A8DFB
:10FC70005B8D0E943BE42A0D3B1D4C1D5D1D243114
:10FC80003105410551055CF474E1272E312C412CDE
:10FC9000512C64E1A62EB12CC12CD12C1FC05901CE
:10FCA0006A013CEEA316B104C104D1042CF05BEE52
:10FCB000A52EB12CC12CD12C40E8A416B104C1044E
:10FCC000D1041CF41501260109C04EEF242E312C5D
:10FCD000412C512C2A183B084C085D089CA1E2E7F6
:10FCE000F3E108C08091C00085FFFCCF9093C6006F
:10FCF000319694919923B1F781E09AE0B601A5017C
:10FD00002AE030E00E94E9429DA1EDE6F3E108C05F
:10FD10008091C00085FFFCCF9093C60031969491EE
:10FD20009923B1F781E09AE0B201A1012AE030E025
:10FD30000E94E9429EA1E6E6F3E108C08091C0007E
:10FD400085FFFCCF9093C600319694919923B1F72B
:10FD500081E09AE0B401A30122E030E00E94F9437F
:10FD60009FA1EFE5F3E108C08091C00085FFFCCFC3
:10FD70009093C600319694919923B1F781E09AE06F
:10FD800049815A816B817C8122E030E00E94F943F5
:10FD90008091C00085FFFCCF8AE08093C6008E89E9
:10FDA0009F8903970CF4F5C0C201B1010E94C3E022
:10FDB00020E030E040E850E40E9401E37B018C0148
:10FDC00069817A818B819C81A40193010E9447DF24
:10FDD00020ED3FE049E450E40E9401E320E030E000
:10FDE00040E05FE30E9401E39B01AC01C801B70161
:10FDF0000E9428E07B018C01688D798D8A8D9B8D16
:10FE00000E94C3E020E030E04AE754E40E9428E08A
:10FE10003B014C0198A5E9E5F3E108C08091C000E1
:10FE200085FFFCCF9093C600319694919923B1F74A
:10FE300081E09AE0B801A70122E030E00E94F94396
:10FE400099A5E3E5F3E108C08091C00085FFFCCFF0
:10FE50009093C600319694919923B1F781E09AE08E
:10FE6000B401A30122E030E00E94F9438091C00078
:10FE700085FFFCCF8AE08093C600C801B7012AE95C
:10FE800039E949E15FE30E9401E37B018C019AA516
:10FE9000E5E4F3E108C08091C00085FFFCCF9093BA
:10FEA000C600319694919923B1F78091C00085FFE7
:10FEB000FCCF8AE08093C6009BA5EFE3F3E108C086
:10FEC0008091C00085FFFCCF9093C600319694913D
:10FED0009923B1F781E09AE0B801A70122E030E070
:10FEE0000E94F9438091C00085FFFCCF8AE0809397
:10FEF000C6009CA5E9E3F3E108C08091C00085FF3E
:10FF0000FCCF9093C600319694919923B1F7C80124
:10FF1000B701A80197010E9448DFA40193010E9444
:10FF200028E0AB01BC0181E09AE022E030E00E94D1
:10FF3000F9438091C00085FFFCCF8AE08093C60022
:10FF40009DA5E3E3F3E108C08091C00085FFFCCFED
:10FF50009093C600319694919923B1F7C801B701E7
:10FF6000A40193010E9401E320E030E040E05EE361
:10FF70000E9401E3AB01BC0181E09AE022E030E0A5
:10FF80000E94F9438091C00085FFFCCF8AE08093F6
:10FF9000C600D201C1018A0D9B1DAC1DBD1DEDA97E
:10FFA000FEA9F7FF07C0B595A7959795879580930C
:10FFB000C81107C0B595A79597958795EAA1FBA1AC
:10FFC00080832E893F892F5F3F4F3F8B2E8B6C8C18
:10FFD0007D8C8E8C9F8C31E03D8B01C01D8A6C8D99
:10FFE0007D8D8E8D9F8D20E030E040EA51E40E94AF
:10FFF00048DF9B01AC0169A97AA98BA99CA90E9441
:020000021000EC
:100000002FE218169CF4E9E0F3E1949108C0809186
:10001000C00085FFFCCF9093C60031969491992340
:10002000B1F78091C00085FFFCCFB3C00E94DE1401
:1000300029893A894B895C89621B730B840B950B68
:10004000615D77408040904008F454C04DA95EA99E
:1000500057FF11C06091C811E3E0F3E1949108C02B
:100060008091C00085FFFCCF9093C600319694919B
:100070009923B1F711C0AAA1BBA16C91EDEFF2E1F8
:10008000949108C08091C00085FFFCCF9093C6007A
:10009000319694919923B1F7162F81E09AE049A9FE
:1000A0005AA96BA97CA922E030E00E94F94398A9E3
:1000B000E9EFF2E108C08091C00085FFFCCF90938A
:1000C000C600319694919923B1F781E09AE0612FAF
:1000D00070E04AE050E00E941E438091C00085FF1E
:1000E000FCCF8AE08093C6000E94DE14698B7A8B75
:1000F0008B8B9C8B0E94DE147B018C010E94DE1492
:100100002D853E854F855889E21AF30A040B150B9D
:1001100029853A854B855C85E21AF30A040B150B99
:10012000E60EF71E081F191F31E8E3163FE4F30639
:1001300032E1030730E0130798F0ECEDF2E194911F
:1001400008C08091C00085FFFCCF9093C600319617
:1001500094919923B1F78091C00085FFFCCF19C01D
:100160004E895F8988A199A18417950774F5E0E805
:10017000F2E1949108C08091C00085FFFCCF90937C
:10018000C600319694919923B1F78091C00085FF04
:10019000FCCF8AE08093C600E6960FB6F894DEBFE7
:1001A0000FBECDBFCF91DF911F910F91FF90EF90C8
:1001B000DF90CF90BF90AF909F908F907F906F9087
:1001C0005F904F903F902F9008950E9414D45FCC81
:1001D000FC01128213820895FC018381882311F0AF
:1001E00081E082830895FC01828181111282089549
:1001F000CF93DF93DC01FC01EB55FE4F80819181B1
:100200000097C9F1019791838083ED01CC5ADF4FAC
:10021000FD01ED58FF4F8BE1019009928150E1F70C
:10022000FD01EE5AFF4FAF58BF4F8D919C91119732
:10023000A157B04091838083FD01ED58FF4F20E02E
:1002400030E0AD014B555E4F10C02F5F3F4FEF01C7
:10025000DF015F968BE10D9009928150E1F7858D6A
:10026000968D329791838083B196DA018D919C911E
:100270002817390750F3DF91CF910895FC0180E3EF
:1002800094E0918380838781882321F0CF010496B5
:100290000E9416480895CF92DF92EF92FF920F933B
:1002A0001F93DF93CF93CDB7DEB76F970FB6F89458
:1002B000DEBF0FBECDBF8C016B01095A1F4FD801A5
:1002C0008C9107551040882321F42FE2E22EF12C67
:1002D00003C090E5E92EF12CE00EF11E80E394E0DE
:1002E0009A8389831C821B8218861D82B7016C5FEA
:1002F0007F4FCE010596A60121E00E94234F88235F
:1003000091F5E6E8F3E1949108C08091C00085FF83
:10031000FCCF9093C600319694919923B1F7ECE805
:10032000F3E1949108C08091C00085FFFCCF9093C9
:10033000C600319694919923B1F709C08091C0000D
:1003400085FFFCCF0894C11CD11C9093C600F60118
:100350009081992399F78091C00085FFFCCF8AE0B6
:100360008093C6005AC0F801EB55FE4F20813181C1
:100370002A30310508F040C02F5F3F4F3183208382
:1003800021503040F90185E0EE0FFF1F8A95E1F71B
:10039000E21BF30BED58FF4FE00FF11F13C0AF014D
:1003A000415E5F4FBF018BE1DB010D90BD01DA01C2
:1003B0000D92AD018150C1F7929182913296968F44
:1003C000858F7F9721503040BFEF2E3F3B0739F795
:1003D000D801AD58BF4FF70134968BE101900D92D3
:1003E0008150E1F70F581F4FF70182819381D801A7
:1003F0008D939C9301571040D801AC5ABF4FFE011A
:1004000035968BE101900D928150E1F70E5A1F4F06
:100410008B819C81F80191838083CE0101960E949B
:100420003E816F960FB6F894DEBF0FBECDBFCF9161
:10043000DF911F910F91FF90EF90DF90CF90089583
:10044000EF92FF920F931F938C013EECE32E31E06D
:10045000F32EE80EF91EC7010E94C647C7010E948D
:100460001648F801108211821F910F91FF90EF90B2
:100470000895CF92DF92EF92FF920F931F93CF9345
:10048000DF937C016B01DB010D900020E9F78D010A
:1004900001501040061B170BEEECF1E0EE0EFF1EB4
:1004A000D7011C92E2E3FEEFEE0EFF1ECB016EE4DD
:1004B00070E00E94C611EC01009731F4F801319709
:1004C000EC0DFD1D86010EC060E270E00E94C611B9
:1004D0008C010F5F1F4FCE016AE270E00E94C611CF
:1004E000FC0131978DE081838AE082831382C7010A
:1004F00086539E4FB8010E9425508EEC91E0E80E85
:10050000F91ED7018C91882319F1E6EBF3E1949160
:1005100008C08091C00085FFFCCF9093C600319643
:1005200094919923B1F7EDEBF3E1949108C0809198
:10053000C00085FFFCCF9093C6003196949199231B
:10054000B1F78091C00085FFFCCF8AE08093C600A0
:10055000DF91CF911F910F91FF90EF90DF90CF909F
:100560000895CF93DF93EC018B81882309F43BC07E
:10057000E5EEF3E1949108C08091C00085FFFCCFC7
:100580009093C600319694919923B1F7CD57DD4FE2
:10059000488159816A817B81C358D24081E09AE0C9
:1005A0002AE030E00E94CA42E3EEF3E1949108C0F1
:1005B0008091C00085FFFCCF9093C6003196949146
:1005C0009923B1F7C558DD4F488159816A817B81F4
:1005D00081E09AE02AE030E00E94CA428091C000A7
:1005E00085FFFCCF12C0E3EDF3E1949108C0809148
:1005F000C00085FFFCCF9093C6003196949199235B
:10060000B1F78091C00085FFFCCF8AE08093C600DF
:10061000DF91CF9108952F923F924F925F926F9208
:100620007F928F929F92AF92BF92CF92DF92EF9282
:10063000FF920F931F93DF93CF93CDB7DEB7AC97A5
:100640000FB6F894DEBF0FBECDBF5C014B01FC01BD
:100650008381882309F438C1C50182539E4F0E94CB
:100660001648F50112821A8A1D8A198A188A80E3AF
:1006700094E09F878E875EE4C52ED12CCA0CDB1CCC
:100680002FE230E0A20EB31EF601B182A08221ED6E
:100690003FEFA20EB31EF40180818F3209F090C0AB
:1006A000C4016FE270E00E94C6117C010894E11C55
:1006B000F11C3E010894611C711C260142E1242EAC
:1006C000312C2C0E3D1E77C0C7016FE270E00E94F6
:1006D000C6116C01009709F481C0E816F90608F00C
:1006E0007DC08C010E191F09C301B701A8010E942A
:1006F000E611060D171DF8011082F30107C0809165
:10070000C00085FFFCCF31969093C600908199235D
:10071000B1F78091C00085FFFCCFFAE0F093C600EE
:10072000F201608171816115710519F460E070E07A
:1007300002C06C5F7F4FC101A30121E00E94234FE3
:10074000882371F5E1E2F4E1949108C08091C00042
:1007500085FFFCCF9093C600319694919923B1F711
:10076000FE01319607C08091C00085FFFCCF319615
:100770009093C60090819923B1F7EFE1F4E1949151
:1007800008C08091C00085FFFCCF9093C6003196D1
:1007900094919923B1F78091C00085FFFCCF8DC063
:1007A0002EE030E02C0F3D1FF201318320837601D3
:1007B0000894E11CF11CE114F10409F085CF0BC091
:1007C00080E590E0A80EB91EF601B182A08220EB70
:1007D0003FEFA20EB31ED82C092D02C0DE2C0F2D28
:1007E0008EE490E0A80EB91EF5018081918122EB84
:1007F0003FEFA20EB31E009719F480E090E001C015
:1008000004966D2D702F0E94F54F882339F1E1E198
:10081000F4E1949108C08091C00085FFFCCF9093D3
:10082000C600319694919923B1F78D2D902F9C019C
:10083000F90107C08091C00085FFFCCF31969093ED
:10084000C60090819923B1F783E892E0A80EB91E03
:10085000F501108211821282138232C0E9EFF3E1B6
:10086000949108C08091C00085FFFCCF9093C60092
:10087000319694919923B1F78D2D902F9C01F90118
:1008800007C08091C00085FFFCCF31969093C600D1
:1008900090819923B1F7E7EFF3E1949108C080913B
:1008A000C00085FFFCCF9093C600319694919923A8
:1008B000B1F78091C00085FFFCCF8AE08093C6002D
:1008C000CE010E960E943E81AC960FB6F894DEBF24
:1008D0000FBECDBFCF91DF911F910F91FF90EF9091
:1008E000DF90CF90BF90AF909F908F907F906F9050
:1008F0005F904F903F902F900895BF92CF92DF92DC
:10090000EF92FF920F931F93CF93DF938C01EB0134
:100910008FE28993EE24E394FF2475EAC72E71E0F9
:10092000D72EC00ED11E6FE1B62E14C0FB9CC001A5
:1009300011248D589F4F800F911FBE010E9428489F
:1009400002C02196E3948881882319F08CE88E15E3
:10095000C0F7F3942F2D30E0F601808191812817A4
:10096000390720F3E7FC07C0C80182539E4FBE0140
:100970000E94284801C01882DF91CF911F910F91EA
:10098000FF90EF90DF90CF90BF9008952F923F920D
:100990004F925F926F927F928F929F92AF92BF928F
:1009A000CF92DF92EF92FF920F931F93DF93CF933B
:1009B000CDB7DEB7AD970FB6F894DEBF0FBECDBF93
:1009C0006C014B014DA7DC0113968C91882309F42F
:1009D0004AC3E1EDF1E0CE0EDF1ED6018C91EFE2CD
:1009E000FEEFCE0EDF1E882309F419C1222309F081
:1009F000E1C029EE31E0C20ED31ED6018C91E7E1B1
:100A0000FEEFCE0EDF1E882371F1E6EBF3E1949149
:100A100008C08091C00085FFFCCF9093C60031963E
:100A200094919923B1F7E9EFF4E1949108C0809192
:100A3000C00085FFFCCF9093C60031969491992316
:100A4000B1F781E09AE061E070E04AE050E00E9496
:100A50001E438091C00085FFFCCF8AE08093C600D2
:100A60000E94FB1A00C3E6E8F3E1949108C080916C
:100A7000C00085FFFCCF9093C600319694919923D6
:100A8000B1F7E0EEF4E1949108C08091C00085FFD9
:100A9000FCCF9093C600319694919923B1F7F4015D
:100AA00007C08091C00085FFFCCF31969093C600AF
:100AB00090819923B1F7E5EDF4E1949108C080911C
:100AC000C00085FFFCCF9093C60031969491992386
:100AD000B1F7C6012EEE31E0C20ED31EB6010E9460
:100AE0007D844BEF5FEFC40ED51ED6019C91E7E1EC
:100AF000FEEFCE0EDF1E8DE8989FF0011124E2512B
:100B0000FE4FEC0DFD1D07C08091C00085FFFCCF9E
:100B100031969093C60090819923B1F7EFECF4E100
:100B2000949108C08091C00085FFFCCF9093C600CF
:100B3000319694919923B1F723E832E0C20ED31E87
:100B4000D6014D915D916D917C91EDE7FDEFCE0E5B
:100B5000DF1E81E09AE02AE030E00E94CA428091E4
:100B6000C00085FFFCCF8AE08093C600A6014751F4
:100B70005E4FDA012C91E22FF0E0EE0FFF1FEE0F37
:100B8000FF1FEC0DFD1DE651FE4F83E892E0C80EFD
:100B9000D91ED6014D905D906D907C908DE79DEFB4
:100BA000C80ED91E40825182628273822F5FDA01A1
:100BB0002C932FC0E6E8F3E1949108C08091C00027
:100BC00085FFFCCF9093C600319694919923B1F79D
:100BD000EEEBF4E1949108C08091C00085FFFCCF5A
:100BE0009093C600319694919923B1F7F40107C010
:100BF0008091C00085FFFCCF31969093C600908114
:100C00009923B1F78091C00085FFFCCF8AE08093E3
:100C1000C600C60182539E4F0E94164839C0E9EEB5
:100C2000F1E0CE0EDF1ED6011C92E7E1FEEFCE0E04
:100C3000DF1EE6E8F3E1949108C08091C00085FFD3
:100C4000FCCF9093C600319694919923B1F7EDEAC9
:100C5000F4E1949108C08091C00085FFFCCF90938F
:100C6000C600319694919923B1F7F40107C08091A1
:100C7000C00085FFFCCF31969093C60090819923E8
:100C8000B1F78091C00085FFFCCF8AE08093C60059
:100C9000D60112961C921A8A1D8A198A188A80E334
:100CA00094E09F878E87FEE4AF2EB12CAC0CBD1C68
:100CB000EFE2F0E0CE0EDF1ED501CD92DC92E1ED49
:100CC000FFEFCE0EDF1ED4018C918F3209F090C061
:100CD000C4016FE270E00E94C6117C010894E11C1F
:100CE000F11C3E010894611C711C2501E2E12E2ECD
:100CF000312C2C0E3D1E77C0C7016FE270E00E94C0
:100D0000C6115C01009709F481C0E816F90608F0E5
:100D10007DC08C010E191F09C301B701A8010E94F3
:100D2000E611060D171DF8011082F30107C080912E
:100D3000C00085FFFCCF31969093C6009081992327
:100D4000B1F78091C00085FFFCCFFAE0F093C600B8
:100D5000D2016D917C916115710519F460E070E02C
:100D600002C06C5F7F4FC101A30121E00E94234FAD
:100D7000882371F5E9E9F4E1949108C08091C000FD
:100D800085FFFCCF9093C600319694919923B1F7DB
:100D9000FE01319607C08091C00085FFFCCF3196DF
:100DA0009093C60090819923B1F7E7E9F4E194911B
:100DB00008C08091C00085FFFCCF9093C60031969B
:100DC00094919923B1F78091C00085FFFCCF1BC19E
:100DD0002EE030E02C0F3D1FF2013183208375019E
:100DE0000894E11CF11CE114F10409F085CF0BC05B
:100DF00040E550E0C40ED51ED501CD92DC92E0EB6B
:100E0000FFEFCE0EDF1E082DF92C01C00E2DF601CE
:100E1000E25BFF4F2DA5222309F4B1C060817181EF
:100E20006115710519F460E070E002C06C5F7F4FDE
:100E3000C60182539E4F402F5F2D21E00E94234F19
:100E4000882309F46CC04FED51E0C40ED51ED601C5
:100E50004D915D916D917C91ECE9F0E0CE0EDF1E3D
:100E6000D6014D935D936D937C931397E5E8FDEF69
:100E7000CE0EDF1EE9E8F4E1949108C08091C00035
:100E800085FFFCCF9093C600319694919923B1F7DA
:100E9000802F9F2D9C01F90107C08091C00085FF24
:100EA000FCCF31969093C60090819923B1F7E1E889
:100EB000F4E1949108C08091C00085FFFCCF90932D
:100EC000C600319694919923B1F781E09AE02AE027
:100ED00030E00E94CA428091C00085FFFCCF8AE0CA
:100EE0008093C60023E832E0C20ED31ED6011D92C5
:100EF0001D921D921C921397E3E7F4E1949108C0B0
:100F00008091C00085FFFCCF9093C60031969491EC
:100F10009923B1F78091C00085FFFCCF99C0EFE520
:100F2000F4E1949108C08091C00085FFFCCF9093BC
:100F3000C600319694919923B1F7802F9F2D9C0183
:100F4000F90107C08091C00085FFFCCF31969093D6
:100F5000C60090819923B1F7EDE5F4E1949108C0C2
:100F60008091C00085FFFCCF9093C600319694918C
:100F70009923B1F78091C00085FFFCCF44C0608108
:100F800071816115710519F460E070E002C06C5F59
:100F90007F4FC60182539E4F402F5F2D26E50E9452
:100FA000234F882309F033C0E9E4F4E1949108C0A9
:100FB0008091C00085FFFCCF9093C600319694913C
:100FC0009923B1F7802F9F2D9C01F90107C08091D3
:100FD000C00085FFFCCF31969093C6009081992385
:100FE000B1F7E7E4F4E1949108C08091C00085FF77
:100FF000FCCF9093C600319694919923B1F78091DC
:10100000C00085FFFCCF8AE08093C60028C081E045
:10101000F6018083E5E3F4E1949108C08091C0007B
:1010200085FFFCCF9093C600319694919923B1F738
:10103000F40107C08091C00085FFFCCF31969093EA
:10104000C60090819923B1F78091C00085FFFCCF45
:101050008AE08093C600802F9F2D0E9405D4CE0188
:101060000E960E943E81AD960FB6F894DEBF0FBE7D
:10107000CDBFCF91DF911F910F91FF90EF90DF9047
:10108000CF90BF90AF909F908F907F906F905F9028
:101090004F903F902F900895EF92FF920F931F93E0
:1010A000CF93DF93EC010E94836B8E0107511E4F9B
:1010B000D8018C919EECE92E91E0F92EEC0EFD1EEC
:1010C0008823A1F1C7010E941648F8016081615090
:1010D00060838DE8689FB001112462517E4F6C0FD0
:1010E0007D1FCE0141E021E00E94C684D801EC9131
:1010F000F0E0EE0FFF1FEE0FFF1FEC0FFD1FE6519C
:10110000FE4F4081518162817381CD57DD4F48830D
:1011100059836A837B83C358D240C7010E94FC462F
:101120008B81882369F081E08A830AC00E94606B0A
:10113000C7010E9416481A828AE793E10E94AB40D9
:10114000DF91CF911F910F91FF90EF900895FC01D7
:1011500081E08183CF0140E021E00E94C6840895B0
:10116000EF92FF920F931F93CF93DF938C01FC01BB
:10117000138286A9882321F0C801C3960E941648CD
:1011800027EAE22E21E0F22EE00EF11EC70160E018
:1011900045E30E94C045882309F5E6E8F3E1949110
:1011A00008C08091C00085FFFCCF9093C6003196A7
:1011B00094919923B1F7EAE6F5E1949108C0809102
:1011C000C00085FFFCCF9093C6003196949199237F
:1011D000B1F78091C00085FFFCCF7DC0E801C45508
:1011E000DE4FCE01B70141E00E94BA50882341F59D
:1011F000CE01B70140E00E94BA50882309F5E6EB22
:10120000F3E1949108C08091C00085FFFCCF9093DA
:10121000C600319694919923B1F7E7E5F5E19491F1
:1012200008C08091C00085FFFCCF9093C600319626
:1012300094919923B1F78091C00085FFFCCF4BC0FA
:10124000C801C396BE010E94174B882309F5E6EB3F
:10125000F3E1949108C08091C00085FFFCCF90938A
:10126000C600319694919923B1F7E7E4F5E19491A2
:1012700008C08091C00085FFFCCF9093C6003196D6
:1012800094919923B1F78091C00085FFFCCF23C0D2
:1012900081E0F8018383E6E8F3E1949108C080914E
:1012A000C00085FFFCCF9093C6003196949199239E
:1012B000B1F7ECE3F5E1949108C08091C00085FF9F
:1012C000FCCF9093C600319694919923B1F7809109
:1012D000C00085FFFCCF8AE08093C600D801AC5ADD
:1012E000BF4FF801F3968BE101900D928150E1F729
:1012F000F80181A992A90E5A1F4FF80191838083AA
:1013000002551040C8018F96025B1F4FF801918370
:101310008083DF91CF911F910F91FF90EF900895FF
:101320002F923F924F925F926F927F929F92AF92D5
:10133000BF92CF92DF92EF92FF920F931F93DF93B2
:10134000CF93CDB7DEB7CC55D0400FB6F894DEBF03
:101350000FBECDBF6C01662311F527E832E0C20E47
:10136000D31ED6018C91E9E7FDEFCE0EDF1E882358
:1013700009F4E2C02FE732E0C20ED31ED601ED9091
:10138000FD900D911C91E1E8FDEFCE0EDF1E0E9455
:10139000DE14E616F7060807190708F4CDC027E89B
:1013A00032E0C20ED31ED6011C92E9E7FDEFCE0E4D
:1013B000DF1ED60113968C91882341F4C6010E944A
:1013C000B088F6018381882309F4B6C000D000D02C
:1013D000EDB7FEB731967E010894E11CF11CADB764
:1013E000BEB71296FC92EE9211978DEA93E1938329
:1013F0008283D6019D968D919C919E97958384833F
:101400000E94F5118701EDB7FEB736960FB6F89436
:10141000FEBF0FBEEDBF570108C0D8018C9190E010
:101420000E9464E4F80181938F01F501019000208E
:10143000E9F73197EA19FB09802F8E198E176CF3A3
:1014400063E3A62EB12CAC0CBD1CC50140E050E0FE
:1014500060E070E00E94FC4699245DE3E52EF12CEB
:10146000EC0EFD1E2E010894411C511C4FE1642E10
:10147000712C6C0E7D1E36EA232E33E1332E42C0D2
:10148000D8018C9190E00E9464E4F80181938F016F
:10149000F70101900020E9F73197EE19FF09802F3D
:1014A0008E198E176CF327968FAD27978E3751F1D3
:1014B000C701B20145E050E00E94D811009711F534
:1014C00000D000D0EDB7FEB73196ADB7BEB71296DB
:1014D0007C926E92119733822282558244820E94BE
:1014E000F511EDB7FEB736960FB6F894FEBF0FBEF6
:1014F000EDBFC3010E94244182EA93E10E94AB4008
:1015000099249394C501B70140E050E00E94334A0A
:10151000181614F48701BCCF992041F48FEF9FEF88
:10152000D6019E969C938E939D9706C0F60185A545
:1015300096A5019696A785A7C45ADF4F0FB6F894D3
:10154000DEBF0FBECDBFCF91DF911F910F91FF90F6
:10155000EF90DF90CF90BF90AF909F907F906F9073
:101560005F904F903F902F9008952F923F924F920F
:101570005F926F927F928F929F92AF92BF92CF9223
:10158000DF92EF92FF920F931F93DF93CF93CDB72C
:10159000DEB7CF58D0400FB6F894DEBF0FBECDBF38
:1015A0008C013B016A0184E090E0C80ED91EF8016D
:1015B0007196C757DF4FF983E883C958D040C801F7
:1015C0000496CA57DF4F99838883C658D040C857BE
:1015D000DF4F1882C858D040B6E6EB2EF12CEC0E47
:1015E000FD1EF7013B96C557DF4FF983E883CB58C3
:1015F000D040A8E88A2EA2E09A2E800E911EF9E82B
:10160000AF2EF2E0BF2EA00EB11EEEE02E2E312C3A
:101610002C0E3D1E77E4472E512C4C0E5D1EC20150
:101620000496C357DF4F99838883CD58D040E6E8AE
:10163000F3E19491C157DF4F9883CF58D04049C10F
:10164000F7018385282F30E0A9014871507040319F
:10165000510509F04CC1F4019081913009F447C162
:10166000923009F444C1F701DE0111969081903265
:1016700039F08E2F8E19883011F48EE28D939D9360
:101680003196C557DF4F88819981CB58D040E817F4
:10169000F90761F71C921E86F3018081882329F4E3
:1016A000C10164E573E00E94BB11C101B3010E9456
:1016B000BB11C101BE016F5F7F4F0E94BB11C10111
:1016C00064E573E00E94BB111CA61FA61BA61AA608
:1016D00080E394E099A788A7CE018C96B601AE016D
:1016E0004F5F5F4F21E00E94234F882309F03EC0E7
:1016F000F40180818823D1F5C157DF4F9881CF58FD
:10170000D040E6E8F3E108C08091C00085FFFCCF3F
:101710009093C600319694919923B1F7E6E5F3E0F2
:1017200007C08091C00085FFFCCF31969093C60022
:1017300090819923B1F78091C00085FFFCCFFAE03A
:10174000F093C600FE01319607C08091C00085FF6E
:10175000FCCF31969093C60090819923B1F7809188
:10176000C00085FFFCCF8AE08093C600C357DF4FDF
:10177000A881B981CD58D040FE01BC968BE1019083
:101780000D928150E1F78AA59BA5F2019383828394
:1017900080E394E091838083C801B101A2010E949B
:1017A000B58AC2010E943E81CE0188960E943E8188
:1017B00090C0953E09F48DC09E3209F48AC09F35D1
:1017C00009F487C0F8019189992331F09E3209F418
:1017D00080C09F3509F47DC023FD7BC080E040318F
:1017E000510509F481E0F80184A7882349F4F70141
:1017F0008085873409F06DC081858E3709F469C012
:10180000CA57DF4FA881B981C658D040F7018081FF
:10181000803241F08E2F8E19883011F48EE28D9334
:1018200080818D933196C557DF4F88819981CB5840
:10183000D040E817F90759F71C92F40180818823FA
:1018400029F5F30107C08091C00085FFFCCF3196D8
:101850009093C60090819923B1F7CA57DF4FE88172
:10186000F981C658D04007C08091C00085FFFCCFE9
:1018700031969093C60090819923B1F78091C00072
:1018800085FFFCCFFAE0F093C60023C0813039F425
:10189000F501808191810196918380831AC0823005
:1018A000C1F4C857DF4FF881C858D0402F2F30E01F
:1018B000F5018081918128173907F1F0C857DF4F72
:1018C000F881C858D040FF5FC857DF4FF883C85829
:1018D000D040C601B701C757DF4F48815981C95869
:1018E000D0400E94334A18160CF4AACE05C0F70166
:1018F0009081992309F05DCFC157DF4F0FB6F8945F
:10190000DEBF0FBECDBFCF91DF911F910F91FF9032
:10191000EF90DF90CF90BF90AF909F908F907F908F
:101920006F905F904F903F902F900895EF92FF92AD
:101930000F931F93DF93CF93CDB7DEB76F970FB69B
:10194000F894DEBF0FBECDBF7C018C01025B1F4F40
:10195000805B9F4FF8019183808328E832E0E20E9C
:10196000F31E21E0F70121937F011182108227E706
:101970003DEFE20EF31E049640E050E060E070E0C0
:101980000E94FC46F80120813181DE011596F901A3
:1019900034968BE101900D928150E1F7F90182813B
:1019A00093819C838B8380E394E09A838983C7012E
:1019B00069E673E08E010F5F1F4FA8010E94B58A90
:1019C000C8010E943E81F701E757FD4F8081918158
:1019D0006F960FB6F894DEBF0FBECDBFCF91DF91EB
:1019E0001F910F91FF90EF900895EF92FF920F9348
:1019F0001F93DF93CF93CDB7DEB76F970FB6F894F1
:101A0000DEBF0FBECDBF7C018C01025B1F4F805B30
:101A10009F4FF8019183808328E832E0E20EF31EA5
:101A200022E0F701208328E73DEFE20EF31EF701E5
:101A3000E757FD4F60831182049640E050E060E07C
:101A400070E00E94FC46F80120813181DE0115968C
:101A5000F90134968BE101900D928150E1F7F90183
:101A6000828193819C838B8380E394E09A83898332
:101A7000C70169E673E08E010F5F1F4FA8010E9446
:101A8000B58AC8010E943E816F960FB6F894DEBFFA
:101A90000FBECDBFCF91DF911F910F91FF90EF90BF
:101AA0000895EF92FF920F931F93DF93CF93CDB7DB
:101AB000DEB76F970FB6F894DEBF0FBECDBF7C01C7
:101AC00088E892E0E80EF91EF701108288E79DEFA2
:101AD000E80EF91E87010D5C1F4FC80140E050E081
:101AE00060E070E00E94FC46DE011596F8018BE193
:101AF00001900D928150E1F7F70181A992A99C8391
:101B00008B8380E394E09A838983C70169E673E05D
:101B10008E010F5F1F4FA8010E94B58AC8010E9465
:101B20003E816F960FB6F894DEBF0FBECDBFCF914A
:101B3000DF911F910F91FF90EF9008950F931F93E6
:101B4000CF93DF93DC01D3961C92D397D6961C9249
:101B5000D697D2961C921E92D19780E394E0D096AD
:101B60009C938E939F97AC5ABF4F1C9213961C92D6
:101B7000A755B040FD01E05BFF4FAE5ABF4F119635
:101B80001C921E92A255B04091838083ED01C159F1
:101B9000DF4FFE0120E030E0482F148217821382CD
:101BA000128240839183215E3F4F7F9681E02633EE
:101BB000380799F7A855BE4F89E18C9313961C926C
:101BC00058961C921B961C9213961C92A15DB140D4
:101BD000FD01E653FE4FA453BE4F11961C921E9278
:101BE00040839183A155BF4F1D921D921D921C925F
:101BF000139718961D921D921D921C921397A3582D
:101C0000B24012961C92129713961C9213971C9234
