:100000000C94BE190C94E9190C94E9190C94E91993
:100010000C94E9190C94E9190C94E9190C94E91958
:100020000C94E9190C94E9190C94E9190C94E91948
:100030000C94E9190C946B1A0C94E9190C94E919B5
:100040000C94E9190C94C9840C94E9190C94E919DD
:100050000C94E9190C94E9190C946D8D0C94CA1A3E
:100060000C94E9190C94385A0C94E9190C94E91978
:100070000C94E9190C94E9190C94E9190C94E919F8
:100080000C94E9190C94E9190C94E9190C94E919E8
:100090000C94E9190C94E9190C94E9190C941A9F21
:1000A0000C94E9190C94E9190C94E9190C94E919C8
:1000B0000C94E9190C94E9190C94E9190C94E919B8
:1000C0000C94E9190C94E9190C94E9190C94E919A8
:1000D0000C94E9190C94E9190C94E9190C94E91998
:1000E0000C94E919084AD73B3BCE016E84BCBFFD96
:1000F000C12F3D6C74319ABD56833DDA3D00C77FF8
:1001000011BED9E4BB4C3E916BAAAABE0000008090
:100110003F05A84CCDB2D44EB93836A9020C50B91F
:10012000918688083CA6AAAA2ABE000000803F0249
:1001300000002100240027002A002D003000330099
:1001400001010000040107010A010000220025004E
:1001500028002B002E0031003400020100000501B0
:1001600008010B01000020002300260029002C00BC
:100170002F003200000100000301060109010505FE
:100180000505070508080808020202020A0A08080D
:10019000040404040101010101010101030303033B
:1001A00003030303040707070C0C0C0C0C0C0C0CCA
:1001B0000202020206060606060606060B0B0B0BDB
:1001C0000B0B0B0B01021020200808102040102000
:1001D000408002010201080402010102040810200B
:1001E0004080804020100804020180040201804009
:1001F0002010080402010804020101020408102072
:10020000408001020408102040800000090A020812
:100210000B0C0D07060304010000000000000000A5
:1002200000000000000000000000000000000000CE
:1002300000000000000011100F000000000000008E
:1002400000000000000000000000000000000000AE
:100250004D383420582059205A2045006563686F76
:100260003A0043616E6E6F7420656E746572207320
:1002700075626469723A20004D3234004D32332089
:100280002573006175746F25692E67004572726F62
:10029000723A006572726F722077726974696E6764
:1002A00020746F2066696C6500436172642065721A
:1002B000726F723A004E6F74205344207072696EF0
:1002C00074696E67002F005344207072696E746900
:1002D0006E67206279746520002E0044656C657439
:1002E000696F6E206661696C65642C2046696C6577
:1002F0003A200046696C652064656C657465643AF3
:10030000002E006F70656E206661696C65642C203C
:1003100046696C653A200057726974696E6720748B
:100320006F2066696C653A20002E006F70656E2044
:100330006661696C65642C2046696C653A20002E04
:10034000006F70656E206661696C65642C2046697B
:100350006C653A200046696C652073656C65637452
:100360006564002053697A653A200046696C65200F
:100370006F70656E65643A20002E006F70656E20A8
:100380006661696C65642C2046696C653A2000538F
:10039000442063617264206F6B006F70656E526FF2
:1003A0006F74206661696C656400766F6C756D654D
:1003B0002E696E6974206661696C6564005344201F
:1003C000696E6974206661696C006563686F3A00E4
:1003D00048617264636F6465642044656661756C2E
:1003E000742053657474696E6773204C6F61646523
:1003F000640053746F7265642073657474696E670A
:10040000732072657472696576656400204400200B
:1004100049002020204D33303120500050494420E5
:1004200073657474696E67733A00205A002059002E
:1004300020204D323036205800486F6D65206F66A1
:100440006673657420286D6D293A00204500205A96
:100450000020580020420020540020204D3230352A
:10046000205300416476616E636564207661726931
:1004700061626C65733A20533D4D696E2066656517
:10048000647261746520286D6D2F73292C20543D92
:100490004D696E2074726176656C20666565647264
:1004A00061746520286D6D2F73292C20423D6D6984
:1004B0006E696D756D207365676D656E7420746906
:1004C0006D6520286D73292C20583D6D6178696D0C
:1004D000756D205859206A65726B20286D6D2F73D9
:1004E000292C20205A3D6D6178696D756D205A2048
:1004F0006A65726B20286D6D2F73292C2020453D75
:100500006D6178696D756D2045206A65726B202874
:100510006D6D2F73290020540020204D323034207F
:100520005300416363656C65726174696F6E3A2054
:10053000533D616363656C65726174696F6E2C20F5
:10054000543D7265747261637420616363656C65A8
:10055000726174696F6E00204500205A00205900B6
:1005600020204D3230312058004D6178696D756D15
:1005700020416363656C65726174696F6E20286DDC
:100580006D2F7332293A00204500205A002059006F
:1005900020204D3230332058004D6178696D756DE3
:1005A0002066656564726174657320286D6D2F73B4
:1005B000293A00204500205A0020590020204D39BA
:1005C0003220580053746570732070657220756E08
:1005D00069743A0053657474696E67732053746F5D
:1005E000726564006563686F3A004572726F723AB3
:1005F000005072696E7465722073746F70706564F8
:100600002064756520746F206572726F72732E207E
:1006100046697820746865206572726F7220616E19
:100620006420757365204D39393920746F207265E7
:1006300073746172742E202854656D7065726174D4
:100640007572652069732072657365742E20536519
:1006500074206974206166746572207265737461B8
:100660007274696E6729005072696E7465722068D1
:10067000616C7465642E206B696C6C282920636141
:100680006C6C656421006F6B00526573656E643A33
:1006900020002200556E6B6E6F776E20636F6D6D5C
:1006A000616E643A20220020423A300020423A3102
:1006B000006F6B20523A002200556E6B6E6F776EA2
:1006C00020636F6D6D616E643A2022007A5F6D6108
:1006D000783A2000795F6D61783A2000785F6D6923
:1006E0006E3A20005A3A00593A0020436F756E74F2
:1006F00020583A2000453A005A3A00593A00583AF0
:10070000004649524D574152455F4E414D453A4D85
:1007100061726C696E20556C74696D616B657232C3
:100720003B20537072696E7465722F6772626C2021
:100730006D617368757020666F722067656E362014
:100740004649524D574152455F55524C3A68747470
:10075000703A2F2F6769746875622E636F6D2F551D
:100760006C74696D616B65722050524F544F434FEA
:100770004C5F56455253494F4E3A312E30204D4131
:100780004348494E455F545950453A556C74696D1C
:10079000616B65722045585452554445525F434F32
:1007A000554E543A310A0020423A0020453A00544E
:1007B0003A0020573A0020453A00543A002042407F
:1007C0003A0020403A00202F0020423A00202F001B
:1007D0006F6B20543A002569206D696E2C202569C5
:1007E0002073656300456E642066696C65206C69E2
:1007F000737400426567696E2066696C65206C6978
:1008000073740000000000000066430000664300AF
:10081000000000000000000000000000006643002F
:100820000066430000664300006643000066430024
:100830000066430000E0400000E0400000E040FFB0
:100840000101256920686F757273202569206D6923
:100850006E7574657300446F6E65207072696E7496
:10086000696E672066696C65005072696E746572A6
:100870002073746F707065642064756520746F20D8
:100880006572726F72732E204669782074686520D5
:100890006572726F7220616E6420757365204D39C8
:1008A000393920746F20726573746172742E202838
:1008B00054656D706572617475726520697320721C
:1008C000657365742E2053657420697420616674A5
:1008D00065722072657374617274696E6729006F46
:1008E0006B004E6F204C696E65204E756D626572AF
:1008F000207769746820636865636B73756D2C205D
:100900004C617374204C696E653A20004E6F204331
:100910006865636B73756D2077697468206C696EA8
:1009200065206E756D6265722C204C617374204C6D
:10093000696E653A2000636865636B73756D206D41
:1009400069736D617463682C204C617374204C6909
:100950006E653A20004C696E65204E756D62657259
:10096000206973206E6F74204C617374204C696E23
:1009700065204E756D6265722B312C204C6173744D
:10098000204C696E653A20004D31313000446F6E65
:100990006520736176696E672066696C652E006FED
:1009A0006B004D3239002020506C616E6E657242D2
:1009B000756666657242797465733A2000204672E6
:1009C0006565204D656D6F72793A20004A756C201F
:1009D0002033203230313400436F6D70696C6564B0
:1009E0003A200056657273696F6E2031342E3037AD
:1009F0002E3000207C20417574686F723A20004AC6
:100A0000756C20203320323031342031353A343681
:100A10003A323700204C61737420557064617465FC
:100A2000643A2000312E302E30004D61726C696EB8
:100A3000200020536F66747761726520526573657C
:100A40007400205761746368646F67205265736532
:100A500074002042726F776E206F75742052657338
:100A60006574002045787465726E616C2052657300
:100A7000657400506F77657255700073746172749D
:100A8000002200656E717565696E67202200220084
:100A9000656E717565696E672022006563686F3ADF
:100AA0000020746F6F206C6F6E67206578747275AC
:100AB00073696F6E2070726576656E746564002070
:100AC000636F6C6420657874727573696F6E2070E3
:100AD000726576656E7465640000002110422063C3
:100AE000308440A550C660E770088129914AA16B07
:100AF000B18CC1ADD1CEE1EFF1311210027332529F
:100B000022B5529442F772D662399318837BB35A56
:100B1000A3BDD39CC3FFF3DEE3622443342004016E
:100B200014E664C774A44485546AA54BB5288509A6
:100B300095EEE5CFF5ACC58DD5533672261116303E
:100B400006D776F6669556B4465BB77AA7199738F6
:100B500087DFF7FEE79DD7BCC7C448E5588668A77E
:100B6000784008611802282338CCC9EDD98EE9AF46
:100B7000F9488969990AA92BB9F55AD44AB77A96DE
:100B80006A711A500A333A122AFDDBDCCBBFFB9E96
:100B9000EB799B588B3BBB1AABA66C877CE44CC5AE
:100BA0005C222C033C600C411CAEED8FFDECCDCDE6
:100BB000DD2AAD0BBD688D499D977EB66ED55EF47E
:100BC0004E133E322E511E700E9FFFBEEFDDDFFC36
:100BD000CF1BBF3AAF599F788F8891A981CAB1EBDB
:100BE000A10CD12DC14EF16FE18010A100C230E304
:100BF000200450254046706760B9839893FBA3DAC0
:100C0000B33DC31CD37FE35EF3B1029012F322D253
:100C1000323542145277625672EAB5CBA5A895894F
:100C2000856EF54FE52CD50DC5E234C324A01481A3
:100C3000046674476424540544DBA7FAB79987B85F
:100C4000975FE77EF71DC73CD7D326F2369106B0F3
:100C50001657667676154634564CD96DC90EF92F5F
:100C6000E9C899E9898AB9ABA94458654806782743
:100C700068C018E1088238A3287DCB5CDB3FEB1EFF
:100C8000FBF98BD89BBBAB9ABB754A545A376A1693
:100C90007AF10AD01AB32A923A2EFD0FED6CDD4D8F
:100CA000CDAABD8BADE89DC98D267C076C645C45E3
:100CB0004CA23C832CE01CC10C1FEF3EFF5DCF7C9F
:100CC000DF9BAFBABFD98FF89F176E367E554E7433
:100CD0005E932EB23ED10EF01E7C3C3E5E2B3D3F1D
:100CE0002F5B5D3B2C2A225C0045313A20004530C9
:100CF0003A20005A3A2000593A2000583A20004D34
:100D000053312C4D53322050696E730A0024F40481
:100D1000D9201BC40C5C0E9804C4095F02650771DE
:100D200001F405F900FB04B30048048700C103691E
:100D3000005803550003034500BE023A0084023107
:100D40000053022A002902250004022000E4011CAD
:100D500000C8011900AF01170098011400840113A5
:100D600000710110006101100051010E0043010DDE
:100D70000036010B002B010B0020010B00150109AF
:100D8000000C01090003010800FB000800F3000843
:100D900000EB000700E4000600DE000600D80006B5
:100DA00000D2000600CC000500C7000500C2000507
:100DB00000BD000400B9000400B5000400B1000447
:100DC00000AD000400A9000400A5000300A2000378
:100DD000009F0004009B00030098000300950002A0
:100DE0000093000300900003008D0002008B0003BD
:100DF00000880002008600020084000300810002D7
:100E0000007F0002007D0002007B000200790002EA
:100E100000770001007600020074000200720001F9
:100E200000710002006F0002006D0001006C000202
:100E3000006A00010069000200670001006600010D
:100E40000065000100640002006200010061000111
:100E500000600001005F0002005D0001005C000115
:100E6000005B0001005A0001005900010058000118
:100E70000057000100560001005500010054000118
:100E80000053000000530001005200010051000116
:100E900000500001004F0001004E0000004E000114
:100EA000004D0001004C0001004B0000004B000110
:100EB000004A00010049000100480000004800010C
:100EC0000047000100460000004600010045000008
:100ED0000045000100440001004300000043000100
:100EE00000420000004200010041000000410001FA
:100EF00000400001003F0000003F0001003E0000F4
:100F0000003E0001003D0000003D0001003C0000EB
:100F1000003C0000003C0001003B0000003B0001E1
:100F2000003A0000003A00010039000000390001D9
:100F300000380000003800000038000100370000D1
:100F400000370001003600000036000000360001C6
:100F500000350000003500000035000100340000BD
:100F600000340000003400010033000000330000B2
:100F700000330001003200000032000000320001A6
:100F8000003100000031000000310001003000009D
:100F90000030000000300001002F0000002F000092
:100FA000002F0000002F0001002E0000002E000086
:100FB000002E0001002D0000002D0000002D00007B
:100FC000002D0001002C0000002C0000002C00006F
:100FD000002C0001002B0000002B0000002B000063
:100FE000002B0001002A0000002A0000002A000057
:100FF000002A00010029000000290000002900004B
:10100000002900000029000100280000002800003D
:101010000028000000280000002800010027000030
:101020000027000000270000002700000027000123
:101030000026000000260000002600000026000018
:10104000002600010025000000250000002500000A
:1010500000250000002500000025000100240000FC
:1010600000240000002400000024000000240001EF
:1010700000230000002300000023000000230000E4
:1010800000230000002300000023000100220000D4
:1010900000220000002200000022000000220000C8
:1010A00000220001002100000021000000210000BA
:1010B00000210000002100000021000000210001AB
:1010C00000200000002000000020000000200000A0
:1010D000002000000020000000200000002000018F
:1010E000001F0000001F0000001F0000001F000084
:1010F000001F0000001F0000001F0001001E000074
:10110000001E0000001E0000001E00000024F4D499
:101110003050C38E20C2A24017828B7011127A9178
:101120000D816CD90AA861E108C75866076151436F
:10113000061E4B5D05C145A7041A411104093D98DF
:1011400003713931034036DB0265339102D43054E8
:1011500002802E1D02632CEE01752AC501B028A065
:1011600001102781018F2564012B244B01E02234DB
:1011700001AC211F018D200D01801FFC00841EED9C
:1011800000971DDF00B81CD200E61BC600201BBC68
:1011900000641AB200B219A8000A19A0006A1899CE
:1011A00000D117910040178B00B516840031167ED0
:1011B00000B31579003A157300C7146F0058146A0C
:1011C00000EE1366008813630025135E00C7125BF0
:1011D000006C12570015125400C111510070114FCC
:1011E0000021114B00D61049008D104700461044D5
:1011F0000002104200C00F4000800F3E00420F3C32
:1012000000060F3B00CB0E3800930E37005C0E3506
:1012100000270E3400F30D3200C10D3100900D3067
:1012200000600D2E00320D2D00050D2C00D90C2B69
:1012300000AE0C2900850C29005C0C2700350C271A
:10124000000E0C2600E80B2400C40B2400A00B2386
:10125000007D0B23005A0B2100390B2100180B20B5
:1012600000F80A1F00D90A1E00BB0A1E009D0A1DB5
:1012700000800A1D00630A1C00470A1B002C0A1B81
:1012800000110A1A00F7091A00DD091900C409192A
:1012900000AB091900920917007B091800630917B0
:1012A000004C09160036091600200916000A091517
:1012B00000F5081500E0081400CC081400B8081464
:1012C00000A4081400900813007D0812006B081396
:1012D00000580812004608120034081100230811B3
:1012E000001208110001081100F0071000E00710BB
:1012F00000D0071000C0071000B0070F00A10710B2
:101300000091070E0083070F0074070F0065070E9A
:101310000057070E0049070E003B070D002E070E71
:101320000020070D0013070D0006070D00F9060C3D
:1013300000ED060D00E0060C00D4060C00C8060CFB
:1013400000BC060C00B0060C00A4060B0099060CAD
:10135000008D060B0082060B0077060B006C060B57
:101360000061060A0057060B004C060A0042060AF6
:101370000038060A002E060A0024060A001A060A89
:10138000001006090007060A00FD050900F405091A
:1013900000EB050900E2050900D9050900D005099F
:1013A00000C7050900BE050900B5050800AD050820
:1013B00000A50509009C050800940508008C050897
:1013C00000840508007C050800740508006C05070A
:1013D00000650508005D050700560508004E050775
:1013E00000470507004005080038050700310507DC
:1013F000002A050700230507001C0506001605073F
:10140000000F0507000805060002050700FB04069B
:1014100000F5040700EE040600E8040600E20407F5
:1014200000DB040600D5040600CF040600C904064C
:1014300000C3040600BD040600B7040600B104059D
:1014400000AC040600A6040600A00405009B0406E8
:101450000095040500900406008A04050085040533
:1014600000800406007A0405007504050070040578
:10147000006B04050066040500610405005C0405BA
:101480000057040500520405004D040500480405FA
:1014900000430405003E0404003A04050035040539
:1014A00000300404002C0405002704040023040574
:1014B000001E0404001A04040016040500110404AC
:1014C000000D0404000904050004040400000404E1
:1014D00000FC030400F8030400F4030400F0030418
:1014E00000EC030400E8030400E4030400E0030448
:1014F00000DC030400D8030400D4030400D0030478
:1015000000CC030400C8030300C50303006563683F
:101510006F3A00205A3A0020593A0020583A0065A4
:101520006E6473746F7073206869743A200045723A
:10153000726F723A0054656D706572617475726590
:1015400020686561746564206265642073776974DE
:1015500063686564206F66662E204D415854454D82
:101560005020747269676765726564202121003AB2
:101570002045787472756465722073776974636846
:101580006564206F66662E204D494E54454D5020AF
:101590007472696767657265642021003A20457836
:1015A000747275646572207377697463686564200A
:1015B0006F66662E204D415854454D502074726917
:1015C000676765726564202100202D20496E766171
:1015D0006C6964206578747275646572206E756DCF
:1015E00062657220210000000000300E0100C00E74
:1015F0000A00500F1400D00F1E0060102800E010E9
:10160000320070113C00F0114600701250000013BF
:101610005A008013640000146E00901478001015B6
:10162000820090158C00101696009016A0001017DE
:10163000AA009017B4001018BE009018C800101926
:10164000D2009019DC00101AE600801AF000001B8E
:10165000FA00801B0401F01B0E01701C1801F01C25
:101660002201601D2C01E01D3601501E4001D01EDC
:101670004A01401F5401B01F5E0130206801A020C4
:10168000720110217C0190218601002290016026C8
:10169000F401902A5802802EBC0250322003E0351B
:1016A00084035039E803803C4C0450494420417580
:1016B000746F74756E652066696E69736865642100
:1016C0002050757420746865204B702C204B692065
:1016D000616E64204B6420636F6E7374616E74730B
:1016E00020696E746F20436F6E66696775726174EE
:1016F000696F6E2E6800504944204175746F74758F
:101700006E65206661696C6564212074696D656F22
:1017100075740020403A006F6B20543A006F6B20C4
:10172000423A00504944204175746F74756E6520CB
:101730006661696C6564212054656D7065726174C1
:1017400075726520746F6F206869676800204B644C
:101750003A2000204B693A2000204B703A200020AC
:10176000436C617369632050494420002054753AEA
:101770002000204B753A2000206D61783A2000202F
:101780006D696E3A200020643A200020626961731E
:101790003A20004D41494E54454E414E4345004D7F
:1017A0004154455249414C005052494E54005072E8
:1017B000696E74696E672077697468205553422E8C
:1017C0002E2E00737570706F727440756C74696D35
:1017D000616B65722E636F6D00436F6E746163742D
:1017E0003A00536166657479206369726375697440
:1017F0000054656D702073656E736F7220424544AE
:101800000054656D702073656E736F72004552529F
:101810004F52202D2053544F505045440080150600
:10182000060606FEFEFEFEFC00000000000000FCB6
:10183000FEFEFEFC0000000EFEFEFEFE0000E0FCD0
:10184000FEFEFCE0E0000000CECECE000000C0C0F6
:10185000C0C0C0C08000000000000080C0C0800088
:1018600000000000008080C0C0C0C0C0C0C0808038
:101870000000000006FEFEFEFE0000000080C0C06A
:10188000C00000000000008080C0C0C080808000D8
:10189000000000C0C0C0C00080C0C0C0C080000048
:1018A0000000007FFFFFFFFF80000000000080FFBE
:1018B000FFFFFFFF00000000FFFFFFFF000000FF31
:1018C000FFFFFF0000000000FFFFFF00000081F1AC
:1018D000FFFF3F0F3FFFFCF0F0FCFF3F0F3FFFFE1D
:1018E000F880000000C1E1F1F17131010183FFFFD7
:1018F000FFFC000000FFFFFFFF000C3EFFFFF7C3EF
:1019000001000000FCFEFF8703113131333F3F3FF0
:101910001E000001FFFFFFFF07030101010100009E
:1019200000000000010307070F0F0F0F0F0F0F0735
:1019300007070F0F06000000070F0F070000000742
:101940000F0F0700000000000F0F0F0000060F0F21
:10195000070100000001070F0F0701000000010749
:101960000F0F06000003070F0F0E0E060703070FE9
:101970000F07000000070F0F0700000000030F0F04
:101980000F060000000307070F0E0E0E0E0E0E06C8
:10199000000000000F0F0F0F00000000000000808B
:1019A00015090909F90101010103FE000000000009
:1019B000FE0301010103FE001FF101010101FFF01F
:1019C0001E030101031E10F000FF313131FF00E062
:1019D00020202020202060C080000080C0602020C7
:1019E00060C000000000C040602020202020202097
:1019F0006040C080000FF901010101FF0080C0605C
:101A0000202020E000000080C040602020206040B6
:101A100040C08000E020202020E0602020202060C6
:101A2000C0000000FF80000000007FC0808080C0F8
:101A30007F0000000000FF0000FF00000000FF0129
:101A4000FF00000000FF010100FF000000FF00C3D5
:101A50007A0E0000C070C000030E0E0300C070C0FC
:101A60000001077CC000E3321A0A0A8ACAFAC67C5F
:101A700000000003FE00FF00000000FF73C1000033
:101A8000083CE68300FE03010078FCEE4A4E4C4021
:101A90004040613F03FE00000000F80C0602020215
:101AA000030000000003060C08181010101010109E
:101AB000101808181010190F000F181010180F0028
:101AC0000F181010180F0000001F1010101F0F1912
:101AD0001010180E0300030E181010180E03000348
:101AE0000E181010190F070C181010111119080CEE
:101AF000181010180F000F181010180F0001071CF5
:101B0000101010190F01070C0818101111111111E4
:101B100011190F00001F101010101F00000000000E
:101B2000002F4000000000000000000000000080C6
:101B30008080C0E0FEFF191E989898181818181891
:101B4000189E9F991E38F0E0000000000000000081
:101B500000000000000000000000003CFEFFFF99B4
:101B6000F1E1C3FFFF000063636360606060606079
:101B70006363630000FFFF7C38000000000000008A
:101B80000000000080C060B0D8D81CFCFF3F0F8F61
:101B9000CFC7C7C7C6C6C6C6C6C6C6C6C6C6C6C6D9
:101BA000C6C6C6C6C7C7C4CC0C1CF8F870C00000B7
:101BB000000EFFF92A2B2B2828FCFFFF0000FFFF57
:101BC000FFFFFFFFFFBFB717B5BDB500B5B5F717EE
:101BD000FFBFBFFFFFFFFF0000FFFFFCFF0700C0CC
:101BE000F0FFFFFDDD1D19193FFFFF0000FFFFFFA4
:101BF000FFFFFFFFFBF1FBFBEAEEC0EEEAFAF0FAB3
:101C0000FAFFFFFFFFFF0000FFFF0F1FF8E00003D8
:101C1000070F0F1B1819FBFEFFFFF0E0C0C1E1F139
:101C2000F1F1F1F1F1F1F1F1F1F1F9F9F9F9F9F974
:101C3000797979F1F010181F0706030300000000FE
:101C400000000000F8FFEFDFBF7FFFFFFF404143D0
:101C5000437F212020217FFFFFFF3FB091D1DFD0C4
:101C600050581F1FF0F000000000000000000000AE
:101C7000000003070F1E3D7B77EED1DEDECF4B4B1E
:101C80006969686868603F3F37373735343010100E
:101C900018181A1B0F060000000000100FFC0E0F92
:101CA000CFCFCFCECCCCCCCCCCCCDCC0C007707EE0
:101CB0007F7F7F7F7F7F7F7F7F7F7F0F017120FF0F
:101CC000FFFFFFFFFFFFFFFFFFFCE0000000000041
:101CD0000000000000E0FCFFFFFFFFFFFFFFFFFF31
:101CE000FF000000000000000000000000000000F5
:101CF0000000000000000000000000FFFFFFFFFFE9
:101D0000FFFF0000000000000000000000000000D5
:101D100000000000000000000000000000000000C3
:101D200000000000000000000000000000000000B3
:101D3000FFFFFFFFFFFFFF7FFFFFFFFFFFF88000B8
:101D400000000080F0FFFFFFFFFF3FFFFFFFFFFFEE
:101D5000FFFF00000030F8F8FCFC7E7E7E3E3E3E39
:101D60003E7E7EFEFEFCFCF8E0800000FFFFFFFFF1
:101D7000FFFFFF000080C0E0F0F8FCFEFE7E3E1E8C
:101D80000E06C0E0F0F8FCFCFE7E3E3E3E3E3E7E8F
:101D9000FEFCFCF8F0C0800000FEFEFEFEFEFEFE33
:101DA000FEFFFFFFFFFFFFFF00031FFFFFFFFFFF1F
:101DB000FCE0E0FCFFFFFFFFFF1F0100FFFFFFFF54
:101DC000FFFFFF0000C0E0F0F0F8F8FC7C7C3C3C3A
:101DD0003E1E1E1EFFFFFFFFFFFFFF0000FFFFFF75
:101DE000FFFFFFFFFEFFFFFFFFFFFFFFF1C08000CF
:101DF0000000FFFFFFFFFFFFFF3C3C3C3C3C3C3C46
:101E00003C3C3F3F3F3F3F3F0000000000000000E0
:101E10000000FFFFFFFFFFFFFF00000000073FFF84
:101E2000FFFFFFFFFFFFFF3F0700000000FFFFFF76
:101E3000FFFFFFFF00003F7FFFFFFFFFFCFCF8F804
:101E4000F87C7C3C3EFFFFFFFFFFFFFF0000FFFF31
:101E5000FFFFFFFFFF0301000003071F7FFFFFFFDE
:101E6000FEFCF0E38F1F3F3F7F7FFEFCF8F8F0F0B1
:101E7000F0F8F8FCFC7E7E3C300000FEFEFEFEFE2C
:101E8000FEFEFE43414E43454C0020736563002037
:101E90006D696E0020686F75720020686F757273CF
:101EA00000000000000000005F00000007000700C5
:101EB000147F147F14242A7F2A12231308646236A5
:101EC000495522500005030000001C22410000413A
:101ED000221C00082A1C2A0808083E080800503066
:101EE00000000808080808006060000020100804CE
:101EF000023E5149453E00427F4000426151494601
:101F00002141454B311814127F1027454545393C76
:101F10004A4949300171090503364949493606499C
:101F200049291E003636000000563600000008140D
:101F300022411414141414412214080002015109FE
:101F400006324979413E7E1111117E7F4949493659
:101F50003E414141227F4141221C7F494949417F05
:101F6000090901013E414151327F0808087F0041C3
:101F70007F41002040413F017F081422417F4040C3
:101F800040407F0204027F7F0408107F3E414141B0
:101F90003E7F090909063E4151215E7F0919294604
:101FA000464949493101017F01013F4040403F1FFF
:101FB0002040201F7F2018207F631408146303042F
:101FC000780403615149454300007F414102040800
:101FD000102041417F0000040201020440404040C3
:101FE00040000102040020545454787F484444388F
:101FF0003844444420384444487F385454541808E2
:102000007E090102081454543C7F080404780044FB
:102010007D40002040443D00007F10284400417F67
:1020200040007C041804787C080404783844444454
:10203000387C14141408081414187C7C0804040850
:102040004854545420043F4440203C4040207C1CD1
:102050002040201C3C4030403C44281028440C5078
:1020600050503C4464544C44000836410000007F0A
:102070000000004136080008082A1C08081C2A082D
:10208000086275696C64706C6174652E006F6620FF
:1020900061646A757374696E6720796F7572007414
:1020A00068726F756768207468652070726F636509
:1020B000737300492077696C6C20677569646520CB
:1020C000796F750043414E43454C00434F4E544990
:1020D0004E554500473120462569205A256920582C
:1020E00025692059256900473238205A3020583058
:1020F0002059300066726F6D2074686520627569C2
:102100006C64706C6174652E0061206D696C6C6923
:102110006D65746572206177617900756E74696CA4
:1021200020746865206E6F7A7A6C6520697300523E
:102130006F746174652074686520627574746F6E65
:1021400000342F323100434F4E54494E5545004321
:102150004F4E54494E554500473120462569205A77
:1021600030004731204625692058256920592569C6
:1021700000473120462569205A350066726F6D2070
:10218000746865206275696C64706C6174652E009A
:1021900069732061206D696C6C696D65746572206E
:1021A000617761790073637265772074696C6C2064
:1021B000746865206E6F7A7A6C65005475726E2053
:1021C0006C656674206275696C64706C617465001E
:1021D000352F323100434F4E54494E55450047315B
:1021E00020462569205A300047312046256920586D
:1021F00025692059256900473120462569205A352F
:102200000066726F6D20746865206275696C647019
:102210006C6174652E0069732061206D696C6C6956
:102220006D6574657220617761790073637265779B
:102230002074696C6C20746865206E6F7A7A6C65A6
:10224000005475726E207269676874206275696CDB
:1022500064706C61746500362F323100434F4E5408
:10226000494E554500746865206275696C64706CF0
:10227000617465206C6576656C2E007061706572A6
:1022800020746F2066696E652D74756E65006E6FC3
:1022900077207573652061207368656574206F66AB
:1022A0000052657065617420746869732073746589
:1022B000702C2062757400372F323100434F4E541A
:1022C000494E554500473120462569205A30004780
:1022D0003120462569205825692059256900473154
:1022E00020462569205A3500626974207265736939
:1022F0007374616E63652E00756E74696C20796FFE
:1023000075206665656C2061006275696C64706C2F
:1023100061746520616E64206E6F7A7A6C6500531B
:102320006C696465206120706170657220626574FB
:102330007765656E00382F323100434F4E54494E59
:10234000554500434F4E54494E554500746865202D
:102350006C65667420636F726E65722E2E2E00524D
:102360006570656174207468697320666F720039E6
:102370002F323100434F4E54494E55450074686525
:1023800020726967687420636F726E65722E2E2EDC
:1023900000526570656174207468697320666F729D
:1023A0000031302F323100434F4E54494E554500D5
:1023B000444F4E4500746F20696E73657274206DD2
:1023C0006174657269616C2E00746865206E657851
:1023D0007420737465702069730074686520627579
:1023E000696C64706C617465004E6F77207468610D
:1023F00074207765206C6576656C65640031312FDB
:10240000323100434F4E54494E5545004D3834004B
:102410004731204631323030302058313130205968
:102420003130006D6174657269616C206C6F61643C
:10243000696E67007072696E7468656164206865B2
:102440006174696E6720666F7200506C65617365B8
:1024500020776169742C0031322F32310061626F54
:10246000766520746865206172726F772E00796FCF
:10247000757220556C74696D616B6572322C0066E3
:10248000726F6D207468652072656172206F6600DE
:10249000496E73657274206E6577206D6174657224
:1024A00069616C0031332F323100434F4E54494E35
:1024B0005545004C6F6164696E67206D617465728B
:1024C00069616C2E2E2E0031342F32310066726F0E
:1024D0006D206E6F7A7A6C652E2E2E006D6174659C
:1024E0007269616C20657869747300507573682037
:1024F000627574746F6E207768656E0031352F32A7
:102500003100434F4E54494E554500556C74696D2A
:10251000616B6572322E00696E736572746564203A
:10252000696E2074686520006D6174657269616C04
:1025300020796F752068617665004E6578742C206F
:1025400073656C656374207468650031362F3231B1
:102550000052454144590031372F32310041425336
:1025600000504C4100697320746869732072696778
:1025700068743F00414253206173206D617465723D
:1025800069616C2C00596F752068617665206368FD
:102590006F73656E0031382F3231004E4F00594550
:1025A00053006974206973207573696E672E006F1C
:1025B00066206D6174657269616C006B6E6F777314
:1025C0002077686174206B696E64004E6F772079A4
:1025D0006F757220556C74696D616B657232003174
:1025E000392F323100434F4E54494E5545006D61ED
:1025F0006B652061203344205072696E742100495C
:10260000276D207265616479206C657427730032D0
:10261000302F32310041524520594F55205245410B
:1026200044593F00746F207072696E742069742180
:1026300000616E6420707265737320746865206237
:102640007574746F6E006F6E207468652053442D2E
:10265000636172640053656C6563742061207072FD
:10266000696E742066696C650032312F3231004C1E
:1026700045542753205052494E54005265616469B5
:102680006E6720636172642E2E2E0032312F32313C
:1026900000796F757220556C74696D616B6572326B
:1026A0002E2E2E00746861742063616D6520776939
:1026B000746800506C6561736520696E736572742F
:1026C0002053442D636172640032312F323100692E
:1026D0007320746869732072696768743F00504C96
:1026E00041206173206D6174657269616C2C0059C1
:1026F0006F7520686176652063686F73656E003161
:10270000382F3231004E4F005945530047323820A0
:102710005A3000627574746F6E20746F20636F6E30
:1027200074696E756500556C74696D616B657221B5
:1027300020507265737320746865007374617274DD
:102740007570206F6620796F75720057656C636FC6
:102750006D6520746F2074686520666972737400FB
:10276000312F323100434F4E54494E5545006120C0
:1027700066697273742072756E2077697A6172640B
:102780002E0077616C6B20796F75207468726F759D
:10279000676800666972737420737461727475700F
:1027A00020492077696C6C00426563617573652010
:1027B000746869732069732074686500322F323140
:1027C00000434F4E54494E55450047312046256938
:1027D000205A256900473238205A3000676F696EE9
:1027E0006720746F20646F2074686174206E6F7747
:1027F0002E0061646A7573746D656E74732C207736
:102800006520617265007765206E65656420746F70
:1028100020646F20736F6D6500416674657220746B
:1028200072616E73706F72746174696F6E00332FB2
:10283000323100434F4E54494E55450047312046F2
:102840002569205A2569205825692059256900479E
:102850003238205830205930004300432F00436C59
:1028600069636B20746F2072657475726E004275B7
:10287000696C64706C6174652074656D702E3A00CB
:1028800052455455524E00414456414E4345440032
:102890004255494C442D7C504C4154450047312011
:1028A0005A343000473238205A3000473238205AE4
:1028B00030004732382058302059300041445641CA
:1028C0004E43454400746F2064656661756C743FC7
:1028D0000052657365742065766572797468696EF7
:1028E00067004E4F00594553006D003A0050726921
:1028F0006E74696E673A003A004D616368696E658F
:10290000206F6E20666F723A0052657475726E00A9
:1029100056657273696F6E2031342E30372E300059
:102920004A756C20203320323031342031353A342E
:10293000363A33350052657475726E006D4100434E
:10294000757272656E742045006D41004375727238
:10295000656E74205A006D410043757272656E7425
:1029600020582F59006D6D2F736563004D617820DD
:102970007370656564205A006D6D2F736563004D3B
:1029800061782073706565642059006D6D2F7365E3
:1029900063004D61782073706565642058006D6D2B
:1029A0002F73656300582F59204A65726B003030D1
:1029B0006D6D2F7365635E3200416363656C657294
:1029C0006174696F6E004D4F54494F4E006D410068
:1029D0006D41006D41006D6D2F736563006D6D2F4E
:1029E000736563006D6D2F736563006D6D2F736587
:1029F00063006D6D2F7365635E32003F3F3F0043A0
:102A0000757272656E7420450043757272656E74DE
:102A1000205A0043757272656E7420582F59004D0C
:102A20006178207370656564205A004D6178207369
:102A3000706565642059004D617820737065656428
:102A4000205800582F59204A65726B004163636516
:102A50006C65726174696F6E003C2052455455522A
:102A60004E006D6D2F7365630052657472616374FF
:102A7000207370656564006D6D00526574726163EA
:102A800074206C656E67746800524554524143541B
:102A9000494F4E006D6D2F736563006D6D003F3FB4
:102AA0003F005265747261637420737065656400E1
:102AB00052657472616374206C656E677468003C63
:102AC0002052455455524E004300432F00436C6939
:102AD000636B20746F2072657475726E00526F7430
:102AE00061746520746F2065787472756465004E3A
:102AF0006F7A7A6C652074656D7065726174757239
:102B0000653A004300432F00436C69636B20746F88
:102B10002072657475726E004E6F7A7A6C652074DF
:102B2000656D70657261747572653A002500427258
:102B3000696768746E657373004C45440025003FF7
:102B40003F3F0020476C6F77207768656E20646F89
:102B50006E6500204F6E207768696C652070726921
:102B60006E74696E670020416C77617973204F66DF
:102B7000660020416C77617973204F6E0042726964
:102B80006768746E657373003C2052455455524E0D
:102B9000003F3F3F00466163746F72792072657336
:102BA00065740052756E74696D6520737461747319
:102BB0000056657273696F6E004D6F74696F6E2099
:102BC00073657474696E67730052657472616374BF
:102BD000696F6E2073657474696E6773004D6F76EC
:102BE00065206D6174657269616C00496E73657210
:102BF00074206D6174657269616C005261697365FE
:102C0000206275696C64706C617465004C6F7765E7
:102C100072206275696C64706C61746500486F6DD8
:102C2000652068656164004865617475702062752F
:102C3000696C64706C6174650048656174757020BE
:102C40006E6F7A7A6C65004C4544207365747469C4
:102C50006E6773003C2052455455524E004142531A
:102C600000504C41004731204625692058256920F5
:102C700059256900473238205830205930006D619D
:102C800074657269616C20696E73657274696F6EC8
:102C90000048656174696E67207072696E7468655A
:102CA000616420666F7200473238205830205930F6
:102CB0000052455455524E0053455454494E4753C3
:102CC000004348414E4745004D4154455249414C0F
:102CD0000053656C6563746564206D617465726929
:102CE000616C3A004F4B0025004D6174657269615B
:102CF0006C20666C6F7700250046616E20737065EE
:102D00006564006D6D004D6174657269616C20448D
:102D100069616D657465720043004275696C647029
:102D20006C6174652054656D702E00430054656DB0
:102D30007065726174757265004D41544552494128
:102D40004C0050524553455453004E6577207072E5
:102D500065736574003C2052455455524E00250061
:102D600025006D6D00430043003F3F3F0053746FEB
:102D700072652061732070726573657400466C6FB4
:102D80007720250046616E004469616D6574657247
:102D900000486561746564206275696C64706C617B
:102DA00074650054656D7065726174757265003C80
:102DB0002052455455524E004D6F64696679207417
:102DC00068652073657474696E67730025004661D9
:102DD0006E3A2000430043002500466C6F773A00AE
:102DE0006D6D00437573746F6D697A65003C205298
:102DF000455455524E00666F72206D61746572695C
:102E0000616C2072656D6F76616C004865617469F4
:102E10006E67207072696E746865616400526576D1
:102E2000657273696E67206D6174657269616C00AB
:102E300052656D6F7665206D6174657269616C00B5
:102E400043414E43454C00524541445900473120CF
:102E500046256920582569205925690047323820C0
:102E600058302059300061626F76652074686520A3
:102E70006172726F772E00796F7572206D61636871
:102E8000696E652C0066726F6D20746865206261E2
:102E9000636B73696465206F6600496E7365727455
:102EA000206E6577206D6174657269616C004341C5
:102EB0004E43454C00524541445900466F7277617C
:102EC0007264696E67206D6174657269616C00631C
:102ED0006F6D6573206F757420746865206E6F7AEE
:102EE0007A6C6500576169742074696C6C206D613F
:102EF00074657269616C0043414E43454C00524514
:102F0000414459004D4154455249414C0025004629
:102F1000616E3A2000430043002500466C6F773A0B
:102F2000006D6D004300432F00436C69636B207498
:102F30006F2072657475726E004E6F7A7A6C6520C0
:102F400074656D70657261747572653A00534420E2
:102F5000434152440047312046313230303020580E
:102F6000352059313000473238003B464C41564FEE
:102F7000523A556C746947436F6465003B464C4157
:102F8000564F523A556C746947436F6465004E6FF3
:102F90002066696C657320666F756E6421004F4B07
:102FA000004F4B0052656164696E67206361726413
:102FB0002E2E2E00506C6561736520696E736572EC
:102FC000742063617264004E6F2053442D4341525C
:102FD0004421003C204241434B003C205245545583
:102FE000524E0066726F6D2074686520736C696361
:102FF00065722E0073657474696E672077697468F2
:103000002073657474696E67006F766572726964A7
:1030100065206D616368696E650054686973206638
:10302000696C652077696C6C0043414E43454C00E8
:10303000434F4E54494E5545004D383400473238C1
:103040000047312046256920453000473932204568
:10305000256900436F64653A0053442D63617264CF
:10306000210072656164696E67004572726F72203B
:103070007768696C650052455455524E20544F2074
:103080004D41494E00746865207072696E742E005F
:10309000596F752063616E2072656D6F76650050A3
:1030A00072696E742066696E6973686564004300B6
:1030B0004320005072696E74657220636F6F6C6993
:1030C0006E6720646F776E004241434B20544F205F
:1030D0004D454E550054696D65206C65667400540D
:1030E000696D65206C65667420756E6B6E6F776EAA
:1030F000004300430048656174696E67206275692A
:103100006C64706C617465004300430048656174D1
:10311000696E6700746F20636F6E74696E75650009
:10312000507265737320627574746F6E00507269AB
:103130006E74696E673A0041424F52540054554EC6
:10314000450041626F727420746865207072696E08
:10315000743F004E4F005945530025004272696785
:1031600068746E6573730025004D617465726961E2
:103170006C20666C6F7700250046616E2073706569
:1031800065640025005072696E7420737065656413
:10319000004D3630312058313020593230205A30ED
:1031A000204C3330004D36303120583130205932E8
:1031B00030205A32204C3330004D363031205831D7
:1031C0003020593230205A3230204C3330005455A0
:1031D0004E45006D6D2F73656300526574726163B7
:1031E00074207370656564006D6D00526574726162
:1031F0006374206C656E6774680052455452414395
:1032000054494F4E006D6D2F736563006D6D003F27
:103210003F3F00526574726163742073706565642A
:103220000052657472616374206C656E6774680027
:103230003C2052455455524E0025002500250043A0
:103240000043004300430025004C4544204272697E
:103250006768746E65737300526574726163746934
:103260006F6E004D6174657269616C20666C6F777A
:103270000046616E207370656564004275696C6418
:10328000706C6174652074656D702E0054656D708E
:103290006572617475726500537065656400506194
:1032A0007573696E672E2E2E00526573756D6500FD
:1032B00043616E206E6F742070617573650050619C
:1032C000757365003C2052455455524E005072654E
:1032D000706172696E6720746F207072696E743AE3
:1032E0000048656174696E672075702E2E2E00414E
:1032F000424F52540054554E45004E6F20696E6641
:103300006F20617661696C61626C65006D006D00B3
:103310004D6174657269616C3A200054696D653A5B
:1033200020003B4D4154455249414C3A003B5449E1
:103330004D453A00466F6C64657200494E46494EF1
:103340004954594E414ECDCCCC3D0AD7233C17B7FA
:10335000D13877CC2B329595E6241FB14F0A000067
:1033600020410000C84200401C4620BCBE4CCA1B85
:103370000E5AAEC59D748A33C85A853311241FBEB8
:10338000CFEFD1E2DEBFCDBF00E00CBF14E0A0E084
:10339000B2E0E4E4F0ED01E00BBF02C007900D9253
:1033A000A631B107D9F717E1A6E1B4E001C01D923B
:1033B000A036B107E1F713E3CAE7D3E304C02297CD
:1033C000FE010E9412E8C637D107C9F704D00C9459
:1033D00005DF0C940000CF93DF9332D10E94B957E0
:1033E000C0E0D0E00E942B572097E1F30E9400003C
:1033F000F9CFCF92DF92EF92FF920F931F93CF936B
:10340000DF937C016B018A01C0E0D0E00FC0D601E0
:103410006D916D01D701ED91FC910190F081E02D4E
:10342000C7011995C80FD91F01501040011511058A
:1034300071F7CE01DF91CF911F910F91FF90EF9027
:10344000DF90CF9008958230B9F0833028F488233C
:1034500051F0813051F50AC0843011F18430E8F028
:10346000853019F520C010926E00089580916F008C
:103470008D7F80936F000895809170008D7F809381
:10348000700081E08093B0008091B100887F8460FB
:103490008093B1001092B3000895109271000895C6
:1034A0001092720008951092730008951F93182FC0
:1034B00080913B03811711F09FEF06C0EFE2F1E02E
:1034C00094918FEF80933B03892FBDDF812F60E0C4
:1034D000AAD21F9108951F920F920FB60F920BB6AA
:1034E0000F9211242F933F934F935F936F937F938A
:1034F0008F939F93AF93BF93EF93FF9380911604A5
:1035000090911704A0911804B09119040097A10597
:10351000B10551F1E0911A04F0911B048081909162
:103520001C04892780838091160490911704A09130
:103530001804B0911904181619061A061B06BCF4D3
:103540008091160490911704A0911804B091190469
:103550000197A109B1098093160490931704A093D1
:103560001804B093190403C080913B039FDFFF91BF
:10357000EF91BF91AF919F918F917F916F915F91EB
:103580004F913F912F910F900BBE0F900FBE0F9058
:103590001F9018951F920F920FB60F9211242F9320
:1035A0003F938F939F93AF93BF938091210490910A
:1035B0002204A0912304B0912404309125040196A3
:1035C000A11DB11D232F2D5F2D3720F02D57019602
:1035D000A11DB11D20932504809321049093220402
:1035E000A0932304B093240480911D0490911E04A1
:1035F000A0911F04B09120040196A11DB11D8093DC
:103600001D0490931E04A0931F04B0932004BF9147
:10361000AF919F918F913F912F910F900FBE0F907F
:103620001F9018958FB7F8942091210430912204AF
:1036300040912304509124048FBFB901CA01089519
:10364000789484B5826084BD84B5816084BD85B57D
:10365000826085BD85B5816085BDEEE6F0E0808144
:1036600081608083E1E8F0E0108280818260808365
:10367000808181608083E0E8F0E0808181608083E8
:10368000E1EBF0E0808184608083E0EBF0E080811A
:1036900081608083E1E9F0E08081826080838081C5
:1036A00081608083E0E9F0E0808181608083E1EAED
:1036B000F0E0808182608083808181608083E0EAA5
:1036C000F0E0808181608083E1E2F1E080818260CE
:1036D0008083808181608083E0E2F1E0808181608D
:1036E0008083EAE7F0E0808184608083808182606B
:1036F0008083808181608083808180688083109254
:10370000C10008951F93CF93DF93182FEB0161E061
:10371000D7D0209709F4CAC0CF3FD10509F4C9C05A
:10372000E12FF0E0E65FFD4F8491893009F466C037
:103730008A30B0F48430F1F1853040F4823059F1B0
:10374000833070F5813009F0AEC020C0873009F4B5
:1037500043C0883008F048C0863009F0A4C034C0A7
:103760008D3009F478C08E3038F48B3009F45AC0AB
:103770008C3008F066C04CC0803109F480C08131C3
:1037800009F487C08F3009F08EC06FC084B580689F
:1037900084BDC7BD91C084B5806284BDC8BD8CC0E6
:1037A00080918000806880938000D0938900C093CE
:1037B000880082C080918000806280938000D093D6
:1037C0008B00C0938A0078C08091B000806880939D
:1037D000B000C093B30070C08091B000806280934D
:1037E000B000C093B40068C080919000806880935E
:1037F0009000D0939900C09398005EC08091900093
:10380000806280939000D0939B00C0939A0054C034
:1038100080919000886080939000D0939D00C09329
:103820009C004AC08091A00080688093A000809195
:10383000A0008F7B8093A000D093A900C093A80024
:103840003BC08091A00080628093A000D093AB0029
:10385000C093AA0031C08091A00088608093A0002E
:10386000D093AD00C093AC0027C080912001806848
:1038700080932001D0932901C09328011DC080911D
:103880002001806280932001D0932B01C0932A01F4
:1038900013C080912001886080932001D0932D0176
:1038A000C0932C0109C0C038D1051CF4812F60E001
:1038B00002C0812F61E0B7D0DF91CF911F910895B1
:1038C000CF93DF93482F50E0CA018C539E4FFC01E9
:1038D000349142585E4FFA018491882369F190E057
:1038E000880F991FFC01E05DFE4FA591B491FC018A
:1038F000E65BFE4FC591D491662351F42FB7F8943F
:103900008C91932F909589238C93888189230BC068
:10391000623061F42FB7F8948C91932F909589239E
:103920008C938881832B88832FBF06C09FB7F89420
:103930008C91832B8C939FBFDF91CF910895893019
:1039400009F449C08A30A0F4843051F1853040F444
:10395000823079F1833000F5813009F063C026C0F0
:10396000873079F1883098F5863009F05BC025C042
:103970008D3009F442C08E3028F48B30B1F18C3098
:10398000C0F52DC0803109F442C0813109F445C031
:103990008F3009F047C037C0809180008F7703C017
:1039A000809180008F7D80938000089584B58F770B
:1039B00002C084B58F7D84BD08958091B0008F775B
:1039C00003C08091B0008F7D8093B00008958091F6
:1039D00090008F7707C0809190008F7D03C0809109
:1039E0009000877F8093900008958091A0008F774A
:1039F00007C08091A0008F7D03C08091A000877FC9
:103A00008093A0000895809120018F7703C080915A
:103A100020018F7D80932001089580912001877F70
:103A2000809320010895FF920F931F93F62E482F45
:103A300050E0CA01865F9D4FFC012491CA018C535E
:103A40009E4FFC01149142585E4FFA0104910023ED
:103A5000C1F0222311F0822F72DFE02FF0E0EE0F91
:103A6000FF1FE65BFE4FA591B4919FB7F894FF202E
:103A700021F48C911095812302C08C91812B8C9321
:103A80009FBF1F910F91FF900895AC01DB01FA01D8
:103A900090E02EE28C91803229F0983009F4219345
:103AA0008C9181939F5F11969B30A1F71082CA0180
:103AB0000895FC011282138210AA0895FC0180A9C6
:103AC000882319F081E0828313820895CF93DF93D6
:103AD000EC01FC01E955FE4F8081882309F461C0A7
:103AE00081508083DE01AA5ABF4FFE01EB58FF4F81
:103AF0008BE101900D928150E1F7FE01EC5AFF4FEE
:103B0000CD58DF4F88819981C357D04091838083FE
:103B100030E0BE0169557E4F3FC0832F90E0AC017D
:103B20004F5F5F4FDC01E5E0AA0FBB1FEA95E1F7AD
:103B3000A81BB90BAC0FBD1FFA0125E0EE0FFF1F4C
:103B40002A95E1F7E41BF50BEC0FFD1FAB58BF4FB7
:103B5000EB58FF4F2BE101900D922150E1F7FC0152
:103B600025E0EE0FFF1F2A95E1F7E81BF90BEC0F9C
:103B7000FD1FED58FF4FDA0185E0AA0FBB1F8A95A4
:103B8000E1F7A41BB50BAC0FBD1FAD58BF4F8D9116
:103B90009C91918380833F5FFB018081381708F4FB
:103BA000BCCFDF91CF910895FC018EE094E091832A
:103BB00080838781882321F0CF0104960C9440767E
:103BC00008950F931F938C010E94B3840E94AF83CA
:103BD000C80180539E4F0E944076F80112821382E2
:103BE00080E592E00E9446591F910F910895CF926F
:103BF000DF92EF92FF920F931F93DF93CF93CDB796
:103C0000DEB76F970FB6F894DEBF0FBECDBF8C0145
:103C10006B01075A1F4FD8018C910955104088231A
:103C200021F481E3E82EF12C03C0B2E5EB2EF12C58
:103C3000E00EF11E8EE094E09A8389831C821B8241
:103C400018861D82B7016C5F7F4FCE010596A601D5
:103C500021E00E94797D882391F5ECE5F2E09491D2
:103C600008C08091C00085FFFCCF9093C6003196BC
:103C700094919923B1F7E2E6F2E0949108C0809123
:103C8000C00085FFFCCF9093C60031969491992394
:103C9000B1F709C08091C00085FFFCCF0894C11C1A
:103CA000D11C9093C600F6019081992399F78091D9
:103CB000C00085FFFCCF8AE08093C60056C0F801A3
:103CC000E955FE4F80818A3008F03EC08F5F8083C7
:103CD000282F30E0C9010197FC01A5E0EE0FFF1F7E
:103CE000AA95E1F7E81BF90BEB58FF4FE00FF11F26
:103CF00021503040AF01415E5F4FBF018BE1DB01DE
:103D00000D90BD01DA010D92AD018150C1F7929184
:103D100082913296968F858F7F972115310541F7D5
:103D2000D801AB58BF4FF70134968BE101900D924B
:103D30008150E1F70D581F4FF70182819381D8011F
:103D40008D939C9303571040D801AA5ABF4FFE0190
:103D500035968BE101900D928150E1F70C5A1F4F7F
:103D60008B819C81F80191838083CE0101961CDFB9
:103D70006F960FB6F894DEBF0FBECDBFCF91DF9127
:103D80001F910F91FF90EF90DF90CF900895EF92E9
:103D9000FF920F931F938C0190EDE92E91E0F92E85
:103DA000E00EF11EC7010E94F175C7010E94407626
:103DB000F801108211821F910F91FF90EF900895EA
:103DC000CF92DF92EF92FF920F931F93CF93DF93E7
:103DD0007C016B01DB010D900020E9F78D010150A2
:103DE0001040061B170BE0EDF1E0EE0EFF1ED701B1
:103DF0001C92E0E3FEEFEE0EFF1ECB016EE470E0DE
:103E00000E94ACDFEC01009731F4F8013197EC0D22
:103E1000FD1D86010EC060E270E00E94ACDF8C01E7
:103E20000F5F1F4FCE016AE270E00E94ACDFFC0121
:103E300031978DE081838AE082831382C7018453A6
:103E40009E4FB8010E94737E80ED91E0E80EF91E4E
:103E5000D7018C91882319F1ECE8F2E0949108C025
:103E60008091C00085FFFCCF9093C600319694915D
:103E70009923B1F7E3E9F2E0949108C08091C00082
:103E800085FFFCCF9093C600319694919923B1F7AA
:103E90008091C00085FFFCCF8AE08093C600DF914F
:103EA000CF911F910F91FF90EF90DF90CF900895E9
:103EB000CF93DF93EC0188A9882309F43DC0E7EC98
:103EC000F2E0949108C08091C00085FFFCCF9093F0
:103ED000C600319694919923B1F7CD50DE4F4881B9
:103EE00059816A817B81C35FD14086E69AE02AE0EE
:103EF00030E00E945F5BE5ECF2E0949108C08091B5
:103F0000C00085FFFCCF9093C60031969491992311
:103F1000B1F7C551DE4F488159816A817B81CB5E03
:103F2000D14086E69AE02AE030E00E945F5B809113
:103F3000C00085FFFCCF12C0E5EBF2E0949108C011
:103F40008091C00085FFFCCF9093C600319694917C
:103F50009923B1F78091C00085FFFCCF8AE0809360
:103F6000C600C655DE4F68816623E1F0E9EAF2E05B
:103F7000949108C08091C00085FFFCCF9093C6004B
:103F8000319694919923B1F786E69AE070E04AE081
:103F900050E00E94AE5B8091C00085FFFCCF8AE0BC
:103FA0008093C600DF91CF9108952F923F924F9258
:103FB0005F926F927F928F929F92AF92BF92CF92B9
:103FC000DF92EF92FF920F931F93DF93CF93CDB7C2
:103FD000DEB7AD970FB6F894DEBF0FBECDBF5C0164
:103FE0004B014DA7FC0180A9882309F4E2C130ED03
:103FF000432E31E0532E4A0C5B1CC2010E944076D6
:10400000F501128213821A8A1D8A198A188A8EE093
:1040100094E09F878E8720E5C22ED12CCA0CDB1C32
:1040200081E390E0A80EB91EF601B182A0828FEC68
:104030009FEFA80EB91EF40180818F3209F08DC068
:10404000C4016FE270E00E94ACDF7C010894E11CC7
:10405000F11C3E010894611C711C160178C0C70157
:104060006FE270E00E94ACDF6C01009709F483C03E
:10407000E816F90608F07FC08C010E191F09C3016C
:10408000B701A8010E94CCDF060D171DF8011082B0
:10409000F30107C08091C00085FFFCCF319690935B
:1040A000C60090819923B1F78091C00085FFFCCFB5
:1040B000FAE0F093C600F10160817181611571052C
:1040C00019F460E070E002C06C5F7F4FCE01429651
:1040D000A30121E00E94797D882371F5EBE7F3E0ED
:1040E000949108C08091C00085FFFCCF9093C600DA
:1040F000319694919923B1F7FE01319607C08091D2
:10410000C00085FFFCCF31969093C6009081992323
:10411000B1F7E9E7F3E0949108C08091C00085FF12
:10412000FCCF9093C600319694919923B1F780917A
:10413000C00085FFFCCF37C18EE090E08C0F9D1F43
:10414000F1019183808376010894E11CF11C92E0D7
:10415000E916F10408F083CF0BC0E2E5F0E0AE0E03
:10416000BF1EF601B182A0828EEA9FEFA80EB91E93
:10417000082DF92C01C00E2DF501E05BFF4F9DA528
:10418000992309F4ADC0608171816115710519F43D
:1041900060E070E002C06C5F7F4FC201402F5F2D76
:1041A00021E00E94797D882309F46AC0E1EEF1E004
:1041B000AE0EBF1EF50140815181628173818AE09C
:1041C00090E0A80EB91EF50140835183628373838A
:1041D00085E19EEFA80EB91EEBE6F3E0949108C0CE
:1041E0008091C00085FFFCCF9093C60031969491DA
:1041F0009923B1F7802F9F2D9C01F90107C0809171
:10420000C00085FFFCCF31969093C6009081992322
:10421000B1F7E3E6F3E0949108C08091C00085FF18
:10422000FCCF9093C600319694919923B1F786E61E
:104230009AE02AE030E00E945F5B8091C00085FF39
:10424000FCCF8AE08093C600E3EFF1E0AE0EBF1E24
:10425000F5011082118212821382E5E5F3E0949158
:1042600008C08091C00085FFFCCF9093C6003196B6
:1042700094919923B1F78091C00085FFFCCF93C042
:10428000E1E4F3E0949108C08091C00085FFFCCF89
:104290009093C600319694919923B1F7802F9F2D6A
:1042A0009C01F90107C08091C00085FFFCCF3196C9
:1042B0009093C60090819923B1F7EFE3F3E09491D6
:1042C00008C08091C00085FFFCCF9093C600319656
:1042D00094919923B1F78091C00085FFFCCF63C012
:1042E000608171816115710519F460E070E002C0B0
:1042F0006C5F7F4FC201402F5F2D26E50E94797DC4
:10430000882381F5EBE2F3E0949108C08091C0002E
:1043100085FFFCCF9093C600319694919923B1F715
:10432000802F9F2D9C01F90107C08091C00085FF5F
:10433000FCCF31969093C60090819923B1F7E9E2C2
:10434000F3E0949108C08091C00085FFFCCF90936A
:10435000C600319694919923B1F78091C00085FFF2
:10436000FCCF21C081E0F5018083E7E1F3E0949187
:1043700008C08091C00085FFFCCF9093C6003196A5
:1043800094919923B1F7F40107C08091C00085FF93
:10439000FCCF31969093C60090819923B1F780911C
:1043A000C00085FFFCCF8AE08093C600CE010E9648
:1043B000FBDBAD960FB6F894DEBF0FBECDBFCF913D
:1043C000DF911F910F91FF90EF90DF90CF90BF9002
:1043D000AF909F908F907F906F905F904F903F90A5
:1043E0002F900895FC0181E08183CF0140E0DDCD75
:1043F0002F923F924F925F926F927F928F929F92F5
:10440000AF92BF92CF92DF92EF92FF920F931F93E2
:10441000DF93CF93CDB7DEB7AC970FB6F894DEBF7E
:104420000FBECDBF5C014B01FC0180A9882309F4BC
:1044300038C1C50180539E4F0E944076F50112821B
:1044400013821A8A1D8A198A188A8EE094E09F873F
:104450008E8750E5C52ED12CCA0CDB1C21E330E041
:10446000A20EB31EF601B182A0822FEC3FEFA20E86
:10447000B31EF40180818F3209F090C0C4016FE255
:1044800070E00E94ACDF7C010894E11CF11C3E014D
:104490000894611C711C260142E1242E312C2C0E43
:1044A0003D1E77C0C7016FE270E00E94ACDF6C0177
:1044B000009709F481C0E816F90608F07DC08C0168
:1044C0000E191F09C301B701A8010E94CCDF060D18
:1044D000171DF8011082F30107C08091C00085FF0D
:1044E000FCCF31969093C60090819923B1F78091CB
:1044F000C00085FFFCCFFAE0F093C600F2016081B6
:1045000071816115710519F460E070E002C06C5FA3
:104510007F4FC101A30121E00E94797D882371F5BD
:10452000E3E0F3E0949108C08091C00085FFFCCFE8
:104530009093C600319694919923B1F7FE0131967C
:1045400007C08091C00085FFFCCF31969093C600D4
:1045500090819923B1F7E1E0F3E0949108C0809154
:10456000C00085FFFCCF9093C600319694919923AB
:10457000B1F78091C00085FFFCCF8DC02EE030E008
:104580002C0F3D1FF2013183208376010894E11C3A
:10459000F11CE114F10409F085CF0BC082E590E035
:1045A000A80EB91EF601B182A0822EEA3FEFA20E3C
:1045B000B31ED82C092D02C0DE2C0F2D80E590E013
:1045C000A80EB91EF5018081918120EB3FEFA20E6C
:1045D000B31E009719F480E090E001C004966D2DA1
:1045E000702F0E94457E882339F1E3EFF2E0949129
:1045F00008C08091C00085FFFCCF9093C600319623
:1046000094919923B1F78D2D902F9C01F90107C04A
:104610008091C00085FFFCCF31969093C6009081B9
:104620009923B1F783EF91E0A80EB91EF50110822E
:1046300011821282138232C0EBEDF2E0949108C035
:104640008091C00085FFFCCF9093C6003196949175
:104650009923B1F78D2D902F9C01F90107C080910E
:10466000C00085FFFCCF31969093C60090819923BE
:10467000B1F7E9EDF2E0949108C08091C00085FFA8
:10468000FCCF9093C600319694919923B1F7809115
:10469000C00085FFFCCF8AE08093C600CE010E9655
:1046A00083DAAC960FB6F894DEBF0FBECDBFCF91C4
:1046B000DF911F910F91FF90EF90DF90CF90BF900F
:1046C000AF909F908F907F906F905F904F903F90B2
:1046D0002F900895EF92FF920F931F93CF93DF9344
:1046E0008C01FC0110AA80AD882321F0C801C59679
:1046F0000E94407669EAE62E61E0F62EE00EF11E99
:10470000C70160E045E30E941474882309F5ECE5D5
:10471000F2E0949108C08091C00085FFFCCF909397
:10472000C600319694919923B1F7EDEBF3E09491A3
:1047300008C08091C00085FFFCCF9093C6003196E1
:1047400094919923B1F78091C00085FFFCCF7DC083
:10475000E801C255DE4FCE01B70141E00E94107F53
:10476000882341F5CE01B70140E00E94107F8823E5
:1047700009F5ECE8F2E0949108C08091C00085FF53
:10478000FCCF9093C600319694919923B1F7EAEA51
:10479000F3E0949108C08091C00085FFFCCF909316
:1047A000C600319694919923B1F78091C00085FF9E
:1047B000FCCF4BC0C801C596BE010E941779882363
:1047C00009F5ECE8F2E0949108C08091C00085FF03
:1047D000FCCF9093C600319694919923B1F7EAE902
:1047E000F3E0949108C08091C00085FFFCCF9093C6
:1047F000C600319694919923B1F78091C00085FF4E
:10480000FCCF23C081E0F80180ABECE5F2E09491AD
:1048100008C08091C00085FFFCCF9093C600319600
:1048200094919923B1F7EFE8F3E0949108C0809157
:10483000C00085FFFCCF9093C600319694919923D8
:10484000B1F78091C00085FFFCCF8AE08093C6005D
:10485000D801AA5ABF4FF801F5968BE101900D924D
:104860008150E1F7F80183A994A90C5A1F4FF80170
:104870009183808304551040C801C196005B1F4F8F
:10488000F80191838083DF91CF911F910F91FF9069
:10489000EF9008952F923F924F925F926F927F9286
:1048A0009F92AF92BF92CF92DF92EF92FF920F93BF
:1048B0001F93DF93CF93CDB7DEB7CC55D0400FB663
:1048C000F894DEBF0FBECDBF6C01662311F527EF54
:1048D00031E0C20ED31ED6018C91E9E0FEEFCE0E80
:1048E000DF1E882309F4E7C02FEE31E0C20ED31E8D
:1048F000D601ED90FD900D911C91E1E1FEEFCE0E01
:10490000DF1E0E94121BE616F7060807190708F4B7
:10491000D2C027EF31E0C20ED31ED6011C92E9E0CF
:10492000FEEFCE0EDF1ED601D0968C91882339F48F
:10493000C601D0DEF60180A9882309F4BCC000D0EE
:1049400000D0EDB7FEB731967E010894E11CF11C52
:10495000ADB7BEB71296FC92EE92119783E892E043
:1049600093838283D6019E968D919C919F97958388
:1049700084830E94FBDF8701EDB7FEB736960FB642
:10498000F894FEBF0FBEEDBF570108C0D8018C914F
:1049900090E00E9410DFF80181938F01F5010190F2
:1049A0000020E9F73197EA19FB09802F8E198E173D
:1049B0006CF3A5E3AA2EB12CAC0CBD1CC50140E0E4
:1049C00050E060E070E00E9427759924FDE3EF2E2F
:1049D000F12CEC0EFD1E2E010894411C511CEFE140
:1049E0006E2E712C6C0E7D1E7CE7272E72E0372E0A
:1049F00042C0D8018C9190E00E9410DFF8018193B1
:104A00008F01F70101900020E9F73197EE19FF09B6
:104A1000802F8E198E176CF327968FAD27978E37C0
:104A200051F1C701B20145E050E00E94BEDF00979E
:104A300011F500D000D0EDB7FEB73196ADB7BEB7D7
:104A400012967C926E921197338222825582448212
:104A50000E94FBDFEDB7FEB736960FB6F894FEBFA7
:104A60000FBEEDBFC3010E94BF5988E792E00E94CC
:104A7000465999249394C501B70140E050E00E9443
:104A80003678181614F48701BCCF992041F48FEFC3
:104A90009FEFD6019F969C938E939E9706C0F6013A
:104AA00086A597A5019697A786A72AEA31E0C20EA8
:104AB000D31ED6011C92C45ADF4F0FB6F894DEBF46
:104AC0000FBECDBFCF91DF911F910F91FF90EF905F
:104AD000DF90CF90BF90AF909F907F906F905F904E
:104AE0004F903F902F9008952F923F924F925F9258
:104AF0006F927F928F929F92AF92BF92CF92DF92EE
:104B0000EF92FF920F931F93DF93CF93CDB7DEB752
:104B1000CD58D0400FB6F894DEBF0FBECDBF8C018C
:104B20003B016A0184E090E0C80ED91EF80172963C
:104B3000C757DF4FF983E883C958D040C8010596AD
:104B4000C957DF4F99838883C758D040CA57DF4F72
:104B50001882C658D04036E6E32EF12CEC0EFD1E2E
:104B600028EF822E21E0922E800E911E99EFA92E21
:104B700091E0B92EA00EB11E8EE0282E312C2C0E05
:104B80003D1EB7E44B2E512C4C0E5D1EF2013496A7
:104B9000C557DF4FF983E883CB58D040ECE5F2E00E
:104BA0008491C357DF4F8883CD58D04021C1F7018E
:104BB0008385282F30E0A90148715070403151059C
:104BC00009F024C1F4019081913009F41FC19230A1
:104BD00009F41CC1CE010196B7010E94451D1E8635
:104BE000F3018081882329F4C10160E072E00E9412
:104BF000A1DFC101B3010E94A1DFC101BE016F5F4E
:104C00007F4F0E94A1DFC10160E072E00E94A1DF3E
:104C10001CA61FA61BA61AA68EE094E099A788A73B
:104C2000CE018C96B601AE014F5F5F4F21E00E942E
:104C3000797D882309F03EC0F40180818823D1F575
:104C4000C357DF4F9881CD58D040ECE5F2E008C063
:104C50008091C00085FFFCCF9093C600319694915F
:104C60009923B1F7E2E0F2E007C08091C00085FF30
:104C7000FCCF31969093C60090819923B1F7809133
:104C8000C00085FFFCCFFAE0F093C600FE0131962C
:104C900007C08091C00085FFFCCF31969093C6007D
:104CA00090819923B1F78091C00085FFFCCF8AE005
:104CB0008093C600C557DF4FA881B981CB58D0403B
:104CC000FE01BC968BE101900D928150E1F78AA51F
:104CD0009BA5F201938382838EE094E0918380838D
:104CE000C801B101A20100DFC2010E94D41DCE01A2
:104CF00088960E94D41D7CC0953E09F479C09E32EE
:104D000009F476C09F3509F473C0F801928999239C
:104D100031F09E3209F46CC09F3509F469C023FD5F
:104D200067C080E04031510509F481E0F80185A7B2
:104D3000882349F4F7018085873409F059C08185BB
:104D40008E3709F455C0C957DF4F88819981C758FC
:104D5000D040B7010E94451DF4018081882329F5C8
:104D6000F30107C08091C00085FFFCCF319690937E
:104D7000C60090819923B1F7C957DF4FE881F981C7
:104D8000C758D04007C08091C00085FFFCCF319646
:104D90009093C60090819923B1F78091C00085FF60
:104DA000FCCFFAE0F093C60023C0813039F4F5015E
:104DB000808191810196918380831AC08230C1F4F1
:104DC000CA57DF4FF881C658D0402F2F30E0F50189
:104DD0008081918128173907F1F0CA57DF4FF88198
:104DE000C658D040FF5FCA57DF4FF883C658D0403F
:104DF000C601B701C757DF4F48815981C958D04014
:104E00000E94367818160CF4D2CE05C0F7019081B6
:104E1000992309F071CFC357DF4F0FB6F894DEBF67
:104E20000FBECDBFCF91DF911F910F91FF90EF90FB
:104E3000DF90CF90BF90AF909F908F907F906F90BA
:104E40005F904F903F902F900895EF92FF920F93B5
:104E50001F93DF93CF93CDB7DEB76F970FB6F8945C
:104E6000DEBF0FBECDBF7C018C01005B1F4F8E5A91
:104E70009F4FF8019183808328EF31E0E20EF31E0B
:104E800021E0F70121937F011182108227E03EEF9C
:104E9000E20EF31E049640E050E060E070E00E94F5
:104EA0002775F80120813181DE011596F9013496CC
:104EB0008BE101900D928150E1F7F901828193819C
:104EC0009C838B838EE094E09A838983C70165E19C
:104ED00072E08E010F5F1F4FA80106DEC8010E941D
:104EE000D41DF701E750FE4F808191816F960FB678
:104EF000F894DEBF0FBECDBFCF91DF911F910F9110
:104F0000FF90EF900895EF92FF920F931F93DF931E
:104F1000CF93CDB7DEB76F970FB6F894DEBF0FBE55
:104F2000CDBF7C018C01005B1F4F8E5A9F4FF80153
:104F30009183808328EF31E0E20EF31E22E0F70137
:104F4000208328E03EEFE20EF31EF701E750FE4F0C
:104F500060831182049640E050E060E070E00E94BF
:104F60002775F80120813181DE011596F90134960B
:104F70008BE101900D928150E1F7F90182819381DB
:104F80009C838B838EE094E09A838983C70165E1DB
:104F900072E08E010F5F1F4FA801A6DDC8010E94BD
:104FA000D41D6F960FB6F894DEBF0FBECDBFCF9164
:104FB000DF911F910F91FF90EF900895EF92FF9274
:104FC0000F931F93DF93CF93CDB7DEB76F970FB6D5
:104FD000F894DEBF0FBECDBF7C0188EF91E0E80EF4
:104FE000F91EF701108288E09EEFE80EF91E870196
:104FF0000B5C1F4FC80140E050E060E070E00E9491
:105000002775DE011596F8018BE101900D92815014
:10501000E1F7F70183A994A99C838B838EE094E048
:105020009A838983C70165E172E08E010F5F1F4F8C
:10503000A8015ADDC8010E94D41D6F960FB6F894DE
:10504000DEBF0FBECDBFCF91DF911F910F91FF90BB
:10505000EF9008950F931F93CF93DF93DC01D596C4
:105060001C92D597D8961C92D897D4961C921E92D3
:10507000D3978EE094E0D2969C938E93D197AA5AC0
:10508000BF4F1C9213961C92A955B040FD01EE5AD9
:10509000FF4FAC5ABF4F11961C921E92A455B040C0
:1050A00091838083ED01CF58DF4FFE0120E030E097
:1050B000482F148217821382128240839183215ECB
:1050C0003F4F7F9681E02633380799F7A655BE4FAC
:1050D00089E18C9313961C9258961C921B961C92F5
:1050E00013961C92A35DB140FD01E453FE4FA25301
:1050F000BE4F11961C921E92408391835D961D9225
:105100001D921D921C92139718961D921D921D922E
:105110001C921397A35FB14012961C92129713969C
:105120001C921397D0961C92D0971C9211961C92A9
:1051300011978D0101511E4FF801108211821282C8
:105140001382A955BE4F1C92FE01C901119201970D
:10515000E9F7A05BBF4F81E08C93A75FB1409F96BA
:105160001C921E929E970E94121B68577C4E8F4F76
:105170009F4FF8016083718382839383DF91CF9186
:105180001F910F910895DF93CF93CDB7DEB7E097CE
:105190000FB6F894DEBF0FBECDBFDE011196EEEB69
:1051A000F3E080E101900D928150E1F7DE0151962C
:1051B000EEEAF3E080E101900D928150E1F7DE012B
:1051C0009196EEE9F3E080E101900D928150E1F7D4
:1051D00089819A81AB81BC8180937B0A90937C0A00
:1051E000A0937D0AB0937E0A89899A89AB89BC898C
:1051F00080936B0A90936C0AA0936D0AB0936E0A29
:1052000089A19AA1ABA1BCA180938F0A9093900A27
:10521000A093910AB093920A8D819E81AF81B88547
:1052200080937F0A9093800AA093810AB093820AA8
:105230008D899E89AF89B88D80936F0A9093700A8B
:10524000A093710AB093720A8DA19EA1AFA1B8A5D7
:105250008093930A9093940AA093950AB093960A28
:1052600089859A85AB85BC858093830A9093840A4F
:10527000A093850AB093860A898D9A8DAB8DBC8DDB
:105280008093730A9093740AA093750AB093760A78
:1052900089A59AA5ABA5BCA58093970A9093980A77
:1052A000A093990AB0939A0A8D859E85AF85B88997
:1052B0008093870A9093880AA093890AB0938A0AF8
:1052C0008D8D9E8DAF8DB8A18093770A9093780ACB
:1052D000A093790AB0937A0A8DA59EA5AFA5B8A927
:1052E00080939B0A90939C0AA0939D0AB0939E0A78
:1052F0000E94106080E090E8ABE3B5E48093A30ADD
:105300009093A40AA093A50AB093A60A8093A70A33
:105310009093A80AA093A90AB093AA0A20E030E0CB
:1053200040E050E020939F0A3093A00A4093A10AE6
:105330005093A20A80E29EE4A0E0B0E08093670A66
:105340009093680AA093690AB0936A0A2093B70AF7
:105350003093B80A4093B90A5093BA0A80E090E0BB
:10536000A0EAB1E48093AB0A9093AC0AA093AD0A93
:10537000B093AE0A8DEC9CECACECBEE38093AF0A2C
:105380009093B00AA093B10AB093B20A80E090E083
:10539000A0EAB0E48093B30A9093B40AA093B50A4C
:1053A000B093B60A20936E0630936F064093700652
:1053B0005093710620936A0630936B0640936C06F7
:1053C00050936D06209366063093670640936806F7
:1053D0005093690686E696E6A2E4B1E480938503DD
:1053E00090938603A0938703B093880360E070E0F6
:1053F00080E89FE30E94AE8C6093890370938A03D8
:1054000080938B0390938C036BE774E184E192E4C7
:105410000E94BA8C60938D0370938E0380938F03E8
:10542000909390030E94CC8B80E090E0A0E8BFE3D3
:105430008093910390939203A0939303B09394036A
:1054400084E195E090937B0380937A0390937D03AE
:1054500080937C0382EE94E090937F0380937E039D
:1054600084E680939D0310926E1280E090E0A0E9A4
:10547000B0E480935D0390935E03A0935F03B093C9
:10548000600380E090E8ABEBB4E480936103909319
:105490006203A0936303B0936403EAECF3E0949196
:1054A00008C08091C00085FFFCCF9093C600319664
:1054B00094919923B1F7E0EDF3E0949108C08091C5
:1054C000C00085FFFCCF9093C6003196949199233C
:1054D000B1F78091C00085FFFCCF8AE08093C600C1
:1054E000E0960FB6F894DEBF0FBECDBFCF91DF912F
:1054F0000895CF93DF93CAECD3E0FE01949108C0E6
:105500008091C00085FFFCCF9093C60031969491A6
:105510009923B1F7E4ECF5E0949108C08091C000C4
:1055200085FFFCCF9093C600319694919923B1F7F3
:105530008091C00085FFFCCF8AE08093C600FE0109
:105540009491EAECF3E008C08091C00085FFFCCFA5
:105550009093C600319694919923B1F740917B0ABC
:1055600050917C0A60917D0A70917E0A8CEB95E0E7
:105570000E94BE3740917F0A5091800A6091810A53
:105580007091820A89EB95E00E94BE374091830AB0
:105590005091840A6091850A7091860A86EB95E0A5
:1055A0000E94BE374091870A5091880A6091890A0B
:1055B00070918A0A83EB95E00E94BE37E6E1F2E043
:1055C00007C08091C00085FFFCCF31969093C60044
:1055D00090819923B1F78091C00085FFFCCF8AE0CC
:1055E0008093C600FE019491EAECF3E008C080913C
:1055F000C00085FFFCCF9093C6003196949199230B
:10560000B1F7E9E9F5E0949108C08091C00085FF09
:10561000FCCF9093C600319694919923B1F7809175
:10562000C00085FFFCCF8AE08093C600FE01949104
:10563000EAECF3E008C08091C00085FFFCCF9093B6
:10564000C600319694919923B1F740916B0A50911D
:105650006C0A60916D0A70916E0A80E995E00E9473
:10566000BE3740916F0A5091700A6091710A709133
:10567000720A8DE895E00E94BE374091730A5091FE
:10568000740A6091750A7091760A8AE895E00E9422
:10569000BE374091770A5091780A6091790A7091EB
:1056A0007A0A87E895E00E94BE37E6E1F2E007C09B
:1056B0008091C00085FFFCCF31969093C600908109
:1056C0009923B1F78091C00085FFFCCF8AE08093D9
:1056D000C600FE019491EAECF3E008C08091C0009E
:1056E00085FFFCCF9093C600319694919923B1F732
:1056F000E9E6F5E0949108C08091C00085FFFCCFF9
:105700009093C600319694919923B1F78091C0008F
:1057100085FFFCCF8AE08093C600FE019491EAECFD
:10572000F3E008C08091C00085FFFCCF9093C600D5
:10573000319694919923B1F740918F0A5091900A34
:105740006091910A7091920A80E695E00E94D137AB
:105750004091930A5091940A6091950A7091960A2B
:105760008DE595E00E94D1374091970A5091980AB3
:105770006091990A70919A0A8AE595E00E94D13762
:1057800040919B0A50919C0A60919D0A70919E0ADB
:1057900087E595E00E94D137E6E1F2E007C080910D
:1057A000C00085FFFCCF31969093C600908199236D
:1057B000B1F78091C00085FFFCCF8AE08093C600DE
:1057C000FE019491EAECF3E008C08091C00085FFEF
:1057D000FCCF9093C600319694919923B1F7E2E201
:1057E000F5E0949108C08091C00085FFFCCF9093B4
:1057F000C600319694919923B1F78091C00085FF3E
:10580000FCCF8AE08093C600FE019491EAECF3E0BD
:1058100008C08091C00085FFFCCF9093C6003196F0
:1058200094919923B1F74091A30A5091A40A6091F1
:10583000A50A7091A60A89E195E00E94BE374091C1
:10584000A70A5091A80A6091A90A7091AA0A86E154
:1058500095E00E94BE37E6E1F2E007C08091C0000B
:1058600085FFFCCF31969093C60090819923B1F7C4
:105870008091C00085FFFCCF8AE08093C600FE01C6
:105880009491EAECF3E008C08091C00085FFFCCF62
:105890009093C600319694919923B1F7E3E6F4E032
:1058A000949108C08091C00085FFFCCF9093C60002
:1058B000319694919923B1F78091C00085FFFCCF78
:1058C0008AE08093C600FE019491EAECF3E008C000
:1058D0008091C00085FFFCCF9093C60031969491D3
:1058E0009923B1F740919F0A5091A00A6091A10AB3
:1058F0007091A20A8AE594E00E94BE374091B70AEF
:105900005091B80A6091B90A7091BA0A87E594E09B
:105910000E94BE374091670A5091680A6091690AF7
:1059200070916A0A84E594E00E94D1374091AB0AF5
:105930005091AC0A6091AD0A7091AE0A81E594E095
:105940000E94BE374091AF0A5091B00A6091B10AEF
:105950007091B20A8EE494E00E94BE374091B30A7F
:105960005091B40A6091B50A7091B60A8BE494E044
:105970000E94BE37E6E1F2E007C08091C00085FFDB
:10598000FCCF31969093C60090819923B1F7809116
:10599000C00085FFFCCF8AE08093C600FE01949191
:1059A000EAECF3E008C08091C00085FFFCCF909343
:1059B000C600319694919923B1F7E9E3F4E094910C
:1059C00008C08091C00085FFFCCF9093C60031963F
:1059D00094919923B1F78091C00085FFFCCF8AE0B4
:1059E0008093C600FE019491EAECF3E008C0809138
:1059F000C00085FFFCCF9093C60031969491992307
:105A0000B1F7409166065091670660916806709103
:105A1000690680E394E00E94BE3740916A06509187
:105A20006B0660916C0670916D068DE294E00E94A9
:105A3000BE3740916E0650916F066091700670916E
:105A400071068AE294E00E94BE37E6E1F2E007C008
:105A50008091C00085FFFCCF31969093C600908165
:105A60009923B1F78091C00085FFFCCF8AE0809335
:105A7000C600FE019491EAECF3E008C08091C000FA
:105A800085FFFCCF9093C600319694919923B1F78E
:105A9000ECE1F4E0949108C08091C00085FFFCCF58
:105AA0009093C600319694919923B1F78091C000EC
:105AB00085FFFCCF8AE08093C600FE019491EAEC5A
:105AC000F3E008C08091C00085FFFCCF9093C60032
:105AD000319694919923B1F74091850350918603B3
:105AE000609187037091880382E194E00E94BE3741
:105AF0006091890370918A0380918B0390918C034C
:105B00000E94B48CAB01BC018FE094E00E94BE37D0
:105B100060918D0370918E0380918F03909190031B
:105B20000E94C08CAB01BC018CE094E00E94BE37A7
:105B3000E6E1F2E007C08091C00085FFFCCF31961E
:105B40009093C60090819923B1F78091C00085FFA2
:105B5000FCCF8AE08093C600DF91CF910895EF9249
:105B6000FF921F93CF93DF93EC017B01142F888169
:105B700099810E9495E6F70181937F01888199813F
:105B8000019699838883115091F7DF91CF911F91EE
:105B9000FF90EF900895EF92FF920F931F93DF9382
:105BA000CF93CDB7DEB766970FB6F894DEBF0FBEC2
:105BB000CDBF84E690E09A8389838091170290910B
:105BC0001802A0911902B0911A028B8B9C8BAD8B9D
:105BD000BE8B8E01015F1F4F7E010894E11CF11CFA
:105BE000C701B80144E0BBDFCE014396B80143E0F2
:105BF00050E00E94BEDF009709F0B0C0C7016BE71C
:105C00007AE040E1ACDFC7016BE67AE040E1A7DF74
:105C1000C7016FE87AE040E1A2DF0E941060C7018F
:105C200063EA7AE044E09BDFC70167EA7AE044E098
:105C300096DFC7016FE97AE044E091DFC70167EBC7
:105C40007AE044E08CDFC70167E67AE044E087DF72
:105C5000C7016BEA7AE044E082DFC7016FEA7AE0CD
:105C600044E07DDFC70163EB7AE044E078DFC70101
:105C700066E676E04CE073DFC701BE016D5F7F4FE3
:105C800042E06DDFC701BE016B5F7F4F42E067DF1F
:105C9000C701BE01695F7F4F42E061DFC701BE01FE
:105CA000675F7F4F42E05BDFC701BE01655F7F4FEB
:105CB00042E055DFC701BE01635F7F4F42E04FDF27
:105CC000C70165E873E044E04ADFC70169E873E0B3
:105CD00044E045DFC7016DE873E044E040DFC70101
:105CE0006AE773E046E03BDFC7016DE973E041E03E
:105CF00036DFC7016EE672E141E031DFC7016DE5D5
:105D000073E044E02CDFC70161E673E044E027DF85
:105D10000E94CC8BEAECF3E0949108C08091C00023
:105D200085FFFCCF9093C600319694919923B1F7EB
:105D3000E2EFF3E0949108C08091C00085FFFCCFB2
:105D40009093C600319694919923B1F78091C00049
:105D500085FFFCCF8AE08093C60001C014DAC9DB5E
:105D600066960FB6F894DEBF0FBECDBFCF91DF9120
:105D70001F910F91FF90EF900895EF92FF921F9364
:105D8000CF93DF93EC017B01142F88819981F70178
:105D900061917F010E94B0E6888199810196998383
:105DA0008883115091F7DF91CF911F91FF90EF9071
:105DB0000895EF92FF920F931F93DF93CF93CDB788
:105DC000DEB766970FB6F894DEBF0FBECDBF8091E9
:105DD0001B0290911C02A0911D02B0911E028F87A0
:105DE000988BA98BBA8B84E6E82EF12CFA82E98293
:105DF0008E010F5F1F4FC801BE01615F7F4F44E0FE
:105E0000BCDFC8016BE77AE040E1B7DFC8016BE6B1
:105E10007AE040E1B2DFC8016FE87AE040E1ADDF4F
:105E2000C80163EA7AE044E0A8DFC80167EA7AE0E3
:105E300044E0A3DFC8016FE97AE044E09EDFC801D7
:105E400067EB7AE044E099DFC80167E67AE044E076
:105E500094DFC8016BEA7AE044E08FDFC8016FEAA3
:105E60007AE044E08ADFC80163EB7AE044E085DF52
:105E7000C80166E676E04CE080DF84EB90E09C832E
:105E80008B8386E490E09E838D8318861F8280EF4B
:105E900090E09A878987FC86EB861E861D86C8015E
:105EA000BE016D5F7F4F42E068DFC801BE016B5FDE
:105EB0007F4F42E062DFC801BE01695F7F4F42E071
:105EC0005CDFC801BE01675F7F4F42E056DFC8015B
:105ED000BE01655F7F4F42E050DFC801BE01635FD6
:105EE0007F4F42E04ADFC80165E873E044E045DFE8
:105EF000C80169E873E044E040DFC8016DE873E081
:105F000044E03BDFC8016AE773E046E036DFC801E2
:105F10006DE973E041E031DFC8016EE672E141E016
:105F20002CDFC8016DE573E044E027DFC80161E6BE
:105F300073E044E022DF8091170290911802A09153
:105F40001902B0911A028B8B9C8BAD8BBE8BFA829F
:105F5000E982C801BE016D5E7F4F44E00EDFEAECCE
:105F6000F3E0949108C08091C00085FFFCCF90932E
:105F7000C600319694919923B1F7E4EDF5E0949140
:105F800008C08091C00085FFFCCF9093C600319679
:105F900094919923B1F78091C00085FFFCCF8AE0EE
:105FA0008093C60066960FB6F894DEBF0FBECDBFD5
:105FB000CF91DF911F910F91FF90EF90089581E0B5
:105FC00080933E048091620690916306A0916406DE
:105FD000B091650680933F0490934004A0934104E0
:105FE000B093420480E090E0A0E0B0E080934304EE
:105FF00090934404A0934504B0934604089580E030
:1060000097E045E15AEB64E276E20E94BEE64091F9
:10601000260450912704609128047091290484E09B
:1060200097E00E94BEE640912A0450912B046091B3
:106030002C0470912D0488E097E00E94BEE6409108
:106040002E0450912F0460913004709131048CE043
:1060500097E00E94BEE64091320450913304609173
:1060600034047091350480E197E00E94BEE64091CF
:10607000360450913704609138047091390484E1FA
:1060800097E00E94BEE640913A0450913B04609133
:106090003C0470913D0488E197E00C94BEE61092B8
:1060A0003E04ADCF2F923F924F925F926F927F92BC
:1060B0008F929F92AF92BF92CF92DF92EF92FF9218
:1060C0000F931F93DF93CF93CDB7DEB72C970FB607
:1060D000F894DEBF0FBECDBF0E94121B6D837E837E
:1060E0008F8398878091470490914804A091490438
:1060F000B0914A042D813E814F81588582179307C4
:10610000A407B50708F008C1805A9541AF4FBF4FAB
:106110008093470490934804A0934904B0934A04A1
:106120008091260490912704A0912804B09129041D
:106130000196A11DB11D8093260490932704A0937E
:106140002804B09329048091320490913304A091E3
:106150003404B09135040196A11DB11D8093320421
:1061600090933304A0933404B093350480913E049B
:10617000882309F4D1C080912A0490912B04A09126
:106180002C04B0912D040196A11DB11D80932A0409
:1061900090932B04A0932C04B0932D04809136048B
:1061A00090913704A0913804B09139040196A11D53
:1061B000B11D8093360490933704A0933804B093B4
:1061C00039048091620690916306A0916406B091B3
:1061D000650689879A87AB87BC87BC01CD01209172
:1061E0003F043091400440914104509142040E9488
:1061F0002BE07B018C0120E030E040E050E00E9489
:1062000008E318160CF07CC0C801B70120E030E0AC
:1062100041EE54E40E9405E188230CF071C0E09146
:106220007E06F0E0EE0FFF1FEE0FFF1FE557F54F64
:10623000C801B70120813181428153810E94DAE394
:106240002091430430914404409145045091460408
:106250000E942CE03B014C01E0903A04F0903B049A
:1062600000913C0410913D04A0902E04B0902F04A6
:10627000C0903004D090310410C0C401B30120E0BC
:1062800030E040E251E40E942BE03B014C01A98048
:10629000BA80CB80DC8082017101A60195012F5F5D
:1062A0003F4F4F4F5F4F29833A834B835C831701E6
:1062B00028010894211C311C411C511CC401B3014C
:1062C00020E030E040E251E40E9408E31816ACF20E
:1062D000E0923A04F0923B0400933C0410933D0496
:1062E000A0922E04B0922F04C0923004D0923104B8
:1062F0006092430470924404809245049092460454
:1063000089859A85AB85BC8580933F049093400432
:10631000A0934104B093420480914B0490914C04AB
:10632000A0914D04B0914E042D813E814F8158853E
:1063300082179307A407B50768F420583141494CE8
:106340005F4F20934B0430934C0440934D04509383
:106350004E0455DE2C960FB6F894DEBF0FBECDBFAF
:10636000CF91DF911F910F91FF90EF90DF90CF9031
:10637000BF90AF909F908F907F906F905F904F9065
:106380003F902F9008950E94121B60934F047093CA
:106390005004809351049093520460587141894C89
:1063A0009F4F60934B0470934C0480934D049093E3
:1063B0004E0460527440864390406093470470934B
:1063C00048048093490490934A0410923E048091BB
:1063D000620690916306A0916406B0916506809371
:1063E0003F0490934004A0934104B093420480E0A2
:1063F00097E00E949DE665517A4B8442964209F0EF
:1064000049C084E097E00E949DE660932604709363
:106410002704809328049093290488E097E00E9441
:106420009DE660932A0470932B0480932C04909330
:106430002D048CE097E00E949DE660932E047093FB
:106440002F04809330049093310480E197E00E9400
:106450009DE66093320470933304809334049093E8
:10646000350484E197E00E949DE6609336047093C2
:106470003704809338049093390488E197E00E94B0
:106480009DE660933A0470933B0480933C049093A0
:106490003D040895109226041092270410922804B7
:1064A0001092290410922A0410922B0410922C04AA
:1064B00010922D0410922E0410922F04109230048A
:1064C000109231041092320410923304109234046A
:1064D000109235041092360410923704109238044A
:1064E0001092390410923A0410923B0410923C042A
:1064F00010923D040895DF93CF930F920F92CDB782
:10650000DEB720915A1730915B17CE010196211505
:10651000310519F48056974102C0821B930B9A8370
:10652000898389819A810F900F90CF91DF9108958F
:106530008091DC099091DD09181619069CF4809170
:10654000C2069091C306019668E070E00E94C0E721
:106550009093D7098093D60981E090E09093DD096C
:106560008093DC09089520E08091DC099091DD0999
:10657000181619060CF421E0822F08958091DC0989
:106580000895EF92FF920F931F93CF93DF93EC0147
:10659000E0907206F09073060091740610917506F3
:1065A000688179818A819B81A80197010E9405E118
:1065B000882324F4E882F9820A831B83E09076061C
:1065C000F090770600917806109179066C817D81B4
:1065D0008E819F81A80197010E9405E1882324F400
:1065E000EC82FD820E831F83E0907A06F0907B069A
:1065F00000917C0610917D06688579858A859B854A
:10660000A80197010E9405E1882324F4E886F98611
:106610000A871B87E0905003F090510300915203CA
:1066200010915303688179818A819B81A801970128
:106630000E9408E3181624F4E882F9820A831B8377
:10664000E0905403F09055030091560310915703C6
:106650006C817D818E819F81A80197010E9408E352
:10666000181624F4EC82FD820E831F83E0905803F9
:10667000F090590300915A0310915B036885798566
:106680008A859B85A80197010E9408E3181624F4C7
:10669000E886F9860A871B87DF91CF911F910F91BA
:1066A000FF90EF90089580918F06811181E0089509
:1066B00080918F060895CF93DF938130910541F447
:1066C0006F5F7F4FF9F483E594E00E942A281AC097
:1066D000892BC1F46F5F7F4FA9F48FE196E00E9490
:1066E000D41DCBEDD5E0CE010E94D41D6F9784E080
:1066F000C53AD807C1F7CE010E94D41DCE018197BB
:106700000E94D41DDF91CF91089580E090E06FEF5B
:106710007FEFD1CF81E090E06FEF7FEFCCCF1F9381
:10672000182F0E949F8C80918F06882309F035C016
:1067300010938F068091910690919206A0919306F6
:10674000B09194068093950690939606A093970631
:10675000B0939806EAEEF5E0949108C08091C000ED
:1067600085FFFCCF9093C600319694919923B1F7A1
:10677000E1EFF5E0949108C08091C00085FFFCCF67
:106780009093C600319694919923B1F78091C000FF
:1067900085FFFCCF8AE08093C6001F910895F8948E
:1067A0000E949F8C159A469A439A409A8CE060E02A
:1067B0000E94601CEAEEF5E0949108C08091C00050
:1067C00085FFFCCF9093C600319694919923B1F741
:1067D000E7E6F6E0949108C08091C00085FFFCCF09
:1067E0009093C600319694919923B1F78091C0009F
:1067F00085FFFCCF8AE08093C600FFCF0E94121B6A
:106800006093990670939A0680939B0690939C06DA
:10681000E091C206F091C306EC53F94F80818823C2
:10682000A9F4E6E8F6E0949108C08091C00085FFE5
:10683000FCCF9093C600319694919923B1F7809143
:10684000C00085FFFCCF8AE08093C6000895EF92D8
:10685000FF920F931F930E94121BE0909D06F090F1
:106860009E0600919F061091A006209199063091F6
:106870009A0640919B0650919C06621B730B840BF9
:10688000950BE616F7060807190730F4E114F10432
:106890000105110509F083DF80916D0390916E036E
:1068A000A0916F03B09170030097A105B105F9F0B5
:1068B0000E94121B2091990630919A0640919B06E6
:1068C00050919C06621B730B840B950B20916D03FA
:1068D00030916E0340916F03509170032617370774
:1068E0004807590720F48091AB0F8091AC0F069BAD
:1068F00002C08AE014DF0E949B621F910F91FF90FB
:10690000EF9008956F927F928F929F92AF92BF9275
:10691000CF92DF92EF92FF920F931F93F82E609128
:10692000A1067091A2068091A3069091A4062091E1
:10693000A5063091A6064091A7065091A8060E9490
:1069400015E33B014C0100D000D00DB71EB70F5F1F
:106950001F4F60914C0370914D03882777FD809500
:10696000982F0E94A7E1209171033091720340910A
:106970007303509174030E94DAE320E030E040E7B3
:1069800052E40E940CE120E030E048EC52E40E9426
:106990000CE15B016C01F80160827182828293825A
:1069A000F48280917E06858386E596E06DEA76E046
:1069B00041EA56E020E001E032E0E32E0E94835CF1
:1069C0008091AD069091AE06A091AF06B091B00651
:1069D0008093560690935706A0935806B093590695
:1069E0008091B1069091B206A091B306B091B40621
:1069F00080935A0690935B06A0935C06B0935D0665
:106A00008091B5069091B606A091B706B091B806F0
:106A100080935E0690935F06A0936006B093610634
:106A20008091B9069091BA06A091BB06B091BC06C0
:106A30008093620690936306A0936406B093650604
:106A40008DB79EB706960FB6F8949EBF0FBE8DBF4A
:106A50000E94121B6093990670939A0680939B067E
:106A600090939C061F910F91FF90EF90DF90CF9035
:106A7000BF90AF909F908F907F906F900895CF922E
:106A8000DF92EF92FF920F931F938DEA96E079DDEC
:106A90000E94121B6093990670939A0680939B063E
:106AA00090939C0660915606709157068091580607
:106AB000909159062091AD063091AE064091AF06F7
:106AC0005091B0060E9405E1882309F07AC06091D8
:106AD0005A0670915B0680915C0690915D0620914C
:106AE000B1063091B2064091B3065091B4060E94AF
:106AF00005E1882309F065C060917103709172030C
:106B0000809173039091740320E030E040E752E4F9
:106B10000E940CE17B018C018DEA96E061EB76E04E
:106B200045EB56E029EB36E0EEE7CE2EE6E0DE2E32
:106B30000E94C4658091AD069091AE06A091AF060B
:106B4000B091B0068093560690935706A0935806CE
:106B5000B09359068091B1069091B206A091B30608
:106B6000B091B40680935A0690935B06A0935C069E
:106B7000B0935D068091B5069091B606A091B706D8
:106B8000B091B80680935E0690935F06A09360066E
:106B9000B09361068091B9069091BA06A091BB06A8
:106BA000B091BC068093620690936306A09364063E
:106BB000B09365061F910F91FF90EF90DF90CF90FB
:106BC000089560914C0370914D03882777FD80955F
:106BD000982F0E94A7E12091710330917203409198
:106BE0007303509174030E94DAE320E030E040E741
:106BF00052E40E940CE120E030E048EC52E488CFFF
:106C000086E69AE00E94BF5AE9E8F6E0949108C04F
:106C10008091C00085FFFCCF9093C600319694917F
:106C20009923B1F740919106509192066091930695
:106C3000709194064F5F5F4F6F4F7F4F86E69AE0EB
:106C40002AE030E00E947B5B8091C00085FFFCCF92
:106C50008AE08093C600D2CD2F923F924F925F92EE
:106C60006F927F928F929F92AF92BF92CF92DF925C
:106C7000EF92FF920F931F93DF93CF9300D000D03A
:106C8000CDB7DEB78C018330910508F040C13C01DF
:106C9000660C771C660C771C93012A5A394F3A838D
:106CA000298380E090E0A0E0B0E0F9018083918347
:106CB000A283B38386E596E06AE576E04EE556E08A
:106CC00022E636E00E946760F301E95DF74F6591C7
:106CD000759185919491015C174FF801E4909301AF
:106CE0002355394F3E832D8320E030E040EC5FE3B5
:106CF0000E94DAE35B016C01FF24E7FCF0940F2DA6
:106D00001F2DC801B7010E94A7E11B012C01C6017C
:106D1000B501A20191010E94DAE3AD81BE816D93BC
:106D20007D938D939C931397F301E45CFC4FFC835C
:106D3000EB83608171818281938160937103709391
:106D40007203809373039093740320E030E040E774
:106D500052E40E940CE17B018C018DEA96E061EB2C
:106D600076E045EB56E029EB36E0FEE7CF2EF6E085
:106D7000DF2E0E94C4650E94B38480E090E0A0E012
:106D8000B0E0E981FA8180839183A283B38386E5B1
:106D900096E06AE576E04EE556E022E636E00E94AF
:106DA0006760F301ED5CF74F85909590A590B490E6
:106DB000C501B4019058A20191010E94DAE3AD81AE
:106DC000BE816D937D938D939C9313976091710316
:106DD00070917203809173039091740320E030E00E
:106DE00040E752E40E940CE17B018C018DEA96E0C1
:106DF00061EB76E045EB56E029EB36E00E94C46596
:106E00000E94B384C501B401A50194010E942CE045
:106E1000A20191010E94DAE3ED81FE81608371831A
:106E200082839383AB81BC816D917D918D919C9187
:106E300020E030E040E450E40E940CE160937103F4
:106E400070937203809373039093740320E030E097
:106E500040E752E40E940CE17B018C018DEA96E050
:106E600061EB76E045EB56E029EB36E00E94C46525
:106E70000E94B384F301ED5FF74F659175918591A1
:106E80009491F301EA59F94F208131814281538174
:106E90000E942CE09B01AC01E981FA8120833183BF
:106EA00042835383F301E15FF74F2591359145917B
:106EB0005491F301EE58F94F208331834283538379
:106EC000F301E55EF74F2591359145915491A0E589
:106ED000B3E06A0E7B1EF301208331834283538328
:106EE000AC01CB01DA01ED81FE8180839183A28325
:106EF000B38380E090E0A0E0B0E0809371039093D2
:106F00007203A0937303B09374030E944283269686
:106F10000FB6F894DEBF0FBECDBFCF91DF911F91AA
:106F20000F91FF90EF90DF90CF90BF90AF909F9028
:106F30008F907F906F905F904F903F902F9008952B
:106F4000682F2091C2063091C30680E690E0AC0124
:106F5000249FC001259F900D349F900D11248E52C7
:106F6000994F70E00E94ACDF9C019093D106809312
:106F7000D00680E0232B09F081E00895FC01949174
:106F800008C08091C00085FFFCCF9093C600319669
:106F900094919923B1F786E69AE022E030E00C94D0
:106FA000815CFC01949108C08091C00085FFFCCFFA
:106FB0009093C600319694919923B1F786E69AE0B2
:106FC0002AE030E00C945F5B8091D0069091D1066E
:106FD000019660E070E04AE050E00C94B1DD8091F1
:106FE000D0069091D106019660E070E00C944BDCE5
:106FF000CF93DF93EC0180917E068093900684E529
:107000009FDF882309F46EC0EADF0E9479E1262F12
:1070100060939006662309F465C0E4EEF5E0949170
:1070200008C08091C00085FFFCCF9093C6003196C8
:1070300094919923B1F7C936D10599F0CA36D10593
:1070400024F4C836D105F1F50FC0CD36D10531F0A5
:10705000CA3DD105B9F5EFE1F2E031C0E6E3F2E077
:1070600023C0EDE4F2E015C0E4E6F2E007C0809151
:10707000C00085FFFCCF31969093C6009081992384
:10708000B1F720C08091C00085FFFCCF319690936E
:10709000C60090819923B1F715C08091C00085FF8B
:1070A000FCCF31969093C60090819923B1F70AC026
:1070B0008091C00085FFFCCF31969093C6009081EF
:1070C0009923B1F786E69AE0622F40E050E00E94F3
:1070D0006A5B8091C00085FFFCCF8AE08093C60088
:1070E00081E001C080E0DF91CF9108955F926F92BF
:1070F0007F928F929F92AF92BF92CF92DF92EF9248
:10710000FF920F931F93DF93CF9300D00F92CDB7D1
:10711000DEB719821A821B821C8216E5C12E16E088
:10712000D12EBDEAEB2EB6E0FB2E00E010E03E01D2
:107130000894611C711C55245394F801E253FC4FD0
:107140008081FEDE882359F14ADF4B015C01F801A2
:10715000E05BF94F8081882311F061E002C060910B
:10716000BD0670E0882777FD8095982F0E94A7E1E3
:10717000F60120813181428153810E94DAE39B0133
:10718000AC01C501B4010E942CE0F701608371835A
:1071900082839383F301E00FF11F50820AC0F6014E
:1071A00080819181A281B381F70180839183A28341
:1071B000B3830F5F1F4F84E090E0C80ED91EE80E26
:1071C000F91E0430110509F0B8CF86E4B9DE882332
:1071D000D9F005DF7B018C016093BE067093BF067A
:1071E0008093C0069093C10620E030E040E050E07C
:1071F0000E9408E3181644F4E0927103F0927203BF
:10720000009373031093740380918006882309F41C
:10721000C1C08981882309F0BDC08A81882309F013
:10722000B9C08B81882309F0B5C08C81882309F40B
:10723000B1C0A0906206B0906306C0906406D09082
:1072400065066091B9067091BA068091BB0690916F
:10725000BC06A60195010E942BE07B018C012DEC60
:107260003CEC4CEC5DEB0E9405E188230CF04EC039
:1072700080918106882309F08DC06091B5067091D8
:10728000B6068091B7069091B806209165033091BB
:10729000660340916703509168030E942CE060935D
:1072A000B5067093B6068093B7069093B806C801EA
:1072B000B701905820915D0330915E0340915F03C8
:1072C000509160030E942BE09B01AC01C601B50107
:1072D0000E942BE0609362067093630680936406BD
:1072E000909365068091610390916203A09163037E
:1072F000B09164038093710390937203A09373031E
:10730000B093740381E08093810644C0C801B70143
:107310002DEC3CEC4CEC5DE30E9408E31816D4F530
:10732000809181068823B1F160915D0370915E03C5
:1073300080915F0390916003A80197010E942BE068
:1073400020918206309183064091840650918506F3
:107350000E942CE09B01AC01C601B5010E942CE00B
:10736000609362067093630680936406909365064B
:107370008091690390916A03A0916B03B0916C03B3
:107380008093710390937203A0937303B09374037B
:10739000109281060F900F900F900F90CF91DF9178
:1073A0001F910F91FF90EF90DF90CF90BF90AF9023
:1073B0009F908F907F906F905F90089597DE89E403
:1073C000BFDD882351F00BDE6093A1067093A20607
:1073D0008093A3069093A4060CC080E090E0A0E008
:1073E000B0E08093A1069093A206A093A306B09369
:1073F000A4068AE4A5DD882351F0F1DD6093A5069B
:107400007093A6068093A7069093A806089580E03F
:1074100090E0A0E0B0E08093A5069093A606A0932C
:10742000A706B093A80608952F923F924F925F92BD
:107430006F927F928F929F92AF92BF92CF92DF9284
:10744000EF92FF920F931F93DF93CF93CDB7DEB7E9
:10745000EE970FB6F894DEBF0FBECDBF1092860632
:1074600087E46EDD882309F442C6B9DD0E9474E129
:107470006A30710509F48DC06B3071059CF462307F
:10748000710599F16330710524F4772334F50C9478
:1074900062526330710581F16430710511F00C9412
:1074A000625233C06A35710509F4D9C56B3571056F
:1074B00054F46B30710509F407C16C31710511F09A
:1074C0000C94625276C16B35710509F4CCC56C35EC
:1074D000710511F00C946252CBC580918F06882300
:1074E00021F404DECCDA0C94875280918F06882335
:1074F00019F464DF81E006C080918F06882329F4A7
:107500005DDF80E0FFD90C94875280E519DD882388
:1075100021F4EE24FF24870105C061DD0E9479E19A
:107520007B018C0183E50CDD882359F058DD20E0D8
:1075300030E04AE754E40E94DAE30E9479E17B01FB
:107540008C010E94B3840E94121B5B016C01AE0C83
:10755000BF1CC01ED11E0E94121B6093990670931F
:107560009A0680939B0690939C0681E08093860602
:1075700007C00E9493906BD90E943F990E9452309D
:107580000E94121B6A157B058C059D0590F30C94D7
:10759000625280918106882311F00C94625280918E
:1075A000560690915706A0915806B09159068093BF
:1075B000AD069093AE06A093AF06B093B00680914F
:1075C0005A0690915B06A0915C06B0915D0680938F
:1075D000B1069093B206A093B306B093B40680911F
:1075E0005E0690915F06A0916006B091610680935F
:1075F000B5069093B606A093B706B093B806E0918F
:107600007E06F0E0EE0FFF1FEE0FFF1FE557F54F70
:1076100060915D0370915E0380915F0390916003C0
:1076200020813181428153810E940CE19B01AC0198
:107630006091620670916306809164069091650680
:107640000E942BE09B01AC016093B9067093BA06CF
:107650008093BB069093BC06E0907103F090720398
:107660000091730310917403809161039091620300
:10767000A0916303B09164038093710390937203AC
:10768000A0937303B09374036091620670916306D4
:1076900080916406909165060E942BE060938206BB
:1076A00070938306809384069093850681E080938F
:1076B0008106E5D9E0927103F0927203009373039F
:1076C000109374030C94625280918106882311F404
:1076D0000C9462528091560690915706A0915806DC
:1076E000B09159068093AD069093AE06A093AF0675
:1076F000B093B00680915A0690915B06A0915C060B
:10770000B0915D068093B1069093B206A093B30644
:10771000B093B40680915E0690915F06A0916006DA
:10772000B09161068093B5069093B606A093B70614
:10773000B093B8066091620670916306809164060A
:1077400090916506209182063091830640918406CF
:10775000509185060E942CE06093B9067093BA069A
:107760008093BB069093BC06E0907103F090720387
:1077700000917303109174038091690390916A03DF
:10778000A0916B03B0916C0380937103909372038B
:10779000A0937303B09374031092810670D9E092A2
:1077A0007103F092720300937303109374030C94AB
:1077B000625285E0809386068091710390917203F6
:1077C000A0917303B09174038093CC069093CD067F
:1077D000A093CE06B093CF0680914C0390914D03B9
:1077E000909355068093540684E690E090934D0361
:1077F00080934C030E94121B6093990670939A0623
:1078000080939B0690939C0681E00E94498380911F
:10781000560690915706A0915806B091590680934C
:10782000AD069093AE06A093AF06B093B0068091DC
:107830005A0690915B06A0915C06B0915D0680931C
:10784000B1069093B206A093B306B093B4068091AC
:107850005E0690915F06A0916006B09161068093EC
:10786000B5069093B606A093B706B093B80680917C
:10787000620690916306A0916406B09165068093BC
:10788000B9069093BA06A093BB06B093BC0680E0FD
:1078900090E0A0E0B0E08093710390937203A09316
:1078A0007303B093740388E54BDB882351F489E5B7
:1078B00047DB882331F48AE543DB882311F481E038
:1078C00001C080E080937503882309F4A2C10F2EC4
:1078D000F0E08F2EF0E09F2EF0E0AF2EF0E0BF2E14
:1078E000F02D8092560690925706A0925806B092BC
:1078F000590680925A0690925B06A0925C06B0925E
:107900005D0680925E0690925F06A0926006B0923D
:10791000610686E596E06AE576E04EE556E022E609
:1079200036E00E94676080E090E8ACEAB3EC8093B8
:10793000AD069093AE06A093AF06B093B00680E07C
:1079400090E8ACEAB3E48093B1069093B206A093BA
:10795000B306B093B4068093B5069093B606A09391
:10796000B706B093B80660913C0370913D038091D7
:107970003E0390913F036093710370937203809371
:1079800073039093740320E030E040E752E40E94D8
:107990000CE17B018C018DEA96E061EB76E045EB32
:1079A00056E029EB36E0FEE7CF2EF6E0DF2E0E9410
:1079B000C4650E94B3840E944283E3E0F8E06591CD
:1079C000759185919491209166063091670640915A
:1079D0006806509169060E942CE0609356067093E9
:1079E00057068093580690935906EFE0F8E085918A
:1079F0009591A591B4918093720690937306A0938C
:107A00007406B0937506EBE1F8E085919591A59128
:107A1000B4918093500390935103A0935203B09379
:107A20005303E7E0F8E06591759185919491209179
:107A30006A0630916B0640916C0650916D060E946B
:107A40002CE060935A0670935B0680935C069093DB
:107A50005D06E3E1F8E085919591A591B49180935D
:107A6000760690937706A0937806B0937906EFE1B7
:107A7000F8E085919591A591B491809354039093EA
:107A80005503A0935603B0935703EBE0F8E06591DC
:107A900075918591949120916E0630916F06409179
:107AA0007006509171060E942CE060935E06709300
:107AB0005F068093600690936106E7E1F8E08591A8
:107AC0009591A591B49180937A0690937B06A093AB
:107AD0007C06B0937D06E3E2F8E085919591A5914F
:107AE000B4918093580390935903A0935A03B09391
:107AF0005B0386E596E06AE576E04EE556E022E631
:107B000036E00E9467608091560690915706A091DA
:107B10005806B09159068093AD069093AE06A09397
:107B2000AF06B093B00680915A0690915B06A09183
:107B30005C06B0915D068093B1069093B206A09367
:107B4000B306B093B40680915E0690915F06A09153
:107B50006006B09161068093B5069093B606A09337
:107B6000B706B093B806609171037091720380916B
:107B700073039091740320E030E040E752E40E94E8
:107B80000CE17B018C018DEA96E061EB76E045EB40
:107B900056E029EB36E00E94C46580927103909212
:107BA0007203A0927303B09274030E94B3840E9484
:107BB00042838091AD069091AE06A091AF06B09140
:107BC000B0068093560690935706A0935806B0933C
:107BD00059068091B1069091B206A091B306B0917A
:107BE000B40680935A0690935B06A0935C06B0930C
:107BF0005D068091B5069091B606A091B706B0914A
:107C0000B80680935E0690935F06A0936006B093DB
:107C1000610680917503882321F48AE591D9882330
:107C200019F082E090E018D880917503882351F410
:107C300088E586D9882309F46DC189E581D988232F
:107C400009F468C180E090E0A0E0B0E080935606BF
:107C500090935706A0935806B093590680935A06FE
:107C600090935B06A0935C06B0935D0686E596E074
:107C70006AE576E04EE556E022E636E00E9467606F
:107C800080E090E8ACEAB3EC8093AD069093AE064A
:107C9000A093AF06B093B00680E090E8ACEAB3E4FE
:107CA0008093B1069093B206A093B306B093B40646
:107CB00020913C0330913D0340913E0350913F039E
:107CC00020937103309372034093730350937403B2
:107CD000E0904003F0904103009142031091430370
:107CE000C801B7010E9405E1882344F4E0927103C2
:107CF000F092720300937303109374036091710305
:107D000070917203809173039091740320E030E0CE
:107D100040E752E40E940CE17B018C018DEA96E081
:107D200061EB76E045EB56E029EB36E0EEE7CE2E50
:107D3000E6E0DE2E0E94C4650E94B384E3E0F8E032
:107D400065917591859194912091660630916706B1
:107D500040916806509169060E942CE06093560697
:107D6000709357068093580690935906EFE0F8E019
:107D700085919591A591B491809372069093730625
:107D8000A0937406B0937506EBE1F8E085919591A8
:107D9000A591B4918093500390935103A093520303
:107DA000B0935303E7E0F8E0659175918591949164
:107DB00020916A0630916B0640916C0650916D06D9
:107DC0000E942CE060935A0670935B0680935C06D9
:107DD00090935D06E3E1F8E085919591A591B491CA
:107DE0008093760690937706A0937806B0937906F1
:107DF000EFE1F8E085919591A591B49180935403BA
:107E000090935503A0935603B093570386E596E0ED
:107E10006AE576E04EE556E022E636E00E946760CD
:107E20008091560690915706A0915806B091590638
:107E30008093AD069093AE06A093AF06B093B006C4
:107E400080915A0690915B06A0915C06B0915D0608
:107E50008093B1069093B206A093B306B093B40694
:107E60006091710370917203809173039091740318
:107E700020E030E040E752E40E940CE17B018C01FD
:107E80008DEA96E061EB76E045EB56E029EB36E0D3
:107E90000E94C46580E090E0A0E0B0E080937103B0
:107EA00090937203A0937303B09374030E94B384FE
:107EB0000E9442838091AD069091AE06A091AF06DC
:107EC000B091B0068093560690935706A09358063B
:107ED000B09359068091B1069091B206A091B30675
:107EE000B091B40680935A0690935B06A0935C060B
:107EF000B0935D068091B5069091B606A091B70645
:107F0000B091B80680935E0690935F06A0936006DA
:107F1000B093610680917503882321F488E510D819
:107F2000882321F080E090E00E942C368091750338
:107F3000882321F489E504D8882321F081E090E0AA
:107F40000E942C3688E50E94A0378823C9F03CD8CF
:107F5000611571058105910599F041D8209166065A
:107F60003091670640916806509169060E942CE0A6
:107F7000609356067093570680935806909359065F
:107F800089E50E94A0378823C9F01ED861157105C4
:107F90008105910599F023D820916A0630916B06EE
:107FA00040916C0650916D060E942CE060935A0639
:107FB00070935B0680935C0690935D068AE50E9451
:107FC000A0378823C9F000D8611571058105910596
:107FD00099F005D820916E0630916F064091700699
:107FE000509171060E942CE060935E0670935F06CC
:107FF000809360069093610686E596E06AE576E0F8
:108000004EE556E022E636E00E94676080E00E947E
:1080100049838091CC069091CD06A091CE06B09177
:10802000CF068093710390937203A0937303B09370
:108030007403809154069091550690934D0380935C
:108040004C030E94121B6093990670939A068093CA
:108050009B0690939C060E9442830C94625210925D
:10806000BD060C94625281E08093BD060C9462526E
:1080700085E40E94A037882311F40E94B38436E57A
:10808000E32E36E0F32E00E010E0F801E253FC4F5F
:1080900080810E94A0378823F9F0033061F40E94A8
:1080A000EF37F701608371838283938382E696E0E2
:1080B0000E943B6011C00E94EF37F701608371831B
:1080C0008283938386E596E06AE576E04EE556E0A6
:1080D00022E636E00E9467600F5F1F4F24E030E029
:1080E000E20EF31E0430110581F60C9462528DE409
:1080F0000E94A037882311F40C9484510E94EF371A
:108100000E9474E16837710511F40C94BF4A693715
:1081100071050CF0ACC06A32710509F4F8C36B321A
:1081200071050CF049C06731710509F428C2683146
:10813000710524F56231710511F40C94B74863316F
:10814000710574F477FF02C00C94625262307105BD
:108150000CF471C16131710511F00C946252CDC102
:108160006531710509F4FFC1663171050CF001C27A
:108170006431710511F00C946252C5C16B31710507
:1081800009F453C26C3171054CF46931710509F47D
:1081900021C26A3171050CF023C20CC26E31710527
:1081A00009F485C26F31710509F430C36C31710572
:1081B00011F00C9462523FC26836710509F4EFC3A6
:1081C000693671052CF56335710509F4CBC7643543
:1081D000710574F46135710509F4BCC76235710528
:1081E0000CF0BCC76035710511F00C946252AEC73B
:1081F0006535710511F40C940849653571050CF469
:10820000B6C76C35710511F00C9462520C94234979
:108210006D36710509F4C3C46E36710574F46A369F
:10822000710509F416C76A3671050CF4E9C36B369B
:10823000710511F00C94625285C76337710511F412
:108240000C94A949643771053CF46237710511F04B
:108250000C9462520C94CB496537710511F40C945F
:10826000B9496737710511F00C946252E0C031E0F2
:108270006039730711F40C942C4E41E06139740796
:108280000CF067C06E3C710511F40C940C4C6F3C03
:10829000710544F5693C710511F40C944E4B6A3C30
:1082A00071057CF46C38710509F499C36E3B710556
:1082B00009F40AC66937710511F00C9462520C94E6
:1082C000C34A6C3C710511F40C948E4B6D3C7105E6
:1082D00014F00C94AE4B6B3C710511F00C9462528F
:1082E0000C94704B6C3D710511F40C94E04C6D3D99
:1082F00071058CF4603D710511F40C94594C603D8E
:10830000710514F40C942A4C613D710511F00C9424
:1083100062520C94794C51E06D32750711F40C9453
:10832000054D81E06E3278073CF46D3D710511F02A
:108330000C9462520C94EF4C91E06E32790711F478
:108340000C94DD4D6F52714011F00C9462520C94FC
:10835000EC4DF3E0603A7F0709F41DC223E0613A77
:1083600072077CF531E0673F730711F40C94384EC7
:1083700041E0683F74079CF451E0653F750711F4D4
:108380000C94324E81E0663F780714F00C94354E21
:10839000645F714011F00C9462520C942F4EE3E034
:1083A0006B387E0711F40C941A50F3E06B397F0799
:1083B00009F4C8C16955724011F00C9462520C94D2
:1083C0003B4E37E26231730711F40C94865047E25A
:1083D000633174079CF457E26031750711F40C9413
:1083E0005E5087E26131780714F00C946150675E4B
:1083F000734011F00C9462520C944950E7E26431DE
:108400007E0711F40C94DB50F7E264317F0714F41B
:108410000C94AB5027E26531720711F40C940B51A8
:108420006A51774211F00C9462520C943B51EBE785
:10843000F2E00C94CE4A82E08093860680E50E94AA
:10844000A037882321F4EE24FF24870106C00E9470
:10845000EF370E9479E17B018C0183E50E94A03710
:10846000882361F00E94EF3720E030E04AE754E4CF
:108470000E94DAE30E9479E17B018C010E94B384BF
:108480000E94121B6093990670939A0680939B0634
:1084900090939C06E114F1040105110541F10E943D
:1084A000121B5B016C01AE0CBF1CC01ED11E0E94D2
:1084B000121B6A157B058C059D0510F00C94625209
:1084C00080919016882311F00C9462520E94939030
:1084D0000E9427340E943F990E945230E8CF0E94A8
:1084E00093900E9427340E943F990E9452308091BD
:1084F00090168823A1F30C946252159846984398DD
:1085000040980C946252E3EFF7E0949108C0809198
:10851000C00085FFFCCF9093C600319694919923BB
:10852000B1F78091C00085FFFCCF8AE08093C60040
:1085300083E594E00E94DE27E5EEF7E0949108C021
:108540008091C00085FFFCCF9093C6003196949136
:108550009923B1F78091C00085FFFCCF8AE080931A
:10856000C6000C94625283E594E00E946A230C9446
:10857000625283E594E00E94591D0C9462528091EE
:10858000D0069091D10604966AE270E00E94ACDFBA
:10859000FC01009711F0319710826091D006709124
:1085A000D1066C5F7F4F83E594E041E00E94D51FC8
:1085B0000C94625283E594E00E945E1D0E94121B9F
:1085C00060938706709388068093890690938A0645
:1085D0000C94625283E594E00E94C71E0C94625290
:1085E00080918304882311F40C9462528091FD05DC
:1085F000882311F00C94625283E50E94A0378823EF
:1086000011F40C9462520E94E437AB01BC01409318
:10861000460650934706809348067093490683E2C6
:1086200096E00E9427750C94625283E594E00E94C4
:10863000581F0C9462528091D0069091D1060496F6
:108640006AE270E00E94ACDF8C01009719F1209182
:10865000C2063091C30680E690E0AC01249FC001C1
:10866000259F900D349F900D11248E52994F6EE4EA
:1086700070E00E94ACDF60E270E00E94ACDF9C0121
:108680002F5F3F4F3093D1062093D006015010400A
:10869000F80110826091D0067091D1066C5F7F4F17
:1086A00083E594E040E00E94D51F0C9462528091D3
:1086B0008304882311F40C9462528091FD05882371
:1086C00011F00C94625283E594E00E94C71E8091E1
:1086D000D0069091D10604966AE270E00E94ACDF69
:1086E0008C01009719F12091C2063091C30680E6F3
:1086F00090E0AC01249FC001259F900D349F900D08
:1087000011248E52994F6EE470E00E94ACDF60E25B
:1087100070E00E94ACDF9C012F5F3F4F3093D10689
:108720002093D00601501040F80110826091D006CD
:108730007091D1066C5F7F4F83E594E00E94F82131
:108740000C9462528091D0069091D10604966AE210
:1087500070E00E94ACDFFC01009711F031971082AD
:108760006091D0067091D1066C5F7F4F83E594E0F5
:1087700041E00E94D51F83E594E00E945E1D0E94A7
:10878000121B6093870670938806809389069093E6
:108790008A060C9462528091D0069091D10605967B
:1087A0006AE270E00E94ACDF8C01009719F1209121
:1087B000C2063091C30680E690E0AC01249FC00160
:1087C000259F900D349F900D11248E52994F6EE489
:1087D00070E00E94ACDF60E270E00E94ACDF9C01C0
:1087E0002F5F3F4F3093D1062093D00601501040A9
:1087F000F80110826091D0067091D1066B5F7F4FB7
:1088000083E594E00E94F2210C9462520E94121BB4
:1088100060938B0670938C0680938D0690938E06E2
:1088200020918706309188064091890650918A06EA
:10883000621B730B840B950B28EE33E040E050E095
:108840000E94D3E7F22EE32ED42EC52E2DB73EB7CD
:10885000285030400FB6F8943EBF0FBE2DBF0DB765
:108860001EB70F5F1F4FCE018196EDB7FEB7928303
:10887000818386ED97E0F801938382836F2D7E2DAF
:10888000842F952F2CE330E040E050E00E94D3E7A6
:10889000F801358324836F2D7E2D8D2D9C2D2CE3A7
:1088A00030E040E050E00E94D3E7F8017783668330
:1088B0000E94FBDFE4EEF5E094912DB73EB7285F10
:1088C0003F4F0FB6F8943EBF0FBE2DBF08C080913A
:1088D000C00085FFFCCF9093C600319694919923F8
:1088E000B1F7FE01B19607C08091C00085FFFCCFB3
:1088F00031969093C60090819923B1F78091C00082
:1089000085FFFCCF8AE08093C6000C94625283E519
:108910000E94A037882311F40C9462520E94EF3712
:108920000E9474E17B018C016B0180E50E94A037FD
:10893000882369F0F7FC0BC03FEFE316F10409F060
:1089400034F40E94EF370E9474E18B0102C008E00A
:1089500010E0E2EDF3E0808191818017910711F43E
:108960000C946252329644E0E234F407A1F70730E7
:10897000110519F4C0927F0604C017FF02C00C94C1
:108980006252802F61E00E94601C802F6C2D0E943B
:10899000131D802FB6010E94821B0C94625288E640
:1089A00090E00E94F837882311F00C94625283E51E
:1089B0000E94A037882379F00E94EF37209190061B
:1089C000022F10E0000F111F065E1D4E0E9474E181
:1089D000F801718360830E949E8C0C94625283E53F
:1089E0000E94A037882311F40C9462520E94EF3742
:1089F0000E9474E170931D1260931C120C946252D9
:108A000089E690E00E94F837882311F00C946252B6
:108A1000E0EDF7E0949108C08091C00085FFFCCFA5
:108A20009093C600319694919923B1F7E091900606
:108A3000F0E0EE0FFF1FEE0FFF1FE05EFD4E4081E6
:108A400051816281738186E69AE021E030E00E94E4
:108A5000815CEDECF7E0949108C08091C00085FF47
:108A6000FCCF9093C600319694919923B1F7E09191
:108A70009006F0E0EE0FFF1FE65EFD4E6081718113
:108A8000882777FD8095982F0E94A7E1AB01BC0154
:108A900086E69AE021E030E00E94815CE9ECF7E0B4
:108AA000949108C08091C00085FFFCCF9093C600D0
:108AB000319694919923B1F7409126125091271243
:108AC000609128127091291286E69AE021E030E048
:108AD0000E94815CE6ECF7E0949108C08091C000B0
:108AE00085FFFCCF9093C600319694919923B1F7FE
:108AF00060911C1270911D12882777FD8095982F28
:108B00000E94A7E1AB01BC0186E69AE021E030E0DB
:108B10000E94815CE2ECF7E0949108C08091C00073
:108B200085FFFCCF9093C600319694919923B1F7BD
:108B3000809190060E94E38BBC0186E69AE04AE0B1
:108B400050E00E94AE5BEDEBF7E0949108C080919D
:108B5000C00085FFFCCF9093C60031969491992375
:108B6000B1F78FEF9FEF0E94E38BBC0186E69AE09E
:108B70004AE050E00E94AE5BE4E9F2E007C0809179
:108B8000C00085FFFCCF31969093C6009081992359
:108B9000B1F78091C00085FFFCCF0C9480518DE629
:108BA00090E00E94F837882311F00C94625283E021
:108BB0008093860683E50E94A037882379F00E947F
:108BC000EF3720919006022F10E0000F111F065E74
:108BD0001D4E0E9474E1F801718360830E949E8C97
:108BE0000E94121B4B015C0120919006022F10E0A5
:108BF0007724000F111FF801E65EFD4E6081718140
:108C0000882777FD8095982F0E94A7E1000F111FFC
:108C1000005E1D4EF80120813181428153810E9406
:108C200008E3181614F477247394CC24CA94DC2C2B
:108C30007601EAEBF7E04490E6EBF7E05490E2EBE4
:108C4000F7E064905AE0352E32C1942DEAEBF7E05C
:108C500008C08091C00085FFFCCF9093C60031967C
:108C600094919923B1F7E0919006F0E0EE0FFF1F89
:108C7000EE0FFF1FE05EFD4E4081518162817381E6
:108C800086E69AE021E030E00E94815C952DE6EBDB
:108C9000F7E008C08091C00085FFFCCF9093C6002C
:108CA000319694919923B1F76091900686E69AE007
:108CB00070E04AE050E00E94AE5B962DE2EBF7E0F8
:108CC00008C08091C00085FFFCCF9093C60031960C
:108CD00094919923B1F7F7FE03C0E5E9F2E028C0CB
:108CE0000E94121BA70196012854344F4F4F5F4F2B
:108CF000261B370B480B590BCA01B90128EE33E08C
:108D000040E050E00E94D3E786E69AE0BA01A9016C
:108D10002AE030E00E945F5B8091C00085FFFCCFBD
:108D20000EC08091C00085FFFCCF31969093C600A5
:108D300090819923B1F78091C00085FFFCCF3092DC
:108D4000C6000E94121B4B015C010E9493900E947E
:108D500027340E943F990E945230FFEFCF16FFEF59
:108D6000DF06FFEFEF06FFEFFF0609F050C0E091CE
:108D70009006772031F1F0E08F01000F111F000FF6
:108D8000111F005E1D4EEE0FFF1FE65EFD4E60815F
:108D90007181882777FD8095982F0E94A7E120E0B8
:108DA00030E040E050E40E942BE09B01AC01F80170
:108DB00060817181828193810E9408E387FF5AC09C
:108DC00060C0F0E08F01000F111F000F111F005E47
:108DD0001D4EEE0FFF1FE65EFD4E608171818827FC
:108DE00077FD8095982F0E94A7E120E030E040E0D9
:108DF00050E40E942CE09B01AC01F801608171817C
:108E0000828193810E9405E11816A4F53AC0F7FC0F
:108E100038C0E0919006F0E08F01000F111F000FA5
:108E2000111F005E1D4EEE0FFF1FE65EFD4E6081BE
:108E30007181882777FD8095982F0E94A7E19B017B
:108E4000AC01F80160817181828193810E942BE0E5
:108E50000E9474E197FF07C0909580957095619589
:108E60007F4F8F4F9F4F64307105810591054CF006
:108E7000772039F40E94121BAC01CB01DA016C019E
:108E80007D01FFEFCF16FFEFDF06FFEFEF06FFEFED
:108E9000FF0669F0F7FE02C00C9467520E94121B95
:108EA0006C197D09685B7B4010F00C9467520E943E
:108EB000121B681979098A099B09695E7340804011
:108EC000904008F0C2CE41CF84E08093860683E5CF
:108ED0000E94A037882341F00E94EF370E9474E17E
:108EE00070931D1260931C120E94121B7B018C0157
:108EF000EFEAF7E0B490EBEAF7E0C490E7EAF7E0D6
:108F0000D4907AE0A72E7FC00E94121B6E197F09B1
:108F1000800B910B695E73408040904008F46BC0F9
:108F2000E0917E06F0E0EE0FFF1FEE0FFF1FE05E08
:108F3000FD4E40815181628173819B2DEFEAF7E004
:108F400008C08091C00085FFFCCF9093C600319689
:108F500094919923B1F786E69AE022E030E00E94EE
:108F6000815C9C2DEBEAF7E008C08091C00085FF92
:108F7000FCCF9093C600319694919923B1F76091FC
:108F80007E0686E69AE070E04AE050E00E94AE5B22
:108F90009D2DE7EAF7E008C08091C00085FFFCCF77
:108FA0009093C600319694919923B1F7409126127F
:108FB00050912712609128127091291286E69AE04A
:108FC00021E030E00E94815CE4E9F2E007C080919A
:108FD000C00085FFFCCF31969093C6009081992305
:108FE000B1F78091C00085FFFCCFA092C6000E941F
:108FF000121B7B018C010E9493900E9427340E94D7
:109000003F990E94523060911C1270911D12625063
:109010007040882777FD8095982F0E94A7E19B01DB
:10902000AC016091261270912712809128129091C4
:1090300029120E9405E187FD67CF0E94121B6093F1
:10904000990670939A0680939B0690939C060C94C5
:10905000625283E50E94A037882309F465C00E940C
:10906000EF377B018C0160915C0370E0882777FD0E
:109070008095982F0E94A7E19B01AC01C801B70120
:109080000E94DAE320E030E048EC52E40E940CE178
:1090900020E030E040E050E00E9405E1882314F435
:1090A00060E03EC00E94EF377B018C0160915C0361
:1090B00070E0882777FD8095982F0E94A7E19B019B
:1090C000AC01C801B7010E94DAE320E030E048ECCF
:1090D00052E40E940CE120E030E04FE753E40E94AC
:1090E00008E3181614F46FEF1BC00E94EF377B01E2
:1090F0008C0160915C0370E0882777FD8095982F44
:109100000E94A7E19B01AC01C801B7010E94DAE30C
:1091100020E030E048EC52E40E940CE10E9479E14A
:1091200060937F060C94625280915C039FEF899F4D
:10913000C001112464E670E00E94C0E760937F06DE
:109140000C94625210927F060C946252269A2E98CA
:109150000C946252269A2E9A0C94625210925306E4
:109160000C94625281E0809353060C94625283E522
:109170000E94A0378823A1F00E94EF3720E030E062
:109180004AE754E40E94DAE30E9479E160936D03B8
:1091900070936E0380936F03909370030C946252EC
:1091A00088E50E94A037882311F00C947C5289E551
:1091B0000E94A037882311F00C947C528AE50E940B
:1091C000A037882311F00C947C5285E40E94A037CC
:1091D000882311F00C947C520E94B384409A0E9420
:1091E000C3840C946252159A89E50E94A0378111BC
:1091F000469A8AE50E94A0378111439A85E40E942D
:10920000A037882311F40C946252409A0C94625255
:1092100083E50E94A037882311F40C9462520E94C7
:10922000EF3720E030E04AE754E40E94DAE30E949E
:1092300079E160939D0670939E0680939F069093BC
:10924000A0060C9462525BE7652E5AE0752E4BE641
:10925000242E4AE0342E3BEB432E3AE0532E882452
:109260009924F401E253FC4F80810E94A0378823A7
:1092700009F45DC053E0851609F052C00E94EF3733
:109280005B016C0120E030E040EA51E40E9405E11E
:1092900088230CF03FC0F30160817181828193814A
:1092A000A60195010E940CE17B018C016091B30A3B
:1092B0007091B40A8091B50A9091B60AA8019701FD
:1092C0000E94DAE36093B30A7093B40A8093B50AFC
:1092D0009093B60AF1016081718182819381A80126
:1092E00097010E94DAE3F1016083718382839383A3
:1092F000F20160817181828193810E94A5E1A801C0
:1093000097010E94DAE30E9479E1F20160837183A0
:1093100082839383F301A082B182C282D38207C089
:109320000E94EF37F30160837183828393830894F3
:10933000811C911C24E030E0620E731E220E331E4D
:10934000420E531E34E08316910409F08ACF0C9428
:109350006252E1E0F7E0949108C08091C00085FF7F
:10936000FCCF9093C600319694919923B1F70C9459
:1093700062528091D0069091D10605966AE270E023
:109380000E94ACDFFC01009711F40C9462523197FB
:1093900010820C946252EEEFF6E0949108C0809136
:1093A000C00085FFFCCF9093C6003196949199231D
:1093B000B1F740915606509157066091580670914A
:1093C000590686E69AE022E030E00E94815CEBEFED
:1093D000F6E0949108C08091C00085FFFCCF909387
:1093E000C600319694919923B1F740915A06509155
:1093F0005B0660915C0670915D0686E69AE022E06D
:1094000030E00E94815CE8EFF6E0949108C0809122
:10941000C00085FFFCCF9093C600319694919923AC
:10942000B1F740915E0650915F06609160067091C1
:10943000610686E69AE022E030E00E94815CE5EF7A
:10944000F6E0949108C08091C00085FFFCCF909316
:10945000C600319694919923B1F7409162065091DC
:109460006306609164067091650686E69AE022E0E4
:1094700030E00E94815CEAEEF6E0949108C08091B1
:10948000C00085FFFCCF9093C6003196949199233C
:10949000B1F780E00E949D830E94A7E120917B0AA2
:1094A00030917C0A40917D0A50917E0A0E940CE125
:1094B000AB01BC0186E69AE022E030E00E94815CCC
:1094C000E7EEF6E0949108C08091C00085FFFCCFE4
:1094D0009093C600319694919923B1F781E00E9450
:1094E0009D830E94A7E120917F0A3091800A4091DC
:1094F000810A5091820A0E940CE1AB01BC0186E610
:109500009AE022E030E00E94815CE4EEF6E0949183
:1095100008C08091C00085FFFCCF9093C6003196B3
:1095200094919923B1F782E00E949D830E94A7E164
:109530002091830A3091840A4091850A5091860ACD
:109540000E940CE1AB01BC0186E69AE022E030E02B
:109550000E94815CE4E9F2E007C08091C00085FFD1
:10956000FCCF31969093C60090819923B1F78091FA
:10957000C00085FFFCCF8AE08093C600A3C780E0CF
:109580000E9449839FC781E00E9449839BC78091C5
:10959000C00085FFFCCF31969093C600908199233F
:1095A000B1F78091C00085FFFCCF8AE08093C600B0
:1095B000ECEDF6E0949108C08091C00085FFFCCFEF
:1095C0009093C600319694919923B1F7009B03C004
:1095D000E7E9F2E00AC0ECE9F2E007C08091C000E0
:1095E00085FFFCCF31969093C60090819923B1F707
:1095F0008091C00085FFFCCF8AE08093C600E4ED37
:10960000F6E0949108C08091C00085FFFCCF909354
:10961000C600319694919923B1F7049B03C0E7E902
:10962000F2E00AC0ECE9F2E007C08091C00085FFDB
:10963000FCCF31969093C60090819923B1F7809129
:10964000C00085FFFCCF8AE08093C600ECECF6E01A
:10965000949108C08091C00085FFFCCF9093C60014
:10966000319694919923B1F7079B03C0E7E9F2E0A3
:109670000AC0ECE9F2E007C08091C00085FFFCCF92
:1096800031969093C60090819923B1F78091C000E4
:1096900085FFFCCF8AE08093C60014C70EEC13E070
:1096A0002FE8E22E2AE0F22EF80180810E94A037F6
:1096B000882349F00E94EF370E9479E1F701608327
:1096C0007183828393830F5F1F4F24E030E0E20EAB
:1096D000F31E33E0023D130739F70E941060F2C613
:1096E0000EEC13E09BE6E92E9AE0F92EF80180815A
:1096F0000E94A037882339F00E94EF37F70160837A
:109700007183828393830F5F1F4F24E030E0E20E6A
:10971000F31E33E0023D130749F7D4C683E50E94E8
:10972000A037882351F00E94EF376093A30A70930B
:10973000A40A8093A50A9093A60A84E50E94A03704
:10974000882309F4BFC60E94EF376093A70A70937D
:10975000A80A8093A90A9093AA0AB4C683E50E9436
:10976000A037882351F00E94EF3760939F0A7093CF
:10977000A00A8093A10A9093A20A84E50E94A037D0
:10978000882351F00E94EF376093B70A7093B80AAC
:109790008093B90A9093BA0A82E40E94A037882382
:1097A00061F00E94EF370E9479E16093670A70933D
:1097B000680A8093690A90936A0A88E50E94A03734
:1097C000882351F00E94EF376093AB0A7093AC0A84
:1097D0008093AD0A9093AE0A8AE50E94A037882351
:1097E00051F00E94EF376093AF0A7093B00A8093F4
:1097F000B10A9093B20A85E40E94A037882309F445
:1098000061C60E94EF376093B30A7093B40A8093E5
:10981000B50A9093B60A56C60EEC13E086E6E82E1B
:1098200086E0F82EF80180810E94A037882339F065
:109830000E94EF37F70160837183828393830F5F08
:109840001F4F24E030E0E20EF31E33E0013D13072A
:1098500049F738C683E50E94A037882351F00E945B
:10986000EF3760935D0370935E0380935F03909383
:10987000600386E40E94A037882351F00E94EF37EE
:109880006093610370936203809363039093640316
:109890008AE50E94A037882309F414C60E94EF3796
:1098A00060936503709366038093670390936803E6
:1098B00009C683E50E94A037882351F00E94EF3744
:1098C0006093820670938306809384069093850646
:1098D00086E40E94A037882309F4F4C50E94EF377C
:1098E0006093690370936A0380936B0390936C0396
:1098F000E9C583E50E94A037882309F4E3C50E94E7
:10990000EF370E9474E1672B21F06130710561F43B
:1099100005C01092800610928106D4C581E0809324
:10992000800610928106CEC5E4EEF5E0949108C061
:109930008091C00085FFFCCF9093C6003196949132
:109940009923B1F7E9EBF6E0949108C08091C0004B
:1099500085FFFCCF9093C600319694919923B1F77F
:109960002091C2063091C30680E690E0289FF00166
:10997000299FF00D389FF00D1124EE52F94F07C0CA
:109980008091C00085FFFCCF31969093C6009081F6
:109990009923B1F7E7EBF6E0949108C08091C000FD
:1099A00085FFFCCF9093C600319694919923B1F72F
:1099B0008091C00085FFFCCF8AE08093C60082C5FD
:1099C00083E50E94A037882309F47CC50E94EF3705
:1099D0000E9474E170934D0360934C0373C583E55B
:1099E0000E94A037882309F46DC580917E06082F58
:1099F00010E00E94EF37000F111F025B1C4F0E9406
:109A000074E1F801718360835DC580E50E94A03731
:109A1000882351F00E94EF3760938503709386038B
:109A2000809387039093880389E40E94A03788235A
:109A300061F00E94EF370E94AE8C609389037093AF
:109A40008A0380938B0390938C0384E40E94A03755
:109A5000882361F00E94EF370E94BA8C60938D03D7
:109A600070938E0380938F039093900383E40E94FE
:109A7000A037882351F00E94EF37609391037093D1
:109A8000920380939303909394030E94CC8BE6EA15
:109A9000F2E007C08091C00085FFFCCF3196909323
:109AA000C60090819923B1F7E9EAF2E007C08091FE
:109AB000C00085FFFCCF31969093C600908199231A
:109AC000B1F74091850350918603609187037091AF
:109AD000880386E69AE022E030E00E94815CEDEAAD
:109AE000F2E007C08091C00085FFFCCF31969093D3
:109AF000C60090819923B1F76091890370918A0320
:109B000080918B0390918C030E94B48CAB01BC01BB
:109B100086E69AE022E030E00E94815CE1EBF2E030
:109B200007C08091C00085FFFCCF31969093C6009E
:109B300090819923B1F760918D0370918E0380918C
:109B40008F03909190030E94C08CAB01BC0186E60C
:109B50009AE022E030E00E94815CE5EBF2E007C091
:109B60008091C00085FFFCCF31969093C600908114
:109B70009923B1F74091910350919203609193031F
:109B80007091940386E69AE022E030E00E94815CC6
:109B9000E4E9F2E007C08091C00085FFFCCF319678
:109BA0009093C60090819923B1F78091C00085FF02
:109BB000FCCF8AE08093C60085C483E50E94A0376D
:109BC000882329F460E070E080E090E002C00E9409
:109BD000EF370E94076076C485E40E94A03788238F
:109BE00019F4CC24DD2412C00E94EF370E9474E1E6
:109BF0006B0177FF0BC00F2EF0E0EF2EF0E0FF2E91
:109C0000FCE80F2FF2E41F2FF02D0AC00F2EF0E01A
:109C1000EF2EF0E0FF2EF6E10F2FF3E41F2FF02DD3
:109C200083E50E94A037882321F00E94EF377B0153
:109C30008C0183E40E94A037882319F425E030E0EA
:109C400005C00E94EF370E9474E19B01C801B70173
:109C5000A6010E947F9236C40E94B38433C40E943E
:109C6000D92E30C40E94CB2D2DC40E94C3282AC4F3
:109C70000E94792A27C4E0905606F090570600917A
:109C8000580610915906E982FA820B831C832091B1
:109C90005A0630915B0640915C0650915D062D831B
:109CA0003E834F83588780915E0690915F06A09116
:109CB0006006B091610689879A87AB87BC87A090C0
:109CC0006206B0906306C0906406D0906506E98A8B
:109CD000FA8A0B8B1C8B2D8B3E8B4F8B588F898F69
:109CE0009A8FAB8FBC8FAD8EBE8ECF8ED8A2E091F7
:109CF0007E06F0E0EE0FFF1FEE0FFF1FE557F54F5A
:109D000060915D0370915E0380915F0390916003A9
:109D100020813181428153810E940CE19B01AC0181
:109D2000C601B5010E942BE06D877E878F87988BD7
:109D30006091610370916203809163039091640369
:109D400020E030E040E752E40E940CE17B018C010E
:109D5000CE010196BE016B5F7F4FAE01475F5F4F43
:109D60009E01235F3F4FFEE7CF2EF6E0DF2E0E94DD
:109D7000C4658AE50E94A037882381F0E984FA84CB
:109D80000B851C850E94EF379B01AC01C801B70110
:109D90000E942CE069877A878B879C8760914403B7
:109DA00070914503809146039091470320E030E095
:109DB00040E752E40E940CE17B018C01CE01019648
:109DC000BE016B5F7F4FAE01475F5F4F9E01235F18
:109DD0003F4FEEE7CE2EE6E0DE2E0E94C46588E51A
:109DE0000E94A037882331F00E94EF3769837A837D
:109DF0008B839C8389E50E94A037882331F00E94E1
:109E0000EF376D837E838F83988760913C037091D9
:109E10003D0380913E0390913F0320E030E040E716
:109E200052E40E940CE17B018C01CE010196BE013F
:109E30006B5F7F4FAE01475F5F4F9E01235F3F4FD8
:109E4000BEE7CB2EB6E0DB2E0E94C4658CE40E94F8
:109E5000A0378823F9F0ED84FE840F8518890E94CD
:109E6000EF37E0917E06F0E0EE0FFF1FEE0FFF1FD1
:109E7000E557F54F20813181428153810E940CE1E9
:109E80009B01AC01C801B7010E942BE06D877E8762
:109E90008F87988B60916103709162038091630357
:109EA0009091640320E030E040E752E40E940CE12E
:109EB0007B018C01CE010196BE016B5F7F4FAE012D
:109EC000475F5F4F9E01235F3F4FEEE7CE2EE6E0F8
:109ED000DE2E0E94C4650E94B384409A08C00E948E
:109EE00093900E9427340E943F990E9452308091A3
:109EF00056048823A1F78CE40E94A0378823F9F048
:109F0000ED84FE840F8518890E94EF37E0917E066C
:109F1000F0E0EE0FFF1FEE0FFF1FE557F54F20811A
:109F20003181428153810E940CE19B01AC01C80147
:109F3000B7010E942CE06D877E878F87988BA9E000
:109F40004A2E512C4C0E5D1EFDE06F2E712C6C0EB6
:109F50007D1E609161037091620380916303909113
:109F6000640320E030E040E752E40E940CE17B0112
:109F70008C01CE010196BE016B5F7F4FA201930160
:109F8000EEE7CE2EE6E0DE2E0E94C46591E1A92E1A
:109F9000B12CAC0EBD1E85E1882E912C8C0E9D1E21
:109FA00060913C0370913D0380913E0390913F038B
:109FB00020E030E040E752E40E940CE17B018C019C
:109FC000C501B401A20193010E94C46509E1402EBC
:109FD000512C4C0E5D1E609144037091450380919D
:109FE00046039091470320E030E040E752E40E94AE
:109FF0000CE17B018C01C501B401A20193010E9417
:10A00000C4656091610370916203809163039091D4
:10A01000640320E030E040E752E40E940CE17B0161
:10A020008C01C501B401A2019E01235E3F4F0E9435
:10A03000C46548C288E50E94A037882351F00E9479
:10A04000EF370E9474E19B01AC0180E0B9010E94EE
:10A05000D2838AE50E94A037882351F00E94EF370F
:10A060000E9474E19B01AC0181E0B9010E94D2839E
:10A0700085E40E94A037882309F424C20E94EF37A8
:10A080000E9474E19B01AC0182E0B9010E94D2837D
:10A0900019C210928F068091950690919606A09114
:10A0A0009706B09198068093910690939206A0939C
:10A0B0009306B09394060E94003604C20E94D8A969
:10A0C00001C288E50E94A037882311F400E003C094
:10A0D0000E94E437062F89E50E94A037882311F4F7
:10A0E00010E003C00E94E437162F83E50E94A037DA
:10A0F000882309F4E7C14091D0065091D1064F5F03
:10A100005F4F802F612F0E94CA9FDCC188E50E94AB
:10A11000A037882311F400E003C00E94E437062F23
:10A1200089E50E94A037882311F410E003C00E9443
:10A13000E437162F83E50E94A037882309F4C2C1B3
:10A140004091D0065091D1064F5F5F4F802F612F15
:10A150000E94ACA0B7C188E50E94A037882311F403
:10A16000FF2403C00E94E437F62E89E50E94A03741
:10A17000882311F400E003C00E94E437062F87E52E
:10A180000E94A037882311F411E003C00E94E43735
:10A19000162F88E40E94A037882311F421E003C021
:10A1A0000E94E437262F1F0D200F8F2D602F412F87
:10A1B0000E94FFA487C188E50E94A037882311F47C
:10A1C000FF2403C00E94E437F62E89E50E94A037E1
:10A1D000882311F400E003C00E94E437062F87E5CE
:10A1E0000E94A037882311F411E003C00E94E437D5
:10A1F000162F88E40E94A037882311F421E003C0C1
:10A200000E94E437262F1F0D200F8F2D602F412F26
:10A210000E9402A457C188E50E94A037882311F448
:10A22000FF2403C00E94E437F62E89E50E94A03780
:10A23000882311F400E003C00E94E437062F87E56D
:10A240000E94A037882311F411E003C00E94E43774
:10A25000162F88E40E94A037882311F421E003C060
:10A260000E94E437262F1F0D200F8F2D602F412FC6
:10A270000E9402A427C1E1EBF6E0949108C080910E
:10A28000C00085FFFCCF9093C6003196949199232E
:10A29000B1F760918D1670918E1686E69AE04AE0CD
:10A2A00050E00E94AE5B10928E1610928D16809137
:10A2B0009016882399F0ECEAF6E0949108C080911A
:10A2C000C00085FFFCCF9093C600319694919923EE
:10A2D000B1F78091C00085FFFCCF12C0E7EAF6E03D
:10A2E000949108C08091C00085FFFCCF9093C60078
:10A2F000319694919923B1F78091C00085FFFCCFEE
:10A300008AE08093C60003C184E50E94A0378823B9
:10A3100009F48DC00E94EF370E9479E1262F6093E7
:10A3200090066623B9F1E4EEF5E0949108C08091BF
:10A33000C00085FFFCCF9093C6003196949199237D
:10A34000B1F7E9EBF2E007C08091C00085FFFCCFD8
:10A3500031969093C60090819923B1F786E69AE0F2
:10A36000622F40E050E00E946A5BEBEBF2E007C036
:10A370008091C00085FFFCCF31969093C6009081FC
:10A380009923B1F78091C00085FFFCCF8AE08093CC
:10A39000C60098C086E40E94A0378823E1F00E949E
:10A3A000EF377B018C016093BE067093BF068093EC
:10A3B000C0069093C10620E030E040E050E00E94EB
:10A3C00008E3181644F4E0927103F09272030093CC
:10A3D000730310937403E4EEF5E0949108C0809148
:10A3E000C00085FFFCCF9093C600319694919923CD
:10A3F000B1F7ECECF2E007C08091C00085FFFCCF24
:10A4000031969093C60090819923B1F760917E06B2
:10A4100086E69AE070E04AE050E00E94AE5B8091F0
:10A42000C00085FFFCCF8AE08093C6004BC0E4EEFD
:10A43000F5E0949108C08091C00085FFFCCF909317
:10A44000C600319694919923B1F7E4E9F6E094912E
:10A4500008C08091C00085FFFCCF9093C600319664
:10A4600094919923B1F72091C2063091C30680E6FA
:10A4700090E0289FF001299FF00D389FF00D1124E6
:10A48000EE52F94F07C08091C00085FFFCCF319696
:10A490009093C60090819923B1F7E2E9F6E0949198
:10A4A00008C08091C00085FFFCCF9093C600319614
:10A4B00094919923B1F78091C00085FFFCCF8AE089
:10A4C0008093C600109286060E94FE3320C00E9430
:10A4D000121B609387067093880680938906909379
:10A4E0008A060E94121B6093990670939A068093C5
:10A4F0009B0690939C06E6CF0E94B38488E50E9459
:10A50000A037882311F00C94F3480C94F448EE968D
:10A510000FB6F894DEBF0FBECDBFCF91DF911F9174
:10A520000F91FF90EF90DF90CF90BF90AF909F90F2
:10A530008F907F906F905F904F903F902F900895F5
:10A540002F923F924F925F926F927F928F929F9243
:10A55000AF92BF92CF92DF92EF92FF920F931F9331
:10A56000DF93CF93CDB7DEB76E970FB6F894DEBF0B
:10A570000FBECDBF90E6A92EB12CE9E6F8E084909D
:10A580008AE0782EEFEDF8E094906624639440C260
:10A590002D3071F02A3321F48091D309882341F0C2
:10A5A0008091D4099091D5098F3591050CF40CC296
:10A5B000E091D409F091D509309709F462C3A091D4
:10A5C000D609B091D709AA9D7001AB9DF00CBA9D38
:10A5D000F00C1124EE0DFF1DEE52F94F1082809108
:10A5E000D309882309F0EBC11092D309AC53B94FBA
:10A5F0001C9287010E52194FC8016EE470E00E9450
:10A60000ACDF9C01009709F4F5C09093D1068093CC
:10A61000D0062F5F3F4F201B310B2E0D3F1DC90170
:10A620008E52994F60E070E04AE050E00E94B1DD48
:10A630006093D8097093D9098093DA099093DB0964
:10A64000C0909106D0909206E0909306F090940608
:10A65000A70196012F5F3F4F4F4F5F4F6217730760
:10A660008407950709F4BFC38091D6099091D70953
:10A670009C012A9DC0012B9D900D3A9D900D1124A7
:10A680008E52994F68E879E00E9471DF892B09F0BA
:10A69000AAC3EAEEF5E0949108C08091C00085FF5E
:10A6A000FCCF9093C600319694919923B1F7E5E5DC
:10A6B000F9E0949108C08091C00085FFFCCF909391
:10A6C000C600319694919923B1F786E69AE0B701D6
:10A6D000A6012AE030E00E947B5B8091C00085FFEC
:10A6E000FCCF71C0FE264F5FFC01E40FF11DEE525E
:10A6F000F94FE081EA32B1F73093D1062093D006CA
:10A70000C901019660E070E00E944BDC0E9474E198
:10A710002F2D30E02617370709F45BC0EAEEF5E08D
:10A72000949108C08091C00085FFFCCF9093C60033
:10A73000319694919923B1F7E6E3F9E0949108C03A
:10A740008091C00085FFFCCF9093C6003196949114
:10A750009923B1F74091910650919206609193062A
:10A760007091940686E69AE02AE030E0C4D78091A2
:10A77000C00085FFFCCF27C0EAEEF5E0949108C049
:10A780008091C00085FFFCCF9093C60031969491D4
:10A790009923B1F7ECE0F9E0949108C08091C000F2
:10A7A00085FFFCCF9093C600319694919923B1F721
:10A7B00086E69AE0B701A6012AE030E09CD78091B6
:10A7C000C00085FFFCCF8AE08093C6000E9400365F
:10A7D00049C08091D8099091D909A091DA09B09126
:10A7E000DB098093910690939206A0939306B09311
:10A7F00094063DC0C8016AE270E00E94ACDF009799
:10A8000009F435C0EAEEF5E0949108C08091C000EB
:10A8100085FFFCCF9093C600319694919923B1F7B0
:10A82000E2EEF8E0949108C08091C00085FFFCCF73
:10A830009093C600319694919923B1F74091910677
:10A8400050919206609193067091940686E69AE084
:10A850002AE030E050D78091C00085FFFCCF8AE02D
:10A860008093C6001092D5091092D409DBC2809162
:10A87000D6099091D7098A9D70018B9DF00C9A9D05
:10A88000F00C112487010E52194FC80167E470E0E3
:10A890000E94ACDF9C01009709F445C09093D1065B
:10A8A0008093D0062F5F3F4F201B310B2E0D3F1D95
:10A8B000C9018E52994F60E070E00E944BDC0E940B
:10A8C00074E16430710578F580918F068823B9F4BE
:10A8D00080915304882339F5992DEFEDF8E008C0F5
:10A8E0008091C00085FFFCCF9093C6003196949173
:10A8F0009923B1F78091C00085FFFCCF12C0982D3D
:10A90000E9E6F8E008C08091C00085FFFCCF909395
:10A91000C600319694919923B1F78091C00085FFCC
:10A92000FCCF7092C6008091D6099091D7098A9D7C
:10A9300070018B9DF00C9A9DF00C112487010E5232
:10A94000194FC8016DE470E00E94ACDF9C01909348
:10A95000D1068093D0062F5F3F4F201B310B2E0D69
:10A960003F1DC9018E52994F60E070E04AE050E00F
:10A970000E94B1DD693671058105910551F00E9493
:10A98000121B6093691270936A1280936B129093FA
:10A990006C128091D6099091D709019668E070E019
:10A9A0000E94C0E79093D7098093D6098091DC0973
:10A9B0009091DD0901969093DD098093DC09109256
:10A9C000D5091092D40924C02B3311F46092D30915
:10A9D0008091D3098823E1F42091D4093091D509DD
:10A9E0008091D6099091D7098A9DF0018B9DF00D39
:10A9F0009A9DF00D1124E20FF31FEE52F94F809152
:10AA0000D20980832F5F3F4F3093D5092093D4091B
:10AA10008091620A9091630A2091640A3091650ADC
:10AA2000821B930B8F779070892B09F4F6C180916C
:10AA3000DC099091DD0908970CF0EFC186E69AE0F9
:10AA400080D5282F8093D2098A3009F0A1CDB0CDCE
:10AA50008091D4099091D509892B09F0E3C18091A7
:10AA60005604882309F473C1DDC1809157048823FB
:10AA700029F483E594E00E94591DF4CE1092FD055F
:10AA80001092D5091092D4094091DE095091DF0946
:10AA90006091E0097091E10980913E0690913F0636
:10AAA000A0914006B091410680509240A040B04035
:10AAB00084179507A607B70718F410925504B2C17A
:10AAC00040934606509347066093480670934906A4
:10AAD00083E296E00E942775A5C1262F6093D209D4
:10AAE0006A30A1F06D3091F06A3321F48091D3097E
:10AAF000882361F08091D4099091D5098F35910513
:10AB00002CF43FEF6F3F730709F0FCC0209146061D
:10AB100030914706409148065091490680913E0683
:10AB200090913F06A0914006B09141062817390741
:10AB30004A075B0720F46F5F7F4F09F09BC0962D9B
:10AB4000E6E5F8E008C08091C00085FFFCCF909357
:10AB5000C600319694919923B1F78091C00085FF8A
:10AB6000FCCF3092C6000E94121B60938B0670933C
:10AB70008C0680938D0690938E06209187063091E7
:10AB800088064091890650918A06621B730B840BDC
:10AB9000950B28EE33E040E050E00E94D3E7F22E20
:10ABA000E32ED42EC52EEDB7FEB738970FB6F89426
:10ABB000FEBF0FBEEDBF0DB71EB70F5F1F4FB282B6
:10ABC000A182F80153824282622F732F842F952F26
:10ABD00020E13EE040E050E00E94D3E7F8013583F9
:10ABE00024836F2D7E2D8D2D9C2D2CE330E040E0B5
:10ABF00050E00E94D3E7CA01B9012CE330E040E005
:10AC000050E00E94D3E7F801778366830E94FBDF60
:10AC1000972DE4EEF5E02DB73EB7285F3F4F0FB616
:10AC2000F8943EBF0FBE2DBF08C08091C00085FFC5
:10AC3000FCCF9093C600319694919923B1F7F5011A
:10AC400007C08091C00085FFFCCF31969093C6006D
:10AC500090819923B1F78091C00085FFFCCF30929D
:10AC6000C60083E594E00E94E11D83E594E061E085
:10AC70000E944A242091D4093091D509211531052B
:10AC800019F41092D309CEC08091D6099091D709BA
:10AC9000889DF001899DF00D989DF00D1124E20F23
:10ACA000F31FEE52F94F1082FC01EC53F94F208252
:10ACB0002091DC093091DD092F5F3F4F3093DD0992
:10ACC0002093DC09019668E070E00E94C0E7909351
:10ACD000D7098093D6091092D3091092D509109202
:10ACE000D4098091460690914706A0914806B091FC
:10ACF00049068093DE099093DF09A093E009B093A1
:10AD0000E1093AC02B3311F42092D3098091D30981
:10AD1000882391F52091D4093091D5098091D609E5
:10AD20009091D709889DF001899DF00D989DF00DB7
:10AD30001124E20FF31FEE52F94F8091D209808364
:10AD40002F5F3F4F3093D5092093D40915C000E6FB
:10AD5000802E912C22242394E6E5F8E064901AE0FA
:10AD6000312E5E010894A11CB11CB2E44B2EB8E058
:10AD70005B2EE4EEF5E07490209146063091470694
:10AD8000409148065091490680913E0690913F06B9
:10AD9000A0914006B0914106281739074A075B0782
:10ADA00008F040C08091DC099091DD090897D4F546
:10ADB00080912B0690912C06A0912D06B0912E0625
:10ADC0008093460690934706A0934806B0934906A1
:10ADD00083E296E00E94C578BC018091FD0588233E
:10ADE00009F47BCE42CE8091D6099091D7098A9DF5
:10ADF00080018B9D100D9A9D100D1124C8018E525B
:10AE0000994F6AE270E00E94ACDF9C01009709F460
:10AE1000B3CCFF2440E0C80167CC8091550488235F
:10AE200009F016CE6E960FB6F894DEBF0FBECDBFFA
:10AE3000CF91DF911F910F91FF90EF90DF90CF9016
:10AE4000BF90AF909F908F907F906F905F904F904A
:10AE50003F902F900895CF93DF938091DC099091DC
:10AE6000DD0907970CF46CDB83E594E060E00E9459
:10AE70004A248091DC099091DD09892B09F46CC08A
:10AE800080915304882309F44CC02091C20630916C
:10AE9000C30680E690E0289FE001299FD00D389FEF
:10AEA000D00D1124CE52D94FCE0162EA79E00E9432
:10AEB00071DF892BE1F483E594E0BE010E94E01E7E
:10AEC00080915404882369F5EFE9F9E0949108C072
:10AED0008091C00085FFFCCF9093C600319694917D
:10AEE0009923B1F78091C00085FFFCCF16C083E5A0
:10AEF00094E00E94C71EEDE8F9E0949108C08091AB
:10AF0000C00085FFFCCF9093C600319694919923A1
:10AF1000B1F78091C00085FFFCCF8AE08093C60026
:10AF200002C00E94143A8091DC099091DD09181644
:10AF3000190694F401979093DD098093DC098091C0
:10AF4000C2069091C306019668E070E00E94C0E7D7
:10AF50009093C3068093C2060E9493900E94273468
:10AF60000E942E8B0E943F990E945230DF91CF9118
:10AF70000895269A2E9886E69AE040E950ED63E01F
:10AF800070E0ABD2EBE7FAE0949108C08091C0008A
:10AF900085FFFCCF9093C600319694919923B1F729
:10AFA0008091C00085FFFCCF8AE08093C60044EE0C
:10AFB00055E0FA01949108C08091C00085FFFCCF54
:10AFC0009093C600319694919923B1F784B7282FB6
:10AFD00080FF15C0E3E7FAE0949108C08091C000BB
:10AFE00085FFFCCF9093C600319694919923B1F7D9
:10AFF0008091C00085FFFCCF8AE08093C60021FFCE
:10B0000015C0E3E6FAE0949108C08091C00085FF86
:10B01000FCCF9093C600319694919923B1F780911B
:10B02000C00085FFFCCF8AE08093C60022FF15C0D8
:10B03000E2E5FAE0949108C08091C00085FFFCCF62
:10B040009093C600319694919923B1F78091C000F6
:10B0500085FFFCCF8AE08093C60023FF15C0E2E4A1
:10B06000FAE0949108C08091C00085FFFCCF9093D6
:10B07000C600319694919923B1F78091C00085FF65
:10B08000FCCF8AE08093C60025FF15C0E2E3FAE01A
:10B09000949108C08091C00085FFFCCF9093C600BA
:10B0A000319694919923B1F78091C00085FFFCCF30
:10B0B0008AE08093C60014BEEAE2FAE0949108C0E8
:10B0C0008091C00085FFFCCF9093C600319694918B
:10B0D0009923B1F7E4E2FAE0949108C08091C000AE
:10B0E00085FFFCCF9093C600319694919923B1F7D8
:10B0F0008091C00085FFFCCF8AE08093C600FA01F2
:10B100009491E4EEF5E008C08091C00085FFFCCF8B
:10B110009093C600319694919923B1F7E4E1FAE057
:10B12000949108C08091C00085FFFCCF9093C60029
:10B13000319694919923B1F7EFEFF9E0949108C01B
:10B140008091C00085FFFCCF9093C600319694910A
:10B150009923B1F7E3EFF9E0949108C08091C00022
:10B1600085FFFCCF9093C600319694919923B1F757
:10B17000E3EEF9E0949108C08091C00085FFFCCF18
:10B180009093C600319694919923B1F78091C000B5
:10B1900085FFFCCF8AE08093C600E8EDF9E094914A
:10B1A00008C08091C00085FFFCCF9093C600319607
:10B1B00094919923B1F7ECECF9E0949108C0809157
:10B1C000C00085FFFCCF9093C600319694919923DF
:10B1D000B1F78091C00085FFFCCF8AE08093C60064
:10B1E000FA019491E4EEF5E008C08091C00085FF7B
:10B1F000FCCF9093C600319694919923B1F7EDEB73
:10B20000F9E0949108C08091C00085FFFCCF909335
:10B21000C600319694919923B1F70E947B32BC010C
:10B2200086E69AE04AE050E099D2E6EAF9E09491A5
:10B2300008C08091C00085FFFCCF9093C600319676
:10B2400094919923B1F786E69AE060ED74E04AE0C4
:10B2500050E084D28091C00085FFFCCF8AE08093CB
:10B26000C600E4ECF6E0119286E0EC3CF807D9F772
:10B270000E94CB2D0E94C3310E94CF8F0E94FB629F
:10B280000E943DDC0E943C840C94EA99BC018091B0
:10B29000DC099091DD0908970CF070C02091D60967
:10B2A0003091D70980E690E0AC01249FC001259F32
:10B2B000900D349F900D11248E52994F0E942CDFD7
:10B2C000E4EEF5E0949108C08091C00085FFFCCFCA
:10B2D0009093C600319694919923B1F7E3E8FAE090
:10B2E000949108C08091C00085FFFCCF9093C60068
:10B2F000319694919923B1F72091D6093091D709CD
:10B3000080E690E0289FF001299FF00D389FF00D16
:10B310001124EE52F94F07C08091C00085FFFCCF89
:10B3200031969093C60090819923B1F7E1E8FAE055
:10B33000949108C08091C00085FFFCCF9093C60017
:10B34000319694919923B1F78091C00085FFFCCF8D
:10B350008AE08093C600C901019668E070E00E940F
:10B36000C0E79093D7098093D6098091DC0990912A
:10B37000DD0901969093DD098093DC090895BC01F5
:10B380008091DC099091DD0908970CF070C0209144
:10B39000D6093091D70980E690E0AC01249FC00126
:10B3A000259F900D349F900D11248E52994F0E942D
:10B3B000B7DFE4EEF5E0949108C08091C00085FF0E
:10B3C000FCCF9093C600319694919923B1F7E0E9B0
:10B3D000FAE0949108C08091C00085FFFCCF909363
:10B3E000C600319694919923B1F72091D6093091F6
:10B3F000D70980E690E0289FF001299FF00D389F43
:10B40000F00D1124EE52F94F07C08091C00085FF66
:10B41000FCCF31969093C60090819923B1F7EEE866
:10B42000FAE0949108C08091C00085FFFCCF909312
:10B43000C600319694919923B1F78091C00085FFA1
:10B44000FCCF8AE08093C600C901019668E070E0F5
:10B450000E94C0E79093D7098093D6098091DC09B8
:10B460009091DD0901969093DD098093DC090895A0
:10B470001F920F920FB60F920BB60F9211242F93BB
:10B480003F934F938F939F93EF93FF934091C60009
:10B49000E091620AF091630A31969F012F77307034
:10B4A00031978091640A9091650A2817390739F01D
:10B4B000EE51F64F40833093630A2093620AFF9166
:10B4C000EF919F918F914F913F912F910F900BBED4
:10B4D0000F900FBE0F901F9018959A01AB0120306E
:10B4E00081EE380780E0480780E0580729F182E0C4
:10B4F0008093C00060E079E08DE390E00E94D3E7A4
:10B5000021503040404050405695479537952795FB
:10B510003093C5002093C4008091C1008061809366
:10B52000C1008091C10088608093C1008091C100FA
:10B5300080688093C10008951092C00020E130E03F
:10B54000E7CF2091640A3091650A8091620A909158
:10B55000630A8217930719F42FEF3FEF0EC0F9012A
:10B56000EE51F64F80812F5F3F4F2F773070309331
:10B57000650A2093640A282F30E0C901089580915C
:10B58000640A9091650A9093630A8093620A089511
:10B5900008952F923F924F925F926F927F928F9277
:10B5A0009F92AF92BF92CF92DF92EF92FF920F9352
:10B5B0001F93DF93CF93CDB7DEB7A0970FB6F89464
:10B5C000DEBF0FBECDBF1C016A017B0141155105D5
:10B5D0006105710541F440E350E060E070E020E077
:10B5E00030E089D053C0882499245401422E552438
:10B5F0006624772401E010E00C0F1D1F080D191DB3
:10B60000C701B601A30192010E94D3E7F80160834C
:10B610000894811C911CA11CB11CC701B601A30197
:10B6200092010E94D3E7C901DA016C017D01C114C6
:10B63000D104E104F104F1F691E0E92EF12CEC0ED5
:10B64000FD1EE80CF91C3E010894611C711CD5011B
:10B65000C4010197A109B1096C01C818D90813C028
:10B66000F601EE0DFF1D40814A3010F4405D01C02F
:10B67000495C50E060E070E0C10120E030E03BD088
:10B680000894E108F1086E147F0451F7A0960FB6F4
:10B69000F894DEBF0FBECDBFCF91DF911F910F9108
:10B6A000FF90EF90DF90CF90BF90AF909F908F90E2
:10B6B0007F906F905F904F903F902F90089521154D
:10B6C000310539F48091C00085FFFCCF4093C6005E
:10B6D00008955FCFEF92FF920F931F939A01E62E8A
:10B6E000FF2400E010E0B801A701E9DF1F910F91EE
:10B6F000FF90EF900895EF92FF920F931F93CF93D7
:10B70000DF93EC017A018B012115310539F4809129
:10B71000C00085FFFCCFE092C60019C02A30310579
:10B72000A9F477FF0FC04DE250E060E070E020E048
:10B7300030E0E1DF10950095F094E094E11CF11CFD
:10B74000011D111DCE01B801A7012AE022DFDF9102
:10B75000CF911F910F91FF90EF900895EF92FF927C
:10B760000F931F937B019A010027F7FC0095102F80
:10B77000B801A701C0DF1F910F91FF90EF900895CE
:10B780000F931F938C014DE050E060E070E020E0EB
:10B7900030E0B1DFC8014AE050E060E070E020E056
:10B7A00030E0A9DF1F910F910895CF92DF92EF92C1
:10B7B000FF920F931F938C019A016B01EE24FF24DB
:10B7C000B701A6017CDFC801DBDF1F910F91FF905D
:10B7D000EF90DF90CF9008959F92AF92BF92CF925B
:10B7E000DF92EF92FF920F931F93CF93DF93EC01C1
:10B7F0007A018B01922ECB01BA0120E030E040E0CB
:10B8000050E00E9405E1882364F4CE014DE250E04F
:10B8100060E070E020E030E06EDF17FB109517F974
:10B82000109520E030E040E05FE3AA240BC0CA019D
:10B83000B90120E030E040E251E40E940CE19B01BC
:10B84000AC01A394A91498F3C801B7010E942CE09D
:10B850007B018C010E9479E15B016C010E94A5E1F2
:10B860009B01AC01C801B7010E942BE07B018C0158
:10B87000CE01B601A5012AE030E021DF992099F13F
:10B88000EEEDF2E007C08091C00085FFFCCF31965D
:10B890009093C60090819923B1F725C0C801B701E4
:10B8A00020E030E040E251E40E94DAE37B018C01C9
:10B8B0000E9474E15B016C01CC24B7FCC094DC2CC9
:10B8C000CE01B601A5012AE030E015DFC601B501C1
:10B8D0000E94A7E19B01AC01C801B7010E942BE0C7
:10B8E0007B018C019A949920C9F6DF91CF911F9129
:10B8F0000F91FF90EF90DF90CF90BF90AF909F900F
:10B9000008956ACF08952F923F924F925F926F925F
:10B910007F928F929F92AF92BF92CF92DF92EF92DF
:10B92000FF920F931F93DF93CF93CDB7DEB7CD5523
:10B93000D0400FB6F894DEBF0FBECDBF2F969FAF9D
:10B940008EAF2F9761967FAF6EAF61972A01629697
:10B950002FAF629763960FAF63976496EFAE6497CD
:10B960006896ACAEBDAECEAEDFAE6897E22EFF24D9
:10B97000EE0CFF1CEE0CFF1C9A012E0D3F1D2D96A8
:10B980003FAF2EAF2D97D9016D907D908D909C90FB
:10B99000FC01EE0DFF1DC401B30120813181428104
:10B9A00053810E942CE069AF7AAF8BAF9CAF10E05F
:10B9B000000F111F000F111FF201E00FF11F2B9656
:10B9C000FFAFEEAF2B97A080B180C280D3802F96BF
:10B9D000EEADFFAD2F97E00FF11FC601B50120813D
:10B9E0003181428153810E942CE06DAB7EAB8FABE5
:10B9F00098AF64962FAD6497E22FF0E0EE0FFF1F33
:10BA0000EE0FFF1F2F96AEADBFAD2F97AE0FBF1F2E
:10BA10004D915D916D917C9129964CAF5DAF6EAF6C
:10BA20007FAF299761966EAD7FAD6197E60FF71FE7
:10BA3000608171818281938129962CAD3DAD4EAD9F
:10BA40005FAD29970E942BE069AB7AAB8BAB9CABC7
:10BA50006196AEADBFAD61971C968D919D910D9095
:10BA6000BC91A02D25968CAF9DAFAEAFBFAF2597F3
:10BA70002F96AEADBFAD2F971C962D913D914D9158
:10BA80005C911F9721962CAF3DAF4EAF5FAF2197D2
:10BA9000A401930150582DA73EA74FA758ABB6015C
:10BAA000A501705849A75AA76BA77CA761966EADF0
:10BAB0007FAD6197E60EF71ED7016D917D918D9157
:10BAC0009C9129AD3AAD4BAD5CAD0E942BE03B01A2
:10BAD0004C016196EEADFFAD61970E0F1F1FD801AF
:10BAE0006D917D918D919C912DA93EA94FA958AD45
:10BAF0000E942BE05B016C016DA57EA58FA598A926
:10BB0000A60195010E94DAE37B018C0169A57AA563
:10BB10008BA59CA5A40193010E94DAE39B01AC01D3
:10BB2000C801B7010E942BE01B012C016DA57EA569
:10BB30008FA598A9A40193010E94DAE37B018C01EF
:10BB400069A57AA58BA59CA5A60195010E94DAE3BB
:10BB50009B01AC01C801B7010E942CE09B01AC0124
:10BB6000C201B1010E949FE05B016C0120E030E066
:10BB700040E050E00E9405E1882354F4C601B5017D
:10BB80002BED3FE049EC50E40E942CE05B016C019E
:10BB9000E8968FADE897882351F0C601B5012BEDEB
:10BBA0003FE049EC50E40E942BE05B016C01C601D0
:10BBB000B501E7962CAD3DAD4EAD5FADE7970E9468
:10BBC000DAE329A93AA94BA95CA95F770E9415E39A
:10BBD0007B018C012FE632E143E85AE30E9405E144
:10BBE00087FDF4C1C801B7010E94E2E10E9479E13A
:10BBF00078A76FA3672B21F4E1E0F0E0F8A7EFA3AB
:10BC00002FA138A5B90180E090E00E94A5E17B0159
:10BC10008C01C601B501A80197010E940CE16BA33C
:10BC20007CA38DA39EA369A97AA98BA99CA9A8012D
:10BC300097010E940CE16F8F78A389A39AA32596A0
:10BC40006CAD7DAD8EAD9FAD259721962CAD3DADF4
:10BC50004EAD5FAD21970E942BE0A80197010E9495
:10BC60000CE16B8F7C8F8D8F9E8F6BA17CA18DA142
:10BC70009EA120E030E040E05FEB0E94DAE32BA1E0
:10BC80003CA14DA15EA10E94DAE320E030E040E853
:10BC90005FE30E942CE06F8B788F898F9A8F649678
:10BCA0003FAD6497E32FF0E0EE0FFF1FEE0FFF1F95
:10BCB0009E012F5F3F4FE20FF31F29964CAD5DAD04
:10BCC0006EAD7FAD299740835183628373832F9636
:10BCD000AEADBFAD2F971C964D915D916D917C914E
:10BCE0001F974D875E876F87788B41E050E05A8BB6
:10BCF000498B662462967FAD6297672F70E0660F6E
:10BD0000771F660F771FC901860F971F6A969FAF2F
:10BD10008EAF6A976396BFAD6397AB2FB0E0AA0F63
:10BD2000BB1FAA0FBB1F21E030E02C0F3D1F2A0FC5
:10BD30003B1F6C963FAF2EAF6C976E96FFAFEEAF8A
:10BD40006E9719C138E136150CF446C06DA57EA575
:10BD50008FA598A92BA13CA14DA15EA10E94DAE379
:10BD60007B018C0169A57AA58BA59CA52F89388DAF
:10BD7000498D5A8D0E94DAE39B01AC01C801B701DD
:10BD80000E942CE07B018C016DA57EA58FA598A952
:10BD90002F89388D498D5A8D0E94DAE35B016C0141
:10BDA00069A57AA58BA59CA52BA13CA14DA15EA15F
:10BDB0000E94DAE39B01AC01C601B5010E942BE0B1
:10BDC0006DA77EA78FA798AB6394C701D80189A7F9
:10BDD0009AA7ABA7BCA765C049895A89BA0180E078
:10BDE00090E00E94A5E12BA13CA14DA15EA10E9483
:10BDF000DAE37B018C01C8010E9409E16B8B7C8B2B
:10BE00008D8B9E8BB701C8010E943DE43B014C0124
:10BE10002D96AEADBFAD2D97ED90FD900D911C917F
:10BE200017FB109517F910952B96EEADFFAD2B97DC
:10BE30002080318042805380C801B7012B893C8922
:10BE40004D895E890E94DAE35B016C01C201B10198
:10BE5000A40193010E94DAE39B01AC01C601B50184
:10BE60000E942CE06DA77EA78FA798ABC801B701F1
:10BE7000A40193010E94DAE37B018C01C201B101AC
:10BE80002B893C894D895E890E94DAE39B01AC01D4
:10BE9000C801B7010E942BE069A77AA78BA79CA7CE
:10BEA000662469AD7AAD8BAD9CAD2DA53EA54FA5A1
:10BEB00058A90E942CE06A96AEADBFAD6A976D930B
:10BEC0007D938D939C9313976DA97EA98FA998ADAF
:10BED00029A53AA54BA55CA50E942CE06C96EEAD79
:10BEE000FFAD6C9760837183828393836E96AEAD52
:10BEF000BFAD6E976D917D918D919C912F8D38A1E5
:10BF000049A15AA10E942CE06E96EEADFFAD6E974E
:10BF100060837183828393836D857E858F85988905
:10BF20002B8D3C8D4D8D5E8D0E942CE06D877E8724
:10BF30008F87988BCE0101960E94C132CE01019667
:10BF4000BE016B5F7F4FAE01475F5F4F9E01235F76
:10BF50003F4F6896ECACFDAC0EAD1FAD6897F8E7AF
:10BF6000CF2ED12CCC0EDD1E0FD629893A892F5F1A
:10BF70003F4F3A8B298B49895A896FA178A546177B
:10BF8000570708F4DFCE61964EAD5FAD6197485F0D
:10BF90005F4F61962EAD3FAD6197245F3F4F619635
:10BFA0008EAD9FAD6197DC0114966196BFAFAEAFC9
:10BFB0006197BD016896ECACFDAC0EAD1FAD689706
:10BFC000E8E7CE2ED12CCC0EDD1EDED5C35ADF4FD6
:10BFD0000FB6F894DEBF0FBECDBFCF91DF911F919A
:10BFE0000F91FF90EF90DF90CF90BF90AF909F9018
:10BFF0008F907F906F905F904F903F902F9008951B
:10C000008091AB0F9091AC0F891B8F700895609356
:10C010007603709377038093780390937903089560
:10C020000F931F93CF93DF93C0E0D0E08E010554B0
:10C03000154FFE01E157F54F608171818281938137
:10C040000E94A5E1FE01E558F54F20813181428132
:10C0500053810E94DAE30E9479E1F80160837183E1
:10C06000828393832496C031D10501F7DF91CF916C
:10C070001F910F910895FC016081718182819381EC
:10C080002091870A3091880A4091890A50918A0A42
:10C090000E94DAE3E0917E06F0E0EE0FFF1FEE0F64
:10C0A000FF1FE557F54F20813181428153810E9466
:10C0B000DAE30E94AAE36093D70A7093D80A8093C8
:10C0C000D90A9093DA0A87ED9AE00C948C838F92C8
:10C0D0009F92AF92BF92CF92DF92EF92FF920F9317
:10C0E0001F93FC018B015A0149016081718182819A
:10C0F000938120917B0A30917C0A40917D0A509176
:10C100007E0A0E94DAE30E94AAE35BECC52E5AE0A5
:10C11000D52E6093CB0A7093CC0A8093CD0A90936E
:10C12000CE0AF801608171818281938120917F0A1A
:10C130003091800A4091810A5091820A0E94DAE38C
:10C140000E94AAE344E0E42EF12CEC0CFD1C609369
:10C15000CF0AF701718382839383F5016081718136
:10C16000828193812091830A3091840A4091850ACB
:10C170005091860A0E94DAE30E94AAE38601085FD2
:10C180001F4F6093D30AF801718382839383F40174
:10C1900060817181828193812091870A3091880A20
:10C1A0004091890A50918A0A0E94DAE3E0917E0662
:10C1B000F0E0EE0FFF1FEE0FFF1FE557F54F208158
:10C1C0003181428153810E94DAE30E94AAE3F601A1
:10C1D0003C966093D70A718382839383C601B7012B
:10C1E000A8019F010E94528380E090E0A0E0B0E0AF
:10C1F0008093AD0F9093AE0FA093AF0FB093B00F9D
:10C200008093B10F9093B20FA093B30FB093B40F7C
:10C210008093B50F9093B60FA093B70FB093B80F5C
:10C220008093B90F9093BA0FA093BB0FB093BC0F3C
:10C230008093BD0F9093BE0FA093BF0FB093C00F1C
:10C240001F910F91FF90EF90DF90CF90BF90AF9034
:10C250009F908F9008958F929F92AF92BF92CF92AE
:10C26000DF92EF92FF920F931F93CF93DF93EC0136
:10C270006B01009709F45CC08FA9882309F058C0AE
:10C28000EEA0FFA008A519A5FB01B6A0A7A090A449
:10C2900081A4C801B7012B2D3A2D492D582D0E949C
:10C2A00005E188230CF044C0C801B701A80197013B
:10C2B0000E94DAE37B018C016AA97BA98CA99DA964
:10C2C000905820E030E040E050EC0E94DAE32EA5E8
:10C2D0003FA548A959A90E94DAE39B01AC01C80116
:10C2E000B7010E942CE00E9447E47B018C016B2D7A
:10C2F0007A2D892D982D9701A8010E9405E18823A8
:10C3000024F4EB2CFA2C092D182D6B2D7A2D892D68
:10C31000982D9701A8010E9405E1882349F0C701E3
:10C32000D801F60186A397A3A0A7B1A781E086ABA9
:10C33000DF91CF911F910F91FF90EF90DF90CF9001
:10C34000BF90AF909F908F900895EF92FF920F93C0
:10C350001F93CF93DF93F090AC0F00E010E020E04C
:10C3600030E06DE4E62E11C0FE9CE0011124C552C0
:10C37000D54FC901B801AE016EDF8F2D8F5F8031BF
:10C3800009F480E0F82E98018E018091AB0FF81629
:10C3900059F7C901B80140E050E05DDFDF91CF916E
:10C3A0001F910F91FF90EF900895AF92BF92CF929F
:10C3B000DF92EF92FF920F931F93CF93DF93EB01E6
:10C3C0008A016115710509F466C04115510509F42A
:10C3D00062C0DAA4CBA4BCA4ADA46EA17FA188A541
:10C3E00099A52D2D3C2D4B2D5A2D0E9405E188231A
:10C3F00009F451C08FA9882309F043C0F801E6A0D1
:10C40000F7A000A511A56D2D7C2D8B2D9A2DA801CF
:10C4100097010E9408E31816A4F5C801B701A80106
:10C4200097010E94DAE37B018C016AA97BA98CA9A0
:10C430009DA9905820E030E040E050EC0E94DAE303
:10C440002EA53FA548A959A90E94DAE39B01AC019A
:10C45000C801B7010E942CE00E9447E47B018C01D7
:10C460006D2D7C2D8B2D9A2D9701A8010E9405E141
:10C47000882324F4ED2CFC2C0B2D1A2DC701D80198
:10C4800004C08D2D9C2DAB2DBA2D8EA39FA3A8A7E4
:10C49000B9A781E08EABDF91CF911F910F91FF90F3
:10C4A000EF90DF90CF90BF90AF900895CF92DF9242
:10C4B000EF92FF920F93DF93CF930F920F92CDB72E
:10C4C000DEB78091AB0F8FB7F894F090AC0F8FBFB1
:10C4D0008091AB0F90E040968F1991098F7090700A
:10C4E0000497FCF00091AB0F03500F70CC24DD24B7
:10C4F00040E050E07DE4E72E12C0802F002309F4D5
:10C5000080E1082F01500E9DC00111248552954FE6
:10C510009A838983B60149DFA601C980DA800F15A5
:10C5200061F70F900F90CF91DF910F91FF90EF90F7
:10C53000DF90CF900895DF92EF92FF920F931F93B9
:10C54000D0907F069091AC0F8091AB0F9817C1F0FF
:10C550004091AC0F242F30E08DE490E0289FF00153
:10C56000299FF00D389FF00D1124ED5DF44F60818F
:10C5700002C04F5F4F708091AB0F4817D1F7D62E96
:10C58000DD2031F1E090C10FF090C20F0091C30F98
:10C590001091C40FE114F1040105110579F40E9412
:10C5A000121B6C597F4F8F4F9F4F6093C10F709339
:10C5B000C20F8093C30F9093C40F07C00E94121B39
:10C5C0006E157F058007910758F4DD24DA9408C0C2
:10C5D0001092C10F1092C20F1092C30F1092C40F8D
:10C5E00087E06D2D70E00E94821B1F910F91FF90DC
:10C5F000EF90DF9008951092AB0F1092AC0F80E196
:10C60000EBECFAE0DF011D928A95E9F780E090E01B
:10C61000A0E0B0E08093B10F9093B20FA093B30F5E
:10C62000B093B40F8093B50F9093B60FA093B70F4C
:10C63000B093B80F8093B90F9093BA0FA093BB0F2C
:10C64000B093BC0F8093BD0F9093BE0FA093BF0F0C
:10C65000B093C00F8093AD0F9093AE0FA093AF0F28
:10C66000B093B00F80E090E0A0E8BFE380938B0A26
:10C6700090938C0AA0938D0AB0938E0A08952F92FE
:10C680003F924F925F926F927F928F929F92AF9262
:10C69000BF92CF92DF92EF92FF920F931F93DF939F
:10C6A000CF93CDB7DEB766970FB6F894DEBF0FBE57
:10C6B000CDBF9E8B8D8B6A017B0148015901DC0146
:10C6C000D8966D917D918D919C91DB970E94A5E10B
:10C6D000698B7A8B8B8B9C8BA70196010E94DAE386
:10C6E0000E94F2E00E9479E16D837E838F839887B8
:10C6F00069897A898B899C89A50194010E94DAE372
:10C700000E94F2E00E9479E169837A838B839C83A3
:10C710002D813E814F8158852837310541055105CE
:10C7200040F448E750E060E070E04D835E836F8343
:10C73000788769817A818B819C8168377105810551
:10C74000910540F488E790E0A0E0B0E089839A8307
:10C75000AB83BC83AD89BE89AC5BBF4FAD90BD9050
:10C76000CD90DC901397A454B040BE8BAD8B6D81FF
:10C770007E818F8198850E94A5E16D877E878F8756
:10C78000988BC601B5010E94A7E11B012C0120E096
:10C7900030E040E050E00E9405E1882321F4E0E031
:10C7A00070E060E028C069897A898B899C899B0147
:10C7B000AC010E94DAE37B018C016D857E858F855B
:10C7C00098899B01AC010E94DAE39B01AC01C8018E
:10C7D000B7010E942BE07B018C01C201B101A201D3
:10C7E00091010E942CE09B01AC01C801B7010E949D
:10C7F0000CE1E62F692F2E2F372F482F562FB90126
:10C80000CA010E94F2E00E9474E13B014C0169817F
:10C810007A818B819C810E94A5E169877A878B87C9
:10C820009C8766277727CB016A197B098C099D09AC
:10C830000E94A7E15B016C0120E030E040E050E0A5
:10C840000E9405E1882321F4E0E070E060E028C068
:10C8500069857A858B859C859B01AC010E94DAE312
:10C860007B018C0169897A898B899C899B01AC0148
:10C870000E94DAE39B01AC01C801B7010E942BE0E2
:10C880007B018C01C601B501A60195010E942CE037
:10C890009B01AC01C801B7010E940CE1E62F692F92
:10C8A0002E2F372F482F562FB901CA010E94E2E1DF
:10C8B000ED89FE89A088B188C288D3888601750178
:10C8C000E618F708080919090E9474E1A801970100
:10C8D000261B370B480B590B57FF71C0C201B10122
:10C8E00020E030E040E050E00E9405E1882321F4A0
:10C8F000E0E070E060E044C0C201B101A20191013A
:10C900000E942CE07B018C01C601B5010E94A5E1CB
:10C910009B01AC01C801B7010E94DAE37B018C01E5
:10C920006D857E858F8598899B01AC010E94DAE335
:10C930009B01AC01C801B7010E942BE07B018C0177
:10C9400069857A858B859C859B01AC010E94DAE321
:10C950009B01AC01C801B7010E942CE07B018C0156
:10C96000C201B10120E030E040E850E40E94DAE387
:10C970009B01AC01C801B7010E940CE1E62F692FB1
:10C980002E2F372F482F562FB901CA010E94F2E0EF
:10C990000E9474E1AC01CB01DA013C014D0197FE2C
:10C9A00003C06624772443016A147B048C049D042D
:10C9B00010F03501460120E030E040E050E09FB744
:10C9C000F8946D897E89645B7F4FDB018C91AC5458
:10C9D000B040BE8BAD8B882321F5FD01648A758A3A
:10C9E000868A978A260D371D481D591D58962D9306
:10C9F0003D934D935C935B972D813E814F8158858C
:10CA0000DC962D933D934D935C93DF97A05CBF4FD5
:10CA100029813A814B815C812D933D934D935C93A9
:10CA200013979FBF66960FB6F894DEBF0FBECDBFBB
:10CA3000CF91DF911F910F91FF90EF90DF90CF90FA
:10CA4000BF90AF909F908F907F906F905F904F902E
:10CA50003F902F9008954F925F927F928F929F9276
:10CA6000AF92BF92CF92DF92EF92FF920F931F93FC
:10CA7000CF93DF937090AC0FC0E0D0E0EDE44E2E8A
:10CA8000512C45C02097A9F18EA9882361F4849C7C
:10CA9000F001859CF00D949CF00D1124E552F54FAA
:10CAA00086A9882331F1EAA0FBA00CA11DA16EA1EB
:10CAB0007FA188A599A5A80197010E940CE15B01BF
:10CAC0006C01849CF001859CF00D949CF00D112468
:10CAD000E552F54F66A177A180A591A5A801970120
:10CAE0000E940CE18B019C01CE01B601A501C7DDBE
:10CAF0001EAA739480E1781609F47724849CE001DF
:10CB0000859CD00D949CD00D1124C552D54F872CF7
:10CB1000992487FC90948091AB0F90E08816990639
:10CB200009F0B0CF2097E9F0EAA0FBA00CA11DA16D
:10CB30006EA17FA188A599A5A80197010E940CE18B
:10CB40005B016C016DEC7CEC8CE49DE3A80197012A
:10CB50000E940CE18B019C01CE01B601A5018FDD85
:10CB60001EAADF91CF911F910F91FF90EF90DF9060
:10CB7000CF90BF90AF909F908F907F905F904F909D
:10CB8000089594DCE2DB67CF2F923F924F925F9241
:10CB90006F927F928F929F92AF92BF92CF92DF92CD
:10CBA000EF92FF920F931F93DF93CF93CDB7DEB732
:10CBB000C659D0400FB6F894DEBF0FBECDBF5C01A2
:10CBC0004B013A012901CD56DF4FE882C359D040CD
:10CBD000CC56DF4FF882C459D040CB56DF4F088384
:10CBE000C559D040CA56DF4F1883C659D040E19688
:10CBF000DFAECEAEE1978091AB0F8F5F803109F44D
:10CC000080E0282F332727FD30953CA72BA708C0AD
:10CC10000E9493900E9427340E943F990E945230B4
:10CC20008091AC0F90E04BA55CA58417950781F32C
:10CC300060917B0A70917C0A80917D0A90917E0AB6
:10CC4000AF966CAF7DAF8EAF9FAFAF97D5012D91F3
:10CC50003D914D915C910E94DAE30E94AAE3EE9629
:10CC60006FAFEE97EF967FAFEF97C158DF4F888396
:10CC7000CF57D040C058DF4F9883C058D040209144
:10CC80007F0A3091800A4091810A5091820AAB96C6
:10CC90002CAF3DAF4EAF5FAFAB97CA01B901D40126
:10CCA0002D913D914D915C910E94DAE30E94AAE39F
:10CCB000CF57DF4F6883C158D040CE57DF4F7883BE
:10CCC000C258D040CD57DF4F8883C358D040CC578F
:10CCD000DF4F9883C458D0402091830A3091840A52
:10CCE0004091850A5091860AA7962CAF3DAF4EAF72
:10CCF0005FAFA797CA01B901D3012D913D914D9125
:10CD00005C910E94DAE30E94AAE3CB57DF4F68836D
:10CD1000C558D040CA57DF4F7883C658D040C9574E
:10CD2000DF4F8883C758D040C857DF4F9883C85813
:10CD3000D0402091870A3091880A4091890A509109
:10CD40008A0AA3962CAF3DAF4EAF5FAFA397E19693
:10CD5000AEADBFADE1978C91082F10E0CA01B901CB
:10CD6000F20120813181428153810E94DAE3000F78
:10CD7000111F000F111FF801E557F54F2081318178
:10CD8000428153810E94DAE30E94AAE3C757DF4F32
:10CD90006883C958D040C657DF4F7883CA58D040FF
:10CDA000C557DF4F8883CB58D040C457DF4F988397
:10CDB000CC58D0408091D70A9091D80AA091D90A36
:10CDC000B091DA0AC757DF4F288139814A815B81E8
:10CDD000C958D040281739074A075B0709F4B2C081
:10CDE000005E1D4ED8016D917D918D919C91209199
:10CDF00076033091770340917803509179030E9434
:10CE000005E188230CF033C0C757DF4F28813981F3
:10CE10004A815B81C958D0402093D70A3093D80A01
:10CE20004093D90A5093DA0AEBE9FAE0949108C0EA
:10CE30008091C00085FFFCCF9093C60031969491FD
:10CE40009923B1F7EFEBFAE0949108C08091C0000C
:10CE500085FFFCCF9093C600319694919923B1F74A
:10CE60008091C00085FFFCCF8AE08093C60080914E
:10CE7000D70A9091D80AA091D90AB091DA0AC75777
:10CE8000DF4F288139814A815B81C958D040281BF6
:10CE9000390B4A0B5B0BCA01B90157FF07C09095CC
:10CEA0008095709561957F4F8F4F9F4F0E94A7E1AE
:10CEB0007B018C01A3966CAD7DAD8EAD9FADA3972C
:10CEC00020E030E046EE53E40E94DAE39B01AC013F
:10CED000C801B7010E9408E318160CF033C0C75709
:10CEE000DF4F488159816A817B81C958D040409386
:10CEF000D70A5093D80A6093D90A7093DA0AEBE9FB
:10CF0000FAE0949108C08091C00085FFFCCF909317
:10CF1000C600319694919923B1F7E1EAFAE0949131
:10CF200008C08091C00085FFFCCF9093C600319669
:10CF300094919923B1F78091C00085FFFCCF8AE0DE
:10CF40008093C6008091AB0F682F70E06F967FAF23
:10CF50006EAF6F978DE490E0689FF001699FF00DD0
:10CF6000789FF00D1124E552F54FE45BFF4F1082DE
:10CF7000EC54F0408091CB0A9091CC0AA091CD0A5C
:10CF8000B091CE0A6D968CAF9DAFAEAFBFAF6D972F
:10CF9000C358DF4F288139814A815B81CD57D0400A
:10CFA000281B390B4A0B5B0B69962CAF3DAF4EAF7C
:10CFB0005FAF6997208331834283538357FF0DC04E
:10CFC000DA01C901B095A095909581959F4FAF4F1B
:10CFD000BF4F80839183A283B3834091CF0A509146
:10CFE000D00A6091D10A7091D20A65964CAF5DAFBC
:10CFF0006EAF7FAF6597CF57DF4F88819981AA8148
:10D00000BB81C158D040841B950BA60BB70B619612
:10D010008CAF9DAFAEAFBFAF61978DE490E06F96E0
:10D02000AEADBFAD6F97A89FF001A99FF00DB89F5F
:10D03000F00D1124E552F54F61962CAD3DAD4EAD8E
:10D040005FAD6197248335834683578357FF0DC0B7
:10D05000DA01C901B095A095909581959F4FAF4F8A
:10D06000BF4F84839583A683B7834091D30A5091A1
:10D07000D40A6091D50A7091D60A2D964CAF5DAF57
:10D080006EAF7FAF2D97CB57DF4F88819981AA81F3
:10D09000BB81C558D040841B950BA60BB70B2996B6
:10D0A0008CAF9DAFAEAFBFAF29978DE490E06F9688
:10D0B000AEADBFAD6F97A89FF001A99FF00DB89FCF
:10D0C000F00D1124E552F54F29962CAD3DAD4EAD36
:10D0D0005FAD2997208731874287538757FF0DC05F
:10D0E000DA01C901B095A095909581959F4FAF4FFA
:10D0F000BF4F80879187A287B3872090D70A30904F
:10D10000D80A4090D90A5090DA0AC757DF4F4881B1
:10D1100059816A817B81C958D040421953096409F9
:10D1200075094DA35EA36FA378A79A01AB0157FFC2
:10D1300007C050954095309521953F4F4F4F5F4F19
:10D140008DE490E06F966EAD7FAD6F97689F800124
:10D15000699F100D789F100D11240552154F7CE02A
:10D16000E72EF12CE00EF11EE196AEADBFADE197DA
:10D17000EC91F0E0EE0FFF1FE25BFC4F60817181EC
:10D18000882777FD8095982F0E9481E724E630E07C
:10D1900040E050E00E94F5E7F8012487D70111969E
:10D1A0003C93119712964C93129713965C93608060
:10D1B000718082809380A480B580C680D780E0840F
:10D1C000F18402851385C901DA018E159F05A00738
:10D1D000B10714F4D801C7018A159B05AC05BD053C
:10D1E00014F4D601C5019C01AD0186159705A8056B
:10D1F000B90514F4A40193018DE490E06F96EEADAF
:10D20000FFAD6F97E89FB001E99F700DF89F700D1B
:10D2100011246552754FDB0150962D933D934D932C
:10D220005C935397263031054105510510F40C9459
:10D230000472FB01E85BFF4F80917F0690E0A0E065
:10D24000B0E080839183A283B383FB0110A2C35813
:10D25000DF4F288139814A815B81CD57D0406D965F
:10D260008CAD9DADAEADBFAD6D97281739074A07A0
:10D270005B0714F481E080A3CF57DF4F2881398109
:10D280004A815B81C158D04065966CAD7DAD8EAD55
:10D290009FAD6597261737074807590794F48DE423
:10D2A00090E06F96AEADBFAD6F97A89FF001A99FBC
:10D2B000F00DB89FF00D1124E552F54F80A182606A
:10D2C00080A3CB57DF4F288139814A815B81C558C4
:10D2D000D0402D966CAD7DAD8EAD9FAD2D972617B0
:10D2E00037074807590794F48DE490E06F96AEAD88
:10D2F000BFAD6F97A89FF001A99FF00DB89FF00DEB
:10D300001124E552F54F80A1846080A3C757DF4FF9
:10D31000288139814A815B81C958D0402215330563
:10D320004405550594F48DE490E06F964EAD5FADE5
:10D330006F97489FF001499FF00D589FF00D112401
:10D34000E552F54F80A1886080A38DE490E06F9650
:10D350006EAD7FAD6F97689FF001699FF00D789F6C
:10D36000F00D1124E552F54FE196AEADBFADE1975A
:10D370008C9181A3208131814281538125962CAFEC
:10D380003DAF4EAF5FAF25972115310541055105E2
:10D3900009F015988DE490E06F964EAD5FAD6F97F4
:10D3A000489FF001499FF00D589FF00D1124E55260
:10D3B000F54F6480758086809780611471048104C4
:10D3C000910409F046988DE490E06F966EAD7FADC4
:10D3D0006F97689FF001699FF00D789FF00D112401
:10D3E000E552F54FA084B184C284D384A114B10462
:10D3F000C104D10409F043988DE490E06F96AEAD7E
:10D40000BFAD6F97A89FF001A99FF00DB89FF00DD9
:10D410001124E552F54F84859585A685B78500973B
:10D42000A105B10551F0409820909F0A3090A00AC4
:10D430004090A10A5090A20A08C02090B70A3090EC
:10D44000B80A4090B90A5090BA0ACD56DF4F6881A9
:10D45000C359D040CC56DF4F7881C459D040CB5609
:10D46000DF4F8881C559D040CA56DF4F9881C659D1
:10D47000D040A20191010E9405E187FD16C0CD5662
:10D48000DF4F8881C359D040CC56DF4F9881C459B3
:10D49000D040CB56DF4FA881C559D040CA56DF4F88
:10D4A000B881C659D0401C012D0169966CAD7DAD87
:10D4B0008EAD9FAD69970E94A7E1AF962CAD3DADB3
:10D4C0004EAD5FADAF970E940CE1EA966FAFEA9761
:10D4D000EB967FAFEB97EC968FAFEC97ED969FAF07
:10D4E000ED97AC01CB01DA0189839A83AB83BC83CE
:10D4F00061966CAD7DAD8EAD9FAD61970E94A7E149
:10D50000AB962CAD3DAD4EAD5FADAB970E940CE13F
:10D51000E6966FAFE697E7967FAFE797E8968FAF0F
:10D52000E897E9969FAFE997AC01CB01DA018D83CB
:10D530009E83AF83B88729966CAD7DAD8EAD9FADD0
:10D5400029970E94A7E1A7962CAD3DAD4EAD5FADEA
:10D55000A7970E940CE1E2966FAFE297E3967FAF48
:10D56000E397E4968FAFE497E5969FAFE597AC011C
:10D57000CB01DA0189879A87AB87BC876DA17EA131
:10D580008FA198A50E94A7E1A3962CAD3DAD4EAD0D
:10D590005FADA3970E940CE17B018C01E196AEADDB
:10D5A000BFADE197EC91F0E0EE0FFF1FE25BFC4FA7
:10D5B00060817181882777FD8095982F0E94A7E16F
:10D5C0009B01AC01C801B7010E94DAE320E030E022
:10D5D00048EC52E40E940CE19B01AC016D877E8710
:10D5E0008F87988B25966CAD7DAD8EAD9FAD2597C1
:10D5F00066307105810591051CF576E067167104AA
:10D6000081049104ECF486E0A816B104C104D104AD
:10D61000BCF48DE490E06F96AEADBFAD6F97A89F60
:10D62000F001A99FF00DB89FF00D1124E552F54FC0
:10D63000DA01C901BF7786A797A7A0ABB1AB55C0E8
:10D64000EA962FADEA97EB963FADEB97EC964FAD90
:10D65000EC97ED965FADED97B901CA010E9485E4A4
:10D660003B014C01E6962FADE697E7963FADE79775
:10D67000E8964FADE897E9965FADE997B901CA0121
:10D680000E9485E45B016C01E2962FADE297E39680
:10D690003FADE397E4964FADE497E5965FADE59730
:10D6A000B901CA010E9485E47B018C01C401B30168
:10D6B000A60195010E942CE0A80197010E942CE090
:10D6C0000E9447E42DE430E06F964EAD5FAD6F975A
:10D6D000429FF001439FF00D529FF00D1124E5523F
:10D6E000F54F66A777A780AB91AB8DE490E06F967E
:10D6F0006EAD7FAD6F97689FF001699FF00D789FC9
:10D70000F00D1124E552F54F86A597A5A0A9B1A962
:10D7100021968CAF9DAFAEAFBFAF219760E070E0B8
:10D7200080E89FE321962CAD3DAD4EAD5FAD2197D6
:10D730000E940CE19B01AC01C201B1010E94DAE33D
:10D740002B013C018091AB0F9091AC0FA82FB0E062
:10D750005096A91BB109AF70B070BAA7A9A7A230A3
:10D76000B1050CF451C05D01CC24B7FCC094DC2C95
:10D77000C601B5010E94A7E120E030E040E051E49D
:10D780000E9405E188230CF03FC060E074E284E76A
:10D7900099E4A30192010E940CE10E94AAE37B019B
:10D7A0008C016091670A7091680A8091690A909172
:10D7B0006A0AE616F7060807190730F56E197F0999
:10D7C000800B910B660F771F881F991FA60195018B
:10D7D0000E94D3E7CA01B9010E94A5E10E94AAE311
:10D7E0009B01AC012E0D3F1D401F511FCA01B90105
:10D7F0000E94A5E19B01AC0160E074E284E799E43A
:10D800000E940CE12B013C018DE490E06F96EEAD9F
:10D81000FFAD6F97E89F8001E99F100DF89F100DF5
:10D8200011240552154F21966CAD7DAD8EAD9FAD87
:10D830002197A30192010E94DAE3D80192966D9399
:10D840007D938D939C93959750966D917D918D913D
:10D850009C9153970E94A5E1A30192010E94DAE3F3
:10D860000E94F2E00E9479E1F80160AF71AF82AFEF
:10D8700093AFC357DF4F1882CD58D040C257DF4F08
:10D880001882CE58D04020E8222E9FE3392E8824DB
:10D890009924E1E0F0E0EC0FFD1FE80DF91DC30154
:10D8A000B20120813181428153810E94DAE3E1E1BA
:10D8B000F0E0EC0FFD1FE80DF91D6083718382839A
:10D8C00093835B016C01E894D7F8F401E559F54FB7
:10D8D000E080F18002811381C601B501A8019701A2
:10D8E0000E9408E31816CCF4C801B701A6019501FF
:10D8F0000E940CE16B017C01C357DF4F6881CD585A
:10D90000D040C257DF4F7881CE58D040C101A70127
:10D9100096010E9405E188236CF4C357DF4F88818C
:10D92000CD58D040C257DF4F9881CE58D040D1015A
:10D930006C017D0124E030E0820E931E30E18316FD
:10D94000910471F0D701C601C357DF4FC882CD588B
:10D95000D040C257DF4F9883CE58D0401D0199CF99
:10D96000C701B60120E030E040E85FE30E9405E136
:10D9700088230CF04CC08E010F5E1F4F81E2A82E51
:10D98000B12CAC0EBD1ED8016D917D918D919C91F5
:10D99000A70196010E94DAE3F801619371938193E4
:10D9A00091938F01EA15FB0571F78DE490E06F9676
:10D9B0002EAD3FAD6F97289F8001299F100D389F96
:10D9C000100D11240552154FD80192966D917D913D
:10D9D0008D919C919597A70196010E94DAE3F80139
:10D9E00062A373A384A395A360AD71AD82AD93AD23
:10D9F0000E94A5E1A70196010E94DAE30E9479E165
:10DA0000D801D8966D937D938D939C93DB978DE48D
:10DA100090E06F96EEADFFAD6F97E89F8001E99FB4
:10DA2000100DF89F100D11240552154FD801509676
:10DA30006D917D918D919C9153970E94A5E1F80184
:10DA400026A537A540A951A90E940CE11B012C0174
:10DA5000F80180819181A281B3810097A105B10570
:10DA600049F584819581A681B7810097A105B1050B
:10DA700009F580859185A285B3850097A105B1053B
:10DA8000C9F4C201B1012091A70A3091A80A4091BE
:10DA9000A90A5091AA0A0E94DAE30E94F2E00C5B04
:10DAA0001F4F0E9479E1D8016D937D938D939C93D4
:10DAB000139771C1C201B1012091A30A3091A40A48
:10DAC0004091A50A5091A60A0E94DAE30E94F2E072
:10DAD0000E9479E12DE430E06F96EEADFFAD6F97D7
:10DAE000E29F6001E39FD00CF29FD00C11242BED3C
:10DAF0003AE0C20ED31E14E4612E712C6C0C7D1C16
:10DB0000D3016D937D938D939C9313978090BB0A63
:10DB10009090BC0AA090BD0AB090BE0A0E94A5E1F8
:10DB20007B018C01F60160817181828193810E9469
:10DB3000A7E19B01AC01C801B7010E94DAE37B01B8
:10DB40008C01D60150966D917D918D919C9153974A
:10DB50000E94A5E19B01AC01C801B7010E940CE144
:10DB60007B018C01C501B4010E94A5E19B01AC01C0
:10DB7000C801B7010E9408E318162CF4F301808253
:10DB80009182A282B3828090BF0A9090C00AA09036
:10DB9000C10AB090C20A8DE490E06F962EAD3FAD01
:10DBA0006F97289F6001299FD00C389FD00C1124BB
:10DBB0004BED5AE0C40ED51EB4E46B2E712C6C0CE8
:10DBC0007D1CD3016D917D918D919C910E94A5E169
:10DBD0007B018C01F60164817581868197810E94A9
:10DBE000A7E19B01AC01C801B7010E94DAE37B0108
:10DBF0008C01D60150966D917D918D919C9153979A
:10DC00000E94A5E19B01AC01C801B7010E940CE193
:10DC10007B018C01C501B4010E94A5E19B01AC010F
:10DC2000C801B7010E9408E318162CF4F3018082A2
:10DC30009182A282B3828090C70A9090C80AA09075
:10DC4000C90AB090CA0A8DE490E06F962EAD3FAD40
:10DC50006F97289F6001299FD00C389FD00C11240A
:10DC60004BED5AE0C40ED51EA4E46A2E712C6C0C48
:10DC70007D1CD3016D917D918D919C910E94A5E1B8
:10DC80007B018C01F60164857585868597850E94E8
:10DC9000A7E19B01AC01C801B7010E94DAE37B0157
:10DCA0008C01D60150966D917D918D919C915397E9
:10DCB0000E94A5E19B01AC01C801B7010E940CE1E3
:10DCC0007B018C01C501B4010E94A5E19B01AC015F
:10DCD000C801B7010E9408E318162CF4F3018082F2
:10DCE0009182A282B3828090C30A9090C40AA090CD
:10DCF000C50AB090C60A8DE490E06F962EAD3FAD98
:10DD00006F97289F6001299FD00C389FD00C112459
:10DD10004BED5AE0C40ED51EF4E46F2E712C6C0C42
:10DD20007D1CD3016D917D918D919C910E94A5E107
:10DD30007B018C01F60160857185828593850E9447
:10DD4000A7E19B01AC01C801B7010E94DAE37B01A6
:10DD50008C01D60150966D917D918D919C91539738
:10DD60000E94A5E19B01AC01C801B7010E940CE132
:10DD70007B018C01C501B4010E94A5E19B01AC01AE
:10DD8000C801B7010E9408E318162CF4F301808241
:10DD90009182A282B3828DE490E06F962EAD3FAD6A
:10DDA0006F97289F6001299FD00C389FD00C1124B9
:10DDB0004BED5AE0C40ED51EF601EC5BFF4F6081BF
:10DDC0007181828193810E94A5E17B018C01A20176
:10DDD00091010E940CE1D601D2966D937D938D93B3
:10DDE0009C93D597C801B7012DEB37E346E051E48A
:10DDF0000E94DAE30E9474E1F601648F758F868FCA
:10DE0000978F6090AB0A7090AC0A8090AD0A9090AA
:10DE1000AE0AC401B30120E030E040E05FE30E94BD
:10DE2000DAE35B016C01298D3A8D4B8D5C8D29AF56
:10DE30003AAF4BAF5CAF4091AF0A5091B00A6091DE
:10DE4000B10A7091B20A4DAB5EAB6FAB78AFCB014C
:10DE5000BA0120E030E040E05FE30E94DAE37B01BA
:10DE60008C0169AD7AAD8BAD9CAD9F77A801970110
:10DE70000E9408E3181644F4C601B501A8019701F1
:10DE80000E9405E1882314F4860175016D8D7E8D55
:10DE90008F8D98A169AB7AAB8BAB9CAB8091B30AA9
:10DEA0009091B40AA091B50AB091B60A8DA79EA729
:10DEB000AFA7B8ABBC01CD0120E030E040E05FE3AC
:10DEC0000E94DAE31B012C0169A97AA98BA99CA9FC
:10DED0009F77A20191010E9408E3181644F4C8013B
:10DEE000B701A20191010E9405E1882314F41701F2
:10DEF00028018DE490E06F96AEADBFAD6F97A89FFF
:10DF0000F001A99FF00DB89FF00D1124E552F54FD7
:10DF100022A133A144A155A129A33AA34BA35CA3F9
:10DF2000C201B1010E9405E187FD04C029A03AA009
:10DF30004BA05CA049A55AA5423051050CF401C183
:10DF40005091AD0FC157DF4F5883CF58D0406091EB
:10DF5000AE0FC057DF4F6883C059D0407091AF0FEC
:10DF6000CF56DF4F7883C159D0408091B00FCE5645
:10DF7000DF4F8883C259D040652FC057DF4F78816B
:10DF8000C059D040CF56DF4F8881C159D040CE56BE
:10DF9000DF4F9881C259D04027E137EB41ED58E37C
:10DFA0000E9408E318160CF0CCC069897A898B8925
:10DFB0009C892091B10F3091B20F4091B30F5091D5
:10DFC000B40F0E942BE00E9485E47B018C016D89D7
:10DFD0007E898F89988D2091B50F3091B60F409131
:10DFE000B70F5091B80F0E942BE00E9485E49B016F
:10DFF000AC01C801B7010E942CE00E9447E47B01FC
:10E000008C01A40193010E9408E318165CF00F2E06
:10E01000F0E06F2EF0E07F2EF0E88F2EFFE39F2ED2
:10E02000F02D08C0C401B301A80197010E940CE1C2
:10E030003B014C0169AD7AAD8BAD9CAD2091B90F20
:10E040003091BA0F4091BB0F5091BC0F0E942BE052
:10E050007B018C01E89417F9C801B7012DA93EA9ED
:10E060004FA958AD0E9408E3181694F46DA97EA933
:10E070008FA998ADA80197010E940CE15B016C018A
:10E08000C401B301A60195010E9405E1882314F49F
:10E090006401530169A97AA98BA99CA92091BD0F9C
:10E0A0003091BE0F4091BF0F5091C00F0E942BE0E6
:10E0B0007B018C01E89417F9C801B7012DA53EA595
:10E0C0004FA558A90E9408E3181694F46DA57EA5E3
:10E0D0008FA598A9A80197010E940CE17B018C01F2
:10E0E000C601B501A80197010E9405E1882314F437
:10E0F0008601750169A17AA18BA19CA1A801970154
:10E100000E94DAE37B018C01C157DF4F6881CF5851
:10E11000D040C057DF4F7881C059D040CF56DF4F35
:10E120008881C159D040CE56DF4F9881C259D04026
:10E13000A80197010E9405E187FD19C0D801C70118
:10E1400002C0D201C101C157DF4F8883CF58D040F0
:10E15000C057DF4F9883C059D040CF56DF4FA883B8
:10E16000C159D040CE56DF4FB883C259D0408DE45C
:10E1700090E06F96AEADBFAD6F97A89F8001A99F4D
:10E18000100DB89F100D11240552154FC157DF4FC8
:10E190008881CF58D040C057DF4F9881C059D040B8
:10E1A000CF56DF4FA881C159D040CE56DF4FB8813E
:10E1B000C259D040F80182A793A7A4A7B5A762A926
:10E1C00073A984A995A9905820E030E040E050EC74
:10E1D0000E94DAE3D8019E962D913D914D915C917C
:10E1E000D1970E94DAE32BE037ED43E25BE30E9434
:10E1F0002CE00E9447E4F62EE72ED82EC92EC157F8
:10E20000DF4F6881CF58D040C057DF4F7881C05969
:10E21000D040CF56DF4F8881C159D040CE56DF4F16
:10E220009881C259D0402F2D3E2D4D2D5C2D0E943E
:10E2300005E187FD14C0C157DF4FF882CF58D040A9
:10E24000C057DF4FE882C059D040CF56DF4FD88249
:10E25000C159D040CE56DF4FC882C259D0408DE45C
:10E2600090E06F96EEADFFAD6F97E89F8001E99F5C
:10E27000100DF89F100D11240552154FC157DF4F97
:10E280008881CF58D040C057DF4F9881C059D040C7
:10E29000CF56DF4FA881C159D040CE56DF4FB8814D
:10E2A000C259D040F80186A397A3A0A7B1A762A145
:10E2B00073A184A195A12F2D3E2D4D2D5C2D0E9483
:10E2C00005E118162CF081E0D801D7968C9302C096
:10E2D000F80117AA8DE490E06F962EAD3FAD6F97D1
:10E2E000289FF001299FF00D389FF00D1124E55271
:10E2F000F54F81E086ABA1EBBFE0FE01719680E1B6
:10E3000001900D928150E1F78DE490E06F964EAD53
:10E310005FAD6F97489F6001499FD00C589FD00C0C
:10E3200011246BED7AE0C60ED71ED6019296ED90C1
:10E33000FD900D911C919597E092AD0FF092AE0F6C
:10E340000093AF0F1093B00F96966D917D918D91C4
:10E350009C919997A80197010E940CE14B015C01E7
:10E36000C201B101A80197010E940CE18B019C013F
:10E37000C601B501A4010E943F63BBA5B093AB0FDA
:10E38000C757DF4F288139814A815B81C958D04006
:10E390002093D70A3093D80A4093D90A5093DA0AC7
:10E3A000CB57DF4F488159816A817B81C558D04066
:10E3B0004093D30A5093D40A6093D50A7093D60A37
:10E3C000CF57DF4F688179818A819B81C158D040C6
:10E3D0006093CF0A7093D00A8093D10A9093D20AA7
:10E3E000C358DF4F88819981AA81BB81CD57D04026
:10E3F0008093CB0A9093CC0AA093CD0AB093CE0A17
:10E400000E94C1650E944C83CA56DF4F0FB6F89434
:10E41000DEBF0FBECDBFCF91DF911F910F91FF9057
:10E42000EF90DF90CF90BF90AF909F908F907F90B4
:10E430006F905F904F903F902F900895FF920F93B1
:10E440001F93CF93DF938B010E94121BEB01FF24DC
:10E45000FA9409C00E94121B6C1B7D0B6017710798
:10E4600010F080E008C0FEBC0DB407FEFDCF8EB5F5
:10E470008F3F81F781E0DF91CF911F910F91FF9046
:10E480000895FC014281242F30E0C90195958795BC
:10E4900080658CBD40FF02C080E004C080E0463053
:10E4A00009F081E08DBD808160E00C94131DDF9246
:10E4B000EF92FF920F931F93CF93DF93EC01D62E31
:10E4C00079018A01DEDFCE016CE271E0B7DF8D2DCC
:10E4D00080648EBD0DB407FEFDCF28E130E0D80189
:10E4E000C701022E04C0B695A795979587950A9403
:10E4F000D2F78EBD0DB407FEFDCF285030408FEF10
:10E50000283F380761F7DD2011F485E906C088E06F
:10E51000D81611F487E801C08FEF8EBD0DB407FE49
:10E52000FDCF8CE0D81631F48FEF8EBD0DB407FE11
:10E53000FDCF8EB59FEF2FEF2EBD0DB407FEFDCFA3
:10E540008EB587FF04C0992311F09150F5CF8B83CE
:10E55000DF91CF911F910F91FF90EF90DF90089581
:10E56000FC01808161E00C94131DDC016EBDFA0199
:10E5700020E030E00DB407FEFDCF80818EBD0DB4EC
:10E5800007FEFDCF81818EBD2E5F3F4F329682E028
:10E590002030380779F70DB407FEFDCF8FEF8EBD21
:10E5A0000DB407FEFDCF8FEF8EBD0DB407FEFDCF7E
:10E5B0008FEF8EBD0DB407FEFDCF8EB513968C93F5
:10E5C00013978F71853011F481E0089583E11196DE
:10E5D0008C931197CD01C4DF80E00895CF92DF9234
:10E5E000EF92FF920F931F93CF93DF93EC017A0189
:10E5F0008B0169018C81833039F059E0EE0CFF1CEE
:10E60000001F111F5A95D1F7CE0168E1A8019701AB
:10E610004EDF882311F086E020C0CE016EEFA60108
:10E62000A4DF8823D9F0CE0168E572E007DF8823F4
:10E6300011F487E112C0CE016DE020E030E040E04F
:10E6400050E035DF882341F48FEF8EBD0DB407FE17
:10E65000FDCF8EB5882371F086E18983CE0180DFFE
:10E6600080E0DF91CF911F910F91FF90EF90DF90AD
:10E67000CF900895CE0174DF81E0F3CFBF92CF92A7
:10E68000DF92EF92FF920F931F93CF93DF93EC01F2
:10E690006B018A010E94121B7B01BB24BA9409C042
:10E6A0000E94121B6E197F096D52714010F081E1BA
:10E6B0005FC0BEBC0DB407FEFDCF8EB58B838F3F10
:10E6C00079F38E3F11F08FE053C0D80111970115F7
:10E6D0001105D9F08FEF8EBD20E030E09FEF0BC029
:10E6E0000DB407FEFDCF8EB5F601E20FF31F808358
:10E6F0009EBD2F5F3F4F2A173B0790F30DB407FED7
:10E70000FDCF8EB5AC0DBD1D8C9340E050E060E0B8
:10E7100070E016C0272F3327F601E40FF51F808124
:10E7200090E028273927220F331F2752354FF90150
:10E7300085919491762F6627682779274F5F5F4FE1
:10E740004017510738F38FEF8EBD0DB407FEFDCF94
:10E750003EB58FEF8EBD0DB407FEFDCF2EB5932FC6
:10E7600080E030E0822B932B6817790731F080E24C
:10E770008983CE01F5DE80E003C0CE01F1DE81E0C9
:10E78000DF91CF911F910F91FF90EF90DF90CF908D
:10E79000BF900895AF92BF92CF92DF92EF92FF9217
:10E7A0000F931F93CF93DF93EC017A018B015901F3
:10E7B0008C81833039F029E0EE0CFF1C001F111F03
:10E7C0002A95D1F793E0D92E84E0C82EDA94CE01B1
:10E7D00061E1A80197016BDE882311F0C98209C0AD
:10E7E000CE01B50140E052E049DF882311F081E01D
:10E7F00010C0DD2059F0CE01B3DECE016CE020E088
:10E8000030E040E050E053DE1982E0CFCE01A8DED8
:10E8100080E0DF91CF911F910F91FF90EF90DF90FB
:10E82000CF90BF90AF900895BF92CF92DF92EF92BA
:10E83000FF920F931F93CF93DF93EC01B62E1C82B0
:10E84000198248830E94121B6B01888161E00E943B
:10E85000601CCE0185DE82E360E00E94601C83E3E1
:10E8600061E00E94601C84E361E00E94601C85E31B
:10E8700061E00E94601C85E361E00E94131D85E059
:10E880008A8382E58CBD1DBC80E09FEF9EBD0DB4E8
:10E8900007FEFDCF8F5F8A30C9F709C00E94121BA7
:10E8A0006C197D09615D774010F081E059C0CE019F
:10E8B00060E020E030E040E050E0F9DD182F8B838D
:10E8C000813061F7CE0168E02AEA31E040E050E0B3
:10E8D000EEDD82FF02C01C8311C080E02FEF2EBD51
:10E8E0000DB407FEFDCF9EB58F5F8430C1F79B83CB
:10E8F0009A3A11F082E034C082E08C838C818230BD
:10E9000021F0EE24FF2487010FC0E12CF12C012D12
:10E9100050E4152F09C00E94121B6C197D09615D1E
:10E92000774010F08AE01CC0CE0167E320E030E0C1
:10E9300040E050E0BCDDCE0169E2A8019701B7DDFF
:10E940008B83882341F78C81823019F5CE016AE3ED
:10E9500020E030E040E050E0AADD882329F088E0A4
:10E960008983CE01FDDD20C08FEF8EBD0DB407FE83
:10E97000FDCF8EB5807C803C11F483E08C8380E0F9
:10E980009FEF9EBD0DB407FEFDCF2EB58F5F833088
:10E99000C1F7CE01E5DD86E08B1518F488E18983A7
:10E9A00003C0BA8281E001C080E0DF91CF911F9166
:10E9B0000F91FF90EF90DF90CF90BF900895CF938D
:10E9C000DF93DC01EB01BA0180E090E020E2FE0180
:10E9D000E80FF91F208301968B309105C1F757E0AE
:10E9E00040E022C02E3219F089ED9CE007C05A3079
:10E9F00049F15AE048E017C0321721F1FC010196B5
:10EA000034913323C9F75417E8F02132D8F02F3767
:10EA1000C8F4822F81568A3108F42052FE01E40F97
:10EA2000F11D20834F5F11962C91222311F02F327C
:10EA3000C9F6FB01B183A08390E08881803219F090
:10EA400091E001C090E0892FDF91CF9108956F92FE
:10EA50007F928F929F92AF92BF92CF92DF92EF926E
:10EA6000FF920F931F93CF93DF93EC017A018B01F9
:10EA70002B81222309F480C089899A89AB89BC89BA
:10EA800084179507A607B70708F476C085C0E11478
:10EA9000F1040105110551F41C821D821E821F82A2
:10EAA000188619861A861B8681E067C028853985F5
:10EAB0004A855B85E98DFA8D858590E00996215020
:10EAC00030404040504039014A01082E04C096941D
:10EAD0008794779467940A94D2F72F5F3F4F4F4FF4
:10EAE0005F4F0894E108F108010911095701680115
:10EAF00004C0D694C794B794A7948A95D2F7089483
:10EB0000E11CF11C011D111DA614B704C804D90491
:10EB100028F0211531054105510549F48D899E895B
:10EB2000AF89B88D8C839D83AE83BF8316C0A61832
:10EB3000B708C808D90811C04C815D816E817F81FA
:10EB4000898D9A8D94010E94FB800894A108B108D8
:10EB5000C108D108882331F40FC084E0882E912C9D
:10EB60008C0E9D1EA114B104C104D10429F7E886BE
:10EB7000F9860A871B8798CF80E0DF91CF911F919C
:10EB80000F91FF90EF90DF90CF90BF90AF909F904C
:10EB90008F907F906F900895223009F078CFE7CF63
:10EBA000CF93DF93EC018C859D85AE85BF8540E0DA
:10EBB000611141E0BC01CD010E94C97E882319F496
:10EBC00020E030E00AC08889282F30E095E0220F4D
:10EBD000331F9A95E1F72553304FC901DF91CF914B
:10EBE00008950F931F93CF93DF938C01FC018381D2
:10EBF0008823E9F1818187FF37C0C80161E0D0DF58
:10EC0000EC010097A1F18881853E89F1F8018381AB
:10EC1000823040F481899289A389B4898C8F9D8F39
:10EC2000AE8FBF8FF801858996899B8F8A8F8589E2
:10EC30009689A789B08DCD01AA27BB279D8B8C8B88
:10EC4000E091C50FF091C60F309751F0BE016A5E9A
:10EC50007F4FCE0148961995888D998D9B8B8A8B15
:10EC6000F80181818F7781830E948E7E04C081E0CC
:10EC7000F801808380E0DF91CF911F910F9108957B
:10EC80000F931F938C01ADDFF80113821F910F9139
:10EC90000895FC018381882311F0CF01F1CF0895FD
:10ECA0006F927F928F929F92AF92BF92CF92DF929C
:10ECB000EF92FF920F931F93DF93CF9300D00F92A9
:10ECC000CDB7DEB77C015A016B01DC0113968C9144
:10ECD0001397813009F08EC011968C9181FF8AC004
:10ECE0009DC00097A105B10511F481E084C0F70132
:10ECF0006084718482849384C701B601A501A7DE74
:10ED0000882309F477C0D70159968D919C915A9721
:10ED1000A114B104C104D10489F455964D915D91BB
:10ED20006D917C9158970E947081882309F462C08C
:10ED3000F701158A168A178A108E44C0D7011496D7
:10ED40004D915D916D917C9117979E012F5F3F4F83
:10ED50000E94FB80882309F44DC0D7015996ED919C
:10ED6000FC915A9749815A816B817C8187898031D6
:10ED700049F4483FBFEF5B07B0E06B07B0E07B07AB
:10ED800048F020C0483F8FEF58078FEF68078FE0AB
:10ED90007807C0F4CF010E947081882359F1D70110
:10EDA00014964D915D916D917C91179759968D9127
:10EDB0009C915A970FEF1FEF2FEF3FE00E94758055
:10EDC0008823C1F0F701A18AB28AC38AD48A8181DB
:10EDD00080688183C70105DF882361F0B601A50142
:10EDE0006A147B048C049D0410F4B401A301C701D0
:10EDF0002EDE01C080E00F900F900F900F90CF910A
:10EE0000DF911F910F91FF90EF90DF90CF90BF9017
:10EE1000AF909F908F907F906F900895F7018189B8
:10EE20009289A389B48984179507A607B70708F0C4
:10EE300058CFE0CFCF93DF93EC0140E050E060E0AB
:10EE400070E02EDF882359F0CE0161E0A9DEFC01DD
:10EE5000009729F085EE80831B8260D701C080E097
:10EE6000DF91CF9108952F923F924F925F926F92D0
:10EE70007F928F929F92AF92BF92CF92DF92EF924A
:10EE8000FF920F931F93CF93DF93EC012A018B81A5
:10EE9000882309F4B5C0898180FFB2C0C7C02501AD
:10EEA0004E185F083B0174E0272E312C2C0E3D1EBE
:10EEB0004201A0C0288539854A855B856FEFA62E63
:10EEC00061E0B62EA222B3228B8179018A0199E0FA
:10EED00016950795F794E7949A95D1F7E98DFA8DF1
:10EEE000823049F4428D538D648D758D4E0D5F1DBA
:10EEF000601F711F3FC0D480DA94DE20A114B104DA
:10EF0000D9F4DD20C9F4211531054105510549F435
:10EF10008D899E89AF89B88D8C839D83AE83BF8395
:10EF20000BC04C815D816E817F81CF0191010E9478
:10EF3000FB80882309F464C0E98DFA8D4C815D81E2
:10EF40006E817F814250504060407040058404C013
:10EF5000440F551F661F771F0A94D2F78685978541
:10EF6000A089B189480F591F6A1F7B1F4D0D511D84
:10EF7000611D711D80E092E08A199B09840188154A
:10EF8000990508F48C0182E00030180709F066C08A
:10EF90008091C70F9091C80FA091C90FB091CA0F6F
:10EFA000481759076A077B0709F458C08091CB11AD
:10EFB0009091CC119301EEDB882349F421C0950197
:10EFC0002553304FC301B901A8010E9498DF600E9C
:10EFD000711E980140E050E088859985AA85BB851F
:10EFE000820F931FA41FB51F88879987AA87BB87A5
:10EFF000801A910A8114910409F05CCFA20102C029
:10F000004FEF5FEFCA01DF91CF911F910F91FF90FA
:10F01000EF90DF90CF90BF90AF909F908F907F90B8
:10F020006F905F904F903F902F900895A988BA8875
:10F03000CB88DC88E884F9840A851B859A0140E046
:10F0400050E0D601C5018E199F09A00BB10B2817FE
:10F0500039074A075B0708F022CF24CFCB01BA015A
:10F0600040E097D6882309F0AACFCACFCF92DF928B
:10F07000EF92FF920F931F93CF93DF937C01EB01ED
:10F080008A01FC018381823008F46EC080859185FD
:10F09000A285B3858F719070A070B0700097A105A4
:10F0A000B10509F061C06CC0F8011082EDE0CE2E10
:10F0B000D12CC701BE0140E250E0D5DE9C01803278
:10F0C000910521F0009709F04FC050C048814423BA
:10F0D00009F44CC0453E69F34E3259F38B858F736A
:10F0E0008F30E9F501151105D1F18A8D9B8D892BA2
:10F0F000B1F5842F90E08F719070009781F183308B
:10F1000091056CF58C9D90018D9D300D9C9D300D71
:10F1100011242D503040F801E20FF31F89818083C4
:10F120008B8181838D8182838F8183838985848391
:10F130008E858583888986838A8987838C89808761
:10F140008E898187888D82878C8D83878E8D848739
:10F15000888186FF04C0F801E20FF31F15868B85B6
:10F1600083FDA7CF822F03C08FEF01C080E0DF9126
:10F17000CF911F910F91FF90EF90DF90CF90089566
:10F180004115510509F090CF91CFDF93CF930F92A6
:10F19000CDB7DEB7BE016F5F7F4F41E050E063DE69
:10F1A000019719F02FEF3FEF03C08981282F30E03E
:10F1B000C9010F90CF91DF910895EF92FF920F93C5
:10F1C0001F93CF93DF93EC018B81823030F1E88481
:10F1D000F9840A851B85CE01D8DF97FD1EC088857E
:10F1E0009985AA85BB854F96A11DB11D88879987F2
:10F1F000AA87BB87A5E016950795F794E794AA958B
:10F20000D1F72E2D30E02F703070F5E0220F331F34
:10F21000FA95E1F72553304F02C020E030E0C901F4
:10F22000DF91CF911F910F91FF90EF9008950F9371
:10F230001F93CF93DF93EC018B018B81882309F01F
:10F2400040C0FB018789803109F041C082E08B8397
:10F250001D8A1E8A1F8A188E808D918DA0E0B0E0D5
:10F2600045E0880F991FAA1FBB1F4A95D1F7898BCC
:10F270009A8BAB8BBC8B13C083E08B83F801428DE0
:10F28000538D648D758D4D8B5E8B6F8B788F9E014A
:10F290002F5E3F4FC8010E94CC81882391F01A8FC6
:10F2A000098F81E089831C821D821E821F8218863D
:10F2B00019861A861B861C861D861E861F86188A3E
:10F2C00001C080E0DF91CF911F910F9108958032AE
:10F2D000C1F7D2CF1F93CF93DF93EC01142F262FCA
:10F2E00030E0F90175E0EE0FFF1F7A95E1F7E55385
:10F2F000F04F8385817121F0842F827109F067C0FE
:10F300008091C70F9091C80FA091C90FB091CA0FFB
:10F310008C879D87AE87BF87688BF90165E0EE0F0C
:10F32000FF1F6A95E1F7E553F04F84899589A0E0C6
:10F33000B0E0DC01992788278D8B9E8BAF8BB88F2F
:10F34000228D338DA90160E070E0482B592B6A2B88
:10F350007B2B4D8B5E8B6F8B788F838590E08871D4
:10F360009070009751F4848D958DA68DB78D898B03
:10F370009A8BAB8BBC8B81E00CC0409741F59E0112
:10F380002F5E3F4F898D9A8D0E94CC818823F9F0A2
:10F3900084E08B83812F8F7089831C821D821E8263
:10F3A0001F82188619861A861B8614FF16C0CE0186
:10F3B00040E050E060E070E073DC882371F409C045
:10F3C00049895A896B897C89CE0141DB02C01B8245
:10F3D00080E0DF91CF911F91089515FDF1CF81E07D
:10F3E000F8CF2F923F924F925F926F927F928F92BF
:10F3F0009F92AF92BF92CF92DF92EF92FF920F93C4
:10F400001F93DF93CF930F92CDB7DEB72C015B0133
:10F410003A01490100E010E0EE24EA94FE2C1E01BE
:10F420000894211C311C11C00A0D1B1DF8016083BA
:10F430008114910419F46A3039F41BC0C40170E0DE
:10F440000E94ACDF0097A9F4860168010894C11CF2
:10F45000D11CC614D7043CF5C201B10141E050E013
:10F4600002DD7C0181309105F1F469816D30E1F6B6
:10F47000ECCF8601A00EB11EF5011082C8010F90DD
:10F48000CF91DF911F910F91FF90EF90DF90CF9080
:10F49000BF90AF909F908F907F906F905F904F90B4
:10F4A0003F902F900895F7FEE5CF0FEF1FEFE6CFC7
:10F4B000CF93DF93EC019C012C5F3F4F898D9A8D98
:10F4C00041E050E060E070E0D2D78823A1F08D8960
:10F4D0009E89AF89B88D0097A105B10559F48C813B
:10F4E0009D81AE81BF818D8B9E8BAF8BB88F8981C3
:10F4F0008068898381E0DF91CF9108952F923F92B8
:10F500004F925F927F928F929F92AF92BF92CF92D3
:10F51000DF92EF92FF920F931F93DF93CF9300D070
:10F5200000D0CDB7DEB76C01162F072F5E834D8359
:10F53000DC0113968C911397813009F069C1119603
:10F540008C9181FF65C182C1F6014189528963892D
:10F55000748980859185A285B38584179507A60750
:10F56000B70729F0C60173DA882309F451C1812F46
:10F57000902F9C0119014D805E800FC1D6015996D4
:10F58000ED91FC915A97DA01C90149E0B695A7952A
:10F59000979587954A95D1F774807A9478228FEF62
:10F5A000882E81E0982E82229322772009F051C084
:10F5B0008114910409F04DC0D60114964D915D91CE
:10F5C0006D917C911797411551056105710581F485
:10F5D00055968D919D910D90BC91A02D0097A10500
:10F5E000B10559F1F60184839583A683B78331C0B1
:10F5F000CF019E012F5F3F4FFED5882309F408C13C
:10F6000029813A814B815C81D6015996ED91FC911B
:10F610005A978789803149F4283FBFEF3B07B0E014
:10F620004B07B0E05B0770F008C0283FEFEF3E07E4
:10F63000EFEF4E07EFE05E0728F0C60139DF8823C1
:10F6400041F4E6C0D60114962D933D934D935C93FF
:10F65000179780E092E08819990952018415950561
:10F6600008F45C01D6015996ED91FC915A971496D5
:10F67000ED90FD900D911C9117978EEF9FEFAFEFDE
:10F68000BFEFE80EF91E0A1F1B1F058404C0EE0C15
:10F69000FF1C001F111F0A94D2F786859785A08949
:10F6A000B189E80EF91E0A1F1B1FE70CF11C011D92
:10F6B000111D90E0A91692E0B90639F58091C70FA7
:10F6C0009091C80FA091C90FB091CA0F8E159F05D8
:10F6D000A007B10771F41092CD118FEF9FEFAFEF3C
:10F6E000BFEF8093C70F9093C80FA093C90FB0933B
:10F6F000CA0F8091CB119091CC11B801A701910153
:10F700000E94EE728823A9F583C08114910411F53B
:10F71000D60118962D913D914D915C911B97519674
:10F720008D919D910D90BC91A02D281739074A0706
:10F730005B0780F0F3D2882309F46AC081E08093EC
:10F74000CD11E092C70FF092C80F0093C90F10932C
:10F75000CA0F07C0C801B70141E01BD3882309F4D1
:10F7600057C094012553304FC901B101A5010E9432
:10F7700098DF950140E050E0F60180859185A285F3
:10F78000B385820F931FA41FB51F80879187A2871F
:10F79000B3872A0C3B1C4A185B08D60118962D919A
:10F7A0003D914D915C911B974114510409F0E6CEB7
:10F7B00051968D919D910D90BC91A02D821793072C
:10F7C000A407B50748F4F601218B328B438B548B89
:10F7D00081818068818311C08091C50F9091C60F8F
:10F7E000892B59F08D819E81892B39F0D601119694
:10F7F0008C911197806811968C93F601818183FF1B
:10F8000004C0C601EED9882319F04D815E8105C080
:10F8100081E0D6018C934FEF5FEFCA0126960FB6B9
:10F82000F894DEBF0FBECDBFCF91DF911F910F9136
:10F83000FF90EF90DF90CF90BF90AF909F908F9010
:10F840007F905F904F903F902F90089582FD7CCEE7
:10F850008ECEDF92EF92FF920F931F93CF93DF93A1
:10F86000EC0189899A89AB89BC89805E9F4FAF4141
:10F87000B04008F06FC0CE011BDE882309F46AC0D7
:10F880004DD2882309F466C0E98DFA8DEC80FD80A5
:10F890000E811F818EEF9FEFAFEFBFEFE80EF91ED5
:10F8A0000A1F1B1F058404C0EE0CFF1C001F111F44
:10F8B0000A94D2F786859785A089B189E80EF91E4A
:10F8C0000A1F1B1F81E08093CD11E092C70FF092B9
:10F8D000C80F0093C90F1093CA0F80E092E0EBECC1
:10F8E000FFE0DF019C011D9221503040E1F7DD2453
:10F8F000D39411C0B801A7014D0D511D611D711D9B
:10F900008091CB119091CC112BEC3FE00E94EE72D4
:10F91000882301F1D394E98DFA8D8481D81650F3B0
:10F9200020E032E040E050E0058404C0220F331FA5
:10F93000441F551F0A94D2F789899A89AB89BC89DB
:10F94000820F931FA41FB51F898B9A8BAB8BBC8B27
:10F9500081E001C080E0DF91CF911F910F91FF9076
:10F96000EF90DF9008958F929F92AF92BF92CF92C7
:10F97000DF92EF92FF920F931F93CF93DF936C016F
:10F98000EB01942E852EA22E898D9A8DD6015A9642
:10F990009C938E935997CB0140E050E060E070E07B
:10F9A00056D8BB2437C0CE0108DCFC01009709F40F
:10F9B0008FC055E016950795F794E7945A95D1F7BF
:10F9C0001E2D1F708081882311F0853EC9F4BB2055
:10F9D00099F42091C70F3091C80F4091C90F5091F1
:10F9E000CA0FD6011C962D933D934D935C931F97A0
:10F9F00050961C93BB24B3948081882359F418C07B
:10FA0000892D982DBF014BE050E00E948BDF0097BD
:10FA100009F46CC0E884F9840A851B8589899A8970
:10FA2000AB89BC89E816F9060A071B0708F4BBCFA7
:10FA3000A6FE4EC0A1FE4CC0BB2049F0F6011089C5
:10FA4000C60161E0ADD8EC01009761F441C08B8143
:10FA5000823009F43DC0CE01FCDE8823C9F110E0FC
:10FA6000CBECDFE080E2DE011D928A95E9F7DE0152
:10FA7000292D382DC901FC018BE001900D92815098
:10FA8000E1F7E091C50FF091C60F309739F0BE0154
:10FA9000625F7F4FCE014096199508C081E298E2DF
:10FAA000998B888B80E098E09F878E8788899989D9
:10FAB0009B8B8A8B998F888F8E859F859F8B8E8B52
:10FAC0002DD1882329F0C601612F4A2D03DC01C006
:10FAD00080E0DF91CF911F910F91FF90EF90DF9029
:10FAE000CF90BF90AF909F908F900895A7FEEBCFDF
:10FAF000EFCF2F923F924F925F926F927F928F92B1
:10FB00009F92AF92BF92CF92DF92EF92FF920F93AC
:10FB10001F93DF93CF93CDB7DEB7C654D0400FB657
:10FB2000F894DEBF0FBECDBF3C016B01DE01AE5BC2
:10FB3000BF4F11965C934E9325962FAF25971C8649
:10FB40001F861FA21AA66115710509F47CC0FC016D
:10FB50008381882309F077C0FA0180818F32F1F028
:10FB60008601ECE0EE2EF12CEC0EFD1E72E4A72EC9
:10FB7000B12CAC0EBD1E4E010894811C911C279621
:10FB8000FFAEEEAE279767E2262E312C2C0E3D1EDF
:10FB9000270123C01196B183A08301C0FD01A0817C
:10FBA000B1818C918F32B1F3D60113968C9113975A
:10FBB00082508230A8F28E01095D1F4F59966D91D7
:10FBC0007C915A97C80133DB882359F63CC0342D09
:10FBD000252D8701832F922F7C01F5018081918152
:10FBE000B401A5010E94DF74882329F42CC031964A
:10FBF000D501ED93FC93D501ED91FC9180818F327D
:10FC0000B1F38823B9F0C701B801A40121E0ABDE4C
:10FC10008823C9F00C151D0511F0C80131D82796AD
:10FC2000EEADFFAD2797EE16FF0689F6C101322D26
:10FC3000292FCFCFC301B801A40125962FAD259759
:10FC400092DE182F01C010E0CE01879622D8CE0197
:10FC50000C961FD8812FCA5BDF4F0FB6F894DEBF1A
:10FC60000FBECDBFCF91DF911F910F91FF90EF900D
:10FC7000DF90CF90BF90AF909F908F907F906F90CC
:10FC80005F904F903F902F9008950F931F93DF93B5
:10FC9000CF93CDB7DEB76B970FB6F894DEBF0FBE2C
:10FCA000CDBF9C01AB0119821C828E010F5F1F4FDB
:10FCB000C801B90122E01DDF882311F410E003C060
:10FCC000C801B8D8182FCE0101960E944976812F1D
:10FCD0006B960FB6F894DEBF0FBECDBFCF91DF910C
:10FCE0001F910F910895DB010D900020E9F7119706
:10FCF000A61BB70B0496AD0101CCDF93CF930F92F7
:10FD0000CDB7DEB769830496BE016F5F7F4F41E0D8
:10FD100050E0F4DB0F90CF91DF9108958091CD11E9
:10FD2000882399F14091C70F5091C80F6091C90F76
:10FD30007091CA0F8091CB119091CC112BEC3FE0C8
:10FD40000E94EE72882319F14091CE115091CF118B
:10FD50006091D0117091D111411551056105710566
:10FD600091F08091CB119091CC112BEC3FE00E944F
:10FD7000EE72882361F01092CE111092CF11109282
:10FD8000D0111092D1111092CD1181E0089580E030
:10FD90000895DF92EF92FF920F931F937B018C01E6
:10FDA000D42E8091C70F9091C80FA091C90FB09128
:10FDB000CA0F8E159F05A007B107B9F0AFDF8823E2
:10FDC000E1F08091CB119091CC11B801A7012BECFF
:10FDD0003FE00E94CA73882381F0E092C70FF0923F
:10FDE000C80F0093C90F1093CA0FDD2011F481E0F2
:10FDF00011C081E08093CD110DC08FEF9FEFAFEF69
:10FE0000BFEF8093C70F9093C80FA093C90FB09313
:10FE1000CA0F80E01F910F91FF90EF90DF9008953F
:10FE20008F929F92AF92BF92CF92DF92EF92FF920A
:10FE30000F931F93CF93DF936C01142F7093CC110A
:10FE40006093CB11FC01178A82E090E0A0E0B0E063
:10FE500080839183A283B3831092CD111092CE112F
:10FE60001092CF111092D0111092D1118FEF9FEFFD
:10FE7000AFEFBFEF8093C70F9093C80FA093C90F48
:10FE8000B093CA0F442321F48824992454013FC01D
:10FE9000453008F01CC160E070E080E090E040E098
:10FEA00078DF882309F413C1C12FD0E02197FE0128
:10FEB00074E0EE0FFF1F7A95E1F7E553F04FE2543F
:10FEC000FE4F8081EE5BF14090E08F779070892B40
:10FED00009F0FDC0E653FE4F80819181A281B3817C
:10FEE00084369105A105B10508F4F1C064E0CC0F9A
:10FEF000DD1F6A95E1F7CF56DE4E88809980AA8093
:10FF0000BB8081149104A104B10409F4E0C0C501CF
:10FF1000B40140E03EDF882309F4D9C08091D60FB8
:10FF20009091D70F8050924009F0D1C02091DB0F03
:10FF3000222309F4CCC08091D90F9091DA0F892B3C
:10FF400009F4C5C08091D80F882309F4C0C0F60118
:10FF5000228B8091D80F8483158661E070E007C002
:10FF60004F5FF60145874150483008F0B0C0F601B8
:10FF70004585848190E09B01042E02C0220F331F2F
:10FF80000A94E2F78217930759F72091E10F309115
:10FF9000E20F2115310519F040E050E008C0209132
:10FFA000EF0F3091F00F4091F10F5091F20FF601E9
:10FFB0002583368347835087E090D90FF090DA0F7E
:10FFC00000E010E0E80CF91C0A1D1B1DE38AF48A0E
:10FFD000058B168B8091DC0F9091DD0F918F808FB8
:10FFE0006091DB0F70E080E090E00E9481E76E0D91
:10FFF0007F1D801F911FF601628F738F848F958FF5
:020000021000EC
:100000002091DC0F3091DD0F55E0220F331F5A9500
:10001000E1F721503E4F232F3327269540E050E053
:10002000260F371F481F591F26873787408B518B54
:100030008091DE0F9091DF0F009719F0A0E0B0E003
:1000400008C08091EB0F9091EC0FA091ED0FB09153
:10005000EE0F85017401E21AF30A040B150BA801D7
:100060009701280F391F4A1F5B1FF601058404C042
:1000700056954795379527950A94D2F72187328769
:1000800043875487253FFFE03F07F0E04F07F0E04C
:100090005F0720F48CE0F601878B19C0255F3F4F86
:1000A0004040504018F480E1F6010EC08091F70FF7
:1000B0009091F80FA091F90FB091FA0FF601828F8D
:1000C000938FA48FB58F80E2878B81E001C080E0A1
:1000D000DF91CF911F910F91FF90EF90DF90CF9024
:1000E000BF90AF909F908F9008956F927F928F9264
:1000F0009F92AF92BF92CF92DF92EF92FF920F93B7
:100100001F93CF93DF93EC015A016B013801490132
:10011000423051056105710508F45DC089859A85F5
:10012000AB85BC850196A11DB11D84179507A60757
:10013000B70708F450C08F89803129F4E52EF62ED8
:10014000072F11270CC0803209F045C07A018B01BE
:1001500087E016950795F794E7948A95D1F78B89F0
:100160009C89AD89BE89E80EF91E0A1F1B1FC801B4
:10017000B70141E00EDE882371F18F89803149F4A7
:10018000F501F070EE0FFF1FE553F04F71826082B2
:100190000DC0F501EF77F070EE0FFF1FEE0FFF1FA0
:1001A000E553F04F60827182828293828A89823025
:1001B00080F08D819E81AF81B885E80EF91E0A1FFF
:1001C0001B1FE092CE11F092CF110093D01110932B
:1001D000D11181E001C080E0DF91CF911F910F919B
:1001E000FF90EF90DF90CF90BF90AF909F908F9057
:1001F0007F906F900895CF92DF92EF92FF920F93CE
:100200001F93CF93DF93EC017A018B0169018985FC
:100210009A85AB85BC850196A11DB11D84179507F4
:10022000A607B70708F452C08F89803129F45527F3
:10023000412F302F2F2D0CC0803209F047C09A017A
:10024000AB0167E056954795379527956A95D1F7A5
:100250008B899C89AD89BE89280F391F4A1F5B1F76
:100260008091C70F9091C80FA091C90FB091CA0F8C
:10027000281739074A075B0731F0CA01B90140E086
:1002800088DD882319F18F89803159F4F701F070E6
:10029000EE0FFF1FE553F04F80819181A0E0B0E0A9
:1002A0000EC0F701EF77F070EE0FFF1FEE0FFF1F8C
:1002B000E553F04F80819181A281B381BF70F60137
:1002C00080839183A283B38381E001C080E0DF91CA
:1002D000CF911F910F91FF90EF90DF90CF900895F5
:1002E000AF92BF92CF92DF92EF92FF920F931F9344
:1002F000DF93CF9300D00F92CDB7DEB76C017A01B8
:100300008B0182E090E0A0E0B0E0F6018083918371
:10031000A283B3835E010894A11CB11CC601B8017D
:10032000A701950168DF882339F1C601B801A7014B
:1003300000E010E020E030E0D8DE8823E9F0E9803A
:10034000FA800B811C81F6018789803151F4F8EF26
:10035000EF16FFEFFF06F0E00F07F0E01F07F0F2E7
:1003600009C088EFE8168FEFF8068FEF08078FE0D7
:100370001807A0F281E001C080E00F900F900F906D
:100380000F90CF91DF911F910F91FF90EF90DF9031
:10039000CF90BF90AF9008954F925F926F927F92EF
:1003A0008F929F92AF92BF92CF92DF92EF92FF9285
:1003B0000F931F93DF93CF9300D00F92CDB7DEB78B
:1003C0006C0149835A836B837C833901EE24FF24BB
:1003D00087012E010894411C511C812CE2E09E2EC5
:1003E000A12CB12C49815A816B817C81C60192017B
:1003F00002DF882339F1D501C401F601058404C068
:10040000880F991FAA1FBB1F0A94D2F7E80EF91E86
:100410000A1F1B1F29813A814B815C8187898031AA
:1004200031F4285F3F4F40405040E0F205C0285F64
:100430003F4F4F4F5F40B0F2F301E082F182028301
:10044000138381E00F900F900F900F90CF91DF9169
:100450001F910F91FF90EF90DF90CF90BF90AF90E2
:100460009F908F907F906F905F904F9008952F9204
:100470003F924F925F926F927F928F929F92AF9234
:10048000BF92CF92DF92EF92FF920F931F93DF9371
:10049000CF93CDB7DEB72F970FB6F894DEBF0FBE60
:1004A000CDBF1C014A875B876C877D873F872E877E
:1004B000DC0119968D919D910D90BC91A02D019616
:1004C000A11DB11D8E839F83A887B987F901008183
:1004D000118122813381011511052105310549F072
:1004E000480159010894811C911CA11CB11C1D825A
:1004F00010C0D1018D909D90AD90BC901D828A85D9
:100500009B85AC85BD850197A105B10511F491E0EE
:100510009D83750164014424552432018E010F5FCF
:100520001F4FF10181859285A385B4854816590630
:100530006A067B0608F08CC08E819F81A885B985EC
:100540008C159D05AE05BF0550F4A2E08A2E912CB6
:10055000A12CB12CF2E0CF2ED12CE12CF12CC10139
:10056000B701A601980147DE882309F471C089818B
:100570009A81AB81BC81A70196012F5F3F4F4F4FFE
:100580005F4F0097A105B10519F049015A010DC04F
:10059000281939094A095B098A859B85AC85BD857F
:1005A000281739074A075B0759F00894411C511C6A
:1005B000611C711C0894C11CD11CE11CF11CB1CF41
:1005C000C101A601B7010FEF1FEF2FEF3FE08DDD57
:1005D000882391F43DC02601370108944108510851
:1005E00061087108C101B301A201970186017DDD97
:1005F000882371F1730162018C149D04AE04BF0461
:1006000050F3AE85BF854D915D916D917C91411503
:1006100051056105710531F0C1019501840165DD68
:100620008823B1F0EE85FF8580829182A282B38219
:10063000FD81FF2359F00894811C911CA11CB11C61
:10064000D1018D929D92AD92BC92139781E001C031
:1006500080E02F960FB6F894DEBF0FBECDBFCF91CE
:10066000DF911F910F91FF90EF90DF90CF90BF909F
:10067000AF909F908F907F906F905F904F903F9042
:100680002F900895109206121092081210920A12DA
:100690000895809384030895EFE6F0E080818260FE
:1006A000808308951F93FC011FB7F8948081918186
:1006B000A281B3818093E0119093E111A093E211A4
:1006C000B093E311FB0180819181A281B38180937A
:1006D000E4119093E511A093E611B093E711FA01AC
:1006E00080819181A281B3818093E8119093E91177
:1006F000A093EA11B093EB11F90180819181A2815D
:10070000B3818093EC119093ED11A093EE11B0930F
:10071000EF111FBF1F910895FC012FB7F89480813E
:100720009181A281B3818093EC119093ED11A093FC
:10073000EE11B093EF112FBF0895E82F8FB7F89403
:10074000F0E0EE0FFF1FEE0FFF1FE052FE4E208184
:100750003181428153818FBFB901CA0108958091CF
:100760006F008D7F80936F0006C08091AC0F8F5F0C
:100770008F708093AC0F9091AB0F8091AC0F981756
:1007800051F41092D3111092D21180916F008260B7
:1007900080936F0008959091AB0F8091AC0F9817E4
:1007A00051F3E3CF9B01882399F4B901882777FDA2
:1007B0008095982F2FEF30E040E050E00E9481E7D5
:1007C00020ED37E040E050E00E94F5E78CE214C0F5
:1007D0008130A9F4B901882777FD8095982F2FEFF4
:1007E00030E040E050E00E9481E720ED37E040E05B
:1007F00050E00E94F5E78DE2B9010C94821B823033
:10080000A9F4B901882777FD8095982F2FEF30E064
:1008100040E050E00E9481E720ED37E040E050E00A
:100820000E94F5E78EE2B9010C94821B08958CE2D8
:1008300061E00E94601C8DE261E00E94601C8EE21B
:1008400061E00E94601C60917A0370917B0380E0FC
:10085000A9DF60917C0370917D0381E0A3DF60914B
:100860007E0370917F0382E09DDFE1E2F1E0808111
:10087000887F816080830895DADF099A3C9A399AEB
:10088000EAE0F1E0808180648083808184608083FD
:100890000D9A159A3E9A469A3B9A439A389A409AEC
:1008A0008081826080839FB7F894EBE0F1E08081E3
:1008B000826080839FBF0898109A0C98149A0F98B2
:1008C000179A0B9A1398159A3D9A4598469A3A9A10
:1008D0004298439AEAE0F1E08081806880839FB784
:1008E000F894EBE0F1E080818F7780839FBF409A9E
:1008F000EAE0F1E08081816080839FB7F894EBE0CB
:10090000F1E080818E7F80839FBFA1E8B0E08C9171
:100910008F7E8C938C9188608C93E0E8F0E08081EE
:100920008D7F808380818E7F808380818F738083A1
:1009300080818F7C80838C91887F82608C9380E023
:1009400090E4909389008093880010928500109223
:100950008400EFE6F0E080818260808381E0809314
:100960008403789408959091AB0F8091AC0F981701
:1009700049F00E9493900E9427340E943F990E9460
:100980005230F1CF0895EFDF159A469A439A409A74
:1009900008951F920F920FB60F920BB60F9211246B
:1009A000AF92BF92CF92DF92EF92FF920F931F937D
:1009B0002F933F934F935F936F937F938F939F9367
:1009C000AF93BF93CF93DF93EF93FF938091D211B7
:1009D0009091D311892B09F094C19091AB0F809124
:1009E000AC0F981719F4E0E0F0E014C08091AC0F60
:1009F00090E02DE430E0829FF001839FF00D929F04
:100A0000F00D1124E552F54FE45BFF4F81E0808348
:100A1000EC54F040F093D311E093D211309709F4E5
:100A20006AC1E45BFF4F81E08083EC54F040109298
:100A3000121210921312109214121092151260AD2D
:100A400071AD2CE96134720718F060E47CE904C0F0
:100A50003EE46132730730F0769567957695679539
:100A600084E007C047E26131740730F076956795FE
:100A700082E080930B1207C080930B1260327105E5
:100A800010F460E270E06052704058E0603075072A
:100A9000E8F0472F50E0440F551F440F551F435FA8
:100AA000524F9A012E5F3F4FF901859194919C011D
:100AB000AA27639FC001629F810D9A1F06948A1F17
:100AC0009A1F1124FA01459154911EC0CB019695AD
:100AD00087958C7F835F9E4EFC0145915491FC016C
:100AE000329625913491862F90E087709070FC01AA
:100AF0002E9FC0012F9F900D3E9F900D1124B3E0BB
:100B000096958795BA95E1F7481B590B44365105E0
:100B1000A8F4E0EEF2E007C08091C00085FFFCCFB2
:100B200031969093C60090819923B1F786E69AE0BA
:100B30004AE050E00E94D55B44E650E05093171223
:100B40004093161280910B12809318121092191272
:100B5000E091D211F091D31164AD75AD7093111283
:100B600060931012FCE961347F0718F060E47CE9BF
:100B700004C02EE46132720730F076956795769561
:100B8000679584E007C037E26131730730F07695EE
:100B9000679582E080930B1208C081E080930B126E
:100BA0006032710510F460E270E06052704048E01D
:100BB00060307407E8F0472F50E0440F551F440F92
:100BC000551F435F524F9A012E5F3F4FF9018591A8
:100BD00094919C01AA27639FC001629F810D9A1F77
:100BE00006948A1F9A1F1124FA01459154911EC040
:100BF000CB01969587958C7F835F9E4EFC01459136
:100C00005491FC01329625913491862F90E08770A3
:100C10009070FC012E9FC0012F9F900D3E9F900D64
:100C2000112433E0969587953A95E1F7481B590BC7
:100C300044365105A8F4E0EEF2E007C08091C00010
:100C400085FFFCCF31969093C60090819923B1F730
:100C500086E69AE04AE050E00E94D55B44E650E028
:100C6000CA01A0E0B0E080930C1290930D12A09303
:100C70000E12B0930F125093890040938800E091B8
:100C8000D211F091D31180899189A289B389B69547
:100C9000A79597958795B095A095909581959F4F2D
:100CA000AF4FBF4F8093F0119093F111A093F211C9
:100CB000B093F3118093F4119093F511A093F61172
:100CC000B093F7118093F8119093F911A093FA1152
:100CD000B093FB118093FC119093FD11A093FE1132
:100CE000B093FF1110920012109201121092021292
:100CF0001092031206C080ED97E0909389008093D4
:100D00008800C091D211D091D311209709F489C4E1
:100D100088A18093041280FF03C0119A8FEF02C054
:100D2000119881E0809380038091041281FF03C0B9
:100D300044988FEF02C0449A81E0809381038091B0
:100D4000041280FF36C080918403882391F120B182
:100D5000217031E0232759F180910512882339F160
:100D600088819981AA81BB81181619061A061B066B
:100D7000F4F48091E0119091E111A091E211B09111
:100D8000E3118093D4119093D511A093D611B09311
:100D9000D7113093061288899989AA89BB898093D3
:100DA000001290930112A0930212B09303122093A9
:100DB00005128091041281FD3AC08091840388233A
:100DC000B1F180B182958F708095282F217080FFBE
:100DD0002CC080910712882341F18C819D81AE81C6
:100DE000BF81181619061A061B06FCF48091E4113F
:100DF0009091E511A091E611B091E7118093D8117F
:100E00009093D911A093DA11B093DB1181E0809314
:100E1000081288899989AA89BB89809300129093C6
:100E20000112A0930212B093031220930712809133
:100E3000041282FF05C0419A8FEF8093820339C06C
:100E4000419881E08093820380918403882389F113
:100E500020E007992CC021E080910912882339F104
:100E600088859985AA85BB85181619061A061B065A
:100E7000F4F48091E8119091E911A091EA11B091F8
:100E8000EB118093DC119093DD11A093DE11B093F0
:100E9000DF1120930A1288899989AA89BB898093D6
:100EA000001290930112A0930212B09303122093A8
:100EB00009128091041283FF0AC08FB7F8949091B1
:100EC0000B019F7B90930B018FBF8FEF09C08FB7F2
:100ED000F89490910B01906490930B018FBF81E087
:100EE0008093830360E070E079C18091C00087FF48
:100EF00019C04091C600E091620AF091630A3196F0
:100F00009F012F77307031978091640A9091650A24
:100F10002817390739F0EE51F64F40833093630AB2
:100F20002093620A288139814A815B818091F01186
:100F30009091F111A091F211B091F311280F391F86
:100F40004A1F5B1F2093F0113093F1114093F2116F
:100F50005093F31112161306140615066CF5139A26
:100F600088899989AA89BB89281B390B4A0B5B0B95
:100F70002093F0113093F1114093F2115093F3113B
:100F80002091E0113091E1114091E2115091E31173
:100F900080918003992787FD9095A92FB92F820F03
:100FA000931FA41FB51F8093E0119093E111A093AC
:100FB000E211B093E31113982C813D814E815F8142
:100FC0008091F4119091F511A091F611B091F71163
:100FD000280F391F4A1F5B1F2093F4113093F5111E
:100FE0004093F6115093F7111216130614061506C6
:100FF0006CF5459A88899989AA89BB89281B390B80
:101000004A0B5B0B2093F4113093F5114093F611CA
:101010005093F7112091E4113091E5114091E611C0
:101020005091E71180918103992787FD9095A92F11
:10103000B92F820F931FA41FB51F8093E4119093C3
:10104000E511A093E611B093E711459828853985FD
:101050004A855B858091F8119091F911A091FA1160
:10106000B091FB11280F391F4A1F5B1F2093F81105
:101070003093F9114093FA115093FB111216130695
:10108000140615066CF5429A88899989AA89BB8944
:10109000281B390B4A0B5B0B2093F8113093F91185
:1010A0004093FA115093FB112091E8113091E9110E
:1010B0004091EA115091EB1180918203992787FDAD
:1010C0009095A92FB92F820F931FA41FB51F80934E
:1010D000E8119093E911A093EA11B093EB114298B3
:1010E0002C853D854E855F858091FC119091FD1189
:1010F000A091FE11B091FF11280F391F4A1F5B1FED
:101100002093FC113093FD114093FE115093FF1179
:101110001216130614061506DCF59FB7F894809195
:101120000B01806880930B019FBF88899989AA89E8
:10113000BB89281B390B4A0B5B0B2093FC113093A6
:10114000FD114093FE115093FF112091EC1130914D
:10115000ED114091EE115091EF1180918303992789
:1011600087FD9095A92FB92F820F931FA41FB51F3C
:101170008093EC119093ED11A093EE11B093EF11C9
:101180009FB7F89480910B018F7780930B019FBFDD
:101190008091001290910112A0910212B09103125D
:1011A0000196A11DB11D8093001290930112A0938E
:1011B0000212B0930312209100123091011240915B
:1011C0000212509103126F5F7F4F88899989AA8913
:1011D000BB89281739074A075B0738F480910B123F
:1011E00090E0681779070CF480CE209100123091BE
:1011F000011240910212509103128C899D89AE898F
:10120000BF8982179307A407B50708F4E3C0E090ED
:101210000C12F0900D1200910E1210910F12AC8C66
:10122000BD8CCE8CDF8CA8019701C601B501AA2721
:10123000279FB12D389FF001489FF00D479FE00D8B
:10124000F11D289FB00DE11DFA1F379FB00DE11D64
:10125000FA1F469FB00DE11DFA1F369FB10DEA1F20
:10126000FA1FB695EA1FFA1F11248CAD9DAD8E0FA3
:101270009F1F909311128093101228AD39AD4AAD83
:101280005BADA0E0B0E0281739074A075B0720F400
:10129000309311122093101260911012709111125C
:1012A0008CE96134780718F060E47CE904C09EE4BE
:1012B0006132790730F0769567957695679584E089
:1012C00007C0E7E261317E0730F07695679582E0EE
:1012D00080930B1208C081E080930B12603271057D
:1012E00010F460E270E060527040F8E060307F0718
:1012F000E8F0472F50E0440F551F440F551F435F40
:10130000524F9A012E5F3F4FF901859194919C01B4
:10131000AA27639FC001629F810D9A1F06948A1FAE
:101320009A1F1124FA01459154911EC0CB01969544
:1013300087958C7F835F9E4EFC0145915491FC0103
:10134000329625913491862F90E087709070FC0141
:101350002E9FC0012F9F900D3E9F900D1124B3E052
:1013600096958795BA95E1F7481B590B4436510578
:10137000A8F4E0EEF2E007C08091C00085FFFCCF4A
:1013800031969093C60090819923B1F786E69AE052
:101390004AE050E00E94D55B44E650E0509389005B
:1013A000409388009A0140E050E080910C129091A7
:1013B0000D12A0910E12B0910F12820F931FA41F55
:1013C000B51F80930C1290930D12A0930E12B09340
:1013D0000F1202C1209100123091011240910212AD
:1013E00050910312888D998DAA8DBB8D821793071A
:1013F000A407B50708F0E4C06091121270911312AF
:1014000080911412909115122C8D3D8D4E8D5F8D13
:10141000AA27639FB12D749FF001849FF00D839FD5
:10142000E00DF11D649FB00DE11DFA1F739FB00D1B
:10143000E11DFA1F829FB00DE11DFA1F729FB10DD1
:10144000EA1FFA1FB695EA1FFA1F112480911012A5
:10145000909111128E179F0738F4C05CDF4F68819E
:101460007981C054D04003C0BC016E1B7F0BC05CAF
:10147000DF4F288139814A815B81CB01A0E0B0E058
:1014800082179307A407B50708F4B901FCE9613492
:101490007F0718F060E47CE904C02EE46132720733
:1014A00030F0769567957695679584E007C037E2CA
:1014B0006131730730F07695679582E080930B1267
:1014C00008C081E080930B126032710510F460E275
:1014D00070E06052704048E060307407E8F0472FD9
:1014E00050E0440F551F440F551F435F524F9A0160
:1014F0002E5F3F4FF901859194919C01AA27639F2C
:10150000C001629F810D9A1F06948A1F9A1F1124A1
:10151000FA01459154911EC0CB01969587958C7F19
:10152000835F9E4EFC0145915491FC0132962591BA
:101530003491862F90E087709070FC012E9FC0013F
:101540002F9F900D3E9F900D112423E09695879537
:101550002A95E1F7481B590B44365105A8F4E0EEF3
:10156000F2E007C08091C00085FFFCCF31969093D8
:10157000C60090819923B1F786E69AE04AE050E0F0
:101580000E94D55B44E650E0509389004093880068
:101590009A0140E050E08091121290911312A091B4
:1015A0001412B0911512820F931FA41FB51F8093C0
:1015B000121290931312A0931412B09315120CC030
:1015C0008091161290911712909389008093880051
:1015D0008091181280930B12209100123091011209
:1015E0004091021250910312E091D211F091D31167
:1015F00080899189A289B389281739074A075B072F
:1016000080F01092D3111092D2119091AB0F809173
:10161000AC0F981731F08091AC0F8F5F8F70809373
:10162000AC0FFF91EF91DF91CF91BF91AF919F915F
:101630008F917F916F915F914F913F912F911F916A
:101640000F91FF90EF90DF90CF90BF90AF900F90F1
:101650000BBE0F900FBE0F901F9018958091061231
:10166000882349F480910812882329F480910A1272
:10167000882309F490C0EDE0F5E1949108C08091D1
:10168000C00085FFFCCF9093C600319694919923BA
:10169000B1F7EFE1F5E1949108C08091C00085FFBA
:1016A000FCCF9093C600319694919923B1F7809125
:1016B00006128823D1F06091D4117091D5118091D8
:1016C000D6119091D7110E94A7E120917B0A309109
:1016D0007C0A40917D0A50917E0A0E940CE1AB0188
:1016E000BC018BE195E10E94BE37809108128823EE
:1016F000D1F06091D8117091D9118091DA11909147
:10170000DB110E94A7E120917F0A3091800A40916D
:10171000810A5091820A0E940CE1AB01BC0187E171
:1017200095E10E94BE3780910A128823D1F0609122
:10173000DC117091DD118091DE119091DF110E941A
:10174000A7E12091830A3091840A4091850A509143
:10175000860A0E940CE1AB01BC0183E195E10E9485
:10176000BE37E4EFF2E007C08091C00085FFFCCFF8
:1017700031969093C60090819923B1F78091C00073
:1017800085FFFCCF8AE08093C6001092061210926B
:10179000081210920A12089560E070E08FE793E457
:1017A0002091890330918A0340918B0350918C03DF
:1017B0000E940CE160934612709347128093481286
:1017C000909349120895FC0197FF03C080912B125A
:1017D00003C0E65DFD4E808190E008952F923F9218
:1017E0004F925F926F927F928F929F92AF92BF9231
:1017F000CF92DF92EF92FF920F931F93CF93DF93DD
:10180000EC0121E030E0A901440F551F440F551FA2
:10181000FA01EA51FA4E85919491C817D9070CF054
:1018200059C0B90161507040660F771F660F771F6E
:10183000CB0188519A4EFC01059114916A517A4E60
:10184000FB01C590D490FA01E851FA4EE590F4906E
:10185000FA01EA51FA4EA590B490B801882777FDB5
:101860008095982F0E94A7E11B012C01CC19DD095E
:10187000BE01882777FD8095982F0E94A7E13B0144
:101880004C01E01AF10A0027F7FC0095102FC8015F
:10189000B7010E94A7E19B01AC01C401B3010E9402
:1018A000DAE37B018C01AC18BD08CC24B7FCC094F2
:1018B000DC2CC601B5010E94A7E19B01AC01C80167
:1018C000B7010E940CE19B01AC01C201B1010E9471
:1018D0002CE019C0822F8F5F2F5F3F4F21333105DE
:1018E00009F091CF813329F0E0E070E080E060E022
:1018F0000CC0E8EAF6E165917491882777FD809540
:10190000982F0E94A7E1E62F692F2E2F372F482FFF
:10191000562FB901CA01DF91CF911F910F91FF900E
:10192000EF90DF90CF90BF90AF909F908F907F907F
:101930006F905F904F903F902F9008950895109270
:101940001B1210921A1210922A12749810921D12E1
:1019500010921C1210922B12A59808952DEB37E3CC
:1019600046E05EE30C94DAE32DEB37E346E05EE31A
:101970000C940CE12DEB37E346E05EE30C940CE1B4
:101980002DEB37E346E05EE30C94DAE3A5980E9482
:101990005333882319F5EEE2F5E1949108C0809164
:1019A000C00085FFFCCF9093C60031969491992397
:1019B000B1F7E5E3F5E1949108C08091C00085FF9F
:1019C000FCCF9093C600319694919923B1F7809102
:1019D000C00085FFFCCF8AE08093C60083E00C94B2
:1019E0008F331F93182FABDF0E945333882391F559
:1019F000EEE2F5E1949108C08091C00085FFFCCF34
:101A00009093C600319694919923B1F786E69AE0B7
:101A1000612F70E04AE050E00E94AE5B8091C00010
:101A200085FFFCCF8AE08093C600EFE6F5E1949154
:101A300008C08091C00085FFFCCF9093C60031960E
:101A400094919923B1F78091C00085FFFCCF8AE083
:101A50008093C60082E00E948F331F9108951F93E8
:101A6000182F6DDF0E945333882391F5EEE2F5E1E4
:101A7000949108C08091C00085FFFCCF9093C60070
:101A8000319694919923B1F786E69AE0612F70E040
:101A90004AE050E00E94AE5B8091C00085FFFCCF21
:101AA0008AE08093C600ECE9F5E1949108C080914A
:101AB000C00085FFFCCF9093C60031969491992386
:101AC000B1F78091C00085FFFCCF8AE08093C6000B
:101AD00081E00E948F331F9108951F920F920FB6DD
:101AE0000F920BB60F9211242F933F934F935F9356
:101AF0006F937F938F939F93AF93BF93EF93FF93D6
:101B000090919903992361F480912A128093301265
:101B10008111749A80912B1280932F128111A59AB2
:101B200080913012981708F0749880912F129817AE
:101B300008F0A5989F5F9F779093990380919A03EF
:101B4000843009F471C0853050F4813021F1813046
:101B500098F08230F1F1833009F07AC049C08630C4
:101B600009F468C0863008F463C0873009F466C0A1
:101B7000883009F06DC06AC088E080937B0080E403
:101B800080937C0080917A00806480937A000E9428
:101B9000FE9681E01BC08091780090917900A0E0D2
:101BA000B0E020913D1230913E1240913F12509191
:101BB0004012280F391F4A1F5B1F20933D1230939C
:101BC0003E1240933F125093401282E080939A035A
:101BD0003FC088E080937B0082E480937C0080910A
:101BE0007A00806480937A000E94FE9683E0EECFB4
:101BF0008091780090917900A0E0B0E020913112BE
:101C0000309132124091331250913412280F391F03
