:100000000C94630E0C946B170C949C170C94CD17E6
:100010000C94FE170C942F180C9460180C949118E3
:100020000C94C2180C94900E0C94900E0C94900E9C
:100030000C94900E0C946D940C94900E0C94900E65
:100040000C94900E0C94D3690C94900E0C94900E1A
:100050000C94900E0C94900E0C944A730C945A14B9
:100060000C94900E0C94E23F0C94900E0C94900E15
:100070000C94900E0C94900E0C94900E0C94900E88
:100080000C94900E0C94900E0C94900E0C94900E78
:100090000C94900E0C94900E0C94900E0C94900E68
:1000A0000C94900E0C94900E0C94900E0C94900E58
:1000B0000C94900E0C94900E0C94900E0C94900E48
:1000C0000C94900E0C94900E0C94900E0C94900E38
:1000D0000C94900E0C94900E0C94900E0C94900E28
:1000E0000C94900E084AD73B3BCE016E84BCBFFDFA
:1000F000C12F3D6C74319ABD56833DDA3D00C77FF8
:1001000011BED9E4BB4C3E916BAAAABE0000008090
:100110003F05A84CCDB2D44EB93836A9020C50B91F
:10012000918688083CA6AAAA2ABE000000803F004B
:10013000002100240027002A002D00300033000198
:10014000010000040107010A010000220025002827
:10015000002B002E003100340002010000050108D0
:10016000010B01000020002300260029002C002F95
:100170000032000001000003010601090105050528
:1001800005070508080808020202020A0A0808040E
:10019000040404010101010101010103030303033C
:1001A000030303040707070C0C0C0C0C0C0C0C02CB
:1001B00002020206060606060606060B0B0B0B0BD2
:1001C0000B0B0B01021020200808102040102040CB
:1001D000800201020108040201010204081020400B
:1001E0008080402010080402018004020180402029
:1001F0001008040201080402010102040810204052
:100200008001020408102040800000090A02080B47
:100210000C0D0706030401000000000000000000B0
:1002200000000000000000000000000000000000CE
:10023000000000000011100F00000000000000008E
:100240000000000000000000000000000000006549
:1002500063686F3A004572726F723A0053544F50A0
:100260005045442E20005072696E7465722073747C
:100270006F707065642064756520746F206572729C
:100280006F72732E204669782074686520657272DB
:100290006F7220616E6420757365204D3939392085
:1002A000746F20726573746172742E202854656DAA
:1002B000706572617475726520697320726573650B
:1002C000742E2053657420697420616674657220F1
:1002D00072657374617274696E6729004B494C4C86
:1002E00045442E20005072696E7465722068616CFE
:1002F0007465642E206B696C6C28292063616C6CBA
:10030000656421006F6B00526573656E643A20006E
:100310002200556E6B6E6F776E20636F6D6D616E30
:10032000643A2022004368616E67652066696C61EB
:100330006D656E74005A204F6666736574203A20AE
:10034000007A5F6D61783A20007A5F6D696E3A20BD
:10035000005A204F6666736574005A204F666673B4
:100360006574206F6B007A5F6D61783A20007A5F68
:100370006D696E3A2000795F6D61783A2000795F8F
:100380006D696E3A2000785F6D61783A2000785F81
:100390006D696E3A2000205A3A0020593A002043F5
:1003A0006F756E7420583A200020453A00205A3A62
:1003B0000020593A00583A004649524D574152459B
:1003C0005F4E414D453A4D61726C696E2056313B2E
:1003D00020537072696E7465722F6772626C206D43
:1003E000617368757020666F722067656E3620468F
:1003F00049524D574152455F55524C3A687474709A
:100400003A2F2F6669726D776172652E756C74690B
:100410006D616B65722E636F6D2050524F544F4368
:100420004F4C5F56455253494F4E3A312E30204D76
:10043000414348494E455F545950453A556C74699B
:100440006D616B65722045585452554445525F4367
:100450004F554E543A3120555549443A303030309A
:10046000303030302D303030302D303030302D3095
:100470003030302D3030303030303030303030307F
:100480000A00556C74696D616B6572204F66662E4B
:100490000042656420646F6E652E0020423A0020A1
:1004A000453A00543A004265642048656174696EBB
:1004B000672E0048656174696E6720646F6E652EF3
:1004C0000020573A0020453A00543A0048656174CC
:1004D000696E672E2E2E002042403A0020403A00DE
:1004E000202F003A00205400202F0020423A002004
:1004F0002F006F6B20543A002569206D696E2C2007
:1005000025692073656300456E642066696C65200B
:100510006C69737400426567696E2066696C65205A
:100520006C697374004E6F206D6F76652E00526596
:1005300073756D696E67207072696E7400576169BA
:100540007420666F7220757365722E2E2E00536CA8
:100550006565702E2E2E00FFFFFF00005243000045
:100560005243000052430000000000000000000061
:10057000000000000000000000000000000000007B
:10058000524300005243000052430000A0400000CC
:10059000A04000000040256920686F757273202517
:1005A00069206D696E7574657300446F6E652070A7
:1005B00072696E74696E672066696C650053544F8A
:1005C000505045442E20005072696E74657220733D
:1005D000746F707065642064756520746F20657237
:1005E000726F72732E204669782074686520657278
:1005F000726F7220616E6420757365204D393939D0
:1006000020746F20726573746172742E2028546593
:100610006D7065726174757265206973207265739F
:1006200065742E2053657420697420616674657248
:100630002072657374617274696E6729006F6B0054
:100640004E6F204C696E65204E756D626572207725
:1006500069746820636865636B73756D2C204C61E9
:100660007374204C696E653A20004E6F20436865B4
:10067000636B73756D2077697468206C696E652093
:100680006E756D6265722C204C617374204C696EBE
:10069000653A2000636865636B73756D206D6973DF
:1006A0006D617463682C204C617374204C696E65B5
:1006B0003A20004C696E65204E756D626572206946
:1006C00073206E6F74204C617374204C696E6520CA
:1006D0004E756D6265722B312C204C617374204C09
:1006E000696E653A20004D31313000446F6E6520EF
:1006F000736176696E672066696C652E006F6B00AA
:100700004D3239002020506C616E6E657242756604
:1007100066657242797465733A2000204672656599
:10072000204D656D6F72793A20004D61792032332A
:10073000203230313400436F6D70696C65643A204B
:100740000028446176696420427261616D2900204D
:100750007C20417574686F723A20004D61792032B7
:100760003320323031342031313A33343A343100AD
:10077000204C61737420557064617465643A200084
:10078000312E302E30004D61726C696E0020536F37
:1007900066747761726520526573657400205761D5
:1007A000746368646F6720526573657400204272D9
:1007B0006F776E206F7574205265736574002045E5
:1007C000787465726E616C20526573657400506F49
:1007D0007765725570007374617274002200656EE3
:1007E000717565696E672022002200656E717565FE
:1007F000696E672022007C3C3E5E2B3D3F2F5B5D97
:100800003B2C2A225C006563686F3A0020746F6F8E
:10081000206C6F6E6720657874727573696F6E20D7
:1008200070726576656E7465640020636F6C642019
:10083000657874727573696F6E2070726576656E17
:100840007465640045303A20005A3A2000593A2035
:1008500000583A20004D53312C4D53322050696ED0
:10086000730A0024F404D9201BC40C5C0E9804C441
:10087000095F0265077101F405F900FB04B3004844
:10088000048700C10369005803550003034500BEF7
:10089000023A008402310053022A00290225000492
:1008A000022000E4011C00C8011900AF01170098E4
:1008B0000114008401130071011000610110005146
:1008C000010E0043010D0036010B002B010B00202F
:1008D000010B00150109000C01090003010800FBD0
:1008E000000800F3000800EB000700E4000600DE4B
:1008F000000600D8000600D2000600CC000500C7A4
:10090000000500C2000500BD000400B9000400B5E8
:10091000000400B1000400AD000400A9000400A51B
:10092000000300A20003009F0004009B0003009846
:100930000003009500020093000300900003008D67
:100940000002008B00030088000200860002008481
:10095000000300810002007F0002007D0002007B96
:1009600000020079000200770001007600020074A6
:1009700000020072000100710002006F0002006DB1
:100980000001006C0002006A0001006900020067BB
:1009900000010066000100650001006400020062C1
:1009A00000010061000100600001005F0002005DC5
:1009B0000001005C0001005B0001005A00010059C9
:1009C00000010058000100570001005600010055C9
:1009D00000010054000100530000005300010052C8
:1009E00000010051000100500001004F0001004EC5
:1009F0000000004E0001004D0001004C0001004BC2
:100A00000000004B0001004A0001004900010048BD
:100A100000000048000100470001004600000046B9
:100A200000010045000000450001004400010043B2
:100A300000000043000100420000004200010041AC
:100A400000000041000100400001003F0000003FA5
:100A50000001003E0000003E0001003D0000003D9E
:100A60000001003C0000003C0000003C0001003B95
:100A70000000003B0001003A0000003A000100398C
:100A80000000003900010038000000380000003884
:100A9000000100370000003700010036000000367A
:100AA0000000003600010035000000350000003570
:100AB0000001003400000034000000340001003365
:100AC000000000330000003300010032000000325B
:100AD0000000003200010031000000310000003150
:100AE0000001003000000030000000300001002F45
:100AF0000000002F0000002F0000002F0001002E3A
:100B00000000002E0000002E0001002D0000002D2E
:100B10000000002D0000002D0001002C0000002C22
:100B20000000002C0000002C0001002B0000002B16
:100B30000000002B0000002B0001002A0000002A0A
:100B40000000002A0000002A0001002900000029FE
:100B500000000029000000290000002900010028F1
:100B600000000028000000280000002800000028E5
:100B700000010027000000270000002700000027D8
:100B800000000027000100260000002600000026CB
:100B900000000026000000260001002500000025BE
:100BA00000000025000000250000002500000025B1
:100BB00000010024000000240000002400000024A4
:100BC0000000002400010023000000230000002397
:100BD0000000002300000023000000230000002389
:100BE000000100220000002200000022000000227C
:100BF000000000220000002200010021000000216E
:100C00000000002100000021000000210000002160
:100C10000000002100010020000000200000002052
:100C20000000002000000020000000200000002044
:100C3000000000200001001F0000001F0000001F36
:100C40000000001F0000001F0000001F0000001F28
:100C50000001001E0000001E0000001E0000001E1B
:100C600000000024F4D43050C38E20C2A24017826A
:100C70008B7011127A910D816CD90AA861E108C7B5
:100C8000586607615143061E4B5D05C145A7041A0E
:100C9000411104093D9803713931034036DB026587
:100CA000339102D4305402802E1D02632CEE017564
:100CB0002AC501B028A001102781018F2564012BCE
:100CC000244B01E0223401AC211F018D200D018055
:100CD0001FFC00841EED00971DDF00B81CD200E64B
:100CE0001BC600201BBC00641AB200B219A8000A7F
:100CF00019A0006A189900D117910040178B00B510
:100D000016840031167E00B31579003A157300C7BA
:100D1000146F0058146A00EE1366008813630025F0
:100D2000135E00C7125B006C12570015125400C10D
:100D300011510070114F0021114B00D61049008D48
:100D40001047004610440002104200C00F400080CF
:100D50000F3E00420F3C00060F3B00CB0E380093C5
:100D60000E37005C0E3500270E3400F30D3200C143
:100D70000D3100900D3000600D2E00320D2D00055C
:100D80000D2C00D90C2B00AE0C2900850C29005C21
:100D90000C2700350C27000E0C2600E80B2400C49D
:100DA0000B2400A00B23007D0B23005A0B210039DC
:100DB0000B2100180B2000F80A1F00D90A1E00BBE7
:100DC0000A1E009D0A1D00800A1D00630A1C0047C0
:100DD0000A1B002C0A1B00110A1A00F7091A00DD71
:100DE000091900C4091900AB091900920917007B01
:100DF000091800630917004C09160036091600206F
:100E00000916000A091500F5081500E0081400CCC1
:100E1000081400B8081400A4081400900813007DFA
:100E20000812006B0813005808120046081200341C
:100E3000081100230811001208110001081100F028
:100E4000071000E0071000D0071000C0071000B026
:100E5000070F00A107100091070E0083070F007411
:100E6000070F0065070E0057070E0049070E003BED
:100E7000070D002E070E0020070D0013070D0006BA
:100E8000070D00F9060C00ED060D00E0060C00D47D
:100E9000060C00C8060C00BC060C00B0060C00A432
:100EA000060B0099060C008D060B0082060B0077DE
:100EB000060B006C060B0061060A0057060B004C7F
:100EC000060A0042060A0038060A002E060A002416
:100ED000060A001A060A001006090007060A00FDA5
:100EE000050900F4050900EB050900E2050900D930
:100EF000050900D0050900C7050900BE050900B5B0
:100F0000050800AD050800A50509009C050800942A
:100F10000508008C050800840508007C050800749D
:100F20000508006C050700650508005D050700560B
:100F30000508004E05070047050700400508003872
:100F4000050700310507002A050700230507001CD7
:100F5000050600160507000F050700080506000234
:100F6000050700FB040600F5040700EE040600E890
:100F7000040600E2040700DB040600D5040600CFE7
:100F8000040600C9040600C3040600BD040600B739
:100F9000040600B1040500AC040600A6040600A087
:100FA0000405009B04060095040500900406008AD1
:100FB00004050085040500800406007A0405007518
:100FC000040500700405006B04050066040500615B
:100FD0000405005C04050057040500520405004D9B
:100FE00004050048040500430405003E0404003ADB
:100FF00004050035040500300404002C0405002716
:10100000040400230405001E0404001A040400164E
:10101000040500110404000D040400090405000483
:1010200004040000040400FC030400F8030400F4BA
:10103000030400F0030400EC030400E8030400E4EC
:10104000030400E0030400DC030400D8030400D41C
:10105000030400D0030400CC030400C8030300C54C
:101060000303006563686F3A00656E6473746F70A4
:1010700073206869743A205A00205A3A00656E64F9
:1010800073746F7073206869743A20590020593A5C
:1010900000656E6473746F7073206869743A2058C9
:1010A0000020583A00656E6473746F70732068692D
:1010B000743A20004572726F723A004572723A209B
:1010C0004D415854454D50204245440054656D7083
:1010D000657261747572652068656174656420620B
:1010E0006564207377697463686564206F66662E33
:1010F000204D415854454D502074726967676572A0
:101100006564202121004572723A204D494E5445B4
:101110004D50003A2045787472756465722073777B
:10112000697463686564206F66662E204D494E546D
:10113000454D5020747269676765726564202100AF
:101140004572723A204D415854454D50003A204561
:101150007874727564657220737769746368656406
:10116000206F66662E204D415854454D50207472B4
:1011700069676765726564202100202D20496E76BD
:10118000616C6964206578747275646572206E752F
:101190006D62657220210000000000300E0100C069
:1011A0000E0A00500F1400D00F1E0060102800E03F
:1011B00010320070113C00F0114600701250000017
:1011C000135A008013640000146E0090147800100D
:1011D00015820090158C00101696009016A0001035
:1011E00017AA009017B4001018BE009018C800107D
:1011F00019D2009019DC00101AE600801AF00000E5
:101200001BFA00801B0401F01B0E01701C1801F07A
:101210001C2201601D2C01E01D3601501E4001D032
:101220001E4A01401F5401B01F5E0130206801A01A
:1012300020720110217C0190218601002290016022
:1012400026F401902A5802802EBC0250322003E07E
:101250003584035039E803803C4C046563686F3A79
:101260000048656174696E67206661696C65640039
:10127000504944204175746F74756E652066696EBF
:101280006973686564212050757420746865206CEA
:10129000617374204B702C204B6920616E64204B6D
:1012A0006420636F6E7374616E74732066726F6D09
:1012B0002061626F766520696E746F20436F6E6681
:1012C000696775726174696F6E2E680050494420B9
:1012D0004175746F74756E65206661696C65642113
:1012E0002074696D656F75740020403A006F6B2043
:1012F000543A006F6B20423A0050494420417574C3
:101300006F74756E65206661696C65642120546533
:101310006D706572617475726520746F6F20686995
:10132000676800204B643A2000204B693A20002077
:101330004B703A200020436C6173736963205049FD
:101340004420002054753A2000204B753A2000209C
:101350006D61783A2000206D696E3A200020643A71
:10136000200020626961733A20004D3834205820F3
:1013700059205A2045006563686F3A0043616E6EDC
:101380006F7420656E746572207375626469723A59
:1013900020004D3234004D323320257300617574C6
:1013A0006F25692E67004572726F723A006572721E
:1013B0006F722077726974696E6720746F20666936
:1013C0006C65004E6F74205344207072696E7469AE
:1013D0006E67002F005344207072696E74696E67E7
:1013E000206279746520002E0044656C6574696F15
:1013F0006E206661696C65642C2046696C653A20D4
:101400000046696C652064656C657465643A002EFD
:10141000006F70656E206661696C65642C2046699A
:101420006C653A200057726974696E6720746F208A
:1014300066696C653A20002E006F70656E206661EB
:10144000696C65642C2046696C653A20002E006F3B
:1014500070656E206661696C65642C2046696C65F8
:101460003A200046696C652073656C656374656439
:10147000002053697A653A200046696C65206F70D8
:10148000656E65643A20002E006F70656E2066619F
:10149000696C65642C2046696C653A20004E6F7754
:1014A0002066726573682066696C653A20004E6F2D
:1014B0007720646F696E672066696C653A20002248
:1014C00020706F73002220706172656E743A220082
:1014D000535542524F5554494E452043414C4C20A0
:1014E0007461726765743A2200747279696E67205C
:1014F000746F2063616C6C207375622D67636F6419
:10150000652066696C6573207769746820746F6FF5
:10151000206D616E79206C6576656C732E204D416F
:1015200058206C6576656C2069733A0053442063DB
:10153000617264206F6B006F70656E526F6F742004
:101540006661696C656400766F6C756D652E696E99
:101550006974206661696C656400534420696E6932
:1015600074206661696C006563686F3A0048617257
:1015700064636F6465642044656661756C742053B0
:10158000657474696E6773204C6F616465640053A1
:10159000746F7265642073657474696E677320720A
:1015A00065747269657665640020440020490020F6
:1015B00020204D3330312050005049442073657451
:1015C00074696E67733A00205A0020590020204D3C
:1015D000323036205800486F6D65206F666673653F
:1015E0007420286D6D293A00204500205A002058AB
:1015F0000020420020540020204D3230352053007E
:10160000416476616E636564207661726961626CC3
:1016100065733A20533D4D696E206665656472615D
:10162000746520286D6D2F73292C20543D4D696EF3
:101630002074726176656C2066656564726174659C
:1016400020286D6D2F73292C20423D6D696E696DC8
:10165000756D207365676D656E742074696D6520A6
:10166000286D73292C20583D6D6178696D756D204A
:101670005859206A65726B20286D6D2F73292C20B4
:10168000205A3D6D6178696D756D205A206A6572CA
:101690006B20286D6D2F73292C2020453D6D6178BE
:1016A000696D756D2045206A65726B20286D6D2F00
:1016B00073290020540020204D3230342053004143
:1016C0006363656C65726174696F6E3A20533D6146
:1016D0006363656C65726174696F6E2C20543D7232
:1016E00065747261637420616363656C65726174B3
:1016F000696F6E00204500205A0020590020204DBF
:101700003230312058004D6178696D756D2041632C
:1017100063656C65726174696F6E20286D6D2F73DF
:1017200032293A00204500205A0020590020204D3F
:101730003230332058004D6178696D756D206665D3
:101740006564726174657320286D6D2F73293A008A
:10175000204500205A0020590020204D39322058C1
:101760000053746570732070657220756E69743AE9
:101770000053657474696E67732053746F72656487
:1017800000022D2D3A2D2D002D2D2D00534400202B
:1017900059000120000120004E6F20534420636156
:1017A0007264005072696E742066726F6D205344CB
:1017B0000053746F70207072696E74005265737597
:1017C0006D65207072696E7400506175736520706C
:1017D00072696E7400436F6E74726F6C0050726544
:1017E000706172650054756E6500496E666F207396
:1017F000637265656E00052E2E004D61696E004DA9
:101800003234004D3233202573004D3834205820B7
:1018100059205A2045004669726D776172652076BD
:10182000657273696F6E00526573746F72652066BE
:1018300061696C73616665004C6F6164206D656DF4
:101840006F72790053746F7265206D656D6F727978
:10185000004D6F74696F6E0054656D7065726174D0
:10186000757265004D61696E004D617920323620D8
:10187000323031342030393A35343A313400313174
:10188000353230305F73696E676C6500556C746912
:101890006D616B65723A2031332E313200466972C8
:1018A0006D776172652076657273696F6E0045733E
:1018B000746570732F6D6D004573746570732F6D53
:1018C0006D005A73746570732F6D6D005A73746573
:1018D00070732F6D6D005973746570732F6D6D008B
:1018E0005973746570732F6D6D00587374657073E0
:1018F0002F6D6D005873746570732F6D6D00412DE1
:101900007265747261637400412D726574726163F3
:101910007400416D6178206500416D61782065003B
:10192000416D6178207A00416D6178207A00416DC7
:101930006178207900416D6178207900416D61788E
:10194000207800416D6178207800565472617620CD
:101950006D696E005654726176206D696E00566D29
:10196000696E00566D696E00566D6178206500568F
:101970006D6178206500566D6178207A00566D6142
:1019800078207A00566D6178207900566D61782054
:101990007900566D6178207800566D617820780066
:1019A00056652D6A65726B0056652D6A65726B000F
:1019B000567A2D6A65726B00567A2D6A65726B00D5
:1019C0005678792D6A65726B005678792D6A657242
:1019D0006B00416363656C00416363656C00436F3A
:1019E0006E74726F6C00507265686561742041425C
:1019F0005320636F6E660050726568656174205095
:101A00004C4120636F6E66005049442D430050499D
:101A1000442D43005049442D44005049442D440076
:101A20005049442D49005049442D49005049442D06
:101A300050005049442D500046616E20737065651A
:101A4000640046616E2073706565640042656400E1
:101A5000426564004E6F7A7A6C65004E6F7A7A6CDC
:101A60006500436F6E74726F6C0053746F72652003
:101A70006D656D6F72790042656400426564004E69
:101A80006F7A7A6C65004E6F7A7A6C650046616E8B
:101A90002073706565640046616E207370656564CF
:101AA0000054656D70657261747572650053746F72
:101AB0007265206D656D6F727900426564004265E4
:101AC00064004E6F7A7A6C65004E6F7A7A6C6500AE
:101AD00046616E2073706565640046616E207370A8
:101AE0006565640054656D7065726174757265003A
:101AF0004D6F7665206178697300436F6F6C646F1A
:101B0000776E0050726568656174204142530050E1
:101B100072656865617420504C41004D6F76652098
:101B20005A004175746F20686F6D65004D38340040
:101B300044697361626C652073746570706572735B
:101B4000004D61696E004D6F766520302E316D6DF0
:101B5000004D6F766520316D6D004D6F76652031DB
:101B6000306D6D00507265706172650045787472F9
:101B700075646572004D6F7665205A004D6F76650D
:101B80002059004D6F76652058004D6F76652061B5
:101B9000786973004578747275646572005A0059EB
:101BA00000580050726568656174204142532042BC
:101BB000656400507265686561742041425320314C
:101BC000005072657061726500507265686561747D
:101BD00020504C4120426564005072656865617414
:101BE00020504C4120310050726570617265005A7E
:101BF000004D383420583020593000473238004DDD
:101C0000363030004368616E67652066696C616DCF
:101C1000656E7400466C6F77203000466C6F7720DD
:101C20003000466C6F7700466C6F770046616E201F
:101C300073706565640046616E207370656564004D
:101C400042656400426564004E6F7A7A6C65004EAE
:101C50006F7A7A6C650053706565640053706565D2
:101C600064004D61696E00436172642072656D6F3E
:101C7000766564004361726420696E736572746591
:101C80006400494E46494E4954594E414ECDCCCC44
:101C90003D0AD7233C17B7D13877CC2B329595E640
:101CA000241FB14F0A000020410000C84200401C20
:101CB0004620BCBE4CCA1B0E5AAEC59D7400761A97
:101CC000764094CE6F1A11241FBECFEFD1E2DEBF53
:101CD000CDBF00E00CBF14E0A0E0B2E0E4E5FBEB18
:101CE00001E00BBF02C007900D92A23AB107D9F7ED
:101CF0001BBE12E1A2EAB4E001C01D92AB36B107EF
:101D0000E1F71CE1C4ECDCE104C02297FE010E9473
:101D10004FDDCE3BD107C9F70E942FD80C949DDD33
:101D20000C940000A0E0B0E0E8E9FEE00C946CDD6B
:101D3000EC015B016115710519F0FB019183808352
:101D4000F9908F2D90E00E9453DD892BC9F7FDE2B9
:101D5000FF1621F4F990EE24E39405C02BE2F2166D
:101D600009F4F990EE248E0101501040C80162E898
:101D70007CE143E050E00E942811892B01F58E019F
:101D80000E5F1F4FC80165E87CE145E050E00E940E
:101D90002811892B19F48E01095F1F4FA114B1047A
:101DA00019F0F50111830083E0FC04C070E090E0BD
:101DB00080E814C070E090E080E86FEF08C1C801CF
:101DC0006AE87CE143E050E00E942811892B69F425
:101DD000A114B10429F470E090E080EC6FE7F7C043
:101DE0002296F501D183C083F6CF8824992440E060
:101DF00050E060E070E0EF2DE053EA30A0F5F2E053
:101E0000EF2A8E2D90E09C0128703070E2FE06C013
:101E1000232B79F50894811C911C2BC0232B19F0DE
:101E2000089481089108DB01CA0112E0880F991F0C
:101E3000AA1FBB1F1A95D1F7480F591F6A1F7B1F96
:101E4000440F551F661F771F4E0F511D611D711DD9
:101E5000483929E9520729E9620729E1720748F060
:101E600084E0E82A06C0EE3F31F4E3FC39C098E094
:101E7000E92AF990C0CFE53311F0E53189F52991D0
:101E80002D3219F4E0E1EE2A05C02B3219F081E081
:101E900090E003C0299182E090E0E22FE053EA3025
:101EA00018F0C81BD90B1CC020E030E0FCE0203843
:101EB0003F075CF4C901880F991F880F991F280FED
:101EC000391F220F331F2E0F311DE991E053EA30E5
:101ED00068F3E4FE03C0309521953F4F820E931EB8
:101EE000CE2CDD24E1FE07C0A114B10421F021971E
:101EF000F501D183C083CB01BA010E94B8D97B011F
:101F00008C01F3E0CF22DD2423E0C216D10421F4BA
:101F100017FB109517F9109557016801C801B70113
:101F200020E030E040E050E00E9418D9882309F416
:101F30004AC097FE0DC021EAE22E2CE1F22E9094C9
:101F4000819491089394C0E2D0E000E010E012C0C8
:101F500099EBE92E9CE1F92EF6CFF7012591359109
:101F600045915491C601B5010E94F8DB5B016C01FB
:101F70008C1A9D0A8C169D0684F7D595C7950F5F20
:101F80001F4F0630110529F08CEF9FEFE80EF91E68
:101F9000F1CFC501D6017C018D018C2D880F8D2DCF
:101FA000881F8F3F51F0C601B50120E030E040E0CE
:101FB00050E00E9418D9882331F482E290E0909397
:101FC0006A12809369127E2D9F2D802F612F272FFB
:101FD000392F482F562FB901CA01CDB7DEB7ECE033
:101FE0000C9488DD2F923F925F926F927F928F9236
:101FF0009F92AF92BF92CF92DF92EF92FF920F9398
:102000001F93CF93DF938C011B01EA0161157105CA
:1020100019F0FB0191838083209749F0CE0102974C
:10202000839728F020E030E040E050E0F6C0F8016F
:10203000A1908F018A2D90E00E9453DD892BB9F782
:10204000FDE2AF1631F4F801A1908F0155245394AD
:1020500007C0FBE2AF1619F4F801A1908F015524D7
:10206000209719F0C031D105C1F4F0E3AF1679F42F
:10207000F8018081883711F0883549F4F801A18092
:102080000E5F1F4FF2E05F2AC0E1D0E006C020974C
:1020900021F480E3A816E9F427C0C830D10531F156
:1020A000C930D10524F4C230D10531F50CC0CA3095
:1020B000D10589F0C031D105F9F4C12CD12CE12C26
:1020C000B8E0FB2E28C0C12CD12CE12CA0E4FA2EC4
:1020D00022C0CAE0D0E0FCECCF2EFCECDF2EFCEC02
:1020E000EF2EFCE0FF2E17C0C8E0D0E0C12CD12CB1
:1020F000E12CE0E1FE2E0FC09E01442737FD409504
:10210000542F60E070E080E090E80E9410DDC9018B
:10211000DA016C017D0120E030E040E050E060E059
:102120003E01882477FC8094982C70EDB72EBA0C71
:10213000E9E0EB1570F48A2D81548A3118F499EC9A
:10214000B92E06C08A2D81568A3150F589EAB82EFB
:10215000BA0C8B2D90E08C179D0714F56F3FE1F0C2
:10216000C216D306E406F506B0F0CA01B901A4010F
:1021700093010E94CADC9B01AC012B0D311D411D56
:10218000511D2130F0E03F07F0E04F07F0E85F0716
:1021900010F461E001C06FEFF801A1908F01C5CF8D
:1021A0002114310481F0662331F001501040F10117
:1021B0001183008308C051FE1AC002501040F10183
:1021C0001183008314C067FF12C050FC05C02FEFBD
:1021D0003FEF4FEF5FE704C020E030E040E050E821
:1021E00082E290E090936A128093691216C050FECA
:1021F00008C050954095309521953F4F4F4F5F4F08
:102200000CC057FF0AC082E290E090936A1280935C
:1022100069122FEF3FEF4FEF5FE7B901CA01DF917E
:10222000CF911F910F91FF90EF90DF90CF90BF90D3
:10223000AF909F908F907F906F905F903F902F9086
:102240000895FB01DC0105900D920020E1F708954F
:10225000FB01DC014150504088F08D9181341CF02D
:102260008B350CF4805E659161341CF06B350CF499
:10227000605E861B611171F3990B0895881BFCCF7A
:10228000FB01DC014150504048F005900D920020C8
:10229000C9F701C01D9241505040E0F70895FB017D
:1022A00055915523A9F0BF01DC014D91451741110E
:1022B000E1F759F4CD010590002049F04D9140150A
:1022C0004111C9F3FB014111EFCF81E090E001978B
:1022D0000895FB01DC0104C08D910190801921F467
:1022E00041505040C8F7881B990B0895FB01DC0151
:1022F00002C001900D9241505040D8F70895FB0163
:10230000DC010D900020E9F7119701900D9200205B
:10231000E1F70895FC018191861721F08823D9F710
:10232000992708953197CF010895FB01DC010190B1
:102330000D920020E1F70895FB01DC01415050406F
:1023400030F08D910190801919F40020B9F7881BA5
:10235000990B0895FB01DC014150504048F0019079
:102360000D920020C9F701C01D9241505040E0F786
:102370000895AEE0B0E0EFEBF1E10C9474DD0E896E
:102380001F898EE08C831A8309838FEF9FE79E83DA
:102390008D839E01265E3F4FCE010196688D798D1B
:1023A000A9010E94DD112F813885020F131FF8014A
:1023B00010822E96E4E00C9490DDABE0B0E0E3EE0A
:1023C000F1E10C9466DD3C012B015A01FC011782FE
:1023D0001682838181FD03C06FEF7FEFC6C19AE053
:1023E000892E1E010894211C311CF3012381F20166
:1023F00023FD859123FF81912F01882309F4B2C128
:10240000853239F423FD859123FF81912F01853297
:1024100029F490E0B3010E94D013E7CF982FFF2456
:10242000EE249924FFE1FF15D0F09B3269F09C3235
:1024300028F4903259F0933291F40EC09D3249F055
:10244000903369F441E024C052E0F52A84E0F82A90
:1024500028C098E0F92A25C0E0E1FE2A22C0F7FC56
:1024600029C0892F80538A3070F4F6FE05C0989CED
:10247000902C1124980E15C0E89CE02C1124E80E35
:10248000F0E2FF2A0EC09E3229F4F6FC6BC140E454
:10249000F42A07C09C3619F450E8F52A02C0983691
:1024A00049F4F20123FD959123FF91912F01992386
:1024B00009F0B8CF892F8554833018F080528330CB
:1024C00038F444E050E0A40EB51E5FE359830FC01A
:1024D000933631F0933779F0933509F056C020C028
:1024E000F5018081898342E050E0A40EB51E6101B0
:1024F00001E010E012C0F501C080D180F6FC03C0FD
:102500006FEF7FEF02C0692D70E042E050E0A40E53
:10251000B51EC6010E94C5138C015FE7F52214C0E9
:10252000F501C080D180F6FC03C06FEF7FEF02C0E1
:10253000692D70E042E050E0A40EB51EC6010E9475
:10254000BA138C0150E8F52AF3FE07C01AC080E2E6
:1025500090E0B3010E94D013EA948E2D90E008170A
:102560001907A8F30EC0F601F7FC8591F7FE8191DB
:102570006F0190E0B3010E94D013E110EA94015082
:1025800010400115110579F7EAC0943611F099361B
:1025900069F5F7FE08C0F501208131814281538140
:1025A00084E090E00AC0F501808191819C0144277C
:1025B00037FD4095542F82E090E0A80EB91E9FE6AB
:1025C000F92257FF09C050954095309521953F4F0E
:1025D0004F4F5F4FE0E8FE2ACA01B901A1012AE08E
:1025E00030E00E94FC13D82ED21840C0953729F451
:1025F0001F2D1F7E2AE030E01DC01F2D197F9F3642
:1026000061F0903720F4983509F0ACC00FC09037D6
:1026100039F0983709F0A6C004C028E030E00AC0BD
:10262000106114FD146020E130E004C014FD166058
:1026300020E132E017FF08C0F501608171818281DD
:10264000938144E050E008C0F50180819181BC0194
:1026500080E090E042E050E0A40EB51EA1010E948F
:10266000FC13D82ED2188FE7F82EF122F6FE0BC0FD
:102670005EEFF522D91438F4F4FE07C0F2FC05C071
:102680008FEEF82202C01D2D01C0192DF4FE0DC0E1
:10269000FE01ED0DF11D8081803319F499EEF922D0
:1026A00008C01F5FF2FE05C003C08F2D867809F0B9
:1026B0001F5F0F2DF3FC14C0F0FE0FC01E1510F0AD
:1026C0009D2C0BC09D2C9E0C911A1E2D06C080E2E5
:1026D00090E0B3010E94D0131F5F1E15C0F304C029
:1026E0001E1510F4E11A01C0EE2404FF0FC080E3B0
:1026F00090E0B3010E94D01302FF1DC001FD03C092
:1027000088E790E00EC088E590E00BC0802F8678C7
:1027100091F001FF02C08BE201C080E2F7FC8DE284
:1027200090E0B3010E94D01306C080E390E0B301B3
:102730000E94D0139A94D914C0F3DA94F101ED0DEC
:10274000F11D808190E0B3010E94D013DD20A9F734
:1027500006C080E290E0B3010E94D013EA94EE201C
:10276000C1F743CEF30166817781CB012B96E2E17D
:102770000C9482DDFC010590615070400110D8F787
:10278000809590958E0F9F1F0895FC0161507040B9
:1027900001900110D8F7809590958E0F9F1F089596
:1027A0000F931F93CF93DF938C01EB018B8181FFFC
:1027B0001BC082FF0DC02E813F818C819D81281717
:1027C000390764F4E881F9810193F983E88306C04D
:1027D000E885F985802F1995892B31F48E819F81A9
:1027E00001969F838E8302C00FEF1FEFC801DF9118
:1027F000CF911F910F910895FA01AA27283051F126
:10280000203181F1E8946F936E7F6E5F7F4F8F4F21
:102810009F4FAF4FB1E03ED0B4E03CD0670F781F80
:10282000891F9A1FA11D680F791F8A1F911DA11D65
:102830006A0F711D811D911DA11D20D009F468949E
:102840003F912AE0269F11243019305D3193DEF646
:10285000CF010895462F4770405D4193B3E00FD0FC
:10286000C9F7F6CF462F4F70405D4A3318F0495DE7
:1028700031FD4052419302D0A9F7EACFB4E0A695CA
:102880009795879577956795BA95C9F700976105EC
:10289000710508959B01AC010A2E06945795479542
:1028A00037952795BA95C9F7620F731F841F951F37
:1028B000A01D08951F920F920FB60F9211242F930F
:1028C0003F938F939F93AF93BF938091A604909172
:1028D000A704A091A804B091A9043091AA0401967C
:1028E000A11DB11D232F2D5F2D3720F02D570196EF
:1028F000A11DB11D2093AA048093A6049093A70460
:10290000A093A804B093A9048091A2049091A30479
:10291000A091A404B091A5040196A11DB11D8093BE
:10292000A2049093A304A093A404B093A504BF9120
:10293000AF919F918F913F912F910F900FBE0F906C
:102940001F9018958FB7F8942091A6043091A70492
:102950004091A8045091A9048FBFB901CA010895FC
:102960009B01AC017FB7F8948091A2049091A304DD
:10297000A091A404B091A50466B5A89B05C06F3FC3
:1029800019F00196A11DB11D7FBFBA2FA92F982F55
:102990008827860F911DA11DB11D62E0880F991F28
:1029A000AA1FBB1F6A95D1F7BC012DC0FFB7F894D1
:1029B0008091A2049091A304A091A404B091A504D5
:1029C000E6B5A89B05C0EF3F19F00196A11DB11D0A
:1029D000FFBFBA2FA92F982F88278E0F911DA11DF9
:1029E000B11DE2E0880F991FAA1FBB1FEA95D1F71E
:1029F000861B970B885E9340C8F2215030404040C0
:102A0000504068517C4F211531054105510571F643
:102A10000895019739F0880F991F880F991F029721
:102A20000197F1F70895789484B5826084BD84B5E8
:102A3000816084BD85B5826085BD85B5816085BDB9
:102A4000EEE6F0E0808181608083E1E8F0E01082D2
:102A5000808182608083808181608083E0E8F0E013
:102A6000808181608083E1EBF0E0808184608083FD
:102A7000E0EBF0E0808181608083E1E9F0E080813B
:102A800082608083808181608083E0E9F0E08081E2
:102A900081608083E1EAF0E08081826080838081D0
:102AA00081608083E0EAF0E0808181608083E1E200
:102AB000F1E0808182608083808181608083E0E2B8
:102AC000F1E0808181608083EAE7F0E080818460CA
:102AD0008083808182608083808181608083808127
:102AE000806880831092C10008951F93CF93DF9375
:102AF000182FEB0161E00E945516209709F4CAC017
:102B0000CF3FD10509F4C9C0E12FF0E0E75FFD4FE9
:102B10008491893009F466C08A30B0F48430F1F1D0
:102B2000853040F4823059F1833070F5813009F0FE
:102B3000AEC020C0873009F443C0883008F048C0D8
:102B4000863009F0A4C034C08D3009F478C08E30CE
:102B500038F48B3009F45AC08C3008F066C04CC091
:102B6000803109F480C0813109F487C08F3009F0C9
:102B70008EC06FC084B5806884BDC7BD92C084B567
:102B8000806284BDC8BD8DC08091800080688093C4
:102B90008000D0938900C093880083C0809180001A
:102BA000806280938000D0938B00C0938A0079C0AC
:102BB0008091B00080688093B000C093B30071C072
:102BC0008091B00080628093B000C093B40069C06F
:102BD00080919000806880939000D0939900C0937A
:102BE00098005FC080919000806280939000D093A5
:102BF0009B00C0939A0055C080919000886080939C
:102C00009000D0939D00C0939C004BC08091A00089
:102C100080688093A0008091A0008F7B8093A000AB
:102C2000D093A900C093A8003CC08091A00080620E
:102C30008093A000D093AB00C093AA0032C08091D3
:102C4000A00088608093A000D093AD00C093AC003A
:102C500028C080912001806880932001D0932901B1
:102C6000C09328011EC080912001806280932001C2
:102C7000D0932B01C0932A0114C080912001886059
:102C800080932001D0932D01C0932C010AC0C0383D
:102C9000D1051CF4812F60E002C0812F61E00E9409
:102CA0000817DF91CF911F910895CF93DF93482F9D
:102CB00050E0CA018D539E4FFC01349143585E4F42
:102CC000FA018491882369F190E0880F991FFC0133
:102CD000E15DFE4FA591B491FC01E75BFE4FC5910C
:102CE000D491662351F42FB7F8948C91932F90953B
:102CF00089238C93888189230BC0623061F42FB7BC
:102D0000F8948C91932F909589238C938881832BB1
:102D100088832FBF06C09FB7F8948C91832B8C9328
:102D20009FBFDF91CF910895893009F449C08A305F
:102D3000A0F4843051F1853040F4823079F1833051
:102D400000F5813009F063C026C0873079F1883002
:102D500098F5863009F05BC025C08D3009F442C07B
:102D60008E3028F48B30B1F18C30C0F52DC080311D
:102D700009F442C0813109F445C08F3009F047C0E1
:102D800037C0809180008F7703C0809180008F7D55
:102D900080938000089584B58F7702C084B58F7DBD
:102DA00084BD08958091B0008F7703C08091B000FA
:102DB0008F7D8093B0000895809190008F7707C039
:102DC000809190008F7D03C080919000877F8093D9
:102DD000900008958091A0008F7707C08091A00097
:102DE0008F7D03C08091A000877F8093A00008950D
:102DF000809120018F7703C0809120018F7D809387
:102E00002001089580912001877F809320010895FB
:102E1000FF920F931F93F62E482F50E0CA01875F51
:102E20009D4FFC012491CA018D539E4FFC011491CA
:102E300043585E4FFA0104910023C9F0222319F090
:102E4000822F0E949416E02FF0E0EE0FFF1FE75B49
:102E5000FE4FA591B4919FB7F894FF2021F48C9177
:102E60001095812302C08C91812B8C939FBF1F9161
:102E70000F91FF9008950F931F93482F50E0CA01C0
:102E8000875F9D4FFC012491CA018D539E4FFC0129
:102E9000049143585E4FFA011491112319F420E074
:102EA00030E015C0222319F0822F0E949416812F42
:102EB00090E0880F991F8D599E4FFC01A591B49108
:102EC0008C9120E030E0802311F021E030E0C90156
:102ED0001F910F9108951F920F920FB60F920BB68C
:102EE0000F9211242F933F934F935F936F937F9390
:102EF0008F939F93AF93BF93EF93FF938091AF0412
:102F00009091B004892B29F0E091AF04F091B004C6
:102F10001995FF91EF91BF91AF919F918F917F9103
:102F20006F915F914F913F912F910F900BBE0F903A
:102F30000FBE0F901F9018951F920F920FB60F9211
:102F40000BB60F9211242F933F934F935F936F9380
:102F50007F938F939F93AF93BF93EF93FF93809152
:102F6000B1049091B204892B29F0E091B104F09161
:102F7000B2041995FF91EF91BF91AF919F918F91FD
:102F80007F916F915F914F913F912F910F900BBE69
:102F90000F900FBE0F901F9018951F920F920FB6B3
:102FA0000F920BB60F9211242F933F934F935F9381
:102FB0006F937F938F939F93AF93BF93EF93FF9301
:102FC0008091B3049091B404892B29F0E091B3046B
:102FD000F091B4041995FF91EF91BF91AF919F913A
:102FE0008F917F916F915F914F913F912F910F90B2
:102FF0000BBE0F900FBE0F901F9018951F920F924F
:103000000FB60F920BB60F9211242F933F934F934D
:103010005F936F937F938F939F93AF93BF93EF9340
:10302000FF938091B5049091B604892B29F0E0912B
:10303000B504F091B6041995FF91EF91BF91AF914E
:103040009F918F917F916F915F914F913F912F91C0
:103050000F900BBE0F900FBE0F901F9018951F92F0
:103060000F920FB60F920BB60F9211242F933F932E
:103070004F935F936F937F938F939F93AF93BF9380
:10308000EF93FF938091AB049091AC04892B29F0CE
:10309000E091AB04F091AC041995FF91EF91BF91D1
:1030A000AF919F918F917F916F915F914F913F91E0
:1030B0002F910F900BBE0F900FBE0F901F90189581
:1030C0001F920F920FB60F920BB60F9211242F93EF
:1030D0003F934F935F936F937F938F939F93AF93A0
:1030E000BF93EF93FF938091AD049091AE04892B31
:1030F00029F0E091AD04F091AE041995FF91EF91A4
:10310000BF91AF919F918F917F916F915F914F91FF
:103110003F912F910F900BBE0F900FBE0F901F90FD
:1031200018951F920F920FB60F920BB60F921124A3
:103130002F933F934F935F936F937F938F939F93BF
:10314000AF93BF93EF93FF938091B7049091B8042E
:10315000892B29F0E091B704F091B8041995FF91FB
:10316000EF91BF91AF919F918F917F916F915F91FF
:103170004F913F912F910F900BBE0F900FBE0F906C
:103180001F9018951F920F920FB60F920BB60F92C9
:1031900011242F933F934F935F936F937F938F935C
:1031A0009F93AF93BF93EF93FF938091B904909156
:1031B000BA04892B29F0E091B904F091BA04199569
:1031C000FF91EF91BF91AF919F918F917F916F91FF
:1031D0005F914F913F912F910F900BBE0F900FBEBB
:1031E0000F901F901895CF92DF92EF92FF920F935E
:1031F0001F93CF93DF937C016B018A01C0E0D0E085
:103200000FC0D6016D916D01D701ED91FC91019038
:10321000F081E02DC7011995C80FD91F015010404A
:103220000115110571F7CE01DF91CF911F910F911B
:10323000FF90EF90DF90CF900895DC01ED91FC912D
:103240000190F081E02D19950895CF93DF93EC0163
:103250006115710519F420E030E00FC0DB010D901D
:103260000020E9F71197A61BB70BE881F9810280CE
:10327000F381E02DAD0119959C01C901DF91CF913A
:1032800008950E9425190895EF92FF920F931F93BE
:10329000CF93DF93EC01E0906A07F0906B07009109
:1032A0006C0710916D07688179818A819B81A801E3
:1032B00097010E9418D9882324F4E882F9820A83AE
:1032C0001B83E0906E07F0906F07009170071091DC
:1032D00071076C817D818E819F81A80197010E9479
:1032E00018D9882324F4EC82FD820E831F83E0909A
:1032F0007207F09073070091740710917507688545
:1033000079858A859B85A80197010E9418D9882311
:1033100024F4E886F9860A871B87E0908903F090F9
:103320008A0300918B0310918C03688179818A81D3
:103330009B81A80197010E9426DB181624F4E882DD
:10334000F9820A831B83E0908D03F0908E03009135
:103350008F03109190036C817D818E819F81A801E4
:1033600097010E9426DB181624F4EC82FD820E835E
:103370001F83E0909103F0909203009193031091CA
:103380009403688579858A859B85A80197010E94A9
:1033900026DB181624F4E886F9860A871B87DF9156
:1033A000CF911F910F91FF90EF9008958091880722
:1033B000089567707070E82FF0E0E75FFD4F84912B
:1033C0008B3028F48830A0F4863090F106C08E301F
:1033D000D0F08F50833060F521C08091B100887F9C
:1033E0008093B1008091B100862B8093B100089545
:1033F00080919100887F8093910080919100862B2D
:103400008093910008958091A100887F8093A1000E
:103410008091A100862B8093A100089580912101C5
:10342000887F8093210180912101862B8093210147
:1034300008950F931F93CF93DF938130910549F443
:103440006F5F7F4F09F046C08BEB94E00E94578A74
:1034500041C0892B09F03EC06F5F7F4FD9F58AE1EB
:1034600094E0909386068093850680918C0688234D
:1034700021F089E896E00E945B46C1E4D6E00AE1CB
:1034800014E005C06F9785E0CB30D80751F0198361
:1034900008838F818823B1F3CE0104960E945B4696
:1034A000F1CF8AE194E0998388838F81882321F08A
:1034B000CE0104960E945B468AE194E09093EB046F
:1034C0008093EA048091F104882321F08EEE94E049
:1034D0000E945B46DF91CF911F910F91089580E08C
:1034E00090E06FEF7FEF0E94191A089581E090E05D
:1034F0006FEF7FEF0E94191A08950E946372809106
:103500008807882309F03AC081E08093880780917A
:103510008B0790918C07A0918D07B0918E078093B7
:103520008F0790939007A0939107B0939207E5E5DA
:10353000F2E0949108C08091C00085FFFCCF909389
:10354000C600319694919923B1F7E6E6F2E09491A2
:1035500008C08091C00085FFFCCF9093C6003196D3
:1035600094919923B1F78091C00085FFFCCF8AE048
:103570008093C6008CE592E00E94D1CE0895F89425
:103580000E946372159A10927607179A1092770725
:10359000429A10927807A09AE5E5F2E0949108C06B
:1035A0008091C00085FFFCCF9093C6003196949126
:1035B0009923B1F7E5EEF2E0949108C08091C00044
:1035C00085FFFCCF9093C600319694919923B1F773
:1035D0008091C00085FFFCCF8AE08093C6008CED0F
:1035E00092E00E94E0CE809A8898FFCF0E94A214B9
:1035F0006093930770939407809395079093960731
:10360000E091BC07F091BD07E254F84F8081882318
:10361000A9F4E4E0F3E0949108C08091C00085FF34
:10362000FCCF9093C600319694919923B1F7809185
:10363000C00085FFFCCF8AE08093C60008950E94F9
:10364000A2146093930770939407809395079093C7
:1036500096070895EF92FF920F931F930E94A21472
:10366000E0909707F09098070091990710919A07BA
:1036700020919307309194074091950750919607B8
:10368000621B730B840B950BE616F70608071907E8
:1036900038F4E114F1040105110511F00E94BF1A7C
:1036A0008091970390919803A0919903B0919A0308
:1036B0000097A105B10559F10E94A214209193072A
:1036C000309194074091950750919607621B730BB8
:1036D000840B950B209197033091980340919903A7
:1036E00050919A03261737074807590780F490919D
:1036F000271180912811981751F4159A1092760786
:10370000179A10927707429A10927807A09A0E940F
:103710003C591F910F91FF90EF9008956F927F9207
:103720008F929F92AF92BF92CF92DF92EF92FF92D1
:103730000F931F93F82E60919B0770919C078091C7
:103740009D0790919E0720919F073091A00740917F
:10375000A1075091A2070E9433DB3B014C0100D02E
:1037600000D00DB71EB70F5F1F4F60917F037091A0
:103770008003882777FD8095982F0E94BAD92091E1
:103780009B0330919C0340919D0350919E030E94A6
:10379000F8DB20E030E040E752E40E941FD920E04F
:1037A00030E048EC52E40E941FD95B016C01F80143
:1037B0006082718282829382F48280917D07858308
:1037C0008EE497E067EA77E04BE957E020E001E01C
:1037D00032E0E32E0E943C538091A7079091A80706
:1037E000A091A907B091AA0780934E0790934F0725
:1037F000A0935007B09351078091AB079091AC070D
:10380000A091AD07B091AE078093520790935307F4
:10381000A0935407B09355078091AF079091B007DC
:10382000A091B107B091B2078093560790935707C4
:10383000A0935807B09359078091B3079091B407AC
:10384000A091B507B091B60780935A0790935B0794
:10385000A0935C07B0935D078DB79EB706960FB631
:10386000F8949EBF0FBE8DBF0E94A2146093930771
:103870007093940780939507909396071F910F91EB
:10388000FF90EF90DF90CF90BF90AF909F908F9080
:103890007F906F900895CF92DF92EF92FF920F93F7
:1038A0001F9387EA97E00E9444190E94A214609334
:1038B0009307709394078093950790939607609170
:1038C0004E0770914F0780915007909151072091BA
:1038D000A7073091A8074091A9075091AA070E9415
:1038E00018D9882309F07AC0609152077091530764
:1038F00080915407909155072091AB073091AC0708
:103900004091AD075091AE070E9418D9882309F065
:1039100065C060919B0370919C0380919D03909181
:103920009E0320E030E040E752E40E941FD97B0173
:103930008C0187EA97E06BEA77E04FEA57E023EBE8
:1039400037E0EDE7CE2EE7E0DE2E0E94235C80918B
:10395000A7079091A807A091A907B091AA07809303
:103960004E0790934F07A0935007B0935107809153
:10397000AB079091AC07A091AD07B091AE078093D3
:10398000520790935307A0935407B0935507809123
:10399000AF079091B007A091B107B091B2078093A3
:1039A000560790935707A0935807B09359078091F3
:1039B000B3079091B407A091B507B091B607809373
:1039C0005A0790935B07A0935C07B0935D071F9124
:1039D0000F91FF90EF90DF90CF90089560917F035B
:1039E00070918003882777FD8095982F0E94BAD91F
:1039F00020919B0330919C0340919D0350919E0325
:103A00000E94F8DB20E030E040E752E40E941FD93A
:103A100020E030E048EC52E488CF89ED99E00E9444
:103A20006D40E7E0F3E0949108C08091C00085FF0D
:103A3000FCCF9093C600319694919923B1F74091B1
:103A40008B0750918C0760918D0770918E074F5FA7
:103A50005F4F6F4F7F4F89ED99E02AE030E00E9481
:103A60002E418091C00085FFFCCF8AE08093C60084
:103A70000E94F61A08952F923F924F925F926F9292
:103A80007F928F929F92AF92BF92CF92DF92EF92EE
:103A9000FF920F931F93DF93CF93CDB7DEB7289795
:103AA0000FB6F894DEBF0FBECDBF98878F838330EB
:103AB000910508F056C1FC01E95AFA4FD4903C0137
:103AC000660C771C660C771C9301225B384F3A8397
:103AD000298380E090E0A0E0B0E0F9018083918349
:103AE000A283B3838EE497E062E577E046E557E092
:103AF0002AE537E00E941457F301E65AFA4FE590A1
:103B0000F590059114916D2D772767FD70958827A5
:103B100077FD8095982F0E94BAD91B012C01930143
:103B20002955384F3C832B83C801B70120E030E092
:103B300040EC5FE30E94F8DBA20191010E94F8DBF8
:103B4000AB81BC816D937D938D939C931397F3010F
:103B5000E159FC4FFE83ED83608171818281938105
:103B600060939B0370939C0380939D0390939E03AB
:103B700020E030E040E752E40E941FD97B018C0135
:103B800087EA97E06BEA77E04FEA57E023EB37E00C
:103B9000ADE7CA2EA7E0DA2E0E94235C0E94B86926
:103BA00080E090E0A0E0B0E0E981FA818083918339
:103BB000A283B3838EE497E062E577E046E557E0C1
:103BC0002AE537E00E941457F301E657FA4F859033
:103BD0009590A590B490C501B4019058A2019101AF
:103BE0000E94F8DBAB81BC816D937D938D939C9398
:103BF000139760919B0370919C0380919D0390911A
:103C00009E0320E030E040E752E40E941FD97B0190
:103C10008C0187EA97E06BEA77E04FEA57E023EB05
:103C200037E00E94235C0E94B869C501B401A50178
:103C300094010E943FD8A20191010E94F8DBEB8120
:103C4000FC816083718382839383AD81BE816D919A
:103C50007D918D919C9120E030E040E05FE30E94F7
:103C6000F8DB60939B0370939C0380939D03909378
:103C70009E0320E030E040E752E40E941FD97B0120
:103C80008C0187EA97E06BEA77E04FEA57E023EB95
:103C900037E00E94235C0E94B869F301EA59FA4FA9
:103CA0006591759185919491F301E25AF84FA08046
:103CB000B180C280D380A60195010E943FD87B01CC
:103CC0008C01CB01D801E981FA8180839183A283A1
:103CD000B383F301EE58FA4F6591759185919491F4
:103CE000FAE68F2EF7E09F2E860C971CA601950111
:103CF0000E943FD8D4016D937D938D939C9313972D
:103D0000F301E258FA4F6591759185919491E9E834
:103D1000F3E06E0E7F1EA60195010E943FD8D301ED
:103D20006D937D938D939C931397C701D801EB817D
:103D3000FC8180839183A283B38380E090E0A0E044
:103D4000B0E080939B0390939C03A0939D03B0935A
:103D50009E030E94A668AF81B885AA58B84F81E03B
:103D60008C9328960FB6F894DEBF0FBECDBFCF91CF
:103D7000DF911F910F91FF90EF90DF90CF90BF9058
:103D8000AF909F908F907F906F905F904F903F90FB
:103D90002F900895682F2091BC073091BD0780E6D1
:103DA00090E0AC01249FC001259F900D349F900DA1
:103DB00011248853984F70E00E948A119C019093BF
:103DC000C7078093C60780E0232B09F081E00895A0
:103DD000FC01949108C08091C00085FFFCCF9093B6
:103DE000C600319694919923B1F789ED99E022E0CC
:103DF00030E00E943E420895FC01949108C08091F9
:103E0000C00085FFFCCF9093C60031969491992312
:103E1000B1F789ED99E02AE030E00E940F41089562
:103E20008091C6079091C707019660E070E04AE074
:103E300050E00E94F20F08958091C6079091C70745
:103E4000019660E070E00E94920E0895CF93DF9398
:103E5000EC0180917D0780938A0784E50E94CA1E49
:103E6000882309F482C00E941C1F0E948CD9262F2F
:103E700060938A07662309F478C0EFE4F2E0949136
:103E800008C08091C00085FFFCCF9093C60031969A
:103E900094919923B1F7CD36D105C1F0CE36D10535
:103EA00044F4C836D105C1F0C936D10509F04DC07A
:103EB00010C0CA3DD10539F0CD3DD10509F045C04E
:103EC000E0E0F2E03FC0E7E1F2E031C0EEE2F2E034
:103ED00023C0E5E4F2E015C0ECE5F2E007C0809114
:103EE000C00085FFFCCF31969093C6009081992346
:103EF000B1F72BC08091C00085FFFCCF3196909325
:103F0000C60090819923B1F720C08091C00085FF41
:103F1000FCCF31969093C60090819923B1F715C0DC
:103F20008091C00085FFFCCF31969093C6009081B0
:103F30009923B1F70AC08091C00085FFFCCF31966C
:103F40009093C60090819923B1F789ED99E0622F93
:103F500040E050E00E941C418091C00085FFFCCFF2
:103F60008AE08093C60081E001C080E0DF91CF91BC
:103F70000895AF92BF92CF92DF92EF92FF920F938C
:103F80001F93CF93DF931EE4E12E17E0F12EC7EAD3
:103F9000D7E000E010E0F801E652FC4F80810E947B
:103FA000CA1E882339F10E941C1F5B016C01F801B5
:103FB000E85BF84F8081882311F061E002C06091D6
:103FC000B70770E0882777FD8095982F0E94BAD9AF
:103FD000F70120813181428153810E94F8DB9B01EE
:103FE000AC01C601B5010E943FD8688379838A83FA
:103FF0009B8309C0F70180819181A281B38188836D
:104000009983AA83BB830F5F1F4F84E090E0E80E83
:10401000F91E24960430110509F0BDCF86E40E94F4
:10402000CA1E8823E1F00E941C1F7B018C01609353
:10403000B8077093B9078093BA079093BB0720E045
:1040400030E040E050E00E9426DB181644F4E09295
:104050009B03F0929C0300939D0310939E03DF91BA
:10406000CF911F910F91FF90EF90DF90CF90BF9075
:10407000AF9008950E94B91F89E40E94CA1E882348
:1040800059F00E941C1F60939B0770939C078093BC
:104090009D0790939E070CC080E090E0A0E0B0E008
:1040A00080939B0790939C07A0939D07B0939E07D6
:1040B0008AE40E94CA1E882359F00E941C1F609344
:1040C0009F077093A0078093A1079093A20708957C
:1040D00080E090E0A0E0B0E080939F079093A0077D
:1040E000A093A107B093A20708952F923F924F92F9
:1040F0005F926F927F928F929F92AF92BF92CF9278
:10410000DF92EF92FF920F931F93DF93CF93CDB780
:10411000DEB7EE970FB6F894DEBF0FBECDBF87E4D3
:104120000E94CA1E882309F44EC40E941C1F0E94CC
:1041300087D96430710509F441C06530710554F4C4
:104140006230710541F1633071056CF57723CCF471
:104150000C9450386A35710509F4E0C36B3571056C
:1041600034F46C31710511F00C9450386FC06B351C
:10417000710509F4D7C36C35710511F00C945038F2
:10418000D6C380918807882331F40E94B91F0E940A
:104190004B1C0C94773880918807882321F40E9467
:1041A0003A2081E007C080918807882339F40E9473
:1041B0003A2080E00E948E1B0C9477388EE495E0C4
:1041C0000E94D1CE80E50E94CA1E882321F4EE24ED
:1041D000FF24870106C00E941C1F0E948CD97B010E
:1041E0008C0183E50E94CA1E882361F00E941C1F77
:1041F00020E030E04AE754E40E94F8DB0E948CD9CA
:104200007B018C010E94B8690E94A2145B016C01C1
:10421000AE0CBF1CC01ED11E0E94A2146093930757
:1042200070939407809395079093960706C00E9419
:10423000E9760E942A1B0E9403CF0E94A2146A15ED
:104240007B058C059D0598F30C94503880919B0359
:1042500090919C03A0919D03B0919E038093C2070F
:104260009093C307A093C407B093C50780917F03C1
:104270009091800390934D0780934C0784E690E0E3
:104280009093800380937F030E94A214609393070E
:1042900070939407809395079093960781E00E940E
:1042A000AD6880914E0790914F07A0915007B09153
:1042B00051078093A7079093A807A093A907B093ED
:1042C000AA078091520790915307A0915407B0918B
:1042D00055078093AB079093AC07A093AD07B093BD
:1042E000AE078091560790915707A0915807B0915B
:1042F00059078093AF079093B007A093B107B0938D
:10430000B20780915A0790915B07A0915C07B0912A
:104310005D078093B3079093B407A093B507B0935C
:10432000B60780E090E0A0E0B0E080939B0390931C
:104330009C03A0939D03B0939E0388E50E94CA1E30
:10434000882361F489E50E94CA1E882339F48AE52E
:104350000E94CA1E882311F481E001C080E080938E
:104360009F03882361F488E50E94CA1E882309F40C
:104370001BC289E50E94CA1E882309F415C280E089
:1043800090E0A0E0B0E080934E0790934F07A09399
:104390005007B09351078093520790935307A0930F
:1043A0005407B0935507B7E58B2EB5E09B2EF4016B
:1043B000E4908EE497E062E577E046E557E02AE591
:1043C00037E00E941457AAE56A2EA5E07A2EF30181
:1043D000659175918591949120E030E040EC5FE328
:1043E0000E94F8DB5B016C01FF24E7FCF0940027DE
:1043F000F7FC0095102FC801B7010E94BAD99B01A4
:10440000AC01C601B5010E94F8DB6093A707709369
:10441000A8078093A9079093AA07F4E04F2E512C88
:10442000460C571CF2016591759185919491089401
:10443000811C911CF401D49020E030E040EC5FE35B
:104440000E94F8DB7B018C016D2D772767FD70954D
:10445000872F972F0E94BAD99B01AC01C801B701E1
:104460000E94F8DB6093AB077093AC078093AD07B5
:104470009093AE0720916F033091700340917103C8
:104480005091720320939B0330939C0340939D03B0
:1044900050939E03E0907303F090740300917503B2
:1044A00010917603C801B7010E9418D9882344F4FB
:1044B000E0929B03F0929C0300939D0310939E0354
:1044C000F301A590B590C590D490F201E590F590D8
:1044D00005911491C601B501A80197010E9426DB40
:1044E00018162CF4C801B701A601950104C0C60135
:1044F000B501A80197010E941FD99B01AC010E9440
:10450000F8DB9B01AC01CA0120E030E040E85FE34A
:104510000E943FD80E9465DC9B01AC0160919B0327
:1045200070919C0380919D0390919E030E94F8DB03
:1045300060939B0370939C0380939D0390939E03D1
:1045400060919B0370919C0380919D0390919E03C9
:1045500020E030E040E752E40E941FD97B018C014B
:1045600087EA97E06BEA77E04FEA57E023EB37E022
:10457000EDE7CE2EE7E0DE2E0E94235C0E94B869B4
:10458000E6E6F5E0659175918591949120915E073D
:1045900030915F0740916007509161070E943FD8BA
:1045A00060934E0770934F07809350079093510785
:1045B000E2E7F5E0659175918591949120915E0710
:1045C00030915F0740916007509161070E943FD88A
:1045D00060936A0770936B0780936C0790936D07E5
:1045E000EEE7F5E0659175918591949120915E07D4
:1045F00030915F0740916007509161070E943FD85A
:104600006093890370938A0380938B0390938C0348
:10461000EAE6F5E0659175918591949120916207A4
:104620003091630740916407509165070E943FD81D
:1046300060935207709353078093540790935507E4
:10464000E6E7F5E065917591859194912091620777
:104650003091630740916407509165070E943FD8ED
:1046600060936E0770936F07809370079093710744
:10467000E2E8F5E06591759185919491209162074A
:104680003091630740916407509165070E943FD8BD
:1046900060938D0370938E0380938F0390939003A8
:1046A0008EE497E062E577E046E557E02AE537E0FB
:1046B0000E94145780914E0790914F07A091500788
:1046C000B09151078093A7079093A807A093A907DB
:1046D000B093AA078091520790915307A091540775
:1046E000B09155078093AB079093AC07A093AD07AB
:1046F000B093AE0760919B0370919C0380919D03E2
:1047000090919E0320E030E040E752E40E941FD9E0
:104710007B018C0187EA97E06BEA77E04FEA57E08C
:1047200023EB37E00E94235C80E090E0A0E0B0E063
:1047300080939B0390939C03A0939D03B0939E034F
:104740000E94B8690E94A6688091A7079091A80767
:10475000A091A907B091AA0780934E0790934F07A5
:10476000A0935007B09351078091AB079091AC078D
:10477000A091AD07B091AE07809352079093530775
:10478000A0935407B09355078091AF079091B0075D
:10479000A091B107B091B207809356079093570745
:1047A000A0935807B093590780919F03882329F459
:1047B00088E50E94CA1E882321F080E090E00E94D4
:1047C0003B1D80919F03882329F489E50E94CA1E1E
:1047D000882321F081E090E00E943B1D88E50E9443
:1047E000CA1E8823D9F00E94101F6115710581052A
:1047F0009105A1F00E941C1F20915E0730915F0778
:1048000040916007509161070E943FD860934E0726
:1048100070934F07809350079093510789E50E944A
:10482000CA1E8823D9F00E94101F611571058105E9
:104830009105A1F00E941C1F20916207309163072F
:1048400040916407509165070E943FD860935207DA
:1048500070935307809354079093550780919F035B
:10486000882329F48AE50E94CA1E882321F082E069
:1048700090E00E943B1D8AE50E94CA1E8823D9F061
:104880000E94101F6115710581059105A1F00E941C
:104890001C1F20916607309167074091680750916F
:1048A00069070E943FD8609356077093570780931B
:1048B0005807909359078EE497E062E577E046E564
:1048C00057E02AE537E00E94145780E00E94AD6867
:1048D0008091C2079091C307A091C407B091C5070A
:1048E00080939B0390939C03A0939D03B0939E039E
:1048F00080914C0790914D079093800380937F03A4
:104900000E94A21460939307709394078093950775
:10491000909396070E94A6680C9450381092B7079F
:104920000C94503881E08093B7070C94503885E49C
:104930000E94CA1E882311F40E94B8694EE4E42E36
:1049400047E0F42E3EE5C32E37E0D32E00E010E022
:10495000F801E652FC4F80810E94CA1E882331F183
:10496000033061F40E941C1FF7016083718382830E
:1049700093838AE597E00E94F65618C00E941C1F98
:10498000F60120813181428153810E943FD8F70195
:1049900060837183828393838EE497E062E577E09E
:1049A00046E557E02AE537E00E9414570F5F1F4F96
:1049B00024E030E0E20EF31EC20ED31E04301105D7
:1049C00039F60C9450388DE40E94CA1E882311F4E5
:1049D0000C9472370E941C1F0E9487D962377105A0
:1049E00011F40C94E22E633771050CF09BC06E310C
:1049F000710509F493C26F3171050CF042C0663144
:104A0000710509F4F1C167317105E4F46131710593
:104A100009F4AAC16231710534F46230710510F0F5
:104A20000C94503842C16431710509F4A7C1653155
:104A300071050CF0D3C16231710511F00C9450383E
:104A40000C94C52D6931710509F400C26A317105F4
:104A500054F46731710509F4CDC16831710511F065
:104A60000C945038E3C16B31710509F414C26B31F9
:104A700071050CF4F1C16C31710511F00C945038D2
:104A800010C26435710511F40C94C52D653571059E
:104A900014F56A32710509F4B7C36B32710554F429
:104AA0006F31710509F42BC36032710511F00C945C
:104AB00050387AC26235710511F40C94BC2D6335FF
:104AC000710514F00C94C02D6135710511F00C9432
:104AD00050380C949D2D6936710509F410C46A365E
:104AE000710584F46C35710511F40C94352E68361B
:104AF000710509F4D3C36535710511F00C94503874
:104B00000C941E2E6B36710511F40C94972D6B3698
:104B1000710514F40C94662D6D36710511F00C942A
:104B2000503811C56D3D710511F40C9440326E3D45
:104B300071050CF054C06E3B710509F4B4C66F3BAF
:104B400071051CF56737710509F4ABC0683771054D
:104B500064F46337710511F40C94BB2E653771054D
:104B600011F00C9450380C94CB2E6937710511F468
:104B70000C94DC2F6937710514F40C94D72F6C3822
:104B8000710511F00C945038A9C36C3C710511F4F7
:104B90000C9495316D3C71058CF4693C710511F4F0
:104BA0000C9455316B3C710511F40C947731683CD1
:104BB000710511F00C9450380C94DD306E3C710589
:104BC00011F40C9413326E3C710514F40C94B5314D
:104BD0006C3D710511F00C9450380C94313231E079
:104BE000643F730711F40C94203441E0653F74076F
:104BF0004CF551E06D32750711F40C94F63281E0FA
:104C00006E32780764F4623E710511F40C946732D9
:104C10006C52714011F00C9450380C94BF32E1E0AA
:104C20006F327E0711F40C94DD33F1E06F327F07B1
:104C300014F40C94CE336059714011F00C94503838
:104C40000C941D3432E06835730711F40C9431353F
:104C500042E0693574079CF451E0663F750711F432
:104C60000C94263481E0663F780714F40C942334C6
:104C7000675F714011F00C9450380C942934E3E0D4
:104C8000603A7E0709F400C2F3E0673E7F0711F443
:104C90000C945B376355734011F00C9450380C94AE
:104CA0002C34E3E7F2E00C94E82F8DE395E00E94CA
:104CB000D1CE80E50E94CA1E882321F4EE24FF2471
:104CC000870106C00E941C1F0E948CD97B018C01A9
:104CD00083E50E94CA1E882361F00E941C1F20E009
:104CE00030E04AE754E40E94F8DB0E948CD97B0153
:104CF0008C010E94B8690E94A2146093930770937C
:104D000094078093950790939607E114F1040105A9
:104D1000110501F10E94A2145B016C01AE0CBF1CD5
:104D2000C01ED11E0E94A2146A157B058C059D052C
:104D3000A8F40E94CA97882389F40E94E9760E9409
:104D40002A1B0E9403CFEECF0E94E9760E942A1B05
:104D50000E9403CF0E94CA978823B1F38EE295E0A8
:104D60000E94D1CE0C94503885E295E00E94D1CEBD
:104D7000159817984298A0980C945038E5E1F5E002
:104D8000949108C08091C00085FFFCCF9093C6002D
:104D9000319694919923B1F78091C00085FFFCCFA3
:104DA0008AE08093C6008BEB94E00E940A8AE7E0D9
:104DB000F5E0949108C08091C00085FFFCCF9093EE
:104DC000C600319694919923B1F78091C00085FF78
:104DD000FCCF8AE08093C6000C9450388BEB94E0B3
:104DE0000E9469850C9450388BEB94E00E94A17D61
:104DF0000C9450388091C6079091C70704966AE2D8
:104E000070E00E948A11FC01009711F03197108226
:104E10006091C6077091C7076C5F7F4F8BEB94E082
:104E200041E021E00E947F810C9450388BEB94E0AC
:104E30000E94A57D0E94A214609380077093810751
:104E400080938207909383070C9450388BEB94E007
:104E50000E94AC7D0C9450388091BE04882311F4DC
:104E60000C94503883E50E94CA1E882311F40C94D8
:104E700050380E94101FAB01BC0140933E07509375
:104E80003F07809340077093410789E896E00E94AE
:104E900041450C9450388BEB94E00E946A7F0C944F
:104EA00050388091C6079091C70704966AE270E077
:104EB0000E948A118C01009719F12091BC07309152
:104EC000BD0780E690E0AC01249FC001259F900DB6
:104ED000349F900D11248853984F6EE470E00E9427
:104EE0008A1160E270E00E948A119C012F5F3F4F9F
:104EF0003093C7072093C60701501040F801108275
:104F00006091C6077091C7076C5F7F4F8BEB94E091
:104F100040E021E00E947F810C9450388091BE04D3
:104F2000882311F40C9450388BEB94E060E00E94DD
:104F3000D97E8091C6079091C70704966AE270E017
:104F40000E948A118C01009719F12091BC073091C1
:104F5000BD0780E690E0AC01249FC001259F900D25
:104F6000349F900D11248853984F6EE470E00E9496
:104F70008A1160E270E00E948A119C012F5F3F4F0E
:104F80003093C7072093C60701501040F8011082E4
:104F90006091C6077091C7076C5F7F4F8BEB94E001
:104FA0000E94C47F0C9450388091BD04882311F076
:104FB0000E94B869E090C607F090C70724E030E08F
:104FC000E20EF31EC7016AE270E00E948A118C01B2
:104FD000C70161E270E00E948A11009721F07C0114
:104FE0000894E11CF11C0115110521F0015010403D
:104FF000F801108280E50E94CA1E182F8091C60712
:105000009091C707E816F90608F410E08091BE04F5
:10501000882311F40C94503821E021278BEB94E085
:10502000B70141E00E947F8183E50E94CA1E882368
:10503000B9F08091C6079091C7078E159F0580F43F
:105040000E94101FAB01BC0140933E0750933F07E5
:10505000809340077093410789E896E00E9441459C
:105060008BEB94E00E94A57D112311F00C94503835
:105070000E94A21460938007709381078093820737
:10508000909383070C9450388091C6079091C7077E
:1050900005966AE270E00E948A118C01009719F16E
:1050A0002091BC073091BD0780E690E0AC01249FC1
:1050B000C001259F900D349F900D11248853984F67
:1050C0006EE470E00E948A1160E270E00E948A1132
:1050D0009C012F5F3F4F3093C7072093C6070150B5
:1050E0001040F80110826091C6077091C7076B5F8E
:1050F0007F4F8BEB94E00E9460850C9450380E94A7
:10510000A214609384077093850780938607909319
:105110008707209180073091810740918207509145
:105120008307621B730B840B950B28EE33E040E082
:1051300050E00E9410DDF22EE32ED42EC52E2DB7A6
:105140003EB7285030400FB6F8943EBF0FBE2DBF7B
:105150000DB71EB70F5F1F4FCE018196EDB7FEB79B
:105160009283818388EF94E0F801938382836F2D8B
:105170007E2D842F952F2CE330E040E050E00E94FC
:1051800010DDF801358324836F2D7E2D8D2D9C2D10
:105190002CE330E040E050E00E9410DDF80177831E
:1051A00066830E94B911EFE4F2E094912DB73EB707
:1051B000285F3F4F0FB6F8943EBF0FBE2DBF08C00B
:1051C0008091C00085FFFCCF9093C60031969491EA
:1051D0009923B1F7FE01B19607C08091C00085FF09
:1051E000FCCF31969093C60090819923B1F78091BE
:1051F000C00085FFFCCF8AE08093C600CE01819677
:105200000E94F4CE0C94503883E50E94CA1E882375
:1052100011F40C9450380E941C1F0E9487D97B0106
:105220008C016B0180E50E94CA1E882369F0F7FC9F
:105230000BC03FEFE316F10409F034F40E941C1F89
:105240000E9487D98B0102C00DE010E0EEEDF3E083
:10525000808191818017910711F40C945038329617
:1052600044E0EE34F407A1F70730110529F4D09299
:105270007F07C0927E0704C017FF02C00C9450380D
:10528000802F61E00E945516802F6C2D0E94081718
:10529000802FB6010E9475150C94503888E690E076
:1052A0000E94261F882311F00C94503883E50E9439
:1052B000CA1E882379F00E941C1F20918A07022FA2
:1052C00010E0000F111F08571E4E0E9487D9F801E9
:1052D000718360830E94AE740C94503883E50E9401
:1052E000CA1E882311F40C9450380E941C1F0E947F
:1052F00087D970938B1160938A110C94503889E68A
:1053000090E00E94261F882311F00C945038E2EFA1
:10531000F4E0949108C08091C00085FFFCCF909389
:10532000C600319694919923B1F7E0918A07F0E095
:10533000EE0FFF1FEE0FFF1FE257FE4E408151811F
:105340006281738189ED99E021E030E00E943E4264
:10535000EFEEF4E0949108C08091C00085FFFCCF8F
:105360009093C600319694919923B1F7E0918A0702
:10537000F0E0EE0FFF1FE857FE4E60817181882735
:1053800077FD8095982F0E94BAD9AB01BC0189EDB9
:1053900099E021E030E00E943E42EBEEF4E094918F
:1053A00008C08091C00085FFFCCF9093C600319665
:1053B00094919923B1F74091941150919511609176
:1053C00096117091971189ED99E021E030E00E94EB
:1053D0003E42E8EEF4E0949108C08091C00085FF61
:1053E000FCCF9093C600319694919923B1F76091C8
:1053F0008A1170918B11882777FD8095982F0E94D4
:10540000BAD9AB01BC0189ED99E021E030E00E94FE
:105410003E42E5EEF4E0949108C08091C00085FF23
:10542000FCCF9093C600319694919923B1F789ED02
:1054300099E060E070E04AE050E00E946341E3EEF2
:10544000F4E0949108C08091C00085FFFCCF909358
:10545000C600319694919923B1F740918E115091E5
:105460008F11609190117091911189ED99E021E077
:1054700030E00E943E42E0EEF4E0949108C080915A
:10548000C00085FFFCCF9093C6003196949199237C
:10549000B1F76091881170918911882777FD809507
:1054A000982F0E94BAD9AB01BC0189ED99E021E0A7
:1054B00030E00E943E42ECEDF4E0949108C080910F
:1054C000C00085FFFCCF9093C6003196949199233C
:1054D000B1F780918A070E94A871BC0189ED99E01B
:1054E0004AE050E00E946341E7EDF4E0949108C087
:1054F0008091C00085FFFCCF9093C60031969491B7
:105500009923B1F78FEF9FEF0E94A871BC0189ED3D
:1055100099E04AE050E00E946341ECE8F2E007C005
:105520008091C00085FFFCCF31969093C60090819A
:105530009923B1F78091C00085FFFCCF8AE080936A
:10554000C6000C9477388DE690E00E94261F8823D1
:1055500011F00C9450388CEC94E00E94D1CE83E58D
:105560000E94CA1E882399F00E941C1F20918A075E
:10557000022F10E0000F111F08571E4E0E9487D9FE
:10558000F8017183608381E08093960316C082E501
:105590000E94CA1E882389F00E941C1F20918A073E
:1055A000022F10E0000F111F08571E4E0E9487D9CE
:1055B000F80171836083109296030E94AE740E947A
:1055C000A2144B015C0120918A07022F10E0109277
:1055D0008907000F111FF801E857FE4E60817181A5
:1055E000882777FD8095982F0E94BAD9000F111F48
:1055F00002571E4EF80120813181428153810E9461
:1056000026DB18161CF481E080938907CC24CA9409
:10561000DC2C7601E9ECF4E05490E5ECF4E06490E5
:10562000E1ECF4E074906AE0462E30C1952DE9EC8F
:10563000F4E008C08091C00085FFFCCF9093C600C5
:10564000319694919923B1F7E0918A07F0E0EE0F3B
:10565000FF1FEE0FFF1FE257FE4E40815181628116
:10566000738189ED99E021E030E00E943E42962D61
:10567000E5ECF4E008C08091C00085FFFCCF90937A
:10568000C600319694919923B1F760918A0789ED0C
:1056900099E070E04AE050E00E946341972DE1EC10
:1056A000F4E008C08091C00085FFFCCF9093C60055
:1056B000319694919923B1F7F7FE03C0EDE8F2E03B
:1056C00028C00E94A214A70196012854344F4F4FBE
:1056D0005F4F261B370B480B590BCA01B90128EE47
:1056E00033E040E050E00E9410DD89ED99E0BA011E
:1056F000A9012AE030E00E940F418091C00085FF9F
:10570000FCCF0EC08091C00085FFFCCF31969093F6
:10571000C60090819923B1F78091C00085FFFCCF2E
:105720004092C6000E94A2144B015C010E94E976DF
:105730000E942A1B0E9403CFFFEFCF16FFEFDF0668
:10574000FFEFEF06FFEFFF0609F052C080918907D7
:10575000E0918A07882331F1F0E08F01000F111FDB
:10576000000F111F02571E4EEE0FFF1FE857FE4E8F
:1057700060817181882777FD8095982F0E94BAD922
:1057800020E030E040E85FE30E943ED89B01AC019E
:10579000F80160817181828193810E9426DB87FFFD
:1057A00058C05EC0F0E08F01000F111F000F111FE5
:1057B00002571E4EEE0FFF1FE857FE4E60817181AB
:1057C000882777FD8095982F0E94BAD920E030E095
:1057D00040E85FE30E943FD89B01AC01F801608183
:1057E0007181828193810E9418D9181694F538C06E
:1057F000F7FC36C0E0918A07F0E08F01000F111F1F
:10580000000F111F02571E4EEE0FFF1FE857FE4EEE
:1058100060817181882777FD8095982F0E94BAD981
:105820009B01AC01F80160817181828193810E94AA
:105830003ED80E9487D997FF07C0909580957095B4
:1058400061957F4F8F4F9F4F6430710581059105A2
:105850003CF00E94A214AC01CB01DA016C017D0185
:10586000FFEFCF16FFEFDF06FFEFEF06FFEFFF06BC
:1058700069F0F7FE02C00C9453380E94A2146C1910
:105880007D09685B7B4010F00C9453380E94A21491
:10589000681979098A099B09695E734080409040C4
:1058A00008F0C4CE43CF86EA94E00E94D1CE83E5CF
:1058B0000E94CA1E882361F00E941C1F0E9487D983
:1058C00070938B1160938A1181E0809396030FC0CF
:1058D00082E50E94CA1E882351F00E941C1F0E946C
:1058E00087D970938B1160938A11109296030E944E
:1058F000A2147B018C011092890760918A1170912A
:105900008B11882777FD8095982F0E94BAD9209116
:1059100094113091951140919611509197110E94D8
:1059200026DB18160CF082C081E0809389077EC0C8
:105930000E94A2146E197F09800B910B695E73405F
:105940008040904008F46BC0E0917D07F0E0EE0FDE
:10595000FF1FEE0FFF1FE257FE4E40815181628113
:1059600073819B2DE3EAF4E008C08091C00085FFBD
:10597000FCCF9093C600319694919923B1F789EDAD
:1059800099E022E030E00E943E429C2DEFE9F4E0F5
:1059900008C08091C00085FFFCCF9093C60031966F
:1059A00094919923B1F760917D0789ED99E070E0BA
:1059B0004AE050E00E9463419D2DEBE9F4E008C00D
:1059C0008091C00085FFFCCF9093C60031969491E2
:1059D0009923B1F7409194115091951160919611CE
:1059E0007091971189ED99E021E030E00E943E42EC
:1059F000ECE8F2E007C08091C00085FFFCCF319653
:105A00009093C60090819923B1F78091C00085FFE3
:105A1000FCCFA092C6000E94A2147B018C010E94C0
:105A2000E9760E942A1B0E9403CF0BC0E3EAF4E050
:105A3000B490EFE9F4E0C490EBE9F4E0D4907AE0BC
:105A4000A72E8091890720918A1130918B1188238C
:105A5000A9F0B901882777FD8095982F0E94BAD9BF
:105A60002091941130919511409196115091971178
:105A70000E9426DB18160CF45BCF18C0B9018827EA
:105A800077FD8095982F0E94BAD92091941130917A
:105A9000951140919611509197110E9418D9882321
:105AA0002CF480919603882309F442CF81E994E095
:105AB0000E94D1CE0E94A214609393077093940722
:105AC00080939507909396070C94503883E50E9435
:105AD000CA1E882321F10E941C1F20E030E040E014
:105AE00050E00E9418D988231CF460E070E011C0D7
:105AF0000E941C1F20E030E04FE753E40E9426DBA9
:105B000018161CF46FEF70E004C00E941C1F0E9466
:105B100087D970937F0760937E070C9450388FEF7E
:105B200090E090937F0780937E070C9450381092FA
:105B30007F0710927E070C9450380E9463720E9477
:105B4000B869A09A0E94C66910927F0710927E07DA
:105B500068EE73E080E090E00E94B0140E94B869A3
:105B6000809A88981092950382E894E00E94D1CEA2
:105B70000E9403CF0C94503810924B070C9450386D
:105B800081E080934B070C94503883E50E94CA1E35
:105B90008823A1F00E941C1F20E030E04AE754E473
:105BA0000E94F8DB0E948CD960939703709398034E
:105BB0008093990390939A030C94503888E50E943F
:105BC000CA1E882311F00C946C3889E50E94CA1E05
:105BD000882311F00C946C388AE50E94CA1E882331
:105BE00011F00C946C3885E40E94CA1E882311F0D1
:105BF0000C946C380E94B869A09A0E94C6690C94F3
:105C00005038159A1092760789E50E94CA1E88239B
:105C100019F0179A109277078AE50E94CA1E882306
:105C200019F0429A1092780785E40E94CA1E8823D0
:105C300011F40C945038A09A0C94503883E50E94CB
:105C4000CA1E0E941C1F20E030E04AE754E40E9474
:105C5000F8DB0E948CD96093970770939807809324
:105C6000990790939A070C9450386BEF662E6BE06F
:105C7000762E5BEE252E5BE0352E47E3442E4CE07E
:105C8000542E88249924F401E652FC4F80810E940E
:105C9000CA1E882309F45DC053E0851609F052C07E
:105CA0000E941C1F5B016C0120E030E040EA51E4DF
:105CB0000E9418D988230CF03FC0F30160817181E4
:105CC00082819381A60195010E941FD97B018C01DD
:105CD00060912F0C7091300C8091310C9091320CAE
:105CE000A80197010E94F8DB60932F0C7093300C91
:105CF0008093310C9093320CF1016081718182812B
:105D00009381A80197010E94F8DBF1016083718300
:105D100082839383F20160817181828193810E94E9
:105D2000B8D9A80197010E94F8DB0E948CD9F20132
:105D30006083718382839383F301A082B182C282E4
:105D4000D38207C00E941C1FF3016083718382838A
:105D500093830894811C911C24E030E0620E731E32
:105D6000220E331E420E531E34E08316910409F0B6
:105D70008ACF0C945038E8EBF3E0949108C08091FE
:105D8000C00085FFFCCF9093C60031969491992373
:105D9000B1F70C9450388091C6079091C7070596CB
:105DA0006AE270E00E948A11FC01009711F03197BD
:105DB00010828091C6079091C70705960E94F4CE85
:105DC0000C945038E5EBF3E0949108C08091C0004A
:105DD00085FFFCCF9093C600319694919923B1F73B
:105DE00040914E0750914F076091500770915107B5
:105DF00089ED99E022E030E00E943E42E1EBF3E0E1
:105E0000949108C08091C00085FFFCCF9093C6009C
:105E1000319694919923B1F74091520750915307CD
:105E2000609154077091550789ED99E022E030E0C8
:105E30000E943E42EDEAF3E0949108C08091C000D8
:105E400085FFFCCF9093C600319694919923B1F7CA
:105E50004091560750915707609158077091590724
:105E600089ED99E022E030E00E943E42E9EAF3E069
:105E7000949108C08091C00085FFFCCF9093C6002C
:105E8000319694919923B1F740915A0750915B074D
:105E900060915C0770915D0789ED99E022E030E048
:105EA0000E943E42EEE9F3E0949108C08091C00068
:105EB00085FFFCCF9093C600319694919923B1F75A
:105EC00080E00E9483690E94BAD92091FB0B309137
:105ED000FC0B4091FD0B5091FE0B0E941FD9AB01B2
:105EE000BC0189ED99E022E030E00E943E42EAE9FF
:105EF000F3E0949108C08091C00085FFFCCF90939F
:105F0000C600319694919923B1F781E00E9483698C
:105F10000E94BAD92091FF0B3091000C4091010CE6
:105F20005091020C0E941FD9AB01BC0189ED99E090
:105F300022E030E00E943E42E6E9F3E0949108C09E
:105F40008091C00085FFFCCF9093C600319694915C
:105F50009923B1F782E00E9483690E94BAD9209107
:105F6000030C3091040C4091050C5091060C0E94DA
:105F70001FD9AB01BC0189ED99E022E030E00E941D
:105F80003E42ECE8F2E007C08091C00085FFFCCF04
:105F900031969093C60090819923B1F78091C0000B
:105FA00085FFFCCF8AE08093C6000C94503880E0D7
:105FB0000E94AD680C94503881E00E94AD680C944A
:105FC00050388091C00085FFFCCF31969093C60079
:105FD00090819923B1F78091C00085FFFCCF8AE0C2
:105FE0008093C600EEE8F3E0949108C08091C00071
:105FF00085FFFCCF9093C600319694919923B1F719
:10600000009B03C0EFE8F2E00AC0E4E9F2E007C059
:106010008091C00085FFFCCF31969093C60090819F
:106020009923B1F78091C00085FFFCCF8AE080936F
:10603000C600E6E8F3E0949108C08091C00085FFB7
:10604000FCCF9093C600319694919923B1F7029BAF
:1060500003C0EFE8F2E00AC0E4E9F2E007C0809193
:10606000C00085FFFCCF31969093C60090819923A4
:10607000B1F78091C00085FFFCCF8AE08093C60015
:10608000EEE7F3E0949108C08091C00085FFFCCF5B
:106090009093C600319694919923B1F7049B03C065
:1060A000EFE8F2E00AC0E4E9F2E007C08091C00046
:1060B00085FFFCCF31969093C60090819923B1F76C
:1060C0008091C00085FFFCCF8AE08093C600E6E7A0
:1060D000F3E0949108C08091C00085FFFCCF9093BD
:1060E000C600319694919923B1F7069B03C0EFE85F
:1060F000F2E00AC0E4E9F2E007C08091C00085FF49
:10610000FCCF31969093C60090819923B1F780918E
:10611000C00085FFFCCF8AE08093C600EEE6F3E086
:10612000949108C08091C00085FFFCCF9093C60079
:10613000319694919923B1F7379B03C0EFE8F2E0D1
:106140000AC0E4E9F2E007C08091C00085FFFCCFFF
:1061500031969093C60090819923B1F78091C00049
:1061600085FFFCCF8AE08093C600E6E6F3E09491D9
:1061700008C08091C00085FFFCCF9093C600319687
:1061800094919923B1F7359B03C0EFE8F2E00AC080
:10619000E4E9F2E007C08091C00085FFFCCF3196B2
:1061A0009093C60090819923B1F78091C00085FF3C
:1061B000FCCF8AE08093C60073C784E40E94CA1EA5
:1061C000882309F46DC70E941C1F20E030E040E0E6
:1061D0005FE30E94F8DB7B018C0120E030E040E0CF
:1061E00050E00E9418D9882359F40F2EF0E0CF2EEA
:1061F000F0E0DF2EF0E8EF2EFFE3FF2EF02D11C0D0
:10620000C801B701A80197010E94F8DB9B01AC010E
:10621000CA012BED3FE049E450E40E94F8DB6B013A
:106220007C0180917D0780938A0784E50E94CA1EC5
:10623000882319F10E941C1F0E948CD960938A0741
:106240006623D9F0EFE4F2E0949108C08091C00099
:1062500085FFFCCF9093C600319694919923B1F7B6
:10626000EEE9F2E007C08091C00085FFFCCF3196D7
:106270009093C60090819923B1F780918A07082FE7
:1062800010E0000F111F000F111F0B571C4F60E093
:1062900070E080E89FE3A70196010E941FD9F801F2
:1062A0006083718382839383FBC60AED13E02BE046
:1062B000E22E2CE0F22EF80180810E94CA1E882373
:1062C00049F00E941C1F0E948CD9F70160837183E2
:1062D000828393830F5F1F4F24E030E0E20EF31EB2
:1062E00033E00E3D130739F70E94CB56D9C60AEDAD
:1062F00013E09BEEE92E9BE0F92EF80180810E94CD
:10630000CA1E882339F00E941C1FF7016083718325
:10631000828393830F5F1F4F24E030E0E20EF31E71
:1063200033E00E3D130749F7BBC683E50E94CA1E42
:10633000882351F00E941C1F60931F0C7093200C47
:106340008093210C9093220C84E50E94CA1E88231E
:1063500009F4A6C60E941C1F6093230C7093240CA2
:106360008093250C9093260C9BC683E50E94CA1E41
:10637000882351F00E941C1F60931B0C70931C0C0F
:1063800080931D0C90931E0C84E50E94CA1E8823E6
:1063900051F00E941C1F6093330C7093340C809357
:1063A000350C9093360C82E40E94CA1E882361F05B
:1063B0000E941C1F0E948CD96093E70B7093E80B1E
:1063C0008093E90B9093EA0B88E50E94CA1E88230C
:1063D00051F00E941C1F6093270C7093280C80932F
:1063E000290C90932A0C8AE50E94CA1E882351F03A
:1063F0000E941C1F60932B0C70932C0C80932D0C0F
:1064000090932E0C85E40E94CA1E882309F448C686
:106410000E941C1F60932F0C7093300C8093310CE2
:106420009093320C3DC60AED13E08EE5E82E87E02E
:10643000F82EF80180810E94CA1E882339F00E943C
:106440001C1FF70160837183828393830F5F1F4F4B
:1064500024E030E0E20EF31E33E00D3D130749F770
:106460001FC683E50E94CA1E882309F419C60E942C
:106470001C1F0E9487D97093800360937F0310C60E
:1064800083E50E94CA1E882309F40AC60E941C1FC5
:106490000E9487D97B018C0184E50E94CA1E882353
:1064A00089F08DED90E00E94261F882309F0F8C541
:1064B000E0918A07F0E0EE0FFF1FED57FC4FF182ED
:1064C000E082EEC5F0928203E0928103E9C580E5A7
:1064D0000E94CA1E882309F4E3C50E941C1F0E9463
:1064E00087D97B0183E50E94CA1E882319F40FEF28
:1064F0001FEF05C00E941C1F0E9487D98B01C80195
:106500000196039708F0CCC5EEEDF3E08081918110
:106510008E159F0509F4C4C5329644E0EE34F407A5
:10652000A9F7F7FCBDC50E94B869DE2C8E2D60E08E
:106530000E9455160115110541F00130110579F041
:106540005FEF0F3F1507A1F403C000E010E010C09B
:106550008E2D0E943B1700E010E0892B49F401E0EA
:1065600010E006C00E94E9760E942A1B0E9403CF19
:106570008D2D0E943B1780179107A1F791C583E5E8
:106580000E94CA1E882321F4BEE6CB2ED12C05C062
:106590000E941C1F0E9487D96B0180E50E94CA1EC1
:1065A000882319F468EE73E004C00E941C1F0E9447
:1065B00087D97B010027F7FC0095102F1C141D04C0
:1065C00084F482E1B60120E030E040E050E00E9437
:1065D000CD94C801B7010E94B01482E10E94569484
:1065E0005FC5C801B7010E94B0145AC580E50E947A
:1065F000CA1E882351F00E941C1F6093A903709348
:10660000AA038093AB039093AC0389E40E94CA1E53
:10661000882361F00E941C1F0E9479726093AD0371
:106620007093AE038093AF039093B00384E40E9411
:10663000CA1E882361F00E941C1F0E94877260930B
:10664000B1037093B2038093B3039093B40383E4D4
:106650000E94CA1E882351F00E941C1F6093B5033C
:106660007093B6038093B7039093B8030E9491711F
:10667000E5EBF2E007C08091C00085FFFCCF3196CA
:106680009093C60090819923B1F7E8EBF2E007C040
:106690008091C00085FFFCCF31969093C600908119
:1066A0009923B1F74091A9035091AA036091AB03DC
:1066B0007091AC0389ED99E022E030E00E943E4207
:1066C000ECEBF2E007C08091C00085FFFCCF319673
:1066D0009093C60090819923B1F76091AD037091BA
:1066E000AE038091AF039091B0030E948072AB0122
:1066F000BC0189ED99E022E030E00E943E42E0ECEE
:10670000F2E007C08091C00085FFFCCF31969093E6
:10671000C60090819923B1F76091B1037091B203E3
:106720008091B3039091B4030E948E72AB01BC01BF
:1067300089ED99E022E030E00E943E42E4ECF2E094
:1067400007C08091C00085FFFCCF31969093C600B2
:1067500090819923B1F74091B5035091B6036091B0
:10676000B7037091B80389ED99E022E030E00E9410
:106770003E42ECE8F2E007C08091C00085FFFCCF0C
:1067800031969093C60090819923B1F78091C00013
:1067900085FFFCCF8AE08093C60082C483E50E9417
:1067A000CA1E882329F460E070E080E090E002C017
:1067B0000E941C1F0E94C25673C485E40E94CA1E18
:1067C000882319F4CC24DD2412C00E941C1F0E94CF
:1067D00087D96B0177FF0BC00F2EF0E0EF2EF0E0B2
:1067E000FF2EFCE80F2FF2E41F2FF02D0AC00F2E12
:1067F000F0E0EF2EF0E0FF2EF6E10F2FF3E41F2F75
:10680000F02D83E50E94CA1E882321F00E941C1FE0
:106810007B018C0183E40E94CA1E882319F425E0C1
:1068200030E005C00E941C1F0E9487D99B01C8014F
:10683000B701A6010E942C7933C40E94B86930C404
:106840000E94F38A2DC40E9438922AC40E94558D5A
:1068500027C40E94028F24C48AE50E94CA1E88238E
:1068600009F4B8C00E941C1F7B018C0120E030E0BD
:1068700040E751EC0E9426DB88230CF44EC0C8018F
:10688000B70120E030E040EA50EC0E9418D9181619
:106890000CF443C0D801C701B05880937907909396
:1068A0007A07A0937B07B0937C07EFE4F2E0949122
:1068B00008C08091C00085FFFCCF9093C600319640
:1068C00094919923B1F7EAE5F3E0949108C080919F
:1068D000C00085FFFCCF9093C60031969491992318
:1068E000B1F78091C00085FFFCCF8AE08093C6009D
:1068F000ECE8F2E007C08091C00085FFFCCF319644
:106900009093C60090819923B1F78091C00085FFD4
:10691000FCCF8AE08093C600C3C3EFE4F2E0949119
:1069200008C08091C00085FFFCCF9093C6003196CF
:1069300094919923B1F7E1E5F3E0949108C0809137
:10694000C00085FFFCCF9093C600319694919923A7
:10695000B1F7E9E4F3E0949108C08091C00085FFAD
:10696000FCCF9093C600319694919923B1F789EDAD
:1069700099E061EF7FEF4AE050E00E946341E1E47B
:10698000F3E0949108C08091C00085FFFCCF909304
:10699000C600319694919923B1F789ED99E06BEF98
:1069A0007FEF4AE050E00E946341ECE8F2E007C06C
:1069B0008091C00085FFFCCF31969093C6009081F6
:1069C0009923B1F78091C00085FFFCCF8AE08093C6
:1069D000C60066C3EFE4F2E0949108C08091C00065
:1069E00085FFFCCF9093C600319694919923B1F71F
:1069F000E5E3F3E0949108C08091C00085FFFCCFEF
:106A00009093C600319694919923B1F78091C0007C
:106A100085FFFCCF8AE08093C600409179075091B2
:106A20007A0760917B0770917C07705889ED99E037
:106A300022E030E00E943E42ECE8F2E007C08091A4
:106A4000C00085FFFCCF31969093C60090819923BA
:106A5000B1F78091C00085FFFCCF8AE08093C6002B
:106A60001FC3A0904E07B0904F07C0905007D09022
:106A70005107A982BA82CB82DC82E0905207F09063
:106A800053070091540710915507ED82FE820F8342
:106A90001887209156073091570740915807509119
:106AA000590729873A874B875C8780915A079091CD
:106AB0005B07A0915C07B0915D078D879E87AF87CC
:106AC000B88BA98ABA8ACB8ADC8AED8AFE8A0F8BB8
:106AD000188F298F3A8F4B8F5C8F8D8F9E8FAF8F42
:106AE000B8A385E40E94CA1E882369F0ED84FE8461
:106AF0000F8518890E941C1F9B01AC01C801B701BA
:106B00000E943FD80AC06D857E858F85988920E0D8
:106B100030E040E050E40E943ED86D877E878F874A
:106B2000988B60919B0370919C0380919D03909141
:106B30009E0320E030E040E752E40E941FD97B0131
:106B40008C01CE010196BE016B5F7F4FAE01475FA6
:106B50005F4F9E01235F3F4FADE7CA2EA7E0DA2EBD
:106B60000E94235C8AE50E94CA1E882359F0E984AA
:106B7000FA840B851C850E941C1F9B01AC01C80177
:106B8000B70108C069857A858B859C8520E030E057
:106B900040E251E40E943FD869877A878B879C87BF
:106BA00060919B0370919C0380919D0390919E0343
:106BB00020E030E040E752E40E941FD97B018C01C5
:106BC000CE010196BE016B5F7F4FAE01475F5F4F05
:106BD0009E01235F3F4FFDE7CF2EF7E0DF2E0E949F
:106BE000235C88E50E94CA1E882389F0E980FA8028
:106BF0000B811C810E941C1F9B01AC01C801B701C5
:106C00000E943FD869837A838B839C8308C080E08D
:106C100090E0A0E4B0E489839A83AB83BC8389E5E8
:106C20000E94CA1E882339F00E941C1F6D837E8338
:106C30008F83988708C080E090E0A0E4B0E48D8363
:106C40009E83AF83B88760919B0370919C03809172
:106C50009D0390919E0320E030E040E752E40E94C3
:106C60001FD97B018C01CE010196BE016B5F7F4F66
:106C7000AE01475F5F4F9E01235F3F4FEDE7CE2E92
:106C8000E7E0DE2E0E94235C8CE40E94CA1E88236B
:106C900069F0ED84FE840F8518890E941C1F9B01FA
:106CA000AC01C801B7010E943FD80AC06D857E853E
:106CB0008F85988920E030E048EC52E40E943ED86D
:106CC0006D877E878F87988B60919B0370919C0363
:106CD00080919D0390919E0320E030E040E752E4D4
:106CE0000E941FD97B018C01CE010196BE016B5F12
:106CF0007F4FAE01475F5F4F9E01235F3F4FBDE770
:106D0000CB2EB7E0DB2E0E94235C0E94B869A09ACC
:106D100064E670E080E090E00E94B01485E293E0C9
:106D20000E94E0CE10E018C01F5F0E94E9760E942A
:106D30002A1B0E9403CF112379F4539A5B9A63E0D4
:106D400070E080E090E00E94B0145B9863E070E037
:106D500080E090E00E94B0140E94CA97882321F33B
:106D60008CE40E94CA1E882369F0ED84FE840F859E
:106D700018890E941C1F9B01AC01C801B7010E9429
:106D80003ED80AC06D857E858F85988920E030E0E9
:106D900048EC52E40E943FD86D877E878F87988B9E
:106DA0008D859E85AF85B88980935A0790935B0740
:106DB000A0935C07B0935D078AE597E00E94F656C2
:106DC000A9E04A2E512C4C0E5D1EFDE06F2E712C59
:106DD0006C0E7D1E60919B0370919C0380919D03BE
:106DE00090919E0320E030E040E752E40E941FD9DA
:106DF0007B018C01CE010196BE016B5F7F4FA2012A
:106E00009301EDE7CE2EE7E0DE2E0E94235C91E1B8
:106E1000A92EB12CAC0EBD1E85E1882E912C8C0EB6
:106E20009D1E60919B0370919C0380919D039091A6
:106E30009E0320E030E040E752E40E941FD97B012E
:106E40008C01C501B401A20193010E94235C09E1F8
:106E5000402E512C4C0E5D1E60919B0370919C0343
:106E600080919D0390919E0320E030E040E752E442
:106E70000E941FD97B018C01C501B401A2019301BD
:106E80000E94235C60919B0370919C0380919D0301
:106E900090919E0320E030E040E752E40E941FD929
:106EA0007B018C01C501B401A2019E01235E3F4F0D
:106EB0000E94235CF5C0109288070E94C7978091BA
:106EC0008F0790919007A0919107B09192078093BE
:106ED0008B0790938C07A0938D07B0938E070E9429
:106EE0000D1DDEC084E50E94CA1E882309F48DC0F2
:106EF0000E941C1F0E948CD9262F60938A0766234C
:106F0000B9F1EFE4F2E0949108C08091C00085FFF0
:106F1000FCCF9093C600319694919923B1F7E8EC99
:106F2000F2E007C08091C00085FFFCCF31969093BE
:106F3000C60090819923B1F789ED99E0622F40E076
:106F400050E00E941C41EAECF2E007C08091C000D2
:106F500085FFFCCF31969093C60090819923B1F7BD
:106F60008091C00085FFFCCF8AE08093C60098C066
:106F700086E40E94CA1E8823E1F00E941C1F7B0148
:106F80008C016093B8077093B9078093BA07909308
:106F9000BB0720E030E040E050E00E9426DB1816FE
:106FA00044F4E0929B03F0929C0300939D031093A2
:106FB0009E03EFE4F2E0949108C08091C00085FF49
:106FC000FCCF9093C600319694919923B1F7EBEDE5
:106FD000F2E007C08091C00085FFFCCF319690930E
:106FE000C60090819923B1F760917D0789ED99E002
:106FF00070E04AE050E00E9463418091C00085FF4C
:10700000FCCF8AE08093C6004BC0EFE4F2E094919D
:1070100008C08091C00085FFFCCF9093C6003196D8
:1070200094919923B1F7E2E1F3E0949108C0809143
:10703000C00085FFFCCF9093C600319694919923B0
:10704000B1F72091BC073091BD0780E690E0289F02
:10705000F001299FF00D389FF00D1124E853F84FEF
:1070600007C08091C00085FFFCCF31969093C60089
:1070700090819923B1F7E0E1F3E0949108C0809109
:10708000C00085FFFCCF9093C60031969491992360
:10709000B1F78091C00085FFFCCF8AE08093C600E5
:1070A0000E94F61A24C083EB94E00E94D1CE0E9485
:1070B000A214609380077093810780938207909356
:1070C00083070E94A21460939307709394078093A0
:1070D000950790939607E4CF0E94B86988E50E94CF
:1070E000CA1E882311F00C94012E0C94042EEE96E7
:1070F0000FB6F894DEBF0FBECDBFCF91DF911F91C9
:107100000F91FF90EF90DF90CF90BF90AF909F9046
:107110008F907F906F905F904F903F902F90089549
:107120002F923F924F925F926F927F928F929F9297
:10713000AF92BF92CF92DF92EF92FF920F931F9385
:10714000DF93CF93CDB7DEB76E970FB6F894DEBF5F
:107150000FBECDBF20E6A22EB12CE7ECF5E0849067
:107160009AE0792EEDE3F6E094906624639413C2DE
:107170002D3071F02A3321F480914909882341F0A0
:1071800080914A0990914B098F3591050CF4DFC12C
:10719000E0914A09F0914B09309709F404C3A0919A
:1071A0004C09B0914D09AA9D7001AB9DF00CBA9DA0
:1071B000F00C1124EE0DFF1DE853F84F1082809162
:1071C0004909882309F0BEC110924909A254B84F59
:1071D0001C9287010853184FC8016EE470E00E94AA
:1071E0008A119C01009709F4F7C09093C707809318
:1071F000C6072F5F3F4F201B310B2E0D3F1DC901CE
:107200008853984F60E070E04AE050E00E94F20F2F
:1072100060934E0970934F098093500990935109E0
:10722000C0908B07D0908C07E0908D07F0908E0770
:10723000A70196012F5F3F4F4F4F5F4F62177307B4
:107240008407950709F457C380914C0990914D0923
:107250009C012A9DC0012B9D900D3A9D900D1124FB
:107260008853984F66EE76E00E944F11892B09F003
:1072700042C3E5E5F2E0949108C08091C00085FF2B
:10728000FCCF9093C600319694919923B1F7E3EB2C
:10729000F6E0949108C08091C00085FFFCCF9093E8
:1072A000C600319694919923B1F789ED99E0B70121
:1072B000A6012AE030E00E942E418091C00085FFA7
:1072C000FCCF73C0FE264F5FFC01E40FF11DE853B5
:1072D000F84FE081EA32B1F73093C7072093C60731
:1072E000C901019660E070E00E94920E0E9487D969
:1072F0002F2D30E02617370709F45DC0E5E5F2E0F1
:10730000949108C08091C00085FFFCCF9093C60087
:10731000319694919923B1F7E4E9F6E0949108C08D
:107320008091C00085FFFCCF9093C6003196949168
:107330009923B1F740918B0750918C0760918D078D
:1073400070918E0789ED99E02AE030E00E942E418D
:107350008091C00085FFFCCF28C0E5E5F2E0949164
:1073600008C08091C00085FFFCCF9093C600319685
:1073700094919923B1F7EAE6F6E0949108C08091E0
:10738000C00085FFFCCF9093C6003196949199235D
:10739000B1F789ED99E0B701A6012AE030E00E943B
:1073A0002E418091C00085FFFCCF8AE08093C6000B
:1073B0000E940D1D4AC080914E0990914F09A091E5
:1073C0005009B091510980938B0790938C07A0933B
:1073D0008D07B0938E073EC0C8016AE270E00E943C
:1073E0008A11009709F436C0E5E5F2E0949108C0EF
:1073F0008091C00085FFFCCF9093C6003196949198
:107400009923B1F7E0E4F6E0949108C08091C000C0
:1074100085FFFCCF9093C600319694919923B1F7E4
:1074200040918B0750918C0760918D0770918E076A
:1074300089ED99E02AE030E00E942E418091C00061
:1074400085FFFCCF8AE08093C60010924B09109212
:107450004A0970C280914C0990914D098A9D700132
:107460008B9DF00C9A9DF00C112487010853184F46
:10747000C80167E470E00E948A119C01009709F43A
:107480004BC09093C7078093C6072F5F3F4F201BC9
:10749000310B2E0D3F1DC9018853984F60E070E0FD
:1074A0000E94920E0E9487D964307105A8F58091E0
:1074B00088078823C9F48091BB04882369F5992D36
:1074C000EDE3F6E008C08091C00085FFFCCF90930B
:1074D000C600319694919923B1F78091C00085FF41
:1074E000FCCF7092C60018C0982DE7ECF5E008C0FC
:1074F0008091C00085FFFCCF9093C6003196949197
:107500009923B1F78091C00085FFFCCF7092C6002F
:107510008DEB95E00E94D1CE80914C0990914D0960
:10752000019664E070E00E94FDDC90934D09809329
:107530004C098091520990915309019690935309F7
:107540008093520910924B0910924A0924C02B33A0
:1075500011F460924909809149098823E1F420914E
:107560004A0930914B0980914C0990914D098A9DAF
:10757000F0018B9DF00D9A9DF00D1124E20FF31F89
:10758000E853F84F8091480980832F5F3F4F309335
:107590004B0920934A098091D5099091D6092091F1
:1075A000D7093091D809821B930B8F779070892B64
:1075B00009F4BBC1809152099091530904970CF0D2
:1075C000B4C189ED99E00E944F40282F809348096B
:1075D0008A3009F0CDCDDCCD80914A0990914B09DC
:1075E000892B09F0A7C18091520990915309892BE9
:1075F00009F02FC1109254092CC14D3099F043323B
:1076000011F04A3321F480914909882359F080917F
:107610004A0990914B098F35910524F42F5F3F4F14
:1076200009F0F2C020913E0730913F07409140079A
:10763000509141078091360790913707A091380704
:10764000B0913907281739074A075B0708F49EC02D
:10765000932DEAEAF5E008C08091C00085FFFCCFD9
:107660009093C600319694919923B1F78091C00010
:1076700085FFFCCF2092C6000E94A214609384076D
:1076800070938507809386079093870720918007E2
:10769000309181074091820750918307621B730BE1
:1076A000840B950B28EE33E040E050E00E9410DDA3
:1076B000F22EE32ED42EC52EEDB7FEB738970FB6B7
:1076C000F894FEBF0FBEEDBF0DB71EB70F5F1F4F83
:1076D000B282A182F80153824282622F732F842FDB
:1076E000952F20E13EE040E050E00E9410DDF801DF
:1076F000358324836F2D7E2D8D2D9C2D2CE330E042
:1077000040E050E00E9410DDCA01B9012CE330E0F6
:1077100040E050E00E9410DDF801778366830E940C
:10772000B911982DEFE4F2E02DB73EB7285F3F4F37
:107730000FB6F8943EBF0FBE2DBF08C08091C000A9
:1077400085FFFCCF9093C600319694919923B1F7B1
:10775000F50107C08091C00085FFFCCF3196909362
:10776000C60090819923B1F78091C00085FFFCCFBE
:107770002092C600C5010E94F4CE8BEB94E00E94DB
:1077800005858BEB94E061E00E9449868091480971
:10779000833211F49092540920914A0930914B0997
:1077A0002115310519F410924909C4C080914C0982
:1077B00090914D09869DF001879DF00D969DF00DED
:1077C0001124E20FF31FE853F84F1082FC01E2543A
:1077D000F84F908220915209309153092F5F3F4F0B
:1077E0003093530920935209019664E070E00E949F
:1077F000FDDC90934D0980934C0910924909109239
:107800004B0910924A093AC04B3311F4909249093E
:1078100080914909882391F520914A0930914B09BB
:1078200080914C0990914D09869DF001879DF00D46
:10783000969DF00D1124E20FF31FE853F84F80914D
:10784000480980832F5F3F4F30934B0920934A09AB
:1078500015C080E6682E712C99249394EAEAF5E02D
:1078600034900AE0202E5E010894A11CB11C16E998
:10787000412E15E0512EEFE4F2E0849020913E0776
:1078800030913F0740914007509141078091360762
:1078900090913707A0913807B09139072817390719
:1078A0004A075B0708F046C080915209909153093E
:1078B00004970CF03FC0809154098823D9F580913A
:1078C000910690919206A0919306B09194068093B0
:1078D0003E0790933F07A0934007B093410789E884
:1078E00096E00E9408499C01482F809348098A30FD
:1078F00009F083CE97CE80914C0990914D098A9DD5
:1079000080018B9D100D9A9D100D1124C801885384
:10791000984F6AE270E00E948A119C01009709F476
:107920001CCDFF2440E0C801CFCC8091BD0488234A
:1079300009F052CE6E960FB6F894DEBF0FBECDBFE3
:10794000CF91DF911F910F91FF90EF90DF90CF903B
:10795000BF90AF909F908F907F906F905F904F906F
:107960003F902F900895CF93DF938091520990918B
:107970005309039714F40E9490388BEB94E060E075
:107980000E9449868091520990915309892B09F4EC
:107990006AC08091BB04882309F44DC02091BC07C4
:1079A0003091BD0780E690E0289FE001299FD00D2F
:1079B000389FD00D1124C853D84FCE0160E077E036
:1079C0000E944F11892BE1F48BEB94E0BE010E94E1
:1079D000F27E8091BC04882371F5EDEFF6E094917E
:1079E00008C08091C00085FFFCCF9093C6003196FF
:1079F00094919923B1F78091C00085FFFCCF17C007
:107A00008BEB94E060E00E94D97EEBEEF6E094917F
:107A100008C08091C00085FFFCCF9093C6003196CE
:107A200094919923B1F78091C00085FFFCCF8AE043
:107A30008093C60002C00E947520809152099091E7
:107A40005309019790935309809352098091BC0781
:107A50009091BD07019664E070E00E94FDDC909378
:107A6000BD078093BC070E94E9760E942A1B0E94F2
:107A7000E7700E9403CFDF91CF910895DF93CF93FA
:107A80000F920F92CDB7DEB7809A889A89ED99E070
:107A900040E052EC61E070E00E941740E6EDF7E054
:107AA000949108C08091C00085FFFCCF9093C600E0
:107AB000319694919923B1F78091C00085FFFCCF56
:107AC0008AE08093C6004FE452E0FA01949108C026
:107AD0008091C00085FFFCCF9093C60031969491B1
:107AE0009923B1F784B7282F80FF15C0EEECF7E09B
:107AF000949108C08091C00085FFFCCF9093C60090
:107B0000319694919923B1F78091C00085FFFCCF05
:107B10008AE08093C60021FF15C0EEEBF7E0949158
:107B200008C08091C00085FFFCCF9093C6003196BD
:107B300094919923B1F78091C00085FFFCCF8AE032
:107B40008093C60022FF15C0EDEAF7E0949108C0CB
:107B50008091C00085FFFCCF9093C6003196949130
:107B60009923B1F78091C00085FFFCCF8AE0809314
:107B7000C60023FF15C0EDE9F7E0949108C080919D
:107B8000C00085FFFCCF9093C60031969491992355
:107B9000B1F78091C00085FFFCCF8AE08093C600DA
:107BA00025FF15C0EDE8F7E0949108C08091C00072
:107BB00085FFFCCF9093C600319694919923B1F73D
:107BC0008091C00085FFFCCF8AE08093C60014BE80
:107BD000E6E8F7E0949108C08091C00085FFFCCFF3
:107BE0009093C600319694919923B1F7E0E8F7E0BD
:107BF000949108C08091C00085FFFCCF9093C6008F
:107C0000319694919923B1F78091C00085FFFCCF04
:107C10008AE08093C600FA019491EFE4F2E008C094
:107C20008091C00085FFFCCF9093C600319694915F
:107C30009923B1F7E0E7F7E0949108C08091C00084
:107C400085FFFCCF9093C600319694919923B1F7AC
:107C5000EBE5F7E0949108C08091C00085FFFCCF70
:107C60009093C600319694919923B1F7EFE4F7E031
:107C7000949108C08091C00085FFFCCF9093C6000E
:107C8000319694919923B1F7E1E4F7E0949108C01B
:107C90008091C00085FFFCCF9093C60031969491EF
:107CA0009923B1F78091C00085FFFCCF8AE08093D3
:107CB000C600E6E3F7E0949108C08091C00085FF1C
:107CC000FCCF9093C600319694919923B1F7EAE2E4
:107CD000F7E0949108C08091C00085FFFCCF90939D
:107CE000C600319694919923B1F78091C00085FF29
:107CF000FCCF8AE08093C600FA019491EFE4F2E0B1
:107D000008C08091C00085FFFCCF9093C6003196DB
:107D100094919923B1F7EBE1F7E0949108C0809139
:107D2000C00085FFFCCF9093C600319694919923B3
:107D3000B1F72091651230916612CE01019621159E
:107D4000310519F48B56924102C0821B930B9A8322
:107D5000898369817A8189ED99E04AE050E00E9447
:107D60006341E4E0F7E0949108C08091C00085FF92
:107D7000FCCF9093C600319694919923B1F789ED89
:107D800099E060ED74E04AE050E00E946341809128
:107D9000C00085FFFCCF8AE08093C6001092BE072A
:107DA0001092BF071092C0071092C1070E9438922C
:107DB0000E9415760E9460590E9415940E94B66830
:107DC0000E94D9CF80E197E220E931E0F9013197B3
:107DD000F1F70197D9F70F900F90CF91DF910895A8
:107DE000BC01809152099091530904970CF070C026
:107DF00020914C0930914D0980E690E0AC01249F20
:107E0000C001259F900D349F900D11248853984FE9
:107E10000E942111EFE4F2E0949108C08091C0002B
:107E200085FFFCCF9093C600319694919923B1F7CA
:107E3000EEEDF7E0949108C08091C00085FFFCCF83
:107E40009093C600319694919923B1F720914C09F3
:107E500030914D0980E690E0289FF001299FF00DB8
:107E6000389FF00D1124E853F84F07C08091C000EF
:107E700085FFFCCF31969093C60090819923B1F78E
:107E8000ECEDF7E0949108C08091C00085FFFCCF35
:107E90009093C600319694919923B1F78091C000D8
:107EA00085FFFCCF8AE08093C600C901019664E09B
:107EB00070E00E94FDDC90934D0980934C09809105
:107EC0005209909153090196909353098093520956
:107ED0000895BC01809152099091530904970CF0C8
:107EE00070C020914C0930914D0980E690E0AC01C2
:107EF000249FC001259F900D349F900D112488531D
:107F0000984F0E949511EFE4F2E0949108C080919F
:107F1000C00085FFFCCF9093C600319694919923C1
:107F2000B1F7EBEEF7E0949108C08091C00085FFB7
:107F3000FCCF9093C600319694919923B1F720918C
:107F40004C0930914D0980E690E0289FF001299F6F
:107F5000F00D389FF00D1124E853F84F07C08091C1
:107F6000C00085FFFCCF31969093C6009081992385
:107F7000B1F7E9EEF7E0949108C08091C00085FF69
:107F8000FCCF9093C600319694919923B1F78091DC
:107F9000C00085FFFCCF8AE08093C600C90101962E
:107FA00064E070E00E94FDDC90934D0980934C09E1
:107FB00080915209909153090196909353098093AF
:107FC000520908951F920F920FB60F920BB60F929F
:107FD00011242F933F934F938F939F93EF93FF938E
:107FE0004091C600E091D509F091D60931969F01E4
:107FF0002F77307031978091D7099091D809281741
:10800000390739F0EB5AF64F40833093D609209365
:10801000D509FF91EF919F918F914F913F912F91B2
:108020000F900BBE0F900FBE0F901F9018959A01E6
:10803000AB01203081EE380780E0480780E0580728
:1080400049F182E08093C00060E079E08DE390E048
:108050000E9432DD2150304040405040CA01B901F9
:1080600022E030E040E050E00E9432DD3093C50075
:108070002093C4008091C10080618093C1008091F1
:10808000C10088608093C1008091C10080688093A6
:10809000C10008951092C00020E130E0E7CF2091A8
:1080A000D7093091D8098091D5099091D6098217C6
:1080B000930719F42FEF3FEF0EC0F901EB5AF64F7B
:1080C00080812F5F3F4F2F7730703093D8092093F6
:1080D000D709282F30E0C90108958091D7099091E0
:1080E000D8099093D6098093D509089508952F92C1
:1080F0003F924F925F926F927F928F929F92AF9238
:10810000BF92CF92DF92EF92FF920F931F93DF9374
:10811000CF93CDB7DEB7A0970FB6F894DEBF0FBEF2
:10812000CDBF1C016A017B01411551056105710537
:1081300049F440E350E060E070E020E030E00E946D
:108140002E4154C0882499245401422E552466247B
:10815000772401E010E00C0F1D1F080D191DC70149
:10816000B601A30192010E9410DDF801608308941A
:10817000811C911CA11CB11CC701B601A301920175
:108180000E9410DDC901DA016C017D01C114D10426
:10819000E104F104F1F681E0E82EF12CEC0EFD1E75
:1081A000E80CF91C3E010894611C711CD501C40146
:1081B0000197A109B1096C01C818D90814C0F601CA
:1081C000EE0DFF1D40814A3010F4405D01C0495C56
:1081D00050E060E070E0C10120E030E00E942E41FC
:1081E0000894E108F1086E147F0449F7A0960FB6D1
:1081F000F894DEBF0FBECDBFCF91DF911F910F91DD
:10820000FF90EF90DF90CF90BF90AF909F908F90B6
:108210007F906F905F904F903F902F900895211521
:10822000310539F48091C00085FFFCCF4093C60032
:1082300008950E9477400895EF92FF920F931F9345
:108240009A01E62EFF2400E010E0B801A7010E9489
:108250000F411F910F91FF90EF900895EF92FF92C1
:108260000F931F93CF93DF93EC017A018B012115BC
:10827000310539F48091C00085FFFCCFE092C60043
:108280001BC02A303105B1F477FF10C04DE250E039
:1082900060E070E020E030E00E942E4110950095F3
:1082A000F094E094E11CF11C011D111DCE01B801F8
:1082B000A7012AE00E947740DF91CF911F910F9193
:1082C000FF90EF900895EF92FF920F931F937B0121
:1082D0009A010027F7FC0095102FB801A7010E9412
:1082E0002E411F910F91FF90EF9008950F931F93D0
:1082F0008C014DE050E060E070E020E030E00E9452
:108300002E41C8014AE050E060E070E020E030E03B
:108310000E942E411F910F910895CF92DF92EF920C
:10832000FF920F931F938C019A016B01EE24FF249F
:10833000B701A6010E940F41C8010E9476411F911A
:108340000F91FF90EF90DF90CF9008959F92AF92A2
:10835000BF92CF92DF92EF92FF920F931F93CF9332
:10836000DF93EC017A018B01922ECB01BA0120E060
:1083700030E040E050E00E9418D988236CF4CE0130
:108380004DE250E060E070E020E030E00E942E41DD
:1083900017FB109517F9109520E030E040E05FE3FF
:1083A000AA240BC0CA01B90120E030E040E251E448
:1083B0000E941FD99B01AC01A394A91498F3C80192
:1083C000B7010E943FD87B018C010E948CD95B01D0
:1083D0006C010E94B8D99B01AC01C801B7010E9491
:1083E0003ED87B018C01CE01B601A5012AE030E028
:1083F0000E940F419920A1F1EDEEF2E007C08091BB
:10840000C00085FFFCCF31969093C60090819923E0
:10841000B1F726C0C801B70120E030E040E251E4E6
:108420000E94F8DB7B018C010E9487D95B016C0103
:10843000CC24B7FCC094DC2CCE01B601A5012AE007
:1084400030E00E942E41C601B5010E94BAD99B01BD
:10845000AC01C801B7010E943ED87B018C019A94FF
:108460009920C1F6DF91CF911F910F91FF90EF906E
:10847000DF90CF90BF90AF909F9008950E94A6414B
:108480000895FF920F931F93CF93DF938B010E9468
:10849000A214EB01FF24FA9409C00E94A2146C1BE1
:1084A0007D0B6017710710F080E008C0FEBC0DB4B2
:1084B00007FEFDCF8EB58F3F81F781E0DF91CF9131
:1084C0001F910F91FF900895FC014281242F30E00D
:1084D000C9019595879580658CBD40FF02C080E0FD
:1084E00004C080E0463009F081E08DBD808160E00D
:1084F0000E9408170895DF92EF92FF920F931F9347
:10850000CF93DF93EC01D62E79018A010E94644259
:10851000CE016CE271E00E9441428D2D80648EBDDF
:108520000DB407FEFDCF28E130E0D801C701022ECF
:1085300004C0B695A795979587950A94D2F78EBDF6
:108540000DB407FEFDCF285030408FEF283F38078D
:1085500061F7DD2011F485E906C088E0D81611F432
:1085600087E801C08FEF8EBD0DB407FEFDCF8CE014
:10857000D81631F48FEF8EBD0DB407FEFDCF8EB54A
:108580009FEF2FEF2EBD0DB407FEFDCF8EB587FFF9
:1085900004C0992311F09150F5CF8B83DF91CF91D7
:1085A0001F910F91FF90EF90DF900895FC01808163
:1085B00061E00E9408170895DC016EBDFA0120E019
:1085C00030E00DB407FEFDCF80818EBD0DB407FEF7
:1085D000FDCF81818EBD2E5F3F4F329682E02030ED
:1085E000380779F70DB407FEFDCF8FEF8EBD0DB4C0
:1085F00007FEFDCF8FEF8EBD0DB407FEFDCF8FEFD1
:108600008EBD0DB407FEFDCF8EB513968C931397D8
:108610008F71853011F481E0089583E111968C9378
:108620001197CD010E94D64280E00895CF92DF924B
:10863000EF92FF920F931F93CF93DF93EC017A0198
:108640008B0169018C81833039F059E0EE0CFF1CFD
:10865000001F111F5A95D1F7CE0168E1A8019701BB
:108660000E947B42882311F086E023C0CE016EEF8A
:10867000A6010E94DC428823E9F0CE0168E572E0A1
:108680000E944142882311F487E113C0CE016DE0BE
:1086900020E030E040E050E00E947B42882341F43B
:1086A0008FEF8EBD0DB407FEFDCF8EB5882379F018
:1086B00086E18983CE010E94D64280E0DF91CF918E
:1086C0001F910F91FF90EF90DF90CF900895CE0112
:1086D0000E94D64281E0F2CFBF92CF92DF92EF921A
:1086E000FF920F931F93CF93DF93EC016B017A01FD
:1086F0000E94A2148B01BB24BA9409C00E94A21448
:10870000601B710B6D52714010F081E10BC0BEBC5B
:108710000DB407FEFDCF8EB58B838F3F79F38E3F6F
:1087200039F08FE08983CE010E94D64280E02FC0CD
:10873000D7011197EF28D9F08FEF8EBD20E030E000
:108740009FEF0BC00DB407FEFDCF8EB5F601E20F13
:10875000F31F80839EBD2F5F3F4F2A173B0790F387
:108760000DB407FEFDCF8EB5AC0DBD1D8C938FEF04
:108770008EBD0DB407FEFDCF8EB58FEF8EBD0DB44F
:1087800007FEFDCF8EB5CE010E94D64281E0DF917B
:10879000CF911F910F91FF90EF90DF90CF90BF90FE
:1087A0000895CF92DF92EF92FF920F931F93CF9392
:1087B000DF93EC017A018B0169018C81833039F000
:1087C000A9E0EE0CFF1C001F111FAA95D1F7CE01E6
:1087D00061E1A80197010E947B42882339F084E07F
:1087E0008983CE010E94D64280E006C0CE01B60148
:1087F00040E052E00E946C43DF91CF911F910F91B6
:10880000FF90EF90DF90CF900895BF92CF92DF92CC
:10881000EF92FF920F931F93CF93DF93EC01B62E4D
:108820001C82198248830E94A2146B01888161E036
:108830000E945516CE010E94D64282E360E00E945B
:10884000551683E361E00E94551684E361E00E94BF
:10885000551685E361E00E94551685E361E00E94AC
:10886000081785E08A8382E58CBD1DBC80E09FEF00
:108870009EBD0DB407FEFDCF8F5F8A30C9F709C0DA
:108880000E94A2146C197D09615D774010F081E0AF
:108890005EC0CE0160E020E030E040E050E00E94A9
:1088A0007B42182F8B83813059F7CE0168E02AEA8A
:1088B00031E040E050E00E947B4282FF02C01C8316
:1088C00011C080E02FEF2EBD0DB407FEFDCF9EB589
:1088D0008F5F8430C1F79B839A3A11F082E037C0F2
:1088E00082E08C838C81823021F0EE24FF2487018A
:1088F0000FC0E12CF12C012D00E4102F09C00E94C3
:10890000A2146C197D09615D774010F08AE01FC0E8
:10891000CE0167E320E030E040E050E00E947B427F
:10892000CE0169E2A80197010E947B428B838823D4
:1089300031F78C81823029F5CE016AE320E030E006
:1089400040E050E00E947B42882331F088E0898338
:10895000CE010E94D64221C08FEF8EBD0DB407FE1E
:10896000FDCF8EB5807C803C11F483E08C8380E069
:108970009FEF9EBD0DB407FEFDCF2EB58F5F8330F8
:10898000C1F7CE010E94D64286E08B1518F488E12B
:10899000898303C0BA8281E001C080E0DF91CF917A
:1089A0001F910F91FF90EF90DF90CF90BF900895AF
:1089B000CF93DF93EB01DC0190E020E03EE28C916D
:1089C000803269F0283029F4FE01E90FF11D30836F
:1089D0009F5FFE01E90FF11D8C9180839F5F2F5FE8
:1089E00011962B3061F7C90FD11D1882DF91CF91FD
:1089F0000895CF93DF93DC01EB01BA0180E090E0B2
:108A000020E2FE01E80FF91F208301968B309105CB
:108A1000C1F757E040E022C02E3219F086EF97E010
:108A200007C05A3049F15AE048E017C0321721F127
:108A3000FC01019634913323C9F75417E8F0213231
:108A4000D8F02F37C8F4822F81568A3108F420528B
:108A5000FE01E40FF11D20834F5F11962C9122231C
:108A600011F02F32C9F6FB01B183A08390E0888119
:108A7000803219F091E001C090E0892FDF91CF9111
:108A800008956F927F928F929F92AF92BF92CF92F2
:108A9000DF92EF92FF920F931F93CF93DF93EC013E
:108AA0007A018B012B81222309F480C089899A895C
:108AB000AB89BC8984179507A607B70708F476C069
:108AC00085C0E114F1040105110551F41C821D82D9
:108AD0001E821F82188619861A861B8681E067C04F
:108AE000288539854A855B85E98DFA8D858590E0F5
:108AF0000996215030404040504039014A01082E2B
:108B000004C096948794779467940A94D2F72F5F61
:108B10003F4F4F4F5F4F0894E108F10801091109D9
:108B20005701680104C0D694C794B794A7948A9556
:108B3000D2F70894E11CF11C011D111DA614B70405
:108B4000C804D90428F0211531054105510549F41F
:108B50008D899E89AF89B88D8C839D83AE83BF83B9
:108B600016C0A618B708C808D90811C04C815D8185
:108B70006E817F81898D9A8D94010E94ED500894B9
:108B8000A108B108C108D108882331F40FC084E0DE
:108B9000882E912C8C0E9D1EA114B104C104D10409
:108BA00029F7E886F9860A871B8798CF80E0DF914E
:108BB000CF911F910F91FF90EF90DF90CF90BF90DA
:108BC000AF909F908F907F906F900895223009F022
:108BD00078CFE7CFCF93DF93EC018C859D85AE8571
:108BE000BF8540E0611141E0BC01CD010E94C34E50
:108BF000882319F420E030E00AC08889282F30E06B
:108C000095E0220F331F9A95E1F72052364FC901A4
:108C1000DF91CF9108950F931F93CF93DF938C0132
:108C2000FC0183818823F1F1818187FF38C0C8016D
:108C300061E00E94EA45EC010097A1F18881853E40
:108C400089F1F8018381823040F481899289A38976
:108C5000B4898C8F9D8FAE8FBF8FF80185899689DF
:108C60009B8F8A8F85899689A789B08DCD01AA2788
:108C7000BB279D8B8C8BE091DA09F091DB09309753
:108C800051F0BE016A5E7F4FCE0148961995888DDE
:108C9000998D9B8B8A8BF80181818F7781830E94CC
:108CA000884E04C081E0F801808380E0DF91CF919D
:108CB0001F910F9108950F931F938C010E940B46F3
:108CC000F80113821F910F910895FC01838188237D
:108CD00019F0CF010E945B460895CF93DF93FC010A
:108CE000EB018381882391F08250823020F48FE25F
:108CF0008883198209C0CF0160E00E94EA4500978D
:108D000029F0BE010E94D84481E001C080E0DF91DB
:108D1000CF9108956F927F928F929F92AF92BF9260
:108D2000CF92DF92EF92FF920F931F93DF93CF9337
:108D300000D00F92CDB7DEB77C015A016B01DC0188
:108D400013968C911397813009F091C011968C91F4
:108D500081FF8DC0A0C00097A105B10511F481E08D
:108D600087C0F7016084718482849384C701B6014F
:108D7000A5010E944145882309F479C0D70159967D
:108D80008D919C915A97A114B104C104D10489F426
:108D900055964D915D916D917C9158970E946351CC
:108DA000882309F464C0F701158A168A178A108E81
:108DB00044C0D70114964D915D916D917C911797A8
:108DC0009E012F5F3F4F0E94ED50882309F44FC052
:108DD000D7015996ED91FC915A9749815A816B813F
:108DE0007C818789803149F4483FBFEF5B07B0E061
:108DF0006B07B0E07B0748F020C0483F8FEF580773
:108E00008FEF68078FE07807C0F4CF010E946351AD
:108E1000882369F1D70114964D915D916D917C91F4
:108E2000179759968D919C915A970FEF1FEF2FEF3F
:108E30003FE00E9466508823D1F0F701A18AB28AF0
:108E4000C38AD48A818180688183C7010E940B46CE
:108E5000882369F0B601A5016A147B048C049D0483
:108E600010F4B401A301C7010E94414501C080E094
:108E70000F900F900F900F90CF91DF911F910F9156
:108E8000FF90EF90DF90CF90BF90AF909F908F902A
:108E90007F906F900895F70181899289A389B489A1
:108EA00084179507A607B70708F055CFE0CFCF93F3
:108EB000DF93EC0140E050E060E070E00E948A4601
:108EC000882369F0CE0161E00E94EA45FC01009729
:108ED00031F085EE80831B820E94884E01C080E0C5
:108EE000DF91CF9108952F923F924F925F926F92B0
:108EF0007F928F929F92AF92BF92CF92DF92EF922A
:108F0000FF920F931F93CF93DF93EC012A018B8184
:108F1000882309F4B6C0898180FFB3C0C8C0250189
:108F20004E185F083B0174E0272E312C2C0E3D1E9D
:108F30004201A1C0288539854A855B856FEFA62E41
:108F400061E0B62EA222B3228B8179018A0199E0D9
:108F500016950795F794E7949A95D1F7E98DFA8DD0
:108F6000823049F4428D538D648D758D4E0D5F1D99
:108F7000601F711F3FC0D480DA94DE20A114B104B9
:108F8000D9F4DD20C9F4211531054105510549F415
:108F90008D899E89AF89B88D8C839D83AE83BF8375
:108FA0000BC04C815D816E817F81CF0191010E9458
:108FB000ED50882309F465C0E98DFA8D4C815D81FF
:108FC0006E817F814250504060407040058404C0F3
:108FD000440F551F661F771F0A94D2F78685978521
:108FE000A089B189480F591F6A1F7B1F4D0D511D64
:108FF000611D711D80E092E08A199B09840188152A
:10900000990508F48C0182E00030180709F067C068
:109010008091DC099091DD09A091DE09B091DF0912
:10902000481759076A077B0709F459C08091E00B7C
:109030009091E10B93010E94D143882349F421C010
:1090400095012052364FC301B901A8010E94761143
:10905000600E711E980140E050E088859985AA85D0
:10906000BB85820F931FA41FB51F88879987AA8786
:10907000BB87801A910A8114910409F05BCFA20189
:1090800002C04FEF5FEFCA01DF91CF911F910F91A7
:10909000FF90EF90DF90CF90BF90AF909F908F9018
:1090A0007F906F905F904F903F902F900895A98888
:1090B000BA88CB88DC88E884F9840A851B859A0104
:1090C00040E050E0D601C5018E199F09A00BB10BFD
:1090D000281739074A075B0708F021CF23CFCB01B8
:1090E000BA0140E00E94C34E882309F0A9CFC9CF3E
:1090F000CF92DF92EF92FF920F931F93CF93DF9364
:109100007C01EB018A01FC018381823008F46FC08D
:1091100080859185A285B3858F719070A070B070A5
:109120000097A105B10509F062C06DC0F801108279
:10913000EDE0CE2ED12CC701BE0140E250E00E94EE
:1091400073479C018032910521F0009709F04FC0D0
:1091500050C04881442309F44CC0453E61F34E326F
:1091600051F38B858F738F30E9F501151105D1F11E
:109170008A8D9B8D892BB1F5842F90E08F71907033
:10918000009781F1833091056CF58C9D90018D9D48
:10919000300D9C9D300D11242D503040F801E20F10
:1091A000F31F898180838B8181838D8182838F816D
:1091B0008383898584838E858583888986838A894C
:1091C00087838C8980878E898187888D82878C8D23
:1091D00083878E8D8487888186FF04C0F801E20F23
:1091E000F31F15868B8583FDA6CF822F03C08FEFDB
:1091F00001C080E0DF91CF911F910F91FF90EF9020
:10920000DF90CF9008954115510509F08FCF90CF91
:10921000DF93CF930F92CDB7DEB7BE016F5F7F4F65
:1092200041E050E00E947347019719F02FEF3FEFA4
:1092300003C08981282F30E0C9010F90CF91DF91C1
:109240000895EF92FF920F931F93CF93DF93EC015A
:109250008B81823038F1E884F9840A851B85CE0140
:109260000E94084997FD1EC088859985AA85BB85FF
:109270004F96A11DB11D88879987AA87BB87A5E056
:1092800016950795F794E794AA95D1F72E2D30E01F
:109290002F703070F5E0220F331FFA95E1F720525E
:1092A000364F02C020E030E0C901DF91CF911F911D
:1092B0000F91FF90EF9008950F931F93CF93DF933B
:1092C000EC018B018B81882309F040C0FB01878969
:1092D000803109F041C082E08B831D8A1E8A1F8A7B
:1092E000188E808D918DA0E0B0E045E0880F991F29
:1092F000AA1FBB1F4A95D1F7898B9A8BAB8BBC8B6E
:1093000013C083E08B83F801428D538D648D758D7E
:109310004D8B5E8B6F8B788F9E012F5E3F4FC80108
:109320000E94C151882391F01A8F098F81E08983AF
:109330001C821D821E821F82188619861A861B8631
:109340001C861D861E861F86188A01C080E0DF915C
:10935000CF911F910F9108958032C1F7D2CF1F9303
:10936000CF93DF93EC01142F262F30E0F90175E045
:10937000EE0FFF1F7A95E1F7E052F64F838581717A
:1093800021F0842F827109F069C08091DC099091ED
:10939000DD09A091DE09B091DF098C879D87AE873A
:1093A000BF87688BF90165E0EE0FFF1F6A95E1F753
:1093B000E052F64F84899589A0E0B0E0DC0199275E
:1093C00088278D8B9E8BAF8BB88F228D338DA90113
:1093D00060E070E0482B592B6A2B7B2B4D8B5E8B0A
:1093E0006F8B788F838590E088719070009751F42F
:1093F000848D958DA68DB78D898B9A8BAB8BBC8B0D
:1094000081E00CC0409751F59E012F5E3F4F898D42
:109410009A8D0E94C151882309F184E08B83812FAA
:109420008F7089831C821D821E821F821886198676
:109430001A861B8614FF18C0CE0140E050E060E0A1
:1094400070E00E948A46882379F40AC049895A89C3
:109450006B897C89CE010E94414502C01B8280E05D
:10946000DF91CF911F91089515FDF0CF81E0F8CFE6
:10947000CF93DF93EC019C012C5F3F4F898D9A8D38
:1094800041E050E060E070E00E942D528823A1F09E
:109490008D899E89AF89B88D0097A105B10559F4D2
:1094A0008C819D81AE81BF818D8B9E8BAF8BB88F60
:1094B00089818068898381E0DF91CF9108952F921F
:1094C0003F924F925F927F928F929F92AF92BF9204
:1094D000CF92DF92EF92FF920F931F93DF93CF9380
:1094E00000D000D0CDB7DEB76C01162F072F5E83FA
:1094F0004D83DC0113968C911397813009F06FC175
:1095000011968C9181FF6BC188C1F6014189528906
:109510006389748980859185A285B38584179507B1
:10952000A607B70731F0C6010E944145882309F418
:1095300056C1812F902F9C0119014D805E8013C16F
:10954000D6015996ED91FC915A97DA01C90149E08B
:10955000B695A795979587954A95D1F774807A9493
:1095600078228FEF882E81E0982E82229322772016
:1095700009F053C08114910409F04FC0D60114962C
:109580004D915D916D917C91179741155105610544
:10959000710581F455968D919D910D90BC91A02DF2
:1095A0000097A105B10561F1F60184839583A68337
:1095B000B78333C0CF019E012F5F3F4F0E94ED5014
:1095C000882309F40CC129813A814B815C81D60141
:1095D0005996ED91FC915A978789803149F4283F3B
:1095E000BFEF3B07B0E04B07B0E05B0778F008C087
:1095F000283FEFEF3E07EFEF4E07EFE05E0730F05A
:10960000C6010E94384A882341F4E9C0D601149665
:109610002D933D934D935C93179780E092E08819CA
:10962000990952018415950508F45C01D6015996F3
:10963000ED91FC915A971496ED90FD900D911C912F
:1096400017978EEF9FEFAFEFBFEFE80EF91E0A1FDF
:109650001B1F058404C0EE0CFF1C001F111F0A9481
:10966000D2F786859785A089B189E80EF91E0A1F71
:109670001B1FE70CF11C011D111D90E0A91692E0C3
:10968000B90639F58091DC099091DD09A091DE09D8
:10969000B091DF098E159F05A007B10771F41092F4
:1096A000E20B8FEF9FEFAFEFBFEF8093DC0990935A
:1096B000DD09A093DE09B093DF098091E00B909162
:1096C000E10BB801A70191010E9416438823B9F567
:1096D00086C08114910419F5D60118962D913D91FB
:1096E0004D915C911B9751968D919D910D90BC91E0
:1096F000A02D281739074A075B0788F00E94884E7B
:10970000882309F46CC081E08093E20BE092DC09CD
:10971000F092DD090093DE091093DF0908C0C8014B
:10972000B70141E00E94C34E882309F458C0940158
:109730002052364FC901B101A5010E947611950151
:1097400040E050E0F60180859185A285B385820FC7
:10975000931FA41FB51F80879187A287B3872A0C08
:109760003B1C4A185B08D60118962D913D914D91EE
:109770005C911B974114510409F0E2CE51968D91F2
:109780009D910D90BC91A02D82179307A407B5075A
:1097900048F4F601218B328B438B548B8181806896
:1097A000818311C08091DA099091DB09892B59F0EE
:1097B0008D819E81892B39F0D60111968C9111975C
:1097C000806811968C93F601818183FF05C0C601E4
:1097D0000E940B46882319F04D815E8105C081E00F
:1097E000D6018C934FEF5FEFCA0126960FB6F8941F
:1097F000DEBF0FBECDBFCF91DF911F910F91FF90C4
:10980000EF90DF90CF90BF90AF909F908F907F9020
:109810005F904F903F902F90089582FD76CE89CE35
:10982000DF92EF92FF920F931F93CF93DF93EC01A0
:1098300089899A89AB89BC89805E9F4FAF41B040CE
:1098400008F071C0CE010E94384A882309F46BC029
:109850000E94884E882309F466C0E98DFA8DEC8059
:10986000FD800E811F818EEF9FEFAFEFBFEFE80EFF
:10987000F91E0A1F1B1F058404C0EE0CFF1C001FED
:10988000111F0A94D2F786859785A089B189E80EC1
:10989000F91E0A1F1B1F81E08093E20BE092DC0996
:1098A000F092DD090093DE091093DF0980E092E079
:1098B000E0EEF9E0DF019C011D9221503040E1F71C
:1098C000DD24D39411C0B801A7014D0D511D611DB8
:1098D000711D8091E00B9091E10B20EE39E00E9428
:1098E0001643882301F1D394E98DFA8D8481D8162B
:1098F00050F320E032E040E050E0058404C0220F45
:10990000331F441F551F0A94D2F789899A89AB895E
:10991000BC89820F931FA41FB51F898B9A8BAB8BB9
:10992000BC8B81E001C080E0DF91CF911F910F914E
:10993000FF90EF90DF9008958F929F92AF92BF9229
:10994000CF92DF92EF92FF920F931F93CF93DF930B
:109950006C01EB01942E852EA22E898D9A8DD60155
:109960005A969C938E935997CB0140E050E060E06B
:1099700070E00E944145BB2438C0CE010E942149BD
:10998000FC01009709F493C055E016950795F794EC
:10999000E7945A95D1F71E2D1F708081882311F00E
:1099A000853EC9F4BB2099F42091DC093091DD0992
:1099B0004091DE095091DF09D6011C962D933D930D
:1099C0004D935C931F9750961C93BB24B394808156
:1099D000882359F418C0892D982DBF014BE050E021
:1099E0000E946911009709F470C0E884F9840A851F
:1099F0001B8589899A89AB89BC89E816F9060A070B
:109A00001B0708F4BACFA6FE52C0A1FE50C0BB206F
:109A100051F0F6011089C60161E00E94EA45EC01AF
:109A2000009769F444C08B81823009F440C0CE01B4
:109A30000E94104C8823D9F110E0C0EED9E080E2FA
:109A4000DE011D928A95E9F7DE01292D382DC90125
:109A5000FC018BE001900D928150E1F7E091DA0971
:109A6000F091DB09309739F0BE01625F7F4FCE0184
:109A70004096199508C081E298E2998B888B80E026
:109A800098E09F878E87888999899B8B8A8B998F8D
:109A9000888F8E859F859F8B8E8B0E94884E882312
:109AA00031F0C601612F4A2D0E94AF4901C080E00C
:109AB000DF91CF911F910F91FF90EF90DF90CF90AA
:109AC000BF90AF909F908F900895A7FEEACFEFCF01
:109AD0002F923F924F925F926F927F928F929F92BE
:109AE000AF92BF92CF92DF92EF92FF920F931F93AC
:109AF000DF93CF93CDB7DEB7C654D0400FB6F894FE
:109B0000DEBF0FBECDBF3C016B01DE01AE5BBF4FC0
:109B100011965C934E9325962FAF25971C861F8632
:109B20001FA21AA66115710509F480C0FC0183818A
:109B3000882309F07BC0FA0180818F32F1F0860121
:109B4000ECE0EE2EF12CEC0EFD1E72E4A72EB12CF3
:109B5000AC0EBD1E4E010894811C911C2796FFAED1
:109B6000EEAE279767E2262E312C2C0E3D1E2701E4
:109B700024C01196B183A08301C0FD01A081B181F1
:109B80008C918F32B1F3D60113968C91139782503A
:109B90008230A8F28E01095D1F4F59966D917C911C
:109BA0005A97C8010E945C49882351F63FC0342D62
:109BB000252D8701832F922F7C01F50180819181D2
:109BC000B401A5010E94F944882329F42FC03196DD
:109BD000D501ED93FC93D501ED91FC9180818F32FD
:109BE000B1F38823C9F0C701B801A40121E00E94A4
:109BF0009C4C8823D9F00C151D0519F0C8010E9452
:109C00005B462796EEADFFAD2797EE16FF0679F679
:109C1000C101322D292FCDCFC301B801A401259652
:109C20002FAD25970E949C4C182F01C010E0CE014B
:109C300087960E946546CE010C960E946546812F4C
:109C4000CA5BDF4F0FB6F894DEBF0FBECDBFCF911A
:109C5000DF911F910F91FF90EF90DF90CF90BF9019
:109C6000AF909F908F907F906F905F904F903F90BC
:109C70002F9008950F931F93DF93CF93CDB7DEB747
:109C80006B970FB6F894DEBF0FBECDBF9C01AB0142
:109C900019821C828E010F5F1F4FC801B90122E09B
:109CA0000E94684D882311F410E004C0C8010E948E
:109CB0005747182FCE0101960E946546812F6B965B
:109CC0000FB6F894DEBF0FBECDBFCF91DF911F91CD
:109CD0000F910895DB010D900020E9F71197A61B65
:109CE000B70B0496AD010E945F4A0895DF93CF93AE
:109CF0000F92CDB7DEB769830496BE016F5F7F4FC9
:109D000041E050E00E945F4A0F90CF91DF910895AB
:109D10008091E20B882399F14091DC095091DD0993
:109D20006091DE097091DF098091E00B9091E10B69
:109D300020EE39E00E941643882319F14091E30B8D
:109D40005091E40B6091E50B7091E60B41155105C4
:109D50006105710591F08091E00B9091E10B20EE8F
:109D600039E00E941643882361F01092E30B1092B1
:109D7000E40B1092E50B1092E60B1092E20B81E0DF
:109D8000089580E00895DF92EF92FF920F931F9362
:109D90007B018C01D42E8091DC099091DD09A0918A
:109DA000DE09B091DF098E159F05A007B107C1F04C
:109DB0000E94884E8823E1F08091E00B9091E10BA6
:109DC000B801A70120EE39E00E94D143882381F039
:109DD000E092DC09F092DD090093DE091093DF09BF
:109DE000DD2011F481E005C081E08093E20B01C029
:109DF00080E01F910F91FF90EF90DF9008958F9278
:109E00009F92AF92BF92CF92DF92EF92FF920F9309
:109E10001F93CF93DF936C01142F7093E10B60932A
:109E2000E00BFC01178A82E090E0A0E0B0E08083C4
:109E30009183A283B3831092E20B1092E30B1092F2
:109E4000E40B1092E50B1092E60B8FEF9FEFAFEF54
:109E5000BFEF8093DC099093DD09A093DE09B093F6
:109E6000DF09442321F488249924540140C045305B
:109E700008F01EC160E070E080E090E040E00E94E9
:109E8000C34E882309F414C1C12FD0E02197FE01ED
:109E900074E0EE0FFF1F7A95E1F7E052F64FE254BF
:109EA000FE4F8081EE5BF14090E08F779070892BC0
:109EB00009F0FEC0E653FE4F80819181A281B381FB
:109EC00084369105A105B10508F4F2C064E0CC0F19
:109ED000DD1F6A95E1F7CA55D44F88809980AA8022
:109EE000BB8081149104A104B10409F4E1C0C5014F
:109EF000B40140E00E94C34E882309F4D9C0809188
:109F0000EB099091EC098050924009F0D1C020916A
:109F1000F009222309F4CCC08091EE099091EF0959
:109F2000892B09F4C5C08091ED09882309F4C0C0CC
:109F3000F601228B8091ED098483158661E070E043
:109F400007C04F5FF60145874150483008F0B0C068
:109F5000F6014585848190E09B01042E02C0220F0A
:109F6000331F0A94E2F78217930759F72091F609F5
:109F70003091F7092115310519F040E050E008C093
:109F80002091040A3091050A4091060A5091070A6F
:109F9000F6012583368347835087E090EE09F090E1
:109FA000EF0900E010E0E80CF91C0A1D1B1DE38A14
:109FB000F48A058B168B8091F1099091F209918FAB
:109FC000808F6091F00970E080E090E00E94CADC30
:109FD0006E0D7F1D801F911FF601628F738F848F1E
:109FE000958F2091F1093091F20955E0220F331F2E
:109FF0005A95E1F721503E4F232F3327269540E015
:10A0000050E0260F371F481F591F26873787408B80
:10A01000518B8091F3099091F409009719F0A0E019
:10A02000B0E008C08091000A9091010AA091020A54
:10A03000B091030A85017401E21AF30A040B150BAF
:10A04000A8019701280F391F4A1F5B1FF6010584DD
:10A0500004C056954795379527950A94D2F72187DE
:10A06000328743875487253FFFE03F07F0E04F07E3
:10A07000F0E05F0720F48CE0F601878B19C0255FC4
:10A080003F4F4040504018F480E1F6010EC08091EF
:10A090000C0A90910D0AA0910E0AB0910F0AF601D8
:10A0A000828F938FA48FB58F80E2878B81E001C070
:10A0B00080E0DF91CF911F910F91FF90EF90DF90A3
:10A0C000CF90BF90AF909F908F9008956F927F92A6
:10A0D0008F929F92AF92BF92CF92DF92EF92FF92B8
:10A0E0000F931F93CF93DF93EC015A016B0138015B
:10A0F0004901423051056105710508F45EC089854A
:10A100009A85AB85BC850196A11DB11D8417950765
:10A11000A607B70708F451C08F89803129F4E52ECE
:10A12000F62E072F11270CC0803209F046C07A01A5
:10A130008B0187E016950795F794E7948A95D1F7F8
:10A140008B899C89AD89BE89E80EF91E0A1F1B1FE9
:10A15000C801B70141E00E94C34E882371F18F8985
:10A16000803149F4F501F070EE0FFF1FE052F64F19
:10A17000718260820DC0F501EF77F070EE0FFF1F66
:10A18000EE0FFF1FE052F64F60827182828293824F
:10A190008A89823080F08D819E81AF81B885E80EFA
:10A1A000F91E0A1F1B1FE092E30BF092E40B0093D1
:10A1B000E50B1093E60B81E001C080E0DF91CF91C9
:10A1C0001F910F91FF90EF90DF90CF90BF90AF90D5
:10A1D0009F908F907F906F900895CF92DF92EF9233
:10A1E000FF920F931F93CF93DF93EC017A018B01C2
:10A1F000690189859A85AB85BC850196A11DB11D34
:10A2000084179507A607B70708F453C08F898031D4
:10A2100029F45527412F302F2F2D0CC0803209F003
:10A2200048C09A01AB0167E0569547953795279549
:10A230006A95D1F78B899C89AD89BE89280F391F12
:10A240004A1F5B1F8091DC099091DD09A091DE0916
:10A25000B091DF09281739074A075B0739F0CA01AF
:10A26000B90140E00E94C34E882319F18F898031E3
:10A2700059F4F701F070EE0FFF1FE052F64F8081A6
:10A280009181A0E0B0E00EC0F701EF77F070EE0F23
:10A29000FF1FEE0FFF1FE052F64F80819181A281D8
:10A2A000B381BF70F60180839183A283B38381E081
:10A2B00001C080E0DF91CF911F910F91FF90EF904F
:10A2C000DF90CF900895AF92BF92CF92DF92EF923E
:10A2D000FF920F931F93DF93CF9300D00F92CDB7D0
:10A2E000DEB76C017A018B0182E090E0A0E0B0E083
:10A2F000F60180839183A283B3835E010894A11C3D
:10A30000B11CC601B801A70195010E94ED50882338
:10A3100041F1C601B801A70100E010E020E030E003
:10A320000E9466508823E9F0E980FA800B811C8145
:10A33000F6018789803151F4F8EFEF16FFEFFF0641
:10A34000F0E00F07F0E01F07E0F209C088EFE81621
:10A350008FEFF8068FEF08078FE0180790F281E083
:10A3600001C080E00F900F900F900F90CF91DF9180
:10A370001F910F91FF90EF90DF90CF90BF90AF9023
:10A3800008954F925F926F927F928F929F92AF92B9
:10A39000BF92CF92DF92EF92FF920F931F93DF93C2
:10A3A000CF9300D00F92CDB7DEB76C0149835A83AB
:10A3B0006B837C833901EE24FF2487012E010894EE
:10A3C000411C511C812CE2E09E2EA12CB12C498114
:10A3D0005A816B817C81C60192010E94ED508823D5
:10A3E00039F1D501C401F601058404C0880F991F15
:10A3F000AA1FBB1F0A94D2F7E80EF91E0A1F1B1FE3
:10A4000029813A814B815C818789803131F4285FD1
:10A410003F4F40405040D8F205C0285F3F4F4F4F5C
:10A420005F40A8F2F301E082F1820283138381E0AE
:10A430000F900F900F900F90CF91DF911F910F9180
:10A44000FF90EF90DF90CF90BF90AF909F908F9054
:10A450007F906F905F904F9008952F923F924F9210
:10A460005F926F927F928F929F92AF92BF92CF92A4
:10A47000DF92EF92FF920F931F93DF93CF93CDB7AD
:10A48000DEB72F970FB6F894DEBF0FBECDBF1C010D
:10A490004A875B876C877D873F872E87DC0119960B
:10A4A0008D919D910D90BC91A02D0196A11DB11D86
:10A4B0008E839F83A887B987F9010081118122814A
:10A4C0003381011511052105310549F04801590174
:10A4D0000894811C911CA11CB11C1D8210C0D101CB
:10A4E0008D909D90AD90BC901D828A859B85AC859A
:10A4F000BD850197A105B10511F491E09D8375011A
:10A5000064014424552432018E010F5F1F4FF10175
:10A5100081859285A385B485481659066A067B060F
:10A5200008F090C08E819F81A885B9858C159D0506
:10A53000AE05BF0550F4A2E08A2E912CA12CB12CBF
:10A54000F2E0CF2ED12CE12CF12CC101B701A601F4
:10A5500098010E94ED50882309F474C089819A8182
:10A56000AB81BC81A70196012F5F3F4F4F4F5F4FDB
:10A570000097A105B10519F049015A010DC028192C
:10A5800039094A095B098A859B85AC85BD852817F1
:10A5900039074A075B0759F00894411C511C611C9C
:10A5A000711C0894C11CD11CE11CF11CB0CFC1016D
:10A5B000A601B7010FEF1FEF2FEF3FE00E9466509B
:10A5C000882399F43FC026013701089441085108B7
:10A5D00061087108C101B301A201970186010E94BF
:10A5E0006650882379F1730162018C149D04AE04D6
:10A5F000BF0448F3AE85BF854D915D916D917C910F
:10A60000411551056105710539F0C10195018401BC
:10A610000E9466508823B1F0EE85FF85808291828A
:10A62000A282B382FD81FF2359F00894811C911C02
:10A63000A11CB11CD1018D929D92AD92BC92139739
:10A6400081E001C080E02F960FB6F894DEBF0FBE08
:10A65000CDBFCF91DF911F910F91FF90EF90DF90D1
:10A66000CF90BF90AF909F908F907F906F905F90B2
:10A670004F903F902F9008952F923F924F925F926C
:10A680006F927F928F929F92AF92BF92CF92DF9202
:10A69000EF92FF920F931F93DF93CF93CDB7DEB767
:10A6A000CD55D0400FB6F894DEBF0FBECDBF2F966C
:10A6B0009FAF8EAF2F9761967FAF6EAF61972A01E4
:10A6C00062962FAF629763960FAF63976496EFAE73
:10A6D00064976896ACAEBDAECEAEDFAE6897E22EA4
:10A6E000FF24EE0CFF1CEE0CFF1C9A012E0D3F1DEB
:10A6F0002D963FAF2EAF2D97D9016D907D908D9007
:10A700009C90FC01EE0DFF1DC401B301208131813D
:10A71000428153810E943FD869AF7AAF8BAF9CAF23
:10A7200010E0000F111F000F111FF201E00FF11FC9
:10A730002B96FFAFEEAF2B97A080B180C280D38065
:10A740002F96EEADFFAD2F97E00FF11FC601B501BB
:10A7500020813181428153810E943FD86DAB7EAB15
:10A760008FAB98AF64962FAD6497E22FF0E0EE0FB9
:10A77000FF1FEE0FFF1F2F96AEADBFAD2F97AE0F91
:10A78000BF1F4D915D916D917C9129964CAF5DAF4E
:10A790006EAF7FAF299761966EAD7FAD6197E60F83
:10A7A000F71F608171818281938129962CAD3DAD27
:10A7B0004EAD5FAD29970E943ED869AB7AAB8BABAB
:10A7C0009CAB6196AEADBFAD61971C968D919D918E
:10A7D0000D90BC91A02D25968CAF9DAFAEAFBFAFB5
:10A7E00025972F96AEADBFAD2F971C962D913D911D
:10A7F0004D915C911F9721962CAF3DAF4EAF5FAF4F
:10A800002197A401930150582DA73EA74FA758ABFD
:10A81000B601A501705849A75AA76BA77CA76196F6
:10A820006EAD7FAD6197E60EF71ED7016D917D91FC
:10A830008D919C9129AD3AAD4BAD5CAD0E943ED857
:10A840003B014C016196EEADFFAD61970E0F1F1FEE
:10A85000D8016D917D918D919C912DA93EA94FA913
:10A8600058AD0E943ED85B016C016DA57EA58FA5F9
:10A8700098A9A60195010E94F8DB7B018C0169A5CE
:10A880007AA58BA59CA5A40193010E94F8DB9B01EE
:10A89000AC01C801B7010E943ED81B012C016DA577
:10A8A0007EA58FA598A9A40193010E94F8DB7B01E6
:10A8B0008C0169A57AA58BA59CA5A60195010E948E
:10A8C000F8DB9B01AC01C801B7010E943FD89B0196
:10A8D000AC01C201B1010E94B2D85B016C0120E061
:10A8E00030E040E050E00E9418D9882354F4C601BB
:10A8F000B5012BED3FE049EC50E40E943FD85B01ED
:10A900006C01E8968FADE897882351F0C601B50138
:10A910002BED3FE049EC50E40E943ED85B016C0116
:10A92000C601B501E7962CAD3DAD4EAD5FADE797E5
:10A930000E94F8DB29A93AA94BA95CA95F770E947C
:10A9400033DB7B018C012FE632E143E85AE30E94BE
:10A9500018D987FDF6C1C801B7010E94F5D90E9438
:10A960008CD978A76FA3672B21F4E1E0F0E0F8A77A
:10A97000EFA32FA138A5B90180E090E00E94B8D9DB
:10A980007B018C01C601B501A80197010E941FD966
:10A990006BA37CA38DA39EA369A97AA98BA99CA96B
:10A9A000A80197010E941FD96F8F78A389A39AA34A
:10A9B00025966CAD7DAD8EAD9FAD259721962CADC6
:10A9C0003DAD4EAD5FAD21970E943ED8A8019701E5
:10A9D0000E941FD96B8F7C8F8D8F9E8F6BA17CA166
:10A9E0008DA19EA120E030E040E05FEB0E94F8DB0B
:10A9F0002BA13CA14DA15EA10E94F8DB20E030E03C
:10AA000040E85FE30E943FD86F8B788F898F9A8FE1
:10AA100064963FAD6497E32FF0E0EE0FFF1FEE0F5B
:10AA2000FF1F9E012F5F3F4FE20FF31F29964CAD92
:10AA30005DAD6EAD7FAD2997408351836283738393
:10AA40002F96AEADBFAD2F971C964D915D916D9138
:10AA50007C911F974D875E876F87788B41E050E030
:10AA60005A8B498B662462967FAD6297672F70E0A0
:10AA7000660F771F660F771FC901860F971F6A96AB
:10AA80009FAF8EAF6A976396BFAD6397AB2FB0E071
:10AA9000AA0FBB1FAA0FBB1F21E030E02C0F3D1FE8
:10AAA0002A0F3B1F6C963FAF2EAF6C976E96FFAF91
:10AAB000EEAF6E971AC138E136150CF446C06DA59D
:10AAC0007EA58FA598A92BA13CA14DA15EA10E94B6
:10AAD000F8DB7B018C0169A57AA58BA59CA52F8944
:10AAE000388D498D5A8D0E94F8DB9B01AC01C8015D
:10AAF000B7010E943FD87B018C016DA57EA58FA573
:10AB000098A92F89388D498D5A8D0E94F8DB5B01F9
:10AB10006C0169A57AA58BA59CA52BA13CA14DA193
:10AB20005EA10E94F8DB9B01AC01C601B5010E9449
:10AB30003ED86DA77EA78FA798AB6394C701D801B5
:10AB400089A79AA7ABA7BCA765C049895A89BA014A
:10AB500080E090E00E94B8D92BA13CA14DA15EA15C
:10AB60000E94F8DB7B018C01C8010E941CD96B8B11
:10AB70007C8B8D8B9E8BB701C8010E945BDC3B01F7
:10AB80004C012D96AEADBFAD2D97ED90FD900D9182
:10AB90001C9117FB109517F910952B96EEADFFAD94
:10ABA0002B972080318042805380C801B7012B89C8
:10ABB0003C894D895E890E94F8DB5B016C01C20112
:10ABC000B101A40193010E94F8DB9B01AC01C60115
:10ABD000B5010E943FD86DA77EA78FA798ABC8018B
:10ABE000B701A40193010E94F8DB7B018C01C20133
:10ABF000B1012B893C894D895E890E94F8DB9B015C
:10AC0000AC01C801B7010E943ED869A77AA78BA7FB
:10AC10009CA7662469AD7AAD8BAD9CAD2DA53EA5F4
:10AC20004FA558A90E943FD86A96AEADBFAD6A97AE
:10AC30006D937D938D939C9313976DA97EA98FA996
:10AC400098AD29A53AA54BA55CA50E943FD86C9666
:10AC5000EEADFFAD6C9760837183828393836E96B4
:10AC6000AEADBFAD6E976D917D918D919C912F8D05
:10AC700038A149A15AA10E943FD86E96EEADFFAD12
:10AC80006E9760837183828393836D857E858F85C4
:10AC900098892B8D3C8D4D8D5E8D0E943FD86D87A0
:10ACA0007E878F87988BCE0101960E944419CE0132
:10ACB0000196BE016B5F7F4FAE01475F5F4F9E0104
:10ACC000235F3F4F6896ECACFDAC0EAD1FAD6897AF
:10ACD000F8E7CF2ED12CCC0EDD1E0E94235C2989F3
:10ACE0003A892F5F3F4F3A8B298B49895A896FA147
:10ACF00078A54617570708F4DECE61964EAD5FADD6
:10AD00006197485F5F4F61962EAD3FAD6197245FBD
:10AD10003F4F61968EAD9FAD6197DC0114966196B1
:10AD2000BFAFAEAF6197BD016896ECACFDAC0EADA8
:10AD30001FAD6897E8E7CE2ED12CCC0EDD1E0E9409
:10AD4000235CC35ADF4F0FB6F894DEBF0FBECDBFF2
:10AD5000CF91DF911F910F91FF90EF90DF90CF90F7
:10AD6000BF90AF909F908F907F906F905F904F902B
:10AD70003F902F9008958091271190912811891B61
:10AD80008F7008956093A0037093A1038093A20332
:10AD90009093A30308950F931F93CF93DF93C0E085
:10ADA000D0E08E01095C134FFE01E55FF34F608137
:10ADB0007181828193810E94B8D9FE01E550F44FE0
:10ADC00020813181428153810E94F8DB0E948CD91D
:10ADD000F80160837183828393832496C031D10507
:10ADE00001F7DF91CF911F910F910895FC016081D0
:10ADF0007181828193812091070C3091080C4091E0
:10AE0000090C50910A0C0E94F8DB0E94C8DB609389
:10AE1000530C7093540C8093550C9093560C83E50F
:10AE20009CE00E94726908958F929F92AF92BF92A8
:10AE3000CF92DF92EF92FF920F931F93FC018B0151
:10AE40005A01490160817181828193812091FB0BBC
:10AE50003091FC0B4091FD0B5091FE0B0E94F8DBF2
:10AE60000E94C8DB37E4C32E3CE0D32E6093470C2E
:10AE70007093480C8093490C90934A0CF8016081C0
:10AE80007181828193812091FF0B3091000C409160
:10AE9000010C5091020C0E94F8DB0E94C8DB24E0F8
:10AEA000E22EF12CEC0CFD1C60934B0CF70171832E
:10AEB00082839383F50160817181828193812091E6
:10AEC000030C3091040C4091050C5091060C0E942B
:10AED000F8DB0E94C8DB8601085F1F4F60934F0CB0
:10AEE000F801718382839383F4016081718182818F
:10AEF00093812091070C3091080C4091090C5091DE
:10AF00000A0C0E94F8DB0E94C8DBF6013C966093B5
:10AF1000530C718382839383C601B701A8019F01FB
:10AF20000E94386980E090E0A0E0B0E080932911B1
:10AF300090932A11A0932B11B0932C1180932D1173
:10AF400090932E11A0932F11B09330118093311153
:10AF500090933211A0933311B09334118093351133
:10AF600090933611A0933711B09338118093391113
:10AF700090933A11A0933B11B0933C111F910F9104
:10AF8000FF90EF90DF90CF90BF90AF909F908F9009
:10AF900008958F929F92AF92BF92CF92DF92EF92DD
:10AFA000FF920F931F93CF93DF93EC016B010097F8
:10AFB00009F45CC08FA9882309F058C0EEA0FFA057
:10AFC00008A519A5FB01B6A0A7A090A481A4C8015B
:10AFD000B7012B2D3A2D492D582D0E9418D98823C1
:10AFE0000CF044C0C801B701A80197010E94F8DB2A
:10AFF0007B018C016AA97BA98CA99DA9905820E0AE
:10B0000030E040E050EC0E94F8DB2EA53FA548A9B7
:10B0100059A90E94F8DB9B01AC01C801B7010E944D
:10B020003FD80E9465DC7B018C016B2D7A2D892D28
:10B03000982D9701A8010E9418D9882324F4EB2C9D
:10B04000FA2C092D182D6B2D7A2D892D982D97010D
:10B05000A8010E9418D9882349F0C701D801F60138
:10B0600086A397A3A0A7B1A781E086ABDF91CF917C
:10B070001F910F91FF90EF90DF90CF90BF90AF9016
:10B080009F908F900895EF92FF920F931F93CF930D
:10B09000DF93F090281100E010E020E030E04DE474
:10B0A000E42E12C0FE9CE0011124C95AD34FC901FD
:10B0B000B801AE010E94C9578F2D8F5F803109F40E
:10B0C00080E0F82E98018E0180912711F81651F733
:10B0D000C901B80140E050E00E94C957DF91CF910B
:10B0E0001F910F91FF90EF900895AF92BF92CF9272
:10B0F000DF92EF92FF920F931F93CF93DF93EB01B9
:10B100008A016115710509F466C04115510509F4FC
:10B1100062C0DAA4CBA4BCA4ADA46EA17FA188A513
:10B1200099A52D2D3C2D4B2D5A2D0E9418D98823E1
:10B1300009F451C08FA9882309F043C0F801E6A0A3
:10B14000F7A000A511A56D2D7C2D8B2D9A2DA801A2
:10B1500097010E9426DB1816A4F5C801B701A801C3
:10B1600097010E94F8DB7B018C016AA97BA98CA95D
:10B170009DA9905820E030E040E050EC0E94F8DBC0
:10B180002EA53FA548A959A90E94F8DB9B01AC0157
:10B19000C801B7010E943FD80E9465DC7B018C0189
:10B1A0006D2D7C2D8B2D9A2D9701A8010E9418D909
:10B1B000882324F4ED2CFC2C0B2D1A2DC701D8016B
:10B1C00004C08D2D9C2DAB2DBA2D8EA39FA3A8A7B7
:10B1D000B9A781E08EABDF91CF911F910F91FF90C6
:10B1E000EF90DF90CF90BF90AF900895CF92DF9215
:10B1F000EF92FF920F93DF93CF930F920F92CDB701
:10B20000DEB7809127118FB7F894F09028118FBF87
:10B210008091271190E040968F1991098F7090705E
:10B22000049704F10091271103500F70CC24DD2402
:10B2300040E050E06DE4E62E13C0802F002309F4B7
:10B2400080E1082F01500E9DC0011124895A934FAF
:10B250009A838983B6010E947558A601C980DA8055
:10B260000F1559F70F900F90CF91DF910F91FF902D
:10B27000EF90DF90CF90089560917E079091281114
:10B28000809127119817B9F040912811242F30E0B0
:10B290008DE490E0289FF001299FF00D389FF00D7C
:10B2A0001124E156F34F608102C04F5F4F708091CF
:10B2B00027114817D1F787E070E00E9475150895AF
:10B2C000109227111092281180E1E7E4FCE0DF01E1
:10B2D0001D928A95E9F780E090E0A0E0B0E08093CD
:10B2E0002D1190932E11A0932F11B09330118093B4
:10B2F000311190933211A0933311B0933411809394
:10B30000351190933611A0933711B0933811809373
:10B31000391190933A11A0933B11B0933C11809353
:10B32000291190932A11A0932B11B0932C110895F9
:10B330002F923F924F925F926F927F928F929F9245
:10B34000AF92BF92CF92DF92EF92FF920F931F9333
:10B35000DF93CF93CDB7DEB766970FB6F894DEBF15
:10B360000FBECDBF9E8B8D8B6A017B0148015901B9
:10B37000DC01D8966D917D918D919C91DB970E9417
:10B38000B8D9698B7A8B8B8B9C8BA70196010E9415
:10B39000F8DB0E9405D90E948CD96D837E838F8350
:10B3A000988769897A898B899C89A50194010E9473
:10B3B000F8DB0E9405D90E948CD969837A838B833C
:10B3C0009C832D813E814F81588528373105410569
:10B3D000510540F448E750E060E070E04D835E8343
:10B3E0006F83788769817A818B819C816837710549
:10B3F0008105910540F488E790E0A0E0B0E0898302
:10B400009A83AB83BC83AD89BE89AC5BBF4FAD90E3
:10B41000BD90CD90DC901397A454B040BE8BAD8B03
:10B420006D817E818F8198850E94B8D96D877E87D6
:10B430008F87988BC601B5010E94BAD91B012C01D8
:10B4400020E030E040E050E00E9418D9882321F449
:10B45000E0E070E060E028C069897A898B899C8986
:10B460009B01AC010E94F8DB7B018C016D857E8520
:10B470008F8598899B01AC010E94F8DB9B01AC0190
:10B48000C801B7010E943ED87B018C01C201B10105
:10B49000A20191010E943FD89B01AC01C801B701F4
:10B4A0000E941FD9E62F692F2E2F372F482F562F96
:10B4B000B901CA010E9405D90E9487D93B014C01FC
:10B4C00069817A818B819C810E94B8D969877A874A
:10B4D0008B879C8766277727CB016A197B098C09A4
:10B4E0009D090E94BAD95B016C0120E030E040E088
:10B4F00050E00E9418D9882321F4E0E070E060E079
:10B5000028C069857A858B859C859B01AC010E944A
:10B51000F8DB7B018C0169897A898B899C899B0185
:10B52000AC010E94F8DB9B01AC01C801B7010E948D
:10B530003ED87B018C01C601B501A60195010E9490
:10B540003FD89B01AC01C801B7010E941FD9E62F6B
:10B55000692F2E2F372F482F562FB901CA010E946D
:10B56000F5D9ED89FE89A088B188C288D388860183
:10B570007501E618F708080919090E9487D9A8017A
:10B580009701261B370B480B590B57FF71C0C2019F
:10B59000B10120E030E040E050E00E9418D988235B
:10B5A00021F4E0E070E060E044C0C201B101A2011A
:10B5B00091010E943FD87B018C01C601B5010E9418
:10B5C000B8D99B01AC01C801B7010E94F8DB7B012F
:10B5D0008C016D857E858F8598899B01AC010E94C9
:10B5E000F8DB9B01AC01C801B7010E943ED87B018A
:10B5F0008C0169857A858B859C859B01AC010E94B5
:10B60000F8DB9B01AC01C801B7010E943FD87B0168
:10B610008C01C201B10120E030E040E850E40E941A
:10B62000F8DB9B01AC01C801B7010E941FD9E62FCE
:10B63000692F2E2F372F482F562FB901CA010E948C
:10B6400005D90E9487D9AC01CB01DA013C014D013B
:10B6500097FE03C06624772443016A147B048C049C
:10B660009D0410F03501460120E030E040E050E05C
:10B670009FB7F8946D897E89645B7F4FDB018C9165
:10B68000AC54B040BE8BAD8B882321F5FD01648A9C
:10B69000758A868A978A260D371D481D591D58962A
:10B6A0002D933D934D935C935B972D813E814F810C
:10B6B0005885DC962D933D934D935C93DF97A05C6A
:10B6C000BF4F29813A814B815C812D933D934D93EE
:10B6D0005C9313979FBF66960FB6F894DEBF0FBEBC
:10B6E000CDBFCF91DF911F910F91FF90EF90DF9031
:10B6F000CF90BF90AF909F908F907F906F905F9012
:10B700004F903F902F9008954F925F927F928F922B
:10B710009F92AF92BF92CF92DF92EF92FF920F93E0
:10B720001F93CF93DF9370902811C0E0D0E07DE4A9
:10B73000472E512C46C02097B1F18EA9882361F481
:10B74000849CF001859CF00D949CF00D1124E95A25
:10B75000F34F86A9882339F1EAA0FBA00CA11DA113
:10B760006EA17FA188A599A5A80197010E941FD964
:10B770005B016C01849CF001859CF00D949CF00DA4
:10B780001124E95AF34F66A177A180A591A5A801DC
:10B7900097010E941FD98B019C01CE01B601A50122
:10B7A0000E9498591EAA739480E1781609F47724B0
:10B7B000849CE001859CD00D949CD00D1124C95A25
:10B7C000D34F872C992487FC90948091271190E087
:10B7D0008816990609F0AFCF2097F1F0EAA0FBA0F8
:10B7E0000CA11DA16EA17FA188A599A5A801970113
:10B7F0000E941FD95B016C016DEC7CEC8CE49DE335
:10B80000A80197010E941FD98B019C01CE01B601AE
:10B81000A5010E9498591EAADF91CF911F910F9107
:10B82000FF90EF90DF90CF90BF90AF909F908F9060
:10B830007F905F904F9008950E94F6580E94435861
:10B840000E94845B08952F923F924F925F926F9275
:10B850007F928F929F92AF92BF92CF92DF92EF92A0
:10B86000FF920F931F93DF93CF93CDB7DEB7CC59E1
:10B87000D0400FB6F894DEBF0FBECDBF5C014B01C8
:10B880003A012901C756DF4FE882C959D040C65650
:10B89000DF4FF882CA59D040C556DF4F0883CB59D5
:10B8A000D040C456DF4F1883CC59D040E796DFAE66
:10B8B000CEAEE797809127118F5F803109F480E049
:10B8C000282F332727FD30953CA72BA706C00E94C1
:10B8D000E9760E942A1B0E9403CF8091281190E0F4
:10B8E0004BA55CA58417950791F36091FB0B7091B4
:10B8F000FC0B8091FD0B9091FE0BE5966CAF7DAF3C
:10B900008EAF9FAFE597D5012D913D914D915C9103
:10B910000E94F8DB0E94C8DBCD57DF4F6883C35815
:10B92000D040CC57DF4F7883C458D040CB57DF4F3F
:10B930008883C558D040CA57DF4F9883C658D04037
:10B940002091FF0B3091000C4091010C5091020CA2
:10B95000E1962CAF3DAF4EAF5FAFE197CA01B901A1
:10B96000D4012D913D914D915C910E94F8DB0E9494
:10B97000C8DBC957DF4F6883C758D040C857DF4F6F
:10B980007883C858D040C757DF4F8883C958D04004
:10B99000C657DF4F9883CA58D0402091030C30918E
:10B9A000040C4091050C5091060CAD962CAF3DAFA8
:10B9B0004EAF5FAFAD97CA01B901D3012D913D9153
:10B9C0004D915C910E94F8DB0E94C8DBC557DF4FA8
:10B9D0006883CB58D040C457DF4F7883CC58D040D1
:10B9E000C357DF4F8883CD58D040C257DF4F98836D
:10B9F000CE58D0402091070C3091080C4091090C92
:10BA000050910A0CA9962CAF3DAF4EAF5FAFA997EE
:10BA1000CA01B901D2012D913D914D915C910E94D5
:10BA2000F8DB0E94C8DBC157DF4F6883CF58D04096
:10BA3000C057DF4F7883C059D040CF56DF4F88833F
:10BA4000C159D040CE56DF4F9883C259D040809123
:10BA5000530C9091540CA091550CB091560CC157B9
:10BA6000DF4F288139814A815B81CF58D040281728
:10BA700039074A075B0709F4B8C0E0917D07F0E099
:10BA8000EE0FFF1FEE0FFF1FE257FE4E6081718128
:10BA9000828193812091A0033091A1034091A20360
:10BAA0005091A3030E9418D988230CF033C0C157CA
:10BAB000DF4F488159816A817B81CF58D0404093C4
:10BAC000530C5093540C6093550C7093560CE6E055
:10BAD000F8E0949108C08091C00085FFFCCF90935E
:10BAE000C600319694919923B1F7EAE2F8E0949177
:10BAF00008C08091C00085FFFCCF9093C6003196AE
:10BB000094919923B1F78091C00085FFFCCF8AE022
:10BB10008093C6008091530C9091540CA091550CC9
:10BB2000B091560CC157DF4F288139814A815B8122
:10BB3000CF58D040281B390B4A0B5B0BCA01B90107
:10BB400057FF07C090958095709561957F4F8F4FF7
:10BB50009F4F0E94BAD97B018C01A9966CAD7DAD37
:10BB60008EAD9FADA99720E030E042ED53E40E94F6
:10BB7000F8DB9B01AC01C801B7010E9426DB181657
:10BB80000CF033C0C157DF4F488159816A817B81F6
:10BB9000CF58D0404093530C5093540C6093550CA5
:10BBA0007093560CE6E0F8E0949108C08091C000D4
:10BBB00085FFFCCF9093C600319694919923B1F7FD
:10BBC000ECE0F8E0949108C08091C00085FFFCCFC4
:10BBD0009093C600319694919923B1F78091C0005B
:10BBE00085FFFCCF8AE08093C60080912711682FE3
:10BBF00070E0A5967FAF6EAFA5978DE490E0689F4B
:10BC0000F001699FF00D789FF00D1124E95AF34F70
:10BC1000E45BFF4F1082EC54F0408091470C909110
:10BC2000480CA091490CB0914A0CA3968CAF9DAFE3
:10BC3000AEAFBFAFA397CD57DF4F288139814A817F
:10BC40005B81C358D040281B390B4A0B5B0B6F96A6
:10BC50002CAF3DAF4EAF5FAF6F97208331834283F0
:10BC6000538357FF0DC0DA01C901B095A095909597
:10BC700081959F4FAF4FBF4F80839183A283B38342
:10BC800040914B0C50914C0C60914D0C70914E0CAE
:10BC90006B964CAF5DAF6EAF7FAF6B97C957DF4F01
:10BCA00088819981AA81BB81C758D040841B950B9C
:10BCB000A60BB70B67968CAF9DAFAEAFBFAF6797C4
:10BCC0008DE490E0A596AEADBFADA597A89FF0011D
:10BCD000A99FF00DB89FF00D1124E95AF34F679614
:10BCE0002CAD3DAD4EAD5FAD679724833583468364
:10BCF000578357FF0DC0DA01C901B095A095909503
:10BD000081959F4FAF4FBF4F84839583A683B783A1
:10BD100040914F0C5091500C6091510C7091520C0D
:10BD200063964CAF5DAF6EAF7FAF6397C557DF4F84
:10BD300088819981AA81BB81CB58D040841B950B07
:10BD4000A60BB70B2F968CAF9DAFAEAFBFAF2F97A3
:10BD50008DE490E0A596AEADBFADA597A89FF0018C
:10BD6000A99FF00DB89FF00D1124E95AF34F2F96BB
:10BD70002CAD3DAD4EAD5FAD2F972087318742870B
:10BD8000538757FF0DC0DA01C901B095A095909572
:10BD900081959F4FAF4FBF4F80879187A287B38711
:10BDA0002090530C3090540C4090550C5090560CF1
:10BDB000C157DF4F488159816A817B81CF58D0407C
:10BDC00042195309640975094DA35EA36FA378A7AF
:10BDD000E0917D07F0E0EE0FFF1FEE0FFF1FEB5726
:10BDE000FC4F60817181828193812B966CAF7DAF16
:10BDF0008EAF9FAF2B9780918103909182032796FE
:10BE00009FAF8EAF27976DA17EA18FA198A597FFB9
:10BE100007C090958095709561957F4F8F4F9F4F8C
:10BE20000E94BAD92B962CAD3DAD4EAD5FAD2B9790
:10BE30000E94F8DB0E9487D92796AEADBFAD279749
:10BE40009D01442737FD4095542F0E94CADC24E60B
:10BE500030E040E050E00E9432DD8DE490E0A596B5
:10BE60006EAD7FADA597689FF001699FF00D789F3B
:10BE7000F00D1124E95AF34FDF011C962487119627
:10BE80003C93119712964C93129713965C93608093
:10BE9000718082809380A480B580C680D780E08442
:10BEA000F18402851385C901DA018E159F05A0076B
:10BEB000B10714F4D801C7018A159B05AC05BD056F
:10BEC00014F4D601C5019C01AD0186159705A8059E
:10BED000B90514F4A40193018DE490E0A596AEADEC
:10BEE000BFADA597A89FB001A99F700DB89F700D19
:10BEF0001124695A734FFB01208B318B428B538B7A
:10BF0000263031054105510510F40C948C68E85B2E
:10BF1000FF4F80917E0790917F07AA2797FDA095FC
:10BF2000BA2F80839183A283B383DB0190961C9206
:10BF3000CD57DF4F288139814A815B81C358D0407A
:10BF4000A3968CAD9DADAEADBFADA39728173907B5
:10BF50004A075B0724F481E0DB0190968C93C95774
:10BF6000DF4F288139814A815B81C758D0406B9669
:10BF70006CAD7DAD8EAD9FAD6B972617370748072B
:10BF8000590794F48DE490E0A596AEADBFADA597AA
:10BF9000A89FF001A99FF00DB89FF00D1124E95A58
:10BFA000F34F80A1826080A3C557DF4F288139817C
:10BFB0004A815B81CB58D04063966CAD7DAD8EAD30
:10BFC0009FAD6397261737074807590794F48DE408
:10BFD00090E0A596AEADBFADA597A89FF001A99F33
:10BFE000F00DB89FF00D1124E95AF34F80A1846041
:10BFF00080A3C157DF4F288139814A815B81CF58A7
:10C00000D040221533054405550594F48DE490E0A5
:10C01000A5964EAD5FADA597489FF001499FF00DE5
:10C02000589FF00D1124E95AF34F80A1886080A336
:10C030008DE490E0A5966EAD7FADA597689FF00169
:10C04000699FF00D789FF00D1124E95AF34FE796A0
:10C05000AEADBFADE7978C9181A320813181428144
:10C06000538125962CAF3DAF4EAF5FAF259721157D
:10C0700031054105510509F015988DE490E0A5962C
:10C080004EAD5FADA597489FF001499FF00D589FB9
:10C09000F00D1124E95AF34F6480758086809780F3
:10C0A000611471048104910409F017988DE490E003
:10C0B000A5966EAD7FADA597689FF001699FF00DC5
:10C0C000789FF00D1124E95AF34FA084B184C28403
:10C0D000D384A114B104C104D10409F042988DE4C1
:10C0E00090E0A596AEADBFADA597A89FF001A99F22
:10C0F000F00DB89FF00D1124E95AF34F8485958512
:10C10000A685B7850097A105B10551F0A0982090AC
:10C110001B0C30901C0C40901D0C50901E0C08C045
:10C120002090330C3090340C4090350C5090360CED
:10C13000C756DF4F6881C959D040C656DF4F788156
:10C14000CA59D040C556DF4F8881CB59D040C4561C
:10C15000DF4F9881CC59D040A20191010E9418D99B
:10C1600087FD16C0C756DF4F8881C959D040C656D3
:10C17000DF4F9881CA59D040C556DF4FA881CB59AF
:10C18000D040C456DF4FB881CC59D0401C012D019E
:10C190006F966CAD7DAD8EAD9FAD6F970E94BAD995
:10C1A000E5962CAD3DAD4EAD5FADE5970E941FD934
:10C1B000C158DF4F6883CF57D040C058DF4F7883D6
:10C1C000C058D040CF57DF4F8883C158D040CE579A
:10C1D000DF4F9883C258D040AC01CB01DA0189838C
:10C1E0009A83AB83BC8367966CAD7DAD8EAD9FADFE
:10C1F00067970E94BAD9E1962CAD3DAD4EAD5FADCB
:10C20000E1970E941FD9EC966FAFEC97ED967FAF48
:10C21000ED97EE968FAFEE97EF969FAFEF97AC014D
:10C22000CB01DA018D839E83AF83B8872F966CADE7
:10C230007DAD8EAD9FAD2F970E94BAD9AD962CAD36
:10C240003DAD4EAD5FADAD970E941FD9E8966FAF83
:10C25000E897E9967FAFE997EA968FAFEA97EB9672
:10C260009FAFEB97AC01CB01DA0189879A87AB8747
:10C27000BC876DA17EA18FA198A50E94BAD9A9966D
:10C280002CAD3DAD4EAD5FADA9970E941FD92B9649
:10C290002CAD3DAD4EAD5FAD2B970E94F8DB7B0121
:10C2A0008C012796EEADFFAD2797BF01882777FD5C
:10C2B0008095982F0E94BAD99B01AC01C801B701A3
:10C2C0000E94F8DB20E030E048EC52E40E941FD9E5
:10C2D0009B01AC016D877E878F87988B25966CAD0F
:10C2E0007DAD8EAD9FAD25976630710581059105B9
:10C2F0001CF576E06716710481049104ECF486E085
:10C30000A816B104C104D104BCF48DE490E0A59654
:10C31000AEADBFADA597A89FF001A99FF00DB89F46
:10C32000F00D1124E95AF34FDA01C901BF7786A74E
:10C3300097A7A0ABB1AB5DC0C158DF4F2881CF57E5
:10C34000D040C058DF4F3881C058D040CF57DF4F62
:10C350004881C158D040CE57DF4F5881C258D04095
:10C36000B901CA010E94AFDC3B014C01EC962FAD34
:10C37000EC97ED963FADED97EE964FADEE97EF96BD
:10C380005FADEF97B901CA010E94AFDC5B016C01A0
:10C39000E8962FADE897E9963FADE997EA964FAD5D
:10C3A000EA97EB965FADEB97B901CA010E94AFDC4B
:10C3B0007B018C01C401B301A60195010E943FD805
:10C3C000A80197010E943FD80E9465DC2DE430E06F
:10C3D000A5964EAD5FADA597429FF001439FF00D2E
:10C3E000529FF00D1124E95AF34F66A777A780AB4F
:10C3F00091AB8DE490E0A5966EAD7FADA597689F5B
:10C40000F001699FF00D789FF00D1124E95AF34F68
:10C4100086A597A5A0A9B1A921968CAF9DAFAEAF77
:10C42000BFAF219760E070E080E89FE321962CADDC
:10C430003DAD4EAD5FAD21970E941FD99B01AC0170
:10C44000C201B1010E94F8DB2B013C018091271150
:10C4500090912811A82FB0E05096A91BB109AF7098
:10C46000B070BAA7A9A7A230B1050CF451C05D0104
:10C47000CC24B7FCC094DC2CC601B5010E94BAD90B
:10C4800020E030E040E051E40E9418D988230CF00D
:10C490003FC060E074E284E799E4A30192010E9446
:10C4A0001FD90E94C8DB7B018C016091E70B709162
:10C4B000E80B8091E90B9091EA0BE616F706080766
:10C4C000190730F56E197F09800B910B660F771FE6
:10C4D000881F991FA60195010E9410DDCA01B901AC
:10C4E0000E94B8D90E94C8DB9B01AC012E0D3F1DF4
:10C4F000401F511FCA01B9010E94B8D99B01AC016C
:10C5000060E074E284E799E40E941FD92B013C01AA
:10C510008DE490E0A596EEADFFADA597E89F800174
:10C52000E99F100DF89F100D1124095A134F219601
:10C530006CAD7DAD8EAD9FAD2197A30192010E94A0
:10C54000F8DBD80192966D937D938D939C9395978C
:10C5500050966D917D918D919C9153970E94B8D981
:10C56000A30192010E94F8DB0E9405D90E948CD998
:10C57000F80160AF71AF82AF93AFCD56DF4F188235
:10C58000C359D040CC56DF4F1882C459D04020E860
:10C59000222E9FE3392E88249924E1E0F0E0EC0F6D
:10C5A000FD1FE80DF91DC301B201208131814281D7
:10C5B00053810E94F8DBE1E1F0E0EC0FFD1FE80D94
:10C5C000F91D60837183828393835B016C01E8941E
:10C5D000D7F8F401E551F44FE080F1800281138136
:10C5E000C601B501A80197010E9426DB1816CCF4FC
:10C5F000C801B701A60195010E941FD96B017C01FA
:10C60000CD56DF4F6881C359D040CC56DF4F78817B
:10C61000C459D040C101A70196010E9418D98823AE
:10C620006CF4CD56DF4F8881C359D040CC56DF4FD4
:10C630009881C459D040D1016C017D0124E030E0E3
:10C64000820E931E30E18316910471F0D701C6016A
:10C65000CD56DF4FC882C359D040CC56DF4F9883A8
:10C66000C459D0401D0199CFC701B60120E030E088
:10C6700040E85FE30E9418D988230CF04CC08E017B
:10C680000F5E1F4F81E2A82EB12CAC0EBD1ED8014B
:10C690006D917D918D919C91A70196010E94F8DB8F
:10C6A000F80161937193819391938F01EA15FB05D2
:10C6B00071F78DE490E0A5962EAD3FADA597289F2C
:10C6C0008001299F100D389F100D1124095A134F16
:10C6D000D80192966D917D918D919C919597A7012E
:10C6E00096010E94F8DBF80162A373A384A395A3CB
:10C6F00060AD71AD82AD93AD0E94B8D9A70196012E
:10C700000E94F8DB0E948CD9D801D8966D937D9356
:10C710008D939C93DB978DE490E0A596EEADFFADF5
:10C72000A597E89F8001E99F100DF89F100D112437
:10C73000095A134FD80150966D917D918D919C911E
:10C7400053970E94B8D9F80126A537A540A951A949
:10C750000E941FD91B012C01F80180819181A281C7
:10C76000B3810097A105B10549F584819581A68122
:10C77000B7810097A105B10509F580859185A2854E
:10C78000B3850097A105B105C9F4C201B10120919B
:10C79000230C3091240C4091250C5091260C0E94C2
:10C7A000F8DB0E9405D90C5B1F4F0E948CD9D80181
:10C7B0006D937D938D939C93139771C1C201B101C9
:10C7C00020911F0C3091200C4091210C5091220C93
:10C7D0000E94F8DB0E9405D90E948CD92DE430E03C
:10C7E000A596EEADFFADA597E29F6001E39FD00C4B
:10C7F000F29FD00C112427E53CE0C20ED31EB4E416
:10C800006B2E712C6C0C7D1CD3016D937D938D93DD
:10C810009C9313978090370C9090380CA090390C13
:10C82000B0903A0C0E94B8D97B018C01F60160816E
:10C830007181828193810E94BAD99B01AC01C801A8
:10C84000B7010E94F8DB7B018C01D60150966D91F7
:10C850007D918D919C9153970E94B8D99B01AC0119
:10C86000C801B7010E941FD97B018C01C501B40129
:10C870000E94B8D99B01AC01C801B7010E9426DB18
:10C8800018162CF4F30180829182A282B3828090E8
:10C890003B0C90903C0CA0903D0CB0903E0C8DE475
:10C8A00090E0A5962EAD3FADA597289F6001299FEA
:10C8B000D00C389FD00C112447E55CE0C40ED51E87
:10C8C000A4E46A2E712C6C0C7D1CD3016D917D91BA
:10C8D0008D919C910E94B8D97B018C01F6016481F5
:10C8E0007581868197810E94BAD99B01AC01C801EC
:10C8F000B7010E94F8DB7B018C01D60150966D9147
:10C900007D918D919C9153970E94B8D99B01AC0168
:10C91000C801B7010E941FD97B018C01C501B40178
:10C920000E94B8D99B01AC01C801B7010E9426DB67
:10C9300018162CF4F30180829182A282B382809037
:10C94000430C9090440CA090450CB090460C8DE4A4
:10C9500090E0A5962EAD3FADA597289F6001299F39
:10C96000D00C389FD00C112447E55CE0C40ED51ED6
:10C97000F4E46F2E712C6C0C7D1CD3016D917D91B4
:10C980008D919C910E94B8D97B018C01F601648540
:10C990007585868597850E94BAD99B01AC01C8012F
:10C9A000B7010E94F8DB7B018C01D60150966D9196
:10C9B0007D918D919C9153970E94B8D99B01AC01B8
:10C9C000C801B7010E941FD97B018C01C501B401C8
:10C9D0000E94B8D99B01AC01C801B7010E9426DBB7
:10C9E00018162CF4F30180829182A282B382809087
:10C9F0003F0C9090400CA090410CB090420C8DE404
:10CA000090E0A5962EAD3FADA597289F6001299F88
:10CA1000D00C389FD00C112447E55CE0C40ED51E25
:10CA2000E4E46E2E712C6C0C7D1CD3016D917D9114
:10CA30008D919C910E94B8D97B018C01F601608593
:10CA40007185828593850E94BAD99B01AC01C8018A
:10CA5000B7010E94F8DB7B018C01D60150966D91E5
:10CA60007D918D919C9153970E94B8D99B01AC0107
:10CA7000C801B7010E941FD97B018C01C501B40117
:10CA80000E94B8D99B01AC01C801B7010E9426DB06
:10CA900018162CF4F30180829182A282B3828DE475
:10CAA00090E0A5962EAD3FADA597289F6001299FE8
:10CAB000D00C389FD00C112447E55CE0C40ED51E85
:10CAC000F601EC5BFF4F60817181828193810E944E
:10CAD000B8D97B018C01A20191010E941FD9D60116
:10CAE000D2966D937D938D939C93D597C801B70192
:10CAF0002DEB37E346E051E40E94F8DB0E9487D932
:10CB0000F601648F758F868F978F6090270C7090D9
:10CB1000280C8090290C90902A0CC401B30120E0CD
:10CB200030E040E05FE30E94F8DB5B016C01298D9F
:10CB30003A8D4B8D5C8D29AF3AAF4BAF5CAF4091D6
:10CB40002B0C50912C0C60912D0C70912E0C4DAB38
:10CB50005EAB6FAB78AFCB01BA0120E030E040E0D4
:10CB60005FE30E94F8DB7B018C0169AD7AAD8BAD90
:10CB70009CAD9F77A80197010E9426DB181644F40C
:10CB8000C601B501A80197010E9418D9882314F4A1
:10CB9000860175016D8D7E8D8F8D98A169AB7AAB05
:10CBA0008BAB9CAB80912F0C9091300CA091310CF1
:10CBB000B091320C8DA79EA7AFA7B8ABBC01CD0139
:10CBC00020E030E040E05FE30E94F8DB1B012C0135
:10CBD00069A97AA98BA99CA99F77A20191010E94BA
:10CBE00026DB181644F4C801B701A20191010E9486
:10CBF00018D9882314F4170128018DE490E0A59634
:10CC0000AEADBFADA597A89FF001A99FF00DB89F4D
:10CC1000F00D1124E95AF34F22A133A144A155A1EB
:10CC200029A33AA34BA35CA3C201B1010E9418D966
:10CC300087FD04C029A03AA04BA05CA049A55AA535
:10CC4000423051050CF405C150912911CB56DF4FEC
:10CC50005883C559D04060912A11CA56DF4F688366
:10CC6000C659D04070912B11C956DF4F7883C759F0
:10CC7000D04080912C11C856DF4F8883C859D040CE
:10CC8000652FCA56DF4F7881C659D040C956DF4F4D
:10CC90008881C759D040C856DF4F9881C859D040C5
:10CCA00027E137EB41ED58E30E9426DB18160CF024
:10CCB000D0C069897A898B899C8920912D11309106
:10CCC0002E1140912F11509130110E943ED89B019E
:10CCD000AC010E94F8DB7B018C016D897E898F8914
:10CCE000988D209131113091321140913311509132
:10CCF00034110E943ED89B01AC010E94F8DB9B01DD
:10CD0000AC01C801B7010E943FD80E9465DC7B01DD
:10CD10008C01A40193010E9426DB18165CF00F2EF3
:10CD2000F0E06F2EF0E07F2EF0E88F2EFFE39F2ED5
:10CD3000F02D08C0C401B301A80197010E941FD9BA
:10CD40003B014C0169AD7AAD8BAD9CAD20913511A5
:10CD50003091361140913711509138110E943ED8D0
:10CD60007B018C01E89417F9C801B7012DA93EA9F0
:10CD70004FA958AD0E9426DB181694F46DA97EA920
:10CD80008FA998ADA80197010E941FD95B016C0182
:10CD9000C401B301A60195010E9418D9882314F497
:10CDA0006401530169A97AA98BA99CA92091391121
:10CDB00030913A1140913B1150913C110E943ED864
:10CDC0007B018C01E89417F9C801B7012DA53EA598
:10CDD0004FA558A90E9426DB181694F46DA57EA5D0
:10CDE0008FA598A9A80197010E941FD97B018C01EA
:10CDF000C601B501A80197010E9418D9882314F42F
:10CE00008601750169A17AA18BA19CA1A801970156
:10CE10000E94F8DB7B018C01CB56DF4F6881C5593E
:10CE2000D040CA56DF4F7881C659D040C956DF4F2F
:10CE30008881C759D040C856DF4F9881C859D04023
:10CE4000A80197010E9418D987FD19C0D801C70110
:10CE500002C0D201C101CB56DF4F8883C559D040F3
:10CE6000CA56DF4F9883C659D040C956DF4FA883B2
:10CE7000C759D040C856DF4FB883C859D0408DE459
:10CE800090E0A596AEADBFADA597A89F8001A99FE4
:10CE9000100DB89F100D1124095A134FCB56DF4FB8
:10CEA0008881C559D040CA56DF4F9881C659D040B5
:10CEB000C956DF4FA881C759D040C856DF4FB88147
:10CEC000C859D040F80182A793A7A4A7B5A762A923
:10CED00073A984A995A9905820E030E040E050EC77
:10CEE0000E94F8DBD8019E962D913D914D915C9169
:10CEF000D1970E94F8DB2BE037ED43E25BE30E9421
:10CF00003FD80E9465DCF62EE72ED82EC92ECB56D0
:10CF1000DF4F6881C559D040CA56DF4F7881C65966
:10CF2000D040C956DF4F8881C759D040C856DF4F1F
:10CF30009881C859D0402F2D3E2D4D2D5C2D0E943B
:10CF400018D987FD14C0CB56DF4FF882C559D040A1
:10CF5000CA56DF4FE882C659D040C956DF4FD88243
:10CF6000C759D040C856DF4FC882C859D0408DE459
:10CF700090E0A596EEADFFADA597E89F8001E99FF3
:10CF8000100DF89F100D1124095A134FCB56DF4F87
:10CF90008881C559D040CA56DF4F9881C659D040C4
:10CFA000C956DF4FA881C759D040C856DF4FB88156
:10CFB000C859D040F80186A397A3A0A7B1A762A142
:10CFC00073A184A195A12F2D3E2D4D2D5C2D0E9486
:10CFD00018D918162CF081E0D801D7968C9302C08E
:10CFE000F80117AA8DE490E0A5962EAD3FADA59768
:10CFF000289FF001299FF00D389FF00D1124E95A68
:10D00000F34F81E086ABADE2B1E1FE01719680E1C4
:10D0100001900D928150E1F78DE490E0A5964EAD20
:10D020005FADA597489F6001499FD00C589FD00CD9
:10D03000112467E57CE0C60ED71ED6019296ED90CE
:10D04000FD900D911C919597E0922911F0922A1173
:10D0500000932B1110932C1196966D917D918D91CB
:10D060009C919997A80197010E941FD94B015C01DF
:10D07000C201B101A80197010E941FD98B019C0137
:10D08000C601B501A4010E949859BBA5B093271110
:10D09000C157DF4F288139814A815B81CF58D04009
:10D0A0002093530C3093540C4093550C5093560CD2
:10D0B000C557DF4F488159816A817B81CB58D04069
:10D0C00040934F0C5093500C6093510C7093520C42
:10D0D000C957DF4F688179818A819B81C758D040C9
:10D0E00060934B0C70934C0C80934D0C90934E0CB2
:10D0F000CD57DF4F88819981AA81BB81C358D04029
:10D100008093470C9093480CA093490CB0934A0C21
:10D110000E941C5C0E94B068C456DF4F0FB6F894A2
:10D12000DEBF0FBECDBFCF91DF911F910F91FF905A
:10D13000EF90DF90CF90BF90AF909F908F907F90B7
:10D140006F905F904F903F902F90089510927111C3
:10D15000109274111092771108958093A803089586
:10D16000EFE6F0E08081826080830895099A3C9A1E
:10D170009A9AEAE0F1E08081806180838081846016
:10D1800080830D9A159A0F9A179A3A9A429A989A0A
:10D19000A09A8081826080839FB7F894EBE0F1E0F1
:10D1A0008081826080839FBF0898109A0C98149A9F
:10D1B0003F98479A0A98129A0E98169A3D98459A5F
:10D1C0000B9A1398159A109276073E9A4698179ADA
:10D1D00010927707389A4098429A10927807EAE0BE
:10D1E000F1E08081806480839FB7F894EBE0F1E008
:10D1F00080818F7B80839FBFA09AEAE0F1E08081ED
:10D20000816080839FB7F894EBE0F1E080818E7FAE
:10D2100080839FBFA1E8B0E08C918F7E8C938C912E
:10D2200088608C93E0E8F0E080818D7F808380814E
:10D230008E7F808380818F73808380818F7C8083C9
:10D240008C91887F82608C9380E090E49093890039
:10D25000809388001092850010928400EFE6F0E041
:10D2600080818260808381E08093A8037894089510
:10D270001F93FC011FB7F89480819181A281B38133
:10D2800080934B1190934C11A0934D11B0934E117C
:10D29000FB0180819181A281B38180934F11909392
:10D2A0005011A0935111B0935211FA0180819181D4
:10D2B000A281B3818093531190935411A09355117F
:10D2C000B0935611F90180819181A281B38180933D
:10D2D000571190935811A0935911B0935A111FBF31
:10D2E0001F910895FC012FB7F89480819181A2814C
:10D2F000B3818093571190935811A0935911B09313
:10D300005A112FBF0895E82F8FB7F894F0E0EE0F71
:10D31000FF1FEE0FFF1FE55BFE4E20813181428132
:10D3200053818FBFB901CA01089580916F008D7F2D
:10D3300080936F0006C0809128118F5F8F7080935B
:10D3400028119091271180912811981751F410926B
:10D350003E1110923D1180916F00826080936F00AA
:10D3600008959091271180912811981751F3E3CFD8
:10D370009091271180912811981739F00E94E97631
:10D380000E942A1B0E9403CFF3CF08950E94B86920
:10D39000159A10927607179A10927707429A109270
:10D3A0007807A09A08951F920F920FB60F920BB6AE
:10D3B0000F921124AF92BF92CF92DF92EF92FF9221
:10D3C0000F931F932F933F934F935F936F937F938D
:10D3D0008F939F93AF93BF93CF93DF93EF93FF937D
:10D3E00080913D1190913E11892B09F094C190914B
:10D3F000271180912811981719F4E0E0F0E014C08B
:10D400008091281190E02DE430E0829FF001839F0D
:10D41000F00D929FF00D1124E95AF34FE45BFF4F9A
:10D4200081E08083EC54F040F0933E11E0933D1195
:10D43000309709F46AC1E45BFF4F81E08083EC54CC
:10D44000F04010928011109281111092821110926E
:10D45000831160AD71AD2CE96134720718F060E49E
:10D460007CE904C03EE46132730730F0769567953D
:10D470007695679584E007C047E26131740730F024
:10D480007695679582E08093791107C08093791132
:10D490006032710510F460E270E06052704058E054
:10D4A00060307507E8F0472F50E0440F551F440FD8
:10D4B000551F4D59574F9A012E5F3F4FF9018591E6
:10D4C00094919C01AA27639FC001629F810D9A1FBE
:10D4D00006948A1F9A1F1124FA01459154911EC087
:10D4E000CB01969587958C7F8D59934FFC01459183
:10D4F0005491FC01329625913491862F90E08770EB
:10D500009070FC012E9FC0012F9F900D3E9F900DAB
:10D510001124B3E096958795BA95E1F7481B590B0E
:10D5200044365105A8F4EFEEF2E007C08091C00048
:10D5300085FFFCCF31969093C60090819923B1F777
:10D5400089ED99E04AE050E00E948D4144E650E0C8
:10D5500050938511409384118091791180938611A5
:10D5600010928711E0913D11F0913E1164AD75ADBF
:10D5700070937F1160937E11FCE961347F0718F08E
:10D5800060E47CE904C02EE46132720730F07695E5
:10D5900067957695679584E007C037E26131730738
:10D5A00030F07695679582E08093791108C081E02C
:10D5B000809379116032710510F460E270E060527E
:10D5C000704048E060307407E8F0472F50E0440FA7
:10D5D000551F440F551F4D59574F9A012E5F3F4F0E
:10D5E000F901859194919C01AA27639FC001629FD4
:10D5F000810D9A1F06948A1F9A1F1124FA014591E2
:10D6000054911EC0CB01969587958C7F8D59934F71
:10D61000FC0145915491FC01329625913491862F5D
:10D6200090E087709070FC012E9FC0012F9F900D9D
:10D630003E9F900D112433E0969587953A95E1F73A
:10D64000481B590B44365105A8F4EFEEF2E007C031
:10D650008091C00085FFFCCF31969093C6009081E9
:10D660009923B1F789ED99E04AE050E00E948D419D
:10D6700044E650E0CA01A0E0B0E080937A119093B4
:10D680007B11A0937C11B0937D115093890040933E
:10D690008800E0913D11F0913E1180899189A28925
:10D6A000B389B695A79597958795B095A0959095D0
:10D6B00081959F4FAF4FBF4F80935B1190935C114B
:10D6C000A0935D11B0935E1180935F1190936011F0
:10D6D000A0936111B09362118093631190936411D0
:10D6E000A0936511B09366118093671190936811B0
:10D6F000A0936911B0936A1110926B1110926C1182
:10D7000010926D1110926E1106C080ED97E090930B
:10D71000890080938800C0913D11D0913E112097DF
:10D7200009F438C588A180936F1180FF03C0119A56
:10D730008FEF02C0119881E08093A40380916F1154
:10D7400081FF03C044988FEF02C0449A81E0809328
:10D75000A50380916F119091A80380FF36C0992393
:10D7600009F46BC020B1217031E0232759F1809179
:10D770007011882339F188819981AA81BB8118169B
:10D7800019061A061B06F4F480914B1190914C1166
:10D79000A0914D11B0914E1180933F119093401183
:10D7A000A0934111B09342113093711188899989E6
:10D7B000AA89BB8980936B1190936C11A0936D1112
:10D7C000B0936E112093701138C09923B1F180B1DC
:10D7D000869586958095282F217080FF2CC080919A
:10D7E0007211882341F188819981AA81BB81181621
:10D7F00019061A061B06FCF480914B1190914C11EE
:10D80000A0914D11B0914E1180933F119093401112
:10D81000A0934111B093421181E0809371118889E6
:10D820009989AA89BB8980936B1190936C11A093FD
:10D830006D11B0936E112093721180916F119091C0
:10D84000A80381FF3AC0992309F471C080B1829581
:10D850008F708095282F217080FF2CC080917311CC
:10D86000882341F18C819D81AE81BF8118161906F4
:10D870001A061B06FCF480914F1190915011A09153
:10D880005111B09152118093431190934411A09380
:10D890004511B093461181E080937411888999896C
:10D8A000AA89BB8980936B1190936C11A0936D1121
:10D8B000B0936E11209373113AC09923C1F180B1D6
:10D8C00082958695869583708095282F217080FF9C
:10D8D0002CC080917511882341F18C819D81AE818E
:10D8E000BF81181619061A061B06FCF480914F1109
:10D8F00090915011A0915111B09152118093431108
:10D9000090934411A0934511B093461181E0809308
:10D91000741188899989AA89BB8980936B11909326
:10D920006C11A0936D11B0936E11209375118091BD
:10D930006F119091A80382FF39C0A29A8FEF809354
:10D94000A603992309F46EC020E037992CC021E08A
:10D9500080917611882339F188859985AA85BB85C0
:10D96000181619061A061B06F4F4809153119091AB
:10D970005411A0915511B091561180934711909375
:10D980004811A0934911B0934A11209377118889C7
:10D990009989AA89BB8980936B1190936C11A0938C
:10D9A0006D11B0936E11209376113CC0A29831E0B6
:10D9B0003093A6039923B1F186B18295869587703D
:10D9C0008095282F217080FF2BC0809178118823AB
:10D9D00039F188859985AA85BB85181619061A0616
:10D9E0001B06F4F48091531190915411A09155119C
:10D9F000B09156118093471190934811A09349110B
:10DA0000B0934A113093771188899989AA89BB8983
:10DA100080936B1190936C11A0936D11B0936E1164
:10DA20002093781180916F1183FF0AC08FB7F8940B
:10DA300090910B019F7E90930B018FBF8FEF09C0D8
:10DA40008FB7F89490910B01906190930B018FBF69
:10DA500081E08093A70360E070E079C18091C0000D
:10DA600087FF19C04091C600E091D509F091D60911
:10DA700031969F012F77307031978091D70990911F
:10DA8000D8092817390739F0EB5AF64F40833093FD
:10DA9000D6092093D509288139814A815B818091FB
:10DAA0005B1190915C11A0915D11B0915E11280FF6
:10DAB000391F4A1F5B1F20935B1130935C11409309
:10DAC0005D1150935E1112161306140615066CF5BF
:10DAD000139A88899989AA89BB89281B390B4A0B13
:10DAE0005B0B20935B1130935C1140935D1150935D
:10DAF0005E1120914B1130914C1140914D1150917C
:10DB00004E118091A403992787FD9095A92FB92FD5
:10DB1000820F931FA41FB51F80934B1190934C113C
:10DB2000A0934D11B0934E1113982C813D814E81DD
:10DB30005F8180915F1190916011A0916111B0910E
:10DB40006211280F391F4A1F5B1F20935F1130930A
:10DB5000601140936111509362111216130614065E
:10DB600015066CF5469A88899989AA89BB89281B6C
:10DB7000390B4A0B5B0B20935F113093601140937C
:10DB800061115093621120914F11309150114091C9
:10DB90005111509152118091A503992787FD9095BD
:10DBA000A92FB92F820F931FA41FB51F80934F1168
:10DBB00090935011A0935111B0935211469828851B
:10DBC00039854A855B858091631190916411A0919C
:10DBD0006511B0916611280F391F4A1F5B1F2093F2
:10DBE00063113093641140936511509366111216BE
:10DBF0001306140615066CF5409A88899989AA8936
:10DC0000BB89281B390B4A0B5B0B209363113093A4
:10DC10006411409365115093661120915311309116
:10DC2000541140915511509156118091A603992796
:10DC300087FD9095A92FB92F820F931FA41FB51FA1
:10DC40008093531190935411A0935511B093561192
:10DC500040982C853D854E855F8580916711909118
:10DC60006811A0916911B0916A11280F391F4A1FDC
:10DC70005B1F209367113093681140936911509393
:10DC80006A111216130614061506DCF59FB7F894F0
:10DC900080910B01806480930B019FBF88899989D3
:10DCA000AA89BB89281B390B4A0B5B0B2093671190
:10DCB000309368114093691150936A112091571164
:10DCC000309158114091591150915A118091A703E8
:10DCD000992787FD9095A92FB92F820F931FA41F15
:10DCE000B51F8093571190935811A0935911B09379
:10DCF0005A119FB7F89480910B018F7B80930B0191
:10DD00009FBF80916B1190916C11A0916D11B0919A
:10DD10006E110196A11DB11D80936B1190936C1132
:10DD2000A0936D11B0936E1120916B1130916C1115
:10DD300040916D1150916E116F5F7F4F8889998965
:10DD4000AA89BB89281739074A075B0738F48091ED
:10DD5000791190E0681779070CF480CE20916B114F
:10DD600030916C1140916D1150916E118C899D898B
:10DD7000AE89BF8982179307A407B50708F4E3C0EB
:10DD8000E0907A11F0907B1100917C1110917D113F
:10DD9000AC8CBD8CCE8CDF8CA8019701C601B5017F
:10DDA000AA27279FB12D389FF001489FF00D479F6C
:10DDB000E00DF11D289FB00DE11DFA1F379FB00D3A
:10DDC000E11DFA1F469FB00DE11DFA1F369FB10DF0
:10DDD000EA1FFA1FB695EA1FFA1F11248CAD9DADFC
:10DDE0008E0F9F1F90937F1180937E1128AD39ADC8
:10DDF0004AAD5BADA0E0B0E0281739074A075B07E2
:10DE000020F430937F1120937E1160917E117091E8
:10DE10007F118CE96134780718F060E47CE904C074
:10DE20009EE46132790730F076956795769567952F
:10DE300084E007C0E7E261317E0730F076956795B0
:10DE400082E08093791108C081E08093791160327B
:10DE5000710510F460E270E060527040F8E06030EC
:10DE60007F07E8F0472F50E0440F551F440F551F20
:10DE70004D59574F9A012E5F3F4FF901859194916B
:10DE80009C01AA27639FC001629F810D9A1F06947F
:10DE90008A1F9A1F1124FA01459154911EC0CB018B
:10DEA000969587958C7F8D59934FFC0145915491A0
:10DEB000FC01329625913491862F90E08770907006
:10DEC000FC012E9FC0012F9F900D3E9F900D1124AD
:10DED000B3E096958795BA95E1F7481B590B443600
:10DEE0005105A8F4EFEEF2E007C08091C00085FF75
:10DEF000FCCF31969093C60090819923B1F789EDBC
:10DF000099E04AE050E00E948D4144E650E0509391
:10DF10008900409388009A0140E050E080917A1196
:10DF200090917B11A0917C11B0917D11820F931F74
:10DF3000A41FB51F80937A1190937B11A0937C113D
:10DF4000B0937D1102C120916B1130916C11409101
:10DF50006D1150916E11888D998DAA8DBB8D821790
:10DF60009307A407B50708F0E4C060918011709191
:10DF7000811180918211909183112C8D3D8D4E8D58
:10DF80005F8DAA27639FB12D749FF001849FF00DD0
:10DF9000839FE00DF11D649FB00DE11DFA1F739F7B
:10DFA000B00DE11DFA1F829FB00DE11DFA1F729F97
:10DFB000B10DEA1FFA1FB695EA1FFA1F11248091CE
:10DFC0007E1190917F118E179F0738F4C05CDF4F50
:10DFD00068817981C054D04003C0BC016E1B7F0BA7
:10DFE000C05CDF4F288139814A815B81CB01A0E091
:10DFF000B0E082179307A407B50708F4B901FCE95C
:10E0000061347F0718F060E47CE904C02EE46132DB
:10E01000720730F0769567957695679584E007C02E
:10E0200037E26131730730F07695679582E080932F
:10E03000791108C081E0809379116032710510F484
:10E0400060E270E06052704048E060307407E8F0D1
:10E05000472F50E0440F551F440F551F4D59574F40
:10E060009A012E5F3F4FF901859194919C01AA2757
:10E07000639FC001629F810D9A1F06948A1F9A1F99
:10E080001124FA01459154911EC0CB0196958795B4
:10E090008C7F8D59934FFC0145915491FC01329630
:10E0A00025913491862F90E087709070FC012E9F0F
:10E0B000C0012F9F900D3E9F900D112423E0969557
:10E0C00087952A95E1F7481B590B44365105A8F46A
:10E0D000EFEEF2E007C08091C00085FFFCCF3196E3
:10E0E0009093C60090819923B1F789ED99E04AE0B9
:10E0F00050E00E948D4144E650E0509389004093E7
:10E1000088009A0140E050E0809180119091811147
:10E11000A0918211B0918311820F931FA41FB51F8C
:10E120008093801190938111A0938211B0938311F9
:10E130000CC08091841190918511909389008093F7
:10E140008800809186118093791120916B11309114
:10E150006C1140916D1150916E11E0913D11F09153
:10E160003E1180899189A289B389281739074A0706
:10E170005B0780F010923E1110923D119091271193
:10E1800080912811981731F0809128118F5F8F703E
:10E1900080932811FF91EF91DF91CF91BF91AF91C3
:10E1A0009F918F917F916F915F914F913F912F91AF
:10E1B0001F910F91FF90EF90DF90CF90BF90AF90A5
:10E1C0000F900BBE0F900FBE0F901F90189580916F
:10E1D0007111882349F480917411882329F4809166
:10E1E0007711882309F49CC0E3E6F0E1949108C01C
:10E1F0008091C00085FFFCCF9093C600319694912A
:10E200009923B1F7E5EAF0E1949108C08091C0004C
:10E2100085FFFCCF9093C600319694919923B1F776
:10E22000809171118823F1F060913F11709140113C
:10E2300080914111909142110E94BAD92091FB0B1B
:10E240003091FC0B4091FD0B5091FE0B0E941FD9A9
:10E25000AB01BC0181EA90E10E94E81E81E990E1F6
:10E260000E94D1CE809174118823F1F06091431106
:10E270007091441180914511909146110E94BAD934
:10E280002091FF0B3091000C4091010C5091020C39
:10E290000E941FD9AB01BC018DE890E10E94E81EED
:10E2A0008DE790E10E94D1CE809177118823F1F023
:10E2B00060914711709148118091491190914A11D4
:10E2C0000E94BAD92091030C3091040C4091050CA6
:10E2D0005091060C0E941FD9AB01BC0189E790E167
:10E2E0000E94E81E89E690E10E94D1CEE3E0F3E0CF
:10E2F00007C08091C00085FFFCCF31969093C60087
:10E3000090819923B1F78091C00085FFFCCF8AE00E
:10E310008093C600109271111092741110927711AF
:10E32000089560E070E08FE793E42091AD033091B1
:10E33000AE034091AF035091B0030E941FD9609388
:10E34000BA117093BB118093BC119093BD110895C5
:10E35000FC0197FF03C08091981103C0E156FE4E67
:10E36000808190E008952F923F924F925F926F923A
:10E370007F928F929F92AF92BF92CF92DF92EF9255
:10E38000FF920F931F93CF93DF93EC0121E030E0D6
:10E39000A901440F551F440F551FFA01E956FE4EBF
:10E3A00085919491C817D9070CF059C0B9016150F3
:10E3B0007040660F771F660F771FCB0187569E4E02
:10E3C000FC010591149169567E4EFB01C590D490D5
:10E3D000FA01E756FE4EE590F490FA01E956FE4E3A
:10E3E000A590B490B801882777FD8095982F0E945A
:10E3F000BAD91B012C01CC19DD09BE01882777FD94
:10E400008095982F0E94BAD93B014C01E01AF10A7D
:10E410000027F7FC0095102FC801B7010E94BAD958
:10E420009B01AC01C401B3010E94F8DB7B018C01AC
:10E43000AC18BD08CC24B7FCC094DC2CC601B501D7
:10E440000E94BAD99B01AC01C801B7010E941FD933
:10E450009B01AC01C201B1010E943FD819C0822FBB
:10E460008F5F2F5F3F4F2133310509F091CF81330B
:10E4700029F0E0E070E080E060E00CC0E9E5F2E166
:10E4800065917491882777FD8095982F0E94BAD95D
:10E49000E62F692F2E2F372F482F562FB901CA018B
:10E4A000DF91CF911F910F91FF90EF90DF90CF9070
:10E4B000BF90AF909F908F907F906F905F904F90A4
:10E4C0003F902F9008951092891110928811109208
:10E4D0009F11749810928B1110928A111092A011B2
:10E4E000759810928B1110928A1110929811A5981C
:10E4F00008952DEB37E346E05EE30E94F8DB0895D4
:10E500002DEB37E346E05EE30E941FD908952DEB23
:10E5100037E346E05EE30E941FD908952DEB37E311
:10E5200046E05EE30E94F8DB0895A5980E94D619A4
:10E53000882339F5E4EBF0E1949108C08091C000A4
:10E5400085FFFCCF9093C600319694919923B1F743
:10E55000ECECF0E1949108C08091C00085FFFCCF05
:10E560009093C600319694919923B1F78091C000A1
:10E5700085FFFCCF8AE08093C6008BEB90E10E9480
:10E58000E0CE0E947D1A08951F93182F0E94637297
:10E590000E94D619882309F036C0E4EBF0E194918B
:10E5A00008C08091C00085FFFCCF9093C6003196D3
:10E5B00094919923B1F789ED99E0612F70E04AE0D9
:10E5C00050E00E9463418091C00085FFFCCF8AE04B
:10E5D0008093C600E3E1F1E1949108C08091C0000E
:10E5E00085FFFCCF9093C600319694919923B1F7A3
:10E5F0008091C00085FFFCCF8AE08093C60086E052
:10E6000091E10E94E0CE0E947D1A1F9108951F9310
:10E61000182F0E9463720E94D619882309F036C011
:10E62000E4EBF0E1949108C08091C00085FFFCCF3D
:10E630009093C600319694919923B1F789ED99E0B2
:10E64000612F70E04AE050E00E9463418091C00079
:10E6500085FFFCCF8AE08093C600EDE4F1E1949160
:10E6600008C08091C00085FFFCCF9093C600319612
:10E6700094919923B1F78091C00085FFFCCF8AE087
:10E680008093C60080E491E10E94E0CE0E947D1A52
:10E690001F9108951F920F920FB60F920BB60F9213
:10E6A00011242F933F934F935F936F937F938F9397
:10E6B0009F93AF93BF93EF93FF939091BD039923E3
:10E6C00091F480919F118093A411882311F0749A82
:10E6D00001C07498809198118093A311882311F040
:10E6E000A59A01C0A5988091A411891708F474987F
:10E6F0008091A311891708F4A5989F5F9F77909345
:10E70000BD038091BE03843009F471C0853050F49C
:10E71000813021F1813098F08230F1F1833009F0BD
:10E720009FC049C0863009F48DC0863008F46EC0A1
:10E73000873009F48BC0883009F092C08FC088E020
:10E7400080937B0080E480937C0080917A008064D9
:10E7500080937A000E94549B81E01BC080917800D6
:10E7600090917900A0E0B0E02091B1113091B21108
:10E770004091B3115091B411280F391F4A1F5B1FEC
:10E780002093B1113093B2114093B3115093B4114F
:10E7900082E08093BE0364C088E080937B0082E4C3
:10E7A00080937C0080917A00806480937A000E943C
:10E7B000549B83E0EECF8091780090917900A0E0A7
:10E7C000B0E02091A5113091A6114091A711509170
:10E7D000A811280F391F4A1F5B1F2093A5113093E2
:10E7E000A6114093A7115093A81184E0D2CF88E0DE
:10E7F00080937B0081E480937C0080917A00806428
:10E8000080937A000E94549B85E0C3CF809178006A
:10E8100090917900A0E0B0E02091AD113091AE115F
:10E820004091AF115091B011280F391F4A1F5B1F43
:10E830002093AD113093AE114093AF115093B011AE
:10E8400086E0A7CF0E94549B87E0A3CF1092BE031F
:10E850008091B5118F5F8093B51102C01092BE03F5
:10E860008091B511803108F466C08091A011882391
:10E8700081F48091B1119091B21190938D11809398
:10E880008C118091A5119091A61190939311809372
:10E89000921181E08093A0111092B5111092B111E4
:10E8A0001092B2111092B3111092B4111092AD11D6
:10E8B0001092AE111092AF111092B0111092A911D6
:10E8C0001092AA111092AB111092AC111092A511D6
:10E8D0001092A6111092A7111092A81120918C11DC
:10E8E00030918D118091B9039091BA03281739079F
:10E8F0001CF080E00E94077320918C1130918D11E3
:10E900008091A1119091A211821793071CF080E0D1
:10E910000E94C47220919211309193118091BB0397
:10E920009091BC032817390734F010928B11109284
:10E930008A110E949572FF91EF91BF91AF919F91C3
:10E940008F917F916F915F914F913F912F910F9098
:10E950000BBE0F900FBE0F901F901895EF92FF9275
:10E960000F931F93E0908E11F0908F1100919011F2
:10E97000109191116091881170918911882777FD0C
:10E980008095982F0E94BAD920E030E040EA51E407
:10E990000E943ED89B01AC01C801B7010E9418D962
:10E9A000882394F4C801B7010E9487D970939A1103
:10E9B000609399110E94A21460939B1170939C1113
:10E9C00080939D1190939E111F910F91FF90EF9056
:10E9D00008952F926F927F928F929F92AF92BF92E3
:10E9E000CF92DF92EF92FF920F931F93DF93CF931B
:10E9F000CDB7DEB729970FB6F894DEBF0FBECDBFF7
:10EA00008C01E62E662369F1E4EBF0E1949108C0F5
:10EA10008091C00085FFFCCF9093C6003196949101
:10EA20009923B1F789ED99E06E2D70E04AE050E04E
:10EA30000E946341EAE7F1E1949108C08091C0002F
:10EA400085FFFCCF9093C600319694919923B1F73E
:10EA50008091C00085FFFCCF8AE08093C6000E94B1
:10EA6000BF1AAE2DB0E0FD01EE0FFF1FE25EFB4FBF
:10EA70006081718179876887672B09F49FC0A05EE8
:10EA8000BB4F7C917B832224239479C0222D30E0DC
:10EA9000A901440F551F440F551FE885F985E40F60
:10EAA000F51F85919491081719070CF067C0C901EB
:10EAB0000197880F991F880F991FFC013296A8852E
:10EAC000B985EA0FFB1FC590D4908A0F9B1FFC01EC
:10EAD000659174917A836983FA013296EA0FFB1F7C
:10EAE000E590F490FD01E40FF51FA590B490B601F8
:10EAF000882777FD8095982F0E94BAD96C837D83F3
:10EB00008E839F8389819A81081B190BB8018827FE
:10EB100077FD8095982F0E94BAD93B014C01EC18E3
:10EB2000FD080027F7FC0095102FC801B7010E94CF
:10EB3000BAD99B01AC01C401B3010E94F8DB7B018F
:10EB40008C01A981BA81AA1ABB0ACC24B7FCC09453
:10EB5000DC2CC601B5010E94BAD99B01AC01C801E9
:10EB6000B7010E941FD99B01AC016C817D818E8110
:10EB70009F810E943FD8E62F692F09C02394BB8153
:10EB80002B1608F483CFE0E070E080E060E0FB81CA
:10EB90002F1679F5E22DF0E0EE0FFF1FEE0FFF1FAD
:10EBA000329768857985E60FF71F659174918827FC
:10EBB00077FD8095982F0E94BAD919C0B80188278F
:10EBC00077FD8095982F0E94BAD920E030E04AEF77
:10EBD0005EE30E94F8DB20E030E040E85DE30E9465
:10EBE000F8DB20E030E040E050E00E943FD8E62F24
:10EBF000692F2E2F372F482F562FB901CA0129967A
:10EC00000FB6F894DEBF0FBECDBFCF91DF911F913D
:10EC10000F91FF90EF90DF90CF90BF90AF909F90BB
:10EC20008F907F906F902F9008950F931F93CF93A5
:10EC3000DF9380E090E0A0E0B0E08093B611909385
:10EC4000B711A093B811B093B91160E070E08FE7ED
:10EC500093E42091AD033091AE034091AF03509106
:10EC6000B0030E941FD96093BA117093BB118093B7
:10EC7000BC119093BD116C9A6D9A9D9A809101017F
:10EC800080618093010187E061E070E00E94D91902
:10EC900087ED80937A0010927E0010927D00809123
:10ECA0007D00816080937D0080917D0082608093F3
:10ECB0007D0080917D00846080937D0080E888BD28
:10ECC00080916E00846080936E006AEF70E080E057
:10ECD00090E00E94B01485E090E09093BF11809383
:10ECE000BE1109C08091A1119091A21140969093FC
:10ECF000A2118093A1118091A1119091A21160E0C5
:10ED00000E94E97420E030E040EA50E40E9418D903
:10ED100087FDE8CF83E191E09093C0038093BF0328
:10ED200009C08091B9039091BA0340979093BA03B8
:10ED30008093B9038091B9039091BA0360E00E9477
:10ED4000E97420E030E849E853E40E9426DB181615
:10ED500044F3C091BB03D091BC031C2F0D2FCE01F7
:10ED60000E94B371609720E030E046E153E40E94D6
:10ED700026DB181694F31093BB030093BC03DF91BA
:10ED8000CF911F910F91089580918C1190918D11C9
:10ED900060E00E94E97460938E1170938F118093EC
:10EDA00090119093911180919211909193110E94E2
:10EDB000B371609394117093951180939611909311
:10EDC00097110E9421948FB7F8941092A0118FBFD1
:10EDD00008952F923F924F925F926F927F928F92FF
:10EDE0009F92AF92BF92CF92DF92EF92FF920F93DA
:10EDF0001F938091A011882309F41DC20E94C4763C
:10EE000060908E1170908F11809090119090911160
:10EE1000C0908811D0908911B601882777FD809520
:10EE2000982F0E94BAD9A40193010E943ED87B0179
:10EE30008C016093C0117093C1118093C2119093A3
:10EE4000C31120E030E040E251E40E9426DB1816B6
:10EE500024F481E08093C411E9C0C801B70120E027
:10EE600030E040E251EC0E9418D987FD02C0CD2865
:10EE700021F481E08093C411C4C08091C41188231F
:10EE800071F080E090E0A0E0B0E08093C511909335
:10EE9000C611A093C711B093C8111092C411C80134
:10EEA000B7012091A9033091AA034091AB0350917F
:10EEB000AC030E94F8DB1B012C016093C911709315
:10EEC000CA118093CB119093CC11C801B701209146
:10EED000C5113091C6114091C7115091C8110E94BF
:10EEE0003FD85B016C01E090B611F090B711009132
:10EEF000B8111091B911A80197010E9418D987FD86
:10EF000012C0E090BA11F090BB110091BC111091A9
:10EF1000BD11C601B501A80197010E9426DB181694
:10EF200014F086017501E092C511F092C6110093AC
:10EF3000C7111093C811C801B7012091AD033091DA
:10EF4000AE034091AF035091B0030E94F8DB5B0128
:10EF50006C016093CD117093CE118093CF1190937B
:10EF6000D011C401B3012091D1113091D21140913F
:10EF7000D3115091D4110E943ED82091B103309109
:10EF8000B2034091B3035091B4030E94F8DB20ED2B
:10EF90003CEC4CE45DE30E94F8DB7B018C0160916A
:10EFA000D5117091D6118091D7119091D81123E38A
:10EFB00033E343E75FE30E94F8DB9B01AC01C80148
:10EFC000B7010E943FD87B018C016093D5117093EB
:10EFD000D6118093D7119093D811C201B101A60127
:10EFE00095010E943FD8A80197010E943ED87B015D
:10EFF0008C0120E030E040E050E00E9418D98823E6
:10F000005CF40F2EF0E0EF2EF0E0FF2EF0E00F2F7B
:10F01000F0E01F2FF02D14C0C801B70120E030E050
:10F020004FE753E40E9426DB181654F40F2EF0E04D
:10F03000EF2EF0E0FF2EFFE70F2FF3E41F2FF02D50
:10F040006092D1117092D2118092D3119092D4110A
:10F050006091BE117091BF11882777FD8095982F20
:10F060000E94BAD99B01AC01C401B3010E9426DB06
:10F070001816DCF46091BF037091C003882777FDF8
:10F080008095982F0E94BAD99B01AC01C401B301AD
:10F090000E9418D988234CF4C801B7010E9487D96F
:10F0A0007595679560939F1102C010929F11809192
:10F0B0009B1190919C11A0919D11B0919E11009770
:10F0C000A105B10509F461C00E94A21420919B1111
:10F0D00030919C1140919D1150919E11621B730BB8
:10F0E000840B950B61547C498040904008F44DC0DE
:10F0F0006091991170919A11665F7F4F882777FD13
:10F100008095982F0E94BAD99B01AC0160918E1115
:10F1100070918F1180919011909191110E9418D946
:10F1200088235CF5109289111092881181E692E192
:10F130000E94D1CEEBE5F2E1949108C08091C0002D
:10F1400085FFFCCF9093C600319694919923B1F737
:10F15000E4E0F3E007C08091C00085FFFCCF31966A
:10F160009093C60090819923B1F78091C00085FFEC
:10F17000FCCF8AE08093C60008C010929B111092C9
:10F180009C1110929D1110929E110E94A214209128
:10F19000D9113091DA114091DB115091DC11621BD1
:10F1A000730B840B950B685873418040904008F4B2
:10F1B00042C00E94A2146093D9117093DA11809317
:10F1C000DB119093DC11E0909411F0909511009177
:10F1D000961110919711C801B70120E030E040EA84
:10F1E00050E40E9426DB18161CF5C801B70120E088
:10F1F00030E046E153E40E9418D98823CCF46091B2
:10F200008A1170918B11882777FD8095982F0E9425
:10F21000BAD99B01AC01C801B7010E9426DB882343
:10F220001CF01092981107C08FE78093981103C0CB
:10F2300010929811A5981F910F91FF90EF90DF9079
:10F24000CF90BF90AF909F908F907F906F905F9086
:10F250004F903F902F9008952F923F924F925F9240
:10F260006F927F928F929F92AF92BF92CF92DF92D6
:10F27000EF92FF920F931F93DF93CF93CDB7DEB73B
:10F28000E6970FB6F894DEBF0FBECDBF6C8F7D8FB3
:10F290008E8F9F8F5EAB4DAB39A328A30E94A21423
:10F2A000698B7A8B8B8B9C8B2DA93EA922303105E3
:10F2B0001CF4E3E1F3E019C0E6E2F3E007C080915B
:10F2C000C00085FFFCCF31969093C60090819923B2
:10F2D000B1F78091C00085FFFCCF14C48091C000BD
:10F2E00085FFFCCF31969093C60090819923B1F7AA
:10F2F0008091C00085FFFCCF8AE08093C6000E9409
:10F3000063724DA95EA957FF74C08FE7809398116F
:10F3100089899A89AB89BC898D879E87AF87B88B8D
:10F3200089879A87AB87BC8719AA1AAA1BAA1CAA25
:10F330001F8A1E8A91E09D8B1D821E821F82188665
:10F340008FE7A82EB12CC12CD12C0FE7202E312C09
:10F35000412C512C20E030E040E050E029833A83FA
:10F360004B835C830F2EF0E06F2EF0E47F2EFCE1E8
:10F370008F2EF6E49F2EF02D4DA95EA941565E4ECC
:10F380005BA34AA3E2E6F3E154915CA3EDE5F3E16C
:10F3900084918DA3E6E5F3E194919EA3EFE4F3E17C
:10F3A000A491AFA3E9E4F3E1B491B8A7E3E4F3E1F6
:10F3B000249129A7E5E3F3E134913AA7EFE2F3E1E1
:10F3C00044914BA7E9E2F3E154915CA7E3E2F3E156
:10F3D00084918DA7ADA9BEA9AA0FBB1FAA0FBB1F01
:10F3E000A257BE4EBFA7AEA7E9EEF2E1B491B8AB0B
:10F3F00007C0EDA9FEA9E156FE4E8FE7808388CFB6
:10F400008091A011882309F4A3C20E94C476EDA9BB
:10F41000FEA9F7FF0DC0F0919411F9AB2091951161
:10F420002AAB309196113BAB409197114CAB11C078
:10F43000AEA5BFA5BC91B9ABEEA5FFA5F181FAAB16
:10F44000AEA5BFA51296BC91BBABEEA5FFA5F381FF
:10F45000FCAB69817A818B819C8129A93AA94BA94E
:10F460005CA90E9426DB181644F089A99AA9ABA9C9
:10F47000BCA989839A83AB83BC83C401B30129A946
:10F480003AA94BA95CA90E9418D987FD06C089A991
:10F490009AA9ABA9BCA93C014D012D89222309F4ED
:10F4A00051C069A97AA98BA99CA92C8D3D8D4E8D3F
:10F4B0005F8D0E9426DB18160CF04AC20E94A2142F
:10F4C00029853A854B855C85621B730B840B950BF4
:10F4D000695873418040904008F43AC2D601C50192
:10F4E00082199309A409B5094DA95EA957FF07C060
:10F4F000B595A795979587958093981107C0B59571
:10F50000A79597958795EAA1FBA180830E94A214F5
:10F510006D877E878F87988B9B01AC0189859A8543
:10F52000AB85BC85281B390B4A0B5B0B2D833E83B7
:10F530004F8358872C8D3D8D4E8D5F8D29833A8367
:10F540004B835C8369A97AA98BA99CA92C8D3D8DDD
:10F550004E8D5F8D0E9418D988230CF0F8C10E944F
:10F56000A2142D853E854F855889621B730B840B31
:10F57000950B695873418040904008F4E8C10E949F
:10F58000A21469877A878B879C874E895F89452B70
:10F5900009F4B8C1DC01CB012D853E854F85588922
:10F5A000821B930BA40BB50B2D813E814F81588597
:10F5B000280F391F4A1F5B1F288F398F4A8F5B8F97
:10F5C0002D813E814F815885281B390B4A0B5B0BDF
:10F5D000CA01B901A20191010E94CADC288D398DAE
:10F5E0004A8D5B8D0E9432DD2A0D3B1D4C1D5D1D39
:10F5F00024313105410551055CF474E1272E312C8D
:10F60000412C512C64E1A62EB12CC12CD12C1FC051
:10F6100059016A013CEEA316B104C104D1042CF0D7
:10F620005BEEA52EB12CC12CD12C40E8A416B10460
:10F63000C104D1041CF41501260109C04EEF242E8B
:10F64000312C412C512C2A183B084C085D089CA1F8
:10F65000E2E6F3E108C08091C00085FFFCCF909303
:10F66000C600319694919923B1F789ED99E0B601DE
:10F67000A5012AE030E00E942E419DA1EDE5F3E1D5
:10F6800008C08091C00085FFFCCF9093C6003196E2
:10F6900094919923B1F789ED99E0B201A1012AE093
:10F6A00030E00E942E419EA1E6E5F3E108C0809182
:10F6B000C00085FFFCCF9093C600319694919923AA
:10F6C000B1F789ED99E0B401A30122E030E00E9496
:10F6D0003E429FA1EFE4F3E108C08091C00085FFA6
:10F6E000FCCF9093C600319694919923B1F789EDA0
:10F6F00099E049815A816B817C8122E030E00E944F
:10F700003E428091C00085FFFCCF8AE08093C60016
:10F710008E899F8903970CF4F5C0C201B1010E9444
:10F72000BAD920E030E040E850E40E94F8DB7B01E9
:10F730008C0169817A818B819C81A40193010E9453
:10F740003ED820ED3FE049E450E40E94F8DB20E0A1
:10F7500030E040E05FE30E94F8DB9B01AC01C801B0
:10F76000B7010E941FD97B018C01688D798D8A8D2C
:10F770009B8D0E94BAD920E030E04AE754E40E9411
:10F780001FD93B014C0198A5E9E4F3E108C0809141
:10F79000C00085FFFCCF9093C600319694919923C9
:10F7A000B1F789ED99E0B801A70122E030E00E94AD
:10F7B0003E4299A5E3E4F3E108C08091C00085FFD3
:10F7C000FCCF9093C600319694919923B1F789EDBF
:10F7D00099E0B401A30122E030E00E943E42809112
:10F7E000C00085FFFCCF8AE08093C600C801B70146
:10F7F0002AE939E949E15FE30E94F8DB7B018C01EA
:10F800009AA5E5E3F3E108C08091C00085FFFCCF35
:10F810009093C600319694919923B1F78091C000DE
:10F8200085FFFCCF8AE08093C6009BA5EFE2F3E161
:10F8300008C08091C00085FFFCCF9093C600319630
:10F8400094919923B1F789ED99E0B801A70122E0DD
:10F8500030E00E943E428091C00085FFFCCF8AE0EC
:10F860008093C6009CA5E9E2F3E108C08091C00046
:10F8700085FFFCCF9093C600319694919923B1F700
:10F88000C801B701A80197010E943FD8A4019301C4
:10F890000E941FD9AB01BC0189ED99E022E030E064
:10F8A0000E943E428091C00085FFFCCF8AE0809399
:10F8B000C6009DA5E3E2F3E108C08091C00085FF8A
:10F8C000FCCF9093C600319694919923B1F7C8016B
:10F8D000B701A40193010E94F8DB20E030E040E092
:10F8E0005EE30E94F8DBAB01BC0189ED99E022E008
:10F8F00030E00E943E428091C00085FFFCCF8AE04C
:10F900008093C600D201C1018A0D9B1DAC1DBD1D97
:10F91000EDA9FEA9F7FF07C0B595A795979587951F
:10F920008093981107C0B595A79597958795EAA1FB
:10F93000FBA180832E893F892F5F3F4F3F8B2E8B0A
:10F940006C8C7D8C8E8C9F8C31E03D8B01C01D8A30
:10F950006C8D7D8D8E8D9F8D20E030E040EA51E4EE
:10F960000E943FD89B01AC0169A97AA98BA99CA9E7
:10F970000E9426DB18169CF4E9EFF2E1949108C08E
:10F980008091C00085FFFCCF9093C6003196949182
:10F990009923B1F78091C00085FFFCCFB3C00E94CE
:10F9A000A21429893A894B895C89621B730B840BE9
:10F9B000950B615D77408040904008F454C04DA99C
:10F9C0005EA957FF11C060919811E3EFF2E19491A5
:10F9D00008C08091C00085FFFCCF9093C60031968F
:10F9E00094919923B1F711C0AAA1BBA16C91EDEE3E
:10F9F000F2E1949108C08091C00085FFFCCF909304
:10FA0000C600319694919923B1F7162F89ED99E0AC
:10FA100049A95AA96BA97CA922E030E00E943E4284
:10FA200098A9E9EEF2E108C08091C00085FFFCCF03
:10FA30009093C600319694919923B1F789ED99E09E
:10FA4000612F70E04AE050E00E9463418091C00065
:10FA500085FFFCCF8AE08093C6000E94A214698BC8
:10FA60007A8B8B8B9C8B0E94A2147B018C010E9451
:10FA7000A2142D853E854F855889E21AF30A040B9E
:10FA8000150B29853A854B855C85E21AF30A040B30
:10FA9000150BE60EF71E081F191F31E8E3163FE4A9
:10FAA000F30632E1030730E0130798F0ECECF2E1E3
:10FAB000949108C08091C00085FFFCCF9093C60050
:10FAC000319694919923B1F78091C00085FFFCCFC6
:10FAD00019C04E895F8988A199A18417950774F58B
:10FAE000E0E7F2E1949108C08091C00085FFFCCF6F
:10FAF0009093C600319694919923B1F78091C000FC
:10FB000085FFFCCF8AE08093C600E6960FB6F89496
:10FB1000DEBF0FBECDBFCF91DF911F910F91FF9040
:10FB2000EF90DF90CF90BF90AF909F908F907F909D
:10FB30006F905F904F903F902F9008950E9403CF59
:10FB40005FCCFC01128213820895FC01838188231B
:10FB500011F081E082830895FC018281811112827B
:10FB60000895CF93DF93DC01FC01EB55FE4F8081BC
:10FB700091810097C9F1019791838083ED01CC5A5F
:10FB8000DF4FFD01ED58FF4F8BE10190099281504D
:10FB9000E1F7FD01EE5AFF4FAF58BF4F8D919C9199
:10FBA0001197A157B04091838083FD01ED58FF4F1D
:10FBB00020E030E0AD014B555E4F10C02F5F3F4F4E
:10FBC000EF01DF015F968BE10D9009928150E1F723
:10FBD000858D968D329791838083B196DA018D91D0
:10FBE0009C912817390750F3DF91CF910895FC01BC
:10FBF0008AE194E0918380838781882321F0CF017B
:10FC000004960E945B460895CF92DF92EF92FF9296
:10FC10000F931F93DF93CF93CDB7DEB76F970FB6D8
:10FC2000F894DEBF0FBECDBF8C016B01095A1F4F88
:10FC3000D8018C9107551040882321F42FE2E22E41
:10FC4000F12C03C090E5E92EF12CE00EF11E8AE1C3
:10FC500094E09A8389831C821B8218861D82B701D7
:10FC60006C5F7F4FCE010596A60121E00E94684D92
:10FC7000882391F5E6E7F3E1949108C08091C000F4
:10FC800085FFFCCF9093C600319694919923B1F7EC
:10FC9000ECE7F3E1949108C08091C00085FFFCCFB0
:10FCA0009093C600319694919923B1F709C0809141
:10FCB000C00085FFFCCF0894C11CD11C9093C600E6
:10FCC000F6019081992399F78091C00085FFFCCFC0
:10FCD0008AE08093C6005AC0F801EB55FE4F2081A0
:10FCE00031812A30310508F040C02F5F3F4F31830A
:10FCF000208321503040F90185E0EE0FFF1F8A95E7
:10FD0000E1F7E21BF30BED58FF4FE00FF11F13C0BB
:10FD1000AF01415E5F4FBF018BE1DB010D90BD0183
:10FD2000DA010D92AD018150C1F792918291329624
:10FD3000968F858F7F9721503040BFEF2E3F3B0736
:10FD400039F7D801AD58BF4FF70134968BE10190D8
:10FD50000D928150E1F70F581F4FF7018281938177
:10FD6000D8018D939C9301571040D801AC5ABF4FD6
:10FD7000FE0135968BE101900D928150E1F70E5A0C
:10FD80001F4F8B819C81F80191838083CE01019666
:10FD90000E94F77D6F960FB6F894DEBF0FBECDBF01
:10FDA000CF91DF911F910F91FF90EF90DF90CF9057
:10FDB0000895EF92FF920F931F938C013EECE32E78
:10FDC00031E0F32EE80EF91EC7010E940B46C70171
:10FDD0000E945B46F801108211821F910F91FF90E3
:10FDE000EF900895CF92DF92EF92FF920F931F93BF
:10FDF000CF93DF937C016B01DB010D900020E9F7CD
:10FE00008D0101501040061B170BEEECF1E0EE0ED9
:10FE1000FF1ED7011C92E2E3FEEFEE0EFF1ECB01A8
:10FE20006EE470E00E948A11EC01009731F4F80151
:10FE30003197EC0DFD1D86010EC060E270E00E945E
:10FE40008A118C010F5F1F4FCE016AE270E00E94A1
:10FE50008A11FC0131978DE081838AE082831382CD
:10FE6000C70186539E4FB8010E946A4E8EEC91E006
:10FE7000E80EF91ED7018C91882319F1E6EAF3E127
:10FE8000949108C08091C00085FFFCCF9093C6007C
:10FE9000319694919923B1F7EDEAF3E1949108C07A
:10FEA0008091C00085FFFCCF9093C600319694915D
:10FEB0009923B1F78091C00085FFFCCF8AE0809341
:10FEC000C600DF91CF911F910F91FF90EF90DF90CF
:10FED000CF900895CF93DF93EC018B81882309F4B1
:10FEE0003BC0E5EDF3E1949108C08091C00085FF2F
:10FEF000FCCF9093C600319694919923B1F7CD57DA
:10FF0000DD4F488159816A817B81C358D24089ED98
:10FF100099E02AE030E00E940F41E3EDF3E1949193
:10FF200008C08091C00085FFFCCF9093C600319639
:10FF300094919923B1F7C558DD4F488159816A8161
:10FF40007B8189ED99E02AE030E00E940F418091A9
:10FF5000C00085FFFCCF12C0E3ECF3E1949108C030
:10FF60008091C00085FFFCCF9093C600319694919C
:10FF70009923B1F78091C00085FFFCCF8AE0809380
:10FF8000C600DF91CF9108952F923F924F925F92DA
:10FF90006F927F928F929F92AF92BF92CF92DF9299
:10FFA000EF92FF920F931F93DF93CF93CDB7DEB7FE
:10FFB000AC970FB6F894DEBF0FBECDBF5C014B010E
:10FFC000FC018381882309F438C1C50182539E4F07
:10FFD0000E945B46F50112821A8A1D8A198A188AC4
:10FFE0008AE194E09F878E875EE4C52ED12CCA0CEF
:10FFF000DB1C2FE230E0A20EB31EF601B182A0821C
:020000021000EC
:1000000021ED3FEFA20EB31EF40180818F3209F083
:1000100090C0C4016FE270E00E948A117C010894D4
:10002000E11CF11C3E010894611C711C260142E197
:10003000242E312C2C0E3D1E77C0C7016FE270E0DC
:100040000E948A116C01009709F481C0E816F90634
:1000500008F07DC08C010E191F09C301B701A8016A
:100060000E94AA11060D171DF8011082F30107C0A6
:100070008091C00085FFFCCF31969093C60090819F
:100080009923B1F78091C00085FFFCCFFAE0F0938F
:10009000C600F201608171816115710519F460E09B
:1000A00070E002C06C5F7F4FC101A30121E00E949C
:1000B000684D882371F5E1E1F4E1949108C08091E5
:1000C000C00085FFFCCF9093C60031969491992390
:1000D000B1F7FE01319607C08091C00085FFFCCFCB
:1000E00031969093C60090819923B1F7EFE0F4E147
:1000F000949108C08091C00085FFFCCF9093C6000A
:10010000319694919923B1F78091C00085FFFCCF7F
:100110008DC02EE030E02C0F3D1FF2013183208393
:1001200076010894E11CF11CE114F10409F085CF7B
:100130000BC080E590E0A80EB91EF601B182A08246
:1001400020EB3FEFA20EB31ED82C092D02C0DE2CEF
:100150000F2D8EE490E0A80EB91EF50180819181EB
:1001600022EB3FEFA20EB31E009719F480E090E05F
:1001700001C004966D2D702F0E943A4E882339F1EC
:10018000E1E0F4E1949108C08091C00085FFFCCFCC
:100190009093C600319694919923B1F78D2D902FAD
:1001A0009C01F90107C08091C00085FFFCCF31960A
:1001B0009093C60090819923B1F783E892E0A80E4E
:1001C000B91EF501108211821282138232C0E9EE4B
:1001D000F3E1949108C08091C00085FFFCCF90931B
:1001E000C600319694919923B1F78D2D902F9C01E3
:1001F000F90107C08091C00085FFFCCF3196909334
:10020000C60090819923B1F7E7EEF3E1949108C01D
:100210008091C00085FFFCCF9093C60031969491E9
:100220009923B1F78091C00085FFFCCF8AE08093CD
:10023000C600CE010E960E94F77DAC960FB6F894DC
:10024000DEBF0FBECDBFCF91DF911F910F91FF9009
:10025000EF90DF90CF90BF90AF909F908F907F9066
:100260006F905F904F903F902F900895BF92CF92E4
:10027000DF92EF92FF920F931F93CF93DF938C0146
:10028000EB018FE28993EE24E394FF2475EAC72EF5
:1002900071E0D72EC00ED11E6FE1B62E14C0FB9CAC
:1002A000C00111248D589F4F800F911FBE010E94E5
:1002B0006D4602C02196E3948881882319F08CE86A
:1002C0008E15C0F7F3942F2D30E0F60180819181D7
:1002D0002817390720F3E7FC07C0C80182539E4F57
:1002E000BE010E946D4601C01882DF91CF911F911F
:1002F0000F91FF90EF90DF90CF90BF9008952F92D5
:100300003F924F925F926F927F928F929F92AF92A5
:10031000BF92CF92DF92EF92FF920F931F93DF93E2
:10032000CF93CDB7DEB7AD970FB6F894DEBF0FBE53
:10033000CDBF6C014B014DA7DC0113968C91882336
:1003400009F44AC3E1EDF1E0CE0EDF1ED6018C9137
:10035000EFE2FEEFCE0EDF1E882309F419C122233F
:1003600009F0E1C029EE31E0C20ED31ED6018C9116
:10037000E7E1FEEFCE0EDF1E882371F1E6EAF3E13E
:10038000949108C08091C00085FFFCCF9093C60077
:10039000319694919923B1F7E9EEF4E1949108C074
:1003A0008091C00085FFFCCF9093C6003196949158
:1003B0009923B1F789ED99E061E070E04AE050E0FF
:1003C0000E9463418091C00085FFFCCF8AE080934A
:1003D000C6000E94BF1A00C3E6E7F3E1949108C08B
:1003E0008091C00085FFFCCF9093C6003196949118
:1003F0009923B1F7E0EDF4E1949108C08091C00039
:1004000085FFFCCF9093C600319694919923B1F764
:10041000F40107C08091C00085FFFCCF3196909316
:10042000C60090819923B1F7E5ECF4E1949108C0FE
:100430008091C00085FFFCCF9093C60031969491C7
:100440009923B1F7C6012EEE31E0C20ED31EB601DC
:100450000E9436814BEF5FEFC40ED51ED6019C91F2
:10046000E7E1FEEFCE0EDF1E8DE8989FF00111242C
:10047000E251FE4FEC0DFD1D07C08091C00085FFCD
:10048000FCCF31969093C60090819923B1F7EFEBA2
:10049000F4E1949108C08091C00085FFFCCF909357
:1004A000C600319694919923B1F723E832E0C20E49
:1004B000D31ED6014D915D916D917C91EDE7FDEFDD
:1004C000CE0EDF1E89ED99E02AE030E00E940F4158
:1004D0008091C00085FFFCCF8AE08093C600A60112
:1004E00047515E4FDA012C91E22FF0E0EE0FFF1F33
:1004F000EE0FFF1FEC0DFD1DE651FE4F83E892E06D
:10050000C80ED91ED6014D905D906D907C908DE700
:100510009DEFC80ED91E40825182628273822F5F86
:10052000DA012C932FC0E6E7F3E1949108C08091A3
:10053000C00085FFFCCF9093C6003196949199231B
:10054000B1F7EEEAF4E1949108C08091C00085FF14
:10055000FCCF9093C600319694919923B1F7F401A2
:1005600007C08091C00085FFFCCF31969093C600F4
:1005700090819923B1F78091C00085FFFCCF8AE07C
:100580008093C600C60182539E4F0E945B4639C0CD
:10059000E9EEF1E0CE0EDF1ED6011C92E7E1FEEFA0
:1005A000CE0EDF1EE6E7F3E1949108C08091C00013
:1005B00085FFFCCF9093C600319694919923B1F7B3
:1005C000EDE9F4E1949108C08091C00085FFFCCF73
:1005D0009093C600319694919923B1F7F40107C026
:1005E0008091C00085FFFCCF31969093C60090812A
:1005F0009923B1F78091C00085FFFCCF8AE08093FA
:10060000C600D60112961C921A8A1D8A198A188A67
:100610008AE194E09F878E87FEE4AF2EB12CAC0C6C
:10062000BD1CEFE2F0E0CE0EDF1ED501CD92DC92D4
:10063000E1EDFFEFCE0EDF1ED4018C918F3209F079
:1006400090C0C4016FE270E00E948A117C0108949E
:10065000E11CF11C3E010894611C711C2501E2E1C2
:100660002E2E312C2C0E3D1E77C0C7016FE270E09C
:100670000E948A115C01009709F481C0E816F9060E
:1006800008F07DC08C010E191F09C301B701A80134
:100690000E94AA11060D171DF8011082F30107C070
:1006A0008091C00085FFFCCF31969093C600908169
:1006B0009923B1F78091C00085FFFCCFFAE0F09359
:1006C000C600D2016D917C916115710519F460E04D
:1006D00070E002C06C5F7F4FC101A30121E00E9466
:1006E000684D882371F5E9E8F4E1949108C08091A0
:1006F000C00085FFFCCF9093C6003196949199235A
:10070000B1F7FE01319607C08091C00085FFFCCF94
:1007100031969093C60090819923B1F7E7E8F4E110
:10072000949108C08091C00085FFFCCF9093C600D3
:10073000319694919923B1F78091C00085FFFCCF49
:100740001BC12EE030E02C0F3D1FF20131832083CE
:1007500075010894E11CF11CE114F10409F085CF46
:100760000BC040E550E0C40ED51ED501CD92DC9201
:10077000E0EBFFEFCE0EDF1E082DF92C01C00E2D91
:10078000F601E25BFF4F2DA5222309F4B1C0608181
:1007900071816115710519F460E070E002C06C5F51
:1007A0007F4FC60182539E4F402F5F2D21E00E9454
:1007B000684D882309F46CC04FED51E0C40ED51E7E
:1007C000D6014D915D916D917C91ECE9F0E0CE0EFA
:1007D000DF1ED6014D935D936D937C931397E5E8EF
:1007E000FDEFCE0EDF1EE9E7F4E1949108C08091A1
:1007F000C00085FFFCCF9093C60031969491992359
:10080000B1F7802F9F2D9C01F90107C08091C00096
:1008100085FFFCCF31969093C60090819923B1F764
:10082000E1E7F4E1949108C08091C00085FFFCCF1E
:100830009093C600319694919923B1F789ED99E090
:100840002AE030E00E940F418091C00085FFFCCF7C
:100850008AE08093C60023E832E0C20ED31ED601A0
:100860001D921D921D921C921397E3E6F4E1949160
:1008700008C08091C00085FFFCCF9093C6003196E0
:1008800094919923B1F78091C00085FFFCCF99C066
:10089000EFE4F4E1949108C08091C00085FFFCCFA3
:1008A0009093C600319694919923B1F7802F9F2D94
:1008B0009C01F90107C08091C00085FFFCCF3196F3
:1008C0009093C60090819923B1F7EDE4F4E19491FF
:1008D00008C08091C00085FFFCCF9093C600319680
:1008E00094919923B1F78091C00085FFFCCF44C05B
:1008F000608171816115710519F460E070E002C0DA
:100900006C5F7F4FC60182539E4F402F5F2D26E5BF
:100910000E94684D882309F033C0E9E3F4E1949123
:1009200008C08091C00085FFFCCF9093C60031962F
:1009300094919923B1F7802F9F2D9C01F90107C055
:100940008091C00085FFFCCF31969093C6009081C6
:100950009923B1F7E7E3F4E1949108C08091C000D6
:1009600085FFFCCF9093C600319694919923B1F7FF
:100970008091C00085FFFCCF8AE08093C60028C02C
:1009800081E0F6018083E5E2F4E1949108C0809172
:10099000C00085FFFCCF9093C600319694919923B7
:1009A000B1F7F40107C08091C00085FFFCCF3196FC
:1009B0009093C60090819923B1F78091C00085FF84
:1009C000FCCF8AE08093C600802F9F2D0E94F4CE3A
:1009D000CE010E960E94F77DAD960FB6F894DEBF5D
:1009E0000FBECDBFCF91DF911F910F91FF90EF9080
:1009F000DF90CF90BF90AF909F908F907F906F903F
:100A00005F904F903F902F900895EF92FF920F9339
:100A10001F93CF93DF93EC010E94B8698E010751B9
:100A20001E4FD8018C919EECE92E91E0F92EEC0E30
:100A3000FD1E8823A1F1C7010E945B46F801608179
:100A4000615060838DE8689FB001112462517E4F30
:100A50006C0F7D1FCE0141E021E00E947F81D80113
:100A6000EC91F0E0EE0FFF1FEE0FFF1FEC0FFD1FEC
:100A7000E651FE4F4081518162817381CD57DD4F38
:100A8000488359836A837B83C358D240C7010E943D
:100A900041458B81882369F081E08A830AC00E94E6
:100AA0009569C7010E945B461A828AE693E10E941B
:100AB000F03EDF91CF911F910F91FF90EF9008953D
:100AC000FC0181E08183CF0140E021E00E947F8131
:100AD0000895EF92FF920F931F93CF93DF938C01B2
:100AE000FC01138286A9882321F0C801C3960E94C5
:100AF0005B4627EAE22E21E0F22EE00EF11EC7014E
:100B000060E045E30E940544882309F5E6E7F3E148
:100B1000949108C08091C00085FFFCCF9093C600DF
:100B2000319694919923B1F7EAE5F5E1949108C0E3
:100B30008091C00085FFFCCF9093C60031969491C0
:100B40009923B1F78091C00085FFFCCF7DC0E801FB
:100B5000C455DE4FCE01B70141E00E94FF4E88230D
:100B600041F5CE01B70140E00E94FF4E882309F510
:100B7000E6EAF3E1949108C08091C00085FFFCCFC4
:100B80009093C600319694919923B1F7E7E4F5E18B
:100B9000949108C08091C00085FFFCCF9093C6005F
:100BA000319694919923B1F78091C00085FFFCCFD5
:100BB0004BC0C801C396BE010E945C49882309F559
:100BC000E6EAF3E1949108C08091C00085FFFCCF74
:100BD0009093C600319694919923B1F7E7E3F5E13C
:100BE000949108C08091C00085FFFCCF9093C6000F
:100BF000319694919923B1F78091C00085FFFCCF85
:100C000023C081E0F8018383E6E7F3E1949108C013
:100C10008091C00085FFFCCF9093C60031969491DF
:100C20009923B1F7ECE2F5E1949108C08091C000FE
:100C300085FFFCCF9093C600319694919923B1F72C
:100C40008091C00085FFFCCF8AE08093C600D80168
:100C5000AC5ABF4FF801F3968BE101900D92815091
:100C6000E1F7F80181A992A90E5A1F4FF80191836B
:100C7000808302551040C8018F96025B1F4FF80118
:100C800091838083DF91CF911F910F91FF90EF901F
:100C900008952F923F924F925F926F927F929F9210
:100CA000AF92BF92CF92DF92EF92FF920F931F937A
:100CB000DF93CF93CDB7DEB7CC55D0400FB6F894C5
:100CC000DEBF0FBECDBF6C01662311F527E832E011
:100CD000C20ED31ED6018C91E9E7FDEFCE0EDF1ECA
:100CE000882309F4E2C02FE732E0C20ED31ED601FA
:100CF000ED90FD900D911C91E1E8FDEFCE0EDF1E11
:100D00000E94A214E616F7060807190708F4CDC0DA
:100D100027E832E0C20ED31ED6011C92E9E7FDEFB0
:100D2000CE0EDF1ED60113968C91882341F4C601A6
:100D30000E946985F6018381882309F4B6C000D03A
:100D400000D0EDB7FEB731967E010894E11CF11C8E
:100D5000ADB7BEB71296FC92EE9211978DE993E172
:100D600093838283D6019D968D919C919E979583C6
:100D700084830E94B9118701EDB7FEB736960FB68E
:100D8000F894FEBF0FBEEDBF570108C0D8018C918B
:100D900090E00E945BDDF80181938F01F5010190E5
:100DA0000020E9F73197EA19FB09802F8E198E1779
:100DB0006CF363E3A62EB12CAC0CBD1CC50140E066
:100DC00050E060E070E00E94414599245DE3E52E2B
:100DD000F12CEC0EFD1E2E010894411C511C4FE11C
:100DE000642E712C6C0E7D1E36E9232E33E1332EDA
:100DF00042C0D8018C9190E00E945BDDF8018193A4
:100E00008F01F70101900020E9F73197EE19FF09F2
:100E1000802F8E198E176CF327968FAD27978E37FC
:100E200051F1C701B20145E050E00E949C110097CA
:100E300011F500D000D0EDB7FEB73196ADB7BEB713
:100E400012967C926E92119733822282558244824E
:100E50000E94B911EDB7FEB736960FB6F894FEBFF3
:100E60000FBEEDBFC3010E94693F82E993E10E947A
:100E7000F03E99249394C501B70140E050E00E94F0
:100E80007848181614F48701BCCF992041F48FEFED
:100E90009FEFD6019E969C938E939D9706C0F60178
:100EA00085A596A5019696A785A7C45ADF4F0FB6CC
:100EB000F894DEBF0FBECDBFCF91DF911F910F9190
:100EC000FF90EF90DF90CF90BF90AF909F907F907A
:100ED0006F905F904F903F902F9008952F923F9288
:100EE0004F925F926F927F928F929F92AF92BF923A
:100EF000CF92DF92EF92FF920F931F93DF93CF93E6
:100F0000CDB7DEB7CF58D0400FB6F894DEBF0FBED6
:100F1000CDBF8C013B016A0184E090E0C80ED91E70
:100F2000F8017196C757DF4FF983E883C958D0405D
:100F3000C8010496CA57DF4F99838883C658D040AA
:100F4000C857DF4F1882C858D040B6E6EB2EF12CB8
:100F5000EC0EFD1EF7013B96C557DF4FF983E88382
:100F6000CB58D040A8E88A2EA2E09A2E800E911E7F
:100F7000F9E8AF2EF2E0BF2EA00EB11EEEE02E2E4D
:100F8000312C2C0E3D1E77E4472E512C4C0E5D1E4D
:100F9000C2010496C357DF4F99838883CD58D04050
:100FA000E6E7F3E19491C157DF4F9883CF58D040E3
:100FB00049C1F7018385282F30E0A901487150709D
:100FC0004031510509F04CC1F4019081913009F490
:100FD00047C1923009F444C1F701DE0111969081B6
:100FE000903239F08E2F8E19883011F48EE28D9365
:100FF0009D933196C557DF4F88819981CB58D0405A
:10100000E817F90761F71C921E86F3018081882397
:1010100029F4C10160E573E00E947F11C101B301B1
:101020000E947F11C101BE016F5F7F4F0E947F113F
:10103000C10160E573E00E947F111CA61FA61BA6DC
:101040001AA68AE194E099A788A7CE018C96B601EA
:10105000AE014F5F5F4F21E00E94684D882309F089
:101060003EC0F40180818823D1F5C157DF4F9881BC
:10107000CF58D040E6E7F3E108C08091C00085FF7B
:10108000FCCF9093C600319694919923B1F7E2E595
:10109000F3E007C08091C00085FFFCCF31969093AC
:1010A000C60090819923B1F78091C00085FFFCCFE5
:1010B000FAE0F093C600FE01319607C08091C000AF
:1010C00085FFFCCF31969093C60090819923B1F7AC
:1010D0008091C00085FFFCCF8AE08093C600C35793
:1010E000DF4FA881B981CD58D040FE01BC968BE17D
:1010F00001900D928150E1F78AA59BA5F20193839F
:1011000082838AE194E091838083C801B101A201C6
:101110000E946E87C2010E94F77DCE0188960E94D0
:10112000F77D90C0953E09F48DC09E3209F48AC0C7
:101130009F3509F487C0F8019189992331F09E32D7
:1011400009F480C09F3509F47DC023FD7BC080E099
:101150004031510509F481E0F80184A7882349F45E
:10116000F7018085873409F06DC081858E3709F4D9
:1011700069C0CA57DF4FA881B981C658D040F7016E
:101180008081803241F08E2F8E19883011F48EE2EA
:101190008D9380818D933196C557DF4F88819981DA
:1011A000CB58D040E817F90759F71C92F401808119
:1011B000882329F5F30107C08091C00085FFFCCF8B
:1011C00031969093C60090819923B1F7CA57DF4FAB
:1011D000E881F981C658D04007C08091C00085FFE2
:1011E000FCCF31969093C60090819923B1F78091FE
:1011F000C00085FFFCCFFAE0F093C60023C0813029
:1012000039F4F501808191810196918380831AC020
:101210008230C1F4C857DF4FF881C858D0402F2F13
:1012200030E0F5018081918128173907F1F0C85726
:10123000DF4FF881C858D040FF5FC857DF4FF883B1
:10124000C858D040C601B701C757DF4F4881598100
:10125000C958D0400E94784818160CF4AACE05C090
:10126000F7019081992309F05DCFC157DF4F0FB689
:10127000F894DEBF0FBECDBFCF91DF911F910F91CC
:10128000FF90EF90DF90CF90BF90AF909F908F90A6
:101290007F906F905F904F903F902F900895EF92C6
:1012A000FF920F931F93DF93CF93CDB7DEB76F9766
:1012B0000FB6F894DEBF0FBECDBF7C018C01025B80
:1012C0001F4F805B9F4FF8019183808328E832E0B5
:1012D000E20EF31E21E0F70121937F0111821082BB
:1012E00027E73DEFE20EF31E049640E050E060E099
:1012F00070E00E944145F80120813181DE011596A0
:10130000F90134968BE101900D928150E1F7F901DA
:10131000828193819C838B838AE194E09A83898381
:10132000C70165E673E08E010F5F1F4FA8010E94A1
:101330006E87C8010E94F77DF701E757FD4F808156
:1013400091816F960FB6F894DEBF0FBECDBFCF91DF
:10135000DF911F910F91FF90EF900895EF92FF9210
:101360000F931F93DF93CF93CDB7DEB76F970FB671
:10137000F894DEBF0FBECDBF7C018C01025B1F4F16
:10138000805B9F4FF8019183808328E832E0E20E72
:10139000F31E22E0F701208328E73DEFE20EF31E63
:1013A000F701E757FD4F60831182049640E050E05B
:1013B00060E070E00E944145F80120813181DE014A
:1013C0001596F90134968BE101900D928150E1F769
:1013D000F901828193819C838B838AE194E09A83D3
:1013E0008983C70165E673E08E010F5F1F4FA80177
:1013F0000E946E87C8010E94F77D6F960FB6F89421
:10140000DEBF0FBECDBFCF91DF911F910F91FF9037
:10141000EF900895EF92FF920F931F93DF93CF9376
:10142000CDB7DEB76F970FB6F894DEBF0FBECDBF56
:101430007C0188E892E0E80EF91EF701108288E747
:101440009DEFE80EF91E87010D5C1F4FC80140E0BB
:1014500050E060E070E00E944145DE011596F80121
:101460008BE101900D928150E1F7F70181A992A9DA
:101470009C838B838AE194E09A838983C70165E624
:1014800073E08E010F5F1F4FA8010E946E87C80195
:101490000E94F77D6F960FB6F894DEBF0FBECDBFEA
:1014A000CF91DF911F910F91FF90EF9008950F93CF
:1014B0001F93CF93DF93DC01D3961C92D397D696DC
:1014C0001C92D697D2961C921E92D1978AE194E0F4
:1014D000D0969C938E939F97AC5ABF4F1C921396B5
:1014E0001C92A755B040FD01E05BFF4FAE5ABF4FC5
:1014F00011961C921E92A255B04091838083ED01FB
:10150000C159DF4FFE0120E030E0482F14821782DE
:101510001382128240839183215E3F4F7F9681E048
:101520002633380799F7A855BE4F89E18C93139657
:101530001C9258961C921B961C9213961C92A15DAD
:10154000B140FD01E653FE4FA453BE4F11961C92CD
:101550001E9240839183A155BF4F1D921D921D92F3
:101560001C92139718961D921D921D921C92139710
:10157000A358B24012961C92129713961C9213977E
:101580001C9211961C9211978D0101581D4FF80164
:101590001082118212821382AB55BE4F11961C929B
:1015A0001E92AC5BBF4F1C92FE01C90111920197C4
:1015B000E9F7A256BF4F81E08C93A758B2409E96A0
:1015C0001C921E929D970E94A21468577C4E8F4FCA
:1015D0009F4FF8016083718382839383DF91CF9162
:1015E0001F910F910895DF93CF93CDB7DEB72A9760
:1015F0000FB6F894DEBF0FBECDBF80916603909109
:101600006703A0916803B09169038B839C83AD83CA
:10161000BE83FE01339624E630E08081F999FECF47
:101620001FBA32BD21BD80BD0FB6F894FA9AF99A5F
:101630000FBE2F5F3F4F2836310511F03196EDCFA9
:10164000EBEFFBE08081F999FECF1FBA32BD21BDDF
:1016500080BD0FB6F894FA9AF99A0FBE2F5F3F4FEC
:101660002837310511F03196EDCFEBEEFBE08081AC
:10167000F999FECF1FBA32BD21BD80BD0FB6F894D7
:10168000FA9AF99A0FBE2F5F3F4F2838310511F0B3
:101690003196EDCFEBE0FCE08081F999FECF1FBAE7
:1016A00032BD21BD80BD0FB6F894FA9AF99A0FBEEB
:1016B0002F5F3F4F2839310511F03196EDCFEFE123
:1016C000FCE08081F999FECF1FBA32BD21BD80BDFB
:1016D0000FB6F894FA9AF99A0FBE2F5F3F4F2C3944
:1016E000310511F03196EDCFE3E2FCE08081F9990C
:1016F000FECF1FBA32BD21BD80BD0FB6F894FA9A55
:10170000F99A0FBE2F5F3F4F203A310511F0319605
:10171000EDCFEBE1FCE08081F999FECF1FBA32BD3D
:1017200021BD80BD0FB6F894FA9AF99A0FBE2F5FCB
:101730003F4F243A310511F03196EDCFE3E3FCE061
:101740008081F999FECF1FBA32BD21BD80BD0FB691
:10175000F894FA9AF99A0FBE2F5F3F4F283A310555
:1017600011F03196EDCFE7EEFBE08081F999FECFE5
:101770001FBA32BD21BD80BD0FB6F894FA9AF99A0E
:101780000FBE2F5F3F4F2C3A310511F03196EDCF50
:10179000E7E2FCE08081F999FECF1FBA32BD21BD9E
:1017A00080BD0FB6F894FA9AF99A0FBE2F5F3F4F9B
:1017B000203B310511F03196EDCFEBE2FCE080816A
:1017C000F999FECF1FBA32BD21BD80BD0FB6F89486
:1017D000FA9AF99A0FBE2F5F3F4F243B310511F063
:1017E0003196EDCFEFE2FCE08081F999FECF1FBA90
:1017F00032BD21BD80BD0FB6F894FA9AF99A0FBE9A
:101800002F5F3F4F283B310511F03196EDCFEEE5CC
:10181000F7E08081F999FECF1FBA32BD21BD80BDAE
:101820000FB6F894FA9AF99A0FBE2F5F3F4F243CF7
:10183000310511F03196EDCFE8E0F2E18081F999C0
:10184000FECF1FBA32BD21BD80BD0FB6F894FA9A03
:10185000F99A0FBE2F5F3F4F263C310511F03196AC
:10186000EDCFEAE0F2E18081F999FECF1FBA32BDF7
:1018700021BD80BD0FB6F894FA9AF99A0FBE2F5F7A
:101880003F4F283C310511F03196EDCFECE0F2E10D
:101890008081F999FECF1FBA32BD21BD80BD0FB640
:1018A000F894FA9AF99A0FBE2F5F3F4F2A3C310500
:1018B00011F03196EDCFEEE0F2E18081F999FECFA3
:1018C0001FBA32BD21BD80BD0FB6F894FA9AF99ABD
:1018D0000FBE2F5F3F4F2C3C310511F03196EDCFFD
:1018E000E0E1F2E18081F999FECF1FBA32BD21BD5E
:1018F00080BD0FB6F894FA9AF99A0FBE2F5F3F4F4A
:101900002E3C310511F03196EDCFE2E1F2E180811C
:10191000F999FECF1FBA32BD21BD80BD0FB6F89434
:10192000FA9AF99A0FBE2F5F3F4F203D310511F013
:101930003196EDCFE9E7F7E08081F999FECF1FBA44
:1019400032BD21BD80BD0FB6F894FA9AF99A0FBE48
:101950002F5F3F4F243D310511F03196EDCFE9EA7D
:10196000F3E08081F999FECF1FBA32BD21BD80BD61
:101970000FB6F894FA9AF99A0FBE2F5F3F4F283DA1
:10198000310511F03196EDCFEDEAF3E08081F99960
:10199000FECF1FBA32BD21BD80BD0FB6F894FA9AB2
:1019A000F99A0FBE2F5F3F4F2C3D310511F0319654
:1019B000EDCFE1EBF3E08081F999FECF1FBA32BDA4
:1019C00021BD80BD0FB6F894FA9AF99A0FBE2F5F29
:1019D0003F4F203E310511F03196EDCF80E290E08F
:1019E0009A838983FE0131968081F999FECF1FBACF
:1019F00032BD21BD80BD0FB6F894FA9AF99A0FBE98
:101A0000213E310521F0319621EE30E0EDCF80917D
:101A10006A0390916B03A0916C03B0916D038F8367
:101A20009887A987BA87FE01379684E690E02081DF
:101A3000F999FECF1FBA92BD81BD20BD0FB6F894B3
:101A4000FA9AF99A0FBE8736910519F001963196E8
:101A5000EECFE7E6F5E1949108C08091C00085FFE4
:101A6000FCCF9093C600319694919923B1F7E1E7AA
:101A7000F7E1949108C08091C00085FFFCCF90935E
:101A8000C600319694919923B1F78091C00085FFEB
:101A9000FCCF8AE08093C6002A960FB6F894DEBF8A
:101AA0000FBECDBFCF91DF910895DF93CF93CDB718
:101AB000DEB7E0970FB6F894DEBF0FBECDBFDE01F4
:101AC0001196E1E4F4E080E101900D928150E1F79C
:101AD000DE015196E1E3F4E080E101900D92815046
:101AE000E1F7DE019196E1E2F4E080E101900D92F0
:101AF0008150E1F789819A81AB81BC818093FB0B96
:101B00009093FC0BA093FD0BB093FE0B89899A89EF
:101B1000AB89BC898093EB0B9093EC0BA093ED0BFE
:101B2000B093EE0B89A19AA1ABA1BCA180930B0C41
:101B300090930C0CA0930D0CB0930E0C8D819E8194
:101B4000AF81B8858093FF0B9093000CA093010C9C
:101B5000B093020C8D899E89AF89B88D8093EF0B6D
:101B60009093F00BA093F10BB093F20B8DA19EA17B
:101B7000AFA1B8A580930F0C9093100CA093110CFB
:101B8000B093120C89859A85AB85BC858093030C34
:101B90009093040CA093050CB093060C898D9A8D3C
:101BA000AB8DBC8D8093F30B9093F40BA093F50B4E
:101BB000B093F60B89A59AA5ABA5BCA58093130C91
:101BC0009093140CA093150CB093160C8D859E85E4
:101BD000AF85B8898093070C9093080CA093090CEB
:101BE000B0930A0C8D8D9E8DAF8DB8A18093F70BAD
:101BF0009093F80BA093F90BB093FA0B8DA59EA5CB
:101C0000AFA5B8A98093170C9093180CA093190C4A
