:100000000C94C10D0C94C9160C94FA160C942B1771
:100010000C945C170C948D170C94BE170C94EF176E
:100020000C9420180C94EE0D0C94EE0D0C94EE0D27
:100030000C94EE0D0C94998F0C94EE0D0C94EE0D27
:100040000C94EE0D0C9475660C94EE0D0C94EE0D64
:100050000C94EE0D0C94EE0D0C940D6F0C94B813E3
:100060000C94EE0D0C94BB3C0C94EE0D0C94EE0D28
:100070000C94EE0D0C94EE0D0C94EE0D0C94EE0D14
:100080000C94EE0D0C94EE0D0C94EE0D0C94EE0D04
:100090000C94EE0D0C94EE0D0C94EE0D0C94EE0DF4
:1000A0000C94EE0D0C94EE0D0C94EE0D0C94EE0DE4
:1000B0000C94EE0D0C94EE0D0C94EE0D0C94EE0DD4
:1000C0000C94EE0D0C94EE0D0C94EE0D0C94EE0DC4
:1000D0000C94EE0D0C94EE0D0C94EE0D0C94EE0DB4
:1000E0000C94EE0D084AD73B3BCE016E84BCBFFD9D
:1000F000C12F3D6C74319ABD56833DDA3D00C77FF8
:1001000011BED9E4BB4C3E916BAAAABE0000008090
:100110003F05A84CCDB2D44EB93836A9020C50B91F
:10012000918688083CA6AAAA2ABE000000803F004B
:10013000002100240027002A002D00300033000198
:10014000010000040107010A010000220025002827
:10015000002B002E003100340002010000050108D0
:10016000010B01000020002300260029002C002F95
:100170000032000001000003010601090105050528
:1001800005070508080808020202020A0A0808040E
:10019000040404010101010101010103030303033C
:1001A000030303040707070C0C0C0C0C0C0C0C02CB
:1001B00002020206060606060606060B0B0B0B0BD2
:1001C0000B0B0B01021020200808102040102040CB
:1001D000800201020108040201010204081020400B
:1001E0008080402010080402018004020180402029
:1001F0001008040201080402010102040810204052
:100200008001020408102040800000090A02080B47
:100210000C0D0706030401000000000000000000B0
:1002200000000000000000000000000000000000CE
:10023000000000000011100F00000000000000008E
:100240000000000000000000000000000000006549
:1002500063686F3A004572726F723A0053544F50A0
:100260005045442E20005072696E7465722073747C
:100270006F707065642064756520746F206572729C
:100280006F72732E204669782074686520657272DB
:100290006F7220616E6420757365204D3939392085
:1002A000746F20726573746172742E202854656DAA
:1002B000706572617475726520697320726573650B
:1002C000742E2053657420697420616674657220F1
:1002D00072657374617274696E6729004B494C4C86
:1002E00045442E20005072696E7465722068616CFE
:1002F0007465642E206B696C6C28292063616C6CBA
:10030000656421006F6B00526573656E643A20006E
:100310002200556E6B6E6F776E20636F6D6D616E30
:10032000643A2022004368616E67652066696C61EB
:100330006D656E74007A5F6D61783A20007A5F6D4A
:10034000696E3A2000795F6D61783A2000795F6DBF
:10035000696E3A2000785F6D61783A2000785F6DB1
:10036000696E3A20005A3A00593A0020436F756E80
:100370007420583A2000453A005A3A00593A005839
:100380003A004649524D574152455F4E414D453A1C
:100390004D61726C696E2056313B20537072696EEC
:1003A0007465722F6772626C206D6173687570205E
:1003B000666F722067656E36204649524D5741522E
:1003C000455F55524C3A687474703A2F2F666972C3
:1003D0006D776172652E756C74696D616B65722ED7
:1003E000636F6D2050524F544F434F4C5F564552F0
:1003F00053494F4E3A312E30204D414348494E45E6
:100400005F545950453A556C74696D616B65722043
:1004100045585452554445525F434F554E543A3116
:1004200020555549443A30303030303030302D305E
:100430003030302D303030302D303030302D3030C5
:10044000303030303030303030300A00556C746924
:100450006D616B6572204F66662E00556C74696D18
:10046000616B65722052656164792E00426564207B
:10047000646F6E652E0020423A0020453A00543ADF
:10048000004265642048656174696E672E004865A6
:100490006174696E6720646F6E652E0020573A00A4
:1004A00020453A00543A0048656174696E672E2E03
:1004B0002E002042403A0020403A00202F003A000F
:1004C000205400202F0020423A00202F006F6B2084
:1004D000543A002569206D696E2C202569207365CA
:1004E0006300456E642066696C65206C69737400F6
:1004F000426567696E2066696C65206C697374007B
:100500004E6F206D6F76652E00526573756D696E46
:1005100067207072696E74005761697420666F722B
:1005200020757365722E2E2E00536C6565702E2E0D
:100530002E0000004D4300004D4300004843FFFFE4
:10054000FF000000000000000000000000000000AC
:1005500000000000000000000000004D4300004DBE
:1005600043000048430000A0400000A0400000807D
:100570003F256920686F757273202569206D696E4B
:100580007574657300446F6E65207072696E74696E
:100590006E672066696C650053544F505045442E79
:1005A00020005072696E7465722073746F7070658C
:1005B000642064756520746F206572726F72732E8B
:1005C0002046697820746865206572726F722061B8
:1005D0006E6420757365204D39393920746F20722F
:1005E0006573746172742E202854656D7065726134
:1005F000747572652069732072657365742E20535B
:100600006574206974206166746572207265737404
:10061000617274696E6729006F6B004E6F204C69C0
:100620006E65204E756D626572207769746820630F
:100630006865636B73756D2C204C617374204C6915
:100640006E653A20004E6F20436865636B73756D6D
:100650002077697468206C696E65206E756D6265BF
:10066000722C204C617374204C696E653A200063D3
:100670006865636B73756D206D69736D6174636814
:100680002C204C617374204C696E653A20004C69D3
:100690006E65204E756D626572206973206E6F7491
:1006A000204C617374204C696E65204E756D6265D7
:1006B000722B312C204C617374204C696E653A208A
:1006C000004D31313000446F6E6520736176696E84
:1006D000672066696C652E006F6B004D3239002013
:1006E00020506C616E6E6572427566666572427905
:1006F0007465733A20002046726565204D656D6F04
:1007000072793A200044656320313620323031332B
:1007100000436F6D70696C65643A2000284461760F
:10072000696420427261616D2900207C20417574EA
:10073000686F723A200044656320313620323031D0
:10074000332031353A33343A303200204C617374FF
:1007500020557064617465643A2000556C74696D4D
:10076000616B65723A2031332E31322028323530B8
:100770003030305F73696E676C6529004D61726C53
:10078000696E200020536F66747761726520526530
:1007900073657400205761746368646F67205265E5
:1007A000736574002042726F776E206F75742052EB
:1007B00065736574002045787465726E616C2052B3
:1007C0006573657400506F7765725570007374615E
:1007D0007274002200656E717565696E6720220073
:1007E0002200656E717565696E672022007C3C3E53
:1007F0005E2B3D3F2F5B5D3B2C2A225C00656368CE
:100800006F3A0020746F6F206C6F6E67206578748C
:10081000727573696F6E2070726576656E7465644B
:100820000020636F6C6420657874727573696F6EF5
:100830002070726576656E7465640045313A2000FB
:1008400045303A20005A3A2000593A2000583A20C0
:10085000004D53312C4D53322050696E730A0024E1
:10086000F404D9201BC40C5C0E9804C4095F026513
:10087000077101F405F900FB04B30048048700C1C7
:100880000369005803550003034500BE023A008483
:1008900002310053022A002902250004022000E44C
:1008A000011C00C8011900AF011700980114008451
:1008B000011300710110006101100051010E00438D
:1008C000010D0036010B002B010B0020010B001560
:1008D0000109000C01090003010800FB000800F3F6
:1008E000000800EB000700E4000600DE000600D868
:1008F000000600D2000600CC000500C7000500C2BB
:10090000000500BD000400B9000400B5000400B1FA
:10091000000400AD000400A9000400A5000300A22B
:100920000003009F0004009B000300980003009553
:1009300000020093000300900003008D0002008B72
:10094000000300880002008600020084000300818A
:100950000002007F0002007D0002007B000200799F
:1009600000020077000100760002007400020072AD
:10097000000100710002006F0002006D0001006CB8
:100980000002006A000100690002006700010066C1
:1009900000010065000100640002006200010061C6
:1009A000000100600001005F0002005D0001005CCA
:1009B0000001005B0001005A0001005900010058CD
:1009C00000010057000100560001005500010054CD
:1009D00000010053000000530001005200010051CB
:1009E000000100500001004F0001004E0000004EC9
:1009F0000001004D0001004C0001004B0000004BC5
:100A00000001004A000100490001004800000048C0
:100A100000010047000100460000004600010045BB
:100A200000000045000100440001004300000043B5
:100A300000010042000000420001004100000041AE
:100A4000000100400001003F0000003F0001003EA7
:100A50000000003E0001003D0000003D0001003CA0
:100A60000000003C0000003C0001003B0000003B97
:100A70000001003A0000003A00010039000000398E
:100A80000001003800000038000000380001003785
:100A9000000000370001003600000036000000367C
:100AA0000001003500000035000000350001003471
:100AB0000000003400000034000100330000003367
:100AC000000000330001003200000032000000325C
:100AD0000001003100000031000000310001003051
:100AE00000000030000000300001002F0000002F47
:100AF0000000002F0000002F0001002E0000002E3B
:100B00000000002E0001002D0000002D0000002D2F
:100B10000000002D0001002C0000002C0000002C23
:100B20000000002C0001002B0000002B0000002B17
:100B30000000002B0001002A0000002A0000002A0B
:100B40000000002A000100290000002900000029FF
:100B500000000029000000290001002800000028F2
:100B600000000028000000280000002800010027E5
:100B700000000027000000270000002700000027D9
:100B800000010026000000260000002600000026CC
:100B900000000026000100250000002500000025BF
:100BA00000000025000000250000002500010024B1
:100BB00000000024000000240000002400000024A5
:100BC0000001002300000023000000230000002398
:100BD0000000002300000023000000230001002289
:100BE000000000220000002200000022000000227D
:100BF000000000220001002100000021000000216F
:100C00000000002100000021000000210000002160
:100C10000001002000000020000000200000002053
:100C20000000002000000020000000200000002044
:100C30000001001F0000001F0000001F0000001F37
:100C40000000001F0000001F0000001F0001001E28
:100C50000000001E0000001E0000001E0000002416
:100C6000F4D43050C38E20C2A24017828B70111270
:100C70007A910D816CD90AA861E108C758660761AD
:100C80005143061E4B5D05C145A7041A41110409D5
:100C90003D9803713931034036DB0265339102D44C
:100CA000305402802E1D02632CEE01752AC501B05E
:100CB00028A001102781018F2564012B244B01E01E
:100CC000223401AC211F018D200D01801FFC008406
:100CD0001EED00971DDF00B81CD200E61BC60020E9
:100CE0001BBC00641AB200B219A8000A19A0006A5D
:100CF000189900D117910040178B00B51684003168
:100D0000167E00B31579003A157300C7146F0058AA
:100D1000146A00EE1366008813630025135E00C793
:100D2000125B006C12570015125400C11151007073
:100D3000114F0021114B00D61049008D104700467D
:100D400010440002104200C00F4000800F3E0042DD
:100D50000F3C00060F3B00CB0E3800930E37005CB3
:100D60000E3500270E3400F30D3200C10D31009016
:100D70000D3000600D2E00320D2D00050D2C00D918
:100D80000C2B00AE0C2900850C29005C0C270035CB
:100D90000C27000E0C2600E80B2400C40B2400A036
:100DA0000B23007D0B23005A0B2100390B21001867
:100DB0000B2000F80A1F00D90A1E00BB0A1E009D66
:100DC0000A1D00800A1D00630A1C00470A1B002C34
:100DD0000A1B00110A1A00F7091A00DD091900C4DC
:100DE000091900AB091900920917007B0918006363
:100DF0000917004C09160036091600200916000ACA
:100E0000091500F5081500E0081400CC081400B816
:100E1000081400A4081400900813007D0812006B49
:100E20000813005808120046081200340811002365
:100E30000811001208110001081100F0071000E06D
:100E4000071000D0071000C0071000B0070F00A166
:100E500007100091070E0083070F0074070F00654D
:100E6000070E0057070E0049070E003B070D002E26
:100E7000070E0020070D0013070D0006070D00F9EF
:100E8000060C00ED060D00E0060C00D4060C00C8B0
:100E9000060C00BC060C00B0060C00A4060B009962
:100EA000060C008D060B0082060B0077060B006C0B
:100EB000060B0061060A0057060B004C060A0042AA
:100EC000060A0038060A002E060A0024060A001A3E
:100ED000060A001006090007060A00FD050900F4CD
:100EE000050900EB050900E2050900D9050900D054
:100EF000050900C7050900BE050900B5050800ADD4
:100F0000050800A50509009C050800940508008C4B
:100F1000050800840508007C050800740508006CBD
:100F2000050700650508005D050700560508004E29
:100F30000507004705070040050800380507003190
:100F40000507002A050700230507001C05060016F3
:100F50000507000F0507000805060002050700FB4E
:100F6000040600F5040700EE040600E8040600E2AB
:100F7000040700DB040600D5040600CF040600C900
:100F8000040600C3040600BD040600B7040600B151
:100F9000040500AC040600A6040600A00405009B9E
:100FA00004060095040500900406008A04050085E7
:100FB000040500800406007A04050075040500702D
:100FC0000405006B04050066040500610405005C6F
:100FD00004050057040500520405004D04050048AF
:100FE000040500430405003E0404003A04050035EE
:100FF000040500300404002C040500270404002329
:101000000405001E0404001A04040016040500115F
:101010000404000D04040009040500040404000095
:10102000040400FC030400F8030400F4030400F0CB
:10103000030400EC030400E8030400E4030400E0FC
:10104000030400DC030400D8030400D4030400D02C
:10105000030400CC030400C8030300C503030065B8
:1010600063686F3A00656E6473746F7073206869AB
:10107000743A205A00205A3A00656E6473746F7097
:1010800073206869743A20590020593A00656E64EB
:1010900073746F7073206869743A20580020583A4E
:1010A00000656E6473746F7073206869743A200011
:1010B0004572726F723A004572723A204D4158542F
:1010C000454D50204245440054656D706572617411
:1010D000757265206865617465642062656420735B
:1010E00077697463686564206F66662E204D415889
:1010F00054454D502074726967676572656420219C
:1011000021004572723A204D494E54454D50003AE7
:1011100020457874727564657220737769746368AA
:101120006564206F66662E204D494E54454D502013
:101130007472696767657265642021004572723A4E
:10114000204D415854454D50003A204578747275F1
:10115000646572207377697463686564206F66667E
:101160002E204D415854454D502074726967676573
:10117000726564202100202D20496E76616C6964BF
:10118000206578747275646572206E756D62657223
:101190002021006563686F3A0048656174696E6775
:1011A000206661696C656400504944204175746F24
:1011B00074756E652066696E697368656421205078
:1011C000757420746865204B702C204B6920616E0B
:1011D00064204B6420636F6E7374616E7473206956
:1011E0006E746F20436F6E66696775726174696FA4
:1011F0006E2E6800504944204175746F74756E6599
:10120000206661696C6564212074696D656F757411
:101210000020403A006F6B20543A006F6B20423A36
:1012200000504944204175746F74756E6520666185
:10123000696C6564212054656D70657261747572A6
:101240006520746F6F206869676800204B643A20DE
:1012500000204B693A2000204B703A200020436C5C
:10126000617369632050494420002054753A20007E
:10127000204B753A2000206D61783A2000206D697E
:101280006E3A200020643A200020626961733A209F
:10129000004D383420582059205A20450065636895
:1012A0006F3A0043616E6E6F7420656E74657220D4
:1012B0007375626469723A20004D3234004D3233E6
:1012C000202573006175746F25692E670045727261
:1012D0006F723A006572726F722077726974696E0C
:1012E0006720746F2066696C65004E6F74205344EC
:1012F000207072696E74696E67002F00534420700D
:1013000072696E74696E67206279746520002E00C0
:1013100044656C6574696F6E206661696C65642CE8
:101320002046696C653A200046696C652064656CEE
:10133000657465643A002E006F70656E20666169A1
:101340006C65642C2046696C653A2000577269749C
:10135000696E6720746F2066696C653A20002E0004
:101360006F70656E206661696C65642C2046696CDF
:10137000653A20002E006F70656E206661696C65AD
:10138000642C2046696C653A200046696C652073C0
:10139000656C6563746564002053697A653A200062
:1013A00046696C65206F70656E65643A20002E009A
:1013B0006F70656E206661696C65642C2046696C8F
:1013C000653A20004E6F7720667265736820666903
:1013D0006C653A20004E6F7720646F696E672066F7
:1013E000696C653A20002220706F730022207061C2
:1013F00072656E743A2200535542524F5554494E0D
:10140000452043414C4C207461726765743A220058
:10141000747279696E6720746F2063616C6C2073DD
:1014200075622D67636F64652066696C65732077EC
:1014300069746820746F6F206D616E79206C6576B9
:10144000656C732E204D4158206C6576656C206963
:10145000733A0053442063617264206F6B006F70B5
:10146000656E526F6F74206661696C656400766F9B
:101470006C756D652E696E6974206661696C656452
:1014800000534420696E6974206661696C0065636D
:10149000686F3A0048617264636F646564204465F4
:1014A0006661756C742053657474696E6773204C43
:1014B0006F616465640053746F7265642073657452
:1014C00074696E677320726574726965766564000D
:1014D0002044002049002020204D3330312050008E
:1014E0005049442073657474696E67733A00205ADA
:1014F0000020590020204D323036205800486F6DB2
:1015000065206F666673657420286D6D293A00202A
:101510004500205A0020580020420020540020207E
:101520004D323035205300416476616E636564202E
:101530007661726961626C65733A20533D4D696EE4
:1015400020666565647261746520286D6D2F73294E
:101550002C20543D4D696E2074726176656C206656
:101560006565647261746520286D6D2F73292C2068
:10157000423D6D696E696D756D207365676D656E51
:10158000742074696D6520286D73292C20583D6D79
:101590006178696D756D205859206A65726B2028D5
:1015A0006D6D2F73292C20205A3D6D6178696D7502
:1015B0006D205A206A65726B20286D6D2F73292C5F
:1015C0002020453D6D6178696D756D2045206A6507
:1015D000726B20286D6D2F73290020540020204D40
:1015E000323034205300416363656C657261746905
:1015F0006F6E3A20533D616363656C657261746917
:101600006F6E2C20543D7265747261637420616347
:1016100063656C65726174696F6E00204500205AC5
:101620000020590020204D3230312058004D617883
:10163000696D756D20416363656C65726174696F76
:101640006E20286D6D2F7332293A00204500205AF4
:101650000020590020204D3230332058004D617851
:10166000696D756D206665656472617465732028A7
:101670006D6D2F73293A00204500205A0020590033
:1016800020204D39322058005374657073207065E6
:101690007220756E69743A0053657474696E67736D
:1016A0002053746F72656400022D2D3A2D2D002D8C
:1016B0002D2D005344002059000120004E6F20437F
:1016C000617264005072696E742066726F6D20538F
:1016D000440053746F70205072696E7400526573C9
:1016E000756D65205072696E740050617573652068
:1016F0005072696E7400436F6E74726F6C0050723A
:1017000065706172650054756E6500496E666F2084
:1017100073637265656E00052E2E004D61696E0063
:101720004D3234004D3233202573004D383420586B
:101730002059205A2045004669726D7761726520F4
:1017400076657273696F6E00526573746F7265208F
:101750004661696C73616665004C6F6164206D65FC
:101760006D6F72790053746F7265206D656D6F7265
:1017700079004D6F74696F6E0054656D70657261AC
:1017800074757265004D61696E0044656320313681
:1017900020323031332031353A33343A3038003268
:1017A00035303030305F73696E676C6500556C742E
:1017B000696D616B65723A2031332E3132004669B2
:1017C000726D776172652076657273696F6E004520
:1017D00073746570732F6D6D004573746570732F2E
:1017E0006D6D005A73746570732F6D6D005A73744C
:1017F0006570732F6D6D005973746570732F6D6D07
:10180000005973746570732F6D6D00587374657033
:10181000732F6D6D005873746570732F6D6D00417B
:101820002D7265747261637400412D72657472610A
:10183000637400416D6178206500416D61782065B9
:1018400000416D6178207A00416D6178207A004115
:101850006D6178207900416D6178207900416D617A
:1018600078207800416D6178207800565472617656
:10187000206D696E005654726176206D696E005657
:101880006D696E00566D696E00566D617820650059
:10189000566D6178206500566D6178207A00566D2E
:1018A0006178207A00566D6178207900566D6178F4
:1018B000207900566D6178207800566D6178207827
:1018C0000056652D6A65726B0056652D6A65726BF0
:1018D00000567A2D6A65726B00567A2D6A65726BB6
:1018E000005678792D6A65726B005678792D6A6595
:1018F000726B00416363656C00416363656C004318
:101900006F6E74726F6C005072656865617420410F
:10191000425320436F6E66005072656865617420A3
:10192000504C4120436F6E66005049442D43005097
:1019300049442D43005049442D44005049442D440E
:10194000005049442D49005049442D490050494414
:101950002D50005049442D500046616E2073706533
:1019600065640046616E207370656564004E6F7A31
:101970007A6C65004E6F7A7A6C6500436F6E747294
:101980006F6C0053746F7265206D656D6F727900B6
:101990004E6F7A7A6C65004E6F7A7A6C650046619C
:1019A0006E2073706565640046616E2073706565B6
:1019B000640054656D70657261747572650053746E
:1019C0006F7265206D656D6F7279004E6F7A7A6CFB
:1019D00065004E6F7A7A6C650046616E20737065A3
:1019E00065640046616E2073706565640054656DC2
:1019F0007065726174757265004D6F76652041780F
:101A00006973004D38300053776974636820506FF4
:101A1000776572204F6E004D3831005377697463DB
:101A20006820506F776572204F666600436F6F6C59
:101A3000646F776E0050726568656174204142532F
:101A4000005072656865617420504C41004732381F
:101A5000004175746F20486F6D65004D3834004447
:101A6000697361626C652053746570706572730090
:101A70004D61696E004D6F766520302E316D6D00C1
:101A80004D6F766520316D6D004D6F76652031307C
:101A90006D6D005072657061726500457874727585
:101AA000646572004D6F7665205A004D6F76652033
:101AB00059004D6F76652058004D6F76652041784E
:101AC0006973004578747275646572005A00590034
:101AD00058004D363030004368616E676520666996
:101AE0006C616D656E7400466C6F7700466C6F7745
:101AF0000046616E2073706565640046616E2073F8
:101B000070656564004E6F7A7A6C65004E6F7A7A04
:101B10006C65005370656564005370656564004DC5
:101B200061696E00436172642072656D6F766564F1
:101B3000004361726420696E736572746564004964
:101B40004E46494E4954594E414ECDCCCC3D0AD714
:101B5000233C17B7D13877CC2B329595E6241FB1AB
:101B60004F0A000020410000C84200401C4620BC33
:101B7000BE4CCA1B0E5AAEC59D7443194F3DFCC4E2
:101B80003C1911241FBECFEFD1E2DEBFCDBF00E074
:101B90000CBF14E0A0E0B2E0E8E1F4EA01E00BBF22
:101BA00002C007900D92AA36B107D9F71BBE12E109
:101BB000AAE6B4E001C01D92A033B107E1F71BE132
:101BC000C0E8DBE104C02297FE010E94B1D1CA3710
:101BD000D107C9F70E9491CC0C94FFD10C9400005E
:101BE000A0E0B0E0E6EFFDE00C94CED1EC015B01AB
:101BF0006115710519F0FB0191838083F9908F2D98
:101C000090E00E94B5D1892BC9F7FDE2FF1621F4BF
:101C1000F990EE24E39405C02BE2F21609F4F99052
:101C2000EE248E0101501040C8016FE37BE143E0D8
:101C300050E00E948610892B01F58E010E5F1F4F28
:101C4000C80162E47BE145E050E00E948610892BE8
:101C500019F48E01095F1F4FA114B10419F0F501A9
:101C600011830083E0FC04C070E090E080E814C0C1
:101C700070E090E080E86FEF08C1C80167E47BE1A5
:101C800043E050E00E948610892B69F4A114B1044E
:101C900029F470E090E080EC6FE7F7C02296F50140
:101CA000D183C083F6CF8824992440E050E060E0DF
:101CB00070E0EF2DE053EA30A0F5F2E0EF2A8E2D30
:101CC00090E09C0128703070E2FE06C0232B79F56D
:101CD0000894811C911C2BC0232B19F008948108B7
:101CE0009108DB01CA0112E0880F991FAA1FBB1FD0
:101CF0001A95D1F7480F591F6A1F7B1F440F551FB4
:101D0000661F771F4E0F511D611D711D483929E94E
:101D1000520729E9620729E1720748F084E0E82ABE
:101D200006C0EE3F31F4E3FC39C098E0E92AF990AF
:101D3000C0CFE53311F0E53189F529912D3219F441
:101D4000E0E1EE2A05C02B3219F081E090E003C0FB
:101D5000299182E090E0E22FE053EA3018F0C81BAE
:101D6000D90B1CC020E030E0FCE020383F075CF4D9
:101D7000C901880F991F880F991F280F391F220F3B
:101D8000331F2E0F311DE991E053EA3068F3E4FE72
:101D900003C0309521953F4F820E931ECE2CDD243B
:101DA000E1FE07C0A114B10421F02197F501D18310
:101DB000C083CB01BA010E941ACE7B018C01F3E0F3
:101DC000CF22DD2423E0C216D10421F417FB1095A5
:101DD00017F9109557016801C801B70120E030E0FC
:101DE00040E050E00E947ACD882309F44AC097FE73
:101DF0000DC02EE5E22E2BE1F22E909481949108F5
:101E00009394C0E2D0E000E010E012C096E7E92E23
:101E10009BE1F92EF6CFF70125913591459154912B
:101E2000C601B5010E945AD05B016C018C1A9D0A53
:101E30008C169D0684F7D595C7950F5F1F4F06300A
:101E4000110529F08CEF9FEFE80EF91EF1CFC501C7
:101E5000D6017C018D018C2D880F8D2D881F8F3F21
:101E600051F0C601B50120E030E040E050E00E94B2
:101E70007ACD882331F482E290E090932F12809300
:101E80002E127E2D9F2D802F612F272F392F482F27
:101E9000562FB901CA01CDB7DEB7ECE00C94EAD1F8
:101EA0002F923F925F926F927F928F929F92AF920A
:101EB000BF92CF92DF92EF92FF920F931F93CF9337
:101EC000DF938C011B01EA016115710519F0FB011B
:101ED00091838083209749F0CE010297839728F061
:101EE00020E030E040E050E0F6C0F801A1908F0122
:101EF0008A2D90E00E94B5D1892BB9F7FDE2AF168B
:101F000031F4F801A1908F015524539407C0FBE2EE
:101F1000AF1619F4F801A1908F015524209719F0FC
:101F2000C031D105C1F4F0E3AF1679F4F801808136
:101F3000883711F0883549F4F801A1800E5F1F4FF2
:101F4000F2E05F2AC0E1D0E006C0209721F480E3F0
:101F5000A816E9F427C0C830D10531F1C930D10540
:101F600024F4C230D10531F50CC0CA30D10589F056
:101F7000C031D105F9F4C12CD12CE12CB8E0FB2EF5
:101F800028C0C12CD12CE12CA0E4FA2E22C0CAE03A
:101F9000D0E0FCECCF2EFCECDF2EFCECEF2EFCE0D6
:101FA000FF2E17C0C8E0D0E0C12CD12CE12CE0E11D
:101FB000FE2E0FC09E01442737FD4095542F60E050
:101FC00070E080E090E80E9472D1C901DA016C01F2
:101FD0007D0120E030E040E050E060E03E018824F8
:101FE00077FC8094982C70EDB72EBA0CE9E0EB15D5
:101FF00070F48A2D81548A3118F499ECB92E06C0F8
:102000008A2D81568A3150F589EAB82EBA0C8B2D6B
:1020100090E08C179D0714F56F3FE1F0C216D306D0
:10202000E406F506B0F0CA01B901A40193010E94CB
:102030002CD19B01AC012B0D311D411D511D2130B7
:10204000F0E03F07F0E04F07F0E85F0710F461E0D1
:1020500001C06FEFF801A1908F01C5CF21143104A9
:1020600081F0662331F001501040F10111830083AB
:1020700008C051FE1AC002501040F10111830083C4
:1020800014C067FF12C050FC05C02FEF3FEF4FEFA9
:102090005FE704C020E030E040E050E882E290E0FA
:1020A00090932F1280932E1216C050FE08C05095A8
:1020B0004095309521953F4F4F4F5F4F0CC057FFD4
:1020C0000AC082E290E090932F1280932E122FEF9D
:1020D0003FEF4FEF5FE7B901CA01DF91CF911F9149
:1020E0000F91FF90EF90DF90CF90BF90AF909F90B7
:1020F0008F907F906F905F903F902F900895FB019D
:10210000DC0105900D920020E1F70895FB01DC0150
:102110004150504088F08D9181341CF08B350CF487
:10212000805E659161341CF06B350CF4605E861B3B
:10213000611171F3990B0895881BFCCFFB01DC0141
:102140004150504048F005900D920020C9F701C061
:102150001D9241505040E0F70895FB0155915523E1
:10216000A9F0BF01DC014D9145174111E1F759F488
:10217000CD010590002049F04D9140154111C9F362
:10218000FB014111EFCF81E090E001970895FB0141
:10219000DC0104C08D910190801921F44150504020
:1021A000C8F7881B990B0895FB01DC0102C0019060
:1021B0000D9241505040D8F70895FB01DC010D907D
:1021C0000020E9F7119701900D920020E1F70895A2
:1021D000FC018191861721F08823D9F7992708956A
:1021E0003197CF010895FB01DC0101900D92002091
:1021F000E1F70895FB01DC014150504030F08D9132
:102200000190801919F40020B9F7881B990B0895E3
:10221000FB01DC014150504048F001900D9200203C
:10222000C9F701C01D9241505040E0F70895AEE05B
:10223000B0E0EDE1F1E10C94D6D10E891F898EE07A
:102240008C831A8309838FEF9FE79E838D839E0182
:10225000265E3F4FCE010196688D798DA9010E94BF
:102260003B112F813885020F131FF80110822E9623
:10227000E4E00C94F2D1ABE0B0E0E1E4F1E10C94E5
:10228000C8D13C012B015A01FC01178216828381BF
:1022900081FD03C06FEF7FEFC6C19AE0892E1E015A
:1022A0000894211C311CF3012381F20123FD859147
:1022B00023FF81912F01882309F4B2C1853239F4BB
:1022C00023FD859123FF81912F01853229F490E030
:1022D000B3010E942E13E7CF982FFF24EE249924F8
:1022E000FFE1FF15D0F09B3269F09C3228F4903268
:1022F00059F0933291F40EC09D3249F0903369F455
:1023000041E024C052E0F52A84E0F82A28C098E091
:10231000F92A25C0E0E1FE2A22C0F7FC29C0892F56
:1023200080538A3070F4F6FE05C0989C902C1124DE
:10233000980E15C0E89CE02C1124E80EF0E2FF2A6C
:102340000EC09E3229F4F6FC6BC140E4F42A07C0AB
:102350009C3619F450E8F52A02C0983649F4F20187
:1023600023FD959123FF91912F01992309F0B8CF77
:10237000892F8554833018F08052833038F444E03C
:1023800050E0A40EB51E5FE359830FC0933631F0C1
:10239000933779F0933509F056C020C0F50180815C
:1023A000898342E050E0A40EB51E610101E010E017
:1023B00012C0F501C080D180F6FC03C06FEF7FEF43
:1023C00002C0692D70E042E050E0A40EB51EC601C7
:1023D0000E9423138C015FE7F52214C0F501C08031
:1023E000D180F6FC03C06FEF7FEF02C0692D70E073
:1023F00042E050E0A40EB51EC6010E9418138C01E5
:1024000050E8F52AF3FE07C01AC080E290E0B3015D
:102410000E942E13EA948E2D90E008171907A8F356
:102420000EC0F601F7FC8591F7FE81916F0190E0F7
:10243000B3010E942E13E110EA94015010400115DF
:10244000110579F7EAC0943611F0993669F5F7FE6F
:1024500008C0F501208131814281538184E090E000
:102460000AC0F501808191819C01442737FD409588
:10247000542F82E090E0A80EB91E9FE6F92257FF84
:1024800009C050954095309521953F4F4F4F5F4F74
:10249000E0E8FE2ACA01B901A1012AE030E00E9469
:1024A0005A13D82ED21840C0953729F41F2D1F7EFD
:1024B0002AE030E01DC01F2D197F9F3661F0903754
:1024C00020F4983509F0ACC00FC0903739F0983738
:1024D00009F0A6C004C028E030E00AC0106114FD75
:1024E000146020E130E004C014FD166020E132E009
:1024F00017FF08C0F501608171818281938144E0FA
:1025000050E008C0F50180819181BC0180E090E03D
:1025100042E050E0A40EB51EA1010E945A13D82E2D
:10252000D2188FE7F82EF122F6FE0BC05EEFF522EF
:10253000D91438F4F4FE07C0F2FC05C08FEEF8227F
:1025400002C01D2D01C0192DF4FE0DC0FE01ED0DC0
:10255000F11D8081803319F499EEF92208C01F5FC4
:10256000F2FE05C003C08F2D867809F01F5F0F2D86
:10257000F3FC14C0F0FE0FC01E1510F09D2C0BC014
:102580009D2C9E0C911A1E2D06C080E290E0B30196
:102590000E942E131F5F1E15C0F304C01E1510F4F9
:1025A000E11A01C0EE2404FF0FC080E390E0B30104
:1025B0000E942E1302FF1DC001FD03C088E790E0BA
:1025C0000EC088E590E00BC0802F867891F001FF67
:1025D00002C08BE201C080E2F7FC8DE290E0B30123
:1025E0000E942E1306C080E390E0B3010E942E13D8
:1025F0009A94D914C0F3DA94F101ED0DF11D8081A4
:1026000090E0B3010E942E13DD20A9F706C080E2FE
:1026100090E0B3010E942E13EA94EE20C1F743CE5E
:10262000F30166817781CB012B96E2E10C94E4D132
:10263000FC010590615070400110D8F7809590958D
:102640008E0F9F1F0895FC01615070400190011092
:10265000D8F7809590958E0F9F1F08950F931F9325
:10266000CF93DF938C01EB018B8181FF1BC082FF35
:102670000DC02E813F818C819D812817390764F41C
:10268000E881F9810193F983E88306C0E885F9853B
:10269000802F1995892B31F48E819F8101969F831C
:1026A0008E8302C00FEF1FEFC801DF91CF911F9102
:1026B0000F910895FA01AA27283051F1203181F1B4
:1026C000E8946F936E7F6E5F7F4F8F4F9F4FAF4F3A
:1026D000B1E03ED0B4E03CD0670F781F891F9A1F4D
:1026E000A11D680F791F8A1F911DA11D6A0F711D01
:1026F000811D911DA11D20D009F468943F912AE00D
:10270000269F11243019305D3193DEF6CF010895F4
:10271000462F4770405D4193B3E00FD0C9F7F6CF25
:10272000462F4F70405D4A3318F0495D31FD4052ED
:10273000419302D0A9F7EACFB4E0A6959795879583
:1027400077956795BA95C9F7009761057105089562
:102750009B01AC010A2E069457954795379527950E
:10276000BA95C9F7620F731F841F951FA01D0895A6
:102770001F920F920FB60F9211242F933F938F93B6
:102780009F93AF93BF9380916E0490916F04A0913B
:102790007004B0917104309172040196A11DB11DB5
:1027A000232F2D5F2D3720F02D570196A11DB11D30
:1027B0002093720480936E0490936F04A09370042E
:1027C000B093710480916A0490916B04A0916C04A1
:1027D000B0916D040196A11DB11D80936A04909380
:1027E0006B04A0936C04B0936D04BF91AF919F9163
:1027F0008F913F912F910F900FBE0F901F901895C2
:102800008FB7F89420916E0430916F04409170045A
:10281000509171048FBFB901CA0108959B01AC01A9
:102820007FB7F89480916A0490916B04A0916C0436
:10283000B0916D0466B5A89B05C06F3F19F0019675
:10284000A11DB11D7FBFBA2FA92F982F8827860FF2
:10285000911DA11DB11D62E0880F991FAA1FBB1F0A
:102860006A95D1F7BC012DC0FFB7F89480916A0436
:1028700090916B04A0916C04B0916D04E6B5A89B97
:1028800005C0EF3F19F00196A11DB11DFFBFBA2F82
:10289000A92F982F88278E0F911DA11DB11DE2E051
:1028A000880F991FAA1FBB1FEA95D1F7861B970BAC
:1028B000885E9340C8F221503040404050406851FB
:1028C0007C4F211531054105510571F60895019799
:1028D00039F0880F991F880F991F02970197F1F718
:1028E0000895789484B5826084BD84B5816084BD88
:1028F00085B5826085BD85B5816085BDEEE6F0E079
:10290000808181608083E1E8F0E0108280818260D4
:102910008083808181608083E0E8F0E08081816055
:102920008083E1EBF0E0808184608083E0EBF0E085
:10293000808181608083E1E9F0E080818260808332
:10294000808181608083E0E9F0E080818160808324
:10295000E1EAF0E080818260808380818160808311
:10296000E0EAF0E0808181608083E1E2F1E0808153
:1029700082608083808181608083E0E2F1E08081F9
:1029800081608083EAE7F0E08081846080838081D9
:102990008260808380818160808380818068808381
:1029A0001092C10008951F93CF93DF93182FEB016E
:1029B00061E00E94B315209709F4CAC0CF3FD1054A
:1029C00009F4C9C0E12FF0E0E75FFD4F8491893041
:1029D00009F466C08A30B0F48430F1F1853040F4F7
:1029E000823059F1833070F5813009F0AEC020C0DB
:1029F000873009F443C0883008F048C0863009F0B9
:102A0000A4C034C08D3009F478C08E3038F48B30D7
:102A100009F45AC08C3008F066C04CC0803109F40B
:102A200080C0813109F487C08F3009F08EC06FC03B
:102A300084B5806884BDC7BD92C084B5806284BD02
:102A4000C8BD8DC080918000806880938000D09345
:102A50008900C093880083C0809180008062809349
:102A60008000D0938B00C0938A0079C08091B00021
:102A700080688093B000C093B30071C08091B000B3
:102A800080628093B000C093B40069C080919000D0
:102A9000806880939000D0939900C09398005FC0A5
:102AA00080919000806280939000D0939B00C093AF
:102AB0009A0055C080919000886080939000D093D8
:102AC0009D00C0939C004BC08091A00080688093C3
:102AD000A0008091A0008F7B8093A000D093A900DC
:102AE000C093A8003CC08091A00080628093A000A9
:102AF000D093AB00C093AA0032C08091A000886040
:102B00008093A000D093AD00C093AC0028C080910A
:102B10002001806880932001D0932901C09328016F
:102B20001EC080912001806280932001D0932B01F0
:102B3000C0932A0114C080912001886080932001F5
:102B4000D0932D01C0932C010AC0C038D1051CF4CC
:102B5000812F60E002C0812F61E00E946616DF9144
:102B6000CF911F910895CF93DF93482F50E0CA0172
:102B70008D539E4FFC01349143585E4FFA0184916E
:102B8000882369F190E0880F991FFC01E15DFE4FF9
:102B9000A591B491FC01E75BFE4FC591D4916623EA
:102BA00051F42FB7F8948C91932F909589238C939F
:102BB000888189230BC0623061F42FB7F8948C911F
:102BC000932F909589238C938881832B88832FBFA3
:102BD00006C09FB7F8948C91832B8C939FBFDF9195
:102BE000CF910895893009F449C08A30A0F4843027
:102BF00051F1853040F4823079F1833000F5813035
:102C000009F063C026C0873079F1883098F58630A6
:102C100009F05BC025C08D3009F442C08E3028F425
:102C20008B30B1F18C30C0F52DC0803109F442C039
:102C3000813109F445C08F3009F047C037C0809119
:102C400080008F7703C0809180008F7D809380000B
:102C5000089584B58F7702C084B58F7D84BD0895B3
:102C60008091B0008F7703C08091B0008F7D8093FA
:102C7000B0000895809190008F7707C080919000F8
:102C80008F7D03C080919000877F8093900008958E
:102C90008091A0008F7707C08091A0008F7D03C036
:102CA0008091A000877F8093A000089580912001EB
:102CB0008F7703C0809120018F7D8093200108953C
:102CC00080912001877F809320010895FF920F93C8
:102CD0001F93F62E482F50E0CA01875F9D4FFC01DD
:102CE0002491CA018D539E4FFC01149143585E4FAD
:102CF000FA0104910023C9F0222319F0822F0E94C7
:102D0000F215E02FF0E0EE0FFF1FE75BFE4FA591FD
:102D1000B4919FB7F894FF2021F48C9110958123F2
:102D200002C08C91812B8C939FBF1F910F91FF90BC
:102D300008950F931F93482F50E0CA01875F9D4F5E
:102D4000FC012491CA018D539E4FFC01049143580C
:102D50005E4FFA011491112319F420E030E015C000
:102D6000222319F0822F0E94F215812F90E0880F04
:102D7000991F8D599E4FFC01A591B4918C9120E033
:102D800030E0802311F021E030E0C9011F910F9164
:102D900008951F920F920FB60F920BB60F92112447
:102DA0002F933F934F935F936F937F938F939F9353
:102DB000AF93BF93EF93FF93809177049091780442
:102DC000892B29F0E0917704F09178041995FF910F
:102DD000EF91BF91AF919F918F917F916F915F9193
:102DE0004F913F912F910F900BBE0F900FBE0F9000
:102DF0001F9018951F920F920FB60F920BB60F925D
:102E000011242F933F934F935F936F937F938F93EF
:102E10009F93AF93BF93EF93FF9380917904909129
:102E20007A04892B29F0E0917904F0917A041995BC
:102E3000FF91EF91BF91AF919F918F917F916F9192
:102E40005F914F913F912F910F900BBE0F900FBE4E
:102E50000F901F9018951F920F920FB60F920BB6FE
:102E60000F9211242F933F934F935F936F937F9310
:102E70008F939F93AF93BF93EF93FF9380917B04C6
:102E800090917C04892B29F0E0917B04F0917C04E3
:102E90001995FF91EF91BF91AF919F918F917F9184
:102EA0006F915F914F913F912F910F900BBE0F90BB
:102EB0000FBE0F901F9018951F920F920FB60F9292
:102EC0000BB60F9211242F933F934F935F936F9301
:102ED0007F938F939F93AF93BF93EF93FF938091D3
:102EE0007D0490917E04892B29F0E0917D04F0917E
:102EF0007E041995FF91EF91BF91AF919F918F91B2
:102F00007F916F915F914F913F912F910F900BBEE9
:102F10000F900FBE0F901F9018951F920F920FB633
:102F20000F920BB60F9211242F933F934F935F9301
:102F30006F937F938F939F93AF93BF93EF93FF9381
:102F40008091730490917404892B29F0E0917304AB
:102F5000F09174041995FF91EF91BF91AF919F91FA
:102F60008F917F916F915F914F913F912F910F9032
:102F70000BBE0F900FBE0F901F9018951F920F92CF
:102F80000FB60F920BB60F9211242F933F934F93CE
:102F90005F936F937F938F939F93AF93BF93EF93C1
:102FA000FF938091750490917604892B29F0E0912C
:102FB0007504F09176041995FF91EF91BF91AF914F
:102FC0009F918F917F916F915F914F913F912F9141
:102FD0000F900BBE0F900FBE0F901F9018951F9271
:102FE0000F920FB60F920BB60F9211242F933F93AF
:102FF0004F935F936F937F938F939F93AF93BF9301
:10300000EF93FF9380917F0490918004892B29F0A6
:10301000E0917F04F09180041995FF91EF91BF91A9
:10302000AF919F918F917F916F915F914F913F9160
:103030002F910F900BBE0F900FBE0F901F90189501
:103040001F920F920FB60F920BB60F9211242F936F
:103050003F934F935F936F937F938F939F93AF9320
:10306000BF93EF93FF938091810490918204892B09
:1030700029F0E0918104F09182041995FF91EF917C
:10308000BF91AF919F918F917F916F915F914F9180
:103090003F912F910F900BBE0F900FBE0F901F907E
:1030A0001895CF92DF92EF92FF920F931F93CF93D9
:1030B000DF937C016B018A01C0E0D0E00FC0D60134
:1030C0006D916D01D701ED91FC910190F081E02DA2
:1030D000C7011995C80FD91F0150104001151105DE
:1030E00071F7CE01DF91CF911F910F91FF90EF907B
:1030F000DF90CF900895DC01ED91FC910190F0817B
:10310000E02D19950895CF93DF93EC0161157105BA
:1031100019F420E030E00FC0DB010D900020E9F74A
:103120001197A61BB70BE881F9810280F381E02D8E
:10313000AD0119959C01C901DF91CF9108950E94BD
:1031400083180895089580914C07089567707070F2
:10315000E82FF0E0E75FFD4F84918B3028F4883052
:10316000A0F4863090F106C08E30D0F08F508330BE
:1031700060F521C08091B100887F8093B10080917B
:10318000B100862B8093B100089580919100887FD3
:103190008093910080919100862B809391000895F7
:1031A0008091A100887F8093A1008091A100862B4F
:1031B0008093A100089580912101887F809321014F
:1031C00080912101862B8093210108950F931F93F5
:1031D000CF93DF938130910549F46F5F7F4F09F002
:1031E00046C083E894E00E94A88541C0892B09F07D
:1031F0003EC06F5F7F4FD9F583EE93E090934E060C
:1032000080934D0680915406882321F081E596E055
:103210000E943443C9E0D6E003EE13E005C06F9787
:1032200084E0C33DD80751F0198308838F81882338
:10323000B1F3CE0104960E943443F1CF83EE93E0C4
:10324000998388838F81882321F0CE0104960E9480
:10325000344383EE93E09093B3048093B20480915F
:10326000B904882321F086EB94E00E943443DF9177
:10327000CF911F910F91089580E090E06FEF7FEF65
:103280000E94E618089581E090E06FEF7FEF0E94C2
:10329000E61808950E94556E80914C07882309F026
:1032A0003AC081E080934C0780914F07909150077E
:1032B000A0915107B0915207809353079093540700
:1032C000A0935507B0935607E5E5F2E0949108C046
:1032D0008091C00085FFFCCF9093C60031969491F9
:1032E0009923B1F7E6E6F2E0949108C08091C0001E
:1032F00085FFFCCF9093C600319694919923B1F746
:103300008091C00085FFFCCF8AE08093C6008CE5E9
:1033100092E00E9439C50895F8940E94556E159A5E
:1033200010923E07179A10923F07429A1092400758
:10333000A09A8CE060E00E94B315E5E5F2E094917C
:1033400008C08091C00085FFFCCF9093C6003196E5
:1033500094919923B1F7E5EEF2E0949108C0809141
:10336000C00085FFFCCF9093C600319694919923BD
:10337000B1F78091C00085FFFCCF8AE08093C60042
:103380008CED92E00E9448C5809A8898FFCF0E94F9
:1033900000146093570770935807809359079093D0
:1033A0005A07E0918007F0918107EE57F84F80812E
:1033B0008823A9F4E4E0F3E0949108C08091C00070
:1033C00085FFFCCF9093C600319694919923B1F775
:1033D0008091C00085FFFCCF8AE08093C6000895ED
:1033E000EF92FF920F931F930E940014E0905B07EF
:1033F000F0905C0700915D0710915E0720915707E0
:10340000309158074091590750915A07621B730B2E
:10341000840B950BE616F7060807190738F4E11434
:10342000F1040105110511F00E948C1980916303CC
:1034300090916403A0916503B09166030097A10584
:10344000B10559F10E940014209157073091580797
:103450004091590750915A07621B730B840B950BCF
:10346000209163033091640340916503509166039A
:10347000261737074807590780F49091EB10809181
:10348000EC10981751F4159A10923E07179A109263
:103490003F07429A10924007A09A0E9415561F912A
:1034A0000F91FF90EF9008956F927F928F929F926D
:1034B000AF92BF92CF92DF92EF92FF920F931F9342
:1034C000F82E60915F07709160078091610790917D
:1034D000620720916307309164074091650750911E
:1034E00066070E9495CF3B014C0100D000D00DB77C
:1034F0001EB70F5F1F4F60915103709152038827D1
:1035000077FD8095982F0E941CCE20916703309103
:1035100068034091690350916A030E945AD020E0E9
:1035200030E040E752E40E9481CD20E030E048ECFA
:1035300052E40E9481CD5B016C01F80160827182CE
:1035400082829382F48280914107858386E197E0AD
:103550006BE677E04FE557E020E001E032E0E32E54
:103560000E94155080916B0790916C07A0916D0798
:10357000B0916E078093160790931707A0931807D2
:10358000B093190780916F0790917007A091710710
:10359000B091720780931A0790931B07A0931C07A2
:1035A000B0931D078091730790917407A0917507E0
:1035B000B091760780931E0790931F07A093200772
:1035C000B09321078091770790917807A0917907B0
:1035D000B0917A078093220790932307A093240742
:1035E000B09325078DB79EB706960FB6F8949EBF89
:1035F0000FBE8DBF0E940014609357077093580749
:103600008093590790935A071F910F91FF90EF9065
:10361000DF90CF90BF90AF909F908F907F906F90F2
:103620000895CF92DF92EF92FF920F931F930E9423
:10363000001460935707709358078093590790932D
:103640005A0760911607709117078091180790919B
:10365000190720916B0730916C0740916D075091CD
:103660006E070E947ACD882309F07AC060911A070C
:1036700070911B0780911C0790911D0720916F0787
:103680003091700740917107509172070E947ACD76
:10369000882309F065C06091670370916803809189
:1036A000690390916A0320E030E040E752E40E9411
:1036B00081CD7B018C018BE697E06FE677E043E7F5
:1036C00057E027E737E0E1E4CE2EE7E0DE2E0E9468
:1036D000FC5880916B0790916C07A0916D07B09199
:1036E0006E078093160790931707A0931807B0935F
:1036F000190780916F0790917007A0917107B091A1
:10370000720780931A0790931B07A0931C07B0932E
:103710001D078091730790917407A0917507B09170
:10372000760780931E0790931F07A0932007B093FE
:1037300021078091770790917807A0917907B09140
:103740007A078093220790932307A0932407B093CE
:1037500025071F910F91FF90EF90DF90CF90089574
:103760006091510370915203882777FD8095982FBF
:103770000E941CCE20916703309168034091690339
:1037800050916A030E945AD020E030E040E752E4B2
:103790000E9481CD20E030E048EC52E488CF8DE9F2
:1037A00099E00E94463DE7E0F3E0949108C08091E3
:1037B000C00085FFFCCF9093C60031969491992369
:1037C000B1F740914F0750915007609151077091A8
:1037D00052074F5F5F4F6F4F7F4F8DE999E02AE0AF
:1037E00030E00E94073E8091C00085FFFCCF8AE058
:1037F0008093C6000E94C71908952F923F924F925E
:103800005F926F927F928F929F92AF92BF92CF9270
:10381000DF92EF92FF920F931F93DF93CF93CDB779
:10382000DEB728970FB6F894DEBF0FBECDBF9887DE
:103830008F838330910508F056C1FC01E25CFA4F9A
:10384000D4903C01660C771C660C771C93012A5EB1
:10385000384F3A83298380E090E0A0E0B0E0F9019E
:1038600080839183A283B38386E197E06AE177E066
:103870004EE157E022E237E00E94ED53F301EE5CA7
:10388000FA4FE590F590059114916D2D772767FD1E
:103890007095882777FD8095982F0E941CCE1B017C
:1038A0002C0193012559384F3C832B83C801B70164
:1038B00020E030E040EC5FE30E945AD0A201910189
:1038C0000E945AD0AB81BC816D937D938D939C9364
:1038D0001397F301EF5BFC4FFE83ED8360817181F1
:1038E0008281938160936703709368038093690377
:1038F00090936A0320E030E040E752E40E9481CDDB
:103900007B018C018BE697E06FE677E043E757E0B9
:1039100027E737E0A1E4CA2EA7E0DA2E0E94FC5880
:103920000E945A6680E090E0A0E0B0E0E981FA8170
:1039300080839183A283B38386E197E06AE177E095
:103940004EE157E022E237E00E94ED53F301EB59DC
:10395000FA4F85909590A590B490C501B401905808
:10396000A20191010E945AD0AB81BC816D937D93DD
:103970008D939C9313976091670370916803809176
:10398000690390916A0320E030E040E752E40E942E
:1039900081CD7B018C018BE697E06FE677E043E712
:1039A00057E027E737E00E94FC580E945A66C5019D
:1039B000B401A50194010E94A1CCA20191010E9431
:1039C0005AD0EB81FC816083718382839383AD81C4
:1039D000BE816D917D918D919C9120E030E040E021
:1039E0005FE30E945AD060936703709368038093EB
:1039F000690390936A0320E030E040E752E40E94BC
:103A000081CD7B018C018BE697E06FE677E043E7A1
:103A100057E027E737E00E94FC580E945A66F301FE
:103A2000EF5BFA4F6591759185919491F301EA5D91
:103A3000F84FA080B180C280D380A60195010E947A
:103A4000A1CC7B018C01CB01D801E981FA81808373
:103A50009183A283B383F301E35BFA4F6591759180
:103A600085919491F2E38F2EF7E09F2E860C971CA0
:103A7000A60195010E94A1CCD4016D937D938D93F5
:103A80009C931397F301E75AFA4F659175918591CD
:103A90009491E5E5F3E06E0E7F1EA60195010E946C
:103AA000A1CCD3016D937D938D939C931397C70104
:103AB000D801EB81FC8180839183A283B38380E072
:103AC00090E0A0E0B0E08093670390936803A09338
:103AD0006903B0936A030E944865AF81B885A25C10
:103AE000B84F81E08C9328960FB6F894DEBF0FBED6
:103AF000CDBFCF91DF911F910F91FF90EF90DF909D
:103B0000CF90BF90AF909F908F907F906F905F907D
:103B10004F903F902F900895682F2091800730910B
:103B2000810780E690E0AC01249FC001259F900DA5
:103B3000349F900D11248457984F70E00E94E81034
:103B40009C0190938B0780938A0780E0232B09F0D8
:103B500081E00895FC01949108C08091C00085FF28
:103B6000FCCF9093C600319694919923B1F78DE9DB
:103B700099E022E030E00E94173F0895FC01949103
:103B800008C08091C00085FFFCCF9093C60031969D
:103B900094919923B1F78DE999E02AE030E00E94F1
:103BA000E83D089580918A0790918B07019660E027
:103BB00070E04AE050E00E94500F089580918A071B
:103BC00090918B07019660E070E00E94F00D0895DF
:103BD000CF93DF93EC018091410780934E0784E5FA
:103BE0000E948C1D882309F46FC00E94DE1D0E9474
:103BF000EECD262F60934E07662309F465C0EFE4EF
:103C0000F2E0949108C08091C00085FFFCCF9093B2
:103C1000C600319694919923B1F7C936D10599F030
:103C2000CA36D10524F4C836D105F1F50FC0CD361A
:103C3000D10531F0CA3DD105B9F5E0E0F2E031C07F
:103C4000E7E1F2E023C0EEE2F2E015C0E5E4F2E0E5
:103C500007C08091C00085FFFCCF31969093C600CD
:103C600090819923B1F720C08091C00085FFFCCFDF
:103C700031969093C60090819923B1F715C0809139
:103C8000C00085FFFCCF31969093C60090819923A8
:103C9000B1F70AC08091C00085FFFCCF31969093A8
:103CA000C60090819923B1F78DE999E0622F40E039
:103CB00050E00E94F53D8091C00085FFFCCF8AE076
:103CC0008093C60081E001C080E0DF91CF9108952C
:103CD000AF92BF92CF92DF92EF92FF920F931F931A
:103CE000CF93DF9316E1E12E17E0F12ECBE6D7E07C
:103CF00000E010E0F801ED55FC4F80810E948C1D22
:103D0000882339F10E94DE1D5B016C01F801E05F40
:103D1000F84F8081882311F061E002C060917B0739
:103D200070E0882777FD8095982F0E941CCEF701C0
:103D300020813181428153810E945AD09B01AC0184
:103D4000C601B5010E94A1CC688379838A839B83D5
:103D500009C0F70180819181A281B3818883998311
:103D6000AA83BB830F5F1F4F84E090E0E80EF91E2B
:103D700024960430110509F0BDCF86E40E948C1D05
:103D80008823E1F00E94DE1D7B018C0160937C079B
:103D900070937D0780937E0790937F0720E030E04B
:103DA00040E050E00E9488CF181644F4E092670388
:103DB000F09268030093690310936A03DF91CF9137
:103DC0001F910F91FF90EF90DF90CF90BF90AF9039
:103DD00008950E94681E89E40E948C1D882359F072
:103DE0000E94DE1D60935F077093600780936107F8
:103DF000909362070CC080E090E0A0E0B0E0809378
:103E00005F0790936007A0936107B09362078AE40D
:103E10000E948C1D882359F00E94DE1D6093630769
:103E2000709364078093650790936607089580E018
:103E300090E0A0E0B0E08093630790936407A093C4
:103E40006507B093660708952F923F924F925F9255
:103E50006F927F928F929F92AF92BF92CF92DF929A
:103E6000EF92FF920F931F93DF93CF93CDB7DEB7FF
:103E7000EE970FB6F894DEBF0FBECDBF87E40E9469
:103E80008C1D882309F404C40E94DE1D0E94E9CD24
:103E90006430710509F441C06530710554F4623035
:103EA000710541F1633071056CF57723CCF40C9406
:103EB00027356A35710509F496C36B35710534F4FD
:103EC0006C31710511F00C9427356FC06B3571059D
:103ED00009F48DC36C35710511F00C9427358CC332
:103EE00080914C07882331F40E94681E0E94111BA8
:103EF0000C944E3580914C07882321F40E94E91ED2
:103F000081E007C080914C07882339F40E94E91EA4
:103F100080E00E94541A0C944E3589E295E00E948C
:103F200039C580E50E948C1D882321F4EE24FF24EE
:103F3000870106C00E94DE1D0E94EECD7B018C0130
:103F400083E50E948C1D882361F00E94DE1D20E025
:103F500030E04AE754E40E945AD00E94EECD7B0143
:103F60008C010E945A660E9400145B016C01AE0C29
:103F7000BF1CC01ED11E0E9400146093570770938F
:103F800058078093590790935A0706C00E9473728E
:103F90000E94F0190E9413C60E9400146A157B0546
:103FA0008C059D0598F30C942735809167039091BB
:103FB0006803A0916903B0916A0380938607909388
:103FC0008707A0938807B093890780915103909148
:103FD0005203909315078093140784E690E0909322
:103FE0005203809351030E9400146093570770930B
:103FF00058078093590790935A0781E00E944F65B4
:104000008091160790911707A0911807B091190792
:1040100080936B0790936C07A0936D07B0936E0726
:1040200080911A0790911B07A0911C07B0911D0762
:1040300080936F0790937007A0937107B0937207F6
:1040400080911E0790911F07A0912007B091210732
:104050008093730790937407A0937507B0937607C6
:104060008091220790912307A0912407B091250702
:104070008093770790937807A0937907B0937A0796
:1040800080E090E0A0E0B0E0809367039093680345
:10409000A0936903B0936A0388E50E948C1D88236E
:1040A00061F489E50E948C1D882339F48AE50E9419
:1040B0008C1D882311F481E001C080E080936B03A4
:1040C000882361F488E50E948C1D882309F4D4C1FB
:1040D00089E50E948C1D882309F4CEC180E090E020
:1040E000A0E0B0E08093160790931707A0931807FD
:1040F000B093190780931A0790931B07A0931C078E
:10410000B0931D07FEE38F2EF5E09F2EF401E4909F
:1041100086E197E06AE177E04EE157E022E237E09E
:104120000E94ED53E2E3F5E06591759185919491DC
:1041300020E030E040EC5FE30E945AD05B016C016C
:10414000FF24E7FCF0940027F7FC0095102FC8012E
:10415000B7010E941CCE9B01AC01C601B5010E94B3
:104160005AD060936B0770936C0780936D079093A0
:104170006E07E6E3F5E06591759185919491089459
:10418000811C911CF401D49020E030E040EC5FE30E
:104190000E945AD07B018C016D2D772767FD7095A9
:1041A000872F972F0E941CCE9B01AC01C801B7013D
:1041B0000E945AD060936F077093700780937107C5
:1041C0009093720720914103309142034091430341
:1041D000509144032093670330936803409369032D
:1041E00050936A03E0904503F09046030091470323
:1041F00010914803C801B7010E947ACD882344F486
:10420000E0926703F09268030093690310936A03D6
:1042100060916703709168038091690390916A03CC
:1042200020E030E040E752E40E9481CD7B018C0128
:104230008BE697E06FE677E043E757E027E737E064
:10424000E1E4CE2EE7E0DE2E0E94FC580E945A6682
:10425000E1E4F5E0659175918591949120912607AF
:104260003091270740912807509129070E94A1CC3F
:104270006093160770931707809318079093190798
:10428000EDE4F5E065917591859194912091260773
:104290003091270740912807509129070E94A1CC0F
:1042A00060933207709333078093340790933507F8
:1042B000E9E5F5E065917591859194912091260746
:1042C0003091270740912807509129070E94A1CCDF
:1042D000609355037093560380935703909358034C
:1042E000E5E4F5E0659175918591949120912A0717
:1042F00030912B0740912C0750912D070E94A1CCA3
:1043000060931A0770931B0780931C0790931D07F7
:10431000E1E5F5E0659175918591949120912A07E9
:1043200030912B0740912C0750912D070E94A1CC72
:104330006093360770933707809338079093390757
:10434000EDE5F5E0659175918591949120912A07AD
:1043500030912B0740912C0750912D070E94A1CC42
:104360006093590370935A0380935B0390935C03AB
:1043700086E197E06AE177E04EE157E022E237E03C
:104380000E94ED538091160790911707A09118078E
:10439000B091190780936B0790936C07A0936D07FA
:1043A000B0936E0780911A0790911B07A0911C078C
:1043B000B0911D0780936F0790937007A0937107CA
:1043C000B0937207609167037091680380916903ED
:1043D00090916A0320E030E040E752E40E9481CDF2
:1043E0007B018C018BE697E06FE677E043E757E0CF
:1043F00027E737E00E94FC5880E090E0A0E0B0E0C2
:104400008093670390936803A0936903B0936A0352
:104410000E945A660E94486580916B0790916C07D4
:10442000A0916D07B0916E078093160790931707C0
:10443000A0931807B093190780916F0790917007A8
:10444000A0917107B091720780931A0790931B0790
:10445000A0931C07B0931D07809173079091740778
:10446000A0917507B091760780931E0790931F0760
:10447000A0932007B093210780916B03882329F430
:1044800088E50E948C1D882321F080E090E00E9446
:10449000FD1B80916B03882329F489E50E948C1D04
:1044A000882321F081E090E00E94FD1B88E50E94B6
:1044B0008C1D8823D9F00E94D21D611571058105DC
:1044C0009105A1F00E94DE1D20912607309127075B
:1044D00040912807509129070E94A1CC60931607AC
:1044E00070931707809318079093190789E50E9426
:1044F0008C1D8823D9F00E94D21D6115710581059C
:104500009105A1F00E94DE1D20912A0730912B0712
:1045100040912C0750912D070E94A1CC60931A075F
:1045200070931B0780931C0790931D0780916B036A
:10453000882329F48AE50E948C1D882321F082E0DB
:1045400090E00E94FD1B8AE50E948C1D8823D9F013
:104550000E94D21D6115710581059105A1F00E948F
:10456000DE1D20912E0730912F074091300750918A
:1045700031070E94A1CC60931E0770931F078093A0
:1045800020079093210786E197E06AE177E04EE10A
:1045900057E022E237E00E94ED5380918607909128
:1045A0008707A0918807B09189078093670390934C
:1045B0006803A0936903B0936A03809114079091F4
:1045C000150790935203809351030E940014609347
:1045D0005707709358078093590790935A070E9482
:1045E00048650C94273510927B070C94273581E0A1
:1045F00080937B070C94273585E40E948C1D8823CB
:1046000011F40E945A6646E1E42E47E0F42E36E2A9
:10461000C32E37E0D32E00E010E0F801ED55FC4F3B
:1046200080810E948C1D882331F1033061F40E9447
:10463000DE1DF701608371838283938382E297E0BA
:104640000E94CF5318C00E94DE1DF60120813181E7
:10465000428153810E94A1CCF701608371838283E0
:10466000938386E197E06AE177E04EE157E022E24A
:1046700037E00E94ED530F5F1F4F24E030E0E20E61
:10468000F31EC20ED31E0430110539F60C942735E3
:104690008DE40E948C1D882311F40C9449340E94EF
:1046A000DE1D0E94E9CD6D36710509F4ACC56E368C
:1046B00071050CF09CC06E31710509F48FC26F3129
:1046C00071050CF042C06631710509F4EDC1673126
:1046D0007105E4F46131710509F4A6C16231710517
:1046E00034F46230710510F00C9427353EC164310A
:1046F000710509F4A3C1653171050CF0CFC16231B8
:10470000710511F00C9427350C94342C6931710526
:1047100009F4FCC16A31710554F46731710509F47B
:10472000C9C16831710511F00C942735DFC16B31B7
:10473000710509F410C26B3171050CF4EDC16C31D7
:10474000710511F00C9427350CC26335710511F415
:104750000C942F2C6435710514F56A32710509F437
:10476000B3C36B32710554F46F31710509F427C37B
:104770006032710511F00C94273576C261357105F0
:1047800011F40C940C2C6235710514F00C942B2C44
:104790006035710511F00C9427350C94FD2B6836AB
:1047A000710509F4DBC3693671058CF46535710553
:1047B00011F40C948D2C6535710514F40C94342C83
:1047C0006C35710511F00C9427350C94A42C6A36C5
:1047D000710511F40C94C62B6A3671050CF4EFC305
:1047E0006B36710511F00C9427350C94F72B6C3D4A
:1047F000710511F40C9425306D3D71050CF04FC01E
:104800006C38710509F4CAC36D38710524F5653734
:10481000710511F40C943A2D6637710564F4623712
:10482000710511F40C94512D6337710511F00C943E
:1048300027350C942A2D6837710511F40C94452EF8
:104840006937710511F40C94492E6737710511F021
:104850000C94273586C06B3C710511F40C946B2FBA
:104860006C3C71055CF46E3B710509F47CC6693CD7
:10487000710511F00C9427350C94492F6D3C71058E
:1048800011F40C94A92F6D3C710514F40C94892F2C
:104890006E3C710511F00C9427350C94073031E013
:1048A0006039730711F40C94F93141E061397407F0
:1048B0004CF551E06C32750711F40C949B3081E09B
:1048C0006D32780764F46D3D710511F40C94343049
:1048D000623E710511F00C9427350C94433091E041
:1048E0006E32790711F40C94AA31E1E06E327E0742
:1048F00014F40C94D2306F52714011F00C9427359F
:104900000C94B93121E0673F720711F40C94053221
:1049100031E0683F73079CF441E0653F740711F490
:104920000C94FF3151E0663F750714F00C9402328D
:10493000645F714011F00C9427350C94FC3193E0C6
:10494000603A790709F400C2E3E0673E7E0711F49C
:104950000C9432346855724011F00C9427350C9445
:104960000832ECE5F2E00C94542E88E195E00E94C8
:1049700039C580E50E948C1D882321F4EE24FF2494
:10498000870106C00E94DE1D0E94EECD7B018C01D6
:1049900083E50E948C1D882361F00E94DE1D20E0CB
:1049A00030E04AE754E40E945AD00E94EECD7B01E9
:1049B0008C010E945A660E940014609357077093FE
:1049C00058078093590790935A07E114F1040105A1
:1049D000110501F10E9400145B016C01AE0CBF1CBB
:1049E000C01ED11E0E9400146A157B058C059D0512
:1049F000A8F40E94F692882389F40E9473720E94A0
:104A0000F0190E9413C6EECF0E9473720E94F01933
:104A10000E9413C60E94F6928823B1F389E095E0C4
:104A20000E9439C50C94273580E095E00E9439C575
:104A3000159817984298A0980C942735E0EFF4E069
:104A4000949108C08091C00085FFFCCF9093C60070
:104A5000319694919923B1F78091C00085FFFCCFE6
:104A60008AE08093C60083E894E00E945B85E2EED2
:104A7000F4E0949108C08091C00085FFFCCF909332
:104A8000C600319694919923B1F78091C00085FFBB
:104A9000FCCF8AE08093C6000C94273583E894E02D
:104AA0000E94BA800C94273583E894E00E94F27843
:104AB0000C94273580918A0790918B0704966AE2BF
:104AC00070E00E94E810FC01009711F0319710820D
:104AD00060918A0770918B076C5F7F4F83E894E049
:104AE00041E021E00E94D07C0C94273583E894E0DB
:104AF0000E94F6780E940014609344077093450763
:104B000080934607909347070C94273583E894E0F9
:104B10000E94FD780C94273580918604882311F437
:104B20000C94273583E50E948C1D882311F40C9486
:104B300027350E94D21DAB01BC014093060750935C
:104B40000707809308077093090781E596E00E94A4
:104B50001A420C94273583E894E00E94BB7A0C94A7
:104B6000273580918A0790918B0704966AE270E05E
:104B70000E94E8108C01009719F120918007309174
:104B8000810780E690E0AC01249FC001259F900D35
:104B9000349F900D11248457984F6EE470E00E946A
:104BA000E81060E270E00E94E8109C012F5F3F4F28
:104BB00030938B0720938A0701501040F801108230
:104BC00060918A0770918B076C5F7F4F83E894E058
:104BD00040E021E00E94D07C0C942735809186042F
:104BE000882311F40C94273583E894E060E00E9458
:104BF0002A7A80918A0790918B0704966AE270E086
:104C00000E94E8108C01009719F1209180073091E3
:104C1000810780E690E0AC01249FC001259F900DA4
:104C2000349F900D11248457984F6EE470E00E94D9
:104C3000E81060E270E00E94E8109C012F5F3F4F97
:104C400030938B0720938A0701501040F80110829F
:104C500060918A0770918B076C5F7F4F83E894E0C7
:104C60000E94157B0C94273580918504882311F0D0
:104C70000E945A66E0908A07F0908B0724E030E0AB
:104C8000E20EF31EC7016AE270E00E94E8108C0198
:104C9000C70161E270E00E94E810009721F07C01FA
:104CA0000894E11CF11C0115110521F00150104080
:104CB000F801108280E50E948C1D182F80918A07D0
:104CC00090918B07E816F90608F410E080918604AD
:104CD000882311F40C94273521E0212783E894E000
:104CE000B70141E00E94D07C83E50E948C1D88239F
:104CF000B9F080918A0790918B078E159F0580F4FB
:104D00000E94D21DAB01BC014093060750930707D8
:104D1000809308077093090781E596E00E941A4284
:104D200083E894E00E94F678112311F00C94273563
:104D30000E940014609344077093450780934607D0
:104D4000909347070C94273580918A0790918B07A1
:104D500005966AE270E00E94E8108C01009719F154
:104D6000209180073091810780E690E0AC01249F7C
:104D7000C001259F900D349F900D11248457984FAA
:104D80006EE470E00E94E81060E270E00E94E810BB
:104D90009C012F5F3F4F30938B0720938A07015070
:104DA0001040F801108260918A0770918B076B5F49
:104DB0007F4F83E894E00E94B1800C9427350E94D5
:104DC0000014609348077093490780934A079093B3
:104DD0004B07209144073091450740914607509179
:104DE0004707621B730B840B950B28EE33E040E002
:104DF00050E00E9472D1F22EE32ED42EC52E2DB794
:104E00003EB7285030400FB6F8943EBF0FBE2DBFBE
:104E10000DB71EB70F5F1F4FCE018196EDB7FEB7DE
:104E20009283818383ED94E0F801938382836F2DD5
:104E30007E2D842F952F2CE330E040E050E00E943F
:104E400072D1F801358324836F2D7E2D8D2D9C2DFD
:104E50002CE330E040E050E00E9472D1F80177830B
:104E600066830E941711EFE4F2E094912DB73EB7EC
:104E7000285F3F4F0FB6F8943EBF0FBE2DBF08C04E
:104E80008091C00085FFFCCF9093C600319694912D
:104E90009923B1F7FE01B19607C08091C00085FF4C
:104EA000FCCF31969093C60090819923B1F7809101
:104EB000C00085FFFCCF8AE08093C600CE018196BA
:104EC0000E945CC50C94273583E50E948C1D8823C5
:104ED00011F40C9427350E94DE1D0E94E9CD7B0160
:104EE0008C016B0180E50E948C1D882369F0F7FC22
:104EF0000BC03FEFE316F10409F034F40E94DE1D0D
:104F00000E94E9CD8B0102C00DE010E0E7EAF3E07A
:104F1000808191818017910711F40C942735329686
:104F200044E0E731F407A1F70730110529F4D092E6
:104F30004307C092420704C017FF02C00C942735F4
:104F4000802F61E00E94B315802F6C2D0E946616A1
:104F5000802FB6010E94D3140C94273588E690E088
:104F60000E94E81D882311F00C94273583E50E94E8
:104F70008C1D882379F00E94DE1D20914E07022FA0
:104F800010E0000F111F045B1E4E0E94E9CDF801D6
:104F9000718360830E9458700C94273583E50E94CA
:104FA0008C1D882311F40C9427350E94DE1D0E946D
:104FB000E9CD70934F1160934E110C94273589E61B
:104FC00090E00E94E81D882311F00C942735EDEC49
:104FD000F4E0949108C08091C00085FFFCCF9093CD
:104FE000C600319694919923B1F7E0914E07F0E015
:104FF000EE0FFF1FEE0FFF1FEE5AFE4E4081518154
:10500000628173818DE999E021E030E00E94173FD1
:10501000EAECF4E0949108C08091C00085FFFCCFD9
:105020009093C600319694919923B1F7E0914E0781
:10503000F0E0EE0FFF1FE45BFE4E60817181882778
:1050400077FD8095982F0E941CCEAB01BC018DE9A5
:1050500099E021E030E00E94173FE6ECF4E0949103
:1050600008C08091C00085FFFCCF9093C6003196A8
:1050700094919923B1F74091581150915911609131
:105080005A1170915B118DE999E021E030E00E94A6
:10509000173FE3ECF4E0949108C08091C00085FFD5
:1050A000FCCF9093C600319694919923B1F760910B
:1050B0004E1170914F11882777FD8095982F0E948F
:1050C0001CCEAB01BC018DE999E021E030E00E94EB
:1050D000173FE0ECF4E0949108C08091C00085FF98
:1050E000FCCF9093C600319694919923B1F78DE946
:1050F00099E060E070E04AE050E00E943C3EEEEB58
:10510000F4E0949108C08091C00085FFFCCF90939B
:10511000C600319694919923B1F740915211509164
:10512000531160915411709155118DE999E021E06E
:1051300030E00E94173FEBEBF4E0949108C08091BF
:10514000C00085FFFCCF9093C600319694919923BF
:10515000B1F760914C1170914D11882777FD8095C2
:10516000982F0E941CCEAB01BC018DE999E021E093
:1051700030E00E94173FE7EBF4E0949108C0809183
:10518000C00085FFFCCF9093C6003196949199237F
:10519000B1F780914E070E944A6EBC018DE999E0FB
:1051A0004AE050E00E943C3EE2EBF4E0949108C0FB
:1051B0008091C00085FFFCCF9093C60031969491FA
:1051C0009923B1F78FEF9FEF0E944A6EBC018DE9E2
:1051D00099E04AE050E00E943C3EE5E7F2E007C07B
:1051E0008091C00085FFFCCF31969093C6009081DE
:1051F0009923B1F78091C00085FFFCCF8AE08093AE
:10520000C6000C944E358DE690E00E94E81D882380
:1052100011F00C94273587EA94E00E9439C583E5A4
:105220000E948C1D882399F00E94DE1D20914E075C
:10523000022F10E0000F111F045B1E4E0E94E9CDEB
:10524000F8017183608381E08093620316C082E578
:105250000E948C1D882389F00E94DE1D20914E073C
:10526000022F10E0000F111F045B1E4E0E94E9CDBB
:10527000F80171836083109262030E9458700E944B
:1052800000144B015C0120914E07022F10E0109298
:105290004D07000F111FF801E45BFE4E6081718124
:1052A000882777FD8095982F0E941CCE000F111F34
:1052B0000E5A1E4EF80120813181428153810E9495
:1052C00088CF18161CF481E080934D07CC24CA9433
:1052D000DC2C7601E4EAF4E05490E0EAF4E0649037
:1052E000ECE9F4E074905AE0452E30C1952DE4EAE3
:1052F000F4E008C08091C00085FFFCCF9093C60009
:10530000319694919923B1F7E0914E07F0E0EE0FBA
:10531000FF1FEE0FFF1FEE5AFE4E4081518162814A
:1053200073818DE999E021E030E00E94173F962DCE
:10533000E0EAF4E008C08091C00085FFFCCF9093C4
:10534000C600319694919923B1F760914E078DE98B
:1053500099E070E04AE050E00E943C3E972DECE975
:10536000F4E008C08091C00085FFFCCF9093C60098
:10537000319694919923B1F7F7FE03C0E6E7F2E086
:1053800028C00E940014A70196012854344F4F4FA3
:105390005F4F261B370B480B590BCA01B90128EE8A
:1053A00033E040E050E00E9472D18DE999E0BA010B
:1053B000A9012AE030E00E94E83D8091C00085FF0D
:1053C000FCCF0EC08091C00085FFFCCF319690933A
:1053D000C60090819923B1F78091C00085FFFCCF72
:1053E0004092C6000E9400144B015C010E9473723F
:1053F0000E94F0190E9413C6FFEFCF16FFEFDF06E1
:10540000FFEFEF06FFEFFF0609F052C080914D0756
:10541000E0914E07882331F1F0E08F01000F111F5A
:10542000000F111F0E5A1E4EEE0FFF1FE45BFE4EC3
:1054300060817181882777FD8095982F0E941CCE0E
:1054400020E030E040E85FE30E94A0CC9B01AC018B
:10545000F80160817181828193810E9488CF87FFEA
:1054600058C05EC0F0E08F01000F111F000F111F28
:105470000E5A1E4EEE0FFF1FE45BFE4E60817181DF
:10548000882777FD8095982F0E941CCE20E030E081
:1054900040E85FE30E94A1CC9B01AC01F801608170
:1054A0007181828193810E947ACD181694F538C05B
:1054B000F7FC36C0E0914E07F0E08F01000F111F9E
:1054C000000F111F0E5A1E4EEE0FFF1FE45BFE4E23
:1054D00060817181882777FD8095982F0E941CCE6E
:1054E0009B01AC01F80160817181828193810E94EE
:1054F000A0CC0E94E9CD97FF07C09095809570954C
:1055000061957F4F8F4F9F4F6430710581059105E5
:105510003CF00E940014AC01CB01DA016C017D016A
:10552000FFEFCF16FFEFDF06FFEFEF06FFEFFF06FF
:1055300069F0F7FE02C00C942A350E9400146C1921
:105540007D09685B7B4010F00C942A350E940014A2
:10555000681979098A099B09695E73408040904007
:1055600008F0C4CE43CF81E894E00E9439C583E5BA
:105570000E948C1D882361F00E94DE1D0E94E9CDEF
:1055800070934F1160934E1181E0809362030FC0BE
:1055900082E50E948C1D882351F00E94DE1D0E942E
:1055A000E9CD70934F1160934E11109262030E94E7
:1055B00000147B018C0110924D0760914E11709187
:1055C0004F11882777FD8095982F0E941CCE20913F
:1055D00058113091591140915A1150915B110E940C
:1055E00088CF18160CF082C081E080934D077EC0F2
:1055F0000E9400146E197F09800B910B695E734045
:105600008040904008F46BC0E0914107F0E0EE0F5D
:10561000FF1FEE0FFF1FEE5AFE4E40815181628147
:1056200073819B2DEEE7F4E008C08091C00085FFF8
:10563000FCCF9093C600319694919923B1F78DE9F0
:1056400099E022E030E00E94173F9C2DEAE7F4E069
:1056500008C08091C00085FFFCCF9093C6003196B2
:1056600094919923B1F7609141078DE999E070E039
:105670004AE050E00E943C3E9D2DE6E7F4E008C081
:105680008091C00085FFFCCF9093C6003196949125
:105690009923B1F7409158115091591160915A11C5
:1056A00070915B118DE999E021E030E00E94173F95
:1056B000E5E7F2E007C08091C00085FFFCCF31969E
:1056C0009093C60090819923B1F78091C00085FF27
:1056D000FCCFA092C6000E9400147B018C010E94A6
:1056E00073720E94F0190E9413C60BC0EEE7F4E03B
:1056F000B490EAE7F4E0C490E6E7F4E0D4906AE01E
:10570000A62E80914D0720914E1130914F11882384
:10571000A9F0B901882777FD8095982F0E941CCEAB
:10572000209158113091591140915A1150915B11AB
:105730000E9488CF18160CF45BCF18C0B9018827D7
:1057400077FD8095982F0E941CCE209158113091A2
:10575000591140915A1150915B110E947ACD8823C2
:105760002CF480916203882309F442CF8CE694E004
:105770000E9439C50E940014609357077093580720
:105780008093590790935A070C94273583E50E941C
:105790008C1D882321F10E94DE1D20E030E040E0D6
:1057A00050E00E947ACD88231CF460E070E011C0C4
:1057B0000E94DE1D20E030E04FE753E40E9488CFD6
:1057C00018161CF46FEF70E004C00E94DE1D0E94EA
:1057D000E9CD70934307609342070C9427358FEF10
:1057E00090E090934307809342070C9427351092E2
:1057F0004307109242070C942735269A2E98809AD8
:10580000889A81E0809361038BE594E00E9439C51A
:105810000E9413C60C9427350E94556E0E945A664A
:10582000A09A0E946866109243071092420768EEA1
:1058300073E080E090E00E940E140E945A66809A05
:105840008898109261038CE494E00E9439C50E940C
:1058500013C60C942735109213070C94273581E05A
:10586000809313070C94273583E50E948C1D8823B1
:10587000A1F00E94DE1D20E030E04AE754E40E94DF
:105880005AD00E94EECD60936303709364038093BB
:105890006503909366030C94273588E50E948C1D60
:1058A000882311F00C94433589E50E948C1D8823D0
:1058B00011F00C9443358AE50E948C1D882311F069
:1058C0000C94433585E40E948C1D882311F00C94C0
:1058D00043350E945A66A09A0E9468660C94273548
:1058E000159A10923E0789E50E948C1D882319F0B5
:1058F000179A10923F078AE50E948C1D882319F0A1
:10590000429A1092400785E40E948C1D882311F46E
:105910000C942735A09A0C94273583E50E948C1DA2
:105920000E94DE1D20E030E04AE754E40E945AD095
:105930000E94EECD60935B0770935C0780935D07D8
:1059400090935E070C9427355FEB652E5BE0752E18
:105950004FEA242E4BE0342E3BEF432E3BE0532EF8
:1059600088249924F401ED55FC4F80810E948C1D00
:10597000882309F45DC053E0851609F052C00E94E7
:10598000DE1D5B016C0120E030E040EA51E40E9442
:105990007ACD88230CF03FC0F30160817181828150
:1059A0009381A60195010E9481CD7B018C016091BC
:1059B000F30B7091F40B8091F50B9091F60BA8010D
:1059C00097010E945AD06093F30B7093F40B80936D
:1059D000F50B9093F60BF1016081718182819381C7
:1059E000A80197010E945AD0F101608371838283DC
:1059F0009383F20160817181828193810E941ACE2A
:105A0000A80197010E945AD00E94EECDF201608356
:105A1000718382839383F301A082B182C282D38295
:105A200007C00E94DE1DF30160837183828393832C
:105A30000894811C911C24E030E0620E731E220E3B
:105A4000331E420E531E34E08316910409F08ACFB0
:105A50000C942735E2E8F3E0949108C08091C000EF
:105A600085FFFCCF9093C600319694919923B1F7AE
:105A70000C94273580918A0790918B0705966AE2EE
:105A800070E00E94E810FC01009711F0319710823D
:105A900080918A0790918B0705960E945CC50C94B3
:105AA0002735EFE7F3E0949108C08091C00085FFAF
:105AB000FCCF9093C600319694919923B1F7409111
:105AC00016075091170760911807709119078DE913
:105AD00099E022E030E00E94173FECE7F3E0949178
:105AE00008C08091C00085FFFCCF9093C60031961E
:105AF00094919923B1F740911A0750911B07609137
:105B00001C0770911D078DE999E022E030E00E94AA
:105B1000173FE9E7F3E0949108C08091C00085FF4A
:105B2000FCCF9093C600319694919923B1F74091A0
:105B30001E0750911F0760912007709121078DE982
:105B400099E022E030E00E94173FE6E7F3E094910D
:105B500008C08091C00085FFFCCF9093C6003196AD
:105B600094919923B1F740912207509123076091B6
:105B70002407709125078DE999E022E030E00E942A
:105B8000173FEBE6F3E0949108C08091C00085FFD9
:105B9000FCCF9093C600319694919923B1F780E0A1
:105BA0000E9425660E941CCE2091BF0B3091C00B35
:105BB0004091C10B5091C20B0E9481CDAB01BC0141
:105BC0008DE999E022E030E00E94173FE8E6F3E03B
:105BD000949108C08091C00085FFFCCF9093C600CF
:105BE000319694919923B1F781E00E9425660E9435
:105BF0001CCE2091C30B3091C40B4091C50B50912A
:105C0000C60B0E9481CDAB01BC018DE999E022E079
:105C100030E00E94173FE5E6F3E0949108C08091E0
:105C2000C00085FFFCCF9093C600319694919923D4
:105C3000B1F782E00E9425660E941CCE2091C70B1E
:105C40003091C80B4091C90B5091CA0B0E9481CD75
:105C5000AB01BC018DE999E022E030E00E94173FE2
:105C6000E5E7F2E007C08091C00085FFFCCF3196E8
:105C70009093C60090819923B1F78091C00085FF71
:105C8000FCCF8AE08093C600E2C680E00E944F65A8
:105C9000DEC681E00E944F65DAC68091C00085FFB4
:105CA000FCCF31969093C60090819923B1F78091F3
:105CB000C00085FFFCCF8AE08093C600EDE5F3E0ED
:105CC000949108C08091C00085FFFCCF9093C600DE
:105CD000319694919923B1F7009B03C0E8E7F2E075
:105CE0000AC0EDE7F2E007C08091C00085FFFCCF5D
:105CF00031969093C60090819923B1F78091C000AE
:105D000085FFFCCF8AE08093C600E5E5F3E094913F
:105D100008C08091C00085FFFCCF9093C6003196EB
:105D200094919923B1F7029B03C0E8E7F2E00AC01F
:105D3000EDE7F2E007C08091C00085FFFCCF31960F
:105D40009093C60090819923B1F78091C00085FFA0
:105D5000FCCF8AE08093C600EDE4F3E0949108C0A4
:105D60008091C00085FFFCCF9093C600319694913E
:105D70009923B1F7049B03C0E8E7F2E00AC0EDE71E
:105D8000F2E007C08091C00085FFFCCF3196909370
:105D9000C60090819923B1F78091C00085FFFCCFA8
:105DA0008AE08093C600E5E4F3E0949108C0809116
:105DB000C00085FFFCCF9093C60031969491992343
:105DC000B1F7069B03C0E8E7F2E00AC0EDE7F2E0B6
:105DD00007C08091C00085FFFCCF31969093C6002C
:105DE00090819923B1F78091C00085FFFCCF8AE0B4
:105DF0008093C600EDE3F3E0949108C08091C00069
:105E000085FFFCCF9093C600319694919923B1F70A
:105E1000379B03C0E8E7F2E00AC0EDE7F2E007C015
:105E20008091C00085FFFCCF31969093C600908191
:105E30009923B1F78091C00085FFFCCF8AE0809361
:105E4000C600E5E3F3E0949108C08091C00085FFAF
:105E5000FCCF9093C600319694919923B1F7359B6E
:105E600003C0E8E7F2E00AC0EDE7F2E007C0809186
:105E7000C00085FFFCCF31969093C6009081992396
:105E8000B1F78091C00085FFFCCF8AE08093C60007
:105E9000DEC503EA13E02FECE22E2BE0F22EF80130
:105EA00080810E948C1D882349F00E94DE1D0E9483
:105EB000EECDF70160837183828393830F5F1F4F61
:105EC00024E030E0E20EF31E33E0073A130739F71F
:105ED0000E94A453BCC503EA13E09FEAE92E9BE0AD
:105EE000F92EF80180810E948C1D882339F00E94D0
:105EF000DE1DF70160837183828393830F5F1F4FE1
:105F000024E030E0E20EF31E33E0073A130749F7CE
:105F10009EC583E50E948C1D882351F00E94DE1DE2
:105F20006093E30B7093E40B8093E50B9093E60B87
:105F300084E50E948C1D882309F489C50E94DE1D1A
:105F40006093E70B7093E80B8093E90B9093EA0B57
:105F50007EC583E50E948C1D882351F00E94DE1DC2
:105F60006093DF0B7093E00B8093E10B9093E20B57
:105F700084E50E948C1D882351F00E94DE1D6093F1
:105F8000F70B7093F80B8093F90B9093FA0B82E464
:105F90000E948C1D882361F00E94DE1D0E94EECDC0
:105FA0006093AB0B7093AC0B8093AD0B9093AE0BE7
:105FB00088E50E948C1D882351F00E94DE1D6093AD
:105FC000EB0B7093EC0B8093ED0B9093EE0B8AE54B
:105FD0000E948C1D882351F00E94DE1D6093EF0B00
:105FE0007093F00B8093F10B9093F20B85E40E9479
:105FF0008C1D882309F42BC50E94DE1D6093F30BD2
:106000007093F40B8093F50B9093F60B20C503EA85
:1060100013E086E2E82E87E0F82EF80180810E94E6
:106020008C1D882339F00E94DE1DF7016083718387
:10603000828393830F5F1F4F24E030E0E20EF31E54
:1060400033E0063A130749F702C583E50E948C1D29
:10605000882309F4FCC40E94DE1D0E94E9CD7093E0
:10606000520360935103F3C483E50E948C1D88237F
:1060700009F4EDC40E94DE1D0E94E9CD7093540323
:1060800060935303E4C480E50E948C1D882309F4C7
:10609000DEC40E94DE1D0E94E9CD7B0183E50E94E3
:1060A0008C1D882319F40FEF1FEF05C00E94DE1D21
:1060B0000E94E9CD8B01C8010196039708F0C7C47F
:1060C000E7EAF3E0808191818E159F0509F4BFC452
:1060D000329644E0E731F407A9F7F7FCB8C40E9410
:1060E0005A66DE2C8E2D60E00E94B3150115110555
:1060F00041F00130110579F05FEF0F3F1507A1F472
:1061000003C000E010E010C08E2D0E94991600E040
:1061100010E0892B49F401E010E006C00E94737280
:106120000E94F0190E9413C68D2D0E9499168017A7
:106130009107A1F78CC483E50E948C1D882321F46C
:10614000BEE6CB2ED12C05C00E94DE1D0E94E9CDFB
:106150006B0180E50E948C1D882319F468EE73E0C2
:1061600004C00E94DE1D0E94E9CD7B010027F7FCE0
:106170000095102F1C141D0484F482E1B60120E068
:1061800030E040E050E00E94F98FC801B7010E9462
:106190000E1482E10E94828F5AC4C801B7010E9486
:1061A0000E1455C480E50E948C1D882351F00E9476
:1061B000DE1D60937503709376038093770390934D
:1061C000780389E40E948C1D882361F00E94DE1D03
:1061D0000E946B6E6093790370937A0380937B03C4
:1061E00090937C0384E40E948C1D882361F00E94BC
:1061F000DE1D0E94796E60937D0370937E03809311
:106200007F039093800383E40E948C1D882351F0C8
:106210000E94DE1D60938103709382038093830349
:10622000909384030E94336EE7E8F2E007C0809108
:10623000C00085FFFCCF31969093C60090819923D2
:10624000B1F7EAE8F2E007C08091C00085FFFCCF1B
:1062500031969093C60090819923B1F740917503D0
:106260005091760360917703709178038DE999E0FE
:1062700022E030E00E94173FEEE8F2E007C0809194
:10628000C00085FFFCCF31969093C6009081992382
:10629000B1F76091790370917A0380917B039091BB
:1062A0007C030E94726EAB01BC018DE999E022E093
:1062B00030E00E94173FE2E9F2E007C08091C000A1
:1062C00085FFFCCF31969093C60090819923B1F75A
:1062D00060917D0370917E0380917F039091800394
:1062E0000E94806EAB01BC018DE999E022E030E0B4
:1062F0000E94173FE6E9F2E007C08091C00085FFE9
:10630000FCCF31969093C60090819923B1F74091CC
:1063100081035091820360918303709184038DE91E
:1063200099E022E030E00E94173FE5E7F2E007C085
:106330008091C00085FFFCCF31969093C60090817C
:106340009923B1F78091C00085FFFCCF8AE080934C
:10635000C6007DC383E50E948C1D882329F460E07C
:1063600070E080E090E002C00E94DE1D0E949B531E
:106370006EC385E40E948C1D882319F4CC24DD248F
:1063800012C00E94DE1D0E94E9CD6B0177FF0BC099
:106390000F2EF0E0EF2EF0E0FF2EFCE80F2FF2E4DE
:1063A0001F2FF02D0AC00F2EF0E0EF2EF0E0FF2E91
:1063B000F6E10F2FF3E41F2FF02D83E50E948C1DD3
:1063C000882321F00E94DE1D7B018C0183E40E9462
:1063D0008C1D882319F425E030E005C00E94DE1DE5
:1063E0000E94E9CD9B01C801B701A6010E947D74FE
:1063F0002EC30E945A662BC30E94448628C30E9463
:10640000748D25C30E94918822C30E943E8A1FC3B7
:10641000A0901607B0901707C0901807D0901907E2
:10642000A982BA82CB82DC82E0901A07F0901B0727
:1064300000911C0710911D07ED82FE820F831887C3
:1064400020911E0730911F0740912007509121078E
:1064500029873A874B875C87809122079091230791
:10646000A0912407B09125078D879E87AF87B88BB1
:10647000A98ABA8ACB8ADC8AED8AFE8A0F8B188FAA
:10648000298F3A8F4B8F5C8F8D8F9E8FAF8FB8A3E4
:1064900085E40E948C1D882369F0ED84FE840F85BD
:1064A00018890E94DE1D9B01AC01C801B7010E9442
:1064B000A1CC0AC06D857E858F85988920E030E06B
:1064C00040E050E40E94A0CC6D877E878F87988B38
:1064D00060916703709168038091690390916A03EA
:1064E00020E030E040E752E40E9481CD7B018C0146
:1064F000CE010196BE016B5F7F4FAE01475F5F4FDC
:106500009E01235F3F4FA1E4CA2EA7E0DA2E0E942E
:10651000FC588AE50E948C1D882359F0E984FA848E
:106520000B851C850E94DE1D9B01AC01C801B701D3
:1065300008C069857A858B859C8520E030E040E243
:1065400051E40E94A1CC69877A878B879C876091F0
:106550006703709168038091690390916A0320E05A
:1065600030E040E752E40E9481CD7B018C01CE01F6
:106570000196BE016B5F7F4FAE01475F5F4F9E018B
:10658000235F3F4FF1E4CF2EF7E0DF2E0E94FC584F
:1065900088E50E948C1D882389F0E980FA800B81B0
:1065A0001C810E94DE1D9B01AC01C801B7010E9445
:1065B000A1CC69837A838B839C8308C080E090E0C0
:1065C000A0E4B0E489839A83AB83BC8389E50E940D
:1065D0008C1D882339F00E94DE1D6D837E838F839E
:1065E000988708C080E090E0A0E4B0E48D839E83AB
:1065F000AF83B887609167037091680380916903E6
:1066000090916A0320E030E040E752E40E9481CD9F
:106610007B018C01CE010196BE016B5F7F4FAE0105
:10662000475F5F4F9E01235F3F4FE1E4CE2EE7E0DF
:10663000DE2E0E94FC588CE40E948C1D882369F099
:10664000ED84FE840F8518890E94DE1D9B01AC013C
:10665000C801B7010E94A1CC0AC06D857E858F85D7
:10666000988920E030E048EC52E40E94A0CC6D878D
:106670007E878F87988B6091670370916803809104
:10668000690390916A0320E030E040E752E40E9401
:1066900081CD7B018C01CE010196BE016B5F7F4FE6
:1066A000AE01475F5F4F9E01235F3F4FB1E4CB2EAA
:1066B000B7E0DB2E0E94FC580E945A66A09A64E65E
:1066C00070E080E090E00E940E1485E293E00E946A
:1066D00048C510E018C01F5F0E9473720E94F01935
:1066E0000E9413C6112379F4539A5B9A63E070E019
:1066F00080E090E00E940E145B9863E070E080E020
:1067000090E00E940E140E94F692882321F38CE4FC
:106710000E948C1D882369F0ED84FE840F85188902
:106720000E94DE1D9B01AC01C801B7010E94A0CCF4
:106730000AC06D857E858F85988920E030E048EC21
:1067400052E40E94A1CC6D877E878F87988B8D85C0
:106750009E85AF85B8898093220790932307A093E5
:106760002407B093250782E297E00E94CF53A9E067
:106770004A2E512C4C0E5D1EFDE06F2E712C6C0EBE
:106780007D1E609167037091680380916903909109
:106790006A0320E030E040E752E40E9481CD7B01B3
:1067A0008C01CE010196BE016B5F7F4FA201930168
:1067B000E1E4CE2EE7E0DE2E0E94FC5891E1A92E06
:1067C000B12CAC0EBD1E85E1882E912C8C0E9D1E29
:1067D00060916703709168038091690390916A03E7
:1067E00020E030E040E752E40E9481CD7B018C0143
:1067F000C501B401A20193010E94FC5809E1402E99
:10680000512C4C0E5D1E609167037091680380915E
:10681000690390916A0320E030E040E752E40E946F
:1068200081CD7B018C01C501B401A20193010E94BD
:10683000FC5860916703709168038091690390919F
:106840006A0320E030E040E752E40E9481CD7B0102
:106850008C01C501B401A2019E01235E3F4F0E943D
:10686000FC58F5C010924C070E94F3928091530798
:1068700090915407A0915507B091560780934F0708
:1068800090935007A0935107B09352070E94CF1BDB
:10689000DEC084E50E948C1D882309F48DC00E940F
:1068A000DE1D0E94EECD262F60934E076623B9F1C0
:1068B000EFE4F2E0949108C08091C00085FFFCCF26
:1068C0009093C600319694919923B1F7EAE9F2E0EA
:1068D00007C08091C00085FFFCCF31969093C60021
:1068E00090819923B1F78DE999E0622F40E050E063
:1068F0000E94F53DECE9F2E007C08091C00085FF01
:10690000FCCF31969093C60090819923B1F7809186
:10691000C00085FFFCCF8AE08093C60098C086E463
:106920000E948C1D8823E1F00E94DE1D7B018C01FA
:1069300060937C0770937D0780937E0790937F0719
:1069400020E030E040E050E00E9488CF181644F488
:10695000E0926703F09268030093690310936A035F
:10696000EFE4F2E0949108C08091C00085FFFCCF75
:106970009093C600319694919923B1F7EDEAF2E035
:1069800007C08091C00085FFFCCF31969093C60070
:1069900090819923B1F7609141078DE999E070E00A
:1069A0004AE050E00E943C3E8091C00085FFFCCF51
:1069B0008AE08093C6004BC0EFE4F2E0949108C0F7
:1069C0008091C00085FFFCCF9093C60031969491D2
:1069D0009923B1F7E2E1F3E0949108C08091C000FF
:1069E00085FFFCCF9093C600319694919923B1F71F
:1069F000209180073091810780E690E0289FF00188
:106A0000299FF00D389FF00D1124E457F84F07C06F
:106A10008091C00085FFFCCF31969093C600908195
:106A20009923B1F7E0E1F3E0949108C08091C000B0
:106A300085FFFCCF9093C600319694919923B1F7CE
:106A40008091C00085FFFCCF8AE08093C6000E9441
:106A5000C71924C08EE894E00E9439C50E94001432
:106A600060934407709345078093460790934707C8
:106A70000E9400146093570770935807809359073A
:106A800090935A07E4CF0E945A6688E50E948C1DB5
:106A9000882311F00C94702C0C94732CEE960FB686
:106AA000F894DEBF0FBECDBFCF91DF911F910F9144
:106AB000FF90EF90DF90CF90BF90AF909F908F901E
:106AC0007F906F905F904F903F902F9008952F92FE
:106AD0003F924F925F926F927F928F929F92AF926E
:106AE000BF92CF92DF92EF92FF920F931F93DF93AB
:106AF000CF93CDB7DEB76E970FB6F894DEBF0FBE5B
:106B0000CDBF80E6A82EB12CE2EAF5E084900AE041
:106B1000702EE8E1F6E094906624639413C22D3061
:106B200071F02A3321F480910D09882341F080917E
:106B30000E0990910F098F3591050CF4DFC1E0919A
:106B40000E09F0910F09309709F404C3A0911009C0
:106B5000B0911109AA9D7001AB9DF00CBA9DF00C8B
:106B60001124EE0DFF1DE457F84F108280910D099E
:106B7000882309F0BEC110920D09AE57B84F1C9280
:106B800087010457184FC8016EE470E00E94E810B6
:106B90009C01009709F4F7C090938B0780938A07B4
:106BA0002F5F3F4F201B310B2E0D3F1DC901845716
:106BB000984F60E070E04AE050E00E94500F609310
:106BC0001209709313098093140990931509C090CA
:106BD0004F07D0905007E0905107F0905207A7015F
:106BE00096012F5F3F4F4F4F5F4F62177307840728
:106BF000950709F457C380911009909111099C01E0
:106C00002A9DC0012B9D900D3A9D900D1124845713
:106C1000984F61EC76E00E94AD10892B09F042C3D9
:106C2000E5E5F2E0949108C08091C00085FFFCCFBB
:106C30009093C600319694919923B1F7EEE8F6E06F
:106C4000949108C08091C00085FFFCCF9093C6004E
:106C5000319694919923B1F78DE999E0B701A60196
:106C60002AE030E00E94073E8091C00085FFFCCF03
:106C700073C0FE264F5FFC01E40FF11DE457F84F8F
:106C8000E081EA32B1F730938B0720938A07C9017C
:106C9000019660E070E00E94F00D0E94E9CD2F2D7A
:106CA00030E02617370709F45DC0E5E5F2E094917E
:106CB00008C08091C00085FFFCCF9093C60031963C
:106CC00094919923B1F7EFE6F6E0949108C0809192
:106CD000C00085FFFCCF9093C60031969491992314
:106CE000B1F740914F075091500760915107709153
:106CF00052078DE999E02AE030E00E94073E80913A
:106D0000C00085FFFCCF28C0E5E5F2E0949108C003
:106D10008091C00085FFFCCF9093C600319694917E
:106D20009923B1F7E5E4F6E0949108C08091C000A2
:106D300085FFFCCF9093C600319694919923B1F7CB
:106D40008DE999E0B701A6012AE030E00E94073EF4
:106D50008091C00085FFFCCF8AE08093C6000E942E
:106D6000CF1B4AC08091120990911309A091140978
:106D7000B091150980934F0790935007A093510746
:106D8000B09352073EC0C8016AE270E00E94E8106A
:106D9000009709F436C0E5E5F2E0949108C08091CF
:106DA000C00085FFFCCF9093C60031969491992343
:106DB000B1F7EBE1F6E0949108C08091C00085FF47
:106DC000FCCF9093C600319694919923B1F74091EE
:106DD0004F075091500760915107709152078DE90C
:106DE00099E02AE030E00E94073E8091C00085FFD4
:106DF000FCCF8AE08093C60010920F0910920E0912
:106E000070C280911009909111098A9D70018B9D2B
:106E1000F00C9A9DF00C112487010457184FC801FB
:106E200067E470E00E94E8109C01009709F44BC0F1
:106E300090938B0780938A072F5F3F4F201B310B66
:106E40002E0D3F1DC9018457984F60E070E00E94ED
:106E5000F00D0E94E9CD64307105A8F580914C07D2
:106E60008823C9F480918304882369F5992DE8E18A
:106E7000F6E008C08091C00085FFFCCF9093C6006B
:106E8000319694919923B1F78091C00085FFFCCF92
:106E90007092C60018C0982DE2EAF5E008C0809113
:106EA000C00085FFFCCF9093C60031969491992342
:106EB000B1F78091C00085FFFCCF7092C60088E9D1
:106EC00095E00E9439C580911009909111090196B1
:106ED00064E070E00E945FD19093110980931009E3
:106EE0008091160990911709019690931709809344
:106EF000160910920F0910920E0924C02B3311F4B9
:106F000060920D0980910D098823E1F420910E090A
:106F100030910F0980911009909111098A9DF0011B
:106F20008B9DF00D9A9DF00D1124E20FF31FE45795
:106F3000F84F80910C0980832F5F3F4F30930F09EA
:106F400020930E098091990990919A0920919B09AB
:106F500030919C09821B930B8F779070892B09F4D9
:106F6000BBC1809116099091170904970CF0B4C128
:106F70008DE999E00E94283D282F80930C098A30E2
:106F800009F0CDCDDCCD80910E0990910F09892BB0
:106F900009F0A7C18091160990911709892B09F072
:106FA0002FC1109218092CC14D3099F0433211F0C5
:106FB0004A3321F480910D09882359F080910E09FC
:106FC00090910F098F35910524F42F5F3F4F09F001
:106FD000F2C02091060730910707409108075091B1
:106FE00009078091FE069091FF06A0910007B091DD
:106FF0000107281739074A075B0708F49EC0932D3D
:10700000E5E8F5E008C08091C00085FFFCCF9093D3
:10701000C600319694919923B1F78091C00085FF05
:10702000FCCF2092C6000E94001460934807709322
:10703000490780934A0790934B072091440730916A
:1070400045074091460750914707621B730B840B1D
:10705000950B28EE33E040E050E00E9472D1F22E12
:10706000E32ED42EC52EEDB7FEB738970FB6F894A1
:10707000FEBF0FBEEDBF0DB71EB70F5F1F4FB28231
:10708000A182F80153824282622F732F842F952FA1
:1070900020E13EE040E050E00E9472D1F8013583EB
:1070A00024836F2D7E2D8D2D9C2D2CE330E040E030
:1070B00050E00E9472D1CA01B9012CE330E040E0F7
:1070C00050E00E9472D1F801778366830E94171105
:1070D000982DEFE4F2E02DB73EB7285F3F4F0FB693
:1070E000F8943EBF0FBE2DBF08C08091C00085FF41
:1070F000FCCF9093C600319694919923B1F7F50196
:1071000007C08091C00085FFFCCF31969093C600E8
:1071100090819923B1F78091C00085FFFCCF209228
:10712000C600C5010E945CC583E894E00E945680B9
:1071300083E894E061E00E949A8180910C09833297
:1071400011F49092180920910E0930910F09211520
:10715000310519F410920D09C4C080911009909165
:107160001109869DF001879DF00D969DF00D11246B
:10717000E20FF31FE457F84F1082FC01EE57F84F6F
:10718000908220911609309117092F5F3F4F30935D
:10719000170920931609019664E070E00E945FD100
:1071A000909311098093100910920D0910920F0904
:1071B00010920E093AC04B3311F490920D09809150
:1071C0000D09882391F520910E0930910F098091C6
:1071D000100990911109869DF001879DF00D969DF3
:1071E000F00D1124E20FF31FE457F84F80910C09C2
:1071F00080832F5F3F4F30930F0920930E0915C0F6
:1072000010E6612E712C99249394E5E8F5E0349012
:10721000BAE02B2E5E010894A11CB11CA1E74A2EF6
:10722000A5E05A2EEFE4F2E0849020910607309119
:10723000070740910807509109078091FE06909139
:10724000FF06A0910007B0910107281739074A07E8
:107250005B0708F046C080911609909117090497C2
:107260000CF03FC0809118098823D9F58091590608
:1072700090915A06A0915B06B0915C068093060738
:1072800090930707A0930807B093090781E596E05C
:107290000E94E1459C01482F80930C098A3009F037
:1072A00083CE97CE80911009909111098A9D80011B
:1072B0008B9D100D9A9D100D1124C8018457984F75
:1072C0006AE270E00E94E8109C01009709F41CCD6E
:1072D000FF2440E0C801CFCC80918504882309F0C9
:1072E00052CE6E960FB6F894DEBF0FBECDBFCF91D3
:1072F000DF911F910F91FF90EF90DF90CF90BF90A3
:10730000AF909F908F907F906F905F904F903F9045
:107310002F900895CF93DF938091160990911709CC
:10732000039714F40E94673583E894E060E00E94BC
:107330009A818091160990911709892B09F46AC0E6
:1073400080918304882309F44DC0209180073091F7
:10735000810780E690E0289FE001299FD00D389FAB
:10736000D00D1124C457D84FCE016BED76E00E94AA
:10737000AD10892BE1F483E894E0BE010E94437ACA
:1073800080918404882371F5E8EDF6E0949108C0BB
:107390008091C00085FFFCCF9093C60031969491F8
:1073A0009923B1F78091C00085FFFCCF17C083E817
:1073B00094E060E00E942A7AE6ECF6E0949108C03E
:1073C0008091C00085FFFCCF9093C60031969491C8
:1073D0009923B1F78091C00085FFFCCF8AE08093AC
:1073E000C60002C00E94241F8091160990911709BF
:1073F00001979093170980931609809180079091C7
:107400008107019664E070E00E945FD1909381074C
:10741000809380070E9473720E94F0190E94896D08
:107420000E9413C6DF91CF910895DF93CF930F92FF
:107430000F92CDB7DEB7809A889A269A2E988DE95A
:1074400099E040E950ED63E070E00E94F03CEDEC23
:10745000F7E0949108C08091C00085FFFCCF909325
:10746000C600319694919923B1F78091C00085FFB1
:10747000FCCF8AE08093C6004FE452E0FA01949179
:1074800008C08091C00085FFFCCF9093C600319664
:1074900094919923B1F784B7282F80FF15C0E5ECAC
:1074A000F7E0949108C08091C00085FFFCCF9093D5
:1074B000C600319694919923B1F78091C00085FF61
:1074C000FCCF8AE08093C60021FF15C0E5EBF7E012
:1074D000949108C08091C00085FFFCCF9093C600B6
:1074E000319694919923B1F78091C00085FFFCCF2C
:1074F0008AE08093C60022FF15C0E4EAF7E0949189
:1075000008C08091C00085FFFCCF9093C6003196E3
:1075100094919923B1F78091C00085FFFCCF8AE058
:107520008093C60023FF15C0E4E9F7E0949108C0FA
:107530008091C00085FFFCCF9093C6003196949156
:107540009923B1F78091C00085FFFCCF8AE080933A
:10755000C60025FF15C0E4E8F7E0949108C08091CB
:10756000C00085FFFCCF9093C6003196949199237B
:10757000B1F78091C00085FFFCCF8AE08093C60000
:1075800014BEECE7F7E0949108C08091C00085FF3D
:10759000FCCF9093C600319694919923B1F7EBE517
:1075A000F7E0949108C08091C00085FFFCCF9093D4
:1075B000C600319694919923B1F78091C00085FF60
:1075C000FCCF8AE08093C600FA019491EFE4F2E0E8
:1075D00008C08091C00085FFFCCF9093C600319613
:1075E00094919923B1F7EBE4F7E0949108C080916E
:1075F000C00085FFFCCF9093C600319694919923EB
:10760000B1F7E6E3F7E0949108C08091C00085FFF0
:10761000FCCF9093C600319694919923B1F7EAE29A
:10762000F7E0949108C08091C00085FFFCCF909353
:10763000C600319694919923B1F7ECE1F7E094916B
:1076400008C08091C00085FFFCCF9093C6003196A2
:1076500094919923B1F78091C00085FFFCCF8AE017
:107660008093C600E1E1F7E0949108C08091C000EA
:1076700085FFFCCF9093C600319694919923B1F782
:10768000E5E0F7E0949108C08091C00085FFFCCF51
:107690009093C600319694919923B1F78091C000E0
:1076A00085FFFCCF8AE08093C600FA019491EFE455
:1076B000F2E008C08091C00085FFFCCF9093C60027
:1076C000319694919923B1F7E6EFF6E0949108C0D2
:1076D0008091C00085FFFCCF9093C60031969491B5
:1076E0009923B1F720912A1230912B12CE010196E5
:1076F0002115310519F48053924102C0821B930B6E
:107700009A83898369817A818DE999E04AE050E022
:107710000E943C3EEFEDF6E0949108C08091C000DD
:1077200085FFFCCF9093C600319694919923B1F7D1
:107730008DE999E060ED74E04AE050E00E943C3E43
:107740008091C00085FFFCCF8AE08093C600109234
:1077500082071092830710928407109285070E9477
:10776000748D0E94BF710E9439560E94418F0E9401
:1077700058650E94E9C680E197E220E931E0F9010D
:107780003197F1F70197D9F70F900F90CF91DF91D3
:107790000895BC01809116099091170904970CF087
:1077A00070C0209110093091110980E690E0AC0181
:1077B000249FC001259F900D349F900D1124845764
:1077C000984F0E947F10EFE4F2E0949108C08091FE
:1077D000C00085FFFCCF9093C60031969491992309
:1077E000B1F7E5EDF7E0949108C08091C00085FF06
:1077F000FCCF9093C600319694919923B1F72091D4
:1078000010093091110980E690E0289FF001299F2E
:10781000F00D389FF00D1124E457F84F07C0809108
:10782000C00085FFFCCF31969093C60090819923CC
:10783000B1F7E3EDF7E0949108C08091C00085FFB7
:10784000FCCF9093C600319694919923B1F7809123
:10785000C00085FFFCCF8AE08093C600C901019675
:1078600064E070E00E945FD1909311098093100949
:1078700080911609909117090196909317098093AA
:1078800016090895BC018091160990911709049773
:107890000CF070C0209110093091110980E690E041
:1078A000AC01249FC001259F900D349F900D1124A1
:1078B0008457984F0E94F310EFE4F2E0949108C0CF
:1078C0008091C00085FFFCCF9093C60031969491C3
:1078D0009923B1F7E2EEF7E0949108C08091C000DF
:1078E00085FFFCCF9093C600319694919923B1F710
:1078F000209110093091110980E690E0289FF00155
:10790000299FF00D389FF00D1124E457F84F07C060
:107910008091C00085FFFCCF31969093C600908186
:107920009923B1F7E0EEF7E0949108C08091C00090
:1079300085FFFCCF9093C600319694919923B1F7BF
:107940008091C00085FFFCCF8AE08093C600C9010A
:10795000019664E070E00E945FD1909311098093DA
:1079600010098091160990911709019690931709B3
:107970008093160908951F920F920FB60F920BB6BF
:107980000F9211242F933F934F938F939F93EF93D5
:10799000FF934091C600E0919909F0919A093196C0
:1079A0009F012F773070319780919B0990919C09AE
:1079B0002817390739F0E75EF64F408330939A096C
:1079C00020939909FF91EF919F918F914F913F9152
:1079D0002F910F900BBE0F900FBE0F901F90189518
:1079E0009A01AB01203081EE380780E0480780E043
:1079F000580749F182E08093C00060E079E08DE3B0
:107A000090E00E9494D12150304040405040CA0143
:107A1000B90122E030E040E050E00E9494D1309380
:107A2000C5002093C4008091C10080618093C10093
:107A30008091C10088608093C1008091C1008068FE
:107A40008093C10008951092C00020E130E0E7CF9C
:107A500020919B0930919C098091990990919A09F4
:107A60008217930719F42FEF3FEF0EC0F901E75E7D
:107A7000F64F80812F5F3F4F2F77307030939C09F6
:107A800020939B09282F30E0C901089580919B091C
:107A900090919C0990939A0980939909089508956B
:107AA0002F923F924F925F926F927F928F929F920E
:107AB000AF92BF92CF92DF92EF92FF920F931F93FC
:107AC000DF93CF93CDB7DEB7A0970FB6F894DEBFA4
:107AD0000FBECDBF1C016A017B0141155105610537
:107AE000710549F440E350E060E070E020E030E0F0
:107AF0000E94073E54C0882499245401422E5524E4
:107B00006624772401E010E00C0F1D1F080D191DDD
:107B1000C701B601A30192010E9472D1F8016083EE
:107B20000894811C911CA11CB11CC701B601A301C2
:107B300092010E9472D1C901DA016C017D01C11468
:107B4000D104E104F104F1F681E0E82EF12CEC0E11
:107B5000FD1EE80CF91C3E010894611C711CD50146
:107B6000C4010197A109B1096C01C818D90814C052
:107B7000F601EE0DFF1D40814A3010F4405D01C05A
:107B8000495C50E060E070E0C10120E030E00E941C
:107B9000073E0894E108F1086E147F0449F7A096A7
:107BA0000FB6F894DEBF0FBECDBFCF91DF911F910E
:107BB0000F91FF90EF90DF90CF90BF90AF909F908C
:107BC0008F907F906F905F904F903F902F9008958F
:107BD0002115310539F48091C00085FFFCCF409319
:107BE000C60008950E94503D0895EF92FF920F93B2
:107BF0001F939A01E62EFF2400E010E0B801A701D0
:107C00000E94E83D1F910F91FF90EF900895EF9231
:107C1000FF920F931F93CF93DF93EC017A018B01B7
:107C20002115310539F48091C00085FFFCCFE09229
:107C3000C6001BC02A303105B1F477FF10C04DE2F9
:107C400050E060E070E020E030E00E94073E1095D8
:107C50000095F094E094E11CF11C011D111DCE0172
:107C6000B801A7012AE00E94503DDF91CF911F91FA
:107C70000F91FF90EF900895EF92FF920F931F9353
:107C80007B019A010027F7FC0095102FB801A7018E
:107C90000E94073E1F910F91FF90EF9008950F9360
:107CA0001F938C014DE050E060E070E020E030E098
:107CB0000E94073EC8014AE050E060E070E020E02A
:107CC00030E00E94073E1F910F910895CF92DF92FE
:107CD000EF92FF920F931F938C019A016B01EE2498
:107CE000FF24B701A6010E94E83DC8010E944F3E53
:107CF0001F910F91FF90EF90DF90CF9008959F928A
:107D0000AF92BF92CF92DF92EF92FF920F931F93A9
:107D1000CF93DF93EC017A018B01922ECB01BA0154
:107D200020E030E040E050E00E947ACD88236CF4FF
:107D3000CE014DE250E060E070E020E030E00E94D3
:107D4000073E17FB109517F9109520E030E040E052
:107D50005FE3AA240BC0CA01B90120E030E040E291
:107D600051E40E9481CD9B01AC01A394A91498F326
:107D7000C801B7010E94A1CC7B018C010E94EECD0D
:107D80005B016C010E941ACE9B01AC01C801B701D6
:107D90000E94A0CC7B018C01CE01B601A5012AE096
:107DA00030E00E94E83D9920A1F1EFEBF2E007C03E
:107DB0008091C00085FFFCCF31969093C6009081E2
:107DC0009923B1F726C0C801B70120E030E040E2B6
:107DD00051E40E945AD07B018C010E94E9CD5B01E5
:107DE0006C01CC24B7FCC094DC2CCE01B601A501FB
:107DF0002AE030E00E94073EC601B5010E941CCE79
:107E00009B01AC01C801B7010E94A0CC7B018C0191
:107E10009A949920C1F6DF91CF911F910F91FF9015
:107E2000EF90DF90CF90BF90AF909F9008950E9409
:107E30007F3E0895FF920F931F93CF93DF938B01A3
:107E40000E940014EB01FF24FA9409C00E94001460
:107E50006C1B7D0B6017710710F080E008C0FEBC42
:107E60000DB407FEFDCF8EB58F3F81F781E0DF9126
:107E7000CF911F910F91FF900895FC014281242F13
:107E800030E0C9019595879580658CBD40FF02C0A3
:107E900080E004C080E0463009F081E08DBD808143
:107EA00060E00E9466160895DF92EF92FF920F93B2
:107EB0001F93CF93DF93EC01D62E79018A010E94A4
:107EC0003D3FCE016CE271E00E941A3F8D2D80642F
:107ED0008EBD0DB407FEFDCF28E130E0D801C7010B
:107EE000022E04C0B695A795979587950A94D2F768
:107EF0008EBD0DB407FEFDCF285030408FEF283FD8
:107F0000380761F7DD2011F485E906C088E0D8164E
:107F100011F487E801C08FEF8EBD0DB407FEFDCFD1
:107F20008CE0D81631F48FEF8EBD0DB407FEFDCF77
:107F30008EB59FEF2FEF2EBD0DB407FEFDCF8EB592
:107F400087FF04C0992311F09150F5CF8B83DF9107
:107F5000CF911F910F91FF90EF90DF900895FC015A
:107F6000808161E00E9466160895DC016EBDFA0111
:107F700020E030E00DB407FEFDCF80818EBD0DB452
:107F800007FEFDCF81818EBD2E5F3F4F329682E08E
:107F90002030380779F70DB407FEFDCF8FEF8EBD87
:107FA0000DB407FEFDCF8FEF8EBD0DB407FEFDCFE4
:107FB0008FEF8EBD0DB407FEFDCF8EB513968C935B
:107FC00013978F71853011F481E0089583E1119644
:107FD0008C931197CD010E94AF3F80E00895CF921E
:107FE000DF92EF92FF920F931F93CF93DF93EC01F9
:107FF0007A018B0169018C81833039F059E0EE0CF4
:10800000FF1C001F111F5A95D1F7CE0168E1A8018E
:1080100097010E94543F882311F086E023C0CE01CF
:108020006EEFA6010E94B53F8823E9F0CE0168E516
:1080300072E00E941A3F882311F487E113C0CE0139
:108040006DE020E030E040E050E00E94543F8823A3
:1080500041F48FEF8EBD0DB407FEFDCF8EB58823A2
:1080600079F086E18983CE010E94AF3F80E0DF9105
:10807000CF911F910F91FF90EF90DF90CF900895D7
:10808000CE010E94AF3F81E0F2CFBF92CF92DF924C
:10809000EF92FF920F931F93CF93DF93EC016B014D
:1080A0007A010E9400148B01BB24BA9409C00E947B
:1080B0000014601B710B6D52714010F081E10BC018
:1080C000BEBC0DB407FEFDCF8EB58B838F3F79F319
:1080D0008E3F39F08FE08983CE010E94AF3F80E070
:1080E0002FC0D7011197EF28D9F08FEF8EBD20E078
:1080F00030E09FEF0BC00DB407FEFDCF8EB5F6014B
:10810000E20FF31F80839EBD2F5F3F4F2A173B076F
:1081100090F30DB407FEFDCF8EB5AC0DBD1D8C9355
:108120008FEF8EBD0DB407FEFDCF8EB58FEF8EBDE8
:108130000DB407FEFDCF8EB5CE010E94AF3F81E0AA
:10814000DF91CF911F910F91FF90EF90DF90CF9033
:10815000BF900895CF92DF92EF92FF920F931F93FB
:10816000CF93DF93EC017A018B0169018C8183301D
:1081700039F0A9E0EE0CFF1C001F111FAA95D1F7E2
:10818000CE0161E1A80197010E94543F882339F094
:1081900084E08983CE010E94AF3F80E006C0CE011B
:1081A000B60140E052E00E944540DF91CF911F911F
:1081B0000F91FF90EF90DF90CF900895BF92CF92F4
:1081C000DF92EF92FF920F931F93CF93DF93EC0117
:1081D000B62E1C82198248830E9400146B0188818C
:1081E00061E00E94B315CE010E94AF3F82E360E0E0
:1081F0000E94B31583E361E00E94B31584E361E05C
:108200000E94B31585E361E00E94B31585E361E048
:108210000E94661685E08A8382E58CBD1DBC80E0E5
:108220009FEF9EBD0DB407FEFDCF8F5F8A30C9F76B
:1082300009C00E9400146C197D09615D774010F03F
:1082400081E05EC0CE0160E020E030E040E050E040
:108250000E94543F182F8B83813059F7CE0168E07C
:108260002AEA31E040E050E00E94543F82FF02C021
:108270001C8311C080E02FEF2EBD0DB407FEFDCF93
:108280009EB58F5F8430C1F79B839A3A11F082E0EC
:1082900037C082E08C838C81823021F0EE24FF2471
:1082A00087010FC0E12CF12C012D00E4102F09C033
:1082B0000E9400146C197D09615D774010F08AE01E
:1082C0001FC0CE0167E320E030E040E050E00E94B4
:1082D000543FCE0169E2A80197010E94543F8B836D
:1082E000882331F78C81823029F5CE016AE320E0C2
:1082F00030E040E050E00E94543F882331F088E0B5
:108300008983CE010E94AF3F21C08FEF8EBD0DB497
:1083100007FEFDCF8EB5807C803C11F483E08C831A
:1083200080E09FEF9EBD0DB407FEFDCF2EB58F5FA1
:108330008330C1F7CE010E94AF3F86E08B1518F461
:1083400088E1898303C0BA8281E001C080E0DF91C7
:10835000CF911F910F91FF90EF90DF90CF90BF9042
:108360000895CF93DF93EB01DC0190E020E03EE243
:108370008C91803269F0283029F4FE01E90FF11D5B
:1083800030839F5FFE01E90FF11D8C9180839F5F19
:108390002F5F11962B3061F7C90FD11D1882DF9125
:1083A000CF910895CF93DF93DC01EB01BA0180E018
:1083B00090E020E2FE01E80FF91F208301968B3048
:1083C0009105C1F757E040E022C02E3219F08DEE42
:1083D00097E007C05A3049F15AE048E017C0321719
:1083E00021F1FC01019634913323C9F75417E8F0C9
:1083F0002132D8F02F37C8F4822F81568A3108F401
:108400002052FE01E40FF11D20834F5F11962C9145
:10841000222311F02F32C9F6FB01B183A08390E033
:108420008881803219F091E001C090E0892FDF91BE
:10843000CF9108956F927F928F929F92AF92BF9249
:10844000CF92DF92EF92FF920F931F93CF93DF9320
:10845000EC017A018B012B81222309F480C08989E8
:108460009A89AB89BC8984179507A607B70708F4D2
:1084700076C085C0E114F1040105110551F41C8298
:108480001D821E821F82188619861A861B8681E02D
:1084900067C0288539854A855B85E98DFA8D858594
:1084A00090E00996215030404040504039014A0147
:1084B000082E04C096948794779467940A94D2F710
:1084C0002F5F3F4F4F4F5F4F0894E108F1080109BC
:1084D00011095701680104C0D694C794B794A794B2
:1084E0008A95D2F70894E11CF11C011D111DA614F8
:1084F000B704C804D90428F02115310541055105F8
:1085000049F48D899E89AF89B88D8C839D83AE8314
:10851000BF8316C0A618B708C808D90811C04C8177
:108520005D816E817F81898D9A8D94010E94C64DF7
:108530000894A108B108C108D108882331F40FC0FC
:1085400084E0882E912C8C0E9D1EA114B104C104D0
:10855000D10429F7E886F9860A871B8798CF80E03F
:10856000DF91CF911F910F91FF90EF90DF90CF900F
:10857000BF90AF909F908F907F906F900895223022
:1085800009F078CFE7CFCF93DF93EC018C859D8501
:10859000AE85BF8540E0611141E0BC01CD010E9484
:1085A0009C4B882319F420E030E00AC08889282FEA
:1085B00030E095E0220F331F9A95E1F72C55364FA6
:1085C000C901DF91CF9108950F931F93CF93DF934C
:1085D0008C01FC0183818823F1F1818187FF38C000
:1085E000C80161E00E94C342EC010097A1F18881BB
:1085F000853E89F1F8018381823040F48189928936
:10860000A389B4898C8F9D8FAE8FBF8FF801858928
:1086100096899B8F8A8F85899689A789B08DCD0190
:10862000AA27BB279D8B8C8BE0919E09F0919F0917
:10863000309751F0BE016A5E7F4FCE014896199582
:10864000888D998D9B8B8A8BF80181818F778183AF
:108650000E94614B04C081E0F801808380E0DF91DB
:10866000CF911F910F9108950F931F938C010E943A
:10867000E442F80113821F910F910895FC01838158
:10868000882319F0CF010E9434430895CF93DF93DC
:10869000FC01EB018381882391F08250823020F429
:1086A0008FE28883198209C0CF0160E00E94C34233
:1086B000009729F0BE010E94B14181E001C080E035
:1086C000DF91CF9108956F927F928F929F92AF9298
:1086D000BF92CF92DF92EF92FF920F931F93DF939F
:1086E000CF9300D00F92CDB7DEB77C015A016B015A
:1086F000DC0113968C911397813009F091C011968B
:108700008C9181FF8DC0A0C00097A105B10511F427
:1087100081E087C0F7016084718482849384C701FB
:10872000B601A5010E941A42882309F479C0D70135
:1087300059968D919C915A97A114B104C104D1040A
:1087400089F455964D915D916D917C9158970E9459
:108750003C4E882309F464C0F701158A168A178AEB
:10876000108E44C0D70114964D915D916D917C910E
:1087700017979E012F5F3F4F0E94C64D882309F433
:108780004FC0D7015996ED91FC915A9749815A8172
:108790006B817C818789803149F4483FBFEF5B075B
:1087A000B0E06B07B0E07B0748F020C0483F8FEF98
:1087B00058078FEF68078FE07807C0F4CF010E9459
:1087C0003C4E882369F1D70114964D915D916D91CE
:1087D0007C91179759968D919C915A970FEF1FEFA7
:1087E0002FEF3FE00E943F4D8823D1F0F701A18A8F
:1087F000B28AC38AD48A818180688183C7010E943A
:10880000E442882369F0B601A5016A147B048C0454
:108810009D0410F4B401A301C7010E941A4201C0D3
:1088200080E00F900F900F900F90CF91DF911F91EC
:108830000F91FF90EF90DF90CF90BF90AF909F90FF
:108840008F907F906F900895F70181899289A38915
:10885000B48984179507A607B70708F055CFE0CF6E
:10886000CF93DF93EC0140E050E060E070E00E94C5
:108870006343882369F0CE0161E00E94C342FC019A
:10888000009731F085EE80831B820E94614B01C00E
:1088900080E0DF91CF9108952F923F924F925F92A7
:1088A0006F927F928F929F92AF92BF92CF92DF9200
:1088B000EF92FF920F931F93CF93DF93EC012A0166
:1088C0008B81882309F4B6C0898180FFB3C0C8C0FA
:1088D00025014E185F083B0174E0272E312C2C0E29
:1088E0003D1E4201A1C0288539854A855B856FEF11
:1088F000A62E61E0B62EA222B3228B8179018A01D5
:1089000099E016950795F794E7949A95D1F7E98D34
:10891000FA8D823049F4428D538D648D758D4E0DE4
:108920005F1D601F711F3FC0D480DA94DE20A11448
:10893000B104D9F4DD20C9F42115310541055105F3
:1089400049F48D899E89AF89B88D8C839D83AE83D0
:10895000BF830BC04C815D816E817F81CF0191010E
:108960000E94C64D882309F465C0E98DFA8D4C81BB
:108970005D816E817F81425050406040704005842F
:1089800004C0440F551F661F771F0A94D2F78685CF
:108990009785A089B189480F591F6A1F7B1F4D0D0C
:1089A000511D611D711D80E092E08A199B098401AF
:1089B0008815990508F48C0182E00030180709F049
:1089C00067C08091A0099091A109A091A209B091DE
:1089D000A309481759076A077B0709F459C0809112
:1089E000A40B9091A50B93010E94AA40882349F4FF
:1089F00021C095012C55364FC301B901A8010E9431
:108A0000D410600E711E980140E050E08885998571
:108A1000AA85BB85820F931FA41FB51F88879987DE
:108A2000AA87BB87801A910A8114910409F05BCF51
:108A3000A20102C04FEF5FEFCA01DF91CF911F91FA
:108A40000F91FF90EF90DF90CF90BF90AF909F90ED
:108A50008F907F906F905F904F903F902F900895F0
:108A6000A988BA88CB88DC88E884F9840A851B85C4
:108A70009A0140E050E0D601C5018E199F09A00B74
:108A8000B10B281739074A075B0708F021CF23CF1E
:108A9000CB01BA0140E00E949C4B882309F0A9CF8A
:108AA000C9CFCF92DF92EF92FF920F931F93CF9394
:108AB000DF937C01EB018A01FC018381823008F4A1
:108AC0006FC080859185A285B3858F719070A070ED
:108AD000B0700097A105B10509F062C06DC0F80142
:108AE0001082EDE0CE2ED12CC701BE0140E250E055
:108AF0000E944C449C018032910521F0009709F0BE
:108B00004FC050C04881442309F44CC0453E61F336
:108B10004E3251F38B858F738F30E9F501151105B6
:108B2000D1F18A8D9B8D892BB1F5842F90E08F71C7
:108B30009070009781F1833091056CF58C9D9001C8
:108B40008D9D300D9C9D300D11242D503040F8012D
:108B5000E20FF31F898180838B8181838D818283E2
:108B60008F818383898584838E85858388898683A5
:108B70008A8987838C8980878E898187888D82877F
:108B80008C8D83878E8D8487888186FF04C0F80151
:108B9000E20FF31F15868B8583FDA6CF822F03C0BE
:108BA0008FEF01C080E0DF91CF911F910F91FF9077
:108BB000EF90DF90CF9008954115510509F08FCFC8
:108BC00090CFDF93CF930F92CDB7DEB7BE016F5F2B
:108BD0007F4F41E050E00E944C44019719F02FEF85
:108BE0003FEF03C08981282F30E0C9010F90CF915A
:108BF000DF910895EF92FF920F931F93CF93DF932E
:108C0000EC018B81823038F1E884F9840A851B8578
:108C1000CE010E94E14597FD1EC088859985AA85F1
:108C2000BB854F96A11DB11D88879987AA87BB87F1
:108C3000A5E016950795F794E794AA95D1F72E2D00
:108C400030E02F703070F5E0220F331FFA95E1F716
:108C50002C55364F02C020E030E0C901DF91CF91A2
:108C60001F910F91FF90EF9008950F931F93CF9353
:108C7000DF93EC018B018B81882309F040C0FB015D
:108C80008789803109F041C082E08B831D8A1E8A6A
:108C90001F8A188E808D918DA0E0B0E045E0880F8E
:108CA000991FAA1FBB1F4A95D1F7898B9A8BAB8B53
:108CB000BC8B13C083E08B83F801428D538D648D90
:108CC000758D4D8B5E8B6F8B788F9E012F5E3F4F26
:108CD000C8010E949A4E882391F01A8F098F81E073
:108CE00089831C821D821E821F82188619861A861D
:108CF0001B861C861D861E861F86188A01C080E082
:108D0000DF91CF911F910F9108958032C1F7D2CF9B
:108D10001F93CF93DF93EC01142F262F30E0F9013E
:108D200075E0EE0FFF1F7A95E1F7EC55F64F83855E
:108D3000817121F0842F827109F069C08091A009AE
:108D40009091A109A091A209B091A3098C879D8758
:108D5000AE87BF87688BF90165E0EE0FFF1F6A954C
:108D6000E1F7EC55F64F84899589A0E0B0E0DC018D
:108D7000992788278D8B9E8BAF8BB88F228D338D53
:108D8000A90160E070E0482B592B6A2B7B2B4D8B9F
:108D90005E8B6F8B788F838590E0887190700097E1
:108DA00051F4848D958DA68DB78D898B9A8BAB8B65
:108DB000BC8B81E00CC0409751F59E012F5E3F4F68
:108DC000898D9A8D0E949A4E882309F184E08B83C5
:108DD000812F8F7089831C821D821E821F821886BC
:108DE00019861A861B8614FF18C0CE0140E050E099
:108DF00060E070E00E946343882379F40AC04989E7
:108E00005A896B897C89CE010E941A4202C01B825A
:108E100080E0DF91CF911F91089515FDF0CF81E0A3
:108E2000F8CFCF93DF93EC019C012C5F3F4F898DEE
:108E30009A8D41E050E060E070E00E94064F882388
:108E4000A1F08D899E89AF89B88D0097A105B105E4
:108E500059F48C819D81AE81BF818D8B9E8BAF8BB0
:108E6000B88F89818068898381E0DF91CF910895EF
:108E70002F923F924F925F927F928F929F92AF92EA
:108E8000BF92CF92DF92EF92FF920F931F93DF93E7
:108E9000CF9300D000D0CDB7DEB76C01162F072FCF
:108EA0005E834D83DC0113968C911397813009F01A
:108EB0006FC111968C9181FF6BC188C1F601418908
:108EC00052896389748980859185A285B3858417C9
:108ED0009507A607B70731F0C6010E941A428823FA
:108EE00009F456C1812F902F9C0119014D805E809D
:108EF00013C1D6015996ED91FC915A97DA01C90137
:108F000049E0B695A795979587954A95D1F77480CE
:108F10007A9478228FEF882E81E0982E82229322F5
:108F2000772009F053C08114910409F04FC0D60195
:108F300014964D915D916D917C9117974115510556
:108F40006105710581F455968D919D910D90BC91AF
:108F5000A02D0097A105B10561F1F60184839583E9
:108F6000A683B78333C0CF019E012F5F3F4F0E947E
:108F7000C64D882309F40CC129813A814B815C815B
:108F8000D6015996ED91FC915A978789803149F421
:108F9000283FBFEF3B07B0E04B07B0E05B0778F03E
:108FA00008C0283FEFEF3E07EFEF4E07EFE05E0708
:108FB00030F0C6010E941147882341F4E9C0D60170
:108FC00014962D933D934D935C93179780E092E018
:108FD0008819990952018415950508F45C01D60198
:108FE0005996ED91FC915A971496ED90FD900D9144
:108FF0001C9117978EEF9FEFAFEFBFEFE80EF91EB2
:109000000A1F1B1F058404C0EE0CFF1C001F111F4C
:109010000A94D2F786859785A089B189E80EF91E52
:109020000A1F1B1FE70CF11C011D111D90E0A91662
:1090300092E0B90639F58091A0099091A109A0911B
:10904000A209B091A3098E159F05A007B10771F47D
:109050001092A60B8FEF9FEFAFEFBFEF8093A009A9
:109060009093A109A093A209B093A3098091A40BA6
:109070009091A50BB801A70191010E94EF3F8823B1
:10908000B9F586C08114910419F5D60118962D9171
:109090003D914D915C911B9751968D919D910D90B5
:1090A000BC91A02D281739074A075B0788F00E945A
:1090B000614B882309F46CC081E08093A60BE09299
:1090C000A009F092A1090093A2091093A30908C076
:1090D000C801B70141E00E949C4B882309F458C0A5
:1090E00094012C55364FC901B101A5010E94D4103D
:1090F000950140E050E0F60180859185A285B38519
:10910000820F931FA41FB51F80879187A287B38703
:109110002A0C3B1C4A185B08D60118962D913D91EC
:109120004D915C911B974114510409F0E2CE519688
:109130008D919D910D90BC91A02D82179307A4074E
:10914000B50748F4F601218B328B438B548B818118
:109150008068818311C080919E0990919F09892B1D
:1091600059F08D819E81892B39F0D60111968C9111
:109170001197806811968C93F601818183FF05C059
:10918000C6010E94E442882319F04D815E8105C02A
:1091900081E0D6018C934FEF5FEFCA0126960FB6A0
:1091A000F894DEBF0FBECDBFCF91DF911F910F911D
:1091B000FF90EF90DF90CF90BF90AF909F908F90F7
:1091C0007F905F904F903F902F90089582FD76CED4
:1091D00089CEDF92EF92FF920F931F93CF93DF938D
:1091E000EC0189899A89AB89BC89805E9F4FAF4128
:1091F000B04008F071C0CE010E941147882309F4E5
:109200006BC00E94614B882309F466C0E98DFA8D1A
:10921000EC80FD800E811F818EEF9FEFAFEFBFEFDF
:10922000E80EF91E0A1F1B1F058404C0EE0CFF1C6C
:10923000001F111F0A94D2F786859785A089B189EE
:10924000E80EF91E0A1F1B1F81E08093A60BE09217
:10925000A009F092A1090093A2091093A30980E04C
:1092600092E0E4EAF9E0DF019C011D9221503040D8
:10927000E1F7DD24D39411C0B801A7014D0D511DB4
:10928000611D711D8091A40B9091A50B24EA39E01A
:109290000E94EF3F882301F1D394E98DFA8D8481F8
:1092A000D81650F320E032E040E050E0058404C0DE
:1092B000220F331F441F551F0A94D2F789899A89B8
:1092C000AB89BC89820F931FA41FB51F898B9A8B12
:1092D000AB8BBC8B81E001C080E0DF91CF911F910F
:1092E0000F91FF90EF90DF9008958F929F92AF9231
:1092F000BF92CF92DF92EF92FF920F931F93CF9383
:10930000DF936C01EB01942E852EA22E898D9A8D10
:10931000D6015A969C938E935997CB0140E050E02A
:1093200060E070E00E941A42BB2438C0CE010E9467
:10933000FA45FC01009709F493C055E0169507958E
:10934000F794E7945A95D1F71E2D1F7080818823DA
:1093500011F0853EC9F4BB2099F42091A009309109
:10936000A1094091A2095091A309D6011C962D9301
:109370003D934D935C931F9750961C93BB24B394DD
:109380008081882359F418C0892D982DBF014BE0A6
:1093900050E00E94C710009709F470C0E884F98477
:1093A0000A851B8589899A89AB89BC89E816F906E3
:1093B0000A071B0708F4BACFA6FE52C0A1FE50C090
:1093C000BB2051F0F6011089C60161E00E94C34242
:1093D000EC01009769F444C08B81823009F440C0ED
:1093E000CE010E94E9488823D9F110E0C4EAD9E00F
:1093F00080E2DE011D928A95E9F7DE01292D382DE4
:10940000C901FC018BE001900D928150E1F7E091E0
:109410009E09F0919F09309739F0BE01625F7F4F3E
:10942000CE014096199508C081E298E2998B888B0D
:1094300080E098E09F878E87888999899B8B8A8BAB
:10944000998F888F8E859F859F8B8E8B0E94614B15
:10945000882331F0C601612F4A2D0E94884601C041
:1094600080E0DF91CF911F910F91FF90EF90DF90FF
:10947000CF90BF90AF909F908F900895A7FEEACFB6
:10948000EFCF2F923F924F925F926F927F928F9287
:109490009F92AF92BF92CF92DF92EF92FF920F9383
:1094A0001F93DF93CF93CDB7DEB7C654D0400FB62E
:1094B000F894DEBF0FBECDBF3C016B01DE01AE5B99
:1094C000BF4F11965C934E9325962FAF25971C8620
:1094D0001F861FA21AA66115710509F480C0FC0140
:1094E0008381882309F07BC0FA0180818F32F1F0FB
:1094F0008601ECE0EE2EF12CEC0EFD1E72E4A72EA0
:10950000B12CAC0EBD1E4E010894811C911C2796F7
:10951000FFAEEEAE279767E2262E312C2C0E3D1EB5
:10952000270124C01196B183A08301C0FD01A08151
:10953000B1818C918F32B1F3D60113968C91139730
:1095400082508230A8F28E01095D1F4F59966D91AD
:109550007C915A97C8010E943546882351F63FC036
:10956000342D252D8701832F922F7C01F5018081D9
:109570009181B401A5010E94D241882329F42FC012
:109580003196D501ED93FC93D501ED91FC9180814D
:109590008F32B1F38823C9F0C701B801A40121E0DB
:1095A0000E9475498823D9F00C151D0519F0C801D2
:1095B0000E9434432796EEADFFAD2797EE16FF06C7
:1095C00079F6C101322D292FCDCFC301B801A401F5
:1095D00025962FAD25970E947549182F01C010E0E0
:1095E000CE0187960E943E43CE010C960E943E43D8
:1095F000812FCA5BDF4F0FB6F894DEBF0FBECDBF21
:10960000CF91DF911F910F91FF90EF90DF90CF905E
:10961000BF90AF909F908F907F906F905F904F9092
:109620003F902F9008950F931F93DF93CF93CDB763
:10963000DEB76B970FB6F894DEBF0FBECDBF9C01AF
:10964000AB0119821C828E010F5F1F4FC801B90147
:1096500022E00E94414A882311F410E004C0C801AE
:109660000E943044182FCE0101960E943E43812F64
:109670006B960FB6F894DEBF0FBECDBFCF91DF91D2
:109680001F910F910895DB010D900020E9F71197CC
:10969000A61BB70B0496AD010E9438470895DF93CF
:1096A000CF930F92CDB7DEB769830496BE016F5F8B
:1096B0007F4F41E050E00E9438470F90CF91DF91FB
:1096C00008958091A60B882399F14091A0095091AB
:1096D000A1096091A2097091A3098091A40B9091B6
:1096E000A50B24EA39E00E94EF3F882319F140914D
:1096F000A70B5091A80B6091A90B7091AA0B411573
:1097000051056105710591F08091A40B9091A50B15
:1097100024EA39E00E94EF3F882361F01092A70B02
:109720001092A80B1092A90B1092AA0B1092A60BE4
:1097300081E0089580E00895DF92EF92FF920F9309
:109740001F937B018C01D42E8091A0099091A109D7
:10975000A091A209B091A3098E159F05A007B1079A
:10976000C1F00E94614B8823E1F08091A40B90919D
:10977000A50BB801A70124EA39E00E94AA4088237A
:1097800081F0E092A009F092A1090093A209109340
:10979000A309DD2011F481E005C081E08093A60BD0
:1097A00001C080E01F910F91FF90EF90DF9008952E
:1097B0008F929F92AF92BF92CF92DF92EF92FF92E1
:1097C0000F931F93CF93DF936C01142F7093A50B0E
:1097D0006093A40BFC01178A82E090E0A0E0B0E067
:1097E00080839183A283B3831092A60B1092A70B60
:1097F0001092A80B1092A90B1092AA0B8FEF9FEF5B
:10980000AFEFBFEF8093A0099093A109A093A209A5
:10981000B093A309442321F488249924540140C01F
:10982000453008F01EC160E070E080E090E040E06C
:109830000E949C4B882309F414C1C12FD0E02197CA
:10984000FE0174E0EE0FFF1F7A95E1F7EC55F64F3D
:10985000E254FE4F8081EE5BF14090E08F77907094
:10986000892B09F0FEC0E653FE4F80819181A281D1
:10987000B38184369105A105B10508F4F2C064E016
:10988000CC0FDD1F6A95E1F7C659D44F88809980C7
:10989000AA80BB8081149104A104B10409F4E1C041
:1098A000C501B40140E00E949C4B882309F4D9C053
:1098B0008091AF099091B0098050924009F0D1C0D9
:1098C0002091B409222309F4CCC08091B20990916F
:1098D000B309892B09F4C5C08091B109882309F423
:1098E000C0C0F601228B8091B1098483158661E0A6
:1098F00070E007C04F5FF60145874150483008F0DF
:10990000B0C0F6014585848190E09B01042E02C021
:10991000220F331F0A94E2F78217930759F7209119
:10992000BA093091BB092115310519F040E050E02A
:1099300008C02091C8093091C9094091CA095091C5
:10994000CB09F6012583368347835087E090B2091F
:10995000F090B30900E010E0E80CF91C0A1D1B1D93
:10996000E38AF48A058B168B8091B5099091B6092C
:10997000918F808F6091B40970E080E090E00E9448
:109980002CD16E0D7F1D801F911FF601628F738F8A
:10999000848F958F2091B5093091B60955E0220F3B
:1099A000331F5A95E1F721503E4F232F3327269539
:1099B00040E050E0260F371F481F591F2687378782
:1099C000408B518B8091B7099091B809009719F09D
:1099D000A0E0B0E008C08091C4099091C509A091B1
:1099E000C609B091C70985017401E21AF30A040B94
:1099F000150BA8019701280F391F4A1F5B1FF6019D
:109A0000058404C056954795379527950A94D2F753
:109A10002187328743875487253FFFE03F07F0E0E7
:109A20004F07F0E05F0720F48CE0F601878B19C048
:109A3000255F3F4F4040504018F480E1F6010EC0D2
:109A40008091D0099091D109A091D209B091D30908
:109A5000F601828F938FA48FB58F80E2878B81E090
:109A600001C080E0DF91CF911F910F91FF90EF90A7
:109A7000DF90CF90BF90AF909F908F9008956F929E
:109A80007F928F929F92AF92BF92CF92DF92EF928E
:109A9000FF920F931F93CF93DF93EC015A016B0159
:109AA00038014901423051056105710508F45EC075
:109AB00089859A85AB85BC850196A11DB11D84174A
:109AC0009507A607B70708F451C08F89803129F49C
:109AD000E52EF62E072F11270CC0803209F046C064
:109AE0007A018B0187E016950795F794E7948A959C
:109AF000D1F78B899C89AD89BE89E80EF91E0A1FB2
:109B00001B1FC801B70141E00E949C4B882371F1E3
:109B10008F89803149F4F501F070EE0FFF1FEC558D
:109B2000F64F718260820DC0F501EF77F070EE0F95
:109B3000FF1FEE0FFF1FEC55F64F6082718282828D
:109B400093828A89823080F08D819E81AF81B88531
:109B5000E80EF91E0A1F1B1FE092A70BF092A80B3C
:109B60000093A90B1093AA0B81E001C080E0DF9164
:109B7000CF911F910F91FF90EF90DF90CF90BF900A
:109B8000AF909F908F907F906F900895CF92DF92CB
:109B9000EF92FF920F931F93CF93DF93EC017A0123
:109BA0008B01690189859A85AB85BC850196A11DCC
:109BB000B11D84179507A607B70708F453C08F890E
:109BC000803129F45527412F302F2F2D0CC08032A2
:109BD00009F048C09A01AB0167E056954795379563
:109BE00027956A95D1F78B899C89AD89BE89280F05
:109BF000391F4A1F5B1F8091A0099091A109A09174
:109C0000A209B091A309281739074A075B0739F061
:109C1000CA01B90140E00E949C4B882319F18F8949
:109C2000803159F4F701F070EE0FFF1FEC55F64F3D
:109C300080819181A0E0B0E00EC0F701EF77F07075
:109C4000EE0FFF1FEE0FFF1FEC55F64F8081918145
:109C5000A281B381BF70F60180839183A283B38315
:109C600081E001C080E0DF91CF911F910F91FF90C3
:109C7000EF90DF90CF900895AF92BF92CF92DF9296
:109C8000EF92FF920F931F93DF93CF9300D00F9229
:109C9000CDB7DEB76C017A018B0182E090E0A0E0E5
:109CA000B0E0F60180839183A283B3835E010894C0
:109CB000A11CB11CC601B801A70195010E94C64DA7
:109CC000882341F1C601B801A70100E010E020E0BF
:109CD00030E00E943F4D8823E9F0E980FA800B8153
:109CE0001C81F6018789803151F4F8EFEF16FFEF00
:109CF000FF06F0E00F07F0E01F07E0F209C088EF71
:109D0000E8168FEFF8068FEF08078FE0180790F23C
:109D100081E001C080E00F900F900F900F90CF91E5
:109D2000DF911F910F91FF90EF90DF90CF90BF9048
:109D3000AF9008954F925F926F927F928F929F9211
:109D4000AF92BF92CF92DF92EF92FF920F931F9349
:109D5000DF93CF9300D00F92CDB7DEB76C0149836C
:109D60005A836B837C833901EE24FF2487012E0103
:109D70000894411C511C812CE2E09E2EA12CB12C98
:109D800049815A816B817C81C60192010E94C64D36
:109D9000882339F1D501C401F601058404C0880F78
:109DA000991FAA1FBB1F0A94D2F7E80EF91E0A1FBB
:109DB0001B1F29813A814B815C818789803131F475
:109DC000285F3F4F40405040D8F205C0285F3F4FCA
:109DD0004F4F5F40A8F2F301E082F18202831383C8
:109DE00081E00F900F900F900F90CF91DF911F9116
:109DF0000F91FF90EF90DF90CF90BF90AF909F902A
:109E00008F907F906F905F904F9008952F923F9228
:109E10004F925F926F927F928F929F92AF92BF927A
:109E2000CF92DF92EF92FF920F931F93DF93CF9326
:109E3000CDB7DEB72F970FB6F894DEBF0FBECDBFFC
:109E40001C014A875B876C877D873F872E87DC01F3
:109E500019968D919D910D90BC91A02D0196A11DFB
:109E6000B11D8E839F83A887B987F9010081118175
:109E700022813381011511052105310549F0480181
:109E800059010894811C911CA11CB11C1D8210C099
:109E9000D1018D909D90AD90BC901D828A859B854F
:109EA000AC85BD850197A105B10511F491E09D83B5
:109EB000750164014424552432018E010F5F1F4F48
:109EC000F10181859285A385B485481659066A06F5
:109ED0007B0608F090C08E819F81A885B9858C157E
:109EE0009D05AE05BF0550F4A2E08A2E912CA12C51
:109EF000B12CF2E0CF2ED12CE12CF12CC101B70115
:109F0000A60198010E94C64D882309F474C0898176
:109F10009A81AB81BC81A70196012F5F3F4F4F4FC4
:109F20005F4F0097A105B10519F049015A010DC015
:109F3000281939094A095B098A859B85AC85BD8545
:109F4000281739074A075B0759F00894411C511C30
:109F5000611C711C0894C11CD11CE11CF11CB0CF08
:109F6000C101A601B7010FEF1FEF2FEF3FE00E94E5
:109F70003F4D882399F43FC02601370108944108DA
:109F8000510861087108C101B301A201970186015E
:109F90000E943F4D882379F1730162018C149D0466
:109FA000AE04BF0448F3AE85BF854D915D916D91C0
:109FB0007C91411551056105710539F0C10195018B
:109FC00084010E943F4D8823B1F0EE85FF85808299
:109FD0009182A282B382FD81FF2359F00894811CF3
:109FE000911CA11CB11CD1018D929D92AD92BC928D
:109FF000139781E001C080E02F960FB6F894DEBF82
:10A000000FBECDBFCF91DF911F910F91FF90EF90C9
:10A01000DF90CF90BF90AF909F908F907F906F9088
:10A020005F904F903F902F9008952F923F924F92C4
:10A030005F926F927F928F929F92AF92BF92CF92D8
:10A04000DF92EF92FF920F931F93DF93CF93CDB7E1
:10A05000DEB7CD55D0400FB6F894DEBF0FBECDBFF2
:10A060002F969FAF8EAF2F9761967FAF6EAF6197A0
:10A070002A0162962FAF629763960FAF639764963B
:10A08000EFAE64976896ACAEBDAECEAEDFAE68976D
:10A09000E22EFF24EE0CFF1CEE0CFF1C9A012E0D8D
:10A0A0003F1D2D963FAF2EAF2D97D9016D907D901E
:10A0B0008D909C90FC01EE0DFF1DC401B301208129
:10A0C0003181428153810E94A1CC69AF7AAF8BAFBD
:10A0D0009CAF10E0000F111F000F111FF201E00FE5
:10A0E000F11F2B96FFAFEEAF2B97A080B180C280FF
:10A0F000D3802F96EEADFFAD2F97E00FF11FC60175
:10A10000B50120813181428153810E94A1CC6DAB88
:10A110007EAB8FAB98AF64962FAD6497E22FF0E0E3
:10A12000EE0FFF1FEE0FFF1F2F96AEADBFAD2F97A7
:10A13000AE0FBF1F4D915D916D917C9129964CAFF3
:10A140005DAF6EAF7FAF299761966EAD7FAD6197C2
:10A15000E60FF71F608171818281938129962CAD72
:10A160003DAD4EAD5FAD29970E94A0CC69AB7AABF7
:10A170008BAB9CAB6196AEADBFAD61971C968D91DC
:10A180009D910D90BC91A02D25968CAF9DAFAEAF4B
:10A19000BFAF25972F96AEADBFAD2F971C962D91D3
:10A1A0003D914D915C911F9721962CAF3DAF4EAFE5
:10A1B0005FAF2197A401930150582DA73EA74FA749
:10A1C00058ABB601A501705849A75AA76BA77CA741
:10A1D00061966EAD7FAD6197E60EF71ED7016D916A
:10A1E0007D918D919C9129AD3AAD4BAD5CAD0E94B6
:10A1F000A0CC3B014C016196EEADFFAD61970E0F17
:10A200001F1FD8016D917D918D919C912DA93EA923
:10A210004FA958AD0E94A0CC5B016C016DA57EA535
:10A220008FA598A9A60195010E945AD07B018C01A7
:10A2300069A57AA58BA59CA5A40193010E945AD07B
:10A240009B01AC01C801B7010E94A0CC1B012C01ED
:10A250006DA57EA58FA598A9A40193010E945AD04F
:10A260007B018C0169A57AA58BA59CA5A60195010A
:10A270000E945AD09B01AC01C801B7010E94A1CC39
:10A280009B01AC01C201B1010E9414CD5B016C01C4
:10A2900020E030E040E050E00E947ACD882354F482
:10A2A000C601B5012BED3FE049EC50E40E94A1CC82
:10A2B0005B016C01E8968FADE897882351F0C601E9
:10A2C000B5012BED3FE049EC50E40E94A0CC5B01CE
:10A2D0006C01C601B501E7962CAD3DAD4EAD5FAD4D
:10A2E000E7970E945AD029A93AA94BA95CA95F77A0
:10A2F0000E9495CF7B018C012FE632E143E85AE3BF
:10A300000E947ACD87FDF6C1C801B7010E9457CEE1
:10A310000E94EECD78A76FA3672B21F4E1E0F0E077
:10A32000F8A7EFA32FA138A5B90180E090E00E9423
:10A330001ACE7B018C01C601B501A80197010E94CC
:10A3400081CD6BA37CA38DA39EA369A97AA98BA9B8
:10A350009CA9A80197010E9481CD6F8F78A389A342
:10A360009AA325966CAD7DAD8EAD9FAD25972196B8
:10A370002CAD3DAD4EAD5FAD21970E94A0CCA801A4
:10A3800097010E9481CD6B8F7C8F8D8F9E8F6BA1EB
:10A390007CA18DA19EA120E030E040E05FEB0E9417
:10A3A0005AD02BA13CA14DA15EA10E945AD020E021
:10A3B00030E040E85FE30E94A1CC6F8B788F898FFB
:10A3C0009A8F64963FAD6497E32FF0E0EE0FFF1F86
:10A3D000EE0FFF1F9E012F5F3F4FE20FF31F2996E5
:10A3E0004CAD5DAD6EAD7FAD2997408351836283E7
:10A3F00073832F96AEADBFAD2F971C964D915D9197
:10A400006D917C911F974D875E876F87788B41E0B8
:10A4100050E05A8B498B662462967FAD6297672F16
:10A4200070E0660F771F660F771FC901860F971FB1
:10A430006A969FAF8EAF6A976396BFAD6397AB2F57
:10A44000B0E0AA0FBB1FAA0FBB1F21E030E02C0F0A
:10A450003D1F2A0F3B1F6C963FAF2EAF6C976E9639
:10A46000FFAFEEAF6E971AC138E136150CF446C057
:10A470006DA57EA58FA598A92BA13CA14DA15EA19C
:10A480000E945AD07B018C0169A57AA58BA59CA559
:10A490002F89388D498D5A8D0E945AD09B01AC016D
:10A4A000C801B7010E94A1CC7B018C016DA57EA5DE
:10A4B0008FA598A92F89388D498D5A8D0E945AD021
:10A4C0005B016C0169A57AA58BA59CA52BA13CA17C
:10A4D0004DA15EA10E945AD09B01AC01C601B501FD
:10A4E0000E94A0CC6DA77EA78FA798AB6394C701ED
:10A4F000D80189A79AA7ABA7BCA765C049895A8983
:10A50000BA0180E090E00E941ACE2BA13CA14DA19F
:10A510005EA10E945AD07B018C01C8010E947ECDB1
:10A520006B8B7C8B8D8B9E8BB701C8010E94BDD03D
:10A530003B014C012D96AEADBFAD2D97ED90FD903A
:10A540000D911C9117FB109517F910952B96EEADF8
:10A55000FFAD2B972080318042805380C801B70126
:10A560002B893C894D895E890E945AD05B016C0120
:10A57000C201B101A40193010E945AD09B01AC0118
:10A58000C601B5010E94A1CC6DA77EA78FA798AB8D
:10A59000C801B701A40193010E945AD07B018C012C
:10A5A000C201B1012B893C894D895E890E945AD034
:10A5B0009B01AC01C801B7010E94A0CC69A77AA792
:10A5C0008BA79CA7662469AD7AAD8BAD9CAD2DA5FC
:10A5D0003EA54FA558A90E94A1CC6A96AEADBFADCD
:10A5E0006A976D937D938D939C9313976DA97EA924
:10A5F0008FA998AD29A53AA54BA55CA50E94A1CC31
:10A600006C96EEADFFAD6C9760837183828393830C
:10A610006E96AEADBFAD6E976D917D918D919C9113
:10A620002F8D38A149A15AA10E94A1CC6E96EEAD02
:10A63000FFAD6E9760837183828393836D857E8582
:10A640008F8598892B8D3C8D4D8D5E8D0E94A1CC80
:10A650006D877E878F87988BCE0101960E94A21806
:10A66000CE010196BE016B5F7F4FAE01475F5F4F2A
:10A670009E01235F3F4F6896ECACFDAC0EAD1FAD65
:10A680006897F8E7CF2ED12CCC0EDD1E0E94FC5827
:10A6900029893A892F5F3F4F3A8B298B49895A89FB
:10A6A0006FA178A54617570708F4DECE61964EAD28
:10A6B0005FAD6197485F5F4F61962EAD3FAD61978B
:10A6C000245F3F4F61968EAD9FAD6197DC0114967C
:10A6D0006196BFAFAEAF6197BD016896ECACFDACC3
:10A6E0000EAD1FAD6897E8E7CE2ED12CCC0EDD1E47
:10A6F0000E94FC58C35ADF4F0FB6F894DEBF0FBE5E
:10A70000CDBFCF91DF911F910F91FF90EF90DF9020
:10A71000CF90BF90AF909F908F907F906F905F9001
:10A720004F903F902F9008958091EB109091EC10F6
:10A73000891B8F70089560936C0370936D038093F1
:10A740006E0390936F0308950F931F93CF93DF933E
:10A75000C0E0D0E08E010550144FFE01E153F44FEC
:10A7600060817181828193810E941ACEFE01E15441
:10A77000F44F20813181428153810E945AD00E943E
:10A78000EECDF80160837183828393832496C03178
:10A79000D10501F7DF91CF911F910F910895FC0131
:10A7A00060817181828193812091CB0B3091CC0BA0
:10A7B0004091CD0B5091CE0B0E945AD00E942AD0CE
:10A7C0006093170C7093180C8093190C90931A0CCB
:10A7D00087E19CE00E94146608958F929F92AF9249
:10A7E000BF92CF92DF92EF92FF920F931F93FC01E3
:10A7F0008B015A014901608171818281938120918D
:10A80000BF0B3091C00B4091C10B5091C20B0E9405
:10A810005AD00E942AD03BE0C32E3CE0D32E609356
:10A820000B0C70930C0C80930D0C90930E0CF80194
:10A8300060817181828193812091C30B3091C40B1F
:10A840004091C50B5091C60B0E945AD00E942AD04D
:10A8500024E0E22EF12CEC0CFD1C60930F0CF701B0
:10A86000718382839383F5016081718182819381F9
:10A870002091C70B3091C80B4091C90B5091CA0B66
:10A880000E945AD00E942AD08601085F1F4F609311
:10A89000130CF801718382839383F40160817181C9
:10A8A000828193812091CB0B3091CC0B4091CD0BC9
:10A8B0005091CE0B0E945AD00E942AD0F6013C96AD
:10A8C0006093170C718382839383C601B701A8013B
:10A8D0009F010E94DA6580E090E0A0E0B0E0809304
:10A8E000ED109093EE10A093EF10B093F0108093C2
:10A8F000F1109093F210A093F310B093F4108093A2
:10A90000F5109093F610A093F710B093F810809381
:10A91000F9109093FA10A093FB10B093FC10809361
:10A92000FD109093FE10A093FF10B09300111F91A3
:10A930000F91FF90EF90DF90CF90BF90AF909F90DE
:10A940008F9008958F929F92AF92BF92CF92DF9295
:10A95000EF92FF920F931F93CF93DF93EC016B0164
:10A96000009709F45CC08FA9882309F058C0EEA0B5
:10A97000FFA008A519A5FB01B6A0A7A090A481A4DB
:10A98000C801B7012B2D3A2D492D582D0E947ACDA3
:10A9900088230CF044C0C801B701A80197010E94A8
:10A9A0005AD07B018C016AA97BA98CA99DA99058DA
:10A9B00020E030E040E050EC0E945AD02EA53FA5A8
:10A9C00048A959A90E945AD09B01AC01C801B701FE
:10A9D0000E94A1CC0E94C7D07B018C016B2D7A2DE7
:10A9E000892D982D9701A8010E947ACD882324F4FF
:10A9F000EB2CFA2C092D182D6B2D7A2D892D982DE5
:10AA00009701A8010E947ACD882349F0C701D80197
:10AA1000F60186A397A3A0A7B1A781E086ABDF913B
:10AA2000CF911F910F91FF90EF90DF90CF90BF904B
:10AA3000AF909F908F900895EF92FF920F931F9386
:10AA4000CF93DF93F090EC1000E010E020E030E0D6
:10AA50004DE4E42E12C0FE9CE0011124C55ED34FEC
:10AA6000C901B801AE010E94A2548F2D8F5F8031C1
:10AA700009F480E0F82E98018E018091EB10F81611
:10AA800051F7C901B80140E050E00E94A254DF91A3
:10AA9000CF911F910F91FF90EF900895AF92BF92C9
:10AAA000CF92DF92EF92FF920F931F93CF93DF939A
:10AAB000EB018A016115710509F466C04115510564
:10AAC00009F462C0DAA4CBA4BCA4ADA46EA17FA19A
:10AAD00088A599A52D2D3C2D4B2D5A2D0E947ACD60
:10AAE000882309F451C08FA9882309F043C0F801D5
:10AAF000E6A0F7A000A511A56D2D7C2D8B2D9A2D1C
:10AB0000A80197010E9488CF1816A4F5C801B701C3
:10AB1000A80197010E945AD07B018C016AA97BA9E8
:10AB20008CA99DA9905820E030E040E050EC0E94B4
:10AB30005AD02EA53FA548A959A90E945AD09B01D9
:10AB4000AC01C801B7010E94A1CC0E94C7D07B0113
:10AB50008C016D2D7C2D8B2D9A2D9701A8010E94C3
:10AB60007ACD882324F4ED2CFC2C0B2D1A2DC70153
:10AB7000D80104C08D2D9C2DAB2DBA2D8EA39FA383
:10AB8000A8A7B9A781E08EABDF91CF911F910F915C
:10AB9000FF90EF90DF90CF90BF90AF900895CF924D
:10ABA000DF92EF92FF920F93DF93CF930F920F926A
:10ABB000CDB7DEB78091EB108FB7F894F090EC1022
:10ABC0008FBF8091EB1090E040968F1991098F70A4
:10ABD0009070049704F10091EB1003500F70CC2497
:10ABE000DD2440E050E06DE4E62E13C0802F00230A
:10ABF00009F480E1082F01500E9DC0011124855EEB
:10AC0000934F9A838983B6010E944E55A601C9804D
:10AC1000DA800F1559F70F900F90CF91DF910F91B8
:10AC2000FF90EF90DF90CF90089560914207909150
:10AC3000EC108091EB109817B9F04091EC10242F94
:10AC400030E08DE490E0289FF001299FF00D389FBF
:10AC5000F00D1124ED59F34F608102C04F5F4F702A
:10AC60008091EB104817D1F787E070E00E94D31471
:10AC700008951092EB101092EC1080E1EBE0FCE0F4
:10AC8000DF011D928A95E9F780E090E0A0E0B0E056
:10AC90008093F1109093F210A093F310B093F410FE
:10ACA0008093F5109093F610A093F710B093F810DE
:10ACB0008093F9109093FA10A093FB10B093FC10BE
:10ACC0008093FD109093FE10A093FF10B09300119D
:10ACD0008093ED109093EE10A093EF10B093F010CE
:10ACE00008952F923F924F925F926F927F928F9230
:10ACF0009F92AF92BF92CF92DF92EF92FF920F930B
:10AD00001F93DF93CF93CDB7DEB766970FB6F89456
:10AD1000DEBF0FBECDBF9E8B8D8B6A017B014801CC
:10AD20005901DC01D8966D917D918D919C91DB97B5
:10AD30000E941ACE698B7A8B8B8B9C8BA701960114
:10AD40000E945AD00E9467CD0E94EECD6D837E8313
:10AD50008F83988769897A898B899C89A501940159
:10AD60000E945AD00E9467CD0E94EECD69837A83FB
:10AD70008B839C832D813E814F81588528373105F7
:10AD80004105510540F448E750E060E070E04D8334
:10AD90005E836F83788769817A818B819C81683734
:10ADA00071058105910540F488E790E0A0E0B0E0EE
:10ADB00089839A83AB83BC83AD89BE89AC5BBF4F6B
:10ADC000AD90BD90CD90DC901397A454B040BE8B55
:10ADD000AD8B6D817E818F8198850E941ACE6D87A3
:10ADE0007E878F87988BC601B5010E941CCE1B0100
:10ADF0002C0120E030E040E050E00E947ACD882332
:10AE000021F4E0E070E060E028C069897A898B89EC
:10AE10009C899B01AC010E945AD07B018C016D85FD
:10AE20007E858F8598899B01AC010E945AD09B0139
:10AE3000AC01C801B7010E94A0CC7B018C01C2010A
:10AE4000B101A20191010E94A1CC9B01AC01C801FA
:10AE5000B7010E9481CDE62F692F2E2F372F482F63
:10AE6000562FB901CA010E9467CD0E94E9CD3B016E
:10AE70004C0169817A818B819C810E941ACE6987FD
:10AE80007A878B879C8766277727CB016A197B098E
:10AE90008C099D090E941CCE5B016C0120E030E012
:10AEA00040E050E00E947ACD882321F4E0E070E099
:10AEB00060E028C069857A858B859C859B01AC0103
:10AEC0000E945AD07B018C0169897A898B899C897F
:10AED0009B01AC010E945AD09B01AC01C801B70193
:10AEE0000E94A0CC7B018C01C601B501A601950191
:10AEF0000E94A1CC9B01AC01C801B7010E9481CD89
:10AF0000E62F692F2E2F372F482F562FB901CA0150
:10AF10000E9457CEED89FE89A088B188C288D38867
:10AF200086017501E618F708080919090E94E9CD9C
:10AF3000A8019701261B370B480B590B57FF71C00F
:10AF4000C201B10120E030E040E050E00E947ACD43
:10AF5000882321F4E0E070E060E044C0C201B10168
:10AF6000A20191010E94A1CC7B018C01C601B50117
:10AF70000E941ACE9B01AC01C801B7010E945AD0B1
:10AF80007B018C016D857E858F8598899B01AC0145
:10AF90000E945AD09B01AC01C801B7010E94A0CC0D
:10AFA0007B018C0169857A858B859C859B01AC0131
:10AFB0000E945AD09B01AC01C801B7010E94A1CCEC
:10AFC0007B018C01C201B10120E030E040E850E497
:10AFD0000E945AD09B01AC01C801B7010E9481CDEB
:10AFE000E62F692F2E2F372F482F562FB901CA0170
:10AFF0000E9467CD0E94E9CDAC01CB01DA013C0192
:10B000004D0197FE03C06624772443016A147B0434
:10B010008C049D0410F03501460120E030E040E052
:10B0200050E09FB7F8946D897E89645B7F4FDB01A8
:10B030008C91AC54B040BE8BAD8B882321F5FD01C3
:10B04000648A758A868A978A260D371D481D591D80
:10B0500058962D933D934D935C935B972D813E8144
:10B060004F815885DC962D933D934D935C93DF97EC
:10B07000A05CBF4F29813A814B815C812D933D9328
:10B080004D935C9313979FBF66960FB6F894DEBFFF
:10B090000FBECDBFCF91DF911F910F91FF90EF9029
:10B0A000DF90CF90BF90AF909F908F907F906F90E8
:10B0B0005F904F903F902F9008954F925F927F92B4
:10B0C0008F929F92AF92BF92CF92DF92EF92FF92B8
:10B0D0000F931F93CF93DF937090EC10C0E0D0E0FC
:10B0E0007DE4472E512C46C02097B1F18EA98823CC
:10B0F00061F4849CF001859CF00D949CF00D11246A
:10B10000E55EF34F86A9882339F1EAA0FBA00CA1E4
:10B110001DA16EA17FA188A599A5A80197010E94F4
:10B1200081CD5B016C01849CF001859CF00D949CA9
:10B13000F00D1124E55EF34F66A177A180A591A5DE
:10B14000A80197010E9481CD8B019C01CE01B6011F
:10B15000A5010E9471561EAA739480E1781609F425
:10B160007724849CE001859CD00D949CD00D112403
:10B17000C55ED34F872C992487FC90948091EB1067
:10B1800090E08816990609F0AFCF2097F1F0EAA079
:10B19000FBA00CA11DA16EA17FA188A599A5A80166
:10B1A00097010E9481CD5B016C016DEC7CEC8CE41D
:10B1B0009DE3A80197010E9481CD8B019C01CE01E6
:10B1C000B601A5010E9471561EAADF91CF911F9171
:10B1D0000F91FF90EF90DF90CF90BF90AF909F9036
:10B1E0008F907F905F904F9008950E94CF550E945E
:10B1F0001C550E945D5808952F923F924F925F9286
:10B200006F927F928F929F92AF92BF92CF92DF9276
:10B21000EF92FF920F931F93DF93CF93CDB7DEB7DB
:10B22000C859D0400FB6F894DEBF0FBECDBF5C0149
:10B230004B013A012901CB56DF4FE882C559D04076
:10B24000CA56DF4FF882C659D040C956DF4F08832F
:10B25000C759D040C856DF4F1883C859D040E3962D
:10B26000DFAECEAEE3978091EB108F5F803109F4B3
:10B2700080E0282F332727FD30953CA72BA706C059
:10B280000E9473720E94F0190E9413C68091EC1004
:10B2900090E04BA55CA58417950791F36091BF0BD7
:10B2A0007091C00B8091C10B9091C20BE1966CAF75
:10B2B0007DAF8EAF9FAFE197D5012D913D914D911F
:10B2C0005C910E945AD00E942AD0C158DF4F6883F7
:10B2D000CF57D040C058DF4F7883C058D040CF57A9
:10B2E000DF4F8883C158D040CE57DF4F9883C25874
:10B2F000D0402091C30B3091C40B4091C50B5091AD
:10B30000C60BAD962CAF3DAF4EAF5FAFAD97CA0148
:10B31000B901D4012D913D914D915C910E945AD07B
:10B320000E942AD0CD57DF4F6883C358D040CC57F6
:10B33000DF4F7883C458D040CB57DF4F8883C55840
:10B34000D040CA57DF4F9883C658D0402091C70BD2
:10B350003091C80B4091C90B5091CA0BA9962CAFE4
:10B360003DAF4EAF5FAFA997CA01B901D3012D918F
:10B370003D914D915C910E945AD00E942AD0C957AC
:10B38000DF4F6883C758D040C857DF4F7883C8580D
:10B39000D040C757DF4F8883C958D040C657DF4FCA
:10B3A0009883CA58D0402091CB0B3091CC0B409160
:10B3B000CD0B5091CE0BA5962CAF3DAF4EAF5FAFEE
:10B3C000A597CA01B901D2012D913D914D915C9192
:10B3D0000E945AD00E942AD0C557DF4F6883CB58AD
:10B3E000D040C457DF4F7883CC58D040C357DF4F8D
:10B3F0008883CD58D040C257DF4F9883CE58D04075
:10B400008091170C9091180CA091190CB0911A0C06
:10B41000C557DF4F288139814A815B81CB58D040A5
:10B42000281739074A075B0709F4B8C0E0914107BC
:10B43000F0E0EE0FFF1FEE0FFF1FEE5AFE4E608191
:10B4400071818281938120916C0330916D034091D1
:10B450006E0350916F030E947ACD88230CF033C0A5
:10B46000C557DF4F488159816A817B81CB58D040D5
:10B470004093170C5093180C6093190C70931A0C8E
:10B48000EDEFF7E0949108C08091C00085FFFCCFFC
:10B490009093C600319694919923B1F7E1E2F8E0D8
:10B4A000949108C08091C00085FFFCCF9093C600A6
:10B4B000319694919923B1F78091C00085FFFCCF1C
:10B4C0008AE08093C6008091170C9091180CA0918F
:10B4D000190CB0911A0CC557DF4F288139814A8168
:10B4E0005B81CB58D040281B390B4A0B5B0BCA0140
:10B4F000B90157FF07C090958095709561957F4F72
:10B500008F4F9F4F0E941CCE7B018C01A5966CAD86
:10B510007DAD8EAD9FADA59720E030E04DEC53E4BE
:10B520000E945AD09B01AC01C801B7010E9488CF8C
:10B5300018160CF033C0C557DF4F488159816A8116
:10B540007B81CB58D0404093170C5093180C6093DC
:10B55000190C70931A0CEDEFF7E0949108C08091EC
:10B56000C00085FFFCCF9093C6003196949199233B
:10B57000B1F7E3E0F8E0949108C08091C00085FF46
:10B58000FCCF9093C600319694919923B1F78091A6
:10B59000C00085FFFCCF8AE08093C6008091EB104D
:10B5A000682F70E0A1967FAF6EAFA1978DE490E019
:10B5B000689FF001699FF00D789FF00D1124E55E02
:10B5C000F34FE45BFF4F1082EC54F04080910B0C82
:10B5D00090910C0CA0910D0CB0910E0C6F968CAF4D
:10B5E0009DAFAEAFBFAF6F97C158DF4F2881398194
:10B5F0004A815B81CF57D040281B390B4A0B5B0B2C
:10B600006B962CAF3DAF4EAF5FAF6B97208331830E
:10B610004283538357FF0DC0DA01C901B095A0954D
:10B62000909581959F4FAF4FBF4F80839183A283A9
:10B63000B38340910F0C5091100C6091110C7091DC
:10B64000120C67964CAF5DAF6EAF7FAF6797CD576B
:10B65000DF4F88819981AA81BB81C358D040841B68
:10B66000950BA60BB70B63968CAF9DAFAEAFBFAF7C
:10B6700063978DE490E0A196AEADBFADA197A89F72
:10B68000F001A99FF00DB89FF00D1124E55EF34F76
:10B6900063962CAD3DAD4EAD5FAD6397248335838E
:10B6A0004683578357FF0DC0DA01C901B095A095B5
:10B6B000909581959F4FAF4FBF4F84839583A6830D
:10B6C000B7834091130C5091140C6091150C70913C
:10B6D000160C2F964CAF5DAF6EAF7FAF2F97C9574B
:10B6E000DF4F88819981AA81BB81C758D040841BD4
:10B6F000950BA60BB70B2B968CAF9DAFAEAFBFAF24
:10B700002B978DE490E0A196AEADBFADA197A89F19
:10B71000F001A99FF00DB89FF00D1124E55EF34FE5
:10B720002B962CAD3DAD4EAD5FAD2B97208731876D
:10B730004287538757FF0DC0DA01C901B095A09524
:10B74000909581959F4FAF4FBF4F80879187A2877C
:10B75000B3872090170C3090180C4090190C509023
:10B760001A0CC557DF4F488159816A817B81CB58BC
:10B77000D04042195309640975094DA35EA36FA314
:10B7800078A7609153037091540327967FAF6EAFF3
:10B7900027976DA17EA18FA198A597FF07C09095CF
:10B7A0008095709561957F4F8F4F9F4F2796AEADD7
:10B7B000BFAD27979D01442737FD4095542F0E9428
:10B7C0002CD124E630E040E050E00E9494D18DE49A
:10B7D00090E0A1966EAD7FADA197689FF001699F43
:10B7E000F00D789FF00D1124E55EF34FDF011C96FC
:10B7F000248711963C93119712964C9312971396A7
:10B800005C936080718082809380A480B580C680C4
:10B81000D780E084F18402851385C901DA018E1591
:10B820009F05A007B10714F4D801C7018A159B052D
:10B83000AC05BD0514F4D601C5019C01AD0186150A
:10B840009705A805B90514F4A40193018DE490E0CF
:10B85000A196AEADBFADA197A89FB001A99F700DF5
:10B86000B89F700D1124655E734FFB01208B318BE7
:10B87000428B538B263031054105510510F40C9451
:10B880002E65E85BFF4F8091420790914307AA27FE
:10B8900097FDA095BA2F80839183A283B383DB01A8
:10B8A00090961C92C158DF4F288139814A815B8173
:10B8B000CF57D0406F968CAD9DADAEADBFAD6F97FD
:10B8C000281739074A075B0724F481E0DB019096CB
:10B8D0008C93CD57DF4F288139814A815B81C358D2
:10B8E000D04067966CAD7DAD8EAD9FAD6797261746
:10B8F00037074807590794F48DE490E0A196AEAD60
:10B90000BFADA197A89FF001A99FF00DB89FF00DC2
:10B910001124E55EF34F80A1826080A3C957DF4FF9
:10B92000288139814A815B81C758D0402F966CAD00
:10B930007DAD8EAD9FAD2F97261737074807590766
:10B9400094F48DE490E0A196AEADBFADA197A89F11
:10B95000F001A99FF00DB89FF00D1124E55EF34FA3
:10B9600080A1846080A3C557DF4F288139814A8137
:10B970005B81CB58D040221533054405550594F41E
:10B980008DE490E0A1964EAD5FADA197489FF00188
:10B99000499FF00D589FF00D1124E55EF34F80A1F3
:10B9A000886080A38DE490E0A1966EAD7FADA197F5
:10B9B000689FF001699FF00D789FF00D1124E55EFE
:10B9C000F34FE396AEADBFADE3978C9181A3208199
:10B9D00031814281538125962CAF3DAF4EAF5FAF91
:10B9E0002597211531054105510509F015988DE47C
:10B9F00090E0A1964EAD5FADA197489FF001499FA1
:10BA0000F00D589FF00D1124E55EF34F64807580B2
:10BA100086809780611471048104910409F017985D
:10BA20008DE490E0A1966EAD7FADA197689FF00187
:10BA3000699FF00D789FF00D1124E55EF34FA0840F
:10BA4000B184C284D384A114B104C104D10409F027
:10BA500042988DE490E0A196AEADBFADA197A89FAE
:10BA6000F001A99FF00DB89FF00D1124E55EF34F92
:10BA700084859585A685B7850097A105B10551F008
:10BA8000A0982090DF0B3090E00B4090E10B50909D
:10BA9000E20B08C02090F70B3090F80B4090F90BA8
:10BAA0005090FA0BCB56DF4F6881C559D040CA562B
:10BAB000DF4F7881C659D040C956DF4F8881C759BA
:10BAC000D040C856DF4F9881C859D040A20191019B
:10BAD0000E947ACD87FD16C0CB56DF4F8881C559AD
:10BAE000D040CA56DF4F9881C659D040C956DF4F63
:10BAF000A881C759D040C856DF4FB881C859D04037
:10BB00001C012D016B966CAD7DAD8EAD9FAD6B971D
:10BB10000E941CCEE1962CAD3DAD4EAD5FADE197E0
:10BB20000E9481CDEC966FAFEC97ED967FAFED97CD
:10BB3000EE968FAFEE97EF969FAFEF97AC01CB01EC
:10BB4000DA0189839A83AB83BC8363966CAD7DAD48
:10BB50008EAD9FAD63970E941CCEAD962CAD3DADD2
:10BB60004EAD5FADAD970E9481CDE8966FAFE8977F
:10BB7000E9967FAFE997EA968FAFEA97EB969FAF8A
:10BB8000EB97AC01CB01DA018D839E83AF83B8873D
:10BB90002B966CAD7DAD8EAD9FAD2B970E941CCECC
:10BBA000A9962CAD3DAD4EAD5FADA9970E9481CD5C
:10BBB000E4966FAFE497E5967FAFE597E6968FAF93
:10BBC000E697E7969FAFE797AC01CB01DA0189874B
:10BBD0009A87AB87BC876DA17EA18FA198A50E9493
:10BBE0001CCEA5962CAD3DAD4EAD5FADA5970E9488
:10BBF00081CD7B018C012796EEADFFAD2797BF016C
:10BC0000882777FD8095982F0E941CCE9B01AC0160
:10BC1000C801B7010E945AD020E030E048EC52E45D
:10BC20000E9481CD9B01AC016D877E878F87988BA9
:10BC300025966CAD7DAD8EAD9FAD259766307105B7
:10BC4000810591051CF576E0671671048104910465
:10BC5000ECF486E0A816B104C104D104BCF48DE470
:10BC600090E0A196AEADBFADA197A89FF001A99FAE
:10BC7000F00DB89FF00D1124E55EF34FDA01C90114
:10BC8000BF7786A797A7A0ABB1AB55C0EC962FADF9
:10BC9000EC97ED963FADED97EE964FADEE97EF96A4
:10BCA0005FADEF97B901CA010E9411D13B014C0170
:10BCB000E8962FADE897E9963FADE997EA964FAD44
:10BCC000EA97EB965FADEB97B901CA010E9411D1DB
:10BCD0005B016C01E4962FADE497E5963FADE597E7
:10BCE000E6964FADE697E7965FADE797B901CA01D3
:10BCF0000E9411D17B018C01C401B301A601950101
:10BD00000E94A1CCA80197010E94A1CC0E94C7D09B
:10BD10002DE430E0A1964EAD5FADA197429FF001BA
:10BD2000439FF00D529FF00D1124E55EF34F66A77F
:10BD300077A780AB91AB8DE490E0A1966EAD7FAD1F
:10BD4000A197689FF001699FF00D789FF00D112475
:10BD5000E55EF34F86A597A5A0A9B1A921968CAF62
:10BD60009DAFAEAFBFAF219760E070E080E89FE38A
:10BD700021962CAD3DAD4EAD5FAD21970E9481CD9A
:10BD80009B01AC01C201B1010E945AD02B013C01C0
:10BD90008091EB109091EC10A82FB0E05096A91B69
:10BDA000B109AF70B070BAA7A9A7A230B1050CF461
:10BDB00051C05D01CC24B7FCC094DC2CC601B50198
:10BDC0000E941CCE20E030E040E051E40E947ACD99
:10BDD00088230CF03FC060E074E284E799E4A3019B
:10BDE00092010E9481CD0E942AD07B018C0160913A
:10BDF000AB0B7091AC0B8091AD0B9091AE0BE61636
:10BE0000F7060807190730F56E197F09800B910BAB
:10BE1000660F771F881F991FA60195010E9472D196
:10BE2000CA01B9010E941ACE0E942AD09B01AC011E
:10BE30002E0D3F1D401F511FCA01B9010E941ACE8D
:10BE40009B01AC0160E074E284E799E40E9481CD3B
:10BE50002B013C018DE490E0A196EEADFFADA197E2
:10BE6000E89F8001E99F100DF89F100D1124055ED9
:10BE7000134F21966CAD7DAD8EAD9FAD2197A30183
:10BE800092010E945AD0D80192966D937D938D9322
:10BE90009C93959750966D917D918D919C91539720
:10BEA0000E941ACEA30192010E945AD00E9467CD2F
:10BEB0000E94EECDF80160AF71AF82AF93AFC15772
:10BEC000DF4F1882CF58D040C057DF4F1882C0597B
:10BED000D04020E8222E9FE3392E88249924E1E0E7
:10BEE000F0E0EC0FFD1FE80DF91DC301B201208148
:10BEF0003181428153810E945AD0E1E1F0E0EC0FA0
:10BF0000FD1FE80DF91D60837183828393835B01BC
:10BF10006C01E894D7F8F401E155F44FE080F1802A
:10BF200002811381C601B501A80197010E9488CF43
:10BF30001816CCF4C801B701A60195010E9481CD65
:10BF40006B017C01C157DF4F6881CF58D040C0578B
:10BF5000DF4F7881C059D040C101A70196010E94EE
:10BF60007ACD88236CF4C157DF4F8881CF58D040F9
:10BF7000C057DF4F9881C059D040D1016C017D017D
:10BF800024E030E0820E931E30E18316910471F0BC
:10BF9000D701C601C157DF4FC882CF58D040C05724
:10BFA000DF4F9883C059D0401D0199CFC701B6011A
:10BFB00020E030E040E85FE30E947ACD88230CF077
:10BFC0004CC08E010F5E1F4F81E2A82EB12CAC0E2B
:10BFD000BD1ED8016D917D918D919C91A701960117
:10BFE0000E945AD0F80161937193819391938F01CC
:10BFF000EA15FB0571F78DE490E0A1962EAD3FADFB
:10C00000A197289F8001299F100D389F100D1124A2
:10C01000055E134FD80192966D917D918D919C9103
:10C020009597A70196010E945AD0F80162A373A3C5
:10C0300084A395A360AD71AD82AD93AD0E941ACE7D
:10C04000A70196010E945AD00E94EECDD801D89641
:10C050006D937D938D939C93DB978DE490E0A196F7
:10C06000EEADFFADA197E89F8001E99F100DF89F0D
:10C07000100D1124055E134FD80150966D917D91DE
:10C080008D919C9153970E941ACEF80126A537A551
:10C0900040A951A90E9481CD1B012C01F80180818A
:10C0A0009181A281B3810097A105B10549F58481F1
:10C0B0009581A681B7810097A105B10509F5808515
:10C0C0009185A285B3850097A105B105C9F4C20188
:10C0D000B1012091E70B3091E80B4091E90B5091B1
:10C0E000EA0B0E945AD00E9467CD0C5B1F4F0E9442
:10C0F000EECDD8016D937D938D939C93139771C171
:10C10000C201B1012091E30B3091E40B4091E50BAA
:10C110005091E60B0E945AD00E9467CD0E94EECD4E
:10C120002DE430E0A196EEADFFADA197E29F600156
:10C13000E39FD00CF29FD00C11242BE13CE0C20E07
:10C14000D31EB4E46B2E712C6C0C7D1CD3016D934B
:10C150007D938D939C9313978090FB0B9090FC0B99
:10C16000A090FD0BB090FE0B0E941ACE7B018C01BB
:10C17000F60160817181828193810E941CCE9B01B6
:10C18000AC01C801B7010E945AD07B018C01D601D5
:10C1900050966D917D918D919C9153970E941ACEEE
:10C1A0009B01AC01C801B7010E9481CD7B018C01CC
:10C1B000C501B4010E941ACE9B01AC01C801B701B0
:10C1C0000E9488CF18162CF4F30180829182A282FB
:10C1D000B3828090FF0B9090000CA090010CB09067
:10C1E000020C8DE490E0A1962EAD3FADA197289F63
:10C1F0006001299FD00C389FD00C11244BE15CE0EA
:10C20000C40ED51EA4E46A2E712C6C0C7D1CD301C7
:10C210006D917D918D919C910E941ACE7B018C0134
:10C22000F60164817581868197810E941CCE9B01F5
:10C23000AC01C801B7010E945AD07B018C01D60124
:10C2400050966D917D918D919C9153970E941ACE3D
:10C250009B01AC01C801B7010E9481CD7B018C011B
:10C26000C501B4010E941ACE9B01AC01C801B701FF
:10C270000E9488CF18162CF4F30180829182A2824A
:10C28000B3828090070C9090080CA090090CB0909D
:10C290000A0C8DE490E0A1962EAD3FADA197289FAA
:10C2A0006001299FD00C389FD00C11244BE15CE039
:10C2B000C40ED51EF4E46F2E712C6C0C7D1CD301C2
:10C2C0006D917D918D919C910E941ACE7B018C0184
:10C2D000F60164857585868597850E941CCE9B0135
:10C2E000AC01C801B7010E945AD07B018C01D60174
:10C2F00050966D917D918D919C9153970E941ACE8D
:10C300009B01AC01C801B7010E9481CD7B018C016A
:10C31000C501B4010E941ACE9B01AC01C801B7014E
:10C320000E9488CF18162CF4F30180829182A28299
:10C33000B3828090030C9090040CA090050CB090F8
:10C34000060C8DE490E0A1962EAD3FADA197289FFD
:10C350006001299FD00C389FD00C11244BE15CE088
:10C36000C40ED51EE4E46E2E712C6C0C7D1CD30122
:10C370006D917D918D919C910E941ACE7B018C01D3
:10C38000F60160857185828593850E941CCE9B0194
:10C39000AC01C801B7010E945AD07B018C01D601C3
:10C3A00050966D917D918D919C9153970E941ACEDC
:10C3B0009B01AC01C801B7010E9481CD7B018C01BA
:10C3C000C501B4010E941ACE9B01AC01C801B7019E
:10C3D0000E9488CF18162CF4F30180829182A282E9
:10C3E000B3828DE490E0A1962EAD3FADA197289F3A
:10C3F0006001299FD00C389FD00C11244BE15CE0E8
:10C40000C40ED51EF601EC5BFF4F60817181828105
:10C4100093810E941ACE7B018C01A20191010E949E
:10C4200081CDD601D2966D937D938D939C93D597B4
:10C43000C801B7012DEB37E346E051E40E945AD022
:10C440000E94E9CDF601648F758F868F978F60907B
:10C45000EB0B7090EC0B8090ED0B9090EE0BC40109
:10C46000B30120E030E040E05FE30E945AD05B017E
:10C470006C01298D3A8D4B8D5C8D29AF3AAF4BAF56
:10C480005CAF4091EF0B5091F00B6091F10B70910C
:10C49000F20B4DAB5EAB6FAB78AFCB01BA0120E0D6
:10C4A00030E040E05FE30E945AD07B018C0169AD2F
:10C4B0007AAD8BAD9CAD9F77A80197010E9488CF84
:10C4C000181644F4C601B501A80197010E947ACD5F
:10C4D000882314F4860175016D8D7E8D8F8D98A152
:10C4E00069AB7AAB8BAB9CAB8091F30B9091F40B67
:10C4F000A091F50BB091F60B8DA79EA7AFA7B8AB97
:10C50000BC01CD0120E030E040E05FE30E945AD062
:10C510001B012C0169A97AA98BA99CA99F77A2016B
:10C5200091010E9488CF181644F4C801B701A201F6
:10C5300091010E947ACD882314F4170128018DE41B
:10C5400090E0A196AEADBFADA197A89FF001A99FC5
:10C55000F00DB89FF00D1124E55EF34F22A133A139
:10C5600044A155A129A33AA34BA35CA3C201B101E5
:10C570000E947ACD87FD04C029A03AA04BA05CA000
:10C5800049A55AA5423051050CF405C15091ED1052
:10C59000CF56DF4F5883C159D0406091EE10CE5630
:10C5A000DF4F6883C259D0407091EF10CD56DF4FF6
:10C5B0007883C359D0408091F010CC56DF4F8883E8
:10C5C000C459D040652FCE56DF4F7881C259D04034
:10C5D000CD56DF4F8881C359D040CC56DF4F98816C
:10C5E000C459D04027E137EB41ED58E30E9488CF92
:10C5F00018160CF0D0C069897A898B899C892091A2
:10C60000F1103091F2104091F3105091F4100E940B
:10C61000A0CC9B01AC010E945AD07B018C016D899A
:10C620007E898F89988D2091F5103091F610409178
:10C63000F7105091F8100E94A0CC9B01AC010E9411
:10C640005AD09B01AC01C801B7010E94A1CC0E9445
:10C65000C7D07B018C01A40193010E9488CF1816DA
:10C660005CF00F2EF0E06F2EF0E07F2EF0E88F2EC2
:10C67000FFE39F2EF02D08C0C401B301A80197016C
:10C680000E9481CD3B014C0169AD7AAD8BAD9CAD73
:10C690002091F9103091FA104091FB105091FC104C
:10C6A0000E94A0CC7B018C01E89417F9C801B70166
:10C6B0002DA93EA94FA958AD0E9488CF181694F411
:10C6C0006DA97EA98FA998ADA80197010E9481CD7F
:10C6D0005B016C01C401B301A60195010E947ACDF2
:10C6E000882314F46401530169A97AA98BA99CA930
:10C6F0002091FD103091FE104091FF1050910011DB
:10C700000E94A0CC7B018C01E89417F9C801B70105
:10C710002DA53EA54FA558A90E9488CF181694F4C0
:10C720006DA57EA58FA598A9A80197010E9481CD2E
:10C730007B018C01C601B501A80197010E947ACD49
:10C74000882314F48601750169A17AA18BA19CA1AB
:10C75000A80197010E945AD07B018C01CF56DF4F70
:10C760006881C159D040CE56DF4F7881C259D04040
:10C77000CD56DF4F8881C359D040CC56DF4F9881CA
:10C78000C459D040A80197010E947ACD87FD19C0F5
:10C79000D801C70102C0D201C101CF56DF4F888343
:10C7A000C159D040CE56DF4F9883C259D040CD56A4
:10C7B000DF4FA883C359D040CC56DF4FB883C4594C
:10C7C000D0408DE490E0A196AEADBFADA197A89FFB
:10C7D0008001A99F100DB89F100D1124055E134F05
:10C7E000CF56DF4F8881C159D040CE56DF4F988158
:10C7F000C259D040CD56DF4FA881C359D040CC5646
:10C80000DF4FB881C459D040F80182A793A7A4A7ED
:10C81000B5A762A973A984A995A9905820E030E032
:10C8200040E050EC0E945AD0D8019E962D913D9147
:10C830004D915C91D1970E945AD02BE037ED43E2A5
:10C840005BE30E94A1CC0E94C7D0F62EE72ED82E23
:10C85000C92ECF56DF4F6881C159D040CE56DF4F29
:10C860007881C259D040CD56DF4F8881C359D0401E
:10C87000CC56DF4F9881C459D0402F2D3E2D4D2DE1
:10C880005C2D0E947ACD87FD14C0CF56DF4FF88211
:10C89000C159D040CE56DF4FE882C259D040CD5664
:10C8A000DF4FD882C359D040CC56DF4FC882C4591D
:10C8B000D0408DE490E0A196EEADFFADA197E89F4A
:10C8C0008001E99F100DF89F100D1124055E134F94
:10C8D000CF56DF4F8881C159D040CE56DF4F988167
:10C8E000C259D040CD56DF4FA881C359D040CC5655
:10C8F000DF4FB881C459D040F80186A397A3A0A701
:10C90000B1A762A173A184A195A12F2D3E2D4D2D1C
:10C910005C2D0E947ACD18162CF081E0D801D796B4
:10C920008C9302C0F80117AA8DE490E0A1962EAD79
:10C930003FADA197289FF001299FF00D389FF00D82
:10C940001124E55EF34F81E086ABA1EFB0E1FE017B
:10C95000719680E101900D928150E1F78DE490E0B5
:10C96000A1964EAD5FADA197489F6001499FD00C45
:10C97000589FD00C11246BE17CE0C60ED71ED60167
:10C980009296ED90FD900D911C919597E092ED108F
:10C99000F092EE100093EF101093F01096966D91B8
:10C9A0007D918D919C919997A80197010E9481CDCD
:10C9B0004B015C01C201B101A80197010E9481CD28
:10C9C0008B019C01C601B501A4010E947156BBA553
:10C9D000B093EB10C557DF4F288139814A815B81C5
:10C9E000CB58D0402093170C3093180C4093190C5F
:10C9F00050931A0CC957DF4F488159816A817B8156
:10CA0000C758D0404093130C5093140C6093150CEE
:10CA10007093160CCD57DF4F688179818A819B8195
:10CA2000C358D04060930F0C7093100C8093110C7E
:10CA30009093120CC158DF4F88819981AA81BB81E4
:10CA4000CF57D04080930B0C90930C0CA0930D0CFF
:10CA5000B0930E0C0E94F5580E945265C856DF4FE5
:10CA60000FB6F894DEBF0FBECDBFCF91DF911F91FF
:10CA70000F91FF90EF90DF90CF90BF90AF909F907D
:10CA80008F907F906F905F904F903F902F90089580
:10CA9000109235111092381110923B110895809325
:10CAA00074030895EFE6F0E080818260808308954A
:10CAB000099A3C9A9A9AEAE0F1E080818061808349
:10CAC0008081846080830D9A159A0F9A179A3A9AFA
:10CAD000429A989AA09A8081826080839FB7F89446
:10CAE000EBE0F1E08081826080839FBF0898109A1C
:10CAF0000C98149A3F98479A0A98129A0E98169A88
:10CB00003D98459A0B9A1398159A10923E073E9AB3
:10CB10004698179A10923F07389A4098429A109276
:10CB20004007EAE0F1E08081806480839FB7F89459
:10CB3000EBE0F1E080818F7B80839FBFA09AEAE0E9
:10CB4000F1E08081816080839FB7F894EBE0F1E0B1
:10CB500080818E7F80839FBFA1E8B0E08C918F7E23
:10CB60008C938C9188608C93E0E8F0E080818D7FDD
:10CB7000808380818E7F808380818F73808380819A
:10CB80008F7C80838C91887F82608C9380E090E49E
:10CB90009093890080938800109285001092840001
:10CBA000EFE6F0E080818260808381E0809374030F
:10CBB000789408951F93FC011FB7F89480819181A8
:10CBC000A281B38180930F1190931011A093111142
:10CBD000B0931211FB0180819181A281B381809376
:10CBE000131190931411A0931511B0931611FA011B
:10CBF00080819181A281B381809317119093181144
:10CC0000A0931911B0931A11F90180819181A28129
:10CC1000B38180931B1190931C11A0931D11B093AD
:10CC20001E111FBF1F910895FC012FB7F89480813A
:10CC30009181A281B38180931B1190931C11A093C9
:10CC40001D11B0931E112FBF0895E82F8FB7F894D0
:10CC5000F0E0EE0FFF1FEE0FFF1FE15FFE4E2081A1
:10CC60003181428153818FBFB901CA0108958091FA
:10CC70006F008D7F80936F0006C08091EC108F5FF6
:10CC80008F708093EC109091EB108091EC109817BE
:10CC900051F4109202111092011180916F00826084
:10CCA00080936F0008959091EB108091EC1098178D
:10CCB00051F3E3CF9091EB108091EC10981739F07D
:10CCC0000E9473720E94F0190E9413C6F3CF089558
:10CCD0000E945A66159A10923E07179A10923F07C3
:10CCE000429A10924007A09A08951F920F920FB691
:10CCF0000F920BB60F921124AF92BF92CF92DF9298
:10CD0000EF92FF920F931F932F933F934F935F9355
:10CD10006F937F938F939F93AF93BF93CF93DF9343
:10CD2000EF93FF938091011190910211892B09F0EB
:10CD300094C19091EB108091EC10981719F4E0E0F9
:10CD4000F0E014C08091EC1090E02DE430E0829F80
:10CD5000F001839FF00D929FF00D1124E55EF34FDB
:10CD6000E45BFF4F81E08083EC54F040F0930211CC
:10CD7000E0930111309709F46AC1E45BFF4F81E051
:10CD80008083EC54F040109244111092451110929F
:10CD900046111092471160AD71AD2CE961347207F4
:10CDA00018F060E47CE904C03EE46132730730F0BF
:10CDB000769567957695679584E007C047E261317F
:10CDC000740730F07695679582E080933D1107C037
:10CDD00080933D116032710510F460E270E06052A2
:10CDE000704058E060307507E8F0472F50E0440F7E
:10CDF000551F440F551F415A574F9A012E5F3F4F01
:10CE0000F901859194919C01AA27639FC001629FBB
:10CE1000810D9A1F06948A1F9A1F1124FA014591C9
:10CE200054911EC0CB01969587958C7F815A934F64
:10CE3000FC0145915491FC01329625913491862F45
:10CE400090E087709070FC012E9FC0012F9F900D85
:10CE50003E9F900D1124B3E096958795BA95E1F722
:10CE6000481B590B44365105A8F4E1ECF2E007C029
:10CE70008091C00085FFFCCF31969093C6009081D1
:10CE80009923B1F78DE999E04AE050E00E94663EAF
:10CE900044E650E0509349114093481180913D1170
:10CEA00080934A1110924B11E0910111F0910211FF
:10CEB00064AD75AD7093431160934211FCE9613428
:10CEC0007F0718F060E47CE904C02EE46132720749
:10CED00030F0769567957695679584E007C037E2E0
:10CEE0006131730730F07695679582E080933D114C
:10CEF00008C081E080933D116032710510F460E25A
:10CF000070E06052704048E060307407E8F0472FEE
:10CF100050E0440F551F440F551F415A574F9A0177
:10CF20002E5F3F4FF901859194919C01AA27639F41
:10CF3000C001629F810D9A1F06948A1F9A1F1124B7
:10CF4000FA01459154911EC0CB01969587958C7F2F
:10CF5000815A934FFC0145915491FC0132962591E1
:10CF60003491862F90E087709070FC012E9FC00155
:10CF70002F9F900D3E9F900D112433E0969587953D
:10CF80003A95E1F7481B590B44365105A8F4E1ECFA
:10CF9000F2E007C08091C00085FFFCCF31969093EE
:10CFA000C60090819923B1F78DE999E04AE050E0FD
:10CFB0000E94663E44E650E0CA01A0E0B0E08093E3
:10CFC0003E1190933F11A0934011B09341115093A3
:10CFD000890040938800E0910111F091021180894D
:10CFE0009189A289B389B695A79597958795B095AC
:10CFF000A095909581959F4FAF4FBF4F80931F1184
:10D0000090932011A0932111B093221180932311AA
:10D0100090932411A0932511B0932611809327118A
:10D0200090932811A0932911B0932A1180932B116A
:10D0300090932C11A0932D11B0932E1110922F11BB
:10D0400010923011109231111092321106C080ED01
:10D0500097E09093890080938800C0910111D0914E
:10D060000211209709F438C588A18093331180FFFD
:10D0700003C0119A8FEF02C0119881E08093700372
:10D080008091331181FF03C044988FEF02C0449A0E
:10D0900081E080937103809133119091740380FF3C
:10D0A00036C0992309F46BC020B1217031E02327E9
:10D0B00059F180913411882339F188819981AA81AD
:10D0C000BB81181619061A061B06F4F480910F117D
:10D0D00090911011A0911111B09112118093031130
:10D0E00090930411A0930511B0930611309335115C
:10D0F00088899989AA89BB8980932F1190933011CF
:10D10000A0933111B09332112093341138C0992378
:10D11000B1F180B1869586958095282F217080FF8A
:10D120002CC080913611882341F188819981AA8190
:10D13000BB81181619061A061B06FCF480910F1104
:10D1400090911011A0911111B091121180930311BF
:10D1500090930411A0930511B093061181E0809380
:10D16000351188899989AA89BB8980932F11909359
:10D170003011A0933111B093321120933611809168
:10D1800033119091740381FF3AC0992309F471C05F
:10D1900080B182958F708095282F217080FF2CC0E0
:10D1A00080913711882341F18C819D81AE81BF81AF
:10D1B000181619061A061B06FCF48091131190919B
:10D1C0001411A0911511B09116118093071190932D
:10D1D0000811A0930911B0930A1181E080933811CE
:10D1E00088899989AA89BB8980932F1190933011DE
:10D1F000A0933111B0933211209337113AC0992383
:10D20000C1F180B182958695869583708095282F8F
:10D21000217080FF2CC080913911882341F18C81CD
:10D220009D81AE81BF81181619061A061B06FCF4F3
:10D230008091131190911411A0911511B0911611B4
:10D240008093071190930811A0930911B0930A11CC
:10D2500081E08093381188899989AA89BB89809354
:10D260002F1190933011A0933111B093321120936C
:10D270003911809133119091740382FF39C0A29AC1
:10D280008FEF80937203992309F46EC020E03799E1
:10D290002CC021E080913A11882339F18885998545
:10D2A000AA85BB85181619061A061B06F4F4809188
:10D2B000171190911811A0911911B0911A11809322
:10D2C0000B1190930C11A0930D11B0930E1120939C
:10D2D0003B1188899989AA89BB8980932F119093E2
:10D2E0003011A0933111B093321120933A113CC008
:10D2F000A29831E0309372039923B1F186B18295FF
:10D30000869587708095282F217080FF2BC0809193
:10D310003C11882339F188859985AA85BB85181623
:10D3200019061A061B06F4F4809117119091181132
:10D33000A0911911B0911A1180930B1190930C11B7
:10D34000A0930D11B0930E1130933B1188899989E8
:10D35000AA89BB8980932F1190933011A09331112A
:10D36000B093321120933C118091331183FF0AC096
:10D370008FB7F89490910B019F7E90930B018FBF14
:10D380008FEF09C08FB7F89490910B019061909343
:10D390000B018FBF81E08093730360E070E079C17F
:10D3A0008091C00087FF19C04091C600E0919909A3
:10D3B000F0919A0931969F012F77307031978091C3
:10D3C0009B0990919C092817390739F0E75EF64FC1
:10D3D000408330939A0920939909288139814A81A1
:10D3E0005B8180911F1190912011A0912111B0912A
:10D3F0002211280F391F4A1F5B1F20931F113093E2
:10D400002011409321115093221112161306140675
:10D4100015066CF5139A88899989AA89BB89281BF6
:10D42000390B4A0B5B0B20931F1130932011409353
:10D4300021115093221120910F1130911011409120
:10D4400011115091121180917003992787FD9095C9
:10D45000A92FB92F820F931FA41FB51F80930F11FF
:10D4600090931011A0931111B093121113982C8165
:10D470003D814E815F818091231190912411A09173
:10D480002511B0912611280F391F4A1F5B1F2093C9
:10D490002311309324114093251150932611121615
:10D4A0001306140615066CF5469A88899989AA8987
:10D4B000BB89281B390B4A0B5B0B2093231130933C
:10D4C000241140932511509326112091131130916E
:10D4D00014114091151150911611809171039927E3
:10D4E00087FD9095A92FB92F820F931FA41FB51FF9
:10D4F0008093131190931411A0931511B0931611EA
:10D500004698288539854A855B85809127119091B9
:10D510002811A0912911B0912A11280F391F4A1FF3
:10D520005B1F2093271130932811409329115093AA
:10D530002A1112161306140615066CF5409A8889EE
:10D540009989AA89BB89281B390B4A0B5B0B20934D
:10D550002711309328114093291150932A112091BB
:10D560001711309118114091191150911A11809191
:10D570007203992787FD9095A92FB92F820F931FCA
:10D58000A41FB51F8093171190931811A093191120
:10D59000B0931A1140982C853D854E855F8580910A
:10D5A0002B1190912C11A0912D11B0912E11280FBB
:10D5B000391F4A1F5B1F20932B1130932C1140936E
:10D5C0002D1150932E111216130614061506DCF5B4
:10D5D0009FB7F89480910B01806480930B019FBFEB
:10D5E00088899989AA89BB89281B390B4A0B5B0B4F
:10D5F00020932B1130932C1140932D1150932E1109
:10D6000020911B1130911C1140911D1150911E1140
:10D6100080917303992787FD9095A92FB92F820FC9
:10D62000931FA41FB51F80931B1190931C11A093EF
:10D630001D11B0931E119FB7F89480910B018F7B41
:10D6400080930B019FBF80912F1190913011A09179
:10D650003111B09132110196A11DB11D80932F118E
:10D6600090933011A0933111B093321120912F116A
:10D670003091301140913111509132116F5F7F4FD5
:10D6800088899989AA89BB89281739074A075B07BE
:10D6900038F480913D1190E0681779070CF480CE42
:10D6A00020912F1130913011409131115091321150
:10D6B0008C899D89AE89BF8982179307A407B50716
:10D6C00008F4E3C0E0903E11F0903F11009140114A
:10D6D00010914111AC8CBD8CCE8CDF8CA8019701D0
:10D6E000C601B501AA27279FB12D389FF001489F99
:10D6F000F00D479FE00DF11D289FB00DE11DFA1FB1
:10D70000379FB00DE11DFA1F469FB00DE11DFA1FB6
:10D71000369FB10DEA1FFA1FB695EA1FFA1F1124B2
:10D720008CAD9DAD8E0F9F1F90934311809342113E
:10D7300028AD39AD4AAD5BADA0E0B0E028173907A0
:10D740004A075B0720F43093431120934211609104
:10D750004211709143118CE96134780718F060E44C
:10D760007CE904C09EE46132790730F076956795D4
:10D770007695679584E007C0E7E261317E0730F077
:10D780007695679582E080933D1108C081E0809393
:10D790003D116032710510F460E270E0605270403B
:10D7A000F8E060307F07E8F0472F50E0440F551F46
:10D7B000440F551F415A574F9A012E5F3F4FF901B1
:10D7C000859194919C01AA27639FC001629F810D5E
:10D7D0009A1F06948A1F9A1F1124FA0145915491A9
:10D7E0001EC0CB01969587958C7F815A934FFC0183
:10D7F00045915491FC01329625913491862F90E009
:10D8000087709070FC012E9FC0012F9F900D3E9F4E
:10D81000900D1124B3E096958795BA95E1F7481BD2
:10D82000590B44365105A8F4E1ECF2E007C08091B1
:10D83000C00085FFFCCF31969093C600908199235C
:10D84000B1F78DE999E04AE050E00E94663E44E677
:10D8500050E050938900409388009A0140E050E0E6
:10D8600080913E1190913F11A0914011B0914111D2
:10D87000820F931FA41FB51F80933E1190933F11F9
:10D88000A0934011B093411102C120912F1130910A
:10D8900030114091311150913211888D998DAA8D9E
:10D8A000BB8D82179307A407B50708F0E4C0609109
:10D8B00044117091451180914611909147112C8D22
:10D8C0003D8D4E8D5F8DAA27639FB12D749FF00112
:10D8D000849FF00D839FE00DF11D649FB00DE11D4D
:10D8E000FA1F739FB00DE11DFA1F829FB00DE11D5D
:10D8F000FA1F729FB10DEA1FFA1FB695EA1FFA1FB1
:10D90000112480914211909143118E179F0738F492
:10D91000C05CDF4F68817981C054D04003C0BC0136
:10D920006E1B7F0BC05CDF4F288139814A815B8190
:10D93000CB01A0E0B0E082179307A407B50708F475
:10D94000B901FCE961347F0718F060E47CE904C0A8
:10D950002EE46132720730F076956795769567957B
:10D9600084E007C037E26131730730F07695679540
:10D9700082E080933D1108C081E080933D116032C8
:10D98000710510F460E270E06052704048E0603071
:10D990007407E8F0472F50E0440F551F440F551F00
:10D9A000415A574F9A012E5F3F4FF901859194914B
:10D9B0009C01AA27639FC001629F810D9A1F069454
:10D9C0008A1F9A1F1124FA01459154911EC0CB0160
:10D9D000969587958C7F815A934FFC014591549180
:10D9E000FC01329625913491862F90E087709070DB
:10D9F000FC012E9FC0012F9F900D3E9F900D112482
:10DA000023E0969587952A95E1F7481B590B4436F4
:10DA10005105A8F4E1ECF2E007C08091C00085FF59
:10DA2000FCCF31969093C60090819923B1F78DE990
:10DA300099E04AE050E00E94663E44E650E0509390
:10DA40008900409388009A0140E050E080914411A1
:10DA500090914511A0914611B0914711820F931FEB
:10DA6000A41FB51F8093441190934511A0934611B4
:10DA7000B09347110CC08091481190914911909337
:10DA800089008093880080914A1180933D112091F4
:10DA90002F11309130114091311150913211E0919C
:10DAA0000111F091021180899189A289B389281707
:10DAB00039074A075B0780F010920211109201119A
:10DAC0009091EB108091EC10981731F08091EC1050
:10DAD0008F5F8F708093EC10FF91EF91DF91CF916A
:10DAE000BF91AF919F918F917F916F915F914F9176
:10DAF0003F912F911F910F91FF90EF90DF90CF906A
:10DB0000BF90AF900F900BBE0F900FBE0F901F9065
:10DB1000189580913511882349F480913811882314
:10DB200029F480913B11882309F49CC0EFE5F0E1D2
:10DB3000949108C08091C00085FFFCCF9093C600EF
:10DB4000319694919923B1F7E1EAF0E1949108C0FC
:10DB50008091C00085FFFCCF9093C60031969491D0
:10DB60009923B1F7809135118823F1F06091031169
:10DB70007091041180910511909106110E941CCEA4
:10DB80002091BF0B3091C00B4091C10B5091C20B43
:10DB90000E9481CDAB01BC018DE990E10E94AA1DDC
:10DBA0008DE890E10E9439C5809138118823F1F009
:10DBB00060910711709108118091091190910A11DB
:10DBC0000E941CCE2091C30B3091C40B4091C50B19
:10DBD0005091C60B0E9481CDAB01BC0189E890E158
:10DBE0000E94AA1D89E790E10E9439C580913B11EE
:10DBF0008823F1F060910B1170910C1180910D113F
:10DC000090910E110E941CCE2091C70B3091C80B31
:10DC10004091C90B5091CA0B0E9481CDAB01BC0150
:10DC200085E790E10E94AA1D85E690E10E9439C532
:10DC3000E5EDF2E007C08091C00085FFFCCF319692
:10DC40009093C60090819923B1F78091C00085FF21
:10DC5000FCCF8AE08093C6001092351110923811E3
:10DC600010923B11089560E070E08FE793E42091FB
:10DC7000790330917A0340917B0350917C030E9499
:10DC800081CD60937F117093801180938111909367
:10DC900082110895FC0197FF03C080915C1103C0BD
:10DCA000ED59FE4E808190E0089510924D11109232
:10DCB0004C1110926311749810924F1110924E11E2
:10DCC00010926411759810924F1110924E1110928B
:10DCD0005C11A59808952DEB37E346E05EE30E94C2
:10DCE0005AD008952DEB37E346E05EE30E9481CDE4
:10DCF00008952DEB37E346E05EE30E9481CD089561
:10DD00002DEB37E346E05EE30E945AD008951F935F
:10DD1000182F0E94556E0E94A318882309F036C060
:10DD2000E0EBF0E1949108C08091C00085FFFCCF4A
:10DD30009093C600319694919923B1F78DE999E0BB
:10DD4000612F70E04AE050E00E943C3E8091C000AC
:10DD500085FFFCCF8AE08093C600EFE0F1E194916B
:10DD600008C08091C00085FFFCCF9093C60031961B
:10DD700094919923B1F78091C00085FFFCCF8AE090
:10DD80008093C60082E091E10E9448C50E944A1932
:10DD90001F9108951F93182F0E94556E0E94A3187B
:10DDA000882309F036C0E0EBF0E1949108C080913F
:10DDB000C00085FFFCCF9093C600319694919923C3
:10DDC000B1F78DE999E0612F70E04AE050E00E94E0
:10DDD0003C3E8091C00085FFFCCF8AE08093C60066
:10DDE000E9E4F1E1949108C08091C00085FFFCCF87
:10DDF0009093C600319694919923B1F78091C00019
:10DE000085FFFCCF8AE08093C6008CE391E10E94FD
:10DE100048C50E944A191F9108951F920F920FB68C
:10DE20000F920BB60F9211242F933F934F935F9352
:10DE30006F937F938F939F93AF93BF93EF93FF93D2
:10DE400090918703992391F48091631180936811D5
:10DE5000882311F0749A01C0749880915C118093AA
:10DE60006711882311F0A59A01C0A59880916811C7
:10DE7000891708F4749880916711891708F4A59898
:10DE80009F5F9F779093870380916911833009F496
:10DE900050C0843028F48130F9F08230D8F50DC0BC
:10DEA000853009F471C0853008F45FC0863009F40C
:10DEB00087C0873009F08FC087C088E080937B00DF
:10DEC00080E480937C0080917A00806480937A0063
:10DED0000E94809681E01BC080917800909179002B
:10DEE000A0E0B0E020917611309177114091781147
:10DEF00050917911280F391F4A1F5B1F209376110B
:10DF000030937711409378115093791182E0809388
:10DF1000691161C088E080937B0082E480937C007B
:10DF200080917A00806480937A000E94809683E0DA
:10DF3000EECF8091780090917900A0E0B0E0209140
:10DF40006A1130916B1140916C1150916D11280F35
:10DF5000391F4A1F5B1F20936A1130936B11409346
:10DF60006C1150936D1184E0D2CF88E080937B00D8
:10DF700081E480937C0080917A00806480937A00B1
:10DF80000E94809685E0C3CF8091780090917900BF
:10DF9000A0E0B0E0209172113091731140917411A2
:10DFA00050917511280F391F4A1F5B1F2093721162
:10DFB00030937311409374115093751186E0A7CF7D
:10DFC0000E94809687E0A3CF1092691180917A1108
:10DFD0008F5F80937A1180917A11803108F455C057
:10DFE00080916411882381F480917611909177114A
:10DFF000909351118093501180916A1190916B11FF
:10E00000909357118093561181E080936411109280
:10E010007A11109276111092771110927811109255
:10E020007911109272111092731110927411109252
:10E03000751110926E1110926F1110927011109252
:10E04000711110926A1110926B1110926C11109252
:10E050006D11209150113091511180918503909153
:10E060008603281739071CF080E00E94CA6E2091B1
:10E070005011309151118091651190916611821764
:10E0800093071CF080E00E94876EFF91EF91BF9193
:10E09000AF919F918F917F916F915F914F913F9140
:10E0A0002F910F900BBE0F900FBE0F901F901895E1
:10E0B000EF92FF920F931F93E0905211F090531143
:10E0C000009154111091551160914C1170914D11A6
:10E0D000882777FD8095982F0E941CCE20E030E0A5
:10E0E00040EA51E40E94A0CC9B01AC01C801B701F9
:10E0F0000E947ACD882394F4C801B7010E94E9CD2B
:10E1000070935E1160935D110E94001460935F1123
:10E110007093601180936111909362111F910F9120
:10E12000FF90EF9008952F926F927F928F929F921F
:10E13000AF92BF92CF92DF92EF92FF920F931F9315
:10E14000DF93CF93CDB7DEB729970FB6F894DEBF34
:10E150000FBECDBF8C01E62E662369F1E0EBF0E146
:10E16000949108C08091C00085FFFCCF9093C600B9
:10E17000319694919923B1F78DE999E06E2D70E075
:10E180004AE050E00E943C3EE6E7F1E1949108C08D
:10E190008091C00085FFFCCF9093C600319694918A
:10E1A0009923B1F78091C00085FFFCCF8AE080936E
:10E1B000C6000E948C19AE2DB0E0FD01EE0FFF1FCE
:10E1C000E951FC4F6081718179876887672B09F479
:10E1D0009FC0A751BC4F7C917B832224239479C09C
:10E1E000222D30E0A901440F551F440F551FE8852B
:10E1F000F985E40FF51F85919491081719070CF024
:10E2000067C0C9010197880F991F880F991FFC01EA
:10E210003296A885B985EA0FFB1FC590D4908A0F66
:10E220009B1FFC01659174917A836983FA01329690
:10E23000EA0FFB1FE590F490FD01E40FF51FA59098
:10E24000B490B601882777FD8095982F0E941CCE48
:10E250006C837D838E839F8389819A81081B190B30
:10E26000B801882777FD8095982F0E941CCE3B012E
:10E270004C01EC18FD080027F7FC0095102FC80191
:10E28000B7010E941CCE9B01AC01C401B3010E94E6
:10E290005AD07B018C01A981BA81AA1ABB0ACC246D
:10E2A000B7FCC094DC2CC601B5010E941CCE9B01BA
:10E2B000AC01C801B7010E9481CD9B01AC016C810A
:10E2C0007D818E819F810E94A1CCE62F692F09C09C
:10E2D0002394BB812B1608F483CFE0E070E080E04C
:10E2E00060E0FB812F1679F5E22DF0E0EE0FFF1FC5
:10E2F000EE0FFF1F329768857985E60FF71F65914E
:10E300007491882777FD8095982F0E941CCE19C0A4
:10E31000B801882777FD8095982F0E941CCE20E0B9
:10E3200030E04AEF5EE30E945AD020E030E040E85F
:10E330005DE30E945AD020E030E040E050E00E94CF
:10E34000A1CCE62F692F2E2F372F482F562FB9013A
:10E35000CA0129960FB6F894DEBF0FBECDBFCF918C
:10E36000DF911F910F91FF90EF90DF90CF90BF90C2
:10E37000AF909F908F907F906F902F90089580E046
:10E3800090E0A0E0B0E080937B1190937C11A0938B
:10E390007D11B0937E1160E070E08FE793E42091EF
:10E3A000790330917A0340917B0350917C030E9462
:10E3B00081CD60937F117093801180938111909330
:10E3C00082116C9A6D9A9D9A80910101806180936F
:10E3D000010187E061E070E00E94A61887ED80935C
:10E3E0007A0010927E0010927D0080917D00816005
:10E3F00080937D0080917D00826080937D0080917C
:10E400007D00846080937D0080E888BD80916E00EF
:10E41000846080936E006AEF70E080E090E00E947C
:10E420000E1485E090E0909384118093831109C0CD
:10E43000809165119091661140969093661180933A
:10E440006511809165119091661160E00E94937052
:10E4500020E030E040EA50E40E947ACD87FDE8CF2A
:10E4600083E191E0909389038093880309C08091B0
:10E47000850390918603409790938603809385034C
:10E48000809185039091860360E00E94937020E064
:10E4900030E849E853E40E9488CF181644F3089501
:10E4A000809150119091511160E00E94937060939F
:10E4B000521170935311809354119093551180E031
:10E4C00090E0A0E0B0E08093581190935911A09390
:10E4D0005A11B0935B110E944D8F8FB7F894109230
:10E4E00064118FBF08952F923F924F925F926F9267
:10E4F0007F928F929F92AF92BF92CF92DF92EF92D4
:10E50000FF920F931F9380916411882309F4E4C153
:10E510000E9450726090521170905311809054116B
:10E5200090905511C0904C11D0904D11B601882794
:10E5300077FD8095982F0E941CCEA40193010E9424
:10E54000A0CC7B018C016093851170938611809320
:10E5500087119093881120E030E040E251E40E945E
:10E5600088CF181624F481E080938911E9C0C8018E
:10E57000B70120E030E040E251EC0E947ACD87FD07
:10E5800002C0CD2821F481E080938911C4C080911C
:10E590008911882371F080E090E0A0E0B0E08093E2
:10E5A0008A1190938B11A0938C11B0938D111092BE
:10E5B0008911C801B701209175033091760340910C
:10E5C0007703509178030E945AD01B012C0160936D
:10E5D0008E1170938F118093901190939111C801B7
:10E5E000B70120918A1130918B1140918C1150917B
:10E5F0008D110E94A1CC5B016C01E0907B11F09029
:10E600007C1100917D1110917E11A80197010E944B
:10E610007ACD87FD12C0E0907F11F09080110091BB
:10E62000811110918211C601B501A80197010E94C4
:10E6300088CF181614F086017501E0928A11F092C5
:10E640008B1100938C1110938D11C801B70120918B
:10E65000790330917A0340917B0350917C030E94AF
:10E660005AD05B016C016093921170939311809367
:10E67000941190939511C401B3012091961130919A
:10E68000971140919811509199110E94A0CC20911E
:10E690007D0330917E0340917F03509180030E945F
:10E6A0005AD020ED3CEC4CE45DE30E945AD07B0153
:10E6B0008C0160919A1170919B1180919C119091A5
:10E6C0009D1123E333E343E75FE30E945AD09B01AC
:10E6D000AC01C801B7010E94A1CC7B018C01609301
:10E6E0009A1170939B1180939C1190939D11C2017C
:10E6F000B101A60195010E94A1CCA80197010E9439
:10E70000A0CC7B018C0120E030E040E050E00E9492
:10E710007ACD88235CF40F2EF0E0EF2EF0E0FF2E90
:10E72000F0E00F2FF0E01F2FF02D14C0C801B7014B
:10E7300020E030E04FE753E40E9488CF181654F4ED
:10E740000F2EF0E0EF2EF0E0FF2EFFE70F2FF3E4A7
:10E750001F2FF02D60929611709297118092981150
:10E76000909299116091831170918411882777FD9F
:10E770008095982F0E941CCE9B01AC01C401B3016F
:10E780000E9488CF1816DCF4609188037091890389
:10E79000882777FD8095982F0E941CCE9B01AC01A5
:10E7A000C401B3010E947ACD88234CF4C801B7019B
:10E7B0000E94E9CD759567956093631102C0109230
:10E7C000631180915F1190916011A0916111B091DE
:10E7D00062110097A105B10509F461C00E940014FF
:10E7E00020915F113091601140916111509162113F
:10E7F000621B730B840B950B61547C4980409040E5
:10E8000008F44DC060915D1170915E11665F7F4F9D
:10E81000882777FD8095982F0E941CCE9B01AC0124
:10E820006091521170915311809154119091551132
:10E830000E947ACD88235CF510924D1110924C11F4
:10E8400089E991E10E9439C5E3E9F1E1949108C0B9
:10E850008091C00085FFFCCF9093C60031969491C3
:10E860009923B1F7E6EDF2E007C08091C00085FF83
:10E87000FCCF31969093C60090819923B1F7809197
:10E88000C00085FFFCCF8AE08093C60008C01092CC
:10E890005F111092601110926111109262110E942A
:10E8A000001420919E1130919F114091A011509120
:10E8B000A111621B730B840B950B68587341804048
:10E8C000904050F00E94001460939E1170939F112D
:10E8D0008093A0119093A1111F910F91FF90EF9041
:10E8E000DF90CF90BF90AF909F908F907F906F9070
:10E8F0005F904F903F902F9008952F923F924F92AC
:10E900005F926F927F928F929F92AF92BF92CF92BF
:10E91000DF92EF92FF920F931F93DF93CF93CDB7C8
:10E92000DEB7E6970FB6F894DEBF0FBECDBF6C8F93
:10E930007D8F8E8F9F8F5EAB4DAB39A328A30E9436
:10E940000014698B7A8B8B8B9C8B2DA93EA922306E
:10E9500031051CF4E5EEF2E019C0E8EFF2E007C083
:10E960008091C00085FFFCCF31969093C6009081C6
:10E970009923B1F78091C00085FFFCCF14C480912A
:10E98000C00085FFFCCF31969093C60090819923FB
:10E99000B1F78091C00085FFFCCF8AE08093C6006C
:10E9A0000E94556E4DA95EA957FF74C08FE78093F2
:10E9B0005C1189899A89AB89BC898D879E87AF87CD
:10E9C000B88B89879A87AB87BC8719AA1AAA1BAA12
:10E9D0001CAA1F8A1E8A91E09D8B1D821E821F82A7
:10E9E00018867FE7A72EB12CC12CD12C6FE7262EDD
:10E9F000312C412C512C20E030E040E050E02983C4
:10EA00003A834B835C830F2EF0E06F2EF0E47F2E71
:10EA1000FCE18F2EF6E49F2EF02D4DA95EA94D59F5
:10EA20005E4E5BA34AA3E9E8F2E154915CA3E4E8FB
:10EA3000F2E184918DA3EDE7F2E194919EA3E6E7E4
:10EA4000F2E1A491AFA3E0E7F2E1B491B8A7EAE65E
:10EA5000F2E1249129A7EDE5F2E134913AA7E7E547
:10EA6000F2E144914BA7E1E5F2E154915CA7EBE4BC
:10EA7000F2E184918DA7ADA9BEA9AA0FBB1FAA0F71
:10EA8000BB1FAE5ABE4EBFA7AEA7E1E1F2E1B49103
:10EA9000B8AB07C0EDA9FEA9ED59FE4E8FE7808304
:10EAA00088CF80916411882309F4A3C20E94507218
:10EAB000EDA9FEA9F7FF0DC0F0915811F9AB209117
:10EAC00059112AAB30915A113BAB40915B114CABC1
:10EAD00011C0AEA5BFA5BC91B9ABEEA5FFA5F18154
:10EAE000FAABAEA5BFA51296BC91BBABEEA5FFA538
:10EAF000F381FCAB69817A818B819C8129A93AA938
:10EB00004BA95CA90E9488CF181644F089A99AA93C
:10EB1000ABA9BCA989839A83AB83BC83C401B3012D
:10EB200029A93AA94BA95CA90E947ACD87FD06C004
:10EB300089A99AA9ABA9BCA93C014D012D89222321
:10EB400009F451C069A97AA98BA99CA92C8D3D8D86
:10EB50004E8D5F8D0E9488CF18160CF04AC20E941D
:10EB6000001429853A854B855C85621B730B840BE9
:10EB7000950B695873418040904008F43AC2D60121
:10EB8000C50182199309A409B5094DA95EA957FFCA
:10EB900007C0B595A7959795879580935C1107C099
:10EBA000B595A79597958795EAA1FBA180830E94CB
:10EBB00000146D877E878F87988B9B01AC018985B8
:10EBC0009A85AB85BC85281B390B4A0B5B0B2D83C3
:10EBD0003E834F8358872C8D3D8D4E8D5F8D2983CD
:10EBE0003A834B835C8369A97AA98BA99CA92C8D54
:10EBF0003D8D4E8D5F8D0E947ACD88230CF0F8C13B
:10EC00000E9400142D853E854F855889621B730B29
:10EC1000840B950B695873418040904008F4E8C11B
:10EC20000E94001469877A878B879C874E895F8949
:10EC3000452B09F4B8C1DC01CB012D853E854F85FC
:10EC40005889821B930BA40BB50B2D813E814F81FC
:10EC50005885280F391F4A1F5B1F288F398F4A8F0D
:10EC60005B8F2D813E814F815885281B390B4A0BC4
:10EC70005B0BCA01B901A20191010E942CD1288D20
:10EC8000398D4A8D5B8D0E9494D12A0D3B1D4C1D00
:10EC90005D1D24313105410551055CF424E1222E2E
:10ECA000312C412C512C94E1A92EB12CC12CD12C0A
:10ECB0001FC059016A013CEEA316B104C104D1047E
:10ECC0002CF08BEEA82EB12CC12CD12C40E8A41630
:10ECD000B104C104D1041CF41501260109C00EEFD2
:10ECE000202E312C412C512C2A183B084C085D0851
:10ECF0009CA1E9E8F2E108C08091C00085FFFCCF4B
:10ED00009093C600319694919923B1F78DE999E0DB
:10ED1000B601A5012AE030E00E94073E9DA1E4E88B
:10ED2000F2E108C08091C00085FFFCCF9093C6003F
:10ED3000319694919923B1F78DE999E0B201A1013F
:10ED40002AE030E00E94073E9EA1EDE7F2E108C014
:10ED50008091C00085FFFCCF9093C60031969491BE
:10ED60009923B1F78DE999E0B401A30122E030E0E5
:10ED70000E94173F9FA1E6E7F2E108C08091C00022
:10ED800085FFFCCF9093C600319694919923B1F7FB
:10ED90008DE999E049815A816B817C8122E030E0E4
:10EDA0000E94173F8091C00085FFFCCF8AE08093CE
:10EDB000C6008E899F8903970CF4F5C0C201B1018A
:10EDC0000E941CCE20E030E040E850E40E945AD07F
:10EDD0007B018C0169817A818B819C81A4019301E3
:10EDE0000E94A0CC20ED3FE049E450E40E945AD0BC
:10EDF00020E030E040E05FE30E945AD09B01AC018C
:10EE0000C801B7010E9481CD7B018C01688D798D8D
:10EE10008A8D9B8D0E941CCE20E030E04AE754E4AE
:10EE20000E9481CD3B014C0198A5E0E7F2E108C0CA
:10EE30008091C00085FFFCCF9093C60031969491DD
:10EE40009923B1F78DE999E0B801A70122E030E0FC
:10EE50000E94173F99A5EAE6F2E108C08091C00040
:10EE600085FFFCCF9093C600319694919923B1F71A
:10EE70008DE999E0B401A30122E030E00E94173F40
:10EE80008091C00085FFFCCF8AE08093C600C80156
:10EE9000B7012AE939E949E15FE30E945AD07B01D1
:10EEA0008C019AA5EDE5F2E108C08091C00085FFD4
:10EEB000FCCF9093C600319694919923B1F780913D
:10EEC000C00085FFFCCF8AE08093C6009BA5E7E5E4
:10EED000F2E108C08091C00085FFFCCF9093C6008E
:10EEE000319694919923B1F78DE999E0B801A70182
:10EEF00022E030E00E94173F8091C00085FFFCCFE8
:10EF00008AE08093C6009CA5E1E5F2E108C080910B
:10EF1000C00085FFFCCF9093C60031969491992351
:10EF2000B1F7C801B701A80197010E94A1CCA401C3
:10EF300093010E9481CDAB01BC018DE999E022E0F3
:10EF400030E00E94173F8091C00085FFFCCF8AE02F
:10EF50008093C6009DA5EBE4F2E108C08091C0005B
:10EF600085FFFCCF9093C600319694919923B1F719
:10EF7000C801B701A40193010E945AD020E030E0FB
:10EF800040E05EE30E945AD0AB01BC018DE999E0FC
:10EF900022E030E00E94173F8091C00085FFFCCF47
:10EFA0008AE08093C600D201C1018A0D9B1DAC1D71
:10EFB000BD1DEDA9FEA9F7FF07C0B595A7959795CB
:10EFC000879580935C1107C0B595A7959795879510
:10EFD000EAA1FBA180832E893F892F5F3F4F3F8BA2
:10EFE0002E8B6C8C7D8C8E8C9F8C31E03D8B01C088
:10EFF0001D8A6C8D7D8D8E8D9F8D20E030E040EAE6
:10F0000051E40E94A1CC9B01AC0169A97AA98BA90A
:10F010009CA90E9488CF18169CF4E1E2F2E1949139
:10F0200008C08091C00085FFFCCF9093C600319648
:10F0300094919923B1F78091C00085FFFCCFB3C0B4
:10F040000E94001429893A894B895C89621B730BE1
:10F05000840B950B615D77408040904008F454C06C
:10F060004DA95EA957FF11C060915C11EBE1F2E17F
:10F07000949108C08091C00085FFFCCF9093C6009A
:10F08000319694919923B1F711C0AAA1BBA16C91BB
:10F09000E5E1F2E1949108C08091C00085FFFCCFCA
:10F0A0009093C600319694919923B1F7162F8DE96C
:10F0B00099E049A95AA96BA97CA922E030E00E94F5
:10F0C000173F98A9E1E1F2E108C08091C00085FFF7
:10F0D000FCCF9093C600319694919923B1F78DE9B6
:10F0E00099E0612F70E04AE050E00E943C3E809140
:10F0F000C00085FFFCCF8AE08093C6000E94001408
:10F10000698B7A8B8B8B9C8B0E9400147B018C010A
:10F110000E9400142D853E854F855889E21AF30A16
:10F12000040B150B29853A854B855C85E21AF30A99
:10F13000040B150BE60EF71E081F191F31E8E31626
:10F140003FE4F30632E1030730E0130798F0E4EF01
:10F15000F1E1949108C08091C00085FFFCCF9093AD
:10F16000C600319694919923B1F78091C00085FF34
:10F17000FCCF19C04E895F8988A199A18417950792
:10F1800074F5E8EAF1E1949108C08091C00085FF30
:10F19000FCCF9093C600319694919923B1F780915A
:10F1A000C00085FFFCCF8AE08093C600E6960FB6CC
:10F1B000F894DEBF0FBECDBFCF91DF911F910F91AD
:10F1C000FF90EF90DF90CF90BF90AF909F908F9087
:10F1D0007F906F905F904F903F902F9008950E9486
:10F1E00013C65FCCFC01128213820895FC01838157
:10F1F000882311F081E082830895FC0182818111CE
:10F2000012820895CF93DF93DC01FC01EB55FE4F92
:10F21000808191810097C9F1019791838083ED01ED
:10F22000CC5ADF4FFD01ED58FF4F8BE10190099261
:10F230008150E1F7FD01EE5AFF4FAF58BF4F8D915E
:10F240009C911197A157B04091838083FD01ED58A7
:10F25000FF4F20E030E0AD014B555E4F10C02F5FF7
:10F260003F4FEF01DF015F968BE10D9009928150D6
:10F27000E1F7858D968D329791838083B196DA017F
:10F280008D919C912817390750F3DF91CF91089504
:10F29000FC0183EE93E0918380838781882321F0B2
:10F2A000CF0104960E9434430895CF92DF92EF92EB
:10F2B000FF920F931F93DF93CF93CDB7DEB76F9776
:10F2C0000FB6F894DEBF0FBECDBF8C016B01095A9B
:10F2D0001F4FD8018C9107551040882321F42FE24D
:10F2E000E22EF12C03C090E5E92EF12CE00EF11E88
:10F2F00083EE93E09A8389831C821B8218861D8289
:10F30000B7016C5F7F4FCE010596A60121E00E94F8
:10F31000414A882391F5EDE9F2E1949108C080918A
:10F32000C00085FFFCCF9093C6003196949199233D
:10F33000B1F7E3EAF2E1949108C08091C00085FF43
:10F34000FCCF9093C600319694919923B1F709C0F0
:10F350008091C00085FFFCCF0894C11CD11C909304
:10F36000C600F6019081992399F78091C00085FF2E
:10F37000FCCF8AE08093C6005AC0F801EB55FE4FDF
:10F38000208131812A30310508F040C02F5F3F4F86
:10F390003183208321503040F90185E0EE0FFF1FBB
:10F3A0008A95E1F7E21BF30BED58FF4FE00FF11FD9
:10F3B00013C0AF01415E5F4FBF018BE1DB010D90D8
:10F3C000BD01DA010D92AD018150C1F79291829198
:10F3D0003296968F858F7F9721503040BFEF2E3F1A
:10F3E0003B0739F7D801AD58BF4FF70134968BE191
:10F3F00001900D928150E1F70F581F4FF701828164
:10F400009381D8018D939C9301571040D801AC5A39
:10F41000BF4FFE0135968BE101900D928150E1F7CF
:10F420000E5A1F4F8B819C81F80191838083CE01FE
:10F4300001960E9448796F960FB6F894DEBF0FBE12
:10F44000CDBFCF91DF911F910F91FF90EF90DF9093
:10F45000CF900895EF92FF920F931F938C013EEC93
:10F46000E32E31E0F32EE80EF91EC7010E94E442BC
:10F47000C7010E943443F801108211821F910F913D
:10F48000FF90EF900895CF92DF92EF92FF920F934B
:10F490001F93CF93DF937C016B01DB010D90002064
:10F4A000E9F78D0101501040061B170BEEECF1E05F
:10F4B000EE0EFF1ED7011C92E2E3FEEFEE0EFF1EE2
:10F4C000CB016EE470E00E94E810EC01009731F48B
:10F4D000F8013197EC0DFD1D86010EC060E270E071
:10F4E0000E94E8108C010F5F1F4FCE016AE270E0AE
:10F4F0000E94E810FC0131978DE081838AE08283CD
:10F500001382C70186539E4FB8010E94434B8EEC75
:10F5100091E0E80EF91ED7018C91882319F1EDECEA
:10F52000F2E1949108C08091C00085FFFCCF9093D8
:10F53000C600319694919923B1F7E4EDF2E19491EC
:10F5400008C08091C00085FFFCCF9093C600319623
:10F5500094919923B1F78091C00085FFFCCF8AE098
:10F560008093C600DF91CF911F910F91FF90EF9094
:10F57000DF90CF900895CF93DF93EC018B818823A8
:10F5800009F43BC0ECEFF2E1949108C08091C00017
:10F5900085FFFCCF9093C600319694919923B1F7E3
:10F5A000CD57DD4F488159816A817B81C358D24054
:10F5B0008DE999E02AE030E00E94E83DEAEFF2E1CF
:10F5C000949108C08091C00085FFFCCF9093C60045
:10F5D000319694919923B1F7C558DD4F48815981EF
:10F5E0006A817B818DE999E02AE030E00E94E83D64
:10F5F0008091C00085FFFCCF12C0EAEEF2E1949149
:10F6000008C08091C00085FFFCCF9093C600319662
:10F6100094919923B1F78091C00085FFFCCF8AE0D7
:10F620008093C600DF91CF9108952F923F924F9221
:10F630005F926F927F928F929F92AF92BF92CF9282
:10F64000DF92EF92FF920F931F93DF93CF93CDB78B
:10F65000DEB7AC970FB6F894DEBF0FBECDBF5C012E
:10F660004B01FC018381882309F438C1C501825311
:10F670009E4F0E943443F50112821A8A1D8A198A0C
:10F68000188A83EE93E09F878E875EE4C52ED12C87
:10F69000CA0CDB1C2FE230E0A20EB31EF601B182D1
:10F6A000A08221ED3FEFA20EB31EF40180818F32C4
:10F6B00009F090C0C4016FE270E00E94E8107C0184
:10F6C0000894E11CF11C3E010894611C711C260188
:10F6D00042E1242E312C2C0E3D1E77C0C7016FE273
:10F6E00070E00E94E8106C01009709F481C0E816F0
:10F6F000F90608F07DC08C010E191F09C301B7017E
:10F70000A8010E940811060D171DF8011082F301CF
:10F7100007C08091C00085FFFCCF31969093C60052
:10F7200090819923B1F78091C00085FFFCCFFAE06A
:10F73000F093C600F201608171816115710519F4C1
:10F7400060E070E002C06C5F7F4FC101A30121E067
:10F750000E94414A882371F5E8E3F3E1949108C0DF
:10F760008091C00085FFFCCF9093C60031969491A4
:10F770009923B1F7FE01319607C08091C00085FF43
:10F78000FCCF31969093C60090819923B1F7E6E3C0
:10F79000F3E1949108C08091C00085FFFCCF909365
:10F7A000C600319694919923B1F78091C00085FFEE
:10F7B000FCCF8DC02EE030E02C0F3D1FF2013183D5
:10F7C000208376010894E11CF11CE114F10409F096
:10F7D00085CF0BC080E590E0A80EB91EF601B1827E
:10F7E000A08220EB3FEFA20EB31ED82C092D02C041
:10F7F000DE2C0F2D8EE490E0A80EB91EF50180815D
:10F80000918122EB3FEFA20EB31E009719F480E026
:10F8100090E001C004966D2D702F0E94134B882339
:10F8200039F1E8E2F3E1949108C08091C00085FFCE
:10F83000FCCF9093C600319694919923B1F78D2D0A
:10F84000902F9C01F90107C08091C00085FFFCCF7B
:10F8500031969093C60090819923B1F783E892E0A6
:10F86000A80EB91EF501108211821282138232C0D5
:10F87000E0E1F3E1949108C08091C00085FFFCCFE6
:10F880009093C600319694919923B1F78D2D902FC6
:10F890009C01F90107C08091C00085FFFCCF319623
:10F8A0009093C60090819923B1F7EEE0F3E1949133
:10F8B00008C08091C00085FFFCCF9093C6003196B0
:10F8C00094919923B1F78091C00085FFFCCF8AE025
:10F8D0008093C600CE010E960E944879AC960FB672
:10F8E000F894DEBF0FBECDBFCF91DF911F910F9176
:10F8F000FF90EF90DF90CF90BF90AF909F908F9050
:10F900007F906F905F904F903F902F900895BF929F
:10F91000CF92DF92EF92FF920F931F93CF93DF93DB
:10F920008C01EB018FE28993EE24E394FF2475EAC6
:10F93000C72E71E0D72EC00ED11E6FE1B62E14C0B7
:10F94000FB9CC00111248D589F4F800F911FBE0159
:10F950000E94464302C02196E3948881882319F0CF
:10F960008CE88E15C0F7F3942F2D30E0F6018081DE
:10F9700091812817390720F3E7FC07C0C80182539B
:10F980009E4FBE010E94464301C01882DF91CF9175
:10F990001F910F91FF90EF90DF90CF90BF9008954F
:10F9A0002F923F924F925F926F927F928F929F928F
:10F9B000AF92BF92CF92DF92EF92FF920F931F937D
:10F9C000DF93CF93CDB7DEB7AD970FB6F894DEBF18
:10F9D0000FBECDBF6C014B014DA7DC0113968C917E
:10F9E000882309F44AC3E1EDF1E0CE0EDF1ED60113
:10F9F0008C91EFE2FEEFCE0EDF1E882309F419C1D1
:10FA0000222309F0E1C029EE31E0C20ED31ED60157
:10FA10008C91E7E1FEEFCE0EDF1E882371F1EDEC55
:10FA2000F2E1949108C08091C00085FFFCCF9093D3
:10FA3000C600319694919923B1F7E0E1F4E19491F5
:10FA400008C08091C00085FFFCCF9093C60031961E
:10FA500094919923B1F78DE999E061E070E04AE073
:10FA600050E00E943C3E8091C00085FFFCCF8AE0C0
:10FA70008093C6000E948C1900C3EDE9F2E19491D5
:10FA800008C08091C00085FFFCCF9093C6003196DE
:10FA900094919923B1F7E7EFF3E1949108C0809135
:10FAA000C00085FFFCCF9093C600319694919923B6
:10FAB000B1F7F40107C08091C00085FFFCCF3196FB
:10FAC0009093C60090819923B1F7ECEEF3E1949105
:10FAD00008C08091C00085FFFCCF9093C60031968E
:10FAE00094919923B1F7C6012EEE31E0C20ED31ED8
:10FAF000B6010E94877C4BEF5FEFC40ED51ED60186
:10FB00009C91E7E1FEEFCE0EDF1E8DE8989FF0019D
:10FB10001124E251FE4FEC0DFD1D07C08091C00085
:10FB200085FFFCCF31969093C60090819923B1F761
:10FB3000E6EEF3E1949108C08091C00085FFFCCF10
:10FB40009093C600319694919923B1F723E832E05F
:10FB5000C20ED31ED6014D915D916D917C91EDE762
:10FB6000FDEFCE0EDF1E8DE999E02AE030E00E9425
:10FB7000E83D8091C00085FFFCCF8AE08093C600FD
:10FB8000A60147515E4FDA012C91E22FF0E0EE0F13
:10FB9000FF1FEE0FFF1FEC0DFD1DE651FE4F83E82A
:10FBA00092E0C80ED91ED6014D905D906D907C906C
:10FBB0008DE79DEFC80ED91E40825182628273820A
:10FBC0002F5FDA012C932FC0EDE9F2E1949108C088
:10FBD0008091C00085FFFCCF9093C6003196949130
:10FBE0009923B1F7E5EDF3E1949108C08091C0004D
:10FBF00085FFFCCF9093C600319694919923B1F77D
:10FC0000F40107C08091C00085FFFCCF319690932E
:10FC1000C60090819923B1F78091C00085FFFCCF89
:10FC20008AE08093C600C60182539E4F0E943443EF
:10FC300039C0E9EEF1E0CE0EDF1ED6011C92E7E1FD
:10FC4000FEEFCE0EDF1EEDE9F2E1949108C0809147
:10FC5000C00085FFFCCF9093C60031969491992304
:10FC6000B1F7E4ECF3E1949108C08091C00085FF06
:10FC7000FCCF9093C600319694919923B1F7F4018B
:10FC800007C08091C00085FFFCCF31969093C600DD
:10FC900090819923B1F78091C00085FFFCCF8AE065
:10FCA0008093C600D60112961C921A8A1D8A198A60
:10FCB000188A83EE93E09F878E87FEE4AF2EB12CE7
:10FCC000AC0CBD1CEFE2F0E0CE0EDF1ED501CD92F4
:10FCD000DC92E1EDFFEFCE0EDF1ED4018C918F326E
:10FCE00009F090C0C4016FE270E00E94E8107C014E
:10FCF0000894E11CF11C3E010894611C711C250153
:10FD0000E2E12E2E312C2C0E3D1E77C0C7016FE292
:10FD100070E00E94E8105C01009709F481C0E816C9
:10FD2000F90608F07DC08C010E191F09C301B70147
:10FD3000A8010E940811060D171DF8011082F30199
:10FD400007C08091C00085FFFCCF31969093C6001C
:10FD500090819923B1F78091C00085FFFCCFFAE034
:10FD6000F093C600D2016D917C916115710519F473
:10FD700060E070E002C06C5F7F4FC101A30121E031
:10FD80000E94414A882371F5E0EBF3E1949108C0A9
:10FD90008091C00085FFFCCF9093C600319694916E
:10FDA0009923B1F7FE01319607C08091C00085FF0D
:10FDB000FCCF31969093C60090819923B1F7EEEA7B
:10FDC000F3E1949108C08091C00085FFFCCF90932F
:10FDD000C600319694919923B1F78091C00085FFB8
:10FDE000FCCF1BC12EE030E02C0F3D1FF201318310
:10FDF000208375010894E11CF11CE114F10409F061
:10FE000085CF0BC040E550E0C40ED51ED501CD9284
:10FE1000DC92E0EBFFEFCE0EDF1E082DF92C01C0C7
:10FE20000E2DF601E25BFF4F2DA5222309F4B1C090
:10FE3000608171816115710519F460E070E002C0A4
:10FE40006C5F7F4FC60182539E4F402F5F2D21E094
:10FE50000E94414A882309F46CC04FED51E0C40E62
:10FE6000D51ED6014D915D916D917C91ECE9F0E04C
:10FE7000CE0EDF1ED6014D935D936D937C93139749
:10FE8000E5E8FDEFCE0EDF1EE0EAF3E1949108C055
:10FE90008091C00085FFFCCF9093C600319694916D
:10FEA0009923B1F7802F9F2D9C01F90107C0809104
:10FEB000C00085FFFCCF31969093C60090819923B6
:10FEC000B1F7E8E9F3E1949108C08091C00085FFA3
:10FED000FCCF9093C600319694919923B1F78DE9A8
:10FEE00099E02AE030E00E94E83D8091C00085FF63
:10FEF000FCCF8AE08093C60023E832E0C20ED31E16
:10FF0000D6011D921D921D921C921397EAE8F3E10F
:10FF1000949108C08091C00085FFFCCF9093C600EB
:10FF2000319694919923B1F78091C00085FFFCCF61
:10FF300099C0E6E7F3E1949108C08091C00085FF85
:10FF4000FCCF9093C600319694919923B1F7802FFE
:10FF50009F2D9C01F90107C08091C00085FFFCCF57
:10FF600031969093C60090819923B1F7E4E7F3E1CD
:10FF7000949108C08091C00085FFFCCF9093C6008B
:10FF8000319694919923B1F78091C00085FFFCCF01
:10FF900044C0608171816115710519F460E070E001
:10FFA00002C06C5F7F4FC60182539E4F402F5F2D72
:10FFB00026E50E94414A882309F033C0E0E6F3E1D8
:10FFC000949108C08091C00085FFFCCF9093C6003B
:10FFD000319694919923B1F7802F9F2D9C01F901BF
:10FFE00007C08091C00085FFFCCF31969093C6007A
:10FFF00090819923B1F7EEE5F3E1949108C08091E7
:020000021000EC
:10000000C00085FFFCCF9093C60031969491992350
:10001000B1F78091C00085FFFCCF8AE08093C600D5
:1000200028C081E0F6018083ECE4F3E1949108C0FC
:100030008091C00085FFFCCF9093C60031969491CB
:100040009923B1F7F40107C08091C00085FFFCCF70
:1000500031969093C60090819923B1F78091C000AA
:1000600085FFFCCF8AE08093C600802F9F2D0E94E1
:100070005CC5CE010E960E944879AD960FB6F894F5
:10008000DEBF0FBECDBFCF91DF911F910F91FF90CB
:10009000EF90DF90CF90BF90AF909F908F907F9028
:1000A0006F905F904F903F902F900895EF92FF9246
:1000B0000F931F93CF93DF93EC010E945A668E013A
:1000C00007511E4FD8018C919EECE92E91E0F92E3C
:1000D000EC0EFD1E8823A1F1C7010E943443F801F4
:1000E0006081615060838DE8689FB0011124625186
:1000F0007E4F6C0F7D1FCE0141E021E00E94D07C3D
:10010000D801EC91F0E0EE0FFF1FEE0FFF1FEC0F98
:10011000FD1FE651FE4F4081518162817381CD57B1
:10012000DD4F488359836A837B83C358D240C7011C
:100130000E941A428B81882369F081E08A830AC079
:100140000E943766C7010E9434431A8281E992E116
:100150000E94C93BDF91CF911F910F91FF90EF90CB
:100160000895FC0181E08183CF0140E021E00E94FD
:10017000D07C0895EF92FF920F931F93CF93DF935C
:100180008C01FC01138286A9882321F0C801C39643
:100190000E94344327EAE22E21E0F22EE00EF11E07
:1001A000C70160E045E30E94DE40882309F5EDE9E0
:1001B000F2E1949108C08091C00085FFFCCF90933C
:1001C000C600319694919923B1F7E1E8F4E1949156
:1001D00008C08091C00085FFFCCF9093C600319687
:1001E00094919923B1F78091C00085FFFCCF7DC029
:1001F000E801C455DE4FCE01B70141E00E94D84B63
:10020000882341F5CE01B70140E00E94D84B8823F6
:1002100009F5EDECF2E1949108C08091C00085FFF2
:10022000FCCF9093C600319694919923B1F7EEE6F6
:10023000F4E1949108C08091C00085FFFCCF9093B9
:10024000C600319694919923B1F78091C00085FF43
:10025000FCCF4BC0C801C396BE010E94354688231F
:1002600009F5EDECF2E1949108C08091C00085FFA2
:10027000FCCF9093C600319694919923B1F7EEE5A7
:10028000F4E1949108C08091C00085FFFCCF909369
:10029000C600319694919923B1F78091C00085FFF3
:1002A000FCCF23C081E0F8018383EDE9F2E1949172
:1002B00008C08091C00085FFFCCF9093C6003196A6
:1002C00094919923B1F7E3E5F4E1949108C080910A
:1002D000C00085FFFCCF9093C6003196949199237E
:1002E000B1F78091C00085FFFCCF8AE08093C60003
:1002F000D801AC5ABF4FF801F3968BE101900D92F3
:100300008150E1F7F80181A992A90E5A1F4FF80117
:100310009183808302551040C8018F96025B1F4F66
:10032000F80191838083DF91CF911F910F91FF900E
:10033000EF9008952F923F924F925F926F927F922B
:100340009F92AF92BF92CF92DF92EF92FF920F9364
:100350001F93DF93CF93CDB7DEB7CC55D0400FB608
:10036000F894DEBF0FBECDBF6C01662311F527E800
:1003700032E0C20ED31ED6018C91E9E7FDEFCE0E1E
:10038000DF1E882309F4E2C02FE732E0C20ED31E3D
:10039000D601ED90FD900D911C91E1E8FDEFCE0EA0
:1003A000DF1E0E940014E616F7060807190708F476
:1003B000CDC027E832E0C20ED31ED6011C92E9E779
:1003C000FDEFCE0EDF1ED60113968C91882341F4EB
:1003D000C6010E94BA80F6018381882309F4B6C061
:1003E00000D000D0EDB7FEB731967E010894E11C35
:1003F000F11CADB7BEB71296FC92EE92119784EC49
:1004000092E193838283D6019D968D919C919E97D4
:10041000958384830E9417118701EDB7FEB7369646
:100420000FB6F894FEBF0FBEEDBF570108C0D8014C
:100430008C9190E00E94BDD1F80181938F01F5016C
:1004400001900020E9F73197EA19FB09802F8E19F6
:100450008E176CF363E3A62EB12CAC0CBD1CC5014A
:1004600040E050E060E070E00E941A4299245DE3B1
:10047000E52EF12CEC0EFD1E2E010894411C511CA2
:100480004FE1642E712C6C0E7D1E3DEB232E32E16C
:10049000332E42C0D8018C9190E00E94BDD1F8016A
:1004A00081938F01F70101900020E9F73197EE1950
:1004B000FF09802F8E198E176CF327968FAD279723
:1004C0008E3751F1C701B20145E050E00E94FA10A9
:1004D000009711F500D000D0EDB7FEB73196ADB75B
:1004E000BEB712967C926E92119733822282558209
:1004F00044820E941711EDB7FEB736960FB6F894F6
:10050000FEBF0FBEEDBFC3010E94423C89EB92E1EA
:100510000E94C93B99249394C501B70140E050E083
:100520000E945145181614F48701BCCF992041F45C
:100530008FEF9FEFD6019E969C938E939D9706C05A
:10054000F60185A596A5019696A785A7C45ADF4F03
:100550000FB6F894DEBF0FBECDBFCF91DF911F91D4
:100560000F91FF90EF90DF90CF90BF90AF909F9052
:100570007F906F905F904F903F902F9008952F92B3
:100580003F924F925F926F927F928F929F92AF9223
:10059000BF92CF92DF92EF92FF920F931F93DF9360
:1005A000CF93CDB7DEB7CF58D0400FB6F894DEBFAB
:1005B0000FBECDBF8C013B016A0184E090E0C80E04
:1005C000D91EF8017196C757DF4FF983E883C958E0
:1005D000D040C8010496CA57DF4F99838883C65814
:1005E000D040C857DF4F1882C858D040B6E6EB2E2F
:1005F000F12CEC0EFD1EF7013B96C557DF4FF9833A
:10060000E883CB58D040A8E88A2EA2E09A2E800E2C
:10061000911EF9E8AF2EF2E0BF2EA00EB11EEEE063
:100620002E2E312C2C0E3D1E77E4472E512C4C0ED5
:100630005D1EC2010496C357DF4F99838883CD584E
:10064000D040EDE9F2E19491C157DF4F9883CF5844
:10065000D04049C1F7018385282F30E0A9014871B6
:1006600050704031510509F04CC1F4019081913036
:1006700009F447C1923009F444C1F701DE01119633
:100680009081903239F08E2F8E19883011F48EE2DD
:100690008D939D933196C557DF4F88819981CB58B3
:1006A000D040E817F90761F71C921E86F30180819C
:1006B000882329F4C10162E273E00E94DD10C101C8
:1006C000B3010E94DD10C101BE016F5F7F4F0E9428
:1006D000DD10C10162E273E00E94DD101CA61FA6BE
:1006E0001BA61AA683EE93E099A788A7CE018C9645
:1006F000B601AE014F5F5F4F21E00E94414A88235F
:1007000009F03EC0F40180818823D1F5C157DF4F45
:100710009881CF58D040EDE9F2E108C08091C00047
:1007200085FFFCCF9093C600319694919923B1F741
:10073000E4E2F3E007C08091C00085FFFCCF319672
:100740009093C60090819923B1F78091C00085FFF6
:10075000FCCFFAE0F093C600FE01319607C080910D
:10076000C00085FFFCCF31969093C60090819923FD
:10077000B1F78091C00085FFFCCF8AE08093C6006E
:10078000C357DF4FA881B981CD58D040FE01BC9638
:100790008BE101900D928150E1F78AA59BA5F201B2
:1007A0009383828383EE93E091838083C801B101B8
:1007B000A2010E94BF82C2010E944879CE018896A0
:1007C0000E94487990C0953E09F48DC09E3209F48C
:1007D0008AC09F3509F487C0F8019189992331F0C7
:1007E0009E3209F480C09F3509F47DC023FD7BC093
:1007F00080E04031510509F481E0F80184A78823A5
:1008000049F4F7018085873409F06DC081858E3702
:1008100009F469C0CA57DF4FA881B981C658D040D2
:10082000F7018081803241F08E2F8E19883011F4CB
:100830008EE28D9380818D933196C557DF4F8881ED
:100840009981CB58D040E817F90759F71C92F40169
:100850008081882329F5F30107C08091C00085FFBE
:10086000FCCF31969093C60090819923B1F7CA5777
:10087000DF4FE881F981C658D04007C08091C000A1
:1008800085FFFCCF31969093C60090819923B1F7F4
:100890008091C00085FFFCCFFAE0F093C60023C032
:1008A000813039F4F50180819181019691838083B3
:1008B0001AC08230C1F4C857DF4FF881C858D04001
:1008C0002F2F30E0F5018081918128173907F1F051
:1008D000C857DF4FF881C858D040FF5FC857DF4F77
:1008E000F883C858D040C601B701C757DF4F4881C9
:1008F0005981C958D0400E94514518160CF4AACE0F
:1009000005C0F7019081992309F05DCFC157DF4FF2
:100910000FB6F894DEBF0FBECDBFCF91DF911F9110
:100920000F91FF90EF90DF90CF90BF90AF909F908E
:100930008F907F906F905F904F903F902F90089591
:10094000EF92FF920F931F93DF93CF93CDB7DEB754
:100950006F970FB6F894DEBF0FBECDBF7C018C0140
:10096000025B1F4F805B9F4FF8019183808328E8D3
:1009700032E0E20EF31E21E0F70121937F011182A4
:10098000108227E73DEFE20EF31E049640E050E0B0
:1009900060E070E00E941A42F80120813181DE019E
:1009A0001596F90134968BE101900D928150E1F793
:1009B000F901828193819C838B8383EE93E09A83F8
:1009C0008983C70167E373E08E010F5F1F4FA801A2
:1009D0000E94BF82C8010E944879F701E757FD4F86
:1009E000808191816F960FB6F894DEBF0FBECDBFA8
:1009F000CF91DF911F910F91FF90EF900895EF92AB
:100A0000FF920F931F93DF93CF93CDB7DEB76F970E
:100A10000FB6F894DEBF0FBECDBF7C018C01025B28
:100A20001F4F805B9F4FF8019183808328E832E05D
:100A3000E20EF31E22E0F701208328E73DEFE20EED
:100A4000F31EF701E757FD4F60831182049640E0E3
:100A500050E060E070E00E941A42F801208131818C
:100A6000DE011596F90134968BE101900D928150CB
:100A7000E1F7F901828193819C838B8383EE93E07C
:100A80009A838983C70167E373E08E010F5F1F4F6D
:100A9000A8010E94BF82C8010E9448796F960FB6D4
:100AA000F894DEBF0FBECDBFCF91DF911F910F91A4
:100AB000FF90EF900895EF92FF920F931F93DF93B3
:100AC000CF93CDB7DEB76F970FB6F894DEBF0FBEEA
:100AD000CDBF7C0188E892E0E80EF91EF701108294
:100AE00088E79DEFE80EF91E87010D5C1F4FC801D6
:100AF00040E050E060E070E00E941A42DE0115968E
:100B0000F8018BE101900D928150E1F7F70181A985
:100B100092A99C838B8383EE93E09A838983C70198
:100B200067E373E08E010F5F1F4FA8010E94BF8231
:100B3000C8010E9448796F960FB6F894DEBF0FBEC9
:100B4000CDBFCF91DF911F910F91FF90EF9008954E
:100B50000F931F93CF93DF93DC01D3961C92D3970F
:100B6000D6961C92D697D2961C921E92D19783EE5F
:100B700093E0D0969C938E939F97AC5ABF4F1C9254
:100B800013961C92A755B040FD01E05BFF4FAE5A93
:100B9000BF4F11961C921E92A255B0409183808344
:100BA000ED01C159DF4FFE0120E030E0482F1482F3
:100BB00017821382128240839183215E3F4F7F967A
:100BC00081E02633380799F7A855BE4F89E18C9309
:100BD00013961C9258961C921B961C9213961C926C
:100BE000A15DB140FD01E653FE4FA453BE4F1196E7
:100BF0001C921E9240839183A155BF4F1D921D925E
:100C00001D921C92139718961D921D921D921C9274
:100C10001397A358B24012961C92129713961C92E7
:100C200013971C9211961C9211978D0101581D4F1C
:100C3000F8011082118212821382AB55BE4F1196B9
:100C40001C921E92AC5BBF4F1C92FE01C901119217
:100C50000197E9F7A256BF4F81E08C93A758B240A5
:100C60009E961C921E929D970E94001468577C4E7F
:100C70008F4F9F4FF8016083718382839383DF914D
:100C8000CF911F910F910895DF93CF93CDB7DEB72A
:100C90002A970FB6F894DEBF0FBECDBF8091380300
:100CA00090913903A0913A03B0913B038B839C83CD
:100CB000AD83BE83FE01339624E630E08081F9994E
:100CC000FECF1FBA32BD21BD80BD0FB6F894FA9A8F
:100CD000F99A0FBE2F5F3F4F2836310511F031963C
:100CE000EDCFEFEBFBE08081F999FECF1FBA32BD6B
:100CF00021BD80BD0FB6F894FA9AF99A0FBE2F5F06
:100D00003F4F2837310511F03196EDCFEFEAFBE088
:100D10008081F999FECF1FBA32BD21BD80BD0FB6CB
:100D2000F894FA9AF99A0FBE2F5F3F4F2838310591
:100D300011F03196EDCFEFECFBE08081F999FECF19
:100D40001FBA32BD21BD80BD0FB6F894FA9AF99A48
:100D50000FBE2F5F3F4F2839310511F03196EDCF8F
:100D6000E3EEFBE08081F999FECF1FBA32BD21BDD1
:100D700080BD0FB6F894FA9AF99A0FBE2F5F3F4FD5
:100D80002C39310511F03196EDCFE7EEFBE0808193
:100D9000F999FECF1FBA32BD21BD80BD0FB6F894C0
:100DA000FA9AF99A0FBE2F5F3F4F203A310511F0A2
:100DB0003196EDCFEFEDFBE08081F999FECF1FBAC0
:100DC00032BD21BD80BD0FB6F894FA9AF99A0FBED4
:100DD0002F5F3F4F243A310511F03196EDCFE7EF09
:100DE000FBE08081F999FECF1FBA32BD21BD80BDE5
:100DF0000FB6F894FA9AF99A0FBE2F5F3F4F283A30
:100E0000310511F03196EDCFEBEAFBE08081F999E5
:100E1000FECF1FBA32BD21BD80BD0FB6F894FA9A3D
:100E2000F99A0FBE2F5F3F4F2C3A310511F03196E2
:100E3000EDCFEBEEFBE08081F999FECF1FBA32BD1A
:100E400021BD80BD0FB6F894FA9AF99A0FBE2F5FB4
:100E50003F4F203B310511F03196EDCFEFEEFBE037
:100E60008081F999FECF1FBA32BD21BD80BD0FB67A
:100E7000F894FA9AF99A0FBE2F5F3F4F243B310541
:100E800011F03196EDCFE3EFFBE08081F999FECFD1
:100E90001FBA32BD21BD80BD0FB6F894FA9AF99AF7
:100EA0000FBE2F5F3F4F283B310511F03196EDCF3C
:100EB000E6E2F7E08081F999FECF1FBA32BD21BD8D
:100EC00080BD0FB6F894FA9AF99A0FBE2F5F3F4F84
:100ED000243C310511F03196EDCFEDECF1E180814C
:100EE000F999FECF1FBA32BD21BD80BD0FB6F8946F
:100EF000FA9AF99A0FBE2F5F3F4F263C310511F049
:100F00003196EDCFEFECF1E18081F999FECF1FBA78
:100F100032BD21BD80BD0FB6F894FA9AF99A0FBE82
:100F20002F5F3F4F283C310511F03196EDCFE1EDB9
:100F3000F1E18081F999FECF1FBA32BD21BD80BD9C
:100F40000FB6F894FA9AF99A0FBE2F5F3F4F2A3CDA
:100F5000310511F03196EDCFE3EDF1E18081F999A2
:100F6000FECF1FBA32BD21BD80BD0FB6F894FA9AEC
:100F7000F99A0FBE2F5F3F4F2C3C310511F031968F
:100F8000EDCFE5EDF1E18081F999FECF1FBA32BDD9
:100F900021BD80BD0FB6F894FA9AF99A0FBE2F5F63
:100FA0003F4F2E3C310511F03196EDCFE7EDF1E1E9
:100FB0008081F999FECF1FBA32BD21BD80BD0FB629
:100FC000F894FA9AF99A0FBE2F5F3F4F203D3105F2
:100FD00011F03196EDCFE5E7F3E08081F999FECF8E
:100FE0001FBA32BD21BD80BD0FB6F894FA9AF99AA6
:100FF0000FBE2F5F3F4F243D310511F03196EDCFED
:10100000E9E7F3E08081F999FECF1FBA32BD21BD37
:1010100080BD0FB6F894FA9AF99A0FBE2F5F3F4F32
:10102000283D310511F03196EDCFEDE7F3E08081F9
:10103000F999FECF1FBA32BD21BD80BD0FB6F8941D
:10104000FA9AF99A0FBE2F5F3F4F2C3D310511F0F0
:101050003196EDCF80E290E09A838983FE0131964C
:101060008081F999FECF1FBA32BD21BD80BD0FB678
:10107000F894FA9AF99A0FBE2D3D310521F0319678
:101080002DED30E0EDCF80913C0390913D03A09198
:101090003E03B0913F038F839887A987BA87FE01EB
:1010A000379684E690E02081F999FECF1FBA92BD71
:1010B00081BD20BD0FB6F894FA9AF99A0FBE873613
:1010C000910519F001963196EECFEEE8F4E1949196
:1010D00008C08091C00085FFFCCF9093C600319678
:1010E00094919923B1F7E8E9F6E1949108C08091D1
:1010F000C00085FFFCCF9093C60031969491992350
:10110000B1F78091C00085FFFCCF8AE08093C600D4
:101110002A960FB6F894DEBF0FBECDBFCF91DF91F8
:101120000895DF93CF93CDB7DEB7E0970FB6F8946D
:10113000DEBF0FBECDBFDE011196EAE0F4E080E134
:1011400001900D928150E1F7DE015196EAEFF3E054
:1011500080E101900D928150E1F7DE019196EAEE77
:10116000F3E080E101900D928150E1F789819A814D
:10117000AB81BC818093BF0B9093C00BA093C10B3C
:10118000B093C20B89899A89AB89BC898093AF0BD4
:101190009093B00BA093B10BB093B20B89A19AA11D
:1011A000ABA1BCA18093CF0B9093D00BA093D10B9C
:1011B000B093D20B8D819E81AF81B8858093C30B94
:1011C0009093C40BA093C50BB093C60B8D899E89D9
:1011D000AF89B88D8093B30B9093B40BA093B50BEC
:1011E000B093B60B8DA19EA1AFA1B8A58093D30BF0
:1011F0009093D40BA093D50BB093D60B89859A8589
:10120000AB85BC858093C70B9093C80BA093C90B8B
:10121000B093CA0B898D9A8DAB8DBC8D8093B70B23
:101220009093B80BA093B90BB093BA0B89A59AA56C
:10123000ABA5BCA58093D70B9093D80BA093D90BEB
:10124000B093DA0B8D859E85AF85B8898093CB0BE3
:101250009093CC0BA093CD0BB093CE0B8D8D9E8D28
:10126000AF8DB8A18093BB0B9093BC0BA093BD0B2B
:10127000B093BE0B8DA59EA5AFA5B8A98093DB0B3F
:101280009093DC0BA093DD0BB093DE0B0E94A45374
:1012900080E090E0AAE7B5E48093E30B9093E40B41
:1012A000A093E50BB093E60B80E090E8ABE3B5E4E8
:1012B0008093E70B9093E80BA093E90BB093EA0BB4
:1012C00020E030E040E050E02093DF0B3093E00B73
:1012D0004093E10B5093E20B80E29EE4A0E0B0E08B
:1012E0008093AB0B9093AC0BA093AD0BB093AE0B74
:1012F0002093F70B3093F80B4093F90B5093FA0BB4
:1013000080E090E0A0EAB1E48093EB0B9093EC0BCB
:10131000A093ED0BB093EE0B8DEC9CECACECBEE32C
:101320008093EF0B9093F00BA093F10BB093F20B23
:1013300080E090E0A0EAB0E48093F30B9093F40B8C
:10134000A093F50BB093F60B20932E0730932F0745
:10135000409330075093310720932A0730932B078F
:1013600040932C0750932D0720932607309327078F
:10137000409328075093290782ED90E09093CE1177
:101380008093CD1186E490E09093D0118093CF119B
:101390001092D2111092D1118AEF90E09093D41153
:1013A0008093D31184E690E09093D6118093D51169
:1013B0001092D8111092D7118AE999E9A1EBB1E402
:1013C0008093750390937603A0937703B09378038B
:1013D00061E77DE38AE89FE30E946B6E6093790387
:1013E00070937A0380937B0390937C0360E070E0BA
:1013F00084EE92E40E94796E60937D0370937E0385
:1014000080937F03909380030E94336E80E090E08E
:10141000A0E8BFE38093810390938203A0938303AA
:10142000B0938403EEE8F4E1949108C08091C00089
:1014300085FFFCCF9093C600319694919923B1F724
:10144000E4E9F4E1949108C08091C00085FFFCCFED
:101450009093C600319694919923B1F78091C00082
:1014600085FFFCCF8AE08093C600E0960FB6F89423
:10147000DEBF0FBECDBFCF91DF910895CF93DF9335
:10148000CEE8D4E1FE01949108C08091C00085FFB0
:10149000FCCF9093C600319694919923B1F7E8E878
:1014A000F6E1949108C08091C00085FFFCCF909335
:1014B000C600319694919923B1F78091C00085FFC1
:1014C000FCCF8AE08093C600FE019491EEE8F4E13F
:1014D00008C08091C00085FFFCCF9093C600319674
:1014E00094919923B1F74091BF0B5091C00B60913B
:1014F000C10B7091C20B80E896E10E94AA1D409139
:10150000C30B5091C40B6091C50B7091C60B8DE756
:1015100096E10E94AA1D4091C70B5091C80B6091A3
:10152000C90B7091CA0B8AE796E10E94AA1D4091EF
:10153000CB0B5091CC0B6091CD0B7091CE0B87E70C
:1015400096E10E94AA1DE0E4F3E007C08091C0008C
:1015500085FFFCCF31969093C60090819923B1F717
:101560008091C00085FFFCCF8AE08093C600FE0119
:101570009491EEE8F4E108C08091C00085FFFCCFB3
:101580009093C600319694919923B1F7EDE5F6E179
:10159000949108C08091C00085FFFCCF9093C60055
:1015A000319694919923B1F78091C00085FFFCCFCB
:1015B0008AE08093C600FE019491EEE8F4E108C051
:1015C0008091C00085FFFCCF9093C6003196949126
:1015D0009923B1F74091AF0B5091B00B6091B10BD3
:1015E0007091B20B84E596E10E94AA1D4091B30B65
:1015F0005091B40B6091B50B7091B60B81E596E1FB
:101600000E94AA1D4091B70B5091B80B6091B90B85
:101610007091BA0B8EE496E10E94AA1D4091BB0B1B
:101620005091BC0B6091BD0B7091BE0B8BE496E1A9
:101630000E94AA1DE0E4F3E007C08091C00085FF8E
:10164000FCCF31969093C60090819923B1F7809199
:10165000C00085FFFCCF8AE08093C600FE01949114
:10166000EEE8F4E108C08091C00085FFFCCF9093C4
:10167000C600319694919923B1F7EDE2F6E1949189
:1016800008C08091C00085FFFCCF9093C6003196C2
:1016900094919923B1F78091C00085FFFCCF8AE037
:1016A0008093C600FE019491EEE8F4E108C08091B9
:1016B000C00085FFFCCF9093C6003196949199238A
:1016C000B1F74091CF0B5091D00B6091D10B70913D
:1016D000D20B84E296E10E94BE1D4091D30B509143
:1016E000D40B6091D50B7091D60B81E296E10E94EC
:1016F000BE1D4091D70B5091D80B6091D90B7091C2
:10170000DA0B8EE196E10E94BE1D4091DB0B5091F9
:10171000DC0B6091DD0B7091DE0B8BE196E10E949A
:10172000BE1DE0E4F3E007C08091C00085FFFCCF60
:1017300031969093C60090819923B1F78091C000B3
:1017400085FFFCCF8AE08093C600FE019491EEE80D
:10175000F4E108C08091C00085FFFCCF9093C600E3
:10176000319694919923B1F7E6EEF5E1949108C092
:101770008091C00085FFFCCF9093C6003196949174
:101780009923B1F78091C00085FFFCCF8AE0809358
:10179000C600FE019491EEE8F4E108C08091C0001B
:1017A00085FFFCCF9093C600319694919923B1F7B1
:1017B0004091E30B5091E40B6091E50B7091E60BC7
:1017C0008DED95E10E94AA1D4091E70B5091E80B29
:1017D0006091E90B7091EA0B8AED95E10E94AA1DD8
:1017E000E0E4F3E007C08091C00085FFFCCF3196B4
:1017F0009093C60090819923B1F78091C00085FF36
:10180000FCCF8AE08093C600FE019491EEE8F4E1FB
:1018100008C08091C00085FFFCCF9093C600319630
:1018200094919923B1F7E7E2F5E1949108C0809192
:10183000C00085FFFCCF9093C60031969491992308
:10184000B1F78091C00085FFFCCF8AE08093C6008D
:10185000FE019491EEE8F4E108C08091C00085FF9C
:10186000FCCF9093C600319694919923B1F74091A3
:10187000DF0B5091E00B6091E10B7091E20B8EE178
:1018800095E10E94AA1D4091F70B5091F80B6091D1
:10189000F90B7091FA0B8BE195E10E94AA1D409122
:1018A000AB0B5091AC0B6091AD0B7091AE0B88E11E
:1018B00095E10E94BE1D4091EB0B5091EC0B6091A5
:1018C000ED0B7091EE0B85E195E10E94AA1D409110
:1018D000EF0B5091F00B6091F10B7091F20B82E1E4
:1018E00095E10E94AA1D4091F30B5091F40B609179
:1018F000F50B7091F60B8FE095E10E94AA1DE0E4D4
:10190000F3E007C08091C00085FFFCCF3196909333
:10191000C60090819923B1F78091C00085FFFCCF6C
:101920008AE08093C600FE019491EEE8F4E108C0DD
:101930008091C00085FFFCCF9093C60031969491B2
:101940009923B1F7EDEFF4E1949108C08091C000C4
:1019500085FFFCCF9093C600319694919923B1F7FF
:101960008091C00085FFFCCF8AE08093C600FE0115
:101970009491EEE8F4E108C08091C00085FFFCCFAF
:101980009093C600319694919923B1F74091260720
:1019900050912707609128077091290784EF94E1FF
:1019A0000E94AA1D40912A0750912B0760912C0795
:1019B00070912D0781EF94E10E94AA1D40912E079E
:1019C00050912F0760913007709131078EEE94E1AE
:1019D0000E94AA1DE0E4F3E007C08091C00085FFEB
:1019E000FCCF31969093C60090819923B1F78091F6
:1019F000C00085FFFCCF8AE08093C600FE01949171
:101A0000EEE8F4E108C08091C00085FFFCCF909320
:101A1000C600319694919923B1F7E0EEF4E19491E8
:101A200008C08091C00085FFFCCF9093C60031961E
:101A300094919923B1F78091C00085FFFCCF8AE093
:101A40008093C600FE019491EEE8F4E108C0809115
:101A5000C00085FFFCCF9093C600319694919923E6
:101A6000B1F74091750350917603609177037091BF
:101A7000780386ED94E10E94AA1D6091790370912C
:101A80007A0380917B0390917C030E94726EAB017C
:101A9000BC0183ED94E10E94AA1D60917D037091C9
:101AA0007E0380917F03909180030E94806EAB0142
:101AB000BC0180ED94E10E94AA1DE0E4F3E007C0C0
:101AC0008091C00085FFFCCF31969093C600908135
:101AD0009923B1F78091C00085FFFCCF8AE0809305
:101AE000C600DF91CF9108950F931F93DF93CF939B
:101AF000CDB7DEB72A970FB6F894DEBF0FBECDBFC5
:101B000080913C0390913D03A0913E03B0913F032F
:101B10008F839887A987BA87FE01339604E610E081
:101B2000F999FECF12BD01BDF89A80B580830F5F91
:101B30001F4F0836110511F03196F2CFCE010796EE
:101B4000BE016D5F7F4F43E050E00E94FA100097A6
:101B500009F088C1EFEBFBE0F999FECF12BD01BDA2
:101B6000F89A80B580830F5F1F4F0837110511F079
:101B70003196F2CFEFEAFBE0F999FECF12BD01BD3D
:101B8000F89A80B580830F5F1F4F0838110511F058
:101B90003196F2CFEFECFBE0F999FECF12BD01BD1B
:101BA000F89A80B580830F5F1F4F0839110511F037
:101BB0003196F2CF0E94A453E3EEFBE0F999FECFF9
:101BC00012BD01BDF89A80B580830F5F1F4F0C399D
:101BD000110511F03196F2CFE7EEFBE0F999FECF57
:101BE00012BD01BDF89A80B580830F5F1F4F003A88
:101BF000110511F03196F2CFEFEDFBE0F999FECF30
:101C000012BD01BDF89A80B580830F5F1F4F043A63
