:100000000C94D90D0C94E1160C9412170C94431710
:100010000C9474170C94A5170C94D6170C9407180D
:100020000C9438180C94060E0C94060E0C94060EC4
:100030000C94060E0C94C6920C94060E0C94060EAC
:100040000C94060E0C942A680C94060E0C94060E62
:100050000C94060E0C94060E0C94F2700C94D013B3
:100060000C94060E0C94583E0C94060E0C94060E3E
:100070000C94060E0C94060E0C94060E0C94060EB0
:100080000C94060E0C94060E0C94060E0C94060EA0
:100090000C94060E0C94060E0C94060E0C94060E90
:1000A0000C94060E0C94060E0C94060E0C94060E80
:1000B0000C94060E0C94060E0C94060E0C94060E70
:1000C0000C94060E0C94060E0C94060E0C94060E60
:1000D0000C94060E0C94060E0C94060E0C94060E50
:1000E0000C94060E084AD73B3BCE016E84BCBFFD84
:1000F000C12F3D6C74319ABD56833DDA3D00C77FF8
:1001000011BED9E4BB4C3E916BAAAABE0000008090
:100110003F05A84CCDB2D44EB93836A9020C50B91F
:10012000918688083CA6AAAA2ABE000000803F004B
:10013000002100240027002A002D00300033000198
:10014000010000040107010A010000220025002827
:10015000002B002E003100340002010000050108D0
:10016000010B01000020002300260029002C002F95
:100170000032000001000003010601090105050528
:1001800005070508080808020202020A0A0808040E
:10019000040404010101010101010103030303033C
:1001A000030303040707070C0C0C0C0C0C0C0C02CB
:1001B00002020206060606060606060B0B0B0B0BD2
:1001C0000B0B0B01021020200808102040102040CB
:1001D000800201020108040201010204081020400B
:1001E0008080402010080402018004020180402029
:1001F0001008040201080402010102040810204052
:100200008001020408102040800000090A02080B47
:100210000C0D0706030401000000000000000000B0
:1002200000000000000000000000000000000000CE
:10023000000000000011100F00000000000000008E
:100240000000000000000000000000000000006549
:1002500063686F3A004572726F723A0053544F50A0
:100260005045442E20005072696E7465722073747C
:100270006F707065642064756520746F206572729C
:100280006F72732E204669782074686520657272DB
:100290006F7220616E6420757365204D3939392085
:1002A000746F20726573746172742E202854656DAA
:1002B000706572617475726520697320726573650B
:1002C000742E2053657420697420616674657220F1
:1002D00072657374617274696E6729004B494C4C86
:1002E00045442E20005072696E7465722068616CFE
:1002F0007465642E206B696C6C28292063616C6CBA
:10030000656421006F6B00526573656E643A20006E
:100310002200556E6B6E6F776E20636F6D6D616E30
:10032000643A2022004368616E67652066696C61EB
:100330006D656E7400486F74656E64206F666673D9
:100340006574733A007A5F6D61783A20007A5F6D68
:10035000696E3A2000795F6D61783A2000795F6DAF
:10036000696E3A2000785F6D61783A2000785F6DA1
:10037000696E3A20005A3A00593A0020436F756E70
:100380007420583A2000453A005A3A00593A005829
:100390003A004649524D574152455F4E414D453A0C
:1003A0004D61726C696E2056313B20537072696EDC
:1003B0007465722F6772626C206D6173687570204E
:1003C000666F722067656E36204649524D5741521E
:1003D000455F55524C3A687474703A2F2F666972B3
:1003E0006D776172652E756C74696D616B65722EC7
:1003F000636F6D2050524F544F434F4C5F564552E0
:1004000053494F4E3A312E30204D414348494E45D5
:100410005F545950453A556C74696D616B65722033
:1004200045585452554445525F434F554E543A3205
:1004300020555549443A30303030303030302D304E
:100440003030302D303030302D303030302D3030B5
:10045000303030303030303030300A00556C746914
:100460006D616B6572204F66662E00556C74696D08
:10047000616B65722052656164792E00426564206B
:10048000646F6E652E0020423A0020453A00543ACF
:10049000004265642048656174696E672E00486596
:1004A0006174696E6720646F6E652E0020573A0094
:1004B00020453A00543A0048656174696E672E2EF3
:1004C0002E002042403A0020403A00202F003A00FF
:1004D000205400202F0020423A00202F006F6B2074
:1004E000543A002569206D696E2C202569207365BA
:1004F0006300456E642066696C65206C69737400E6
:10050000426567696E2066696C65206C697374006A
:100510004E6F206D6F76652E00526573756D696E36
:1005200067207072696E74005761697420666F721B
:1005300020757365722E2E2E00536C6565702E2EFD
:100540002E0000004D4300004D4300004843FFFFD4
:10055000FF0000000000000000000000000000009C
:1005600000000000000000000000004D4300004DAE
:1005700043000048430000A0400000A0400000806D
:100580003F256920686F757273202569206D696E3B
:100590007574657300446F6E65207072696E74695E
:1005A0006E672066696C650053544F505045442E69
:1005B00020005072696E7465722073746F7070657C
:1005C000642064756520746F206572726F72732E7B
:1005D0002046697820746865206572726F722061A8
:1005E0006E6420757365204D39393920746F20721F
:1005F0006573746172742E202854656D7065726124
:10060000747572652069732072657365742E20534A
:1006100065742069742061667465722072657374F4
:10062000617274696E6729006F6B004E6F204C69B0
:100630006E65204E756D62657220776974682063FF
:100640006865636B73756D2C204C617374204C6905
:100650006E653A20004E6F20436865636B73756D5D
:100660002077697468206C696E65206E756D6265AF
:10067000722C204C617374204C696E653A200063C3
:100680006865636B73756D206D69736D6174636804
:100690002C204C617374204C696E653A20004C69C3
:1006A0006E65204E756D626572206973206E6F7481
:1006B000204C617374204C696E65204E756D6265C7
:1006C000722B312C204C617374204C696E653A207A
:1006D000004D31313000446F6E6520736176696E74
:1006E000672066696C652E006F6B004D3239002003
:1006F00020506C616E6E65724275666665724279F5
:100700007465733A20002046726565204D656D6FF3
:1007100072793A200044656320313620323031331B
:1007200000436F6D70696C65643A200028446176FF
:10073000696420427261616D2900207C20417574DA
:10074000686F723A200044656320313620323031C0
:10075000332031353A33343A333100204C617374ED
:1007600020557064617465643A2000556C74696D3D
:10077000616B65723A2031332E31322028313135A8
:100780003230305F6475616C29004D61726C696E46
:10079000200020536F66747761726520526573651F
:1007A0007400205761746368646F672052657365D5
:1007B00074002042726F776E206F757420526573DB
:1007C0006574002045787465726E616C20526573A3
:1007D000657400506F776572557000737461727440
:1007E000002200656E717565696E67202200220027
:1007F000656E717565696E672022007C3C3E5E2BDC
:100800003D3F2F5B5D3B2C2A225C006563686F3A9D
:100810000020746F6F206C6F6E672065787472753E
:1008200073696F6E2070726576656E746564002002
:10083000636F6C6420657874727573696F6E207075
:10084000726576656E7465640045313A2000453006
:100850003A20005A3A2000593A2000583A20004DD8
:1008600053312C4D53322050696E730A0024F40426
:10087000D9201BC40C5C0E9804C4095F0265077183
:1008800001F405F900FB04B30048048700C10369C3
:10089000005803550003034500BE023A00840231AC
:1008A0000053022A002902250004022000E4011C52
:1008B00000C8011900AF011700980114008401134A
:1008C00000710110006101100051010E0043010D83
:1008D0000036010B002B010B0020010B0015010954
:1008E000000C01090003010800FB000800F30008E8
:1008F00000EB000700E4000600DE000600D800065A
:1009000000D2000600CC000500C7000500C20005AB
:1009100000BD000400B9000400B5000400B10004EB
:1009200000AD000400A9000400A5000300A200031C
:10093000009F0004009B0003009800030095000244
:100940000093000300900003008D0002008B000361
:10095000008800020086000200840003008100027B
:10096000007F0002007D0002007B0002007900028F
:10097000007700010076000200740002007200019E
:1009800000710002006F0002006D0001006C0002A7
:10099000006A0001006900020067000100660001B2
:1009A00000650001006400020062000100610001B6
:1009B00000600001005F0002005D0001005C0001BA
:1009C000005B0001005A00010059000100580001BD
:1009D00000570001005600010055000100540001BD
:1009E00000530000005300010052000100510001BB
:1009F00000500001004F0001004E0000004E0001B9
:100A0000004D0001004C0001004B0000004B0001B4
:100A1000004A0001004900010048000000480001B0
:100A200000470001004600000046000100450000AC
:100A300000450001004400010043000000430001A4
:100A4000004200000042000100410000004100019E
:100A500000400001003F0000003F0001003E000098
:100A6000003E0001003D0000003D0001003C000090
:100A7000003C0000003C0001003B0000003B000186
:100A8000003A0000003A000100390000003900017E
:100A90000038000000380000003800010037000076
:100AA000003700010036000000360000003600016B
:100AB0000035000000350000003500010034000062
:100AC0000034000000340001003300000033000057
:100AD000003300010032000000320000003200014B
:100AE0000031000000310000003100010030000042
:100AF0000030000000300001002F0000002F000037
:100B0000002F0000002F0001002E0000002E00002A
:100B1000002E0001002D0000002D0000002D00001F
:100B2000002D0001002C0000002C0000002C000013
:100B3000002C0001002B0000002B0000002B000007
:100B4000002B0001002A0000002A0000002A0000FB
:100B5000002A0001002900000029000000290000EF
:100B600000290000002900010028000000280000E2
:100B700000280000002800000028000100270000D5
:100B800000270000002700000027000000270001C8
:100B900000260000002600000026000000260000BD
:100BA00000260001002500000025000000250000AF
:100BB00000250000002500000025000100240000A1
:100BC0000024000000240000002400000024000194
:100BD0000023000000230000002300000023000089
:100BE0000023000000230000002300010022000079
:100BF000002200000022000000220000002200006D
:100C0000002200010021000000210000002100005E
:100C1000002100000021000000210000002100014F
:100C20000020000000200000002000000020000044
:100C30000020000000200000002000000020000133
:100C4000001F0000001F0000001F0000001F000028
:100C5000001F0000001F0000001F0001001E000018
:100C6000001E0000001E0000001E00000024F4D43E
:100C70003050C38E20C2A24017828B7011127A911D
:100C80000D816CD90AA861E108C758660761514314
:100C9000061E4B5D05C145A7041A411104093D9884
:100CA00003713931034036DB0265339102D430548D
:100CB00002802E1D02632CEE01752AC501B028A00A
:100CC00001102781018F2564012B244B01E0223480
:100CD00001AC211F018D200D01801FFC00841EED41
:100CE00000971DDF00B81CD200E61BC600201BBC0D
:100CF00000641AB200B219A8000A19A0006A189973
:100D000000D117910040178B00B516840031167E74
:100D100000B31579003A157300C7146F0058146AB0
:100D200000EE1366008813630025135E00C7125B94
:100D3000006C12570015125400C111510070114F70
:100D40000021114B00D61049008D10470046104479
:100D50000002104200C00F4000800F3E00420F3CD6
:100D600000060F3B00CB0E3800930E37005C0E35AB
:100D700000270E3400F30D3200C10D3100900D300C
:100D800000600D2E00320D2D00050D2C00D90C2B0E
:100D900000AE0C2900850C29005C0C2700350C27BF
:100DA000000E0C2600E80B2400C40B2400A00B232B
:100DB000007D0B23005A0B2100390B2100180B205A
:100DC00000F80A1F00D90A1E00BB0A1E009D0A1D5A
:100DD00000800A1D00630A1C00470A1B002C0A1B26
:100DE00000110A1A00F7091A00DD091900C40919CF
:100DF00000AB091900920917007B09180063091755
:100E0000004C09160036091600200916000A0915BB
:100E100000F5081500E0081400CC081400B8081408
:100E200000A4081400900813007D0812006B08133A
:100E30000058081200460812003408110023081157
:100E4000001208110001081100F0071000E007105F
:100E500000D0071000C0071000B0070F00A1071056
:100E60000091070E0083070F0074070F0065070E3F
:100E70000057070E0049070E003B070D002E070E16
:100E80000020070D0013070D0006070D00F9060CE2
:100E900000ED060D00E0060C00D4060C00C8060CA0
:100EA00000BC060C00B0060C00A4060B0099060C52
:100EB000008D060B0082060B0077060B006C060BFC
:100EC0000061060A0057060B004C060A0042060A9B
:100ED0000038060A002E060A0024060A001A060A2E
:100EE000001006090007060A00FD050900F40509BF
:100EF00000EB050900E2050900D9050900D0050944
:100F000000C7050900BE050900B5050800AD0508C4
:100F100000A50509009C050800940508008C05083B
:100F200000840508007C050800740508006C0507AE
:100F300000650508005D050700560508004E050719
:100F40000047050700400508003805070031050780
:100F5000002A050700230507001C050600160507E3
:100F6000000F0507000805060002050700FB040640
:100F700000F5040700EE040600E8040600E204079A
:100F800000DB040600D5040600CF040600C90406F1
:100F900000C3040600BD040600B7040600B1040542
:100FA00000AC040600A6040600A00405009B04068D
:100FB0000095040500900406008A040500850405D8
:100FC00000800406007A040500750405007004051D
:100FD000006B04050066040500610405005C04055F
:100FE0000057040500520405004D0405004804059F
:100FF00000430405003E0404003A040500350405DE
:1010000000300404002C0405002704040023040518
:10101000001E0404001A0404001604050011040450
:10102000000D040400090405000404040000040485
:1010300000FC030400F8030400F4030400F00304BC
:1010400000EC030400E8030400E4030400E00304EC
:1010500000DC030400D8030400D4030400D003041C
:1010600000CC030400C8030300C5030300656368E4
:101070006F3A00656E6473746F7073206869743AB8
:10108000205A00205A3A00656E6473746F707320A2
:101090006869743A20590020593A00656E64737487
:1010A0006F7073206869743A20580020583A0065C0
:1010B0006E6473746F7073206869743A20004572AF
:1010C000726F723A004572723A204D415854454D44
:1010D00050204245440054656D70657261747572AC
:1010E0006520686561746564206265642073776952
:1010F0007463686564206F66662E204D41585445C0
:101100004D50207472696767657265642021210003
:101110004572723A204D494E54454D50003A204593
:101120007874727564657220737769746368656436
:10113000206F66662E204D494E54454D50207472E6
:10114000696767657265642021004572723A204DB7
:10115000415854454D50003A204578747275646585
:1011600072207377697463686564206F66662E20E9
:101170004D415854454D50207472696767657265DA
:1011800064202100202D20496E76616C6964206501
:1011900078747275646572206E756D626572202157
:1011A000006563686F3A0048656174696E67206620
:1011B00061696C656400504944204175746F7475B1
:1011C0006E652066696E6973686564212050757468
:1011D00020746865204B702C204B6920616E642060
:1011E0004B6420636F6E7374616E747320696E74E8
:1011F0006F20436F6E66696775726174696F6E2EDA
:101200006800504944204175746F74756E6520669E
:1012100061696C6564212074696D656F7574002067
:10122000403A006F6B20543A006F6B20423A0050F6
:101230004944204175746F74756E65206661696CF0
:101240006564212054656D706572617475726520E6
:10125000746F6F206869676800204B643A20002033
:101260004B693A2000204B703A200020436C617398
:1012700069632050494420002054753A2000204BD7
:10128000753A2000206D61783A2000206D696E3A31
:10129000200020643A200020626961733A20004DEA
:1012A000383420582059205A2045006563686F3A29
:1012B0000043616E6E6F7420656E74657220737585
:1012C000626469723A20004D3234004D3233202579
:1012D00073006175746F25692E67004572726F72B5
:1012E0003A006572726F722077726974696E672056
:1012F000746F2066696C65004E6F742053442070D3
:1013000072696E74696E67002F00534420707269B1
:101310006E74696E67206279746520002E004465E2
:101320006C6574696F6E206661696C65642C20461B
:10133000696C653A200046696C652064656C65746B
:1013400065643A002E006F70656E206661696C6599
:10135000642C2046696C653A200057726974696E86
:101360006720746F2066696C653A20002E006F70EC
:10137000656E206661696C65642C2046696C653A0F
:1013800020002E006F70656E206661696C65642CAC
:101390002046696C653A200046696C652073656C6F
:1013A0006563746564002053697A653A2000466974
:1013B0006C65206F70656E65643A20002E006F705A
:1013C000656E206661696C65642C2046696C653ABF
:1013D00020004E6F772066726573682066696C65C1
:1013E0003A20004E6F7720646F696E672066696CE3
:1013F000653A20002220706F7300222070617265B0
:101400006E743A2200535542524F5554494E45206E
:1014100043414C4C207461726765743A22007472C7
:1014200079696E6720746F2063616C6C20737562DC
:101430002D67636F64652066696C657320776974D6
:101440006820746F6F206D616E79206C6576656CB5
:10145000732E204D4158206C6576656C2069733A77
:101460000053442063617264206F6B006F70656E7F
:10147000526F6F74206661696C656400766F6C757D
:101480006D652E696E6974206661696C65640053D0
:101490004420696E6974206661696C006563686FD9
:1014A0003A0048617264636F6465642044656661F4
:1014B000756C742053657474696E6773204C6F612A
:1014C0006465640053746F72656420736574746935
:1014D0006E67732072657472696576656400204476
:1014E000002049002020204D333031205000504949
:1014F000442073657474696E67733A00205A002043
:10150000590020204D323036205800486F6D65203C
:101510006F666673657420286D6D293A002045005A
:10152000205A0020580020420020540020204D3234
:101530003035205300416476616E636564207661C6
:10154000726961626C65733A20533D4D696E206625
:101550006565647261746520286D6D2F73292C2078
:10156000543D4D696E2074726176656C20666565C8
:10157000647261746520286D6D2F73292C20423DA3
:101580006D696E696D756D207365676D656E74202C
:1015900074696D6520286D73292C20583D6D617824
:1015A000696D756D205859206A65726B20286D6DC4
:1015B0002F73292C20205A3D6D6178696D756D203F
:1015C0005A206A65726B20286D6D2F73292C20209C
:1015D000453D6D6178696D756D2045206A65726B5A
:1015E00020286D6D2F73290020540020204D3230AB
:1015F00034205300416363656C65726174696F6E7A
:101600003A20533D616363656C65726174696F6E06
:101610002C20543D7265747261637420616363654C
:101620006C65726174696F6E00204500205A00205D
:10163000590020204D3230312058004D6178696DBD
:10164000756D20416363656C65726174696F6E20AE
:10165000286D6D2F7332293A00204500205A002052
:10166000590020204D3230332058004D6178696D8B
:10167000756D2066656564726174657320286D6D93
:101680002F73293A00204500205A002059002020BD
:101690004D39322058005374657073207065722084
:1016A000756E69743A0053657474696E677320537C
:1016B000746F72656400022D2D3A2D2D002D2D2D95
:1016C000005344002059000120000120004E6F20EB
:1016D00043617264005072696E742066726F6D208F
:1016E00053440053746F70205072696E74005265D9
:1016F00073756D65205072696E7400506175736505
:10170000205072696E7400436F6E74726F6C00507B
:101710007265706172650054756E6500496E666F22
:101720002073637265656E00052E2E004D61696E33
:10173000004D3234004D3233202573004D383420B3
:10174000582059205A2045004669726D77617265AC
:101750002076657273696F6E00526573746F72657F
:10176000204661696C73616665004C6F6164206D31
:10177000656D6F72790053746F7265206D656D6F62
:101780007279004D6F74696F6E0054656D7065728B
:101790006174757265004D61696E00446563203146
:1017A0003620323031332031353A33343A33370052
:1017B0003131353230305F6475616C00556C74695D
:1017C0006D616B65723A2031332E31320046697299
:1017D0006D776172652076657273696F6E0045730F
:1017E000746570732F6D6D004573746570732F6D24
:1017F0006D005A73746570732F6D6D005A73746544
:1018000070732F6D6D005973746570732F6D6D005B
:101810005973746570732F6D6D00587374657073B0
:101820002F6D6D005873746570732F6D6D00412DB1
:101830007265747261637400412D726574726163C4
:101840007400416D6178206500416D61782065000C
:10185000416D6178207A00416D6178207A00416D98
:101860006178207900416D6178207900416D61785F
:10187000207800416D61782078005654726176209E
:101880006D696E005654726176206D696E00566DFA
:10189000696E00566D696E00566D61782065005660
:1018A0006D6178206500566D6178207A00566D6113
:1018B00078207A00566D6178207900566D61782025
:1018C0007900566D6178207800566D617820780037
:1018D00056652D6A65726B0056652D6A65726B00E0
:1018E000567A2D6A65726B00567A2D6A65726B00A6
:1018F0005678792D6A65726B005678792D6A657213
:101900006B00416363656C00416363656C00436F0A
:101910006E74726F6C00507265686561742041422C
:101920005320436F6E660050726568656174205085
:101930004C4120436F6E66005049442D430050498E
:10194000442D43005049442D44005049442D440047
:101950005049442D49005049442D49005049442DD7
:1019600050005049442D500046616E2073706565EB
:10197000640046616E207370656564004E6F7A7A0C
:101980006C6532004E6F7A7A6C6532004E6F7A7AEF
:101990006C65004E6F7A7A6C6500436F6E74726F7F
:1019A0006C0053746F7265206D656D6F7279004EB7
:1019B0006F7A7A6C65004E6F7A7A6C650046616E5C
:1019C0002073706565640046616E207370656564A0
:1019D0000054656D70657261747572650053746F43
:1019E0007265206D656D6F7279004E6F7A7A6C65E5
:1019F000004E6F7A7A6C650046616E207370656583
:101A0000640046616E2073706565640054656D7096
:101A100065726174757265004D6F766520417869F5
:101A200073004D38300053776974636820506F77C6
:101A30006572204F6E004D383100537769746368CA
:101A400020506F776572204F666600436F6F6C643D
:101A50006F776E0050726568656174204142530073
:101A60005072656865617420504C410047323800FF
:101A70004175746F20486F6D65004D3834004469BE
:101A80007361626C65205374657070657273004D8C
:101A900061696E004D6F766520302E316D6D004DA1
:101AA0006F766520316D6D004D6F76652031306D3C
:101AB0006D0050726570617265004578747275646E
:101AC0006572004D6F7665205A004D6F766520591E
:101AD000004D6F76652058004D6F7665204178691E
:101AE00073004578747275646572005A0059005825
:101AF000004D363030004368616E67652066696C62
:101B0000616D656E7400466C6F7700466C6F770090
:101B100046616E2073706565640046616E20737067
:101B2000656564004E6F7A7A6C6532004E6F7A7A22
:101B30006C6532004E6F7A7A6C65004E6F7A7A6C03
:101B400065005370656564005370656564004D61A0
:101B5000696E00436172642072656D6F7665640022
:101B60004361726420696E73657274656400494EE6
:101B700046494E4954594E414ECDCCCC3D0AD7230F
:101B80003C17B7D13877CC2B329595E6241FB14F4F
:101B90000A000020410000C84200401C4620BCBE94
:101BA0004CCA1B0E5AAEC59D74005B19EC3E8AC927
:101BB000541911241FBECFEFD1E2DEBFCDBF00E02C
:101BC0000CBF14E0A0E0B2E0ECE4FDEA01E00BBFE2
:101BD00002C007900D92AE37B107D9F71BBE12E1D4
:101BE000AEE7B4E001C01D92A938B107E1F71BE1EF
:101BF000C0EBDBE104C02297FE010E944BD6CA3A3B
:101C0000D107C9F70E942BD10C9499D60C940000EF
:101C1000A0E0B0E0EEE0FEE00C9468D6EC015B01E1
:101C20006115710519F0FB0191838083F9908F2D67
:101C300090E00E944FD6892BC9F7FDE2FF1621F4F0
:101C4000F990EE24E39405C02BE2F21609F4F99022
:101C5000EE248E0101501040C8016EE67BE143E0A6
:101C600050E00E949E10892B01F58E010E5F1F4FE0
:101C7000C80161E77BE145E050E00E949E10892B9E
:101C800019F48E01095F1F4FA114B10419F0F50179
:101C900011830083E0FC04C070E090E080E814C091
:101CA00070E090E080E86FEF08C1C80166E77BE173
:101CB00043E050E00E949E10892B69F4A114B10406
:101CC00029F470E090E080EC6FE7F7C02296F50110
:101CD000D183C083F6CF8824992440E050E060E0AF
:101CE00070E0EF2DE053EA30A0F5F2E0EF2A8E2D00
:101CF00090E09C0128703070E2FE06C0232B79F53D
:101D00000894811C911C2BC0232B19F00894810886
:101D10009108DB01CA0112E0880F991FAA1FBB1F9F
:101D20001A95D1F7480F591F6A1F7B1F440F551F83
:101D3000661F771F4E0F511D611D711D483929E91E
:101D4000520729E9620729E1720748F084E0E82A8E
:101D500006C0EE3F31F4E3FC39C098E0E92AF9907F
:101D6000C0CFE53311F0E53189F529912D3219F411
:101D7000E0E1EE2A05C02B3219F081E090E003C0CB
:101D8000299182E090E0E22FE053EA3018F0C81B7E
:101D9000D90B1CC020E030E0FCE020383F075CF4A9
:101DA000C901880F991F880F991F280F391F220F0B
:101DB000331F2E0F311DE991E053EA3068F3E4FE42
:101DC00003C0309521953F4F820E931ECE2CDD240B
:101DD000E1FE07C0A114B10421F02197F501D183E0
:101DE000C083CB01BA010E94B4D27B018C01F3E025
:101DF000CF22DD2423E0C216D10421F417FB109575
:101E000017F9109557016801C801B70120E030E0CB
:101E100040E050E00E9414D2882309F44AC097FEA3
:101E20000DC02DE8E22E2BE1F22E909481949108C2
:101E30009394C0E2D0E000E010E012C095EAE92EF1
:101E40009BE1F92EF6CFF7012591359145915491FB
:101E5000C601B5010E94F4D45B016C018C1A9D0A85
:101E60008C169D0684F7D595C7950F5F1F4F0630DA
:101E7000110529F08CEF9FEFE80EF91EF1CFC50197
:101E8000D6017C018D018C2D880F8D2D881F8F3FF1
:101E900051F0C601B50120E030E040E050E00E9482
:101EA00014D2882331F482E290E0909388128093D8
:101EB00087127E2D9F2D802F612F272F392F482F9E
:101EC000562FB901CA01CDB7DEB7ECE00C9484D629
:101ED0002F923F925F926F927F928F929F92AF92DA
:101EE000BF92CF92DF92EF92FF920F931F93CF9307
:101EF000DF938C011B01EA016115710519F0FB01EB
:101F000091838083209749F0CE010297839728F030
:101F100020E030E040E050E0F6C0F801A1908F01F1
:101F20008A2D90E00E944FD6892BB9F7FDE2AF16BB
:101F300031F4F801A1908F015524539407C0FBE2BE
:101F4000AF1619F4F801A1908F015524209719F0CC
:101F5000C031D105C1F4F0E3AF1679F4F801808106
:101F6000883711F0883549F4F801A1800E5F1F4FC2
:101F7000F2E05F2AC0E1D0E006C0209721F480E3C0
:101F8000A816E9F427C0C830D10531F1C930D10510
:101F900024F4C230D10531F50CC0CA30D10589F026
:101FA000C031D105F9F4C12CD12CE12CB8E0FB2EC5
:101FB00028C0C12CD12CE12CA0E4FA2E22C0CAE00A
:101FC000D0E0FCECCF2EFCECDF2EFCECEF2EFCE0A6
:101FD000FF2E17C0C8E0D0E0C12CD12CE12CE0E1ED
:101FE000FE2E0FC09E01442737FD4095542F60E020
:101FF00070E080E090E80E940CD6C901DA016C0123
:102000007D0120E030E040E050E060E03E018824C7
:1020100077FC8094982C70EDB72EBA0CE9E0EB15A4
:1020200070F48A2D81548A3118F499ECB92E06C0C7
:102030008A2D81568A3150F589EAB82EBA0C8B2D3B
:1020400090E08C179D0714F56F3FE1F0C216D306A0
:10205000E406F506B0F0CA01B901A40193010E949B
:10206000C6D59B01AC012B0D311D411D511D2130E9
:10207000F0E03F07F0E04F07F0E85F0710F461E0A1
:1020800001C06FEFF801A1908F01C5CF2114310479
:1020900081F0662331F001501040F101118300837B
:1020A00008C051FE1AC002501040F1011183008394
:1020B00014C067FF12C050FC05C02FEF3FEF4FEF79
:1020C0005FE704C020E030E040E050E882E290E0CA
:1020D000909388128093871216C050FE08C05095C6
:1020E0004095309521953F4F4F4F5F4F0CC057FFA4
:1020F0000AC082E290E090938812809387122FEFBB
:102100003FEF4FEF5FE7B901CA01DF91CF911F9118
:102110000F91FF90EF90DF90CF90BF90AF909F9086
:102120008F907F906F905F903F902F900895FB016C
:10213000DC0105900D920020E1F70895FB01DC0120
:102140004150504088F08D9181341CF08B350CF457
:10215000805E659161341CF06B350CF4605E861B0B
:10216000611171F3990B0895881BFCCFFB01DC0111
:102170004150504048F005900D920020C9F701C031
:102180001D9241505040E0F70895FB0155915523B1
:10219000A9F0BF01DC014D9145174111E1F759F458
:1021A000CD010590002049F04D9140154111C9F332
:1021B000FB014111EFCF81E090E001970895FB0111
:1021C000DC0104C08D910190801921F441505040F0
:1021D000C8F7881B990B0895FB01DC0102C0019030
:1021E0000D9241505040D8F70895FB01DC010D904D
:1021F0000020E9F7119701900D920020E1F7089572
:10220000FC018191861721F08823D9F79927089539
:102210003197CF010895FB01DC0101900D92002060
:10222000E1F70895FB01DC014150504030F08D9101
:102230000190801919F40020B9F7881B990B0895B3
:10224000FB01DC014150504048F001900D9200200C
:10225000C9F701C01D9241505040E0F70895AEE02B
:10226000B0E0E5E3F1E10C9470D60E891F898EE0B1
:102270008C831A8309838FEF9FE79E838D839E0152
:10228000265E3F4FCE010196688D798DA9010E948F
:1022900053112F813885020F131FF80110822E96DB
:1022A000E4E00C948CD6ABE0B0E0E9E5F1E10C940D
:1022B00062D63C012B015A01FC01178216828381F0
:1022C00081FD03C06FEF7FEFC6C19AE0892E1E012A
:1022D0000894211C311CF3012381F20123FD859117
:1022E00023FF81912F01882309F4B2C1853239F48B
:1022F00023FD859123FF81912F01853229F490E000
:10230000B3010E944613E7CF982FFF24EE249924AF
:10231000FFE1FF15D0F09B3269F09C3228F4903237
:1023200059F0933291F40EC09D3249F0903369F424
:1023300041E024C052E0F52A84E0F82A28C098E061
:10234000F92A25C0E0E1FE2A22C0F7FC29C0892F26
:1023500080538A3070F4F6FE05C0989C902C1124AE
:10236000980E15C0E89CE02C1124E80EF0E2FF2A3C
:102370000EC09E3229F4F6FC6BC140E4F42A07C07B
:102380009C3619F450E8F52A02C0983649F4F20157
:1023900023FD959123FF91912F01992309F0B8CF47
:1023A000892F8554833018F08052833038F444E00C
:1023B00050E0A40EB51E5FE359830FC0933631F091
:1023C000933779F0933509F056C020C0F50180812C
:1023D000898342E050E0A40EB51E610101E010E0E7
:1023E00012C0F501C080D180F6FC03C06FEF7FEF13
:1023F00002C0692D70E042E050E0A40EB51EC60197
:102400000E943B138C015FE7F52214C0F501C080E8
:10241000D180F6FC03C06FEF7FEF02C0692D70E042
:1024200042E050E0A40EB51EC6010E9430138C019C
:1024300050E8F52AF3FE07C01AC080E290E0B3012D
:102440000E944613EA948E2D90E008171907A8F30E
:102450000EC0F601F7FC8591F7FE81916F0190E0C7
:10246000B3010E944613E110EA9401501040011597
:10247000110579F7EAC0943611F0993669F5F7FE3F
:1024800008C0F501208131814281538184E090E0D0
:102490000AC0F501808191819C01442737FD409558
:1024A000542F82E090E0A80EB91E9FE6F92257FF54
:1024B00009C050954095309521953F4F4F4F5F4F44
:1024C000E0E8FE2ACA01B901A1012AE030E00E9439
:1024D0007213D82ED21840C0953729F41F2D1F7EB5
:1024E0002AE030E01DC01F2D197F9F3661F0903724
:1024F00020F4983509F0ACC00FC0903739F0983708
:1025000009F0A6C004C028E030E00AC0106114FD44
:10251000146020E130E004C014FD166020E132E0D8
:1025200017FF08C0F501608171818281938144E0C9
:1025300050E008C0F50180819181BC0180E090E00D
:1025400042E050E0A40EB51EA1010E947213D82EE5
:10255000D2188FE7F82EF122F6FE0BC05EEFF522BF
:10256000D91438F4F4FE07C0F2FC05C08FEEF8224F
:1025700002C01D2D01C0192DF4FE0DC0FE01ED0D90
:10258000F11D8081803319F499EEF92208C01F5F94
:10259000F2FE05C003C08F2D867809F01F5F0F2D56
:1025A000F3FC14C0F0FE0FC01E1510F09D2C0BC0E4
:1025B0009D2C9E0C911A1E2D06C080E290E0B30166
:1025C0000E9446131F5F1E15C0F304C01E1510F4B1
:1025D000E11A01C0EE2404FF0FC080E390E0B301D4
:1025E0000E94461302FF1DC001FD03C088E790E072
:1025F0000EC088E590E00BC0802F867891F001FF37
:1026000002C08BE201C080E2F7FC8DE290E0B301F2
:102610000E94461306C080E390E0B3010E94461377
:102620009A94D914C0F3DA94F101ED0DF11D808173
:1026300090E0B3010E944613DD20A9F706C080E2B6
:1026400090E0B3010E944613EA94EE20C1F743CE16
:10265000F30166817781CB012B96E2E10C947ED663
:10266000FC010590615070400110D8F7809590955D
:102670008E0F9F1F0895FC01615070400190011062
:10268000D8F7809590958E0F9F1F08950F931F93F5
:10269000CF93DF938C01EB018B8181FF1BC082FF05
:1026A0000DC02E813F818C819D812817390764F4EC
:1026B000E881F9810193F983E88306C0E885F9850B
:1026C000802F1995892B31F48E819F8101969F83EC
:1026D0008E8302C00FEF1FEFC801DF91CF911F91D2
:1026E0000F910895FA01AA27283051F1203181F184
:1026F000E8946F936E7F6E5F7F4F8F4F9F4FAF4F0A
:10270000B1E03ED0B4E03CD0670F781F891F9A1F1C
:10271000A11D680F791F8A1F911DA11D6A0F711DD0
:10272000811D911DA11D20D009F468943F912AE0DC
:10273000269F11243019305D3193DEF6CF010895C4
:10274000462F4770405D4193B3E00FD0C9F7F6CFF5
:10275000462F4F70405D4A3318F0495D31FD4052BD
:10276000419302D0A9F7EACFB4E0A6959795879553
:1027700077956795BA95C9F7009761057105089532
:102780009B01AC010A2E06945795479537952795DE
:10279000BA95C9F7620F731F841F951FA01D089576
:1027A0001F920F920FB60F9211242F933F938F9386
:1027B0009F93AF93BF938091820490918304A091E3
:1027C0008404B0918504309186040196A11DB11D49
:1027D000232F2D5F2D3720F02D570196A11DB11D00
:1027E000209386048093820490938304A0938404AE
:1027F000B093850480917E0490917F04A091800421
:10280000B09181040196A11DB11D80937E04909327
:102810007F04A0938004B0938104BF91AF919F91F6
:102820008F913F912F910F900FBE0F901F90189591
:102830008FB7F894209182043091830440918404EE
:10284000509185048FBFB901CA0108959B01AC0165
:102850007FB7F89480917E0490917F04A0918004CA
:10286000B091810466B5A89B05C06F3F19F0019631
:10287000A11DB11D7FBFBA2FA92F982F8827860FC2
:10288000911DA11DB11D62E0880F991FAA1FBB1FDA
:102890006A95D1F7BC012DC0FFB7F89480917E04F2
:1028A00090917F04A0918004B0918104E6B5A89B2B
:1028B00005C0EF3F19F00196A11DB11DFFBFBA2F52
:1028C000A92F982F88278E0F911DA11DB11DE2E021
:1028D000880F991FAA1FBB1FEA95D1F7861B970B7C
:1028E000885E9340C8F221503040404050406851CB
:1028F0007C4F211531054105510571F60895019769
:1029000039F0880F991F880F991F02970197F1F7E7
:102910000895789484B5826084BD84B5816084BD57
:1029200085B5826085BD85B5816085BDEEE6F0E048
:10293000808181608083E1E8F0E0108280818260A4
:102940008083808181608083E0E8F0E08081816025
:102950008083E1EBF0E0808184608083E0EBF0E055
:10296000808181608083E1E9F0E080818260808302
:10297000808181608083E0E9F0E0808181608083F4
:10298000E1EAF0E0808182608083808181608083E1
:10299000E0EAF0E0808181608083E1E2F1E0808123
:1029A00082608083808181608083E0E2F1E08081C9
:1029B00081608083EAE7F0E08081846080838081A9
:1029C0008260808380818160808380818068808351
:1029D0001092C10008951F93CF93DF93182FEB013E
:1029E00061E00E94CB15209709F4CAC0CF3FD10502
:1029F00009F4C9C0E12FF0E0E75FFD4F8491893011
:102A000009F466C08A30B0F48430F1F1853040F4C6
:102A1000823059F1833070F5813009F0AEC020C0AA
:102A2000873009F443C0883008F048C0863009F088
:102A3000A4C034C08D3009F478C08E3038F48B30A7
:102A400009F45AC08C3008F066C04CC0803109F4DB
:102A500080C0813109F487C08F3009F08EC06FC00B
:102A600084B5806884BDC7BD92C084B5806284BDD2
:102A7000C8BD8DC080918000806880938000D09315
:102A80008900C093880083C0809180008062809319
:102A90008000D0938B00C0938A0079C08091B000F1
:102AA00080688093B000C093B30071C08091B00083
:102AB00080628093B000C093B40069C080919000A0
:102AC000806880939000D0939900C09398005FC075
:102AD00080919000806280939000D0939B00C0937F
:102AE0009A0055C080919000886080939000D093A8
:102AF0009D00C0939C004BC08091A0008068809393
:102B0000A0008091A0008F7B8093A000D093A900AB
:102B1000C093A8003CC08091A00080628093A00078
:102B2000D093AB00C093AA0032C08091A00088600F
:102B30008093A000D093AD00C093AC0028C08091DA
:102B40002001806880932001D0932901C09328013F
:102B50001EC080912001806280932001D0932B01C0
:102B6000C0932A0114C080912001886080932001C5
:102B7000D0932D01C0932C010AC0C038D1051CF49C
:102B8000812F60E002C0812F61E00E947E16DF91FC
:102B9000CF911F910895CF93DF93482F50E0CA0142
:102BA0008D539E4FFC01349143585E4FFA0184913E
:102BB000882369F190E0880F991FFC01E15DFE4FC9
:102BC000A591B491FC01E75BFE4FC591D4916623BA
:102BD00051F42FB7F8948C91932F909589238C936F
:102BE000888189230BC0623061F42FB7F8948C91EF
:102BF000932F909589238C938881832B88832FBF73
:102C000006C09FB7F8948C91832B8C939FBFDF9164
:102C1000CF910895893009F449C08A30A0F48430F6
:102C200051F1853040F4823079F1833000F5813004
:102C300009F063C026C0873079F1883098F5863076
:102C400009F05BC025C08D3009F442C08E3028F4F5
:102C50008B30B1F18C30C0F52DC0803109F442C009
:102C6000813109F445C08F3009F047C037C08091E9
:102C700080008F7703C0809180008F7D80938000DB
:102C8000089584B58F7702C084B58F7D84BD089583
:102C90008091B0008F7703C08091B0008F7D8093CA
:102CA000B0000895809190008F7707C080919000C8
:102CB0008F7D03C080919000877F8093900008955E
:102CC0008091A0008F7707C08091A0008F7D03C006
:102CD0008091A000877F8093A000089580912001BB
:102CE0008F7703C0809120018F7D8093200108950C
:102CF00080912001877F809320010895FF920F9398
:102D00001F93F62E482F50E0CA01875F9D4FFC01AC
:102D10002491CA018D539E4FFC01149143585E4F7C
:102D2000FA0104910023C9F0222319F0822F0E9496
:102D30000A16E02FF0E0EE0FFF1FE75BFE4FA591B4
:102D4000B4919FB7F894FF2021F48C9110958123C2
:102D500002C08C91812B8C939FBF1F910F91FF908C
:102D600008950F931F93482F50E0CA01875F9D4F2E
:102D7000FC012491CA018D539E4FFC0104914358DC
:102D80005E4FFA011491112319F420E030E015C0D0
:102D9000222319F0822F0E940A16812F90E0880FBB
:102DA000991F8D599E4FFC01A591B4918C9120E003
:102DB00030E0802311F021E030E0C9011F910F9134
:102DC00008951F920F920FB60F920BB60F92112417
:102DD0002F933F934F935F936F937F938F939F9323
:102DE000AF93BF93EF93FF9380918B0490918C04EA
:102DF000892B29F0E0918B04F0918C041995FF91B7
:102E0000EF91BF91AF919F918F917F916F915F9162
:102E10004F913F912F910F900BBE0F900FBE0F90CF
:102E20001F9018951F920F920FB60F920BB60F922C
:102E300011242F933F934F935F936F937F938F93BF
:102E40009F93AF93BF93EF93FF9380918D049091E5
:102E50008E04892B29F0E0918D04F0918E04199550
:102E6000FF91EF91BF91AF919F918F917F916F9162
:102E70005F914F913F912F910F900BBE0F900FBE1E
:102E80000F901F9018951F920F920FB60F920BB6CE
:102E90000F9211242F933F934F935F936F937F93E0
:102EA0008F939F93AF93BF93EF93FF9380918F0482
:102EB00090919004892B29F0E0918F04F091900477
:102EC0001995FF91EF91BF91AF919F918F917F9154
:102ED0006F915F914F913F912F910F900BBE0F908B
:102EE0000FBE0F901F9018951F920F920FB60F9262
:102EF0000BB60F9211242F933F934F935F936F93D1
:102F00007F938F939F93AF93BF93EF93FF938091A2
:102F1000910490919204892B29F0E0919104F09111
:102F200092041995FF91EF91BF91AF919F918F916D
:102F30007F916F915F914F913F912F910F900BBEB9
:102F40000F900FBE0F901F9018951F920F920FB603
:102F50000F920BB60F9211242F933F934F935F93D1
:102F60006F937F938F939F93AF93BF93EF93FF9351
:102F70008091870490918804892B29F0E09187043F
:102F8000F09188041995FF91EF91BF91AF919F91B6
:102F90008F917F916F915F914F913F912F910F9002
:102FA0000BBE0F900FBE0F901F9018951F920F929F
:102FB0000FB60F920BB60F9211242F933F934F939E
:102FC0005F936F937F938F939F93AF93BF93EF9391
:102FD000FF938091890490918A04892B29F0E091D4
:102FE0008904F0918A041995FF91EF91BF91AF91F7
:102FF0009F918F917F916F915F914F913F912F9111
:103000000F900BBE0F900FBE0F901F9018951F9240
:103010000F920FB60F920BB60F9211242F933F937E
:103020004F935F936F937F938F939F93AF93BF93D0
:10303000EF93FF938091930490919404892B29F04E
:10304000E0919304F09194041995FF91EF91BF9151
:10305000AF919F918F917F916F915F914F913F9130
:103060002F910F900BBE0F900FBE0F901F901895D1
:103070001F920F920FB60F920BB60F9211242F933F
:103080003F934F935F936F937F938F939F93AF93F0
:10309000BF93EF93FF938091950490919604892BB1
:1030A00029F0E0919504F09196041995FF91EF9124
:1030B000BF91AF919F918F917F916F915F914F9150
:1030C0003F912F910F900BBE0F900FBE0F901F904E
:1030D0001895CF92DF92EF92FF920F931F93CF93A9
:1030E000DF937C016B018A01C0E0D0E00FC0D60104
:1030F0006D916D01D701ED91FC910190F081E02D72
:10310000C7011995C80FD91F0150104001151105AD
:1031100071F7CE01DF91CF911F910F91FF90EF904A
:10312000DF90CF900895DC01ED91FC910190F0814A
:10313000E02D19950895CF93DF93EC01611571058A
:1031400019F420E030E00FC0DB010D900020E9F71A
:103150001197A61BB70BE881F9810280F381E02D5E
:10316000AD0119959C01C901DF91CF9108950E948D
:103170009B18089508958091700708956770707086
:10318000E82FF0E0E75FFD4F84918B3028F4883022
:10319000A0F4863090F106C08E30D0F08F5083308E
:1031A00060F521C08091B100887F8093B10080914B
:1031B000B100862B8093B100089580919100887FA3
:1031C0008093910080919100862B809391000895C7
:1031D0008091A100887F8093A1008091A100862B1F
:1031E0008093A100089580912101887F809321011F
:1031F00080912101862B8093210108950F931F93C5
:10320000CF93DF938130910549F46F5F7F4F09F0D1
:1032100046C087E994E00E94D58841C0892B09F017
:103220003EC06F5F7F4FD9F583EF93E090936206C6
:103230008093610680916806882321F085E696E0F8
:103240000E94D144CDE1D6E003EF13E005C06F97B3
:1032500084E0C73ED80751F0198308838F81882303
:10326000B1F3CE0104960E94D144F1CF83EF93E0F5
:10327000998388838F81882321F0CE0104960E9450
:10328000D14483EF93E09093C7048093C604809168
:10329000CD04882321F08AEC94E00E94D144DF9190
:1032A000CF911F910F91089580E090E06FEF7FEF35
:1032B0000E94FE18089581E090E06FEF7FEF0E947A
:1032C000FE1808950E943A7080917007882309F0D3
:1032D0003AC081E0809370078091730790917407E2
:1032E000A0917507B0917607809377079093780740
:1032F000A0937907B0937A07E5E5F2E0949108C0CE
:103300008091C00085FFFCCF9093C60031969491C8
:103310009923B1F7E6E6F2E0949108C08091C000ED
:1033200085FFFCCF9093C600319694919923B1F715
:103330008091C00085FFFCCF8AE08093C6008CE5B9
:1033400092E00E94C7C90895F8940E943A70159AB5
:1033500010925207179A10925307429A10925407EC
:10336000A09A8FB7F89490910B01926090930B0103
:103370008FBF8CE060E00E94CB15E5E5F2E0949110
:1033800008C08091C00085FFFCCF9093C6003196A5
:1033900094919923B1F7E5EEF2E0949108C0809101
:1033A000C00085FFFCCF9093C6003196949199237D
:1033B000B1F78091C00085FFFCCF8AE08093C60002
:1033C0008CED92E00E94D6C9809A8898FFCF0E9427
:1033D000181460937B0770937C0780937D0790930C
:1033E0007E07E091A407F091A507EA55F84F808188
:1033F0008823A9F4E4E0F3E0949108C08091C00030
:1034000085FFFCCF9093C600319694919923B1F734
:103410008091C00085FFFCCF8AE08093C6000895AC
:10342000EF92FF920F931F930E941814E0907F0772
:10343000F0908007009181071091820720917B070F
:1034400030917C0740917D0750917E07621B730B82
:10345000840B950BE616F7060807190738F4E114F4
:10346000F1040105110511F00E94A4198091670370
:1034700090916803A0916903B0916A030097A10538
:10348000B10599F10E94181420917B0730917C07B7
:1034900040917D0750917E07621B730B840B950B47
:1034A00020916703309168034091690350916A034A
:1034B0002617370748075907C0F490910F118091DC
:1034C0001011981791F4159A10925207179A1092AA
:1034D0005307429A10925407A09A9FB7F89480918C
:1034E0000B01826080930B019FBF0E94B2571F9116
:1034F0000F91FF90EF9008956F927F928F929F921D
:10350000AF92BF92CF92DF92EF92FF920F931F93F1
:10351000F82E6091830770918407809185079091C0
:10352000860720918707309188074091890750913D
:103530008A070E942FD43B014C0100D000D00DB768
:103540001EB70F5F1F4F6091550370915603882778
:1035500077FD8095982F0E94B6D220916B03309111
:103560006C0340916D0350916E030E94F4D420E0EF
:1035700030E040E752E40E941BD220E030E048EC0B
:1035800052E40E941BD25B016C01F80160827182DF
:1035900082829382F4828091650785838AE297E034
:1035A0006FE877E043E857E020E001E032E0E32E07
:1035B0000E94B25180918F0790919007A09191073E
:1035C000B091920780932A0790932B07A0932C0722
:1035D000B0932D078091930790919407A091950740
:1035E000B091960780932E0790932F07A0933007F2
:1035F000B09331078091970790919807A091990710
:10360000B0919A078093320790933307A0933407C1
:10361000B093350780919B0790919C07A0919D07DF
:10362000B0919E078093360790933707A093380791
:10363000B09339078DB79EB706960FB6F8949EBF24
:103640000FBE8DBF0E94181460937B0770937C0798
:1036500080937D0790937E071F910F91FF90EF90CD
:10366000DF90CF90BF90AF909F908F907F906F90A2
:103670000895CF92DF92EF92FF920F931F930E94D3
:10368000181460937B0770937C0780937D07909359
:103690007E0760912A0770912B0780912C079091EB
:1036A0002D0720918F0730919007409191075091FD
:1036B00092070E9414D2882309F07AC060912E07E5
:1036C00070912F07809130079091310720919307D7
:1036D0003091940740919507509196070E9414D21B
:1036E000882309F065C060916B0370916C03809131
:1036F0006D0390916E0320E030E040E752E40E94B9
:103700001BD27B018C018FE897E063E977E047E902
:1037100057E02BE937E0E5E6CE2EE7E0DE2E0E940B
:10372000995A80918F0790919007A0919107B0913D
:10373000920780932A0790932B07A0932C07B093AE
:103740002D078091930790919407A0919507B091D0
:10375000960780932E0790932F07A0933007B0937E
:1037600031078091970790919807A0919907B091A0
:103770009A078093320790933307A0933407B0934E
:10378000350780919B0790919C07A0919D07B09170
:103790009E078093360790933707A0933807B0931E
:1037A00039071F910F91FF90EF90DF90CF90089510
:1037B0006091550370915603882777FD8095982F67
:1037C0000E94B6D220916B0330916C0340916D033F
:1037D00050916E030E94F4D420E030E040E752E4C0
:1037E0000E941BD220E030E048EC52E488CF81EC0C
:1037F00099E00E94E33EE7E0F3E0949108C08091F5
:10380000C00085FFFCCF9093C60031969491992318
:10381000B1F74091730750917407609175077091EB
:1038200076074F5F5F4F6F4F7F4F81EC99E02AE043
:1038300030E00E94A43F8091C00085FFFCCF8AE069
:103840008093C6000E94E71908952F923F924F92ED
:103850005F926F927F928F929F92AF92BF92CF9220
:10386000DF92EF92FF920F931F93DF93CF93CDB729
:10387000DEB728970FB6F894DEBF0FBECDBF98878E
:103880008F838330910508F056C1FC01E25BFA4F4B
:10389000D4903C01660C771C660C771C9301265D66
:1038A000384F3A83298380E090E0A0E0B0E0F9014E
:1038B00080839183A283B3838AE297E06EE277E00C
:1038C00042E357E026E337E00E948A55F301EE5BBE
:1038D000FA4FE590F590059114916D2D772767FDCE
:1038E0007095882777FD8095982F0E94B6D21B018E
:1038F0002C0193012157384F3C832B83C801B7011A
:1039000020E030E040EC5FE30E94F4D4A20191019A
:103910000E94F4D4AB81BC816D937D938D939C9375
:103920001397F301EB5BFC4FFE83ED8360817181A4
:103930008281938160936B0370936C0380936D031A
:1039400090936E0320E030E040E752E40E941BD2E7
:103950007B018C018FE897E063E977E047E957E066
:103960002BE937E0A5E6CA2EA7E0DA2E0E94995A85
:103970000E94076880E090E0A0E0B0E0E981FA8171
:1039800080839183A283B3838AE297E06EE277E03B
:1039900042E357E026E337E00E948A55F301EB58F3
:1039A000FA4F85909590A590B490C501B4019058B8
:1039B000A20191010E94F4D4AB81BC816D937D93EF
:1039C0008D939C93139760916B0370916C0380911E
:1039D0006D0390916E0320E030E040E752E40E94D6
:1039E0001BD27B018C018FE897E063E977E047E920
:1039F00057E02BE937E00E94995A0E940768C501F9
:103A0000B401A50194010E943BD1A20191010E9441
:103A1000F4D4EB81FC816083718382839383AD81D5
:103A2000BE816D917D918D919C9120E030E040E0D0
:103A30005FE30E94F4D460936B0370936C038093F4
:103A40006D0390936E0320E030E040E752E40E9463
:103A50001BD27B018C018FE897E063E977E047E9AF
:103A600057E02BE937E00E94995A0E940768F3015A
:103A7000EF5AFA4F6591759185919491F301E65C47
:103A8000F84FA080B180C280D380A60195010E942A
:103A90003BD17B018C01CB01D801E981FA81808384
:103AA0009183A283B383F301E35AFA4F6591759131
:103AB00085919491F6E48F2EF7E09F2E860C971C4B
:103AC000A60195010E943BD1D4016D937D938D9306
:103AD0009C931397F301E759FA4F6591759185917E
:103AE0009491E9E5F3E06E0E7F1EA60195010E9418
:103AF0003BD1D3016D937D938D939C931397C70115
:103B0000D801EB81FC8180839183A283B38380E021
:103B100090E0A0E0B0E080936B0390936C03A093DF
:103B20006D03B0936E030E94ED66AF81B885AE5A07
:103B3000B84F81E08C9328960FB6F894DEBF0FBE85
:103B4000CDBFCF91DF911F910F91FF90EF90DF904C
:103B5000CF90BF90AF909F908F907F906F905F902D
:103B60004F903F902F900895682F2091A407309197
:103B7000A50780E690E0AC01249FC001259F900D31
:103B8000349F900D11248055984F70E00E940011D1
:103B90009C019093AF078093AE0780E0232B09F040
:103BA00081E00895FC01949108C08091C00085FFD8
:103BB000FCCF9093C600319694919923B1F781EC94
:103BC00099E022E030E00E94B4400895FC01949115
:103BD00008C08091C00085FFFCCF9093C60031964D
:103BE00094919923B1F781EC99E02AE030E00E94AA
:103BF000853F08958091AE079091AF07019660E0F0
:103C000070E04AE050E00E94680F08958091AE078E
:103C10009091AF07019660E070E00E94080E089551
:103C2000CF93DF93EC01809165078093720784E561
:103C30000E94B41D882309F46FC00E94061E0E94D2
:103C400088D2262F60937207623008F465C0EFE4D3
:103C5000F2E0949108C08091C00085FFFCCF909362
:103C6000C600319694919923B1F7C936D10599F0E0
:103C7000CA36D10524F4C836D105F1F50FC0CD36CA
:103C8000D10531F0CA3DD105B9F5E0E0F2E031C02F
:103C9000E7E1F2E023C0EEE2F2E015C0E5E4F2E095
:103CA00007C08091C00085FFFCCF31969093C6007D
:103CB00090819923B1F720C08091C00085FFFCCF8F
:103CC00031969093C60090819923B1F715C08091E9
:103CD000C00085FFFCCF31969093C6009081992358
:103CE000B1F70AC08091C00085FFFCCF3196909358
:103CF000C60090819923B1F781EC99E0622F40E0F2
:103D000050E00E94923F8091C00085FFFCCF8AE086
:103D10008093C60081E001C080E0DF91CF910895DB
:103D2000AF92BF92CF92DF92EF92FF920F931F93C9
:103D3000CF93DF931AE2E12E17E0F12ECFE8D7E020
:103D400000E010E0F801E555FC4F80810E94B41DB1
:103D5000882339F10E94061E5B016C01F801EC5DBD
:103D6000F84F8081882311F061E002C060919F07C5
:103D700070E0882777FD8095982F0E94B6D2F701D2
:103D800020813181428153810E94F4D49B01AC0196
:103D9000C601B5010E943BD1688379838A839B83E6
:103DA00009C0F70180819181A281B38188839983C1
:103DB000AA83BB830F5F1F4F84E090E0E80EF91EDB
:103DC00024960430110509F0BDCF86E40E94B41D8D
:103DD0008823E1F00E94061E7B018C016093A007FE
:103DE0007093A1078093A2079093A30720E030E08F
:103DF00040E050E00E9422D4181644F4E0926B0395
:103E0000F0926C0300936D0310936E03DF91CF91DA
:103E10001F910F91FF90EF90DF90CF90BF90AF90E8
:103E200008950E94901E89E40E94B41D882359F0D1
:103E30000E94061E60938307709384078093850712
:103E4000909386070CC080E090E0A0E0B0E0809303
:103E5000830790938407A0938507B09386078AE42D
:103E60000E94B41D882359F00E94061E60938707A4
:103E7000709388078093890790938A07089580E05C
:103E800090E0A0E0B0E08093870790938807A0932C
:103E90008907B0938A0708952F923F924F925F92BD
:103EA0006F927F928F929F92AF92BF92CF92DF924A
:103EB000EF92FF920F931F93DF93CF93CDB7DEB7AF
:103EC000EE970FB6F894DEBF0FBECDBF87E40E9419
:103ED000B41D882309F404C40E94061E0E9483D2E4
:103EE0006430710509F441C06530710554F46230E5
:103EF000710541F1633071056CF57723CCF40C94B6
:103F0000C4366A35710509F496C36B35710534F40E
:103F10006C31710511F00C94C4366FC06B357105AE
:103F200009F48DC36C35710511F00C94C4368CC343
:103F300080917007882331F40E94901E0E94391BE3
:103F40000C94EB3680917007882321F40E94111F96
:103F500081E007C080917007882339F40E94111F07
:103F600080E00E947C1A0C94EB3689E395E00E9475
:103F7000C7C980E50E94B41D882321F4EE24FF24E4
:103F8000870106C00E94061E0E9488D27B018C0118
:103F900083E50E94B41D882361F00E94061E20E084
:103FA00030E04AE754E40E94F4D40E9488D27B01B6
:103FB0008C010E9407680E9418145B016C01AE0C12
:103FC000BF1CC01ED11E0E94181460937B07709303
:103FD0007C0780937D0790937E0706C00E94397509
:103FE0000E94101A0E94A1CA0E9418146A157B052B
:103FF0008C059D0598F30C94C43680916B039091C9
:104000006C03A0916D03B0916E038093AA07909307
:10401000AB07A093AC07B093AD0780915503909187
:104020005603909329078093280784E690E09093A5
:104030005603809355030E94181460937B07709376
:104040007C0780937D0790937E0781E00E94F46651
:1040500080912A0790912B07A0912C07B0912D07F2
:1040600080938F0790939007A0939107B093920746
:1040700080912E0790912F07A0913007B0913107C2
:104080008093930790939407A0939507B093960716
:104090008091320790913307A0913407B091350792
:1040A0008093970790939807A0939907B0939A07E6
:1040B0008091360790913707A0913807B091390762
:1040C00080939B0790939C07A0939D07B0939E07B6
:1040D00080E090E0A0E0B0E080936B0390936C03ED
:1040E000A0936D03B0936E0388E50E94B41D8823EE
:1040F00061F489E50E94B41D882339F48AE50E94A1
:10410000B41D882311F481E001C080E080936F0327
:10411000882361F488E50E94B41D882309F4D4C182
:1041200089E50E94B41D882309F4CEC180E090E0A7
:10413000A0E0B0E080932A0790932B07A0932C0770
:10414000B0932D0780932E0790932F07A0933007ED
:10415000B0933107FEE48F2EF5E09F2EF401E4903A
:104160008AE297E06EE277E042E357E026E337E049
:104170000E948A55E2E4F5E06591759185919491EC
:1041800020E030E040EC5FE30E94F4D45B016C017E
:10419000FF24E7FCF0940027F7FC0095102FC801DE
:1041A000B7010E94B6D29B01AC01C601B5010E94C5
:1041B000F4D460938F077093900780939107909346
:1041C0009207E6E4F5E065917591859194910894E4
:1041D000811C911CF401D49020E030E040EC5FE3BE
:1041E0000E94F4D47B018C016D2D772767FD7095BB
:1041F000872F972F0E94B6D29B01AC01C801B7014F
:104200000E94F4D46093930770939407809395076A
:1042100090939607209145033091460340914703C0
:104220005091480320936B0330936C0340936D03CC
:1042300050936E03E0904903F0904A0300914B03C2
:1042400010914C03C801B7010E9414D2882344F492
:10425000E0926B03F0926C0300936D0310936E0376
:1042600060916B0370916C0380916D0390916E036C
:1042700020E030E040E752E40E941BD27B018C0139
:104280008FE897E063E977E047E957E02BE937E00B
:10429000E5E6CE2EE7E0DE2E0E94995A0E940768DE
:1042A000E1E5F5E0659175918591949120913A074A
:1042B00030913B0740913C0750913D070E943BD114
:1042C00060932A0770932B0780932C0790932D07F8
:1042D000EDE5F5E0659175918591949120913A070E
:1042E00030913B0740913C0750913D070E943BD1E4
:1042F0006093460770934707809348079093490758
:10430000E9E6F5E0659175918591949120913A07E0
:1043100030913B0740913C0750913D070E943BD1B3
:104320006093590370935A0380935B0390935C03EB
:10433000E5E5F5E0659175918591949120913E07B1
:1043400030913F0740914007509141070E943BD177
:1043500060932E0770932F07809330079093310757
:10436000E1E6F5E0659175918591949120913E0784
:1043700030913F0740914007509141070E943BD147
:1043800060934A0770934B0780934C0790934D07B7
:10439000EDE6F5E0659175918591949120913E0748
:1043A00030913F0740914007509141070E943BD117
:1043B00060935D0370935E0380935F03909360034B
:1043C0008AE297E06EE277E042E357E026E337E0E7
:1043D0000E948A5580912A0790912B07A0912C0763
:1043E000B0912D0780938F0790939007A09391072A
:1043F000B093920780912E0790912F07A0913007DC
:10440000B09131078093930790939407A0939507F9
:10441000B093960760916B0370916C0380916D036C
:1044200090916E0320E030E040E752E40E941BD2FE
:104430007B018C018FE897E063E977E047E957E07B
:104440002BE937E00E94995A80E090E0A0E0B0E0CC
:1044500080936B0390936C03A0936D03B0936E03F2
:104460000E9407680E94ED6680918F0790919007E7
:10447000A0919107B091920780932A0790932B0700
:10448000A0932C07B0932D078091930790919407E8
:10449000A0919507B091960780932E0790932F07D0
:1044A000A0933007B09331078091970790919807B8
:1044B000A0919907B0919A078093320790933307A0
:1044C000A0933407B093350780916F03882329F4B4
:1044D00088E50E94B41D882321F080E090E00E94CE
:1044E000251C80916F03882329F489E50E94B41D5F
:1044F000882321F081E090E00E94251C88E50E943D
:10450000B41D8823D9F00E94FA1D6115710581053B
:104510009105A1F00E94061E20913A0730913B07B9
:1045200040913C0750913D070E943BD160932A0780
:1045300070932B0780932C0790932D0789E50E9499
:10454000B41D8823D9F00E94FA1D611571058105FB
:104550009105A1F00E94061E20913E0730913F0771
:1045600040914007509141070E943BD160932E0734
:1045700070932F07809330079093310780916F03DA
:10458000882329F48AE50E94B41D882321F082E063
:1045900090E00E94251C8AE50E94B41D8823D9F072
:1045A0000E94FA1D6115710581059105A1F00E9417
:1045B000061E2091420730914307409144075091D5
:1045C00045070E943BD16093320770933307809375
:1045D0003407909335078AE297E06EE277E042E392
:1045E00057E026E337E00E948A558091AA07909110
:1045F000AB07A091AC07B091AD0780936B0390938C
:104600006C03A0936D03B0936E0380912807909183
:10461000290790935603809355030E9418146093C2
:104620007B0770937C0780937D0790937E070E94A1
:10463000ED660C94C43610929F070C94C43681E04A
:1046400080939F070C94C43685E40E94B41D882390
:1046500011F40E9407684AE2E42E47E0F42E3AE3A0
:10466000C32E37E0D32E00E010E0F801E555FC4FF3
:1046700080810E94B41D882331F1033061F40E94CF
:10468000061EF701608371838283938386E397E03C
:104690000E946C5518C00E94061EF60120813181CF
:1046A000428153810E943BD1F701608371838283F1
:1046B00093838AE297E06EE277E042E357E026E3F5
:1046C00037E00E948A550F5F1F4F24E030E0E20E72
:1046D000F31EC20ED31E0430110539F60C94C436F5
:1046E0008DE40E94B41D882311F40C9468350E9457
:1046F000061E0E9483D26D36710509F4D2C56E364E
:1047000071050CF09CC06E31710509F49CC26F31CB
:1047100071050CF042C06631710509F4FAC16731C8
:104720007105E4F46131710509F4ABC162317105C1
:1047300034F46230710510F00C94C43643C1643116
:10474000710509F4B0C1653171050CF0DCC162314D
:10475000710511F00C94C4360C948A2C69317105E2
:1047600009F409C26A31710554F46731710509F41D
:10477000D6C16831710511F00C94C436ECC16B31AF
:10478000710509F41DC26B3171050CF4FAC16C316D
:10479000710511F00C94C43619C26335710511F41A
:1047A0000C94852C6435710514F56A32710509F491
:1047B000C0C36B32710554F46F31710509F434C311
:1047C0006032710511F00C94C43683C261357105F5
:1047D00011F40C945A2C6235710514F00C94812C50
:1047E0006035710511F00C94C4360C944B2C68366E
:1047F000710509F4E8C3693671058CF465357105F6
:1048000011F40C94F32C6535710514F40C948A2C76
:104810006C35710511F00C94C4360C940A2D6A366F
:10482000710511F40C94142C6A3671050CF4FCC358
:104830006B36710511F00C94C4360C94452C6C3D0C
:10484000710511F40C943C316D3D71050CF054C0B0
:104850006C38710509F4D7C36D38710524F56537D7
:10486000710511F40C94A02D6637710564F462375C
:10487000710511F40C94B72D6337710511F00C9488
:10488000C4360C94902D6837710511F40C94AC2E3D
:104890006937710511F40C94B12E6737710511F069
:1048A0000C94C4368BC06C3C710511F40C94F22F3F
:1048B0006D3C710584F4693C710511F40C94B22FC0
:1048C0006B3C710511F40C94D42F6E3B710511F003
:1048D0000C94C43696C66E3C710511F40C9470307D
:1048E0006E3C710514F40C9412306A3D710511F0A0
:1048F0000C94C4360C948E3031E06039730711F497
:104900000C94103341E0613974074CF551E06C327E
:10491000750711F40C94B23181E06D32780764F4BC
:104920006D3D710511F40C944B31623E710511F02F
:104930000C94C4360C945A3191E06E32790711F41C
:104940000C94C132E1E06E327E0714F40C94E9312C
:104950006F52714011F00C94C4360C94D03221E0A7
:10496000673F720711F40C941C3331E0683F730702
:104970009CF441E0653F740711F40C94163351E048
:10498000663F750714F00C941933645F714011F0A1
:104990000C94C4360C94133393E0603A790709F40D
:1049A00008C2E3E0673E7E0711F40C945135685568
:1049B000724011F00C94C4360C941F33ECE5F2E015
:1049C0000C94BD2E88E295E00E94C7C980E50E9444
:1049D000B41D882321F4EE24FF24870106C00E9421
:1049E000061E0E9488D27B018C0183E50E94B41DC3
:1049F000882361F00E94061E20E030E04AE754E47C
:104A00000E94F4D40E9488D27B018C010E94076826
:104A10000E94181460937B0770937C0780937D0736
:104A200090937E07E114F1040105110501F10E9444
:104A300018145B016C01AE0CBF1CC01ED11E0E947D
:104A400018146A157B058C059D05A8F40E94239611
:104A5000882389F40E9439750E94101A0E94A1CA05
:104A6000EECF0E9439750E94101A0E94A1CA0E94BE
:104A700023968823B1F389E195E00E94C7C90C947D
:104A8000C43680E195E00E94C7C9159817984298EE
:104A9000A0989FB7F89480910B018D7F80930B01B4
:104AA0009FBF0C94C436E0E0F5E0949108C080917B
:104AB000C00085FFFCCF9093C60031969491992356
:104AC000B1F78091C00085FFFCCF8AE08093C600DB
:104AD00087E994E00E948888E2EFF4E0949108C0AE
:104AE0008091C00085FFFCCF9093C60031969491D1
:104AF0009923B1F78091C00085FFFCCF8AE08093B5
:104B0000C6000C94C43687E994E00E94E7830C94B5
:104B1000C43687E994E00E941F7C0C94C4368091CF
:104B2000AE079091AF0704966AE270E00E94001110
:104B3000FC01009711F0319710826091AE077091DF
:104B4000AF076C5F7F4F87E994E041E021E00E946E
:104B5000FD7F0C94C43687E994E00E94237C0E9478
:104B60001814609368077093690780936A0790939D
:104B70006B070C94C43687E994E00E942A7C0C945D
:104B8000C43680919A04882311F40C94C43683E5CA
:104B90000E94B41D882311F40C94C4360E94FA1D9F
:104BA000AB01BC0140931A0750931B0780931C076D
:104BB00070931D0785E696E00E94B7430C94C436B7
:104BC00087E994E00E94E87D0C94C4368091AE079A
:104BD0009091AF0704966AE270E00E9400118C0188
:104BE000009719F12091A4073091A50780E690E085
:104BF000AC01249FC001259F900D349F900D11247E
:104C00008055984F6EE470E00E94001160E270E001
:104C10000E9400119C012F5F3F4F3093AF072093FC
:104C2000AE0701501040F80110826091AE077091FC
:104C3000AF076C5F7F4F87E994E040E021E00E947E
:104C4000FD7F0C94C43680919A04882311F40C944F
:104C5000C43687E994E060E00E94577D8091AE07FA
:104C60009091AF0704966AE270E00E9400118C01F7
:104C7000009719F12091A4073091A50780E690E0F4
:104C8000AC01249FC001259F900D349F900D1124ED
:104C90008055984F6EE470E00E94001160E270E071
:104CA0000E9400119C012F5F3F4F3093AF0720936C
:104CB000AE0701501040F80110826091AE0770916C
:104CC000AF076C5F7F4F87E994E00E94427E0C94AF
:104CD000C43680919904882311F00E940768E090FF
:104CE000AE07F090AF0724E030E0E20EF31EC701FC
:104CF0006AE270E00E9400118C01C70161E270E07D
:104D00000E940011009721F07C010894E11CF11C25
:104D10000115110521F001501040F801108280E5C5
:104D20000E94B41D182F8091AE079091AF07E8162E
:104D3000F90608F410E080919A04882311F40C9489
:104D4000C43621E0212787E994E0B70141E00E94C1
:104D5000FD7F83E50E94B41D8823B9F08091AE07E2
:104D60009091AF078E159F0580F40E94FA1DAB014C
:104D7000BC0140931A0750931B0780931C07709344
:104D80001D0785E696E00E94B74387E994E00E94FC
:104D9000237C112311F00C94C4360E9418146093E4
:104DA00068077093690780936A0790936B070C9468
:104DB000C4368091AE079091AF0705966AE270E025
:104DC0000E9400118C01009719F12091A4073091E5
:104DD000A50780E690E0AC01249FC001259F900DBF
:104DE000349F900D11248055984F6EE470E00E941E
:104DF000001160E270E00E9400119C012F5F3F4FA4
:104E00003093AF072093AE0701501040F801108295
:104E10006091AE077091AF076B5F7F4F87E994E0B9
:104E20000E94DE830C94C4360E94181460936C07B1
:104E300070936D0780936E0790936F0720916807BA
:104E40003091690740916A0750916B07621B730BA1
:104E5000840B950B28EE33E040E050E00E940CD626
:104E6000F22EE32ED42EC52E2DB73EB7285030405B
:104E70000FB6F8943EBF0FBE2DBF0DB71EB70F5F24
:104E80001F4FCE018196EDB7FEB79283818383EEEB
:104E900094E0F801938382836F2D7E2D842F952FCC
:104EA0002CE330E040E050E00E940CD6F80135835E
:104EB00024836F2D7E2D8D2D9C2D2CE330E040E042
:104EC00050E00E940CD6F801778366830E942F1170
:104ED000EFE4F2E094912DB73EB7285F3F4F0FB655
:104EE000F8943EBF0FBE2DBF08C08091C00085FF63
:104EF000FCCF9093C600319694919923B1F7FE01AF
:104F0000B19607C08091C00085FFFCCF3196909389
:104F1000C60090819923B1F78091C00085FFFCCF36
:104F20008AE08093C600CE0181960E94EAC90C9463
:104F3000C43683E50E94B41D882311F40C94C43652
:104F40000E94061E0E9483D27B018C016B0180E5CA
:104F50000E94B41D882369F0F7FC0BC03FEFE316F5
:104F6000F10409F034F40E94061E0E9483D28B01E2
:104F700002C00DE010E0EFEAF3E08081918180173C
:104F8000910711F40C94C436329644E0EF32F407E2
:104F9000A1F70730110529F4D0926707C092660780
:104FA00004C017FF02C00C94C436802F61E00E9439
:104FB000CB15802F6C2D0E947E16802FB6010E948B
:104FC000EB140C94C43688E690E00E94101E8823EF
:104FD00011F00C94C43683E50E94B41D882379F047
:104FE0000E94061E20917207022F10E0000F111F71
:104FF00000591E4E0E9483D2F801718360830E9483
:105000006F720C94C43683E50E94B41D882311F49A
:105010000C94C4360E94061E0E9483D270937511B0
:10502000609374110C94C43689E690E00E94101EBF
:10503000882311F00C94C436EDEDF4E0949108C08F
:105040008091C00085FFFCCF9093C600319694916B
:105050009923B1F7E0917207F0E0EE0FFF1FEE0F1A
:10506000FF1FE658FE4E408151816281738181ECC1
:1050700099E021E030E00E94B440EAEDF4E0949140
:1050800008C08091C00085FFFCCF9093C600319688
:1050900094919923B1F7E0917207F0E0EE0FFF1FB2
:1050A000E059FE4E60817181882777FD8095982FA9
:1050B0000E94B6D2AB01BC0181EC99E021E030E066
:1050C0000E94B440E6EDF4E0949108C08091C000E5
:1050D00085FFFCCF9093C600319694919923B1F748
:1050E00040918411509185116091861170918711C2
:1050F00081EC99E021E030E00E94B440E3EDF4E07F
:10510000949108C08091C00085FFFCCF9093C600A9
:10511000319694919923B1F7609174117091751142
:10512000882777FD8095982F0E94B6D2AB01BC01ED
:1051300081EC99E021E030E00E94B44000E7C02E0D
:1051400001E1D02E1AE7E12E11E1F12E00E010E08E
:10515000E0EDF4E09490EEECF4E0A490EBECF4E0FD
:10516000B490992DE0EDF4E008C08091C00085FF77
:10517000FCCF9093C600319694919923B1F781ECBE
:1051800099E0B8014AE050E00E94D93F9A2DEEEC38
:10519000F4E008C08091C00085FFFCCF9093C6006A
:1051A000319694919923B1F7F70140815181628141
:1051B000738181EC99E021E030E00E94B4409B2DA6
:1051C000EBECF4E008C08091C00085FFFCCF909329
:1051D000C600319694919923B1F7F60161917191CE
:1051E0006F01882777FD8095982F0E94B6D2AB017A
:1051F000BC0181EC99E021E030E00E94B4400F5FF7
:105200001F4F24E030E0E20EF31E0230110509F0DA
:10521000A8CFE7ECF4E0949108C08091C00085FF2E
:10522000FCCF9093C600319694919923B1F7809169
:1052300072070E942F70BC0181EC99E04AE050E0B7
:105240000E94D93FE2ECF4E0949108C08091C00044
:1052500085FFFCCF9093C600319694919923B1F7C6
:105260008FEF9FEF0E942F70BC0181EC99E04AE024
:1052700050E00E94D93FE5E7F2E007C08091C0000E
:1052800085FFFCCF31969093C60090819923B1F7AA
:105290008091C00085FFFCCF8AE08093C6000C940B
:1052A000EB368DE690E00E94101E882311F00C94DE
:1052B000C43687EB94E00E94C7C983E50E94B41D01
:1052C000882399F00E94061E20917207022F10E099
:1052D000000F111F00591E4E0E9483D2F8017183E6
:1052E000608381E08093660316C082E50E94B41D4E
:1052F000882389F00E94061E20917207022F10E079
:10530000000F111F00591E4E0E9483D2F8017183B5
:105310006083109266030E946F720E9418144B0102
:105320005C0120917207022F10E010927107000FAC
:10533000111FF801E059FE4E60817181882777FDC9
:105340008095982F0E94B6D2000F111F06581E4E4E
:10535000F80120813181428153810E9422D41816A4
:105360001CF481E080937107CC24CA94DC2C760174
:10537000E4EBF4E05490E0EBF4E06490ECEAF4E069
:1053800074907AE0472E30C1952DE4EBF4E008C02C
:105390008091C00085FFFCCF9093C6003196949118
:1053A0009923B1F7E0917207F0E0EE0FFF1FEE0FC7
:1053B000FF1FE658FE4E408151816281738181EC6E
:1053C00099E021E030E00E94B440962DE0EBF4E05B
:1053D00008C08091C00085FFFCCF9093C600319635
:1053E00094919923B1F76091720781EC99E070E094
:1053F0004AE050E00E94D93F972DECEAF4E008C063
:105400008091C00085FFFCCF9093C60031969491A7
:105410009923B1F7F7FE03C0E6E7F2E028C00E9447
:105420001814A70196012854344F4F4F5F4F261B85
:10543000370B480B590BCA01B90128EE33E040E0A5
:1054400050E00E940CD681EC99E0BA01A9012AE053
:1054500030E00E94853F8091C00085FFFCCF0EC0E8
:105460008091C00085FFFCCF31969093C60090815B
:105470009923B1F78091C00085FFFCCF4092C60010
:105480000E9418144B015C010E9439750E94101A89
:105490000E94A1CAFFEFCF16FFEFDF06FFEFEF0676
:1054A000FFEFFF0609F052C080917107E09172078B
:1054B000882331F1F0E08F01000F111F000F111F41
:1054C00006581E4EEE0FFF1FE059FE4E608171819F
:1054D000882777FD8095982F0E94B6D220E030E093
:1054E00040E85FE30E943AD19B01AC01F801608182
:1054F0007181828193810E9422D487FF58C05EC04F
:10550000F0E08F01000F111F000F111F06581E4EF3
:10551000EE0FFF1FE059FE4E60817181882777FDF5
:105520008095982F0E94B6D220E030E040E85FE3FB
:105530000E943BD19B01AC01F801608171818281A5
:1055400093810E9414D2181694F538C0F7FC36C027
:10555000E0917207F0E08F01000F111F000F111F83
:1055600006581E4EEE0FFF1FE059FE4E60817181FE
:10557000882777FD8095982F0E94B6D29B01AC01B9
:10558000F80160817181828193810E943AD10E94E9
:1055900083D297FF07C090958095709561957F4F56
:1055A0008F4F9F4F64307105810591053CF00E943B
:1055B0001814AC01CB01DA016C017D01FFEFCF16AD
:1055C000FFEFDF06FFEFEF06FFEFFF0669F0F7FEE4
:1055D00002C00C94C7360E9418146C197D09685BD0
:1055E0007B4010F00C94C7360E9418146819790992
:1055F0008A099B09695E73408040904008F0C4CEE0
:1056000043CF81E994E00E94C7C983E50E94B41D9D
:10561000882361F00E94061E0E9483D27093751148
:105620006093741181E0809366030FC082E50E944D
:10563000B41D882351F00E94061E0E9483D27093ED
:10564000751160937411109266030E9418147B0107
:105650008C011092710760917411709175118827F7
:1056600077FD8095982F0E94B6D2209184113091B9
:10567000851140918611509187110E9422D41816ED
:105680000CF082C081E0809371077EC00E941814E4
:105690006E197F09800B910B695E734080409040CA
:1056A00008F46BC0E0916507F0E0EE0FFF1FEE0F0E
:1056B000FF1FE658FE4E40815181628173819B2D10
:1056C000EEE8F4E008C08091C00085FFFCCF909325
:1056D000C600319694919923B1F781EC99E022E0CC
:1056E00030E00E94B4409C2DEAE8F4E008C08091CC
:1056F000C00085FFFCCF9093C6003196949199230A
:10570000B1F76091650781EC99E070E04AE050E004
:105710000E94D93F9D2DE6E8F4E008C08091C000CA
:1057200085FFFCCF9093C600319694919923B1F7F1
:10573000409184115091851160918611709187116B
:1057400081EC99E021E030E00E94B440E5E7F2E02E
:1057500007C08091C00085FFFCCF31969093C600B2
:1057600090819923B1F78091C00085FFFCCFA09272
:10577000C6000E9418147B018C010E9439750E949A
:10578000101A0E94A1CA0BC0EEE8F4E0B490EAE857
:10579000F4E0C490E6E8F4E0D490AAE0AA2E809168
:1057A000710720917411309175118823A9F0B90106
:1057B000882777FD8095982F0E94B6D2209184117A
:1057C0003091851140918611509187110E9422D409
:1057D00018160CF45BCF18C0B901882777FD8095A7
:1057E000982F0E94B6D2209184113091851140915A
:1057F0008611509187110E9414D288232CF4809135
:105800006603882309F442CF8CE794E00E94C7C95D
:105810000E94181460937B0770937C0780937D0728
:1058200090937E070C94C43683E50E94B41D8823B0
:1058300021F10E94061E20E030E040E050E00E948E
:1058400014D288231CF460E070E011C00E94061E90
:1058500020E030E04FE753E40E9422D418161CF4F5
:105860006FEF70E004C00E94061E0E9483D2709306
:105870006707609366070C94C4368FEF90E09093AF
:105880006707809366070C94C436109267071092DE
:1058900066070C94C436269A2E98809A889A81E0DE
:1058A000809365038BE694E00E94C7C90E94A1CA59
:1058B0000C94C4360E943A700E940768A09A9FB761
:1058C000F89480910B01826080930B019FBF0E942E
:1058D0001568109267071092660768EE73E080E023
:1058E00090E00E9426140E940768809A889810927F
:1058F00065038CE594E00E94C7C90E94A1CA0C947C
:10590000C436109227070C94C43681E08093270791
:105910000C94C43683E50E94B41D8823A1F00E9434
:10592000061E20E030E04AE754E40E94F4D40E94CE
:1059300088D26093670370936803809369039093A0
:105940006A030C94C43688E50E94B41D882311F0C4
:105950000C94E03689E50E94B41D882311F00C9464
:10596000E0368AE50E94B41D882311F00C94E036DD
:1059700085E40E94B41D882311F00C94E0360E9447
:105980000768A09A9FB7F89480910B01826080937A
:105990000B019FBF0E9415680C94C436159A109293
:1059A000520789E50E94B41D882319F0179A1092B6
:1059B00053078AE50E94B41D882319F0429A109279
:1059C000540785E40E94B41D882311F40C94C43656
:1059D000A09A9FB7F89480910B01826080930B018D
:1059E0009FBF0C94C43683E50E94B41D0E94061E1E
:1059F00020E030E04AE754E40E94F4D40E9488D2C8
:105A000060937F077093800780938107909382074C
:105A10000C94C436F3EE6F2EFBE07F2EE3ED2E2EBA
:105A2000EBE03E2E7FE1472E7CE0572E8824992420
:105A3000F401E555FC4F80810E94B41D882309F4D0
:105A40005DC053E0851609F052C00E94061E5B013E
:105A50006C0120E030E040EA51E40E9414D2882337
:105A60000CF03FC0F3016081718182819381A601B6
:105A700095010E941BD27B018C016091170C7091E3
:105A8000180C8091190C90911A0CA80197010E9492
:105A9000F4D46093170C7093180C8093190C9093A6
:105AA0001A0CF1016081718182819381A8019701B3
:105AB0000E94F4D4F1016083718382839383F201A5
:105AC00060817181828193810E94B4D2A801970183
:105AD0000E94F4D40E9488D2F20160837183828391
:105AE0009383F301A082B182C282D38207C00E9455
:105AF000061EF30160837183828393830894811C63
:105B0000911C24E030E0620E731E220E331E420E02
:105B1000531E34E08316910409F08ACF0C94C436E6
:105B2000E2E9F3E0949108C08091C00085FFFCCFCA
:105B30009093C600319694919923B1F70C94C43692
:105B40008091AE079091AF0705966AE270E00E94DF
:105B50000011FC01009711F0319710828091AE077F
:105B60009091AF0705960E94EAC90C94C436EFE8FD
:105B7000F3E0949108C08091C00085FFFCCF909322
:105B8000C600319694919923B1F740912A0750911C
:105B90002B0760912C0770912D0781EC99E022E092
:105BA00030E00E94B440ECE8F3E0949108C08091AA
:105BB000C00085FFFCCF9093C60031969491992345
:105BC000B1F740912E0750912F07609130077091E7
:105BD000310781EC99E022E030E00E94B440E9E82E
:105BE000F3E0949108C08091C00085FFFCCF9093B2
:105BF000C600319694919923B1F7409132075091A4
:105C00003307609134077091350781EC99E022E009
:105C100030E00E94B440E6E8F3E0949108C080913F
:105C2000C00085FFFCCF9093C600319694919923D4
:105C3000B1F740913607509137076091380770915E
:105C4000390781EC99E022E030E00E94B440EBE7B4
:105C5000F3E0949108C08091C00085FFFCCF909341
:105C6000C600319694919923B1F780E00E94D267E3
:105C70000E94B6D22091E30B3091E40B4091E50BEA
:105C80005091E60B0E941BD2AB01BC0181EC99E064
:105C900022E030E00E94B440E8E7F3E0949108C0CD
:105CA0008091C00085FFFCCF9093C60031969491FF
:105CB0009923B1F781E00E94D2670E94B6D2209169
:105CC000E70B3091E80B4091E90B5091EA0B0E94F1
:105CD0001BD2AB01BC0181EC99E022E030E00E94D4
:105CE000B440E5E7F3E0949108C08091C00085FFDF
:105CF000FCCF9093C600319694919923B1F782E03E
:105D00000E94D2670E94B6D22091EB0B3091EC0B2F
:105D10004091ED0B5091EE0B0E941BD2AB01BC01E8
:105D200081EC99E022E030E00E94B440E5E7F2E047
:105D300007C08091C00085FFFCCF31969093C600CC
:105D400090819923B1F78091C00085FFFCCF8AE054
:105D50008093C6000C94C43680E00E94F4660C94D4
:105D6000C43681E00E94F4660C94C4368091C00071
:105D700085FFFCCF31969093C60090819923B1F7AF
:105D80008091C00085FFFCCF8AE08093C600EDE6DD
:105D9000F3E0949108C08091C00085FFFCCF909300
:105DA000C600319694919923B1F7009B03C0E8E7B0
:105DB000F2E00AC0EDE7F2E007C08091C00085FF85
:105DC000FCCF31969093C60090819923B1F78091D2
:105DD000C00085FFFCCF8AE08093C600E5E6F3E0D3
:105DE000949108C08091C00085FFFCCF9093C600BD
:105DF000319694919923B1F7029B03C0E8E7F2E052
:105E00000AC0EDE7F2E007C08091C00085FFFCCF3B
:105E100031969093C60090819923B1F78091C0008C
:105E200085FFFCCF8AE08093C600EDE5F3E0949116
:105E300008C08091C00085FFFCCF9093C6003196CA
:105E400094919923B1F7049B03C0E8E7F2E00AC0FC
:105E5000EDE7F2E007C08091C00085FFFCCF3196EE
:105E60009093C60090819923B1F78091C00085FF7F
:105E7000FCCF8AE08093C600E5E5F3E0949108C08A
:105E80008091C00085FFFCCF9093C600319694911D
:105E90009923B1F7069B03C0E8E7F2E00AC0EDE7FB
:105EA000F2E007C08091C00085FFFCCF319690934F
:105EB000C60090819923B1F78091C00085FFFCCF87
:105EC0008AE08093C600EDE4F3E0949108C08091ED
:105ED000C00085FFFCCF9093C60031969491992322
:105EE000B1F7379B03C0E8E7F2E00AC0EDE7F2E064
:105EF00007C08091C00085FFFCCF31969093C6000B
:105F000090819923B1F78091C00085FFFCCF8AE092
:105F10008093C600E5E4F3E0949108C08091C0004E
:105F200085FFFCCF9093C600319694919923B1F7E9
:105F3000359B03C0E8E7F2E00AC0EDE7F2E007C0F6
:105F40008091C00085FFFCCF31969093C600908170
:105F50009923B1F78091C00085FFFCCF8AE0809340
:105F6000C60012C70BEA13E063EFE62E6BE0F62ED5
:105F7000F80180810E94B41D882349F00E94061E0A
:105F80000E9488D2F70160837183828393830F5FBD
:105F90001F4F24E030E0E20EF31E33E00F3A130708
:105FA00039F70E944155F0C60BEA13E053EDE52E98
:105FB0005BE0F52EF80180810E94B41D882339F042
:105FC0000E94061EF70160837183828393830F5FB3
:105FD0001F4F24E030E0E20EF31E33E00F3A1307C8
:105FE00049F7D2C683E50E94B41D882351F00E9470
:105FF000061E6093070C7093080C8093090C909315
:106000000A0C84E50E94B41D882309F4BDC60E94D1
:10601000061E60930B0C70930C0C80930D0C9093E8
:106020000E0CB2C683E50E94B41D882351F00E9475
:10603000061E6093030C7093040C8093050C9093E0
:10604000060C84E50E94B41D882351F00E94061EB0
:1060500060931B0C70931C0C80931D0C90931E0C72
:1060600082E40E94B41D882361F00E94061E0E94F3
:1060700088D26093CF0B7093D00B8093D10B909309
:10608000D20B88E50E94B41D882351F00E94061EA1
:1060900060930F0C7093100C8093110C9093120C62
:1060A0008AE50E94B41D882351F00E94061E609369
:1060B000130C7093140C8093150C9093160C85E4BC
:1060C0000E94B41D882309F45FC60E94061E6093D7
:1060D000170C7093180C8093190C90931A0C54C6DB
:1060E0000BEA13E04AE3E42E47E0F42EF801808146
:1060F0000E94B41D882339F00E94061EF7016083B8
:106100007183828393830F5F1F4F24E030E0E20EA0
:10611000F31E33E00E3A130749F736C68AED90E0D6
:106120000E94101E882309F02FC688E50E94B41D26
:10613000882389F080917207082F10E00E94061EC4
:10614000000F111F000F111F0B5A184FF801608329
:1061500071838283938389E50E94B41D882389F02B
:1061600080917207082F10E00E94061E000F111F79
:10617000000F111F035A184FF80160837183828347
:106180009383EFE4F2E0949108C08091C00085FF12
:10619000FCCF9093C600319694919923B1F7E5E333
:1061A000F3E0949108C08091C00085FFFCCF9093EC
:1061B000C600319694919923B1F71092720740C0AE
:1061C0008091C00085FFFCCF11969093C6009C91F2
:1061D0009923B1F7F0E0EE0FFF1FEE0FFF1FEB5A10
:1061E000F84F408151816281738181EC99E022E016
:1061F00030E00E94B440E7E8F2E007C08091C000C0
:1062000085FFFCCF31969093C60090819923B1F71A
:10621000E0917207F0E0EE0FFF1FEE0FFF1FE35A51
:10622000F84F408151816281738181EC99E022E0D5
:1062300030E00E94B440809172078F5F80937207B4
:10624000E0917207E23018F0E5E7F2E00AC0A9E851
:10625000B2E0BDCF8091C00085FFFCCF3196909316
:10626000C60090819923B1F78091C00085FFFCCFD3
:106270008AE08093C60088C583E50E94B41D882308
:1062800009F482C50E94061E0E9483D270935603B1
:106290006093550379C583E50E94B41D882309F4F2
:1062A00073C50E94061E0E9483D2709358036093A8
:1062B00057036AC580E50E94B41D882309F464C5AC
:1062C0000E94061E0E9483D27B0183E50E94B41DBA
:1062D000882319F40FEF1FEF05C00E94061E0E94CD
:1062E00083D28B01C8010196039708F04DC5EFEAF0
:1062F000F3E0808191818E159F0509F445C53296A2
:1063000024E0EF32F207A9F7F7FC3EC50E940768C8
:10631000DE2C8E2D60E00E94CB150115110541F099
:106320000130110579F03FEF0F3F1307A1F403C0CF
:1063300000E010E010C08E2D0E94B11600E010E0C9
:10634000892B49F401E010E006C00E9439750E94D3
:10635000101A0E94A1CA8D2D0E94B11680179107B4
:10636000A1F712C583E50E94B41D882321F41EE61F
:10637000C12ED12C05C00E94061E0E9483D26B0143
:1063800080E50E94B41D882319F468EE73E004C010
:106390000E94061E0E9483D27B010027F7FC009515
:1063A000102F1C141D0484F482E1B60120E030E0BB
:1063B00040E050E00E942693C801B7010E942614D5
:1063C00082E10E94AF92E0C4C801B7010E94261486
:1063D000DBC480E50E94B41D882351F00E94061E94
:1063E0006093790370937A0380937B0390937C038B
:1063F00089E40E94B41D882361F00E94061E0E9459
:10640000507060937D0370937E0380937F0390931D
:10641000800384E40E94B41D882361F00E94061E5C
:106420000E945E7060938103709382038093830364
:106430009093840383E40E94B41D882351F00E944A
:10644000061E609385037093860380938703909361
:1064500088030E940C70EBE8F2E007C08091C00056
:1064600085FFFCCF31969093C60090819923B1F7B8
:10647000EEE8F2E007C08091C00085FFFCCF3196C6
:106480009093C60090819923B1F740917903509180
:106490007A0360917B0370917C0381EC99E022E0A8
:1064A00030E00E94B440E2E9F2E007C08091C00011
:1064B00085FFFCCF31969093C60090819923B1F768
:1064C00060917D0370917E0380917F0390918003A2
:1064D0000E945770AB01BC0181EC99E022E030E0F2
:1064E0000E94B440E6E9F2E007C08091C00085FF59
:1064F000FCCF31969093C60090819923B1F76091BB
:1065000081037091820380918303909184030E94A0
:106510006570AB01BC0181EC99E022E030E00E94A3
:10652000B440EAE9F2E007C08091C00085FFFCCFEB
:1065300031969093C60090819923B1F740918503DD
:1065400050918603609187037091880381EC99E0F4
:1065500022E030E00E94B440E5E7F2E007C080911D
:10656000C00085FFFCCF31969093C600908199239F
:10657000B1F78091C00085FFFCCF8AE08093C60010
:1065800003C483E50E94B41D882329F460E070E011
:1065900080E090E002C00E94061E0E943855F4C3BD
:1065A00085E40E94B41D882319F4CC24DD2412C094
:1065B0000E94061E0E9483D26B0177FF0BC00F2E34
:1065C000F0E0EF2EF0E0FF2EFCE80F2FF2E41F2F9B
:1065D000F02D0AC00F2EF0E0EF2EF0E0FF2EF6E1D6
:1065E0000F2FF3E41F2FF02D83E50E94B41D8823A5
:1065F00021F00E94061E7B018C0183E40E94B41DE1
:10660000882319F425E030E005C00E94061E0E9490
:1066100083D29B01C801B701A6010E94AA77B4C327
:106620000E940768B1C30E947189AEC30E94A19005
:10663000ABC30E94BE8BA8C30E946B8DA5C3A09064
:106640002A07B0902B07C0902C07D0902D07A98265
:10665000BA82CB82DC82E0902E07F0902F07009167
:10666000300710913107ED82FE820F831887209149
:10667000320730913307409134075091350729870D
:106680003A874B875C878091360790913707A091B6
:106690003807B09139078D879E87AF87B88BA98A55
:1066A000BA8ACB8ADC8AED8AFE8A0F8B188F298FF3
:1066B0003A8F4B8F5C8F8D8F9E8FAF8FB8A385E401
:1066C0000E94B41D882369F0ED84FE840F8518892B
:1066D0000E94061E9B01AC01C801B7010E943BD17C
:1066E0000AC06D857E858F85988920E030E040E086
:1066F00050E40E943AD16D877E878F87988B609196
:106700006B0370916C0380916D0390916E0320E098
:1067100030E040E752E40E941BD27B018C01CE01A5
:106720000196BE016B5F7F4FAE01475F5F4F9E01D9
:10673000235F3F4FB5E6CB2EB7E0DB2E0E94995A80
:106740008AE50E94B41D882359F0E984FA840B85F8
:106750001C850E94061E9B01AC01C801B70108C040
:1067600069857A858B859C8520E030E040E251E4A4
:106770000E943BD169877A878B879C8760916B03E6
:1067800070916C0380916D0390916E0320E030E076
:1067900040E752E40E941BD27B018C01CE0101969E
:1067A000BE016B5F7F4FAE01475F5F4F9E01235F6E
:1067B0003F4FA5E6CA2EA7E0DA2E0E94995A88E537
:1067C0000E94B41D882389F0E980FA800B811C8126
:1067D0000E94061E9B01AC01C801B7010E943BD17B
:1067E00069837A838B839C8308C080E090E0A0E477
:1067F000B0E489839A83AB83BC8389E50E94B41D8E
:10680000882339F00E94061E6D837E838F839887CC
:1068100008C080E090E0A0E4B0E48D839E83AF8365
:10682000B88760916B0370916C0380916D039091B8
:106830006E0320E030E040E752E40E941BD27B016F
:106840008C01CE010196BE016B5F7F4FAE01475FA9
:106850005F4F9E01235F3F4FF5E6CF2EF7E0DF2E1F
:106860000E94995A8CE40E94B41D882369F0ED843B
:10687000FE840F8518890E94061E9B01AC01C80189
:10688000B7010E943BD10AC06D857E858F859889AE
:1068900020E030E048EC52E40E943AD16D877E87D8
:1068A0008F87988B60916B0370916C0380916D035F
:1068B00090916E0320E030E040E752E40E941BD24A
:1068C0007B018C01CE010196BE016B5F7F4FAE0153
:1068D000475F5F4F9E01235F3F4FE5E6CE2EE7E027
:1068E000DE2E0E94995A0E940768A09A9FB7F894DA
:1068F00080910B01826080930B019FBF64E670E082
:1069000080E090E00E94261485E293E00E94D6C9C0
:1069100010E018C01F5F0E9439750E94101A0E9473
:10692000A1CA112379F4539A5B9A63E070E080E086
:1069300090E00E9426145B9863E070E080E090E0B5
:106940000E9426140E942396882321F38CE40E943F
:10695000B41D882369F0ED84FE840F8518890E9498
:10696000061E9B01AC01C801B7010E943AD10AC0C2
:106970006D857E858F85988920E030E048EC52E473
:106980000E943BD16D877E878F87988B8D859E85F2
:10699000AF85B8898093360790933707A09338075F
:1069A000B093390786E397E00E946C55B9E04B2E0F
:1069B000512C4C0E5D1EADE06A2E712C6C0E7D1EAE
:1069C00060916B0370916C0380916D0390916E03E5
:1069D00020E030E040E752E40E941BD27B018C01B2
:1069E000CE010196BE016B5F7F4FA2019301F5E6D8
:1069F000CF2EF7E0DF2E0E94995AE1E1AE2EB12CA6
:106A0000AC0EBD1E75E1872E912C8C0E9D1E6091E3
:106A10006B0370916C0380916D0390916E0320E085
:106A200030E040E752E40E941BD27B018C01C5019B
:106A3000B401A20193010E94995A69E1462E512C9A
:106A40004C0E5D1E60916B0370916C0380916D0321
:106A500090916E0320E030E040E752E40E941BD2A8
:106A60007B018C01C501B401A20193010E94995AD6
:106A700060916B0370916C0380916D0390916E0334
:106A800020E030E040E752E40E941BD27B018C0101
:106A9000C501B401A2019E01235E3F4F0E94995A95
:106AA00073C1109270070E94209680917707909191
:106AB0007807A0917907B0917A0780937307909334
:106AC0007407A0937507B09376070E94F71B5CC10B
:106AD00084E50E94B41D882309F40BC10E94061EA0
:106AE0000E9488D2262F609372076230B8F1EFE4DB
:106AF000F2E0949108C08091C00085FFFCCF909394
:106B0000C600319694919923B1F7EEE9F2E007C0FF
:106B10008091C00085FFFCCF31969093C600908194
:106B20009923B1F781EC99E0622F40E050E00E9498
:106B3000923FE0EAF2E007C08091C00085FFFCCF01
:106B400031969093C60090819923B1F78091C0004F
:106B500085FFFCCF8AE08093C60016C186E40E94C0
:106B6000B41D882311F4EE241EC00E94061E7B0172
:106B70008C016093A0077093A1078093A207909364
:106B8000A30720E030E040E050E00E9422D4181635
:106B900044F4E0926B03F0926C0300936D03109346
:106BA0006E03EE24E3949091720780916507981725
:106BB00009F473C0AFE8B7E0EAE2F7E080E10190E2
:106BC0000D928150E1F720916507C22EDD24CC0C97
:106BD000DD1CCC0CDD1CF601EB5AF84F60912A0746
:106BE00070912B0780912C0790912D072081318186
:106BF000428153810E943AD1F09072070F2D10E02C
:106C0000000F111F000F111FF801EB5AF84F2081E0
:106C10003181428153810E943BD160932A07709356
:106C20002B0780932C0790932D074DE557E0C40E5A
:106C3000D51E60912E0770912F078091300790919B
:106C40003107F60120813181428153810E943AD17E
:106C5000035A184FF80120813181428153810E94EB
:106C60003BD160932E0770932F078093300790934A
:106C70003107F09265078AE297E06EE277E042E33F
:106C800057E026E337E00E948A55EE2031F08091EC
:106C90007007882311F40E94391BEFE4F2E094910D
:106CA00008C08091C00085FFFCCF9093C60031964C
:106CB00094919923B1F7E1EBF2E007C08091C00015
:106CC00085FFFCCF31969093C60090819923B1F750
:106CD0006091650781EC99E070E04AE050E00E9425
:106CE000D93F8091C00085FFFCCF8AE08093C60029
:106CF0004BC0EFE4F2E0949108C08091C00085FFA2
:106D0000FCCF9093C600319694919923B1F7E2E1BC
:106D1000F3E0949108C08091C00085FFFCCF909370
:106D2000C600319694919923B1F72091A407309130
:106D3000A50780E690E0289FF001299FF00D389F7D
:106D4000F00D1124E055F84F07C08091C00085FF79
:106D5000FCCF31969093C60090819923B1F7E0E182
:106D6000F3E0949108C08091C00085FFFCCF909320
:106D7000C600319694919923B1F78091C00085FFA8
:106D8000FCCF8AE08093C6000E94E71924C08EE9F8
:106D900094E00E94C7C90E9418146093680770931A
:106DA000690780936A0790936B070E941814609399
:106DB0007B0770937C0780937D0790937E07E4CFD9
:106DC0000E94076888E50E94B41D882311F00C9486
:106DD000CE2C0C94D12CEE960FB6F894DEBF0FBEDD
:106DE000CDBFCF91DF911F910F91FF90EF90DF907A
:106DF000CF90BF90AF909F908F907F906F905F905B
:106E00004F903F902F9008952F923F924F925F9214
:106E10006F927F928F929F92AF92BF92CF92DF92AA
:106E2000EF92FF920F931F93DF93CF93CDB7DEB70F
:106E30006E970FB6F894DEBF0FBECDBF80E6A82ECA
:106E4000B12CE2EBF5E084900AE0702EE8E2F6E087
:106E500094906624639413C22D3071F02A3321F488
:106E600080913109882341F0809132099091330952
:106E70008F3591050CF4DFC1E0913209F0913309AF
:106E8000309709F404C3A0913409B0913509AA9D43
:106E90007001AB9DF00CBA9DF00C1124EE0DFF1D9E
:106EA000E055F84F108280913109882309F0BEC166
:106EB00010923109AA55B84F1C9287010055184FFE
:106EC000C8016EE470E00E9400119C01009709F473
:106ED000F7C09093AF078093AE072F5F3F4F201B03
:106EE000310B2E0D3F1DC9018055984F60E070E0B9
:106EF0004AE050E00E94680F6093360970933709AA
:106F00008093380990933909C0907307D090740723
:106F1000E0907507F0907607A70196012F5F3F4F2D
:106F20004F4F5F4F621773078407950709F457C3E4
:106F300080913409909135099C012A9DC0012B9DB7
:106F4000900D3A9D900D11248055984F61ED76E09B
:106F50000E94C510892B09F042C3E5E5F2E0949147
:106F600008C08091C00085FFFCCF9093C600319689
:106F700094919923B1F7EEE9F6E0949108C08091DD
:106F8000C00085FFFCCF9093C60031969491992361
:106F9000B1F781EC99E0B701A6012AE030E00E9448
:106FA000A43F8091C00085FFFCCF73C0FE264F5FD9
:106FB000FC01E40FF11DE055F84FE081EA32B1F732
:106FC0003093AF072093AE07C901019660E070E0EF
:106FD0000E94080E0E9483D22F2D30E0261737071B
:106FE00009F45DC0E5E5F2E0949108C08091C0002D
:106FF00085FFFCCF9093C600319694919923B1F709
:10700000EFE7F6E0949108C08091C00085FFFCCFC7
:107010009093C600319694919923B1F740917307EC
:1070200050917407609175077091760781EC99E033
:107030002AE030E00E94A43F8091C00085FFFCCF91
:1070400028C0E5E5F2E0949108C08091C00085FF7A
:10705000FCCF9093C600319694919923B1F7E5E562
:10706000F6E0949108C08091C00085FFFCCF90931A
:10707000C600319694919923B1F781EC99E0B7015C
:10708000A6012AE030E00E94A43F8091C00085FF65
:10709000FCCF8AE08093C6000E94F71B4AC0809113
:1070A000360990913709A0913809B0913909809338
:1070B000730790937407A0937507B09376073EC04B
:1070C000C8016AE270E00E940011009709F436C01E
:1070D000E5E5F2E0949108C08091C00085FFFCCF07
:1070E0009093C600319694919923B1F7EBE2F6E0C4
:1070F000949108C08091C00085FFFCCF9093C6009A
:10710000319694919923B1F7409173075091740788
:10711000609175077091760781EC99E02AE030E084
:107120000E94A43F8091C00085FFFCCF8AE080933D
:10713000C600109233091092320970C2809134094E
:10714000909135098A9D70018B9DF00C9A9DF00CF1
:10715000112487010055184FC80167E470E00E94B0
:1071600000119C01009709F44BC09093AF078093E6
:10717000AE072F5F3F4F201B310B2E0D3F1DC90166
:107180008055984F60E070E00E94080E0E9483D204
:1071900064307105A8F5809170078823C9F4809147
:1071A0009704882369F5992DE8E2F6E008C08091FC
:1071B000C00085FFFCCF9093C6003196949199232F
:1071C000B1F78091C00085FFFCCF7092C60018C057
:1071D000982DE2EBF5E008C08091C00085FFFCCF60
:1071E0009093C600319694919923B1F78091C00095
:1071F00085FFFCCF7092C60088EA95E00E94C7C95F
:107200008091340990913509019664E070E00E9404
:10721000F9D5909335098093340980913A0990917A
:107220003B09019690933B0980933A0910923309E8
:107230001092320924C02B3311F4609231098091ED
:1072400031098823E1F4209132093091330980918A
:107250003409909135098A9DF0018B9DF00D9A9D1E
:10726000F00D1124E20FF31FE055F84F8091300923
:1072700080832F5F3F4F30933309209332098091F1
:10728000BD099091BE092091BF093091C009821BB0
:10729000930B8F779070892B09F4BBC180913A09C9
:1072A00090913B0904970CF0B4C181EC99E00E94E5
:1072B000C53E282F809330098A3009F0CDCDDCCD32
:1072C0008091320990913309892B09F0A7C18091EF
:1072D0003A0990913B09892B09F02FC110923C0982
:1072E0002CC14D3099F0433211F04A3321F4809192
:1072F0003109882359F080913209909133098F35F3
:10730000910524F42F5F3F4F09F0F2C020911A0736
:1073100030911B0740911C0750911D078091120767
:1073200090911307A0911407B091150728173907FA
:107330004A075B0708F49EC0932DE5E9F5E008C015
:107340008091C00085FFFCCF9093C6003196949148
:107350009923B1F78091C00085FFFCCF2092C60031
:107360000E94181460936C0770936D0780936E07EA
:1073700090936F07209168073091690740916A07E1
:1073800050916B07621B730B840B950B28EE33E057
:1073900040E050E00E940CD6F22EE32ED42EC52EF3
:1073A000EDB7FEB738970FB6F894FEBF0FBEEDBF2E
:1073B0000DB71EB70F5F1F4FB282A182F801538233
:1073C0004282622F732F842F952F20E13EE040E010
:1073D00050E00E940CD6F801358324836F2D7E2D5A
:1073E0008D2D9C2D2CE330E040E050E00E940CD627
:1073F000CA01B9012CE330E040E050E00E940CD615
:10740000F801778366830E942F11982DEFE4F2E054
:107410002DB73EB7285F3F4F0FB6F8943EBF0FBE63
:107420002DBF08C08091C00085FFFCCF9093C6009F
:10743000319694919923B1F7F50107C08091C0006E
:1074400085FFFCCF31969093C60090819923B1F7C8
:107450008091C00085FFFCCF2092C600C5010E942C
:10746000EAC987E994E00E94838387E994E061E0B8
:107470000E94C78480913009833211F490923C09B4
:1074800020913209309133092115310519F41092F8
:107490003109C4C08091340990913509869DF0016D
:1074A000879DF00D969DF00D1124E20FF31FE0551E
:1074B000F84F1082FC01EA55F84F908220913A096A
:1074C00030913B092F5F3F4F30933B0920933A099E
:1074D000019664E070E00E94F9D59093350980939D
:1074E00034091092310910923309109232093AC0CE
:1074F0004B3311F49092310980913109882391F531
:1075000020913209309133098091340990913509E5
:10751000869DF001879DF00D969DF00D1124E20FE0
:10752000F31FE055F84F8091300980832F5F3F4F64
:10753000309333092093320915C010E6612E712C67
:1075400099249394E5E9F5E03490BAE02B2E5E019E
:107550000894A11CB11CA1E84A2EA5E05A2EEFE424
:10756000F2E0849020911A0730911B0740911C078C
:1075700050911D078091120790911307A091140755
:10758000B0911507281739074A075B0708F046C06E
:1075900080913A0990913B0904970CF03FC080918B
:1075A0003C098823D9F580916D0690916E06A091D3
:1075B0006F06B091700680931A0790931B07A093F3
:1075C0001C07B0931D0785E696E00E947E479C014C
:1075D000482F809330098A3009F083CE97CE80916E
:1075E0003409909135098A9D80018B9D100D9A9DDB
:1075F000100D1124C8018055984F6AE270E00E9476
:1076000000119C01009709F41CCDFF2440E0C80143
:10761000CFCC80919904882309F052CE6E960FB694
:10762000F894DEBF0FBECDBFCF91DF911F910F91B8
:10763000FF90EF90DF90CF90BF90AF909F908F9092
:107640007F906F905F904F903F902F900895CF93D1
:10765000DF9380913A0990913B09039714F40E94BB
:10766000043787E994E060E00E94C78480913A097A
:1076700090913B09892B09F46AC080919704882373
:1076800009F44DC02091A4073091A50780E690E051
:10769000289FE001299FD00D389FD00D1124C0559F
:1076A000D84FCE016BEE76E00E94C510892BE1F435
:1076B00087E994E0BE010E94707D80919804882340
:1076C00071F5E8EEF6E0949108C08091C00085FF66
:1076D000FCCF9093C600319694919923B1F7809195
:1076E000C00085FFFCCF17C087E994E060E00E94EE
:1076F000577DE6EDF6E0949108C08091C00085FFCB
:10770000FCCF9093C600319694919923B1F7809164
:10771000C00085FFFCCF8AE08093C60002C00E94B3
:107720004C1F80913A0990913B09019790933B0936
:1077300080933A098091A4079091A507019664E08F
:1077400070E00E94F9D59093A5078093A4070E944A
:1077500039750E94101A0E94626F0E94A1CADF91BF
:10776000CF910895DF93CF930F920F92CDB7DEB7ED
:10777000809A889A269A2E9881EC99E040E052EC03
:1077800061E070E00E948D3EEBEDF7E0949108C05F
:107790008091C00085FFFCCF9093C60031969491F4
:1077A0009923B1F78091C00085FFFCCF8AE08093D8
:1077B000C6004FE452E0FA01949108C08091C000E5
:1077C00085FFFCCF9093C600319694919923B1F731
:1077D00084B7282F80FF15C0E3EDF7E0949108C02F
:1077E0008091C00085FFFCCF9093C60031969491A4
:1077F0009923B1F78091C00085FFFCCF8AE0809388
:10780000C60021FF15C0E3ECF7E0949108C0809119
:10781000C00085FFFCCF9093C600319694919923C8
:10782000B1F78091C00085FFFCCF8AE08093C6004D
:1078300022FF15C0E2EBF7E0949108C08091C000F0
:1078400085FFFCCF9093C600319694919923B1F7B0
:107850008091C00085FFFCCF8AE08093C60023FFA3
:1078600015C0E2EAF7E0949108C08091C00085FF5E
:10787000FCCF9093C600319694919923B1F78091F3
:10788000C00085FFFCCF8AE08093C60025FF15C0AD
:10789000E2E9F7E0949108C08091C00085FFFCCF39
:1078A0009093C600319694919923B1F78091C000CE
:1078B00085FFFCCF8AE08093C60014BEEAE8F7E0BB
:1078C000949108C08091C00085FFFCCF9093C600C2
:1078D000319694919923B1F7EBE6F7E0949108C0C3
:1078E0008091C00085FFFCCF9093C60031969491A3
:1078F0009923B1F78091C00085FFFCCF8AE0809387
:10790000C600FA019491EFE4F2E008C08091C00053
:1079100085FFFCCF9093C600319694919923B1F7DF
:10792000EBE5F7E0949108C08091C00085FFFCCFA3
:107930009093C600319694919923B1F7E6E4F7E06D
:10794000949108C08091C00085FFFCCF9093C60041
:10795000319694919923B1F7EAE3F7E0949108C046
:107960008091C00085FFFCCF9093C6003196949122
:107970009923B1F7ECE2F7E0949108C08091C00040
:1079800085FFFCCF9093C600319694919923B1F76F
:107990008091C00085FFFCCF8AE08093C600E1E2C1
:1079A000F7E0949108C08091C00085FFFCCF9093D0
:1079B000C600319694919923B1F7E5E1F7E09491EF
:1079C00008C08091C00085FFFCCF9093C60031961F
:1079D00094919923B1F78091C00085FFFCCF8AE094
:1079E0008093C600FA019491EFE4F2E008C0809120
:1079F000C00085FFFCCF9093C600319694919923E7
:107A0000B1F7E6E0F7E0949108C08091C00085FFEF
:107A1000FCCF9093C600319694919923B1F72091B1
:107A2000831230918412CE0101962115310519F48B
:107A30008958924102C0821B930B9A838983698182
:107A40007A8181EC99E04AE050E00E94D93FEFEE64
:107A5000F6E0949108C08091C00085FFFCCF909320
:107A6000C600319694919923B1F781EC99E060EDCD
:107A700074E04AE050E00E94D93F8091C00085FF49
:107A8000FCCF8AE08093C6001092A6071092A70749
:107A90001092A8071092A9070E94A1900E94097451
:107AA0000E94D6570E946E920E94FD660E9477CB7C
:107AB00080E197E220E931E0F9013197F1F7019790
:107AC000D9F70F900F90CF91DF910895BC0180916D
:107AD0003A0990913B0904970CF070C02091340949
:107AE0003091350980E690E0AC01249FC001259FCC
:107AF000900D349F900D11248055984F0E9497103F
:107B0000EFE4F2E0949108C08091C00085FFFCCFC3
:107B10009093C600319694919923B1F7E3EEF7E084
:107B2000949108C08091C00085FFFCCF9093C6005F
:107B3000319694919923B1F7209134093091350908
:107B400080E690E0289FF001299FF00D389FF00D0E
:107B50001124E055F84F07C08091C00085FFFCCF8D
:107B600031969093C60090819923B1F7E1EEF7E04A
:107B7000949108C08091C00085FFFCCF9093C6000F
:107B8000319694919923B1F78091C00085FFFCCF85
:107B90008AE08093C600C901019664E070E00E940B
:107BA000F9D5909335098093340980913A099091E1
:107BB0003B09019690933B0980933A090895BC01D3
:107BC00080913A0990913B0904970CF070C0209184
:107BD00034093091350980E690E0AC01249FC00162
:107BE000259F900D349F900D11248055984F0E9431
:107BF0000B11EFE4F2E0949108C08091C00085FF82
:107C0000FCCF9093C600319694919923B1F7E0EFA1
:107C1000F7E0949108C08091C00085FFFCCF90935D
:107C2000C600319694919923B1F72091340930918F
:107C3000350980E690E0289FF001299FF00D389FDC
:107C4000F00D1124E055F84F07C08091C00085FF6A
:107C5000FCCF31969093C60090819923B1F7EEEE58
:107C6000F7E0949108C08091C00085FFFCCF90930D
:107C7000C600319694919923B1F78091C00085FF99
:107C8000FCCF8AE08093C600C901019664E070E0F1
:107C90000E94F9D5909335098093340980913A096F
:107CA00090913B09019690933B0980933A0908957E
:107CB0001F920F920FB60F920BB60F9211242F93B3
:107CC0003F934F938F939F93EF93FF934091C60001
:107CD000E091BD09F091BE0931969F012F77307078
:107CE00031978091BF099091C0092817390739F061
:107CF000E35CF64F40833093BE092093BD09FF91AA
:107D0000EF919F918F914F913F912F910F900BBECB
:107D10000F900FBE0F901F9018959A01AB01203065
:107D200081EE380780E0480780E0580749F182E09B
:107D30008093C00060E079E08DE390E00E942ED651
:107D40002150304040405040CA01B90122E030E0AB
:107D500040E050E00E942ED63093C5002093C4002E
:107D60008091C10080618093C1008091C1008860D2
:107D70008093C1008091C10080688093C100089504
:107D80001092C00020E130E0E7CF2091BF09309190
:107D9000C0098091BD099091BE098217930719F41B
:107DA0002FEF3FEF0EC0F901E35CF64F80812F5FAC
:107DB0003F4F2F7730703093C0092093BF09282F91
:107DC00030E0C90108958091BF099091C009909356
:107DD000BE098093BD09089508952F923F924F9256
:107DE0005F926F927F928F929F92AF92BF92CF924B
:107DF000DF92EF92FF920F931F93DF93CF93CDB754
:107E0000DEB7A0970FB6F894DEBF0FBECDBF1C0142
:107E10006A017B01411551056105710549F440E393
:107E200050E060E070E020E030E00E94A43F54C0E9
:107E3000882499245401422E55246624772401E095
:107E400010E00C0F1D1F080D191DC701B601A3017D
:107E500092010E940CD6F80160830894811C911C49
:107E6000A11CB11CC701B601A30192010E940CD64E
:107E7000C901DA016C017D01C114D104E104F104EE
:107E8000F1F681E0E82EF12CEC0EFD1EE80CF91C59
:107E90003E010894611C711CD501C4010197A10920
:107EA000B1096C01C818D90814C0F601EE0DFF1D08
:107EB00040814A3010F4405D01C0495C50E060E010
:107EC00070E0C10120E030E00E94A43F0894E10886
:107ED000F1086E147F0449F7A0960FB6F894DEBF40
:107EE0000FBECDBFCF91DF911F910F91FF90EF900B
:107EF000DF90CF90BF90AF909F908F907F906F90CA
:107F00005F904F903F902F9008952115310539F4DF
:107F10008091C00085FFFCCF4093C60008950E9469
:107F2000ED3E0895EF92FF920F931F939A01E62E74
:107F3000FF2400E010E0B801A7010E94853F1F91D7
:107F40000F91FF90EF900895EF92FF920F931F9380
:107F5000CF93DF93EC017A018B012115310539F4C0
:107F60008091C00085FFFCCFE092C6001BC02A3084
:107F70003105B1F477FF10C04DE250E060E070E0F1
:107F800020E030E00E94A43F10950095F094E0942A
:107F9000E11CF11C011D111DCE01B801A7012AE051
:107FA0000E94ED3EDF91CF911F910F91FF90EF90D6
:107FB0000895EF92FF920F931F937B019A01002780
:107FC000F7FC0095102FB801A7010E94A43F1F9154
:107FD0000F91FF90EF9008950F931F938C014DE048
:107FE00050E060E070E020E030E00E94A43FC80173
:107FF0004AE050E060E070E020E030E00E94A43F02
:108000001F910F910895CF92DF92EF92FF920F93FD
:108010001F938C019A016B01EE24FF24B701A60186
:108020000E94853FC8010E94EC3F1F910F91FF9075
:10803000EF90DF90CF9008959F92AF92BF92CF9232
:10804000DF92EF92FF920F931F93CF93DF93EC0198
:108050007A018B01922ECB01BA0120E030E040E0A2
:1080600050E00E9414D288236CF4CE014DE250E01F
:1080700060E070E020E030E00E94A43F17FB109524
:1080800017F9109520E030E040E05FE3AA240BC030
:10809000CA01B90120E030E040E251E40E941BD265
:1080A0009B01AC01A394A91498F3C801B7010E94E5
:1080B0003BD17B018C010E9488D25B016C010E9444
:1080C000B4D29B01AC01C801B7010E943AD17B0137
:1080D0008C01CE01B601A5012AE030E00E94853F67
:1080E0009920A1F1E3ECF2E007C08091C00085FF88
:1080F000FCCF31969093C60090819923B1F726C0AA
:10810000C801B70120E030E040E251E40E94F4D41D
:108110007B018C010E9483D25B016C01CC24B7FCF3
:10812000C094DC2CCE01B601A5012AE030E00E940B
:10813000A43FC601B5010E94B6D29B01AC01C801A3
:10814000B7010E943AD17B018C019A949920C1F623
:10815000DF91CF911F910F91FF90EF90DF90CF9023
:10816000BF90AF909F9008950E941C400895FF9289
:108170000F931F93CF93DF938B010E941814EB0191
:10818000FF24FA9409C00E9418146C1B7D0B601721
:10819000710710F080E008C0FEBC0DB407FEFDCFF3
:1081A0008EB58F3F81F781E0DF91CF911F910F91C5
:1081B000FF900895FC014281242F30E0C90195957C
:1081C000879580658CBD40FF02C080E004C080E0E0
:1081D000463009F081E08DBD808160E00E947E160E
:1081E0000895DF92EF92FF920F931F93CF93DF9347
:1081F000EC01D62E79018A010E94DA40CE016CE2B0
:1082000071E00E94B7408D2D80648EBD0DB407FED5
:10821000FDCF28E130E0D801C701022E04C0B69599
:10822000A795979587950A94D2F78EBD0DB407FE52
:10823000FDCF285030408FEF283F380761F7DD2011
:1082400011F485E906C088E0D81611F487E801C06A
:108250008FEF8EBD0DB407FEFDCF8CE0D81631F444
:108260008FEF8EBD0DB407FEFDCF8EB59FEF2FEFC4
:108270002EBD0DB407FEFDCF8EB587FF04C0992338
:1082800011F09150F5CF8B83DF91CF911F910F911A
:10829000FF90EF90DF900895FC01808161E00E94E3
:1082A0007E160895DC016EBDFA0120E030E00DB4C9
:1082B00007FEFDCF80818EBD0DB407FEFDCF81810D
:1082C0008EBD2E5F3F4F329682E02030380779F71F
:1082D0000DB407FEFDCF8FEF8EBD0DB407FEFDCFB1
:1082E0008FEF8EBD0DB407FEFDCF8FEF8EBD0DB4A9
:1082F00007FEFDCF8EB513968C9313978F71853043
:1083000011F481E0089583E111968C931197CD01CA
:108310000E944C4180E00895CF92DF92EF92FF924D
:108320000F931F93CF93DF93EC017A018B016901C7
:108330008C81833039F059E0EE0CFF1C001F111FB7
:108340005A95D1F7CE0168E1A80197010E94F1404A
:10835000882311F086E023C0CE016EEFA6010E94B3
:1083600052418823E9F0CE0168E572E00E94B740EF
:10837000882311F487E113C0CE016DE020E030E0E6
:1083800040E050E00E94F140882341F48FEF8EBD21
:108390000DB407FEFDCF8EB5882379F086E1898381
:1083A000CE010E944C4180E0DF91CF911F910F914F
:1083B000FF90EF90DF90CF900895CE010E944C4146
:1083C00081E0F2CFBF92CF92DF92EF92FF920F93B4
:1083D0001F93CF93DF93EC016B017A010E94181475
:1083E0008B01BB24BA9409C00E941814601B710B46
:1083F0006D52714010F081E10BC0BEBC0DB407FEA0
:10840000FDCF8EB58B838F3F79F38E3F39F08FE0B0
:108410008983CE010E944C4180E02FC0D701119783
:10842000EF28D9F08FEF8EBD20E030E09FEF0BC03A
:108430000DB407FEFDCF8EB5F601E20FF31F80836A
:108440009EBD2F5F3F4F2A173B0790F30DB407FEE9
:10845000FDCF8EB5AC0DBD1D8C938FEF8EBD0DB4D1
:1084600007FEFDCF8EB58FEF8EBD0DB407FEFDCF9D
:108470008EB5CE010E944C4181E0DF91CF911F91DA
:108480000F91FF90EF90DF90CF90BF900895CF9223
:10849000DF92EF92FF920F931F93CF93DF93EC0144
:1084A0007A018B0169018C81833039F0A9E0EE0CEF
:1084B000FF1C001F111FAA95D1F7CE0161E1A80191
:1084C00097010E94F140882339F084E08983CE012E
:1084D0000E944C4180E006C0CE01B60140E052E06F
:1084E0000E94E241DF91CF911F910F91FF90EF9099
:1084F000DF90CF900895BF92CF92DF92EF92FF92DC
:108500000F931F93CF93DF93EC01B62E1C82198239
:1085100048830E9418146B01888161E00E94CB158A
:10852000CE010E944C4182E360E00E94CB1583E3C0
:1085300061E00E94CB1584E361E00E94CB1585E3E6
:1085400061E00E94CB1585E361E00E947E1685E024
:108550008A8382E58CBD1DBC80E09FEF9EBD0DB47B
:1085600007FEFDCF8F5F8A30C9F709C00E9418143B
:108570006C197D09615D774010F081E05EC0CE012D
:1085800060E020E030E040E050E00E94F140182F31
:108590008B83813059F7CE0168E02AEA31E040E070
:1085A00050E00E94F14082FF02C01C8311C080E0B5
:1085B0002FEF2EBD0DB407FEFDCF9EB58F5F84302B
:1085C000C1F79B839A3A11F082E037C082E08C8336
:1085D0008C81823021F0EE24FF2487010FC0E12C32
:1085E000F12C012D00E4102F09C00E9418146C1901
:1085F0007D09615D774010F08AE01FC0CE0167E31E
:1086000020E030E040E050E00E94F140CE0169E21D
:10861000A80197010E94F1408B83882331F78C8158
:10862000823029F5CE016AE320E030E040E050E0FE
:108630000E94F140882331F088E08983CE010E94B6
:108640004C4121C08FEF8EBD0DB407FEFDCF8EB51E
:10865000807C803C11F483E08C8380E09FEF9EBDA2
:108660000DB407FEFDCF2EB58F5F8330C1F7CE016D
:108670000E944C4186E08B1518F488E1898303C081
:10868000BA8281E001C080E0DF91CF911F910F910C
:10869000FF90EF90DF90CF90BF900895CF93DF933E
:1086A000EB01DC0190E020E03EE28C91803269F049
:1086B000283029F4FE01E90FF11D30839F5FFE0190
:1086C000E90FF11D8C9180839F5F2F5F11962B30F6
:1086D00061F7C90FD11D1882DF91CF910895CF9313
:1086E000DF93DC01EB01BA0180E090E020E2FE01C3
:1086F000E80FF91F208301968B309105C1F757E0F1
:1087000040E022C02E3219F08BEF97E007C05A30BC
:1087100049F15AE048E017C0321721F1FC010196F7
:1087200034913323C9F75417E8F02132D8F02F37AA
:10873000C8F4822F81568A3108F42052FE01E40FDA
:10874000F11D20834F5F11962C91222311F02F32BF
:10875000C9F6FB01B183A08390E08881803219F0D3
:1087600091E001C090E0892FDF91CF9108956F9241
:108770007F928F929F92AF92BF92CF92DF92EF92B1
:10878000FF920F931F93CF93DF93EC017A018B013C
:108790002B81222309F480C089899A89AB89BC89FD
:1087A00084179507A607B70708F476C085C0E114BB
:1087B000F1040105110551F41C821D821E821F82E5
:1087C000188619861A861B8681E067C02885398538
:1087D0004A855B85E98DFA8D858590E00996215063
:1087E00030404040504039014A01082E04C0969460
:1087F0008794779467940A94D2F72F5F3F4F4F4F37
:108800005F4F0894E108F108010911095701680157
:1088100004C0D694C794B794A7948A95D2F70894C5
:10882000E11CF11C011D111DA614B704C804D904D4
:1088300028F0211531054105510549F48D899E899E
:10884000AF89B88D8C839D83AE83BF8316C0A61875
:10885000B708C808D90811C04C815D816E817F813D
:10886000898D9A8D94010E94634F0894A108B108E4
:10887000C108D108882331F40FC084E0882E912CE0
:108880008C0E9D1EA114B104C104D10429F7E88601
:10889000F9860A871B8798CF80E0DF91CF911F91DF
:1088A0000F91FF90EF90DF90CF90BF90AF909F908F
:1088B0008F907F906F900895223009F078CFE7CFA6
:1088C000CF93DF93EC018C859D85AE85BF8540E01D
:1088D000611141E0BC01CD010E94394D882319F49A
:1088E00020E030E00AC08889282F30E095E0220F90
:1088F000331F9A95E1F72853364FC901DF91CF9185
:1089000008950F931F93CF93DF938C01FC01838114
:108910008823F1F1818187FF38C0C80161E00E949E
:108920006044EC010097A1F18881853E89F1F8014E
:108930008381823040F481899289A389B4898C8FA4
:108940009D8FAE8FBF8FF801858996899B8F8A8F07
:1089500085899689A789B08DCD01AA27BB279D8BD4
:108960008C8BE091C209F091C309309751F0BE01A0
:108970006A5E7F4FCE0148961995888D998D9B8BA5
:108980008A8BF80181818F7781830E94FE4C04C01D
:1089900081E0F801808380E0DF91CF911F910F91FA
:1089A00008950F931F938C010E948144F801138254
:1089B0001F910F910895FC018381882319F0CF0145
:1089C0000E94D1440895CF93DF93FC01EB01838192
:1089D000882391F08250823020F48FE288831982BC
:1089E00009C0CF0160E00E946044009729F0BE01F9
:1089F0000E944E4381E001C080E0DF91CF91089555
:108A00006F927F928F929F92AF92BF92CF92DF929E
:108A1000EF92FF920F931F93DF93CF9300D00F92AB
:108A2000CDB7DEB77C015A016B01DC0113968C9146
:108A30001397813009F091C011968C9181FF8DC000
:108A4000A0C00097A105B10511F481E087C0F7012E
:108A50006084718482849384C701B601A5010E9459
:108A6000B743882309F479C0D70159968D919C9119
:108A70005A97A114B104C104D10489F455964D91BB
:108A80005D916D917C9158970E94D94F882309F48C
:108A900064C0F701158A168A178A108E44C0D70160
:108AA00014964D915D916D917C9117979E012F5F6A
:108AB0003F4F0E94634F882309F44FC0D701599656
:108AC000ED91FC915A9749815A816B817C8187890C
:108AD000803149F4483FBFEF5B07B0E06B07B0E07F
:108AE0007B0748F020C0483F8FEF58078FEF68079B
:108AF0008FE07807C0F4CF010E94D94F882369F135
:108B0000D70114964D915D916D917C91179759966F
:108B10008D919C915A970FEF1FEF2FEF3FE00E942E
:108B2000DC4E8823D1F0F701A18AB28AC38AD48AA5
:108B3000818180688183C7010E948144882369F014
:108B4000B601A5016A147B048C049D0410F4B401E1
:108B5000A301C7010E94B74301C080E00F900F90AE
:108B60000F900F90CF91DF911F910F91FF90EF9099
:108B7000DF90CF90BF90AF909F908F907F906F903D
:108B80000895F70181899289A389B489841795078B
:108B9000A607B70708F055CFE0CFCF93DF93EC01DE
:108BA00040E050E060E070E00E940045882369F0FA
:108BB000CE0161E00E946044FC01009731F085EE37
:108BC00080831B820E94FE4C01C080E0DF91CF9128
:108BD00008952F923F924F925F926F927F928F9261
:108BE0009F92AF92BF92CF92DF92EF92FF920F933C
:108BF0001F93CF93DF93EC012A018B81882309F423
:108C0000B6C0898180FFB3C0C8C025014E185F0877
:108C10003B0174E0272E312C2C0E3D1E4201A1C0D9
:108C2000288539854A855B856FEFA62E61E0B62ED3
:108C3000A222B3228B8179018A0199E016950795CA
:108C4000F794E7949A95D1F7E98DFA8D823049F43B
:108C5000428D538D648D758D4E0D5F1D601F711F8C
:108C60003FC0D480DA94DE20A114B104D9F4DD2011
:108C7000C9F4211531054105510549F48D899E89B5
:108C8000AF89B88D8C839D83AE83BF830BC04C812D
:108C90005D816E817F81CF0191010E94634F8823A6
:108CA00009F465C0E98DFA8D4C815D816E817F810B
:108CB0004250504060407040058404C0440F551F2E
:108CC000661F771F0A94D2F786859785A089B18998
:108CD000480F591F6A1F7B1F4D0D511D611D711DCE
:108CE00080E092E08A199B0984018815990508F4AF
:108CF0008C0182E00030180709F067C08091C40938
:108D00009091C509A091C609B091C70948175907A4
:108D10006A077B0709F459C08091C80B9091C90B71
:108D200093010E944742882349F421C095012853AA
:108D3000364FC301B901A8010E94EC10600E711EEC
:108D4000980140E050E088859985AA85BB85820F0F
:108D5000931FA41FB51F88879987AA87BB87801A8E
:108D6000910A8114910409F05BCFA20102C04FEF78
:108D70005FEFCA01DF91CF911F910F91FF90EF90AC
:108D8000DF90CF90BF90AF909F908F907F906F902B
:108D90005F904F903F902F900895A988BA88CB8814
:108DA000DC88E884F9840A851B859A0140E050E05C
:108DB000D601C5018E199F09A00BB10B28173907E1
:108DC0004A075B0708F021CF23CFCB01BA0140E06F
:108DD0000E94394D882309F0A9CFC9CFCF92DF92E5
:108DE000EF92FF920F931F93CF93DF937C01EB01E0
:108DF0008A01FC018381823008F46FC080859185EF
:108E0000A285B3858F719070A070B0700097A10596
:108E1000B10509F062C06DC0F8011082EDE0CE2E00
:108E2000D12CC701BE0140E250E00E94E9459C01FF
:108E30008032910521F0009709F04FC050C0488161
:108E4000442309F44CC0453E61F34E3251F38B8507
:108E50008F738F30E9F501151105D1F18A8D9B8D46
:108E6000892BB1F5842F90E08F719070009781F17C
:108E7000833091056CF58C9D90018D9D300D9C9DEE
:108E8000300D11242D503040F801E20FF31F89817D
:108E900080838B8181838D8182838F818383898588
:108EA00084838E858583888986838A8987838C8954
:108EB00080878E898187888D82878C8D83878E8D30
:108EC0008487888186FF04C0F801E20FF31F1586AE
:108ED0008B8583FDA6CF822F03C08FEF01C080E07A
:108EE000DF91CF911F910F91FF90EF90DF90CF9086
:108EF00008954115510509F08FCF90CFDF93CF939F
:108F00000F92CDB7DEB7BE016F5F7F4F41E050E0FB
:108F10000E94E945019719F02FEF3FEF03C08981C7
:108F2000282F30E0C9010F90CF91DF910895EF9283
:108F3000FF920F931F93CF93DF93EC018B818230CD
:108F400038F1E884F9840A851B85CE010E947E47AA
:108F500097FD1EC088859985AA85BB854F96A11D62
:108F6000B11D88879987AA87BB87A5E016950795C5
:108F7000F794E794AA95D1F72E2D30E02F7030703A
:108F8000F5E0220F331FFA95E1F72853364F02C060
:108F900020E030E0C901DF91CF911F910F91FF9048
:108FA000EF9008950F931F93CF93DF93EC018B0104
:108FB0008B81882309F040C0FB018789803109F04B
:108FC00041C082E08B831D8A1E8A1F8A188E808D85
:108FD000918DA0E0B0E045E0880F991FAA1FBB1F4C
:108FE0004A95D1F7898B9A8BAB8BBC8B13C083E0EE
:108FF0008B83F801428D538D648D758D4D8B5E8B07
:109000006F8B788F9E012F5E3F4FC8010E943750B3
:10901000882391F01A8F098F81E089831C821D8239
:109020001E821F82188619861A861B861C861D863C
:109030001E861F86188A01C080E0DF91CF911F91A4
:109040000F9108958032C1F7D2CF1F93CF93DF9352
:10905000EC01142F262F30E0F90175E0EE0FFF1F11
:109060007A95E1F7E853F64F8385817121F0842FDB
:10907000827109F069C08091C4099091C509A091DD
:10908000C609B091C7098C879D87AE87BF87688B5B
:10909000F90165E0EE0FFF1F6A95E1F7E853F64F1F
:1090A00084899589A0E0B0E0DC01992788278D8B21
:1090B0009E8BAF8BB88F228D338DA90160E070E05D
:1090C000482B592B6A2B7B2B4D8B5E8B6F8B788FAC
:1090D000838590E088719070009751F4848D958D10
:1090E000A68DB78D898B9A8BAB8BBC8B81E00CC026
:1090F000409751F59E012F5E3F4F898D9A8D0E94BA
:109100003750882309F184E08B83812F8F70898306
:109110001C821D821E821F82188619861A861B8653
:1091200014FF18C0CE0140E050E060E070E00E9403
:109130000045882379F40AC049895A896B897C895A
:10914000CE010E94B74302C01B8280E0DF91CF9125
:109150001F91089515FDF0CF81E0F8CFCF93DF93F5
:10916000EC019C012C5F3F4F898D9A8D41E050E0CE
:1091700060E070E00E94A3508823A1F08D899E8951
:10918000AF89B88D0097A105B10559F48C819D81F7
:10919000AE81BF818D8B9E8BAF8BB88F89818068AC
:1091A000898381E0DF91CF9108952F923F924F9272
:1091B0005F927F928F929F92AF92BF92CF92DF92F7
:1091C000EF92FF920F931F93DF93CF9300D000D0C5
:1091D000CDB7DEB76C01162F072F5E834D83DC0100
:1091E00013968C911397813009F06FC111968C9171
:1091F00081FF6BC188C1F6014189528963897489F5
:1092000080859185A285B38584179507A607B70742
:1092100031F0C6010E94B743882309F456C1812F5B
:10922000902F9C0119014D805E8013C1D601599683
:10923000ED91FC915A97DA01C90149E0B695A795DD
:10924000979587954A95D1F774807A9478228FEF15
:10925000882E81E0982E82229322772009F053C035
:109260008114910409F04FC0D60114964D915D917F
:109270006D917C911797411551056105710581F438
:1092800055968D919D910D90BC91A02D0097A105B3
:10929000B10561F1F60184839583A683B78333C05A
:1092A000CF019E012F5F3F4F0E94634F882309F437
:1092B0000CC129813A814B815C81D6015996ED918F
:1092C000FC915A978789803149F4283FBFEF3B07CB
:1092D000B0E04B07B0E05B0778F008C0283FEFEF45
:1092E0003E07EFEF4E07EFE05E0730F0C6010E9449
:1092F000AE48882341F4E9C0D60114962D933D93DE
:109300004D935C93179780E092E088199909520178
:109310008415950508F45C01D6015996ED91FC91F0
:109320005A971496ED90FD900D911C9117978EEF22
:109330009FEFAFEFBFEFE80EF91E0A1F1B1F05845A
:1093400004C0EE0CFF1C001F111F0A94D2F7868583
:109350009785A089B189E80EF91E0A1F1B1FE70C2B
:10936000F11C011D111D90E0A91692E0B90639F516
:109370008091C4099091C509A091C609B091C7090F
:109380008E159F05A007B10771F41092CA0B8FEFDD
:109390009FEFAFEFBFEF8093C4099093C509A093EF
:1093A000C609B093C7098091C80B9091C90BB80149
:1093B000A70191010E948C418823B9F586C08114D0
:1093C000910419F5D60118962D913D914D915C911E
:1093D0001B9751968D919D910D90BC91A02D2817B2
:1093E00039074A075B0788F00E94FE4C882309F47E
:1093F0006CC081E08093CA0BE092C409F092C50969
:109400000093C6091093C70908C0C801B70141E01D
:109410000E94394D882309F458C094012853364FCF
:10942000C901B101A5010E94EC10950140E050E096
:10943000F60180859185A285B385820F931FA41FB5
:10944000B51F80879187A287B3872A0C3B1C4A18D7
:109450005B08D60118962D913D914D915C911B971B
:109460004114510409F0E2CE51968D919D910D90D9
:10947000BC91A02D82179307A407B50748F4F60105
:10948000218B328B438B548B81818068818311C007
:109490008091C2099091C309892B59F08D819E81D9
:1094A000892B39F0D60111968C911197806811960D
:1094B0008C93F601818183FF05C0C6010E9481441F
:1094C000882319F04D815E8105C081E0D6018C931F
:1094D0004FEF5FEFCA0126960FB6F894DEBF0FBEBE
:1094E000CDBFCF91DF911F910F91FF90EF90DF9053
:1094F000CF90BF90AF909F908F907F905F904F9054
:109500003F902F90089582FD76CE89CEDF92EF9224
:10951000FF920F931F93CF93DF93EC0189899A8970
:10952000AB89BC89805E9F4FAF41B04008F071C0ED
:10953000CE010E94AE48882309F46BC00E94FE4C05
:10954000882309F466C0E98DFA8DEC80FD800E81D8
:109550001F818EEF9FEFAFEFBFEFE80EF91E0A1FDE
:109560001B1F058404C0EE0CFF1C001F111F0A9472
:10957000D2F786859785A089B189E80EF91E0A1F62
:109580001B1F81E08093CA0BE092C409F092C509C9
:109590000093C6091093C70980E092E0E8ECF9E077
:1095A000DF019C011D9221503040E1F7DD24D3946E
:1095B00011C0B801A7014D0D511D611D711D809194
:1095C000C80B9091C90B28EC39E00E948C4188238C
:1095D00001F1D394E98DFA8D8481D81650F320E0FF
:1095E00032E040E050E0058404C0220F331F441FE6
:1095F000551F0A94D2F789899A89AB89BC89820F51
:10960000931FA41FB51F898B9A8BAB8BBC8B81E0FA
:1096100001C080E0DF91CF911F910F91FF90EF90FB
:10962000DF9008958F929F92AF92BF92CF92DF9278
:10963000EF92FF920F931F93CF93DF936C01EB0197
:10964000942E852EA22E898D9A8DD6015A969C93A2
:109650008E935997CB0140E050E060E070E00E94AB
:10966000B743BB2438C0CE010E949747FC01009746
:1096700009F493C055E016950795F794E7945A9529
:10968000D1F71E2D1F708081882311F0853EC9F40B
:10969000BB2099F42091C4093091C5094091C609B5
:1096A0005091C709D6011C962D933D934D935C9321
:1096B0001F9750961C93BB24B3948081882359F440
:1096C00018C0892D982DBF014BE050E00E94DF109B
:1096D000009709F470C0E884F9840A851B8589899C
:1096E0009A89AB89BC89E816F9060A071B0708F4B2
:1096F000BACFA6FE52C0A1FE50C0BB2051F0F60169
:109700001089C60161E00E946044EC01009769F491
:1097100044C08B81823009F440C0CE010E94864A49
:109720008823D9F110E0C8ECD9E080E2DE011D9277
:109730008A95E9F7DE01292D382DC901FC018BE05E
:1097400001900D928150E1F7E091C209F091C309B7
:10975000309739F0BE01625F7F4FCE014096199578
:1097600008C081E298E2998B888B80E098E09F871F
:109770008E87888999899B8B8A8B998F888F8E8514
:109780009F859F8B8E8B0E94FE4C882331F0C601F3
:10979000612F4A2D0E94254801C080E0DF91CF91C2
:1097A0001F910F91FF90EF90DF90CF90BF90AF90FF
:1097B0009F908F900895A7FEEACFEFCF2F923F9210
:1097C0004F925F926F927F928F929F92AF92BF92D1
:1097D000CF92DF92EF92FF920F931F93DF93CF937D
:1097E000CDB7DEB7C654D0400FB6F894DEBF0FBE7B
:1097F000CDBF3C016B01DE01AE5BBF4F11965C93A8
:109800004E9325962FAF25971C861F861FA21AA65A
:109810006115710509F480C0FC018381882309F07A
:109820007BC0FA0180818F32F1F08601ECE0EE2EF0
:10983000F12CEC0EFD1E72E4A72EB12CAC0EBD1E59
:109840004E010894811C911C2796FFAEEEAE27971F
:1098500067E2262E312C2C0E3D1E270124C01196C6
:10986000B183A08301C0FD01A081B1818C918F32B1
:10987000B1F3D60113968C91139782508230A8F2DF
:109880008E01095D1F4F59966D917C915A97C801C1
:109890000E94D247882351F63FC0342D252D8701E1
:1098A000832F922F7C01F50180819181B401A50164
:1098B0000E946F43882329F42FC03196D501ED9380
:1098C000FC93D501ED91FC9180818F32B1F3882317
:1098D000C9F0C701B801A40121E00E94124B8823FE
:1098E000D9F00C151D0519F0C8010E94D144279626
:1098F000EEADFFAD2797EE16FF0679F6C101322DCA
:10990000292FCDCFC301B801A40125962FAD2597EE
:109910000E94124B182F01C010E0CE0187960E94C2
:10992000DB44CE010C960E94DB44812FCA5BDF4FE3
:109930000FB6F894DEBF0FBECDBFCF91DF911F9160
:109940000F91FF90EF90DF90CF90BF90AF909F90DE
:109950008F907F906F905F904F903F902F900895E1
:109960000F931F93DF93CF93CDB7DEB76B970FB6EF
:10997000F894DEBF0FBECDBF9C01AB0119821C82E3
:109980008E010F5F1F4FC801B90122E00E94DE4B1C
:10999000882311F410E004C0C8010E94CD45182F9F
:1099A000CE0101960E94DB44812F6B960FB6F8948E
:1099B000DEBF0FBECDBFCF91DF911F910F910895F4
:1099C000DB010D900020E9F71197A61BB70B049659
:1099D000AD010E94D5480895DF93CF930F92CDB784
:1099E000DEB769830496BE016F5F7F4F41E050E0B0
:1099F0000E94D5480F90CF91DF9108958091CA0BB6
:109A0000882399F14091C4095091C5096091C60914
:109A10007091C7098091C80B9091C90B28EC39E06F
:109A20000E948C41882319F14091CB0B5091CC0BB3
:109A30006091CD0B7091CE0B4115510561057105FB
:109A400091F08091C80B9091C90B28EC39E00E94ED
:109A50008C41882361F01092CB0B1092CC0B1092AA
:109A6000CD0B1092CE0B1092CA0B81E0089580E0CE
:109A70000895DF92EF92FF920F931F937B018C0169
:109A8000D42E8091C4099091C509A091C609B091C6
:109A9000C7098E159F05A007B107C1F00E94FE4CB3
:109AA0008823E1F08091C80B9091C90BB801A70100
:109AB00028EC39E00E944742882381F0E092C409F3
:109AC000F092C5090093C6091093C709DD2011F46F
:109AD00081E005C081E08093CA0B01C080E01F9146
:109AE0000F91FF90EF90DF9008958F929F92AF9229
:109AF000BF92CF92DF92EF92FF920F931F93CF937B
:109B0000DF936C01142F7093C90B6093C80BFC0199
:109B1000178A82E090E0A0E0B0E080839183A28386
:109B2000B3831092CA0B1092CB0B1092CC0B1092F5
:109B3000CD0B1092CE0B8FEF9FEFAFEFBFEF809367
:109B4000C4099093C509A093C609B093C7094423DB
:109B500021F488249924540140C0453008F01EC1E6
:109B600060E070E080E090E040E00E94394D8823A2
:109B700009F414C1C12FD0E02197FE0174E0EE0F6B
:109B8000FF1F7A95E1F7E853F64FE254FE4F8081CC
:109B9000EE5BF14090E08F779070892B09F0FEC06A
:109BA000E653FE4F80819181A281B3818436910575
:109BB000A105B10508F4F2C064E0CC0FDD1F6A9581
:109BC000E1F7C257D44F88809980AA80BB80811466
:109BD0009104A104B10409F4E1C0C501B40140E05D
:109BE0000E94394D882309F4D9C08091D3099091FE
:109BF000D4098050924009F0D1C02091D809222385
:109C000009F4CCC08091D6099091D709892B09F429
:109C1000C5C08091D509882309F4C0C0F601228B04
:109C20008091D5098483158661E070E007C04F5F9D
:109C3000F60145874150483008F0B0C0F60145852F
:109C4000848190E09B01042E02C0220F331F0A94EE
:109C5000E2F78217930759F72091DE093091DF0967
:109C60002115310519F040E050E008C02091EC09C1
:109C70003091ED094091EE095091EF09F6012583ED
:109C8000368347835087E090D609F090D70900E0EB
:109C900010E0E80CF91C0A1D1B1DE38AF48A058BF1
:109CA000168B8091D9099091DA09918F808F6091FC
:109CB000D80970E080E090E00E94C6D56E0D7F1D4F
:109CC000801F911FF601628F738F848F958F209173
:109CD000D9093091DA0955E0220F331F5A95E1F77F
:109CE00021503E4F232F3327269540E050E0260F8A
:109CF000371F481F591F26873787408B518B80910C
:109D0000DB099091DC09009719F0A0E0B0E008C0F1
:109D10008091E8099091E909A091EA09B091EB09D5
:109D200085017401E21AF30A040B150BA8019701CF
:109D3000280F391F4A1F5B1FF601058404C0569582
:109D40004795379527950A94D2F72187328743871D
:109D50005487253FFFE03F07F0E04F07F0E05F0743
:109D600020F48CE0F601878B19C0255F3F4F4040FF
:109D7000504018F480E1F6010EC08091F4099091F2
:109D8000F509A091F609B091F709F601828F938F3A
:109D9000A48FB58F80E2878B81E001C080E0DF91E6
:109DA000CF911F910F91FF90EF90DF90CF90BF90D8
:109DB000AF909F908F9008956F927F928F929F9215
:109DC000AF92BF92CF92DF92EF92FF920F931F93C9
:109DD000CF93DF93EC015A016B0138014901423006
:109DE00051056105710508F45EC089859A85AB85CA
:109DF000BC850196A11DB11D84179507A607B7075D
:109E000008F451C08F89803129F4E52EF62E072FF2
:109E100011270CC0803209F046C07A018B0187E01F
:109E200016950795F794E7948A95D1F78B899C89C5
:109E3000AD89BE89E80EF91E0A1F1B1FC801B701B4
:109E400041E00E94394D882371F18F89803149F4B6
:109E5000F501F070EE0FFF1FE853F64F718260823C
:109E60000DC0F501EF77F070EE0FFF1FEE0FFF1F33
:109E7000E853F64F60827182828293828A898230AF
:109E800080F08D819E81AF81B885E80EF91E0A1F92
:109E90001B1FE092CB0BF092CC0B0093CD0B1093D9
:109EA000CE0B81E001C080E0DF91CF911F910F9137
:109EB000FF90EF90DF90CF90BF90AF909F908F90EA
:109EC0007F906F900895CF92DF92EF92FF920F9361
:109ED0001F93CF93DF93EC017A018B016901898590
:109EE0009A85AB85BC850196A11DB11D8417950788
:109EF000A607B70708F453C08F89803129F4552786
:109F0000412F302F2F2D0CC0803209F048C09A010C
:109F1000AB0167E056954795379527956A95D1F738
:109F20008B899C89AD89BE89280F391F4A1F5B1F09
:109F30008091C4099091C509A091C609B091C70943
:109F4000281739074A075B0739F0CA01B90140E011
:109F50000E94394D882319F18F89803159F4F70116
:109F6000F070EE0FFF1FE853F64F80819181A0E063
:109F7000B0E00EC0F701EF77F070EE0FFF1FEE0FAD
:109F8000FF1FE853F64F80819181A281B381BF709A
:109F9000F60180839183A283B38381E001C080E0D6
:109FA000DF91CF911F910F91FF90EF90DF90CF90B5
:109FB0000895AF92BF92CF92DF92EF92FF920F93EC
:109FC0001F93DF93CF9300D00F92CDB7DEB76C0114
:109FD0007A018B0182E090E0A0E0B0E0F60180839E
:109FE0009183A283B3835E010894A11CB11CC601B6
:109FF000B801A70195010E94634F882341F1C60172
:10A00000B801A70100E010E020E030E00E94DC4E43
:10A010008823E9F0E980FA800B811C81F6018789A9
:10A02000803151F4F8EFEF16FFEFFF06F0E00F0775
:10A03000F0E01F07E0F209C088EFE8168FEFF8069E
:10A040008FEF08078FE0180790F281E001C080E0F1
:10A050000F900F900F900F90CF91DF911F910F9164
:10A06000FF90EF90DF90CF90BF90AF9008954F9208
:10A070005F926F927F928F929F92AF92BF92CF9298
:10A08000DF92EF92FF920F931F93DF93CF9300D055
:10A090000F92CDB7DEB76C0149835A836B837C8303
:10A0A0003901EE24FF2487012E010894411C511C24
:10A0B000812CE2E09E2EA12CB12C49815A816B812A
:10A0C0007C81C60192010E94634F882339F1D5013A
:10A0D000C401F601058404C0880F991FAA1FBB1F85
:10A0E0000A94D2F7E80EF91E0A1F1B1F29813A8134
:10A0F0004B815C818789803131F4285F3F4F40403C
:10A100005040D8F205C0285F3F4F4F4F5F40A8F244
:10A11000F301E082F1820283138381E00F900F90BC
:10A120000F900F90CF91DF911F910F91FF90EF90C3
:10A13000DF90CF90BF90AF909F908F907F906F9067
:10A140005F904F9008952F923F924F925F926F923F
:10A150007F928F929F92AF92BF92CF92DF92EF92B7
:10A16000FF920F931F93DF93CF93CDB7DEB72F9757
:10A170000FB6F894DEBF0FBECDBF1C014A875B87C8
:10A180006C877D873F872E87DC0119968D919D9185
:10A190000D90BC91A02D0196A11DB11D8E839F83B2
:10A1A000A887B987F90100811181228133810115C6
:10A1B00011052105310549F0480159010894811C18
:10A1C000911CA11CB11C1D8210C0D1018D909D90CD
:10A1D000AD90BC901D828A859B85AC85BD8501971D
:10A1E000A105B10511F491E09D837501640144243A
:10A1F000552432018E010F5F1F4FF1018185928539
:10A20000A385B485481659066A067B0608F090C0F7
:10A210008E819F81A885B9858C159D05AE05BF05EA
:10A2200050F4A2E08A2E912CA12CB12CF2E0CF2E7A
:10A23000D12CE12CF12CC101B701A60198010E949B
:10A24000634F882309F474C089819A81AB81BC81F2
:10A25000A70196012F5F3F4F4F4F5F4F0097A1051A
:10A26000B10519F049015A010DC0281939094A09E7
:10A270005B098A859B85AC85BD85281739074A0708
:10A280005B0759F00894411C511C611C711C089417
:10A29000C11CD11CE11CF11CB0CFC101A601B7014A
:10A2A0000FEF1FEF2FEF3FE00E94DC4E882399F461
:10A2B0003FC0260137010894410851086108710820
:10A2C000C101B301A201970186010E94DC4E8823DF
:10A2D00079F1730162018C149D04AE04BF0448F34C
:10A2E000AE85BF854D915D916D917C914115510574
:10A2F0006105710539F0C101950184010E94DC4EB0
:10A300008823B1F0EE85FF8580829182A282B3829C
:10A31000FD81FF2359F00894811C911CA11CB11CE4
:10A32000D1018D929D92AD92BC92139781E001C0B4
:10A3300080E02F960FB6F894DEBF0FBECDBFCF9151
:10A34000DF911F910F91FF90EF90DF90CF90BF9022
:10A35000AF909F908F907F906F905F904F903F90C5
:10A360002F9008952F923F924F925F926F927F921B
:10A370008F929F92AF92BF92CF92DF92EF92FF9215
:10A380000F931F93DF93CF93CDB7DEB7CD55D0405A
:10A390000FB6F894DEBF0FBECDBF2F969FAF8EAF26
:10A3A0002F9761967FAF6EAF61972A0162962FAFAC
:10A3B000629763960FAF63976496EFAE6497689663
:10A3C000ACAEBDAECEAEDFAE6897E22EFF24EE0C93
:10A3D000FF1CEE0CFF1C9A012E0D3F1D2D963FAF6A
:10A3E0002EAF2D97D9016D907D908D909C90FC01A2
:10A3F000EE0DFF1DC401B3012081318142815381E3
:10A400000E943BD169AF7AAF8BAF9CAF10E0000FD9
:10A41000111F000F111FF201E00FF11F2B96FFAF6C
:10A42000EEAF2B97A080B180C280D3802F96EEAD87
:10A43000FFAD2F97E00FF11FC601B50120813181DB
:10A44000428153810E943BD16DAB7EAB8FAB98AF05
:10A4500064962FAD6497E22FF0E0EE0FFF1FEE0F32
:10A46000FF1F2F96AEADBFAD2F97AE0FBF1F4D9103
:10A470005D916D917C9129964CAF5DAF6EAF7FAFD2
:10A48000299761966EAD7FAD6197E60FF71F6081EA
:10A4900071818281938129962CAD3DAD4EAD5FAD2A
:10A4A00029970E943AD169AB7AAB8BAB9CAB619692
:10A4B000AEADBFAD61971C968D919D910D90BC91F5
:10A4C000A02D25968CAF9DAFAEAFBFAF25972F9631
:10A4D000AEADBFAD2F971C962D913D914D915C91E6
:10A4E0001F9721962CAF3DAF4EAF5FAF2197A401D0
:10A4F000930150582DA73EA74FA758ABB601A50111
:10A50000705849A75AA76BA77CA761966EAD7FAD1F
:10A510006197E60EF71ED7016D917D918D919C910B
:10A5200029AD3AAD4BAD5CAD0E943AD13B014C0137
:10A530006196EEADFFAD61970E0F1F1FD8016D91B3
:10A540007D918D919C912DA93EA94FA958AD0E9456
:10A550003AD15B016C016DA57EA58FA598A9A601D6
:10A5600095010E94F4D47B018C0169A57AA58BA585
:10A570009CA5A40193010E94F4D49B01AC01C801E5
:10A58000B7010E943AD11B012C016DA57EA58FA5B4
:10A5900098A9A40193010E94F4D47B018C0169A5C0
:10A5A0007AA58BA59CA5A60195010E94F4D49B01D8
:10A5B000AC01C801B7010E943BD19B01AC01C201B3
:10A5C000B1010E94AED15B016C0120E030E040E0BF
:10A5D00050E00E9414D2882354F4C601B5012BED3B
:10A5E0003FE049EC50E40E943BD15B016C01E896EE
:10A5F0008FADE897882351F0C601B5012BED3FE000
:10A6000049EC50E40E943AD15B016C01C601B501EE
:10A61000E7962CAD3DAD4EAD5FADE7970E94F4D40B
:10A6200029A93AA94BA95CA95F770E942FD47B0185
:10A630008C012FE632E143E85AE30E9414D287FDF1
:10A64000F6C1C801B7010E94F1D20E9488D278A752
:10A650006FA3672B21F4E1E0F0E0F8A7EFA32FA1AF
:10A6600038A5B90180E090E00E94B4D27B018C0152
:10A67000C601B501A80197010E941BD26BA37CA360
:10A680008DA39EA369A97AA98BA99CA9A80197016A
:10A690000E941BD26F8F78A389A39AA325966CADD5
:10A6A0007DAD8EAD9FAD259721962CAD3DAD4EADC8
:10A6B0005FAD21970E943AD1A80197010E941BD259
:10A6C0006B8F7C8F8D8F9E8F6BA17CA18DA19EA1A6
:10A6D00020E030E040E05FEB0E94F4D42BA13CA1ED
:10A6E0004DA15EA10E94F4D420E030E040E85FE399
:10A6F0000E943BD16F8B788F898F9A8F64963FAD84
:10A700006497E32FF0E0EE0FFF1FEE0FFF1F9E0197
:10A710002F5F3F4FE20FF31F29964CAD5DAD6EAD3D
:10A720007FAD299740835183628373832F96AEADAB
:10A73000BFAD2F971C964D915D916D917C911F97A8
:10A740004D875E876F87788B41E050E05A8B498B4D
:10A75000662462967FAD6297672F70E0660F771F61
:10A76000660F771FC901860F971F6A969FAF8EAF3E
:10A770006A976396BFAD6397AB2FB0E0AA0FBB1F7C
:10A78000AA0FBB1F21E030E02C0F3D1F2A0F3B1FFB
:10A790006C963FAF2EAF6C976E96FFAFEEAF6E9795
:10A7A0001AC138E136150CF446C06DA57EA58FA5FB
:10A7B00098A92BA13CA14DA15EA10E94F4D47B01DC
:10A7C0008C0169A57AA58BA59CA52F89388D498D0B
:10A7D0005A8D0E94F4D49B01AC01C801B7010E94BC
:10A7E0003BD17B018C016DA57EA58FA598A92F89F2
:10A7F000388D498D5A8D0E94F4D45B016C0169A596
:10A800007AA58BA59CA52BA13CA14DA15EA10E9480
:10A81000F4D49B01AC01C601B5010E943AD16DA7E9
:10A820007EA78FA798AB6394C701D80189A79AA781
:10A83000ABA7BCA765C049895A89BA0180E090E0FE
:10A840000E94B4D22BA13CA14DA15EA10E94F4D4E0
:10A850007B018C01C8010E9418D26B8B7C8B8D8B85
:10A860009E8BB701C8010E9457D53B014C012D9624
:10A87000AEADBFAD2D97ED90FD900D911C9117FBE6
:10A88000109517F910952B96EEADFFAD2B97208004
:10A89000318042805380C801B7012B893C894D89A2
:10A8A0005E890E94F4D45B016C01C201B101A40174
:10A8B00093010E94F4D49B01AC01C601B5010E9432
:10A8C0003BD16DA77EA78FA798ABC801B701A401A4
:10A8D00093010E94F4D47B018C01C201B1012B8948
:10A8E0003C894D895E890E94F4D49B01AC01C8016A
:10A8F000B7010E943AD169A77AA78BA79CA76624C3
:10A9000069AD7AAD8BAD9CAD2DA53EA54FA558A9DF
:10A910000E943BD16A96AEADBFAD6A976D937D93B1
:10A920008D939C9313976DA97EA98FA998AD29A5A6
:10A930003AA54BA55CA50E943BD16C96EEADFFAD50
:10A940006C9760837183828393836E96AEADBFAD47
:10A950006E976D917D918D919C912F8D38A149A11C
:10A960005AA10E943BD16E96EEADFFAD6E9760830B
:10A970007183828393836D857E858F8598892B8DE6
:10A980003C8D4D8D5E8D0E943BD16D877E878F877C
:10A99000988BCE0101960E94BA18CE010196BE0195
:10A9A0006B5F7F4FAE01475F5F4F9E01235F3F4F5D
:10A9B0006896ECACFDAC0EAD1FAD6897F8E7CF2EF6
:10A9C000D12CCC0EDD1E0E94995A29893A892F5F1D
:10A9D0003F4F3A8B298B49895A896FA178A5461731
:10A9E000570708F4DECE61964EAD5FAD6197485FC4
:10A9F0005F4F61962EAD3FAD6197245F3F4F6196EB
:10AA00008EAD9FAD6197DC0114966196BFAFAEAF7E
:10AA10006197BD016896ECACFDAC0EAD1FAD6897BB
:10AA2000E8E7CE2ED12CCC0EDD1E0E94995AC35AD7
:10AA3000DF4F0FB6F894DEBF0FBECDBFCF91DF91D1
:10AA40001F910F91FF90EF90DF90CF90BF90AF904C
:10AA50009F908F907F906F905F904F903F902F903E
:10AA6000089580910F1190911011891B8F70089596
:10AA700060937003709371038093720390937303D8
:10AA800008950F931F93CF93DF93C0E0D0E08E0122
:10AA9000015E134FFE01ED50F44F608171818281A0
:10AAA00093810E94B4D2FE01ED51F44F2081318197
:10AAB000428153810E94F4D40E9488D2F8016083BD
:10AAC0007183828393832496C031D10501F7DF918E
:10AAD000CF911F910F910895FC0160817181828156
:10AAE00093812091EF0B3091F00B4091F10B50913D
:10AAF000F20B0E94F4D40E94C4D460933B0C709378
:10AB00003C0C80933D0C90933E0C8BE39CE00E94A8
:10AB1000C16708958F929F92AF92BF92CF92DF92BA
:10AB2000EF92FF920F931F93FC018B015A01490191
:10AB300060817181828193812091E30B3091E40BDC
:10AB40004091E50B5091E60B0E94F4D40E94C4D4CE
:10AB50003FE2C32E3CE0D32E60932F0C7093300C59
:10AB60008093310C9093320CF80160817181828165
:10AB700093812091E70B3091E80B4091E90B5091C4
:10AB8000EA0B0E94F4D40E94C4D424E0E22EF12CFB
:10AB9000EC0CFD1C6093330CF7017183828393836B
:10ABA000F50160817181828193812091EB0B30915D
:10ABB000EC0B4091ED0B5091EE0B0E94F4D40E94EF
:10ABC000C4D48601085F1F4F6093370CF80171836E
:10ABD00082839383F40160817181828193812091CA
:10ABE000EF0B3091F00B4091F10B5091F20B0E9462
:10ABF000F4D40E94C4D4F6013C9660933B0C71835C
:10AC000082839383C601B701A8019F010E948767D1
:10AC100080E090E0A0E0B0E08093111190931211D9
:10AC2000A0931311B09314118093151190931611E2
:10AC3000A0931711B09318118093191190931A11C2
:10AC4000A0931B11B0931C1180931D1190931E11A2
:10AC5000A0931F11B0932011809321119093221182
:10AC6000A0932311B09324111F910F91FF90EF90A7
:10AC7000DF90CF90BF90AF909F908F9008958F926C
:10AC80009F92AF92BF92CF92DF92EF92FF920F937B
:10AC90001F93CF93DF93EC016B01009709F45CC025
:10ACA0008FA9882309F058C0EEA0FFA008A519A518
:10ACB000FB01B6A0A7A090A481A4C801B7012B2DC9
:10ACC0003A2D492D582D0E9414D288230CF044C0EF
:10ACD000C801B701A80197010E94F4D47B018C013F
:10ACE0006AA97BA98CA99DA9905820E030E040E09A
:10ACF00050EC0E94F4D42EA53FA548A959A90E9462
:10AD0000F4D49B01AC01C801B7010E943BD10E9461
:10AD100061D57B018C016B2D7A2D892D982D9701A2
:10AD2000A8010E9414D2882324F4EB2CFA2C092DBC
:10AD3000182D6B2D7A2D892D982D9701A8010E9431
:10AD400014D2882349F0C701D801F60186A397A33E
:10AD5000A0A7B1A781E086ABDF91CF911F910F91A2
:10AD6000FF90EF90DF90CF90BF90AF909F908F902B
:10AD70000895EF92FF920F931F93CF93DF93F0907C
:10AD8000101100E010E020E030E04DE4E42E12C0AD
:10AD9000FE9CE0011124C15CD34FC901B801AE0192
:10ADA0000E943F568F2D8F5F803109F480E0F82E8E
:10ADB00098018E0180910F11F81651F7C901B80161
:10ADC00040E050E00E943F56DF91CF911F910F91DC
:10ADD000FF90EF900895AF92BF92CF92DF92EF92E3
:10ADE000FF920F931F93CF93DF93EB018A016115BD
:10ADF000710509F466C04115510509F462C0DAA471
:10AE0000CBA4BCA4ADA46EA17FA188A599A52D2D2E
:10AE10003C2D4B2D5A2D0E9414D2882309F451C089
:10AE20008FA9882309F043C0F801E6A0F7A000A588
:10AE300011A56D2D7C2D8B2D9A2DA80197010E94B7
:10AE400022D41816A4F5C801B701A80197010E94E1
:10AE5000F4D47B018C016AA97BA98CA99DA9905887
:10AE600020E030E040E050EC0E94F4D42EA53FA555
:10AE700048A959A90E94F4D49B01AC01C801B701AB
:10AE80000E943BD10E9461D57B018C016D2D7C2DF0
:10AE90008B2D9A2D9701A8010E9414D2882324F4A7
:10AEA000ED2CFC2C0B2D1A2DC701D80104C08D2DC3
:10AEB0009C2DAB2DBA2D8EA39FA3A8A7B9A781E087
:10AEC0008EABDF91CF911F910F91FF90EF90DF90AC
:10AED000CF90BF90AF900895CF92DF92EF92FF9204
:10AEE0000F93DF93CF930F920F92CDB7DEB7809180
:10AEF0000F118FB7F894F09010118FBF80910F1140
:10AF000090E040968F1991098F709070049704F12A
:10AF100000910F1103500F70CC24DD2440E050E06D
:10AF20006DE4E62E13C0802F002309F480E1082F82
:10AF300001500E9DC0011124815C934F9A83898337
:10AF4000B6010E94EB56A601C980DA800F1559F7A9
:10AF50000F900F90CF91DF910F91FF90EF90DF90C6
:10AF6000CF900895609166079091101180910F1114
:10AF70009817B9F040911011242F30E08DE490E043
:10AF8000289FF001299FF00D389FF00D1124E957FB
:10AF9000F34F608102C04F5F4F7080910F114817CF
:10AFA000D1F787E070E00E94EB14089510920F1122
:10AFB0001092101180E1EFE2FCE0DF011D928A9512
:10AFC000E9F780E090E0A0E0B0E080931511909365
:10AFD0001611A0931711B093181180931911909323
:10AFE0001A11A0931B11B0931C1180931D11909303
:10AFF0001E11A0931F11B0932011809321119093E3
:10B000002211A0932311B0932411809311119093D6
:10B010001211A0931311B093141108952F923F921F
:10B020004F925F926F927F928F929F92AF92BF9258
:10B03000CF92DF92EF92FF920F931F93DF93CF9304
:10B04000CDB7DEB766970FB6F894DEBF0FBECDBFA3
:10B050009E8B8D8B6A017B0148015901DC01D896DA
:10B060006D917D918D919C91DB970E94B4D2698BFB
:10B070007A8B8B8B9C8BA70196010E94F4D40E9443
:10B0800001D20E9488D26D837E838F8398876989DD
:10B090007A898B899C89A50194010E94F4D40E942D
:10B0A00001D20E9488D269837A838B839C832D810D
:10B0B0003E814F815885283731054105510540F4BF
:10B0C00048E750E060E070E04D835E836F837887EF
:10B0D00069817A818B819C81683771058105910531
:10B0E00040F488E790E0A0E0B0E089839A83AB83E6
:10B0F000BC83AD89BE89AC5BBF4FAD90BD90CD9098
:10B10000DC901397A454B040BE8BAD8B6D817E81D3
:10B110008F8198850E94B4D26D877E878F87988BA8
:10B12000C601B5010E94B6D21B012C0120E030E01F
:10B1300040E050E00E9414D2882321F4E0E070E067
:10B1400060E028C069897A898B899C899B01AC0160
:10B150000E94F4D47B018C016D857E858F85988952
:10B160009B01AC010E94F4D49B01AC01C801B70162
:10B170000E943AD17B018C01C201B101A20191016F
:10B180000E943BD19B01AC01C801B7010E941BD2B8
:10B19000E62F692F2E2F372F482F562FB901CA01BE
:10B1A0000E9401D20E9483D23B014C0169817A81C5
:10B1B0008B819C810E94B4D269877A878B879C8718
:10B1C00066277727CB016A197B098C099D090E94A4
:10B1D000B6D25B016C0120E030E040E050E00E941C
:10B1E00014D2882321F4E0E070E060E028C0698593
:10B1F0007A858B859C859B01AC010E94F4D47B01F0
:10B200008C0169897A898B899C899B01AC010E9498
:10B21000F4D49B01AC01C801B7010E943AD17B0173
:10B220008C01C601B501A60195010E943BD19B018D
:10B23000AC01C801B7010E941BD2E62F692F2E2F47
:10B24000372F482F562FB901CA010E94F1D2ED893C
:10B25000FE89A088B188C288D38886017501E61866
:10B26000F708080919090E9483D2A8019701261B33
:10B27000370B480B590B57FF71C0C201B10120E0D9
:10B2800030E040E050E00E9414D2882321F4E0E056
:10B2900070E060E044C0C201B101A20191010E94CE
:10B2A0003BD17B018C01C601B5010E94B4D29B0148
:10B2B000AC01C801B7010E94F4D47B018C016D85FB
:10B2C0007E858F8598899B01AC010E94F4D49B01F7
:10B2D000AC01C801B7010E943AD17B018C0169859C
:10B2E0007A858B859C859B01AC010E94F4D49B01DF
:10B2F000AC01C801B7010E943BD17B018C01C201A6
:10B30000B10120E030E040E850E40E94F4D49B0119
:10B31000AC01C801B7010E941BD2E62F692F2E2F66
:10B32000372F482F562FB901CA010E9401D20E941F
:10B3300083D2AC01CB01DA013C014D0197FE03C081
:10B340006624772443016A147B048C049D0410F066
:10B350003501460120E030E040E050E09FB7F8942E
:10B360006D897E89645B7F4FDB018C91AC54B0406A
:10B37000BE8BAD8B882321F5FD01648A758A868A90
:10B38000978A260D371D481D591D58962D933D93BC
:10B390004D935C935B972D813E814F815885DC9660
:10B3A0002D933D934D935C93DF97A05CBF4F298114
:10B3B0003A814B815C812D933D934D935C93139720
:10B3C0009FBF66960FB6F894DEBF0FBECDBFCF917C
:10B3D000DF911F910F91FF90EF90DF90CF90BF9082
:10B3E000AF909F908F907F906F905F904F903F9025
:10B3F0002F9008954F925F927F928F929F92AF927B
:10B40000BF92CF92DF92EF92FF920F931F93CF9351
:10B41000DF9370901011C0E0D0E07DE4472E512CF6
:10B4200046C02097B1F18EA9882361F4849CF00175
:10B43000859CF00D949CF00D1124E15CF34F86A9DE
:10B44000882339F1EAA0FBA00CA11DA16EA17FA168
:10B4500088A599A5A80197010E941BD25B016C01E8
:10B46000849CF001859CF00D949CF00D1124E15C0E
:10B47000F34F66A177A180A591A5A80197010E942D
:10B480001BD28B019C01CE01B601A5010E940E5872
:10B490001EAA739480E1781609F47724849CE00155
:10B4A000859CD00D949CD00D1124C15CD34F872C6A
:10B4B000992487FC909480910F1190E0881699064A
:10B4C00009F0AFCF2097F1F0EAA0FBA00CA11DA1DD
:10B4D0006EA17FA188A599A5A80197010E941BD202
:10B4E0005B016C016DEC7CEC8CE49DE3A8019701A1
:10B4F0000E941BD28B019C01CE01B601A5010E94C6
:10B500000E581EAADF91CF911F910F91FF90EF90DF
:10B51000DF90CF90BF90AF909F908F907F905F9083
:10B520004F9008950E946C570E94B9560E94FA5994
:10B5300008952F923F924F925F926F927F928F92D7
:10B540009F92AF92BF92CF92DF92EF92FF920F93B2
:10B550001F93DF93CF93CDB7DEB7C859D0400FB656
:10B56000F894DEBF0FBECDBF5C014B013A0129014B
:10B57000CB56DF4FE882C559D040CA56DF4FF8821C
:10B58000C659D040C956DF4F0883C759D040C85666
:10B59000DF4F1883C859D040E396DFAECEAEE397B5
:10B5A00080910F118F5F803109F480E0282F3327BD
:10B5B00027FD30953CA72BA706C00E9439750E9435
:10B5C000101A0E94A1CA8091101190E04BA55CA5B1
:10B5D0008417950791F36091E30B7091E40B8091D0
:10B5E000E50B9091E60BE1966CAF7DAF8EAF9FAF10
:10B5F000E197D5012D913D914D915C910E94F4D43C
:10B600000E94C4D4C158DF4F6883CF57D040C05880
:10B61000DF4F7883C058D040CF57DF4F8883C15861
:10B62000D040CE57DF4F9883C258D0402091E70BCF
:10B630003091E80B4091E90B5091EA0BAD962CAF9D
:10B640003DAF4EAF5FAFAD97CA01B901D4012D91A7
:10B650003D914D915C910E94F4D40E94C4D4CD5789
:10B66000DF4F6883C358D040CC57DF4F7883C4582E
:10B67000D040CB57DF4F8883C558D040CA57DF4FE3
:10B680009883C658D0402091EB0B3091EC0B409141
:10B69000ED0B5091EE0BA9962CAF3DAF4EAF5FAFC7
:10B6A000A997CA01B901D3012D913D914D915C91AA
:10B6B0000E94F4D40E94C4D4C957DF4F6883C7588E
:10B6C000D040C857DF4F7883C858D040C757DF4FA6
:10B6D0008883C958D040C657DF4F9883CA58D04096
:10B6E0002091EF0B3091F00B4091F10B5091F20B48
:10B6F000A5962CAF3DAF4EAF5FAFA597CA01B9017C
:10B70000D2012D913D914D915C910E94F4D40E9403
:10B71000C4D4C557DF4F6883CB58D040C457DF4FE0
:10B720007883CC58D040C357DF4F8883CD58D04062
:10B73000C257DF4F9883CE58D04080913B0C9091F8
:10B740003C0CA0913D0CB0913E0CC557DF4F2881B9
:10B7500039814A815B81CB58D040281739074A0785
:10B760005B0709F4B8C0E0916507F0E0EE0FFF1F3A
:10B77000EE0FFF1FE658FE4E60817181828193813A
:10B7800020917003309171034091720350917303C3
:10B790000E9414D288230CF033C0C557DF4F488174
:10B7A00059816A817B81CB58D04040933B0C5093A8
:10B7B0003C0C60933D0C70933E0CEBE0F8E09491F0
:10B7C00008C08091C00085FFFCCF9093C6003196E1
:10B7D00094919923B1F7EFE2F8E0949108C0809139
:10B7E000C00085FFFCCF9093C600319694919923B9
:10B7F000B1F78091C00085FFFCCF8AE08093C6003E
:10B8000080913B0C90913C0CA0913D0CB0913E0C72
:10B81000C557DF4F288139814A815B81CB58D040A1
:10B82000281B390B4A0B5B0BCA01B90157FF07C034
:10B8300090958095709561957F4F8F4F9F4F0E9497
:10B84000B6D27B018C01A5966CAD7DAD8EAD9FAD62
:10B85000A59720E030E04DEC53E40E94F4D49B0126
:10B86000AC01C801B7010E9422D418160CF033C0F5
:10B87000C557DF4F488159816A817B81CB58D040C1
:10B8800040933B0C50933C0C60933D0C70933E0CEA
:10B89000EBE0F8E0949108C08091C00085FFFCCFF8
:10B8A0009093C600319694919923B1F7E1E1F8E0C5
:10B8B000949108C08091C00085FFFCCF9093C60092
:10B8C000319694919923B1F78091C00085FFFCCF08
:10B8D0008AE08093C60080910F11682F70E0A196D6
:10B8E0007FAF6EAFA1978DE490E0689FF001699FF4
:10B8F000F00D789FF00D1124E15CF34FE45BFF4FF6
:10B900001082EC54F04080912F0C9091300CA0915B
:10B91000310CB091320C6F968CAF9DAFAEAFBFAF14
:10B920006F97C158DF4F288139814A815B81CF579A
:10B93000D040281B390B4A0B5B0B6B962CAF3DAFED
:10B940004EAF5FAF6B97208331834283538357FFA2
:10B950000DC0DA01C901B095A095909581959F4FD2
:10B96000AF4FBF4F80839183A283B3834091330C49
:10B970005091340C6091350C7091360C67964CAF39
:10B980005DAF6EAF7FAF6797CD57DF4F88819981ED
:10B99000AA81BB81C358D040841B950BA60BB70B63
:10B9A00063968CAF9DAFAEAFBFAF63978DE490E071
:10B9B000A196AEADBFADA197A89FF001A99FF00DD4
:10B9C000B89FF00D1124E15CF34F63962CAD3DADB3
:10B9D0004EAD5FAD6397248335834683578357FF0E
:10B9E0000DC0DA01C901B095A095909581959F4F42
:10B9F000AF4FBF4F84839583A683B7834091370CA5
:10BA00005091380C6091390C70913A0C2F964CAFD4
:10BA10005DAF6EAF7FAF2F97C957DF4F8881998198
:10BA2000AA81BB81C758D040841B950BA60BB70BCE
:10BA30002B968CAF9DAFAEAFBFAF2B978DE490E050
:10BA4000A196AEADBFADA197A89FF001A99FF00D43
:10BA5000B89FF00D1124E15CF34F2B962CAD3DAD5A
:10BA60004EAD5FAD2B97208731874287538757FFB5
:10BA70000DC0DA01C901B095A095909581959F4FB1
:10BA8000AF4FBF4F80879187A287B38720903B0C31
:10BA900030903C0C40903D0C50903E0CC557DF4F11
:10BAA000488159816A817B81CB58D0404219530922
:10BAB000640975094DA35EA36FA378A7609157032E
:10BAC0007091580327967FAF6EAF27976DA17EA127
:10BAD0008FA198A597FF07C0909580957095619567
:10BAE0007F4F8F4F9F4F2796AEADBFAD27979D01DC
:10BAF000442737FD4095542F0E94C6D524E630E0F8
:10BB000040E050E00E942ED68DE490E0A1966EAD0C
:10BB10007FADA197689FF001699FF00D789FF00DB0
:10BB20001124E15CF34FDF011C96248711963C93AE
:10BB3000119712964C93129713965C9360807180C4
:10BB400082809380A480B580C680D780E084F18411
:10BB500002851385C901DA018E159F05A007B1077B
:10BB600014F4D801C7018A159B05AC05BD0514F472
:10BB7000D601C5019C01AD0186159705A805B9053B
:10BB800014F4A40193018DE490E0A196AEADBFAD95
:10BB9000A197A89FB001A99F700DB89F700D1124A7
:10BBA000615C734FFB01208B318B428B538B2630B2
:10BBB00031054105510510F40C94D366E85BFF4F45
:10BBC0008091660790916707AA2797FDA095BA2FE5
:10BBD00080839183A283B383DB0190961C92C1582A
:10BBE000DF4F288139814A815B81CF57D0406F96E2
:10BBF0008CAD9DADAEADBFAD6F97281739074A0725
:10BC00005B0724F481E0DB0190968C93CD57DF4FE6
:10BC1000288139814A815B81C358D04067966CADD9
:10BC20007DAD8EAD9FAD679726173707480759073B
:10BC300094F48DE490E0A196AEADBFADA197A89F1E
:10BC4000F001A99FF00DB89FF00D1124E15CF34FB6
:10BC500080A1826080A3C957DF4F288139814A8142
:10BC60005B81C758D0402F966CAD7DAD8EAD9FAD3A
:10BC70002F97261737074807590794F48DE490E06B
:10BC8000A196AEADBFADA197A89FF001A99FF00D01
:10BC9000B89FF00D1124E15CF34F80A1846080A374
:10BCA000C557DF4F288139814A815B81CB58D0400D
:10BCB000221533054405550594F48DE490E0A196D2
:10BCC0004EAD5FADA197489FF001499FF00D589F81
:10BCD000F00D1124E15CF34F80A1886080A38DE416
:10BCE00090E0A1966EAD7FADA197689FF001699F2E
:10BCF000F00D789FF00D1124E15CF34FE396AEADAB
:10BD0000BFADE3978C9181A3208131814281538122
:10BD100025962CAF3DAF4EAF5FAF2597211531056E
:10BD20004105510509F015988DE490E0A1964EADBE
:10BD30005FADA197489FF001499FF00D589FF00D0E
:10BD40001124E15CF34F64807580868097806114D4
:10BD500071048104910409F017988DE490E0A19694
:10BD60006EAD7FADA197689FF001699FF00D789F40
:10BD7000F00D1124E15CF34FA084B184C284D3841C
:10BD8000A114B104C104D10409F042988DE490E0FB
:10BD9000A196AEADBFADA197A89FF001A99FF00DF0
:10BDA000B89FF00D1124E15CF34F84859585A6853D
:10BDB000B7850097A105B10591F0A0989FB7F894B9
:10BDC00080910B018D7F80930B019FBF2090030C0E
:10BDD0003090040C4090050C5090060C08C0209048
:10BDE0001B0C30901C0C40901D0C50901E0CCB5620
:10BDF000DF4F6881C559D040CA56DF4F7881C65998
:10BE0000D040C956DF4F8881C759D040C856DF4F50
:10BE10009881C859D040A20191010E9414D287FD97
:10BE200016C0CB56DF4F8881C559D040CA56DF4F68
:10BE30009881C659D040C956DF4FA881C759D04014
:10BE4000C856DF4FB881C859D0401C012D016B96F0
:10BE50006CAD7DAD8EAD9FAD6B970E94B6D2E19675
:10BE60002CAD3DAD4EAD5FADE1970E941BD2EC967F
:10BE70006FAFEC97ED967FAFED97EE968FAFEE97A5
:10BE8000EF969FAFEF97AC01CB01DA0189839A83DC
:10BE9000AB83BC8363966CAD7DAD8EAD9FAD639778
:10BEA0000E94B6D2AD962CAD3DAD4EAD5FADAD9717
:10BEB0000E941BD2E8966FAFE897E9967FAFE997AB
:10BEC000EA968FAFEA97EB969FAFEB97AC01CB0169
:10BED000DA018D839E83AF83B8872B966CAD7DADE1
:10BEE0008EAD9FAD2B970E94B6D2A9962CAD3DADDD
:10BEF0004EAD5FADA9970E941BD2E4966FAFE49759
:10BF0000E5967FAFE597E6968FAFE697E7969FAF0A
:10BF1000E797AC01CB01DA0189879A87AB87BC87A9
:10BF20006DA17EA18FA198A50E94B6D2A5962CAD39
:10BF30003DAD4EAD5FADA5970E941BD27B018C013C
:10BF40002796EEADFFAD2797BF01882777FD809537
:10BF5000982F0E94B6D29B01AC01C801B7010E9484
:10BF6000F4D420E030E048EC52E40E941BD29B0164
:10BF7000AC016D877E878F87988B25966CAD7DADE4
:10BF80008EAD9FAD259766307105810591051CF535
:10BF900076E06716710481049104ECF486E0A8163B
:10BFA000B104C104D104BCF48DE490E0A196AEAD1F
:10BFB000BFADA197A89FF001A99FF00DB89FF00D0C
:10BFC0001124E15CF34FDA01C901BF7786A797A777
:10BFD000A0ABB1AB55C0EC962FADEC97ED963FAD55
:10BFE000ED97EE964FADEE97EF965FADEF97B901F7
:10BFF000CA010E94ABD53B014C01E8962FADE897F2
:10C00000E9963FADE997EA964FADEA97EB965FADBB
:10C01000EB97B901CA010E94ABD55B016C01E496B4
:10C020002FADE497E5963FADE597E6964FADE697E1
:10C03000E7965FADE797B901CA010E94ABD57B01D6
:10C040008C01C401B301A60195010E943BD1A80156
:10C0500097010E943BD10E9461D52DE430E0A1966A
:10C060004EAD5FADA197429FF001439FF00D529FEF
:10C07000F00D1124E15CF34F66A777A780AB91AB7D
:10C080008DE490E0A1966EAD7FADA197689FF00121
:10C09000699FF00D789FF00D1124E15CF34F86A5A8
:10C0A00097A5A0A9B1A921968CAF9DAFAEAFBFAFA8
:10C0B000219760E070E080E89FE321962CAD3DADD4
:10C0C0004EAD5FAD21970E941BD29B01AC01C20116
:10C0D000B1010E94F4D42B013C0180910F11909189
:10C0E0001011A82FB0E05096A91BB109AF70B07025
:10C0F000BAA7A9A7A230B1050CF451C05D01CC24A8
:10C10000B7FCC094DC2CC601B5010E94B6D220E079
:10C1100030E040E051E40E9414D288230CF03FC08C
:10C1200060E074E284E799E4A30192010E941BD2CB
:10C130000E94C4D47B018C016091CF0B7091D00B15
:10C140008091D10B9091D20BE616F70608071907DC
:10C1500030F56E197F09800B910B660F771F881FD2
:10C16000991FA60195010E940CD6CA01B9010E942F
:10C17000B4D20E94C4D49B01AC012E0D3F1D401FC0
:10C18000511FCA01B9010E94B4D29B01AC0160E009
:10C1900074E284E799E40E941BD22B013C018DE4F8
:10C1A00090E0A196EEADFFADA197E89F8001E99FD9
:10C1B000100DF89F100D1124015C134F21966CADEA
:10C1C0007DAD8EAD9FAD2197A30192010E94F4D465
:10C1D000D80192966D937D938D939C9395975096ED
:10C1E0006D917D918D919C9153970E94B4D2A30142
:10C1F00092010E94F4D40E9401D20E9488D2F801D8
:10C2000060AF71AF82AF93AFC157DF4F1882CF5885
:10C21000D040C057DF4F1882C059D04020E8222EAE
:10C220009FE3392E88249924E1E0F0E0EC0FFD1F14
:10C23000E80DF91DC301B201208131814281538192
:10C240000E94F4D4E1E1F0E0EC0FFD1FE80DF91DD0
:10C2500060837183828393835B016C01E894D7F8D8
:10C26000F401ED52F44FE080F18002811381C601A8
:10C27000B501A80197010E9422D41816CCF4C80178
:10C28000B701A60195010E941BD26B017C01C15729
:10C29000DF4F6881CF58D040C057DF4F7881C059F9
:10C2A000D040C101A70196010E9414D288236CF4EA
:10C2B000C157DF4F8881CF58D040C057DF4F98819A
:10C2C000C059D040D1016C017D0124E030E0820EE4
:10C2D000931E30E18316910471F0D701C601C15756
:10C2E000DF4FC882CF58D040C057DF4F9883C05926
:10C2F000D0401D0199CFC701B60120E030E040E8F1
:10C300005FE30E9414D288230CF04CC08E010F5EB4
:10C310001F4F81E2A82EB12CAC0EBD1ED8016D912D
:10C320007D918D919C91A70196010E94F4D4F80112
:10C3300061937193819391938F01EA15FB0571F7D6
:10C340008DE490E0A1962EAD3FADA197289F80018E
:10C35000299F100D389F100D1124015C134FD80137
:10C3600092966D917D918D919C919597A7019601E3
:10C370000E94F4D4F80162A373A384A395A360ADD3
:10C3800071AD82AD93AD0E94B4D2A70196010E9417
:10C39000F4D40E9488D2D801D8966D937D938D9362
:10C3A0009C93DB978DE490E0A196EEADFFADA19755
:10C3B000E89F8001E99F100DF89F100D1124015C8A
:10C3C000134FD80150966D917D918D919C9153970B
:10C3D0000E94B4D2F80126A537A540A951A90E9410
:10C3E0001BD21B012C01F80180819181A281B381B4
:10C3F0000097A105B10549F584819581A681B78192
:10C400000097A105B10509F580859185A285B385C1
:10C410000097A105B105C9F4C201B10120910B0C2F
:10C4200030910C0C40910D0C50910E0C0E94F4D4E4
:10C430000E9401D20C5B1F4F0E9488D2D8016D93DD
:10C440007D938D939C93139771C1C201B10120918B
:10C45000070C3091080C4091090C50910A0C0E9475
:10C46000F4D40E9401D20E9488D22DE430E0A1963B
:10C47000EEADFFADA197E29F6001E39FD00CF29F6C
:10C48000D00C11242FE33CE0C20ED31EB4E46B2E7B
:10C49000712C6C0C7D1CD3016D937D938D939C93BB
:10C4A000139780901F0C9090200CA090210CB090BE
:10C4B000220C0E94B4D27B018C01F6016081718153
:10C4C000828193810E94B6D29B01AC01C801B70161
:10C4D0000E94F4D47B018C01D60150966D917D9120
:10C4E0008D919C9153970E94B4D29B01AC01C801DD
:10C4F000B7010E941BD27B018C01C501B4010E94CF
:10C50000B4D29B01AC01C801B7010E9422D4181615
:10C510002CF4F30180829182A282B3828090230C5A
:10C520009090240CA090250CB090260C8DE490E007
:10C53000A1962EAD3FADA197289F6001299FD00CF9
:10C54000389FD00C11244FE35CE0C40ED51EA4E448
:10C550006A2E712C6C0C7D1CD3016D917D918D9197
:10C560009C910E94B4D27B018C01F601648175819B
:10C57000868197810E94B6D29B01AC01C801B701A8
:10C580000E94F4D47B018C01D60150966D917D916F
:10C590008D919C9153970E94B4D29B01AC01C8012C
:10C5A000B7010E941BD27B018C01C501B4010E941E
:10C5B000B4D29B01AC01C801B7010E9422D4181665
:10C5C0002CF4F30180829182A282B38280902B0CA2
:10C5D00090902C0CA0902D0CB0902E0C8DE490E03F
:10C5E000A1962EAD3FADA197289F6001299FD00C49
:10C5F000389FD00C11244FE35CE0C40ED51EF4E448
:10C600006F2E712C6C0C7D1CD3016D917D918D91E1
:10C610009C910E94B4D27B018C01F60164857585E2
:10C62000868597850E94B6D29B01AC01C801B701EF
:10C630000E94F4D47B018C01D60150966D917D91BE
:10C640008D919C9153970E94B4D29B01AC01C8017B
:10C65000B7010E941BD27B018C01C501B4010E946D
:10C66000B4D29B01AC01C801B7010E9422D41816B4
:10C670002CF4F30180829182A282B3828090270CF5
:10C680009090280CA090290CB0902A0C8DE490E09A
:10C69000A1962EAD3FADA197289F6001299FD00C98
:10C6A000389FD00C11244FE35CE0C40ED51EE4E4A7
:10C6B0006E2E712C6C0C7D1CD3016D917D918D9132
:10C6C0009C910E94B4D27B018C01F601608571853A
:10C6D000828593850E94B6D29B01AC01C801B70147
:10C6E0000E94F4D47B018C01D60150966D917D910E
:10C6F0008D919C9153970E94B4D29B01AC01C801CB
:10C70000B7010E941BD27B018C01C501B4010E94BC
:10C71000B4D29B01AC01C801B7010E9422D4181603
:10C720002CF4F30180829182A282B3828DE490E0A6
:10C73000A1962EAD3FADA197289F6001299FD00CF7
:10C74000389FD00C11244FE35CE0C40ED51EF601D7
:10C75000EC5BFF4F60817181828193810E94B4D232
:10C760007B018C01A20191010E941BD2D601D296BD
:10C770006D937D938D939C93D597C801B7012DEB55
:10C7800037E346E051E40E94F4D40E9483D2F601DC
:10C79000648F758F868F978F60900F0C7090100C40
:10C7A0008090110C9090120CC401B30120E030E095
:10C7B00040E05FE30E94F4D45B016C01298D3A8D67
:10C7C0004B8D5C8D29AF3AAF4BAF5CAF4091130CF2
:10C7D0005091140C6091150C7091160C4DAB5EAB22
:10C7E0006FAB78AFCB01BA0120E030E040E05FE30F
:10C7F0000E94F4D47B018C0169AD7AAD8BAD9CAD08
:10C800009F77A80197010E9422D4181644F4C6010C
:10C81000B501A80197010E9414D2882314F486015F
:10C8200075016D8D7E8D8F8D98A169AB7AAB8BABC9
:10C830009CAB8091170C9091180CA091190CB091A1
:10C840001A0C8DA79EA7AFA7B8ABBC01CD0120E005
:10C8500030E040E05FE30E94F4D41B012C0169A9A1
:10C860007AA98BA99CA99F77A20191010E9422D449
:10C87000181644F4C801B701A20191010E9414D214
:10C88000882314F4170128018DE490E0A196AEAD41
:10C89000BFADA197A89FF001A99FF00DB89FF00D23
:10C8A0001124E15CF34F22A133A144A155A129A396
:10C8B0003AA34BA35CA3C201B1010E9414D287FD2D
:10C8C00004C029A03AA04BA05CA049A55AA54230BB
:10C8D00051050CF405C150911111CF56DF4F58830B
:10C8E000C159D04060911211CE56DF4F6883C259B2
:10C8F000D04070911311CD56DF4F7883C359D0408B
:10C9000080911411CC56DF4F8883C459D040652FD5
:10C91000CE56DF4F7881C259D040CD56DF4F888147
:10C92000C359D040CC56DF4F9881C459D04027E13D
:10C9300037EB41ED58E30E9422D418160CF0D0C01A
:10C9400069897A898B899C892091151130911611FA
:10C9500040911711509118110E943AD19B01AC01DE
:10C960000E94F4D47B018C016D897E898F89988D1A
:10C970002091191130911A1140911B1150911C11E5
:10C980000E943AD19B01AC010E94F4D49B01AC01FE
:10C99000C801B7010E943BD10E9461D57B018C0187
:10C9A000A40193010E9422D418165CF00F2EF0E02F
:10C9B0006F2EF0E07F2EF0E88F2EFFE39F2EF02DFC
:10C9C00008C0C401B301A80197010E941BD23B011A
:10C9D0004C0169AD7AAD8BAD9CAD20911D113091AC
:10C9E0001E1140911F11509120110E943AD17B01DC
:10C9F0008C01E89417F9C801B7012DA93EA94FA9E8
:10CA000058AD0E9422D4181694F46DA97EA98FA95E
:10CA100098ADA80197010E941BD25B016C01C40173
:10CA2000B301A60195010E9414D2882314F4640175
:10CA3000530169A97AA98BA99CA920912111309150
:10CA4000221140912311509124110E943AD17B016F
:10CA50008C01E89417F9C801B7012DA53EA54FA593
:10CA600058A90E9422D4181694F46DA57EA58FA50E
:10CA700098A9A80197010E941BD27B018C01C601D5
:10CA8000B501A80197010E9414D2882314F48601ED
:10CA9000750169A17AA18BA19CA1A80197010E94AF
:10CAA000F4D47B018C01CF56DF4F6881C159D0404F
:10CAB000CE56DF4F7881C259D040CD56DF4F8881A6
:10CAC000C359D040CC56DF4F9881C459D040A801FB
:10CAD00097010E9414D287FD19C0D801C70102C076
:10CAE000D201C101CF56DF4F8883C159D040CE5605
:10CAF000DF4F9883C259D040CD56DF4FA883C3592A
:10CB0000D040CC56DF4FB883C459D0408DE490E07C
:10CB1000A196AEADBFADA197A89F8001A99F100DB2
:10CB2000B89F100D1124015C134FCF56DF4F888141
:10CB3000C159D040CE56DF4F9881C259D040CD5612
:10CB4000DF4FA881C359D040CC56DF4FB881C459BC
:10CB5000D040F80182A793A7A4A7B5A762A973A99B
:10CB600084A995A9905820E030E040E050EC0E9464
:10CB7000F4D4D8019E962D913D914D915C91D19721
:10CB80000E94F4D42BE037ED43E25BE30E943BD1FB
:10CB90000E9461D5F62EE72ED82EC92ECF56DF4F34
:10CBA0006881C159D040CE56DF4F7881C259D040FC
:10CBB000CD56DF4F8881C359D040CC56DF4F988186
:10CBC000C459D0402F2D3E2D4D2D5C2D0E9414D2E6
:10CBD00087FD14C0CF56DF4FF882C159D040CE56E2
:10CBE000DF4FE882C259D040CD56DF4FD882C359BB
:10CBF000D040CC56DF4FC882C459D0408DE490E07D
:10CC0000A196EEADFFADA197E89F8001E99F100DC1
:10CC1000F89F100D1124015C134FCF56DF4F888110
:10CC2000C159D040CE56DF4F9881C259D040CD5621
:10CC3000DF4FA881C359D040CC56DF4FB881C459CB
:10CC4000D040F80186A397A3A0A7B1A762A173A1C2
:10CC500084A195A12F2D3E2D4D2D5C2D0E9414D227
:10CC600018162CF081E0D801D7968C9302C0F801F9
:10CC700017AA8DE490E0A1962EAD3FADA197289F15
:10CC8000F001299FF00D389FF00D1124E15CF34F66
:10CC900081E086ABA5E1B1E1FE01719680E10190F2
:10CCA0000D928150E1F78DE490E0A1964EAD5FAD1D
:10CCB000A197489F6001499FD00C589FD00C112428
:10CCC0006FE37CE0C60ED71ED6019296ED90FD90E4
:10CCD0000D911C919597E0921111F0921211009311
:10CCE00013111093141196966D917D918D919C91D5
:10CCF0009997A80197010E941BD24B015C01C201C8
:10CD0000B101A80197010E941BD28B019C01C601B1
:10CD1000B501A4010E940E58BBA5B0930F11C557D1
:10CD2000DF4F288139814A815B81CB58D0402093E5
:10CD30003B0C30933C0C40933D0C50933E0CC95738
:10CD4000DF4F488159816A817B81C758D040409329
:10CD5000370C5093380C6093390C70933A0CCD57C4
:10CD6000DF4F688179818A819B81C358D04060936D
:10CD7000330C7093340C8093350C9093360CC1585F
:10CD8000DF4F88819981AA81BB81CF57D0408093A2
:10CD90002F0C9093300CA093310CB093320C0E9466
:10CDA000925A0E94F766C856DF4F0FB6F894DEBF5E
:10CDB0000FBECDBFCF91DF911F910F91FF90EF90EC
:10CDC000DF90CF90BF90AF909F908F907F906F90AB
:10CDD0005F904F903F902F900895109259111092AC
:10CDE0005C1110925F110895809378030895EFE627
:10CDF000F0E08081826080830895099A3C9A9A9A33
:10CE0000EAE0F1E0808180618083808184608083BA
:10CE10000D9A159A0F9A179A3A9A429A989AA09A46
:10CE20008081826080839FB7F894EBE0F1E080819D
:10CE3000826080839FBF0898109A0C98149A3F983C
:10CE4000479A0A98129A0E98169A3D98459A0B9A04
:10CE50001398159A109252073E9A4698179A109274
:10CE60005307389A4098429A10925407EAE0F1E04A
:10CE70008081806480839FB7F894EBE0F1E080814B
:10CE80008F7B80839FBFA09AEAE0F1E08081816080
:10CE900080839FB7F894EBE0F1E080818E7F808300
:10CEA0009FBF9FB7F894EBE0F1E0808182608083C0
:10CEB0009FBFA1E8B0E08C918F7E8C938C918860AD
:10CEC0008C93E0E8F0E080818D7F808380818E7F8D
:10CED000808380818F73808380818F7C80838C911D
:10CEE000887F82608C9380E090E4909389008093A7
:10CEF00088001092850010928400EFE6F0E08081B7
:10CF00008260808381E080937803789408951F93F2
:10CF1000FC011FB7F89480819181A281B381809335
:10CF2000331190933411A0933511B0933611FB0156
:10CF300080819181A281B3818093371190933811C0
:10CF4000A0933911B0933A11FA0180819181A281A5
:10CF5000B38180933B1190933C11A0933D11B0930A
:10CF60003E11F90180819181A281B38180933F11AB
:10CF700090934011A0934111B09342111FBF1F9194
:10CF80000895FC012FB7F89480819181A281B3812B
:10CF900080933F1190934011A0934111B09342119F
:10CFA0002FBF0895E82F8FB7F894F0E0EE0FFF1F22
:10CFB000EE0FFF1FED5CFE4E2081318142815381D7
:10CFC0008FBFB901CA01089580916F008D7F809352
:10CFD0006F0006C0809110118F5F8F7080931011C9
:10CFE00090910F1180911011981751F41092261101
:10CFF0001092251180916F00826080936F000895D8
:10D0000090910F1180911011981751F3E3CF9091E7
:10D010000F1180911011981739F00E9439750E94F4
:10D02000101A0E94A1CAF3CF08950E940768159AAA
:10D0300010925207179A10925307429A109254076F
:10D04000A09A9FB7F894EBE0F1E080818260808342
:10D050009FBF08951F920F920FB60F920BB60F92BB
:10D060001124AF92BF92CF92DF92EF92FF920F9373
:10D070001F932F933F934F935F936F937F938F9360
:10D080009F93AF93BF93CF93DF93EF93FF938091E1
:10D09000251190912611892B09F094C190910F11BF
:10D0A00080911011981719F4E0E0F0E014C080911D
:10D0B000101190E02DE430E0829FF001839FF00D8D
:10D0C000929FF00D1124E15CF34FE45BFF4F81E090
:10D0D0008083EC54F040F0932611E09325113097B3
:10D0E00009F46AC1E45BFF4F81E08083EC54F040B7
:10D0F000109268111092691110926A1110926B11BE
:10D1000060AD71AD2CE96134720718F060E47CE920
:10D1100004C03EE46132730730F0769567957695EA
:10D12000679584E007C047E26131740730F0769577
:10D13000679582E08093611107C08093611160322E
:10D14000710510F460E270E06052704058E06030A9
:10D150007507E8F0472F50E0440F551F440F551F47
:10D160004359574F9A012E5F3F4FF9018591949192
:10D170009C01AA27639FC001629F810D9A1F06949C
:10D180008A1F9A1F1124FA01459154911EC0CB01A8
:10D19000969587958C7F8359934FFC0145915491C7
:10D1A000FC01329625913491862F90E08770907023
:10D1B000FC012E9FC0012F9F900D3E9F900D1124CA
:10D1C000B3E096958795BA95E1F7481B590B44361D
:10D1D0005105A8F4E5ECF2E007C08091C00085FF9E
:10D1E000FCCF31969093C60090819923B1F781ECE2
:10D1F00099E04AE050E00E94034044E650E050933A
:10D200006D1140936C118091611180936E11109299
:10D210006F11E0912511F091261164AD75AD7093F9
:10D22000671160936611FCE961347F0718F060E4D0
:10D230007CE904C02EE46132720730F07695679580
:10D240007695679584E007C037E26131730730F067
:10D250007695679582E08093611108C081E08093A4
:10D2600061116032710510F460E270E0605270404C
:10D2700048E060307407E8F0472F50E0440F551F36
:10D28000440F551F4359574F9A012E5F3F4FF901E5
:10D29000859194919C01AA27639FC001629F810D93
:10D2A0009A1F06948A1F9A1F1124FA0145915491DE
:10D2B0001EC0CB01969587958C7F8359934FFC01B7
:10D2C00045915491FC01329625913491862F90E03E
:10D2D00087709070FC012E9FC0012F9F900D3E9F84
:10D2E000900D112433E0969587953A95E1F7481B08
:10D2F000590B44365105A8F4E5ECF2E007C08091E3
:10D30000C00085FFFCCF31969093C6009081992391
:10D31000B1F781EC99E04AE050E00E94034044E616
:10D3200050E0CA01A0E0B0E08093621190936311D5
:10D33000A0936411B09365115093890040938800C5
:10D34000E0912511F091261180899189A289B389F4
:10D35000B695A79597958795B095A0959095819549
:10D360009F4FAF4FBF4F8093431190934411A093B1
:10D370004511B09346118093471190934811A093A3
:10D380004911B0934A1180934B1190934C11A09383
:10D390004D11B0934E1180934F1190935011A09363
:10D3A0005111B093521110925311109254111092C6
:10D3B00055111092561106C080ED97E090938900A8
:10D3C00080938800C0912511D0912611209709F4EF
:10D3D0005CC588A18093571180FF03C0119A8FEF1D
:10D3E00002C0119881E0809374038091571181FFEE
:10D3F00003C044988FEF02C0449A81E08093750384
:10D40000809157119091780380FF36C0992309F4D9
:10D410006BC020B1217031E0232759F18091581160
:10D42000882339F188819981AA81BB811816190650
:10D430001A061B06F4F48091331190913411A091D7
:10D440003511B09136118093271190932811A09334
:10D450002911B0932A113093591188899989AA8981
:10D46000BB898093531190935411A0935511B0939D
:10D4700056112093581138C09923B1F180B1869587
:10D4800086958095282F217080FF2CC080915A119D
:10D49000882341F188819981AA81BB8118161906D8
:10D4A0001A061B06FCF48091331190913411A0915F
:10D4B0003511B09136118093271190932811A093C4
:10D4C0002911B0932A1181E0809359118889998993
:10D4D000AA89BB898093531190935411A09355113D
:10D4E000B093561120935A1180915711909178035F
:10D4F00081FF3AC0992309F471C080B182958F7081
:10D500008095282F217080FF2CC080915B1188238B
:10D5100041F18C819D81AE81BF81181619061A06D2
:10D520001B06FCF48091371190913811A0913911AC
:10D53000B0913A1180932B1190932C11A0932D113F
:10D54000B0932E1181E080935C1188899989AA8912
:10D55000BB898093531190935411A0935511B093AC
:10D56000561120935B113AC09923C1F180B1829585
:10D570008695869583708095282F217080FF2CC01A
:10D5800080915D11882341F18C819D81AE81BF81A5
:10D59000181619061A061B06FCF480913711909193
:10D5A0003811A0913911B0913A1180932B119093B9
:10D5B0002C11A0932D11B0932E1181E080935C115A
:10D5C00088899989AA89BB898093531190935411B2
:10D5D000A0935511B093561120935D11809157116E
:10D5E0009091780382FF39C0A29A8FEF80937603DF
:10D5F000992309F46EC020E037992CC021E0809176
:10D600005E11882339F188859985AA85BB8518160E
:10D6100019061A061B06F4F480913B1190913C11F7
:10D62000A0913D11B0913E1180932F119093301134
:10D63000A0933111B093321120935F118889998999
:10D64000AA89BB898093531190935411A0935511CB
:10D65000B093561120935E113CC0A29831E03093F4
:10D6600076039923B1F186B182958695877080956E
:10D67000282F217080FF2BC080916011882339F101
:10D6800088859985AA85BB85181619061A061B0672
:10D69000F4F480913B1190913C11A0913D11B09117
:10D6A0003E1180932F1190933011A0933111B093BC
:10D6B000321130935F1188899989AA89BB89809337
:10D6C000531190935411A0935511B0935611209378
:10D6D00060118091571199A183FF12C0913031F4EC
:10D6E0009FB7F89480910B018B7F05C09FB7F8948A
:10D6F00080910B018F7E80930B019FBF8FEF11C034
:10D70000913031F49FB7F89480910B01846005C08B
:10D710009FB7F89480910B01806180930B019FBFAC
:10D7200081E08093770360E070E08CC18091C0005D
:10D7300087FF19C04091C600E091BD09F091BE0974
:10D7400031969F012F77307031978091BF0990916A
:10D75000C0092817390739F0E35CF64F408330934E
:10D76000BE092093BD09288139814A815B8180915E
:10D77000431190914411A0914511B0914611280F89
:10D78000391F4A1F5B1F209343113093441140936C
:10D7900045115093461112161306140615066CF522
:10D7A000139A88899989AA89BB89281B390B4A0B46
:10D7B0005B0B2093431130934411409345115093D8
:10D7C000461120913311309134114091351150910F
:10D7D000361180917403992787FD9095A92FB92F51
:10D7E000820F931FA41FB51F8093331190933411A0
:10D7F000A0933511B093361113982C813D814E8141
:10D800005F818091471190914811A0914911B09189
:10D810004A11280F391F4A1F5B1F2093471130936D
:10D8200048114093491150934A11121613061406D9
:10D8300015066CF5469A88899989AA89BB89281B9F
:10D84000390B4A0B5B0B20934711309348114093DF
:10D85000491150934A11209137113091381140915C
:10D86000391150913A1180917503992787FD909550
:10D87000A92FB92F820F931FA41FB51F80933711B3
:10D8800090933811A0933911B0933A114698288596
:10D8900039854A855B8580914B1190914C11A091FF
:10D8A0004D11B0914E11280F391F4A1F5B1F209355
:10D8B0004B1130934C1140934D1150934E11121651
:10D8C0001306140615066CF5409A88899989AA8969
:10D8D000BB89281B390B4A0B5B0B20934B113093F0
:10D8E0004C1140934D1150934E1120913B113091AA
:10D8F0003C1140913D1150913E1180917603992742
:10D9000087FD9095A92FB92F820F931FA41FB51FD4
:10D9100080933B1190933C11A0933D11B0933E1125
:10D9200040982C853D854E855F8580914F11909163
:10D930005011A0915111B0915211280F391F4A1F57
:10D940005B1F20934F11309350114093511150930E
:10D95000521112161306140615060CF04DC089A1BB
:10D96000813031F49FB7F89480910B01816005C03C
:10D970009FB7F89480910B01806480930B019FBF47
:10D9800088899989AA89BB89281B390B4A0B5B0BAB
:10D9900020934F11309350114093511150935211D5
:10D9A00020913F113091401140914111509142110D
:10D9B00080917703992787FD9095A92FB92F820F22
:10D9C000931FA41FB51F80933F1190934011A09304
:10D9D0004111B093421189A1813031F49FB7F8947D
:10D9E00080910B018E7F05C09FB7F89480910B0149
:10D9F0008F7B80930B019FBF8091531190915411A5
:10DA0000A0915511B09156110196A11DB11D8093A1
:10DA1000531190935411A0935511B0935611209126
:10DA200053113091541140915511509156116F5F1F
:10DA30007F4F88899989AA89BB89281739074A079E
:10DA40005B0738F48091611190E0681779070CF456
:10DA50006DCE209153113091541140915511509138
:10DA600056118C899D89AE89BF8982179307A407B7
:10DA7000B50708F4E3C0E0906211F09063110091E3
:10DA8000641110916511AC8CBD8CCE8CDF8CA8011B
:10DA90009701C601B501AA27279FB12D389FF00134
:10DAA000489FF00D479FE00DF11D289FB00DE11D2F
:10DAB000FA1F379FB00DE11DFA1F469FB00DE11D03
:10DAC000FA1F369FB10DEA1FFA1FB695EA1FFA1F1B
:10DAD00011248CAD9DAD8E0F9F1F90936711809385
:10DAE000661128AD39AD4AAD5BADA0E0B0E02817B6
:10DAF00039074A075B0720F43093671120936611BA
:10DB000060916611709167118CE96134780718F0A3
:10DB100060E47CE904C09EE46132790730F07695D8
:10DB200067957695679584E007C0E7E261317E07E7
:10DB300030F07695679582E08093611108C081E0AE
:10DB4000809361116032710510F460E270E0605200
:10DB50007040F8E060307F07E8F0472F50E0440F56
:10DB6000551F440F551F4359574F9A012E5F3F4F82
:10DB7000F901859194919C01AA27639FC001629F3E
:10DB8000810D9A1F06948A1F9A1F1124FA0145914C
:10DB900054911EC0CB01969587958C7F8359934FE6
:10DBA000FC0145915491FC01329625913491862FC8
:10DBB00090E087709070FC012E9FC0012F9F900D08
:10DBC0003E9F900D1124B3E096958795BA95E1F7A5
:10DBD000481B590B44365105A8F4E5ECF2E007C0A8
:10DBE0008091C00085FFFCCF31969093C600908154
:10DBF0009923B1F781EC99E04AE050E00E9403409C
:10DC000044E650E050938900409388009A0140E038
:10DC100050E08091621190916311A0916411B091D4
:10DC20006511820F931FA41FB51F809362119093FB
:10DC30006311A0936411B093651102C12091531137
:10DC4000309154114091551150915611888D998DF4
:10DC5000AA8DBB8D82179307A407B50708F0E4C00F
:10DC6000609168117091691180916A1190916B11A6
:10DC70002C8D3D8D4E8D5F8DAA27639FB12D749F96
:10DC8000F001849FF00D839FE00DF11D649FB00DA6
:10DC9000E11DFA1F739FB00DE11DFA1F829FB00DA9
:10DCA000E11DFA1F729FB10DEA1FFA1FB695EA1F18
:10DCB000FA1F112480916611909167118E179F07AA
:10DCC00038F4C05CDF4F68817981C054D04003C014
:10DCD000BC016E1B7F0BC05CDF4F288139814A81FC
:10DCE0005B81CB01A0E0B0E082179307A407B507E2
:10DCF00008F4B901FCE961347F0718F060E47CE9BD
:10DD000004C02EE46132720730F0769567957695FF
:10DD1000679584E007C037E26131730730F076958C
:10DD2000679582E08093611108C081E08093611162
:10DD30006032710510F460E270E06052704048E0BB
:10DD400060307407E8F0472F50E0440F551F440F30
:10DD5000551F4359574F9A012E5F3F4FF901859147
:10DD600094919C01AA27639FC001629F810D9A1F15
:10DD700006948A1F9A1F1124FA01459154911EC0DE
:10DD8000CB01969587958C7F8359934FFC014591E4
:10DD90005491FC01329625913491862F90E0877042
:10DDA0009070FC012E9FC0012F9F900D3E9F900D03
:10DDB000112423E0969587952A95E1F7481B590B86
:10DDC00044365105A8F4E5ECF2E007C08091C000AC
:10DDD00085FFFCCF31969093C60090819923B1F7CF
:10DDE00081EC99E04AE050E00E94034044E650E0B4
:10DDF00050938900409388009A0140E050E0809160
:10DE0000681190916911A0916A11B0916B11820F04
:10DE1000931FA41FB51F8093681190936911A0935D
:10DE20006A11B0936B110CC080916C1190916D11BF
:10DE3000909389008093880080916E118093611186
:10DE40002091531130915411409155115091561118
:10DE5000E0912511F091261180899189A289B389D9
:10DE6000281739074A075B0780F010922611109295
:10DE7000251190910F1180911011981731F0809118
:10DE800010118F5F8F7080931011FF91EF91DF91D0
:10DE9000CF91BF91AF919F918F917F916F915F9142
:10DEA0004F913F912F911F910F91FF90EF90DF9035
:10DEB000CF90BF90AF900F900BBE0F900FBE0F9002
:10DEC0001F90189580915911882349F480915C1115
:10DED000882329F480915F11882309F49CC0EDE622
:10DEE000F0E1949108C08091C00085FFFCCF909331
:10DEF000C600319694919923B1F7EFEAF0E194913D
:10DF000008C08091C00085FFFCCF9093C600319679
:10DF100094919923B1F7809159118823F1F0609180
:10DF20002711709128118091291190912A110E9436
:10DF3000B6D22091E30B3091E40B4091E50B509168
:10DF4000E60B0E941BD2AB01BC018BEA90E10E9460
:10DF5000D21D8BE990E10E94C7C980915C11882392
:10DF6000F1F060912B1170912C1180912D119091F5
:10DF70002E110E94B6D22091E70B3091E80B409110
:10DF8000E90B5091EA0B0E941BD2AB01BC0187E95F
:10DF900090E10E94D21D87E890E10E94C7C980915C
:10DFA0005F118823F1F060912F11709130118091F1
:10DFB0003111909132110E94B6D22091EB0B309129
:10DFC000EC0B4091ED0B5091EE0B0E941BD2AB017C
:10DFD000BC0183E890E10E94D21D83E790E10E949A
:10DFE000C7C9E9EDF2E007C08091C00085FFFCCF12
:10DFF00031969093C60090819923B1F78091C0002B
:10E0000085FFFCCF8AE08093C600109259111092D0
:10E010005C1110925F11089560E070E08FE793E467
:10E0200020917D0330917E0340917F0350918003C6
:10E030000E941BD2DC019B01AC012093B9113093EB
:10E04000BA114093BB115093BC11CB018093BD1109
:10E050009093BE11A093BF11B093C0110895FC011D
:10E0600097FF03C08091881103C0EB56FE4E80815C
:10E0700090E0089510927111109270111092951104
:10E0800074981092731110927211109296117598E3
:10E09000109275111092741110928811A59808951C
:10E0A0002DEB37E346E05EE30E94F4D408952DEBB8
:10E0B00037E346E05EE30E941BD208952DEB37E381
:10E0C00046E05EE30E941BD208952DEB37E346E065
:10E0D0005EE30E94F4D408951F93182F0E943A70B3
:10E0E0000E94BB18882309F036C0EEEBF0E1949152
:10E0F00008C08091C00085FFFCCF9093C600319688
:10E1000094919923B1F781EC99E0612F70E04AE096
:10E1100050E00E94D93F8091C00085FFFCCF8AE08B
:10E120008093C600EDE1F1E1949108C08091C000B8
:10E1300085FFFCCF9093C600319694919923B1F757
:10E140008091C00085FFFCCF8AE08093C60080E10B
:10E1500091E10E94D6C90E9462191F9108951F93F0
:10E16000182F0E943A700E94BB18882309F036C00D
:10E17000EEEBF0E1949108C08091C00085FFFCCFE8
:10E180009093C600319694919923B1F781EC99E070
:10E19000612F70E04AE050E00E94D93F8091C000BA
:10E1A00085FFFCCF8AE08093C600E7E5F1E194911A
:10E1B00008C08091C00085FFFCCF9093C6003196C7
:10E1C00094919923B1F78091C00085FFFCCF8AE03C
:10E1D0008093C6008AE491E10E94D6C90E94621928
:10E1E0001F9108951F920F920FB60F920BB60F92C8
:10E1F00011242F933F934F935F936F937F938F934C
:10E200009F93AF93BF93EF93FF9390918D039923C7
:10E21000D9F48091951180939E11882311F0749AFE
:10E2200001C074988091961180939D11882311F0FC
:10E23000759A01C075988091881180939C118823EC
:10E2400011F0A59A01C0A59880919E11891708F434
:10E25000749880919D11891708F4759880919C118C
:10E26000891708F4A5989F5F9F7790938D038091FD
:10E270009F11833009F450C0843028F48130F9F0C4
:10E280008230D8F50DC0853009F471C0853008F4AE
:10E290005FC0863009F487C0873009F08FC087C01F
:10E2A00088E080937B0080E480937C0080917A00FA
:10E2B000806480937A000E94AD9981E01BC08091B8
:10E2C000780090917900A0E0B0E02091AC113091FD
:10E2D000AD114091AE115091AF11280F391F4A1F57
:10E2E0005B1F2093AC113093AD114093AE1150934E
:10E2F000AF1182E080939F1161C088E080937B0022
:10E3000082E480937C0080917A00806480937A001C
:10E310000E94AD9983E0EECF8091780090917900D2
:10E32000A0E0B0E02091A0113091A1114091A21184
:10E330005091A311280F391F4A1F5B1F2093A01172
:10E340003093A1114093A2115093A31184E0D2CF36
:10E3500088E080937B0081E480937C0080917A0048
:10E36000806480937A000E94AD9985E0C3CF80914C
:10E37000780090917900A0E0B0E02091A811309150
:10E38000A9114091AA115091AB11280F391F4A1FB2
:10E390005B1F2093A8113093A9114093AA115093A9
:10E3A000AB1186E0A7CF0E94AD9987E0A3CF109272
:10E3B0009F118091B0118F5F8093B0118091B01147
:10E3C000803108F479C0809197118823C1F480913D
:10E3D000AC119091AD11909377118093761180914B
:10E3E000A8119091A911909379118093781180913F
:10E3F000A0119091A111909383118093821181E0DB
:10E40000809397111092B0111092AC111092AD112F
:10E410001092AE111092AF111092A8111092A91182
:10E420001092AA111092AB111092A4111092A51182
:10E430001092A6111092A7111092A0111092A11182
:10E440001092A2111092A3112091761130917711A0
:10E450008091890390918A03281739071CF080E086
:10E460000E94AF70209176113091771180919811B0
:10E4700090919911821793071CF080E00E946C70B4
:10E48000209178113091791180918B0390918C03B8
:10E49000281739071CF081E00E94AF702091781195
:10E4A0003091791180919A1190919B118217930765
:10E4B0001CF081E00E946C70FF91EF91BF91AF91D1
:10E4C0009F918F917F916F915F914F913F912F918C
:10E4D0000F900BBE0F900FBE0F901F901895EF92EC
:10E4E000FF920F931F93E0907A11F0907B110091AF
:10E4F0007C1110917D1160917011709171118827BC
:10E5000077FD8095982F0E94B6D220E030E040EA57
:10E5100051E40E943AD19B01AC01C801B7010E94AD
:10E5200014D2882394F4C801B7010E9483D2709357
:10E530008A11609389110E94181460938D11709351
:10E540008E1180938F1190939011E0907E11F09036
:10E550007F11009180111091811160917211709161
:10E560007311882777FD8095982F0E94B6D220E0FE
:10E5700030E040EA51E40E943AD19B01AC01C8016D
:10E58000B7010E9414D2882394F4C801B7010E94F5
:10E5900083D270938C1160938B110E941814609336
:10E5A00091117093921180939311909394111F91F4
:10E5B0000F91FF90EF9008952F926F927F928F921C
:10E5C0009F92AF92BF92CF92DF92EF92FF920F9302
:10E5D0001F93DF93CF93CDB7DEB729970FB6F8948B
:10E5E000DEBF0FBECDBF8C01E62E61E06E1568F573
:10E5F000EEEBF0E1949108C08091C00085FFFCCF64
:10E600009093C600319694919923B1F781EC99E0EB
:10E610006E2D70E04AE050E00E94D93FE4E8F1E15D
:10E62000949108C08091C00085FFFCCF9093C600F4
:10E63000319694919923B1F78091C00085FFFCCF6A
:10E640008AE08093C6000E94A419AE2DB0E0FD01BF
:10E65000EE0FFF1FE950FC4F8081918199878887D9
:10E66000892B09F49FC0A550BC4F9C919B83222409
:10E67000239479C0222D30E0A901440F551F440F87
:10E68000551FE885F985E40FF51F859194910817CA
:10E6900019070CF067C0C9010197880F991F880FEF
:10E6A000991FFC013296A885B985EA0FFB1FC5901A
:10E6B000D4908A0F9B1FFC01659174917A836983C2
:10E6C000FA013296EA0FFB1FE590F490FD01E40F8A
:10E6D000F51FA590B490B601882777FD8095982FF7
:10E6E0000E94B6D26C837D838E839F8389819A81B9
:10E6F000081B190BB801882777FD8095982F0E9479
:10E70000B6D23B014C01EC18FD080027F7FC009540
:10E71000102FC801B7010E94B6D29B01AC01C40101
:10E72000B3010E94F4D47B018C01A981BA81AA1A99
:10E73000BB0ACC24B7FCC094DC2CC601B5010E94F6
:10E74000B6D29B01AC01C801B7010E941BD29B014C
:10E75000AC016C817D818E819F810E943BD1E62F2F
:10E76000692F09C02394BB812B1608F483CFE0E006
:10E7700070E080E060E0FB812F1679F5E22DF0E09B
:10E78000EE0FFF1FEE0FFF1F329768857985E60FAA
:10E79000F71F65917491882777FD8095982F0E94C7
:10E7A000B6D219C0B801882777FD8095982F0E94AE
:10E7B000B6D220E030E04AEF5EE30E94F4D420E0DD
:10E7C00030E040E85DE30E94F4D420E030E040E037
:10E7D00050E00E943BD1E62F692F2E2F372F482F74
:10E7E000562FB901CA0129960FB6F894DEBF0FBEA5
:10E7F000CDBFCF91DF911F910F91FF90EF90DF90F0
:10E80000CF90BF90AF909F908F907F906F902F9000
:10E810000895CF92DF92EF92FF920F931F9360E0E3
:10E8200070E08FE793E420917D0330917E03409167
:10E830007F03509180030E941BD2E0918E03F091E0
:10E840008F030F2EF0E0EF2EF0E0FF2EF0E00F2F01
:10E85000F0E01F2FF02DE092B111F092B211009371
:10E86000B3111093B4119B01482F592F2093B91164
:10E870003093BA114093BB115093BC11F0939103A4
:10E88000E0939003E092B511F092B6110093B711A6
:10E890001093B811CB01DA018093BD119093BE1192
:10E8A000A093BF11B093C0116C9A6D9A9D9A8091FC
:10E8B000010180618093010187E061E070E00E94C6
:10E8C000BE1887ED80937A0010927E0010927D0032
:10E8D00080917D00816080937D0080917D008260C9
:10E8E00080937D0080917D00846080937D0080E82E
:10E8F00088BD80916E00846080936E006AEF70E046
:10E9000080E090E00E94261485E090E09093C21190
:10E910008093C11109C080919811909199114096EE
:10E9200090939911809398118091981190919911D9
:10E9300060E00E94DC7220E030E040EA50E40E9497
:10E9400014D287FDE8CF83E191E090938F03809309
:10E950008E0309C08091890390918A034097909318
:10E960008A03809389038091890390918A0360E0F0
:10E970000E94DC7220E030E849E853E40E9422D48F
:10E98000181644F385E090E09093C4118093C3116E
:10E9900009C080919A1190919B11409690939B1180
:10E9A00080939A1180919A1190919B1161E00E943D
:10E9B000DC7220E030E040EA50E40E9414D287FD8F
:10E9C000E8CF83E191E0909391038093900309C095
:10E9D00080918B0390918C03409790938C0380934C
:10E9E0008B0380918B0390918C0361E00E94DC7219
:10E9F00020E030E849E853E40E9422D4181644F39A
:10EA00001F910F91FF90EF90DF90CF90089580912C
:10EA100076119091771160E00E94DC7260937A1118
:10EA200070937B1180937C1190937D11809178116C
:10EA30009091791161E00E94DC7260937E11709375
:10EA40007F11809380119093811180E090E0A0E08D
:10EA5000B0E08093841190938511A0938611B093B8
:10EA600087110E947A928FB7F894109297118FBFF6
:10EA700008952F923F924F925F926F927F928F9262
:10EA80009F92AF92BF92CF92DF92EF92FF920F933D
:10EA90001F93DF93CF93CDB7DEB765970FB6F8948A
:10EAA000DEBF0FBECDBF80919711882309F439C214
:10EAB0000E9407758AE791E19A8B898BA0E7B1E103
:10EAC000B88BAF87EDE8F1E1FC87EB8785E991E151
:10EAD0009A878987A7EEB1E1B887AF83EDECF1E1C2
:10EAE000FE83ED838FEC91E19C838B83AFEEB1E1EC
:10EAF000BA83A9831D8A1C8A1E861D86E1EAF1E17C
:10EB0000B491BB8BE989FA8960807180828093809F
:10EB1000AF85B889CD90DC90B601882777FD8095C8
:10EB2000982F0E94B6D2A40193010E943AD17B0192
:10EB30008C01EC89FD89EB53FE4E608371838283E7
:10EB4000938320E030E040E251E40E9422D4181682
:10EB50002CF421E0ED81FE812083E1C0C801B701E2
:10EB600020E030E040E251EC0E9414D287FD02C068
:10EB7000CD2829F4E1E0AD81BE81EC93BBC0AD812D
:10EB8000BE818C91882369F080E090E0A0E0B0E045
:10EB9000EB81FC8180839183A283B383AD81BE81AD
:10EBA0001C92C801B7012091790330917A034091FA
:10EBB0007B0350917C030E94F4D41B012C01EC894F
:10EBC000FD89E952FE4E6083718382839383C8017D
:10EBD000B701EB81FC8120813181428153810E9408
:10EBE0003BD15B016C01EC89FD89EF54FE4EE08066
:10EBF000F18002811381A80197010E9414D287FD40
:10EC000012C0EC89FD89E754FE4EE080F18002815C
:10EC10001381C601B501A80197010E9422D41816DC
:10EC200014F086017501AB81BC81ED92FD920D93CC
:10EC30001C931397C801B70120917D0330917E0387
:10EC400040917F03509180030E94F4D45B016C01DA
:10EC5000EC89FD89E152FE4E608371838283938348
:10EC6000C401B301EF81F885208131814281538154
:10EC70000E943AD120918103309182034091830315
:10EC8000509184030E94F4D420ED3CEC4CE45DE30D
:10EC90000E94F4D47B018C01A981BA816D917D9190
:10ECA0008D919C9123E333E343E75FE30E94F4D427
:10ECB0009B01AC01C801B7010E943BD17B018C01D3
:10ECC000E981FA816083718382839383C201B101F8
:10ECD000A60195010E943BD1A80197010E943AD15B
:10ECE0007B018C0120E030E040E050E00E9414D233
:10ECF00088235CF40F2EF0E0EF2EF0E0FF2EF0E022
:10ED00000F2FF0E01F2FF02D14C0C801B70120E035
:10ED100030E04FE753E40E9422D4181654F40F2E2B
:10ED2000F0E0EF2EF0E0FF2EFFE70F2FF3E41F2FB0
:10ED3000F02DAF81B8856D927D928D929C92139744
:10ED4000ED85FE85EF53FE4E60817181882777FD4A
:10ED50008095982F0E94B6D29B01AC01C401B301EB
:10ED60000E9422D41816F4F4ED85FE85E257FC4F7C
:10ED700060817181882777FD8095982F0E94B6D297
:10ED80009B01AC01C401B3010E9414D2882354F446
:10ED9000C801B7010E9483D275956795E985FA8508
:10EDA000608303C0A985BA851C92EB85FC858081B0
:10EDB0009181A281B3810097A105B10509F45DC0DD
:10EDC0000E941814AB85BC852D913D914D915C91AD
:10EDD000621B730B840B950B61547C4980409040FF
:10EDE00008F44BC0ED85FE85E757FE4E60817181CA
:10EDF000665F7F4F882777FD8095982F0E94B6D257
:10EE00009B01AC01E989FA896081718182819381DA
:10EE10000E9414D288235CF5AF85B8891D921C929C
:10EE200087EA91E10E94C7C99B89E1EAF1E108C044
:10EE30008091C00085FFFCCF9093C60031969491DD
:10EE40009923B1F7EAEDF2E007C08091C00085FF99
:10EE5000FCCF31969093C60090819923B1F78091B1
:10EE6000C00085FFFCCFBAE0B093C60006C0EB85BA
:10EE7000FC85108211821282138289899A890496F4
:10EE80009A8B898BAC89BD891496BD8BAC8BEF8531
:10EE9000F8893296F88BEF878D859E8502969E873E
:10EEA0008D87AB85BC851496BC87AB87E985FA85D1
:10EEB0003196FA87E9878F819885049698878F83A2
:10EEC000AD81BE811196BE83AD83EB81FC8134960A
:10EED000FC83EB8389819A8104969A838983AC8928
:10EEE000BD89189709F00ECE0E9418142091F711D1
:10EEF0003091F8114091F9115091FA11621B730B86
:10EF0000840B950B685873418040904050F00E94EC
:10EF100018146093F7117093F8118093F91190937E
:10EF2000FA1165960FB6F894DEBF0FBECDBFCF9134
:10EF3000DF911F910F91FF90EF90DF90CF90BF90E6
:10EF4000AF909F908F907F906F905F904F903F9089
:10EF50002F9008952F923F924F925F926F927F92DF
:10EF60008F929F92AF92BF92CF92DF92EF92FF92D9
:10EF70000F931F93DF93CF93CDB7DEB7E6970FB60E
:10EF8000F894DEBF0FBECDBF6C8F7D8F8E8F9F8FAD
:10EF90005EAB4DAB39A328A30E941814698B7A8B02
:10EFA0008B8B9C8B2DA93EA9233031051CF4E9EEF7
:10EFB000F2E019C0ECEFF2E007C08091C00085FFDD
:10EFC000FCCF31969093C60090819923B1F7809140
:10EFD000C00085FFFCCF14C48091C00085FFFCCF2A
:10EFE00031969093C60090819923B1F78091C0002B
:10EFF00085FFFCCF8AE08093C6000E943A704DA93D
:10F000005EA957FF74C08FE78093881189899A8918
:10F01000AB89BC898D879E87AF87B88B89879A8794
:10F02000AB87BC8719AA1AAA1BAA1CAA1F8A1E8A08
:10F0300091E09D8B1D821E821F8218867FE7A72E7E
:10F04000B12CC12CD12C6FE7262E312C412C512C08
:10F0500020E030E040E050E029833A834B835C833A
:10F060000F2EF0E06F2EF0E47F2EFCE18F2EF6E401
:10F070009F2EF02D4DA95EA94B565E4E5BA34AA371
:10F08000E7E9F2E154915CA3E2E9F2E184918DA316
:10F09000EBE8F2E194919EA3E4E8F2E1A491AFA33E
:10F0A000EEE7F2E1B491B8A7E8E7F2E1249129A7ED
:10F0B000EBE6F2E134913AA7E5E6F2E144914BA7A1
:10F0C000EFE5F2E154915CA7E9E5F2E184918DA7C7
:10F0D000ADA9BEA9AA0FBB1FAA0FBB1FA658BE4E43
:10F0E000BFA7AEA7EFE1F2E1B491B8AB07C0EDA9BD
:10F0F000FEA9EB56FE4E8FE7808388CF8091971153
:10F10000882309F4A3C20E940775EDA9FEA9F7FFA1
:10F110000DC0F0918411F9AB209185112AAB30918B
:10F1200086113BAB409187114CAB11C0AEA5BFA57A
:10F13000BC91B9ABEEA5FFA5F181FAABAEA5BFA519
:10F140001296BC91BBABEEA5FFA5F381FCAB698128
:10F150007A818B819C8129A93AA94BA95CA90E943B
:10F1600022D4181644F089A99AA9ABA9BCA989830D
:10F170009A83AB83BC83C401B30129A93AA94BA9E3
:10F180005CA90E9414D287FD06C089A99AA9ABA9DF
:10F19000BCA93C014D012D89222309F451C069A964
:10F1A0007AA98BA99CA92C8D3D8D4E8D5F8D0E94D7
:10F1B00022D418160CF04AC20E94181429853A85E8
:10F1C0004B855C85621B730B840B950B69587341EF
:10F1D0008040904008F43AC2D601C50182199309D3
:10F1E000A409B5094DA95EA957FF07C0B595A79514
:10F1F000979587958093881107C0B595A7959795A2
:10F200008795EAA1FBA180830E9418146D877E87F1
:10F210008F87988B9B01AC0189859A85AB85BC85CE
:10F22000281B390B4A0B5B0B2D833E834F8358877A
:10F230002C8D3D8D4E8D5F8D29833A834B835C836E
:10F2400069A97AA98BA99CA92C8D3D8D4E8D5F8DC6
:10F250000E9414D288230CF0F8C10E9418142D8546
:10F260003E854F855889621B730B840B950B69583B
:10F2700073418040904008F4E8C10E9418146987E7
:10F280007A878B879C874E895F89452B09F4B8C1A3
:10F29000DC01CB012D853E854F855889821B930B60
:10F2A000A40BB50B2D813E814F815885280F391F46
:10F2B0004A1F5B1F288F398F4A8F5B8F2D813E81BC
:10F2C0004F815885281B390B4A0B5B0BCA01B901CA
:10F2D000A20191010E94C6D5288D398D4A8D5B8D82
:10F2E0000E942ED62A0D3B1D4C1D5D1D243131057B
:10F2F000410551055CF424E1222E312C412C512C86
:10F3000094E1A92EB12CC12CD12C1FC059016A0146
:10F310003CEEA316B104C104D1042CF08BEEA82E50
:10F32000B12CC12CD12C40E8A416B104C104D104E5
:10F330001CF41501260109C00EEF202E312C412CA2
:10F34000512C2A183B084C085D089CA1E7E9F2E122
:10F3500008C08091C00085FFFCCF9093C600319615
:10F3600094919923B1F781EC99E0B601A5012AE0C7
:10F3700030E00E94A43F9DA1E2E9F2E108C0809143
:10F38000C00085FFFCCF9093C600319694919923DD
:10F39000B1F781EC99E0B201A1012AE030E00E94CE
:10F3A000A43F9EA1EBE8F2E108C08091C00085FF78
:10F3B000FCCF9093C600319694919923B1F781ECDC
:10F3C00099E0B401A30122E030E00E94B4409FA183
:10F3D000E4E8F2E108C08091C00085FFFCCF909383
:10F3E000C600319694919923B1F781EC99E0498157
:10F3F0005A816B817C8122E030E00E94B440809190
:10F40000C00085FFFCCF8AE08093C6008E899F896B
:10F4100003970CF4F5C0C201B1010E94B6D220E0FE
:10F4200030E040E850E40E94F4D47B018C01698113
:10F430007A818B819C81A40193010E943AD120EDB5
:10F440003FE049E450E40E94F4D420E030E040E0A2
:10F450005FE30E94F4D49B01AC01C801B7010E9494
:10F460001BD27B018C01688D798D8A8D9B8D0E94CA
:10F47000B6D220E030E04AE754E40E941BD23B01C0
:10F480004C0198A5EEE7F2E108C08091C00085FF2D
:10F49000FCCF9093C600319694919923B1F781ECFB
:10F4A00099E0B801A70122E030E00E94B44099A59C
:10F4B000E8E7F2E108C08091C00085FFFCCF90939F
:10F4C000C600319694919923B1F781EC99E0B4018B
:10F4D000A30122E030E00E94B4408091C00085FF8B
:10F4E000FCCF8AE08093C600C801B7012AE939E958
:10F4F00049E15FE30E94F4D47B018C019AA5EBE61D
:10F50000F2E108C08091C00085FFFCCF9093C60057
:10F51000319694919923B1F78091C00085FFFCCF7B
:10F520008AE08093C6009BA5E5E6F2E108C08091E1
:10F53000C00085FFFCCF9093C6003196949199232B
:10F54000B1F781EC99E0B801A70122E030E00E9418
:10F55000B4408091C00085FFFCCF8AE08093C60054
:10F560009CA5EFE5F2E108C08091C00085FFFCCFCB
:10F570009093C600319694919923B1F7C801B701D1
:10F58000A80197010E943BD1A40193010E941BD2C4
:10F59000AB01BC0181EC99E022E030E00E94B44074
:10F5A0008091C00085FFFCCF8AE08093C6009DA5B6
:10F5B000E9E5F2E108C08091C00085FFFCCF90939F
:10F5C000C600319694919923B1F7C801B701A401FF
:10F5D00093010E94F4D420E030E040E05EE30E941A
:10F5E000F4D4AB01BC0181EC99E022E030E00E9450
:10F5F000B4408091C00085FFFCCF8AE08093C600B4
:10F60000D201C1018A0D9B1DAC1DBD1DEDA9FEA936
:10F61000F7FF07C0B595A7959795879580938811B3
:10F6200007C0B595A79597958795EAA1FBA180831B
:10F630002E893F892F5F3F4F3F8B2E8B6C8C7D8CAB
:10F640008E8C9F8C31E03D8B01C01D8A6C8D7D8D31
:10F650008E8D9F8D20E030E040EA51E40E943BD146
:10F660009B01AC0169A97AA98BA99CA90E9422D40B
:10F6700018169CF4EFE2F2E1949108C08091C0006A
:10F6800085FFFCCF9093C600319694919923B1F7F2
:10F690008091C00085FFFCCFB3C00E941814298957
:10F6A0003A894B895C89621B730B840B950B615DF6
:10F6B00077408040904008F454C04DA95EA957FFA0
:10F6C00011C060918811E9E2F2E1949108C0809143
:10F6D000C00085FFFCCF9093C6003196949199238A
:10F6E000B1F711C0AAA1BBA16C91E3E2F2E1949140
:10F6F00008C08091C00085FFFCCF9093C600319672
:10F7000094919923B1F7162F81EC99E049A95AA950
:10F710006BA97CA922E030E00E94B44098A9EFE1F7
:10F72000F2E108C08091C00085FFFCCF9093C60035
:10F73000319694919923B1F781EC99E0612F70E0B3
:10F740004AE050E00E94D93F8091C00085FFFCCF85
:10F750008AE08093C6000E941814698B7A8B8B8B89
:10F760009C8B0E9418147B018C010E9418142D851B
:10F770003E854F855889E21AF30A040B150B29853B
:10F780003A854B855C85E21AF30A040B150BE60EED
:10F79000F71E081F191F31E8E3163FE4F30632E1B4
:10F7A000030730E0130798F0E2E0F2E1949108C01B
:10F7B0008091C00085FFFCCF9093C6003196949154
:10F7C0009923B1F78091C00085FFFCCF19C04E8905
:10F7D0005F8988A199A18417950774F5E6EBF1E19B
:10F7E000949108C08091C00085FFFCCF9093C60023
:10F7F000319694919923B1F78091C00085FFFCCF99
:10F800008AE08093C600E6960FB6F894DEBF0FBE7E
:10F81000CDBFCF91DF911F910F91FF90EF90DF90BF
:10F82000CF90BF90AF909F908F907F906F905F90A0
:10F830004F903F902F9008950E94A1CA5FCCFC0189
:10F84000128213820895FC018381882311F081E0E4
:10F8500082830895FC018281811112820895CF93E1
:10F86000DF93DC01FC01EB55FE4F80819181009715
:10F87000C9F1019791838083ED01CC5ADF4FFD01DF
:10F88000ED58FF4F8BE1019009928150E1F7FD01A6
:10F89000EE5AFF4FAF58BF4F8D919C911197A157D2
:10F8A000B04091838083FD01ED58FF4F20E030E0B0
:10F8B000AD014B555E4F10C02F5F3F4FEF01DF0191
:10F8C0005F968BE10D9009928150E1F7858D968DC1
:10F8D000329791838083B196DA018D919C9128179C
:10F8E000390750F3DF91CF910895FC0183EF93E046
:10F8F000918380838781882321F0CF0104960E9421
:10F90000D1440895CF92DF92EF92FF920F931F930D
:10F91000DF93CF93CDB7DEB76F970FB6F894DEBF06
:10F920000FBECDBF8C016B01095A1F4FD8018C91BE
:10F9300007551040882321F42FE2E22EF12C03C05A
:10F9400090E5E92EF12CE00EF11E83EF93E09A830F
:10F9500089831C821B8218861D82B7016C5F7F4FD2
:10F96000CE010596A60121E00E94DE4B882391F589
:10F97000EBEAF2E1949108C08091C00085FFFCCFD2
:10F980009093C600319694919923B1F7E1EBF2E19F
:10F99000949108C08091C00085FFFCCF9093C60071
:10F9A000319694919923B1F709C08091C00085FFE9
:10F9B000FCCF0894C11CD11C9093C600F601908125
:10F9C000992399F78091C00085FFFCCF8AE080934E
:10F9D000C6005AC0F801EB55FE4F208131812A3014
:10F9E000310508F040C02F5F3F4F31832083215005
:10F9F0003040F90185E0EE0FFF1F8A95E1F7E21B29
:10FA0000F30BED58FF4FE00FF11F13C0AF01415E44
:10FA10005F4FBF018BE1DB010D90BD01DA010D925B
:10FA2000AD018150C1F7929182913296968F858F68
:10FA30007F9721503040BFEF2E3F3B0739F7D80169
:10FA4000AD58BF4FF70134968BE101900D92815074
:10FA5000E1F70F581F4FF70182819381D8018D93F1
:10FA60009C9301571040D801AC5ABF4FFE01359608
:10FA70008BE101900D928150E1F70E5A1F4F8B815F
:10FA80009C81F80191838083CE0101960E94757C50
:10FA90006F960FB6F894DEBF0FBECDBFCF91DF914A
:10FAA0001F910F91FF90EF90DF90CF900895EF920C
:10FAB000FF920F931F938C013EECE32E31E0F32E67
:10FAC000E80EF91EC7010E948144C7010E94D1447B
:10FAD000F801108211821F910F91FF90EF9008950D
:10FAE000CF92DF92EF92FF920F931F93CF93DF930A
:10FAF0007C016B01DB010D900020E9F78D010150C5
:10FB00001040061B170BEEECF1E0EE0EFF1ED701C6
:10FB10001C92E2E3FEEFEE0EFF1ECB016EE470E0FE
:10FB20000E940011EC01009731F4F8013197EC0DBF
:10FB3000FD1D86010EC060E270E00E9400118C0184
:10FB40000F5F1F4FCE016AE270E00E940011FC01BE
:10FB500031978DE081838AE082831382C7018653C7
:10FB60009E4FB8010E94E04C8EEC91E0E80EF91E29
:10FB7000D7018C91882319F1EBEDF2E1949108C043
:10FB80008091C00085FFFCCF9093C6003196949180
:10FB90009923B1F7E2EEF2E1949108C08091C000A0
:10FBA00085FFFCCF9093C600319694919923B1F7CD
:10FBB0008091C00085FFFCCF8AE08093C600DF9172
:10FBC000CF911F910F91FF90EF90DF90CF9008950C
:10FBD000CF93DF93EC018B81882309F43BC0EAE0EB
:10FBE000F3E1949108C08091C00085FFFCCF909311
:10FBF000C600319694919923B1F7CD57DD4F4881D6
:10FC000059816A817B81C358D24081EC99E02AE016
:10FC100030E00E94853FE8E0F3E1949108C08091D4
:10FC2000C00085FFFCCF9093C60031969491992334
:10FC3000B1F7C558DD4F488159816A817B8181ECDC
:10FC400099E02AE030E00E94853F8091C00085FF66
:10FC5000FCCF12C0E8EFF2E1949108C08091C0009F
:10FC600085FFFCCF9093C600319694919923B1F70C
:10FC70008091C00085FFFCCF8AE08093C600DF91B1
:10FC8000CF9108952F923F924F925F926F927F9201
:10FC90008F929F92AF92BF92CF92DF92EF92FF929C
:10FCA0000F931F93DF93CF93CDB7DEB7AC970FB60B
:10FCB000F894DEBF0FBECDBF5C014B01FC01838118
:10FCC000882309F438C1C50182539E4F0E94D14454
:10FCD000F50112821A8A1D8A198A188A83EF93E025
:10FCE0009F878E875EE4C52ED12CCA0CDB1C2FE2C9
:10FCF00030E0A20EB31EF601B182A08221ED3FEFEB
:10FD0000A20EB31EF40180818F3209F090C0C401AD
:10FD10006FE270E00E9400117C010894E11CF11C6C
:10FD20003E010894611C711C260142E1242E312CF5
:10FD30002C0E3D1E77C0C7016FE270E00E940011DB
:10FD40006C01009709F481C0E816F90608F07DC03F
:10FD50008C010E191F09C301B701A8010E942011CF
:10FD6000060D171DF8011082F30107C08091C00035
:10FD700085FFFCCF31969093C60090819923B1F70F
:10FD80008091C00085FFFCCFFAE0F093C600F2013D
:10FD9000608171816115710519F460E070E002C045
:10FDA0006C5F7F4FC101A30121E00E94DE4B8823DD
:10FDB00071F5E6E4F3E1949108C08091C00085FFFD
:10FDC000FCCF9093C600319694919923B1F7FE0130
:10FDD000319607C08091C00085FFFCCF319690938B
:10FDE000C60090819923B1F7E4E4F3E1949108C04F
:10FDF0008091C00085FFFCCF9093C600319694910E
:10FE00009923B1F78091C00085FFFCCF8DC02EE013
:10FE100030E02C0F3D1FF2013183208376010894DE
:10FE2000E11CF11CE114F10409F085CF0BC080E561
:10FE300090E0A80EB91EF601B182A08220EB3FEF40
:10FE4000A20EB31ED82C092D02C0DE2C0F2D8EE47D
:10FE500090E0A80EB91EF5018081918122EB3FEF61
:10FE6000A20EB31E009719F480E090E001C0049642
:10FE70006D2D702F0E94B04C882339F1E6E3F3E139
:10FE8000949108C08091C00085FFFCCF9093C6007C
:10FE9000319694919923B1F78D2D902F9C01F90102
:10FEA00007C08091C00085FFFCCF31969093C600BB
:10FEB00090819923B1F783E892E0A80EB91EF5016D
:10FEC000108211821282138232C0EEE1F3E194912A
:10FED00008C08091C00085FFFCCF9093C60031968A
:10FEE00094919923B1F78D2D902F9C01F90107C0B2
:10FEF0008091C00085FFFCCF31969093C600908121
:10FF00009923B1F7ECE1F3E1949108C08091C0002E
:10FF100085FFFCCF9093C600319694919923B1F759
:10FF20008091C00085FFFCCF8AE08093C600CE019F
:10FF30000E960E94757CAC960FB6F894DEBF0FBE8D
:10FF4000CDBFCF91DF911F910F91FF90EF90DF9088
:10FF5000CF90BF90AF909F908F907F906F905F9069
:10FF60004F903F902F900895BF92CF92DF92EF92E3
:10FF7000FF920F931F93CF93DF938C01EB018FE2DE
:10FF80008993EE24E394FF2475EAC72E71E0D72EFF
:10FF9000C00ED11E6FE1B62E14C0FB9CC00111240F
:10FFA0008D589F4F800F911FBE010E94E34402C0F5
:10FFB0002196E3948881882319F08CE88E15C0F788
:10FFC000F3942F2D30E0F6018081918128173907B5
:10FFD00020F3E7FC07C0C80182539E4FBE010E9478
:10FFE000E34401C01882DF91CF911F910F91FF90E0
:10FFF000EF90DF90CF90BF9008952F923F924F9255
:020000021000EC
:100000005F926F927F928F929F92AF92BF92CF92A8
:10001000DF92EF92FF920F931F93DF93CF93CDB7B1
:10002000DEB7AD970FB6F894DEBF0FBECDBF6C0143
:100030004B014DA7DC0113968C91882309F44AC328
:10004000E1EDF1E0CE0EDF1ED6018C91EFE2FEEF86
:10005000CE0EDF1E882309F419C1222309F0E1C066
:1000600029EE31E0C20ED31ED6018C91E7E1FEEFFE
:10007000CE0EDF1E882371F1EBEDF2E1949108C002
:100080008091C00085FFFCCF9093C600319694917B
:100090009923B1F7EEE1F4E1949108C08091C0009A
:1000A00085FFFCCF9093C600319694919923B1F7C8
:1000B00081EC99E061E070E04AE050E00E94D93FB5
:1000C0008091C00085FFFCCF8AE08093C6000E942B
:1000D000A41900C3EBEAF2E1949108C08091C0003A
:1000E00085FFFCCF9093C600319694919923B1F788
:1000F000E5E0F4E1949108C08091C00085FFFCCF59
:100100009093C600319694919923B1F7F40107C0FA
:100110008091C00085FFFCCF31969093C6009081FE
:100120009923B1F7EAEFF3E1949108C08091C00000
:1001300085FFFCCF9093C600319694919923B1F737
:10014000C6012EEE31E0C20ED31EB6010E94B47F6E
:100150004BEF5FEFC40ED51ED6019C91E7E1FEEF99
:10016000CE0EDF1E8DE8989FF0011124E251FE4F64
:10017000EC0DFD1D07C08091C00085FFFCCF3196BE
:100180009093C60090819923B1F7E4EFF3E1949145
:1001900008C08091C00085FFFCCF9093C6003196C7
:1001A00094919923B1F723E832E0C20ED31ED60111
:1001B0004D915D916D917C91EDE7FDEFCE0EDF1ECF
:1001C00081EC99E02AE030E00E94853F8091C000F8
:1001D00085FFFCCF8AE08093C600A60147515E4FA1
:1001E000DA012C91E22FF0E0EE0FFF1FEE0FFF1F60
:1001F000EC0DFD1DE651FE4F83E892E0C80ED91EBE
:10020000D6014D905D906D907C908DE79DEFC80E6E
:10021000D91E40825182628273822F5FDA012C9351
:100220002FC0EBEAF2E1949108C08091C00085FFF5
:10023000FCCF9093C600319694919923B1F7E3EEE9
:10024000F3E1949108C08091C00085FFFCCF9093AA
:10025000C600319694919923B1F7F40107C08091BB
:10026000C00085FFFCCF31969093C6009081992302
:10027000B1F78091C00085FFFCCF8AE08093C60073
:10028000C60182539E4F0E94D14439C0E9EEF1E08D
:10029000CE0EDF1ED6011C92E7E1FEEFCE0EDF1E72
:1002A000EBEAF2E1949108C08091C00085FFFCCF99
:1002B0009093C600319694919923B1F7E2EDF3E162
:1002C000949108C08091C00085FFFCCF9093C60038
:1002D000319694919923B1F7F40107C08091C00041
:1002E00085FFFCCF31969093C60090819923B1F79A
:1002F0008091C00085FFFCCF8AE08093C600D601C4
:1003000012961C921A8A1D8A198A188A83EF93E022
:100310009F878E87FEE4AF2EB12CAC0CBD1CEFE2A4
:10032000F0E0CE0EDF1ED501CD92DC92E1EDFFEFC5
:10033000CE0EDF1ED4018C918F3209F090C0C40123
:100340006FE270E00E9400117C010894E11CF11C36
:100350003E010894611C711C2501E2E12E2E312C16
:100360002C0E3D1E77C0C7016FE270E00E940011A5
:100370005C01009709F481C0E816F90608F07DC019
:100380008C010E191F09C301B701A8010E94201199
:10039000060D171DF8011082F30107C08091C000FF
:1003A00085FFFCCF31969093C60090819923B1F7D9
:1003B0008091C00085FFFCCFFAE0F093C600D20127
:1003C0006D917C916115710519F460E070E002C0D7
:1003D0006C5F7F4FC101A30121E00E94DE4B8823A7
:1003E00071F5EEEBF3E1949108C08091C00085FFB8
:1003F000FCCF9093C600319694919923B1F7FE01FA
:10040000319607C08091C00085FFFCCF3196909354
:10041000C60090819923B1F7ECEBF3E1949108C009
:100420008091C00085FFFCCF9093C60031969491D7
:100430009923B1F78091C00085FFFCCF1BC12EE04E
:1004400030E02C0F3D1FF2013183208375010894A9
:10045000E11CF11CE114F10409F085CF0BC040E56B
:1004600050E0C40ED51ED501CD92DC92E0EBFFEF3B
:10047000CE0EDF1E082DF92C01C00E2DF601E25B19
:10048000FF4F2DA5222309F4B1C060817181611550
:10049000710519F460E070E002C06C5F7F4FC60127
:1004A00082539E4F402F5F2D21E00E94DE4B882318
:1004B00009F46CC04FED51E0C40ED51ED6014D912C
:1004C0005D916D917C91ECE9F0E0CE0EDF1ED601DE
:1004D0004D935D936D937C931397E5E8FDEFCE0EFE
:1004E000DF1EEEEAF3E1949108C08091C00085FF21
:1004F000FCCF9093C600319694919923B1F7802F49
:100500009F2D9C01F90107C08091C00085FFFCCFA1
:1005100031969093C60090819923B1F7E6EAF3E112
:10052000949108C08091C00085FFFCCF9093C600D5
:10053000319694919923B1F781EC99E02AE030E06B
:100540000E94853F8091C00085FFFCCF8AE08093A8
:10055000C60023E832E0C20ED31ED6011D921D92C2
:100560001D921C921397E8E9F3E1949108C08091E1
:10057000C00085FFFCCF9093C600319694919923DB
:10058000B1F78091C00085FFFCCF99C0E4E8F3E1AA
:10059000949108C08091C00085FFFCCF9093C60065
:1005A000319694919923B1F7802F9F2D9C01F901E9
:1005B00007C08091C00085FFFCCF31969093C600A4
:1005C00090819923B1F7E2E8F3E1949108C080911A
:1005D000C00085FFFCCF9093C6003196949199237B
:1005E000B1F78091C00085FFFCCF44C0608171816C
:1005F0006115710519F460E070E002C06C5F7F4F17
:10060000C60182539E4F402F5F2D26E50E94DE4B90
:10061000882309F033C0EEE6F3E1949108C080919D
:10062000C00085FFFCCF9093C6003196949199232A
:10063000B1F7802F9F2D9C01F90107C08091C00068
:1006400085FFFCCF31969093C60090819923B1F736
:10065000ECE6F3E1949108C08091C00085FFFCCFE7
:100660009093C600319694919923B1F78091C00080
:1006700085FFFCCF8AE08093C60028C081E0F601A8
:100680008083EAE5F3E1949108C08091C00085FF82
:10069000FCCF9093C600319694919923B1F7F40161
:1006A00007C08091C00085FFFCCF31969093C600B3
:1006B00090819923B1F78091C00085FFFCCF8AE03B
:1006C0008093C600802F9F2D0E94EAC9CE010E960E
:1006D0000E94757CAD960FB6F894DEBF0FBECDBFFD
:1006E000CF91DF911F910F91FF90EF90DF90CF900E
:1006F000BF90AF909F908F907F906F905F904F9042
:100700003F902F900895EF92FF920F931F93CF93F6
:10071000DF93EC010E9407688E0107511E4FD8013C
:100720008C919EECE92E91E0F92EEC0EFD1E8823B3
:10073000A1F1C7010E94D144F8016081615060833A
:100740008DE8689FB001112462517E4F6C0F7D1FB0
:10075000CE0141E021E00E94FD7FD801EC91F0E064
:10076000EE0FFF1FEE0FFF1FEC0FFD1FE651FE4FB8
:100770004081518162817381CD57DD4F4883598318
:100780006A837B83C358D240C7010E94B7438B81E1
:10079000882369F081E08A830AC00E94E467C70168
:1007A0000E94D1441A828FE992E10E94663DDF9156
:1007B000CF911F910F91FF90EF900895FC0181E080
:1007C0008183CF0140E021E00E94FD7F0895EF92F8
:1007D000FF920F931F93CF93DF938C01FC01138241
:1007E00086A9882321F0C801C3960E94D14427EA34
:1007F000E22E21E0F22EE00EF11EC70160E045E39B
:100800000E947B42882309F5EBEAF2E1949108C04B
:100810008091C00085FFFCCF9093C60031969491E3
:100820009923B1F7EFE8F4E1949108C08091C000FA
:1008300085FFFCCF9093C600319694919923B1F730
:100840008091C00085FFFCCF7DC0E801C455DE4F1C
:10085000CE01B70141E00E94754D882341F5CE01DC
:10086000B70140E00E94754D882309F5EBEDF2E1F8
:10087000949108C08091C00085FFFCCF9093C60082
:10088000319694919923B1F7ECE7F4E1949108C083
:100890008091C00085FFFCCF9093C6003196949163
:1008A0009923B1F78091C00085FFFCCF4BC0C801F0
:1008B000C396BE010E94D247882309F5EBEDF2E111
:1008C000949108C08091C00085FFFCCF9093C60032
:1008D000319694919923B1F7ECE6F4E1949108C034
:1008E0008091C00085FFFCCF9093C6003196949113
:1008F0009923B1F78091C00085FFFCCF23C081E030
:10090000F8018383EBEAF2E1949108C08091C00082
:1009100085FFFCCF9093C600319694919923B1F74F
:10092000E1E6F4E1949108C08091C00085FFFCCF1E
:100930009093C600319694919923B1F78091C000AD
:1009400085FFFCCF8AE08093C600D801AC5ABF4F28
:10095000F801F3968BE101900D928150E1F7F801D7
:1009600081A992A90E5A1F4FF801918380830255E5
:100970001040C8018F96025B1F4FF801918380835E
:10098000DF91CF911F910F91FF90EF9008952F92DB
:100990003F924F925F926F927F929F92AF92BF92DF
:1009A000CF92DF92EF92FF920F931F93DF93CF933B
:1009B000CDB7DEB7CC55D0400FB6F894DEBF0FBE32
:1009C000CDBF6C01662311F527E832E0C20ED31EBD
:1009D000D6018C91E9E7FDEFCE0EDF1E882309F4E6
:1009E000E2C02FE732E0C20ED31ED601ED90FD909B
:1009F0000D911C91E1E8FDEFCE0EDF1E0E94181450
:100A0000E616F7060807190708F4CDC027E832E014
:100A1000C20ED31ED6011C92E9E7FDEFCE0EDF1EFB
:100A2000D60113968C91882341F4C6010E94E78376
:100A3000F6018381882309F4B6C000D000D0EDB759
:100A4000FEB731967E010894E11CF11CADB7BEB72C
:100A50001296FC92EE92119782ED92E1938382833B
:100A6000D6019D968D919C919E97958384830E943B
:100A70002F118701EDB7FEB736960FB6F894FEBF7B
:100A80000FBEEDBF570108C0D8018C9190E00E94C5
:100A900057D6F80181938F01F50101900020E9F705
:100AA0003197EA19FB09802F8E198E176CF363E3D7
:100AB000A62EB12CAC0CBD1CC50140E050E060E09E
:100AC00070E00E94B74399245DE3E52EF12CEC0E13
:100AD000FD1E2E010894411C511C4FE1642E712C07
:100AE0006C0E7D1E3BEC232E32E1332E42C0D8012A
:100AF0008C9190E00E9457D6F80181938F01F70105
:100B000001900020E9F73197EE19FF09802F8E1927
:100B10008E176CF327968FAD27978E3751F1C7014B
:100B2000B20145E050E00E941211009711F500D08B
:100B300000D0EDB7FEB73196ADB7BEB712967C9236
:100B40006E92119733822282558244820E942F1125
:100B5000EDB7FEB736960FB6F894FEBF0FBEEDBFE9
:100B6000C3010E94DF3D87EC92E10E94663D99241B
:100B70009394C501B70140E050E00E94EE4618167C
:100B800014F48701BCCF992041F48FEF9FEFD60179
:100B90009E969C938E939D9706C0F60185A596A57B
:100BA000019696A785A7C45ADF4F0FB6F894DEBF0B
:100BB0000FBECDBFCF91DF911F910F91FF90EF90AE
:100BC000DF90CF90BF90AF909F907F906F905F909D
:100BD0004F903F902F9008952F923F924F925F92A7
:100BE0006F927F928F929F92AF92BF92CF92DF923D
:100BF000EF92FF920F931F93DF93CF93CDB7DEB7A2
:100C0000CF58D0400FB6F894DEBF0FBECDBF8C01D9
:100C10003B016A0184E090E0C80ED91EF80171968C
:100C2000C757DF4FF983E883C958D040C8010496FD
:100C3000CA57DF4F99838883C658D040C857DF4FC3
:100C40001882C858D040B6E6EB2EF12CEC0EFD1EF3
:100C5000F7013B96C557DF4FF983E883CB58D04067
:100C6000A8E88A2EA2E09A2E800E911EF9E8AF2EF7
:100C7000F2E0BF2EA00EB11EEEE02E2E312C2C0E77
:100C80003D1E77E4472E512C4C0E5D1EC20104968A
:100C9000C357DF4F99838883CD58D040EBEAF2E108
:100CA0009491C157DF4F9883CF58D04049C1F70185
:100CB0008385282F30E0A9014871507040315105DB
:100CC00009F04CC1F4019081913009F447C1923090
:100CD00009F444C1F701DE0111969081903239F098
:100CE0008E2F8E19883011F48EE28D939D9331965C
:100CF000C557DF4F88819981CB58D040E817F90755
:100D000061F71C921E86F3018081882329F4C101BA
:100D100066E273E00E94F510C101B3010E94F51074
:100D2000C101BE016F5F7F4F0E94F510C10166E2F5
:100D300073E00E94F5101CA61FA61BA61AA683EF3F
:100D400093E099A788A7CE018C96B601AE014F5FBC
:100D50005F4F21E00E94DE4B882309F03EC0F40182
:100D600080818823D1F5C157DF4F9881CF58D0407B
:100D7000EBEAF2E108C08091C00085FFFCCF9093C0
:100D8000C600319694919923B1F7E8E2F3E007C0E9
:100D90008091C00085FFFCCF31969093C600908172
:100DA0009923B1F78091C00085FFFCCFFAE0F09362
:100DB000C600FE01319607C08091C00085FFFCCFC0
:100DC00031969093C60090819923B1F78091C0002D
:100DD00085FFFCCF8AE08093C600C357DF4FA88110
:100DE000B981CD58D040FE01BC968BE101900D92A7
:100DF0008150E1F78AA59BA5F2019383828383EF5B
:100E000093E091838083C801B101A2010E94EC8527
:100E1000C2010E94757CCE0188960E94757C90C0AC
:100E2000953E09F48DC09E3209F48AC09F3509F4BD
:100E300087C0F8019189992331F09E3209F480C06E
:100E40009F3509F47DC023FD7BC080E04031510512
:100E500009F481E0F80184A7882349F4F70180852B
:100E6000873409F06DC081858E3709F469C0CA578F
:100E7000DF4FA881B981C658D040F7018081803208
:100E800041F08E2F8E19883011F48EE28D9380817F
:100E90008D933196C557DF4F88819981CB58D040CB
:100EA000E817F90759F71C92F4018081882329F586
:100EB000F30107C08091C00085FFFCCF319690936D
:100EC000C60090819923B1F7CA57DF4FE881F981B5
:100ED000C658D04007C08091C00085FFFCCF319636
:100EE0009093C60090819923B1F78091C00085FF4F
:100EF000FCCFFAE0F093C60023C0813039F4F5014D
:100F0000808191810196918380831AC08230C1F4DF
:100F1000C857DF4FF881C858D0402F2F30E0F50177
:100F20008081918128173907F1F0C857DF4FF88188
:100F3000C858D040FF5FC857DF4FF883C858D0402B
:100F4000C601B701C757DF4F48815981C958D04002
:100F50000E94EE4618160CF4AACE05C0F701908147
:100F6000992309F05DCFC157DF4F0FB6F894DEBF6C
:100F70000FBECDBFCF91DF911F910F91FF90EF90EA
:100F8000DF90CF90BF90AF909F908F907F906F90A9
:100F90005F904F903F902F900895EF92FF920F93A4
:100FA0001F93DF93CF93CDB7DEB76F970FB6F8944B
:100FB000DEBF0FBECDBF7C018C01025B1F4F805B8B
:100FC0009F4FF8019183808328E832E0E20EF31E00
:100FD00021E0F70121937F011182108227E73DEF85
:100FE000E20EF31E049640E050E060E070E00E94E4
:100FF000B743F80120813181DE011596F90134965D
:101000008BE101900D928150E1F7F901828193818A
:101010009C838B8383EF93E09A838983C7016BE37F
:1010200073E08E010F5F1F4FA8010E94EC85C8017D
:101030000E94757CF701E757FD4F808191816F9683
:101040000FB6F894DEBF0FBECDBFCF91DF911F91D9
:101050000F91FF90EF900895EF92FF920F931F93DF
:10106000DF93CF93CDB7DEB76F970FB6F894DEBF9F
:101070000FBECDBF7C018C01025B1F4F805B9F4F79
:10108000F8019183808328E832E0E20EF31E22E02B
:10109000F701208328E73DEFE20EF31EF701E75743
:1010A000FD4F60831182049640E050E060E070E004
:1010B0000E94B743F80120813181DE011596F901C4
:1010C00034968BE101900D928150E1F7F901828114
:1010D00093819C838B8383EF93E09A838983C701F9
:1010E0006BE373E08E010F5F1F4FA8010E94EC8538
:1010F000C8010E94757C6F960FB6F894DEBF0FBED4
:10110000CDBFCF91DF911F910F91FF90EF90089588
:10111000EF92FF920F931F93DF93CF93CDB7DEB77C
:101120006F970FB6F894DEBF0FBECDBF7C0188E885
:1011300092E0E80EF91EF701108288E79DEFE80EB5
:10114000F91E87010D5C1F4FC80140E050E060E0D0
:1011500070E00E94B743DE011596F8018BE1019023
:101160000D928150E1F7F70181A992A99C838B83AD
:1011700083EF93E09A838983C7016BE373E08E0169
:101180000F5F1F4FA8010E94EC85C8010E94757C6B
:101190006F960FB6F894DEBF0FBECDBFCF91DF9133
:1011A0001F910F91FF90EF9008950F931F93CF938E
:1011B000DF93DC01D3961C92D397D6961C92D697D8
:1011C000D2961C921E92D19783EF93E0D0969C9377
:1011D0008E939F97AC5ABF4F1C9213961C92A755A3
:1011E000B040FD01E05BFF4FAE5ABF4F11961C921D
:1011F0001E92A255B04091838083ED01C159DF4F0B
:10120000FE0120E030E0482F148217821382128200
:1012100040839183215E3F4F7F9681E026333807DC
:1012200099F7A855BE4F89E18C9313961C92589656
:101230001C921B961C9213961C92A15DB140FD015D
:10124000E653FE4FA453BE4F11961C921E9240834C
:101250009183A155BF4F1D921D921D921C92139711
:1012600018961D921D921D921C921397A358B2407E
:1012700012961C92129713961C9213971C92119619
:101280001C9211978D0101581D4FF8011082118297
:1012900012821382AB55BE4F11961C921E92AC5B0C
:1012A000BF4F1C92FE01C90111920197E9F7A256A6
:1012B000BF4F81E08C93A758B2409E961C921E921D
:1012C0009D970E94181468577C4E8F4F9F4FF801CE
:1012D0006083718382839383DF91CF911F910F91FC
:1012E0000895DF93CF93CDB7DEB72A970FB6F89462
:1012F000DEBF0FBECDBF80913C0390913D03A09116
:101300003E03B0913F038B839C83AD83BE83FE017C
:10131000339624E630E08081F999FECF1FBA32BDC2
:1013200021BD80BD0FB6F894FA9AF99A0FBE2F5FCF
:101330003F4F2836310511F03196EDCFE3EEFBE05B
:101340008081F999FECF1FBA32BD21BD80BD0FB695
:10135000F894FA9AF99A0FBE2F5F3F4F283731055C
:1013600011F03196EDCFE3EDFBE08081F999FECFEE
:101370001FBA32BD21BD80BD0FB6F894FA9AF99A12
:101380000FBE2F5F3F4F2838310511F03196EDCF5A
:10139000E3EFFBE08081F999FECF1FBA32BD21BD9A
:1013A00080BD0FB6F894FA9AF99A0FBE2F5F3F4F9F
:1013B0002839310511F03196EDCFE7E0FCE080816E
:1013C000F999FECF1FBA32BD21BD80BD0FB6F8948A
:1013D000FA9AF99A0FBE2F5F3F4F2C39310511F061
:1013E0003196EDCFEBE0FCE08081F999FECF1FBA9A
:1013F00032BD21BD80BD0FB6F894FA9AF99A0FBE9E
:101400002F5F3F4F203A310511F03196EDCFE3E0E9
:10141000FCE08081F999FECF1FBA32BD21BD80BDAD
:101420000FB6F894FA9AF99A0FBE2F5F3F4F243AFD
:10143000310511F03196EDCFEBE1FCE08081F999B7
:10144000FECF1FBA32BD21BD80BD0FB6F894FA9A07
:10145000F99A0FBE2F5F3F4F283A310511F03196B0
:10146000EDCFEFECFBE08081F999FECF1FBA32BDE2
:1014700021BD80BD0FB6F894FA9AF99A0FBE2F5F7E
:101480003F4F2C3A310511F03196EDCFEFE0FCE003
:101490008081F999FECF1FBA32BD21BD80BD0FB644
:1014A000F894FA9AF99A0FBE2F5F3F4F203B31050F
:1014B00011F03196EDCFE3E1FCE08081F999FECFA8
:1014C0001FBA32BD21BD80BD0FB6F894FA9AF99AC1
:1014D0000FBE2F5F3F4F243B310511F03196EDCF0A
:1014E000E7E1FCE08081F999FECF1FBA32BD21BD52
:1014F00080BD0FB6F894FA9AF99A0FBE2F5F3F4F4E
:10150000283B310511F03196EDCFEAE3F7E0808119
:10151000F999FECF1FBA32BD21BD80BD0FB6F89438
:10152000FA9AF99A0FBE2F5F3F4F243C310511F014
:101530003196EDCFE6E2F2E18081F999FECF1FBA54
:1015400032BD21BD80BD0FB6F894FA9AF99A0FBE4C
:101550002F5F3F4F263C310511F03196EDCFE8E289
:10156000F2E18081F999FECF1FBA32BD21BD80BD65
:101570000FB6F894FA9AF99A0FBE2F5F3F4F283CA6
:10158000310511F03196EDCFEAE2F2E18081F9996F
:10159000FECF1FBA32BD21BD80BD0FB6F894FA9AB6
:1015A000F99A0FBE2F5F3F4F2A3C310511F031965B
:1015B000EDCFECE2F2E18081F999FECF1FBA32BDA6
:1015C00021BD80BD0FB6F894FA9AF99A0FBE2F5F2D
:1015D0003F4F2C3C310511F03196EDCFEEE2F2E1B8
:1015E0008081F999FECF1FBA32BD21BD80BD0FB6F3
:1015F000F894FA9AF99A0FBE2F5F3F4F2E3C3105AF
:1016000011F03196EDCFE0E3F2E18081F999FECF60
:101610001FBA32BD21BD80BD0FB6F894FA9AF99A6F
:101620000FBE2F5F3F4F203D310511F03196EDCFBA
:10163000E9E7F3E08081F999FECF1FBA32BD21BD01
:1016400080BD0FB6F894FA9AF99A0FBE2F5F3F4FFC
:10165000243D310511F03196EDCFEDE7F3E08081C7
:10166000F999FECF1FBA32BD21BD80BD0FB6F894E7
:10167000FA9AF99A0FBE2F5F3F4F283D310511F0BE
:101680003196EDCFE1E8F3E08081F999FECF1FBA02
:1016900032BD21BD80BD0FB6F894FA9AF99A0FBEFB
:1016A0002F5F3F4F2C3D310511F03196EDCF80E299
:1016B00090E09A838983FE0131968081F999FECF6B
:1016C0001FBA32BD21BD80BD0FB6F894FA9AF99ABF
:1016D0000FBE2D3D310521F031962DED30E0EDCFDF
:1016E0008091400390914103A0914203B091430344
:1016F0008F839887A987BA87FE01379684E690E0A2
:101700002081F999FECF1FBA92BD81BD20BD0FB6D1
:10171000F894FA9AF99A0FBE8736910519F0019656
:101720003196EECFECE9F4E1949108C08091C000CD
:1017300085FFFCCF9093C600319694919923B1F721
:10174000E6EAF6E1949108C08091C00085FFFCCFE5
:101750009093C600319694919923B1F78091C0007F
:1017600085FFFCCF8AE08093C6002A960FB6F894D6
:10177000DEBF0FBECDBFCF91DF910895DF93CF9332
:10178000CDB7DEB7E0970FB6F894DEBF0FBECDBF82
:10179000DE011196EDE1F4E080E101900D928150BF
:1017A000E1F7DE015196EDE0F4E080E101900D9269
:1017B0008150E1F7DE019196EDEFF3E080E10190D9
:1017C0000D928150E1F789819A81AB81BC81809330
:1017D000E30B9093E40BA093E50BB093E60B8989A0
:1017E0009A89AB89BC898093D30B9093D40BA09337
:1017F000D50BB093D60B89A19AA1ABA1BCA18093C4
:10180000F30B9093F40BA093F50BB093F60B8D8133
:101810009E81AF81B8858093E70B9093E80BA093EE
:10182000E90BB093EA0B8D899E89AF89B88D8093BF
:10183000D70B9093D80BA093D90BB093DA0B8DA153
:101840009EA1AFA1B8A58093F70B9093F80BA0933E
:10185000F90BB093FA0B89859A85AB85BC8580938B
:10186000EB0B9093EC0BA093ED0BB093EE0B898DEB
:101870009A8DAB8DBC8D8093DB0B9093DC0BA0938A
:10188000DD0BB093DE0B89A59AA5ABA5BCA5809313
:10189000FB0B9093FC0BA093FD0BB093FE0B8D857F
:1018A0009E85AF85B8898093EF0B9093F00BA09342
:1018B000F10BB093F20B8D8D9E8DAF8DB8A18093FF
:1018C000DF0B9093E00BA093E10BB093E20B8DA59F
:1018D0009EA5AFA5B8A98093FF0B9093000CA09391
:1018E000010CB093020C0E94415580E090E0AAE701
:1018F000B5E48093070C9093080CA093090CB09367
:101900000A0C80E090E8ABE3B5E480930B0C909375
:101910000C0CA0930D0CB0930E0C20E030E040E0D6
:1019200050E02093030C3093040C4093050C50932B
:10193000060C80E29EE4A0E0B0E08093CF0B909391
:10194000D00BA093D10BB093D20B20931B0C3093F0
:101950001C0C40931D0C50931E0C80E090E0A0EAFC
:10196000B1E480930F0C9093100CA093110CB093E2
:10197000120C8DEC9CECACECBEE38093130C9093BA
:10198000140CA093150CB093160C80E090E0A0EA24
:10199000B0E48093170C9093180CA093190CB0939B
:1019A0001A0C209342073093430740934407509307
:1019B000450720933E0730933F07409340075093DD
:1019C000410720933A0730933B0740933C075093DD
:1019D0003D0782ED90E0909327128093261286E4D3
:1019E00090E0909329128093281210922B1210925B
:1019F0002A128AEF90E090932D1280932C1284E6A5
:101A000090E090932F1280932E1210923112109228
:101A100030128AE999E9A1EBB1E4809379039093BC
:101A20007A03A0937B03B0937C0361E77DE38AE8AC
:101A30009FE30E94507060937D0370937E038093B8
:101A40007F039093800360E070E084EE92E40E9454
:101A50005E706093810370938203809383039093FD
:101A600084030E940C7080E090E0A0E8BFE38093C4
:101A7000850390938603A0938703B0938803ECE9D2
:101A8000F4E1949108C08091C00085FFFCCF909351
:101A9000C600319694919923B1F7E2EAF4E194916A
:101AA00008C08091C00085FFFCCF9093C60031969E
:101AB00094919923B1F78091C00085FFFCCF8AE013
:101AC0008093C600E0960FB6F894DEBF0FBECDBF80
:101AD000CF91DF910895CF93DF93CCE9D4E1FE015C
:101AE000949108C08091C00085FFFCCF9093C60000
:101AF000319694919923B1F7E6E9F6E1949108C003
:101B00008091C00085FFFCCF9093C60031969491E0
:101B10009923B1F78091C00085FFFCCF8AE08093C4
:101B2000C600FE019491ECE9F4E108C08091C00088
:101B300085FFFCCF9093C600319694919923B1F71D
:101B40004091E30B5091E40B6091E50B7091E60B33
:101B50008EE896E10E94D21D4091E70B5091E80B70
:101B60006091E90B7091EA0B8BE896E10E94D21D1F
:101B70004091EB0B5091EC0B6091ED0B7091EE0BE3
:101B800088E896E10E94D21D4091EF0B5091F00B36
:101B90006091F10B7091F20B85E896E10E94D21DE5
:101BA000E4E4F3E007C08091C00085FFFCCF3196EC
:101BB0009093C60090819923B1F78091C00085FF72
:101BC000FCCF8AE08093C600FE019491ECE9F4E139
:101BD00008C08091C00085FFFCCF9093C60031966D
:101BE00094919923B1F7EBE6F6E1949108C08091C6
:101BF000C00085FFFCCF9093C60031969491992345
:101C0000B1F78091C00085FFFCCF8AE08093C600C9
